{
	"Stack.sol": {
		"LPMining": {
			"abi": [
				{
					"inputs": [
						{
							"internalType": "contract IBEP20",
							"name": "_para",
							"type": "address"
						}
					],
					"stateMutability": "nonpayable",
					"type": "constructor"
				},
				{
					"anonymous": false,
					"inputs": [
						{
							"indexed": true,
							"internalType": "address",
							"name": "user",
							"type": "address"
						},
						{
							"indexed": true,
							"internalType": "uint256",
							"name": "pid",
							"type": "uint256"
						},
						{
							"indexed": false,
							"internalType": "uint256",
							"name": "amount",
							"type": "uint256"
						}
					],
					"name": "Deposit",
					"type": "event"
				},
				{
					"anonymous": false,
					"inputs": [
						{
							"indexed": true,
							"internalType": "address",
							"name": "user",
							"type": "address"
						},
						{
							"indexed": true,
							"internalType": "uint256",
							"name": "pid",
							"type": "uint256"
						},
						{
							"indexed": false,
							"internalType": "uint256",
							"name": "amount",
							"type": "uint256"
						}
					],
					"name": "EmergencyWithdraw",
					"type": "event"
				},
				{
					"anonymous": false,
					"inputs": [
						{
							"indexed": true,
							"internalType": "address",
							"name": "previousOwner",
							"type": "address"
						},
						{
							"indexed": true,
							"internalType": "address",
							"name": "newOwner",
							"type": "address"
						}
					],
					"name": "OwnershipTransferred",
					"type": "event"
				},
				{
					"anonymous": false,
					"inputs": [
						{
							"indexed": true,
							"internalType": "address",
							"name": "user",
							"type": "address"
						},
						{
							"indexed": true,
							"internalType": "uint256",
							"name": "pid",
							"type": "uint256"
						},
						{
							"indexed": false,
							"internalType": "uint256",
							"name": "amount",
							"type": "uint256"
						}
					],
					"name": "Withdraw",
					"type": "event"
				},
				{
					"inputs": [],
					"name": "BASE",
					"outputs": [
						{
							"internalType": "uint256",
							"name": "",
							"type": "uint256"
						}
					],
					"stateMutability": "view",
					"type": "function"
				},
				{
					"inputs": [],
					"name": "BONUS_MULTIPLIER",
					"outputs": [
						{
							"internalType": "uint256",
							"name": "",
							"type": "uint256"
						}
					],
					"stateMutability": "view",
					"type": "function"
				},
				{
					"inputs": [],
					"name": "DENOMINATOR",
					"outputs": [
						{
							"internalType": "uint256",
							"name": "",
							"type": "uint256"
						}
					],
					"stateMutability": "view",
					"type": "function"
				},
				{
					"inputs": [],
					"name": "DENOMINATOR_TEST",
					"outputs": [
						{
							"internalType": "uint256",
							"name": "",
							"type": "uint256"
						}
					],
					"stateMutability": "view",
					"type": "function"
				},
				{
					"inputs": [],
					"name": "aadd",
					"outputs": [
						{
							"internalType": "uint256",
							"name": "",
							"type": "uint256"
						}
					],
					"stateMutability": "pure",
					"type": "function"
				},
				{
					"inputs": [
						{
							"internalType": "uint256",
							"name": "_apr",
							"type": "uint256"
						},
						{
							"internalType": "uint256",
							"name": "_duration",
							"type": "uint256"
						}
					],
					"name": "add",
					"outputs": [],
					"stateMutability": "nonpayable",
					"type": "function"
				},
				{
					"inputs": [
						{
							"internalType": "uint256",
							"name": "_pid",
							"type": "uint256"
						},
						{
							"internalType": "address",
							"name": "_user",
							"type": "address"
						}
					],
					"name": "calculateReward",
					"outputs": [
						{
							"internalType": "uint256",
							"name": "reward",
							"type": "uint256"
						}
					],
					"stateMutability": "view",
					"type": "function"
				},
				{
					"inputs": [
						{
							"internalType": "uint256",
							"name": "_pid",
							"type": "uint256"
						},
						{
							"internalType": "uint256",
							"name": "_amount",
							"type": "uint256"
						}
					],
					"name": "deposit",
					"outputs": [],
					"stateMutability": "nonpayable",
					"type": "function"
				},
				{
					"inputs": [
						{
							"internalType": "uint256",
							"name": "_from",
							"type": "uint256"
						},
						{
							"internalType": "uint256",
							"name": "_to",
							"type": "uint256"
						}
					],
					"name": "getMultiplier",
					"outputs": [
						{
							"internalType": "uint256",
							"name": "",
							"type": "uint256"
						}
					],
					"stateMutability": "pure",
					"type": "function"
				},
				{
					"inputs": [
						{
							"internalType": "uint256",
							"name": "id",
							"type": "uint256"
						}
					],
					"name": "getPoolInfo",
					"outputs": [
						{
							"components": [
								{
									"internalType": "uint256",
									"name": "duration",
									"type": "uint256"
								},
								{
									"components": [
										{
											"internalType": "uint256",
											"name": "apr",
											"type": "uint256"
										},
										{
											"internalType": "uint256",
											"name": "time",
											"type": "uint256"
										}
									],
									"internalType": "struct LPMining.AprInfo[]",
									"name": "aprs",
									"type": "tuple[]"
								}
							],
							"internalType": "struct LPMining.PoolInfo",
							"name": "",
							"type": "tuple"
						}
					],
					"stateMutability": "view",
					"type": "function"
				},
				{
					"inputs": [],
					"name": "migrator",
					"outputs": [
						{
							"internalType": "contract IMigratorChef",
							"name": "",
							"type": "address"
						}
					],
					"stateMutability": "view",
					"type": "function"
				},
				{
					"inputs": [],
					"name": "owner",
					"outputs": [
						{
							"internalType": "address",
							"name": "",
							"type": "address"
						}
					],
					"stateMutability": "view",
					"type": "function"
				},
				{
					"inputs": [],
					"name": "para",
					"outputs": [
						{
							"internalType": "contract IBEP20",
							"name": "",
							"type": "address"
						}
					],
					"stateMutability": "view",
					"type": "function"
				},
				{
					"inputs": [
						{
							"internalType": "uint256",
							"name": "_pid",
							"type": "uint256"
						},
						{
							"internalType": "address",
							"name": "_user",
							"type": "address"
						}
					],
					"name": "pendingReward",
					"outputs": [
						{
							"internalType": "uint256",
							"name": "reward",
							"type": "uint256"
						}
					],
					"stateMutability": "view",
					"type": "function"
				},
				{
					"inputs": [],
					"name": "poolLength",
					"outputs": [
						{
							"internalType": "uint256",
							"name": "",
							"type": "uint256"
						}
					],
					"stateMutability": "view",
					"type": "function"
				},
				{
					"inputs": [],
					"name": "renounceOwnership",
					"outputs": [],
					"stateMutability": "nonpayable",
					"type": "function"
				},
				{
					"inputs": [
						{
							"internalType": "uint256",
							"name": "_pid",
							"type": "uint256"
						},
						{
							"internalType": "uint256",
							"name": "_apr",
							"type": "uint256"
						}
					],
					"name": "set",
					"outputs": [],
					"stateMutability": "nonpayable",
					"type": "function"
				},
				{
					"inputs": [
						{
							"internalType": "contract IMigratorChef",
							"name": "_migrator",
							"type": "address"
						}
					],
					"name": "setMigrator",
					"outputs": [],
					"stateMutability": "nonpayable",
					"type": "function"
				},
				{
					"inputs": [
						{
							"internalType": "address",
							"name": "newOwner",
							"type": "address"
						}
					],
					"name": "transferOwnership",
					"outputs": [],
					"stateMutability": "nonpayable",
					"type": "function"
				},
				{
					"inputs": [
						{
							"internalType": "uint256",
							"name": "",
							"type": "uint256"
						},
						{
							"internalType": "address",
							"name": "",
							"type": "address"
						}
					],
					"name": "userInfo",
					"outputs": [
						{
							"internalType": "uint256",
							"name": "amount",
							"type": "uint256"
						},
						{
							"internalType": "uint256",
							"name": "offset",
							"type": "uint256"
						},
						{
							"internalType": "uint256",
							"name": "lockStartTime",
							"type": "uint256"
						}
					],
					"stateMutability": "view",
					"type": "function"
				},
				{
					"inputs": [
						{
							"internalType": "uint256",
							"name": "_pid",
							"type": "uint256"
						},
						{
							"internalType": "uint256",
							"name": "_amount",
							"type": "uint256"
						}
					],
					"name": "withdraw",
					"outputs": [],
					"stateMutability": "nonpayable",
					"type": "function"
				}
			],
			"devdoc": {
				"kind": "dev",
				"methods": {
					"add(uint256,uint256)": {
						"details": "Add a new lp to the pool. Can only be called by the owner. XXX DO NOT add the same LP token more than once. Rewards will be messed up if you do."
					},
					"deposit(uint256,uint256)": {
						"details": "Deposit LP tokens to LPMining for bfly allocation."
					},
					"getMultiplier(uint256,uint256)": {
						"details": "Return reward multiplier over the given _from to _to block."
					},
					"owner()": {
						"details": "Returns the address of the current owner."
					},
					"pendingReward(uint256,address)": {
						"details": "View function to see pending rewards on frontend."
					},
					"poolLength()": {
						"details": "Number of the pools"
					},
					"renounceOwnership()": {
						"details": "Leaves the contract without owner. It will not be possible to call `onlyOwner` functions anymore. Can only be called by the current owner. NOTE: Renouncing ownership will leave the contract without an owner, thereby removing any functionality that is only available to the owner."
					},
					"set(uint256,uint256)": {
						"details": "Update the given pool's BFLY allocation point. Can only be called by the owner."
					},
					"setMigrator(address)": {
						"details": "Set migrator's address"
					},
					"transferOwnership(address)": {
						"details": "Transfers ownership of the contract to a new account (`newOwner`). Can only be called by the current owner."
					},
					"withdraw(uint256,uint256)": {
						"details": "Withdraw LP tokens from MasterChef."
					}
				},
				"version": 1
			},
			"evm": {
				"assembly": "    /* \"Stack.sol\":348:13551  contract LPMining is Ownable {... */\n  mstore(0x40, 0x80)\n    /* \"Stack.sol\":2708:2709  1 */\n  0x01\n    /* \"Stack.sol\":2674:2709  uint256 public BONUS_MULTIPLIER = 1 */\n  0x04\n  sstore\n    /* \"Stack.sol\":3384:4018  constructor(... */\n  callvalue\n  dup1\n  iszero\n  tag_1\n  jumpi\n  0x00\n  dup1\n  revert\ntag_1:\n  pop\n  mload(0x40)\n  sub(codesize, bytecodeSize)\n  dup1\n  bytecodeSize\n  dup4\n  codecopy\n  dup2\n  dup2\n  add\n  0x40\n  mstore\n  dup2\n  add\n  swap1\n  tag_2\n  swap2\n  swap1\n  tag_3\n  jump\t// in\ntag_2:\n    /* \"@openzeppelin/contracts/access/Ownable.sol\":936:968  _transferOwnership(_msgSender()) */\n  tag_7\n    /* \"@openzeppelin/contracts/access/Ownable.sol\":955:967  _msgSender() */\n  tag_8\n    /* \"@openzeppelin/contracts/access/Ownable.sol\":955:965  _msgSender */\n  shl(0x20, tag_9)\n    /* \"@openzeppelin/contracts/access/Ownable.sol\":955:967  _msgSender() */\n  0x20\n  shr\n  jump\t// in\ntag_8:\n    /* \"@openzeppelin/contracts/access/Ownable.sol\":936:954  _transferOwnership */\n  shl(0x20, tag_10)\n    /* \"@openzeppelin/contracts/access/Ownable.sol\":936:968  _transferOwnership(_msgSender()) */\n  0x20\n  shr\n  jump\t// in\ntag_7:\n    /* \"Stack.sol\":3510:3515  _para */\n  dup1\n    /* \"Stack.sol\":3503:3507  para */\n  0x03\n  0x00\n    /* \"Stack.sol\":3503:3515  para = _para */\n  0x0100\n  exp\n  dup2\n  sload\n  dup2\n  0xffffffffffffffffffffffffffffffffffffffff\n  mul\n  not\n  and\n  swap1\n  dup4\n  0xffffffffffffffffffffffffffffffffffffffff\n  and\n  mul\n  or\n  swap1\n  sstore\n  pop\n    /* \"Stack.sol\":3997:4010  initialized() */\n  tag_12\n    /* \"Stack.sol\":3997:4008  initialized */\n  shl(0x20, tag_13)\n    /* \"Stack.sol\":3997:4010  initialized() */\n  0x20\n  shr\n  jump\t// in\ntag_12:\n    /* \"Stack.sol\":3384:4018  constructor(... */\n  pop\n    /* \"Stack.sol\":348:13551  contract LPMining is Ownable {... */\n  jump(tag_14)\n    /* \"@openzeppelin/contracts/utils/Context.sol\":640:736  function _msgSender() internal view virtual returns (address) {... */\ntag_9:\n    /* \"@openzeppelin/contracts/utils/Context.sol\":693:700  address */\n  0x00\n    /* \"@openzeppelin/contracts/utils/Context.sol\":719:729  msg.sender */\n  caller\n    /* \"@openzeppelin/contracts/utils/Context.sol\":712:729  return msg.sender */\n  swap1\n  pop\n    /* \"@openzeppelin/contracts/utils/Context.sol\":640:736  function _msgSender() internal view virtual returns (address) {... */\n  swap1\n  jump\t// out\n    /* \"@openzeppelin/contracts/access/Ownable.sol\":2433:2620  function _transferOwnership(address newOwner) internal virtual {... */\ntag_10:\n    /* \"@openzeppelin/contracts/access/Ownable.sol\":2506:2522  address oldOwner */\n  0x00\n    /* \"@openzeppelin/contracts/access/Ownable.sol\":2525:2531  _owner */\n  dup1\n  0x00\n  swap1\n  sload\n  swap1\n  0x0100\n  exp\n  swap1\n  div\n  0xffffffffffffffffffffffffffffffffffffffff\n  and\n    /* \"@openzeppelin/contracts/access/Ownable.sol\":2506:2531  address oldOwner = _owner */\n  swap1\n  pop\n    /* \"@openzeppelin/contracts/access/Ownable.sol\":2550:2558  newOwner */\n  dup2\n    /* \"@openzeppelin/contracts/access/Ownable.sol\":2541:2547  _owner */\n  0x00\n  dup1\n    /* \"@openzeppelin/contracts/access/Ownable.sol\":2541:2558  _owner = newOwner */\n  0x0100\n  exp\n  dup2\n  sload\n  dup2\n  0xffffffffffffffffffffffffffffffffffffffff\n  mul\n  not\n  and\n  swap1\n  dup4\n  0xffffffffffffffffffffffffffffffffffffffff\n  and\n  mul\n  or\n  swap1\n  sstore\n  pop\n    /* \"@openzeppelin/contracts/access/Ownable.sol\":2604:2612  newOwner */\n  dup2\n    /* \"@openzeppelin/contracts/access/Ownable.sol\":2573:2613  OwnershipTransferred(oldOwner, newOwner) */\n  0xffffffffffffffffffffffffffffffffffffffff\n  and\n    /* \"@openzeppelin/contracts/access/Ownable.sol\":2594:2602  oldOwner */\n  dup2\n    /* \"@openzeppelin/contracts/access/Ownable.sol\":2573:2613  OwnershipTransferred(oldOwner, newOwner) */\n  0xffffffffffffffffffffffffffffffffffffffff\n  and\n  0x8be0079c531659141344cd1fd0a4f28419497f9722a3daafe3b4186f6b6457e0\n  mload(0x40)\n  mload(0x40)\n  dup1\n  swap2\n  sub\n  swap1\n  log3\n    /* \"@openzeppelin/contracts/access/Ownable.sol\":2496:2620  {... */\n  pop\n    /* \"@openzeppelin/contracts/access/Ownable.sol\":2433:2620  function _transferOwnership(address newOwner) internal virtual {... */\n  pop\n  jump\t// out\n    /* \"Stack.sol\":4231:4938  function initialized()private {... */\ntag_13:\n    /* \"Stack.sol\":4314:4332  PoolInfo storage p */\n  0x00\n    /* \"Stack.sol\":4335:4344  poolInfos */\n  0x01\n    /* \"Stack.sol\":4335:4351  poolInfos.push() */\n  dup1\n  dup2\n  0x01\n  dup2\n  sload\n  add\n  dup1\n  dup3\n  sstore\n  dup1\n  swap2\n  pop\n  pop\n  sub\n  swap1\n  0x00\n  mstore\n  keccak256(0x00, 0x20)\n  swap1\n  0x02\n  mul\n  add\n    /* \"Stack.sol\":4314:4351  PoolInfo storage p = poolInfos.push() */\n  swap1\n  pop\n    /* \"Stack.sol\":4364:4365  p */\n  dup1\n    /* \"Stack.sol\":4364:4370  p.aprs */\n  0x01\n  add\n    /* \"Stack.sol\":4376:4404  AprInfo(20, block.timestamp) */\n  mload(0x40)\n  dup1\n  0x40\n  add\n  0x40\n  mstore\n  dup1\n    /* \"Stack.sol\":4384:4386  20 */\n  0x14\n    /* \"Stack.sol\":4376:4404  AprInfo(20, block.timestamp) */\n  dup2\n  mstore\n  0x20\n  add\n    /* \"Stack.sol\":4388:4403  block.timestamp */\n  timestamp\n    /* \"Stack.sol\":4376:4404  AprInfo(20, block.timestamp) */\n  dup2\n  mstore\n  pop\n    /* \"Stack.sol\":4364:4405  p.aprs.push(AprInfo(20, block.timestamp)) */\n  swap1\n  dup1\n  0x01\n  dup2\n  sload\n  add\n  dup1\n  dup3\n  sstore\n  dup1\n  swap2\n  pop\n  pop\n  0x01\n  swap1\n  sub\n  swap1\n  0x00\n  mstore\n  keccak256(0x00, 0x20)\n  swap1\n  0x02\n  mul\n  add\n  0x00\n  swap1\n  swap2\n  swap1\n  swap2\n  swap1\n  swap2\n  pop\n  0x00\n  dup3\n  add\n  mload\n  dup2\n  0x00\n  add\n  sstore\n  0x20\n  dup3\n  add\n  mload\n  dup2\n  0x01\n  add\n  sstore\n  pop\n  pop\n    /* \"Stack.sol\":4429:4430  5 */\n  0x05\n    /* \"Stack.sol\":4416:4417  p */\n  dup2\n    /* \"Stack.sol\":4416:4426  p.duration */\n  0x00\n  add\n    /* \"Stack.sol\":4416:4430  p.duration = 5 */\n  dup2\n  swap1\n  sstore\n  pop\n    /* \"Stack.sol\":4261:4938  {... */\n  pop\n    /* \"Stack.sol\":4231:4938  function initialized()private {... */\n  jump\t// out\n    /* \"#utility.yul\":88:205   */\ntag_21:\n    /* \"#utility.yul\":197:198   */\n  0x00\n    /* \"#utility.yul\":194:195   */\n  dup1\n    /* \"#utility.yul\":187:199   */\n  revert\n    /* \"#utility.yul\":334:460   */\ntag_23:\n    /* \"#utility.yul\":371:378   */\n  0x00\n    /* \"#utility.yul\":411:453   */\n  0xffffffffffffffffffffffffffffffffffffffff\n    /* \"#utility.yul\":404:409   */\n  dup3\n    /* \"#utility.yul\":400:454   */\n  and\n    /* \"#utility.yul\":389:454   */\n  swap1\n  pop\n    /* \"#utility.yul\":334:460   */\n  swap2\n  swap1\n  pop\n  jump\t// out\n    /* \"#utility.yul\":466:562   */\ntag_24:\n    /* \"#utility.yul\":503:510   */\n  0x00\n    /* \"#utility.yul\":532:556   */\n  tag_34\n    /* \"#utility.yul\":550:555   */\n  dup3\n    /* \"#utility.yul\":532:556   */\n  tag_23\n  jump\t// in\ntag_34:\n    /* \"#utility.yul\":521:556   */\n  swap1\n  pop\n    /* \"#utility.yul\":466:562   */\n  swap2\n  swap1\n  pop\n  jump\t// out\n    /* \"#utility.yul\":568:679   */\ntag_25:\n    /* \"#utility.yul\":620:627   */\n  0x00\n    /* \"#utility.yul\":649:673   */\n  tag_36\n    /* \"#utility.yul\":667:672   */\n  dup3\n    /* \"#utility.yul\":649:673   */\n  tag_24\n  jump\t// in\ntag_36:\n    /* \"#utility.yul\":638:673   */\n  swap1\n  pop\n    /* \"#utility.yul\":568:679   */\n  swap2\n  swap1\n  pop\n  jump\t// out\n    /* \"#utility.yul\":685:837   */\ntag_26:\n    /* \"#utility.yul\":773:812   */\n  tag_38\n    /* \"#utility.yul\":806:811   */\n  dup2\n    /* \"#utility.yul\":773:812   */\n  tag_25\n  jump\t// in\ntag_38:\n    /* \"#utility.yul\":766:771   */\n  dup2\n    /* \"#utility.yul\":763:813   */\n  eq\n    /* \"#utility.yul\":753:831   */\n  tag_39\n  jumpi\n    /* \"#utility.yul\":827:828   */\n  0x00\n    /* \"#utility.yul\":824:825   */\n  dup1\n    /* \"#utility.yul\":817:829   */\n  revert\n    /* \"#utility.yul\":753:831   */\ntag_39:\n    /* \"#utility.yul\":685:837   */\n  pop\n  jump\t// out\n    /* \"#utility.yul\":843:1016   */\ntag_27:\n    /* \"#utility.yul\":915:920   */\n  0x00\n    /* \"#utility.yul\":946:952   */\n  dup2\n    /* \"#utility.yul\":940:953   */\n  mload\n    /* \"#utility.yul\":931:953   */\n  swap1\n  pop\n    /* \"#utility.yul\":962:1010   */\n  tag_41\n    /* \"#utility.yul\":1004:1009   */\n  dup2\n    /* \"#utility.yul\":962:1010   */\n  tag_26\n  jump\t// in\ntag_41:\n    /* \"#utility.yul\":843:1016   */\n  swap3\n  swap2\n  pop\n  pop\n  jump\t// out\n    /* \"#utility.yul\":1022:1403   */\ntag_3:\n    /* \"#utility.yul\":1107:1113   */\n  0x00\n    /* \"#utility.yul\":1156:1158   */\n  0x20\n    /* \"#utility.yul\":1144:1153   */\n  dup3\n    /* \"#utility.yul\":1135:1142   */\n  dup5\n    /* \"#utility.yul\":1131:1154   */\n  sub\n    /* \"#utility.yul\":1127:1159   */\n  slt\n    /* \"#utility.yul\":1124:1243   */\n  iszero\n  tag_43\n  jumpi\n    /* \"#utility.yul\":1162:1241   */\n  tag_44\n  tag_21\n  jump\t// in\ntag_44:\n    /* \"#utility.yul\":1124:1243   */\ntag_43:\n    /* \"#utility.yul\":1282:1283   */\n  0x00\n    /* \"#utility.yul\":1307:1386   */\n  tag_45\n    /* \"#utility.yul\":1378:1385   */\n  dup5\n    /* \"#utility.yul\":1369:1375   */\n  dup3\n    /* \"#utility.yul\":1358:1367   */\n  dup6\n    /* \"#utility.yul\":1354:1376   */\n  add\n    /* \"#utility.yul\":1307:1386   */\n  tag_27\n  jump\t// in\ntag_45:\n    /* \"#utility.yul\":1297:1386   */\n  swap2\n  pop\n    /* \"#utility.yul\":1253:1396   */\n  pop\n    /* \"#utility.yul\":1022:1403   */\n  swap3\n  swap2\n  pop\n  pop\n  jump\t// out\n    /* \"Stack.sol\":348:13551  contract LPMining is Ownable {... */\ntag_14:\n  dataSize(sub_0)\n  dup1\n  dataOffset(sub_0)\n  0x00\n  codecopy\n  0x00\n  return\nstop\n\nsub_0: assembly {\n        /* \"Stack.sol\":348:13551  contract LPMining is Ownable {... */\n      mstore(0x40, 0x80)\n      callvalue\n      dup1\n      iszero\n      tag_1\n      jumpi\n      0x00\n      dup1\n      revert\n    tag_1:\n      pop\n      jumpi(tag_2, lt(calldatasize, 0x04))\n      shr(0xe0, calldataload(0x00))\n      dup1\n      0x8aa28550\n      gt\n      tag_24\n      jumpi\n      dup1\n      0x98969e82\n      gt\n      tag_25\n      jumpi\n      dup1\n      0x98969e82\n      eq\n      tag_18\n      jumpi\n      dup1\n      0xa18f07a0\n      eq\n      tag_19\n      jumpi\n      dup1\n      0xe2bbb158\n      eq\n      tag_20\n      jumpi\n      dup1\n      0xe3d0b2bf\n      eq\n      tag_21\n      jumpi\n      dup1\n      0xec342ad0\n      eq\n      tag_22\n      jumpi\n      dup1\n      0xf2fde38b\n      eq\n      tag_23\n      jumpi\n      jump(tag_2)\n    tag_25:\n      dup1\n      0x8aa28550\n      eq\n      tag_13\n      jumpi\n      dup1\n      0x8da5cb5b\n      eq\n      tag_14\n      jumpi\n      dup1\n      0x8dbb1e3a\n      eq\n      tag_15\n      jumpi\n      dup1\n      0x918f8674\n      eq\n      tag_16\n      jumpi\n      dup1\n      0x93f1a40b\n      eq\n      tag_17\n      jumpi\n      jump(tag_2)\n    tag_24:\n      dup1\n      0x3e3cca90\n      gt\n      tag_26\n      jumpi\n      dup1\n      0x3e3cca90\n      eq\n      tag_8\n      jumpi\n      dup1\n      0x441a3e70\n      eq\n      tag_9\n      jumpi\n      dup1\n      0x715018a6\n      eq\n      tag_10\n      jumpi\n      dup1\n      0x771602f7\n      eq\n      tag_11\n      jumpi\n      dup1\n      0x7cd07e47\n      eq\n      tag_12\n      jumpi\n      jump(tag_2)\n    tag_26:\n      dup1\n      0x081e3eda\n      eq\n      tag_3\n      jumpi\n      dup1\n      0x14d20dc2\n      eq\n      tag_4\n      jumpi\n      dup1\n      0x1ab06ee5\n      eq\n      tag_5\n      jumpi\n      dup1\n      0x23cf3118\n      eq\n      tag_6\n      jumpi\n      dup1\n      0x2f380b35\n      eq\n      tag_7\n      jumpi\n    tag_2:\n      0x00\n      dup1\n      revert\n        /* \"Stack.sol\":5197:5293  function poolLength() external view returns (uint256) {... */\n    tag_3:\n      tag_27\n      tag_28\n      jump\t// in\n    tag_27:\n      mload(0x40)\n      tag_29\n      swap2\n      swap1\n      tag_30\n      jump\t// in\n    tag_29:\n      mload(0x40)\n      dup1\n      swap2\n      sub\n      swap1\n      return\n        /* \"Stack.sol\":4028:4106  function aadd()public pure returns(uint256){... */\n    tag_4:\n      tag_31\n      tag_32\n      jump\t// in\n    tag_31:\n      mload(0x40)\n      tag_33\n      swap2\n      swap1\n      tag_30\n      jump\t// in\n    tag_33:\n      mload(0x40)\n      dup1\n      swap2\n      sub\n      swap1\n      return\n        /* \"Stack.sol\":6057:6282  function set(uint256 _pid, uint256 _apr) public onlyOwner {... */\n    tag_5:\n      tag_34\n      0x04\n      dup1\n      calldatasize\n      sub\n      dup2\n      add\n      swap1\n      tag_35\n      swap2\n      swap1\n      tag_36\n      jump\t// in\n    tag_35:\n      tag_37\n      jump\t// in\n    tag_34:\n      stop\n        /* \"Stack.sol\":6346:6448  function setMigrator(IMigratorChef _migrator) public onlyOwner {... */\n    tag_6:\n      tag_38\n      0x04\n      dup1\n      calldatasize\n      sub\n      dup2\n      add\n      swap1\n      tag_39\n      swap2\n      swap1\n      tag_40\n      jump\t// in\n    tag_39:\n      tag_41\n      jump\t// in\n    tag_38:\n      stop\n        /* \"Stack.sol\":4114:4223  function getPoolInfo(uint256 id)public view returns (PoolInfo memory) {... */\n    tag_7:\n      tag_42\n      0x04\n      dup1\n      calldatasize\n      sub\n      dup2\n      add\n      swap1\n      tag_43\n      swap2\n      swap1\n      tag_44\n      jump\t// in\n    tag_43:\n      tag_45\n      jump\t// in\n    tag_42:\n      mload(0x40)\n      tag_46\n      swap2\n      swap1\n      tag_47\n      jump\t// in\n    tag_46:\n      mload(0x40)\n      dup1\n      swap2\n      sub\n      swap1\n      return\n        /* \"Stack.sol\":2495:2513  IBEP20 public para */\n    tag_8:\n      tag_48\n      tag_49\n      jump\t// in\n    tag_48:\n      mload(0x40)\n      tag_50\n      swap2\n      swap1\n      tag_51\n      jump\t// in\n    tag_50:\n      mload(0x40)\n      dup1\n      swap2\n      sub\n      swap1\n      return\n        /* \"Stack.sol\":11945:12690  function withdraw(uint256 _pid, uint256 _amount) public {... */\n    tag_9:\n      tag_52\n      0x04\n      dup1\n      calldatasize\n      sub\n      dup2\n      add\n      swap1\n      tag_53\n      swap2\n      swap1\n      tag_36\n      jump\t// in\n    tag_53:\n      tag_54\n      jump\t// in\n    tag_52:\n      stop\n        /* \"@openzeppelin/contracts/access/Ownable.sol\":1831:1932  function renounceOwnership() public virtual onlyOwner {... */\n    tag_10:\n      tag_55\n      tag_56\n      jump\t// in\n    tag_55:\n      stop\n        /* \"Stack.sol\":5485:5938  function add(uint256 _apr, uint256 _duration) external  onlyOwner {... */\n    tag_11:\n      tag_57\n      0x04\n      dup1\n      calldatasize\n      sub\n      dup2\n      add\n      swap1\n      tag_58\n      swap2\n      swap1\n      tag_36\n      jump\t// in\n    tag_58:\n      tag_59\n      jump\t// in\n    tag_57:\n      stop\n        /* \"Stack.sol\":2834:2863  IMigratorChef public migrator */\n    tag_12:\n      tag_60\n      tag_61\n      jump\t// in\n    tag_60:\n      mload(0x40)\n      tag_62\n      swap2\n      swap1\n      tag_63\n      jump\t// in\n    tag_62:\n      mload(0x40)\n      dup1\n      swap2\n      sub\n      swap1\n      return\n        /* \"Stack.sol\":2674:2709  uint256 public BONUS_MULTIPLIER = 1 */\n    tag_13:\n      tag_64\n      tag_65\n      jump\t// in\n    tag_64:\n      mload(0x40)\n      tag_66\n      swap2\n      swap1\n      tag_30\n      jump\t// in\n    tag_66:\n      mload(0x40)\n      dup1\n      swap2\n      sub\n      swap1\n      return\n        /* \"@openzeppelin/contracts/access/Ownable.sol\":1201:1286  function owner() public view virtual returns (address) {... */\n    tag_14:\n      tag_67\n      tag_68\n      jump\t// in\n    tag_67:\n      mload(0x40)\n      tag_69\n      swap2\n      swap1\n      tag_70\n      jump\t// in\n    tag_69:\n      mload(0x40)\n      dup1\n      swap2\n      sub\n      swap1\n      return\n        /* \"Stack.sol\":6549:6670  function getMultiplier(uint256 _from, uint256 _to) public pure returns (uint256) {... */\n    tag_15:\n      tag_71\n      0x04\n      dup1\n      calldatasize\n      sub\n      dup2\n      add\n      swap1\n      tag_72\n      swap2\n      swap1\n      tag_36\n      jump\t// in\n    tag_72:\n      tag_73\n      jump\t// in\n    tag_71:\n      mload(0x40)\n      tag_74\n      swap2\n      swap1\n      tag_30\n      jump\t// in\n    tag_74:\n      mload(0x40)\n      dup1\n      swap2\n      sub\n      swap1\n      return\n        /* \"Stack.sol\":572:618  uint256 public constant DENOMINATOR = 365 days */\n    tag_16:\n      tag_75\n      tag_76\n      jump\t// in\n    tag_75:\n      mload(0x40)\n      tag_77\n      swap2\n      swap1\n      tag_30\n      jump\t// in\n    tag_77:\n      mload(0x40)\n      dup1\n      swap2\n      sub\n      swap1\n      return\n        /* \"Stack.sol\":1878:1944  mapping (uint256 => mapping (address => UserInfo)) public userInfo */\n    tag_17:\n      tag_78\n      0x04\n      dup1\n      calldatasize\n      sub\n      dup2\n      add\n      swap1\n      tag_79\n      swap2\n      swap1\n      tag_80\n      jump\t// in\n    tag_79:\n      tag_81\n      jump\t// in\n    tag_78:\n      mload(0x40)\n      tag_82\n      swap4\n      swap3\n      swap2\n      swap1\n      tag_83\n      jump\t// in\n    tag_82:\n      mload(0x40)\n      dup1\n      swap2\n      sub\n      swap1\n      return\n        /* \"Stack.sol\":6759:8137  function pendingReward(uint256 _pid, address _user) external view returns (uint256 reward) {... */\n    tag_18:\n      tag_84\n      0x04\n      dup1\n      calldatasize\n      sub\n      dup2\n      add\n      swap1\n      tag_85\n      swap2\n      swap1\n      tag_80\n      jump\t// in\n    tag_85:\n      tag_86\n      jump\t// in\n    tag_84:\n      mload(0x40)\n      tag_87\n      swap2\n      swap1\n      tag_30\n      jump\t// in\n    tag_87:\n      mload(0x40)\n      dup1\n      swap2\n      sub\n      swap1\n      return\n        /* \"Stack.sol\":8147:9933  function calculateReward(uint256 _pid, address _user) public view returns (uint256 reward) {... */\n    tag_19:\n      tag_88\n      0x04\n      dup1\n      calldatasize\n      sub\n      dup2\n      add\n      swap1\n      tag_89\n      swap2\n      swap1\n      tag_80\n      jump\t// in\n    tag_89:\n      tag_90\n      jump\t// in\n    tag_88:\n      mload(0x40)\n      tag_91\n      swap2\n      swap1\n      tag_30\n      jump\t// in\n    tag_91:\n      mload(0x40)\n      dup1\n      swap2\n      sub\n      swap1\n      return\n        /* \"Stack.sol\":10023:11870  function deposit(uint256 _pid, uint256 _amount) public {... */\n    tag_20:\n      tag_92\n      0x04\n      dup1\n      calldatasize\n      sub\n      dup2\n      add\n      swap1\n      tag_93\n      swap2\n      swap1\n      tag_36\n      jump\t// in\n    tag_93:\n      tag_94\n      jump\t// in\n    tag_92:\n      stop\n        /* \"Stack.sol\":672:724  uint256 public constant DENOMINATOR_TEST = 5 minutes */\n    tag_21:\n      tag_95\n      tag_96\n      jump\t// in\n    tag_95:\n      mload(0x40)\n      tag_97\n      swap2\n      swap1\n      tag_30\n      jump\t// in\n    tag_97:\n      mload(0x40)\n      dup1\n      swap2\n      sub\n      swap1\n      return\n        /* \"Stack.sol\":629:663  uint256 public constant BASE = 100 */\n    tag_22:\n      tag_98\n      tag_99\n      jump\t// in\n    tag_98:\n      mload(0x40)\n      tag_100\n      swap2\n      swap1\n      tag_30\n      jump\t// in\n    tag_100:\n      mload(0x40)\n      dup1\n      swap2\n      sub\n      swap1\n      return\n        /* \"@openzeppelin/contracts/access/Ownable.sol\":2081:2279  function transferOwnership(address newOwner) public virtual onlyOwner {... */\n    tag_23:\n      tag_101\n      0x04\n      dup1\n      calldatasize\n      sub\n      dup2\n      add\n      swap1\n      tag_102\n      swap2\n      swap1\n      tag_103\n      jump\t// in\n    tag_102:\n      tag_104\n      jump\t// in\n    tag_101:\n      stop\n        /* \"Stack.sol\":5197:5293  function poolLength() external view returns (uint256) {... */\n    tag_28:\n        /* \"Stack.sol\":5242:5249  uint256 */\n      0x00\n        /* \"Stack.sol\":5269:5278  poolInfos */\n      0x01\n        /* \"Stack.sol\":5269:5285  poolInfos.length */\n      dup1\n      sload\n      swap1\n      pop\n        /* \"Stack.sol\":5262:5285  return poolInfos.length */\n      swap1\n      pop\n        /* \"Stack.sol\":5197:5293  function poolLength() external view returns (uint256) {... */\n      swap1\n      jump\t// out\n        /* \"Stack.sol\":4028:4106  function aadd()public pure returns(uint256){... */\n    tag_32:\n        /* \"Stack.sol\":4063:4070  uint256 */\n      0x00\n        /* \"Stack.sol\":4089:4098  1 minutes */\n      0x3c\n        /* \"Stack.sol\":4082:4098  return 1 minutes */\n      swap1\n      pop\n        /* \"Stack.sol\":4028:4106  function aadd()public pure returns(uint256){... */\n      swap1\n      jump\t// out\n        /* \"Stack.sol\":6057:6282  function set(uint256 _pid, uint256 _apr) public onlyOwner {... */\n    tag_37:\n        /* \"@openzeppelin/contracts/access/Ownable.sol\":1094:1107  _checkOwner() */\n      tag_108\n        /* \"@openzeppelin/contracts/access/Ownable.sol\":1094:1105  _checkOwner */\n      tag_109\n        /* \"@openzeppelin/contracts/access/Ownable.sol\":1094:1107  _checkOwner() */\n      jump\t// in\n    tag_108:\n        /* \"Stack.sol\":6126:6147  PoolInfo storage pool */\n      0x00\n        /* \"Stack.sol\":6150:6159  poolInfos */\n      0x01\n        /* \"Stack.sol\":6160:6164  _pid */\n      dup4\n        /* \"Stack.sol\":6150:6165  poolInfos[_pid] */\n      dup2\n      sload\n      dup2\n      lt\n      tag_111\n      jumpi\n      tag_112\n      tag_113\n      jump\t// in\n    tag_112:\n    tag_111:\n      swap1\n      0x00\n      mstore\n      keccak256(0x00, 0x20)\n      swap1\n      0x02\n      mul\n      add\n        /* \"Stack.sol\":6126:6165  PoolInfo storage pool = poolInfos[_pid] */\n      swap1\n      pop\n        /* \"Stack.sol\":6176:6180  pool */\n      dup1\n        /* \"Stack.sol\":6176:6185  pool.aprs */\n      0x01\n      add\n        /* \"Stack.sol\":6191:6273  AprInfo({... */\n      mload(0x40)\n      dup1\n      0x40\n      add\n      0x40\n      mstore\n      dup1\n        /* \"Stack.sol\":6218:6222  _apr */\n      dup5\n        /* \"Stack.sol\":6191:6273  AprInfo({... */\n      dup2\n      mstore\n      0x20\n      add\n        /* \"Stack.sol\":6242:6257  block.timestamp */\n      timestamp\n        /* \"Stack.sol\":6191:6273  AprInfo({... */\n      dup2\n      mstore\n      pop\n        /* \"Stack.sol\":6176:6274  pool.aprs.push(AprInfo({... */\n      swap1\n      dup1\n      0x01\n      dup2\n      sload\n      add\n      dup1\n      dup3\n      sstore\n      dup1\n      swap2\n      pop\n      pop\n      0x01\n      swap1\n      sub\n      swap1\n      0x00\n      mstore\n      keccak256(0x00, 0x20)\n      swap1\n      0x02\n      mul\n      add\n      0x00\n      swap1\n      swap2\n      swap1\n      swap2\n      swap1\n      swap2\n      pop\n      0x00\n      dup3\n      add\n      mload\n      dup2\n      0x00\n      add\n      sstore\n      0x20\n      dup3\n      add\n      mload\n      dup2\n      0x01\n      add\n      sstore\n      pop\n      pop\n        /* \"Stack.sol\":6115:6282  {... */\n      pop\n        /* \"Stack.sol\":6057:6282  function set(uint256 _pid, uint256 _apr) public onlyOwner {... */\n      pop\n      pop\n      jump\t// out\n        /* \"Stack.sol\":6346:6448  function setMigrator(IMigratorChef _migrator) public onlyOwner {... */\n    tag_41:\n        /* \"@openzeppelin/contracts/access/Ownable.sol\":1094:1107  _checkOwner() */\n      tag_117\n        /* \"@openzeppelin/contracts/access/Ownable.sol\":1094:1105  _checkOwner */\n      tag_109\n        /* \"@openzeppelin/contracts/access/Ownable.sol\":1094:1107  _checkOwner() */\n      jump\t// in\n    tag_117:\n        /* \"Stack.sol\":6431:6440  _migrator */\n      dup1\n        /* \"Stack.sol\":6420:6428  migrator */\n      0x05\n      0x00\n        /* \"Stack.sol\":6420:6440  migrator = _migrator */\n      0x0100\n      exp\n      dup2\n      sload\n      dup2\n      0xffffffffffffffffffffffffffffffffffffffff\n      mul\n      not\n      and\n      swap1\n      dup4\n      0xffffffffffffffffffffffffffffffffffffffff\n      and\n      mul\n      or\n      swap1\n      sstore\n      pop\n        /* \"Stack.sol\":6346:6448  function setMigrator(IMigratorChef _migrator) public onlyOwner {... */\n      pop\n      jump\t// out\n        /* \"Stack.sol\":4114:4223  function getPoolInfo(uint256 id)public view returns (PoolInfo memory) {... */\n    tag_45:\n        /* \"Stack.sol\":4167:4182  PoolInfo memory */\n      tag_119\n      tag_120\n      jump\t// in\n    tag_119:\n        /* \"Stack.sol\":4202:4211  poolInfos */\n      0x01\n        /* \"Stack.sol\":4212:4214  id */\n      dup3\n        /* \"Stack.sol\":4202:4215  poolInfos[id] */\n      dup2\n      sload\n      dup2\n      lt\n      tag_122\n      jumpi\n      tag_123\n      tag_113\n      jump\t// in\n    tag_123:\n    tag_122:\n      swap1\n      0x00\n      mstore\n      keccak256(0x00, 0x20)\n      swap1\n      0x02\n      mul\n      add\n        /* \"Stack.sol\":4195:4215  return poolInfos[id] */\n      mload(0x40)\n      dup1\n      0x40\n      add\n      0x40\n      mstore\n      swap1\n      dup2\n      0x00\n      dup3\n      add\n      sload\n      dup2\n      mstore\n      0x20\n      add\n      0x01\n      dup3\n      add\n      dup1\n      sload\n      dup1\n      0x20\n      mul\n      0x20\n      add\n      mload(0x40)\n      swap1\n      dup2\n      add\n      0x40\n      mstore\n      dup1\n      swap3\n      swap2\n      swap1\n      dup2\n      dup2\n      mstore\n      0x20\n      add\n      0x00\n      swap1\n    tag_125:\n      dup3\n      dup3\n      lt\n      iszero\n      tag_126\n      jumpi\n      dup4\n      dup3\n      swap1\n      0x00\n      mstore\n      keccak256(0x00, 0x20)\n      swap1\n      0x02\n      mul\n      add\n      mload(0x40)\n      dup1\n      0x40\n      add\n      0x40\n      mstore\n      swap1\n      dup2\n      0x00\n      dup3\n      add\n      sload\n      dup2\n      mstore\n      0x20\n      add\n      0x01\n      dup3\n      add\n      sload\n      dup2\n      mstore\n      pop\n      pop\n      dup2\n      mstore\n      0x20\n      add\n      swap1\n      0x01\n      add\n      swap1\n      jump(tag_125)\n    tag_126:\n      pop\n      pop\n      pop\n      pop\n      dup2\n      mstore\n      pop\n      pop\n      swap1\n      pop\n        /* \"Stack.sol\":4114:4223  function getPoolInfo(uint256 id)public view returns (PoolInfo memory) {... */\n      swap2\n      swap1\n      pop\n      jump\t// out\n        /* \"Stack.sol\":2495:2513  IBEP20 public para */\n    tag_49:\n      0x03\n      0x00\n      swap1\n      sload\n      swap1\n      0x0100\n      exp\n      swap1\n      div\n      0xffffffffffffffffffffffffffffffffffffffff\n      and\n      dup2\n      jump\t// out\n        /* \"Stack.sol\":11945:12690  function withdraw(uint256 _pid, uint256 _amount) public {... */\n    tag_54:\n        /* \"Stack.sol\":12012:12033  PoolInfo storage pool */\n      0x00\n        /* \"Stack.sol\":12036:12045  poolInfos */\n      0x01\n        /* \"Stack.sol\":12046:12050  _pid */\n      dup4\n        /* \"Stack.sol\":12036:12051  poolInfos[_pid] */\n      dup2\n      sload\n      dup2\n      lt\n      tag_129\n      jumpi\n      tag_130\n      tag_113\n      jump\t// in\n    tag_130:\n    tag_129:\n      swap1\n      0x00\n      mstore\n      keccak256(0x00, 0x20)\n      swap1\n      0x02\n      mul\n      add\n        /* \"Stack.sol\":12012:12051  PoolInfo storage pool = poolInfos[_pid] */\n      swap1\n      pop\n        /* \"Stack.sol\":12062:12083  UserInfo storage user */\n      0x00\n        /* \"Stack.sol\":12086:12094  userInfo */\n      0x02\n        /* \"Stack.sol\":12086:12100  userInfo[_pid] */\n      0x00\n        /* \"Stack.sol\":12095:12099  _pid */\n      dup6\n        /* \"Stack.sol\":12086:12100  userInfo[_pid] */\n      dup2\n      mstore\n      0x20\n      add\n      swap1\n      dup2\n      mstore\n      0x20\n      add\n      0x00\n      keccak256\n        /* \"Stack.sol\":12086:12112  userInfo[_pid][msg.sender] */\n      0x00\n        /* \"Stack.sol\":12101:12111  msg.sender */\n      caller\n        /* \"Stack.sol\":12086:12112  userInfo[_pid][msg.sender] */\n      0xffffffffffffffffffffffffffffffffffffffff\n      and\n      0xffffffffffffffffffffffffffffffffffffffff\n      and\n      dup2\n      mstore\n      0x20\n      add\n      swap1\n      dup2\n      mstore\n      0x20\n      add\n      0x00\n      keccak256\n        /* \"Stack.sol\":12062:12112  UserInfo storage user = userInfo[_pid][msg.sender] */\n      swap1\n      pop\n        /* \"Stack.sol\":12146:12153  _amount */\n      dup3\n        /* \"Stack.sol\":12131:12135  user */\n      dup2\n        /* \"Stack.sol\":12131:12142  user.amount */\n      0x00\n      add\n      sload\n        /* \"Stack.sol\":12131:12153  user.amount >= _amount */\n      lt\n      iszero\n        /* \"Stack.sol\":12123:12182  require(user.amount >= _amount, \"BFLY: SUFFICIENT_BALANCE\") */\n      tag_132\n      jumpi\n      mload(0x40)\n      0x08c379a000000000000000000000000000000000000000000000000000000000\n      dup2\n      mstore\n      0x04\n      add\n      tag_133\n      swap1\n      tag_134\n      jump\t// in\n    tag_133:\n      mload(0x40)\n      dup1\n      swap2\n      sub\n      swap1\n      revert\n    tag_132:\n        /* \"Stack.sol\":12237:12252  block.timestamp */\n      timestamp\n        /* \"Stack.sol\":12198:12235  user.lockStartTime.add(pool.duration) */\n      tag_135\n        /* \"Stack.sol\":12221:12225  pool */\n      dup4\n        /* \"Stack.sol\":12221:12234  pool.duration */\n      0x00\n      add\n      sload\n        /* \"Stack.sol\":12198:12202  user */\n      dup4\n        /* \"Stack.sol\":12198:12216  user.lockStartTime */\n      0x02\n      add\n      sload\n        /* \"Stack.sol\":12198:12220  user.lockStartTime.add */\n      tag_136\n      swap1\n        /* \"Stack.sol\":12198:12235  user.lockStartTime.add(pool.duration) */\n      swap2\n      swap1\n      0xffffffff\n      and\n      jump\t// in\n    tag_135:\n        /* \"Stack.sol\":12198:12252  user.lockStartTime.add(pool.duration)> block.timestamp */\n      gt\n        /* \"Stack.sol\":12195:12498  if(user.lockStartTime.add(pool.duration)> block.timestamp){... */\n      iszero\n      tag_137\n      jumpi\n        /* \"Stack.sol\":12299:12314  uint256 pending */\n      0x00\n        /* \"Stack.sol\":12317:12349  calculateReward(_pid,msg.sender) */\n      tag_138\n        /* \"Stack.sol\":12333:12337  _pid */\n      dup6\n        /* \"Stack.sol\":12338:12348  msg.sender */\n      caller\n        /* \"Stack.sol\":12317:12332  calculateReward */\n      tag_90\n        /* \"Stack.sol\":12317:12349  calculateReward(_pid,msg.sender) */\n      jump\t// in\n    tag_138:\n        /* \"Stack.sol\":12299:12349  uint256 pending = calculateReward(_pid,msg.sender) */\n      swap1\n      pop\n        /* \"Stack.sol\":12381:12382  0 */\n      0x00\n        /* \"Stack.sol\":12371:12378  pending */\n      dup2\n        /* \"Stack.sol\":12371:12382  pending > 0 */\n      gt\n        /* \"Stack.sol\":12368:12473  if(pending > 0) {... */\n      iszero\n      tag_139\n      jumpi\n        /* \"Stack.sol\":12407:12453  IBEP20(para).safeTransfer(msg.sender, pending) */\n      tag_140\n        /* \"Stack.sol\":12433:12443  msg.sender */\n      caller\n        /* \"Stack.sol\":12445:12452  pending */\n      dup3\n        /* \"Stack.sol\":12414:12418  para */\n      0x03\n      0x00\n      swap1\n      sload\n      swap1\n      0x0100\n      exp\n      swap1\n      div\n      0xffffffffffffffffffffffffffffffffffffffff\n      and\n        /* \"Stack.sol\":12407:12432  IBEP20(para).safeTransfer */\n      0xffffffffffffffffffffffffffffffffffffffff\n      and\n      tag_141\n      swap1\n        /* \"Stack.sol\":12407:12453  IBEP20(para).safeTransfer(msg.sender, pending) */\n      swap3\n      swap2\n      swap1\n      0xffffffff\n      and\n      jump\t// in\n    tag_140:\n        /* \"Stack.sol\":12368:12473  if(pending > 0) {... */\n    tag_139:\n        /* \"Stack.sol\":12253:12498  {... */\n      pop\n        /* \"Stack.sol\":12195:12498  if(user.lockStartTime.add(pool.duration)> block.timestamp){... */\n    tag_137:\n        /* \"Stack.sol\":12526:12576  IBEP20(para).safeTransfer(msg.sender, user.amount) */\n      tag_142\n        /* \"Stack.sol\":12552:12562  msg.sender */\n      caller\n        /* \"Stack.sol\":12564:12568  user */\n      dup3\n        /* \"Stack.sol\":12564:12575  user.amount */\n      0x00\n      add\n      sload\n        /* \"Stack.sol\":12533:12537  para */\n      0x03\n      0x00\n      swap1\n      sload\n      swap1\n      0x0100\n      exp\n      swap1\n      div\n      0xffffffffffffffffffffffffffffffffffffffff\n      and\n        /* \"Stack.sol\":12526:12551  IBEP20(para).safeTransfer */\n      0xffffffffffffffffffffffffffffffffffffffff\n      and\n      tag_141\n      swap1\n        /* \"Stack.sol\":12526:12576  IBEP20(para).safeTransfer(msg.sender, user.amount) */\n      swap3\n      swap2\n      swap1\n      0xffffffff\n      and\n      jump\t// in\n    tag_142:\n        /* \"Stack.sol\":12649:12650  0 */\n      0x00\n        /* \"Stack.sol\":12635:12639  user */\n      dup2\n        /* \"Stack.sol\":12635:12646  user.amount */\n      0x00\n      add\n        /* \"Stack.sol\":12635:12650  user.amount = 0 */\n      dup2\n      swap1\n      sstore\n      pop\n        /* \"Stack.sol\":12666:12673  return; */\n      pop\n      pop\n        /* \"Stack.sol\":11945:12690  function withdraw(uint256 _pid, uint256 _amount) public {... */\n      pop\n      pop\n      jump\t// out\n        /* \"@openzeppelin/contracts/access/Ownable.sol\":1831:1932  function renounceOwnership() public virtual onlyOwner {... */\n    tag_56:\n        /* \"@openzeppelin/contracts/access/Ownable.sol\":1094:1107  _checkOwner() */\n      tag_144\n        /* \"@openzeppelin/contracts/access/Ownable.sol\":1094:1105  _checkOwner */\n      tag_109\n        /* \"@openzeppelin/contracts/access/Ownable.sol\":1094:1107  _checkOwner() */\n      jump\t// in\n    tag_144:\n        /* \"@openzeppelin/contracts/access/Ownable.sol\":1895:1925  _transferOwnership(address(0)) */\n      tag_146\n        /* \"@openzeppelin/contracts/access/Ownable.sol\":1922:1923  0 */\n      0x00\n        /* \"@openzeppelin/contracts/access/Ownable.sol\":1895:1913  _transferOwnership */\n      tag_147\n        /* \"@openzeppelin/contracts/access/Ownable.sol\":1895:1925  _transferOwnership(address(0)) */\n      jump\t// in\n    tag_146:\n        /* \"@openzeppelin/contracts/access/Ownable.sol\":1831:1932  function renounceOwnership() public virtual onlyOwner {... */\n      jump\t// out\n        /* \"Stack.sol\":5485:5938  function add(uint256 _apr, uint256 _duration) external  onlyOwner {... */\n    tag_59:\n        /* \"@openzeppelin/contracts/access/Ownable.sol\":1094:1107  _checkOwner() */\n      tag_149\n        /* \"@openzeppelin/contracts/access/Ownable.sol\":1094:1105  _checkOwner */\n      tag_109\n        /* \"@openzeppelin/contracts/access/Ownable.sol\":1094:1107  _checkOwner() */\n      jump\t// in\n    tag_149:\n        /* \"Stack.sol\":5566:5584  PoolInfo storage p */\n      0x00\n        /* \"Stack.sol\":5587:5596  poolInfos */\n      0x01\n        /* \"Stack.sol\":5587:5603  poolInfos.push() */\n      dup1\n      dup2\n      0x01\n      dup2\n      sload\n      add\n      dup1\n      dup3\n      sstore\n      dup1\n      swap2\n      pop\n      pop\n      sub\n      swap1\n      0x00\n      mstore\n      keccak256(0x00, 0x20)\n      swap1\n      0x02\n      mul\n      add\n        /* \"Stack.sol\":5566:5603  PoolInfo storage p = poolInfos.push() */\n      swap1\n      pop\n        /* \"Stack.sol\":5616:5617  p */\n      dup1\n        /* \"Stack.sol\":5616:5622  p.aprs */\n      0x01\n      add\n        /* \"Stack.sol\":5628:5658  AprInfo(_apr, block.timestamp) */\n      mload(0x40)\n      dup1\n      0x40\n      add\n      0x40\n      mstore\n      dup1\n        /* \"Stack.sol\":5636:5640  _apr */\n      dup6\n        /* \"Stack.sol\":5628:5658  AprInfo(_apr, block.timestamp) */\n      dup2\n      mstore\n      0x20\n      add\n        /* \"Stack.sol\":5642:5657  block.timestamp */\n      timestamp\n        /* \"Stack.sol\":5628:5658  AprInfo(_apr, block.timestamp) */\n      dup2\n      mstore\n      pop\n        /* \"Stack.sol\":5616:5659  p.aprs.push(AprInfo(_apr, block.timestamp)) */\n      swap1\n      dup1\n      0x01\n      dup2\n      sload\n      add\n      dup1\n      dup3\n      sstore\n      dup1\n      swap2\n      pop\n      pop\n      0x01\n      swap1\n      sub\n      swap1\n      0x00\n      mstore\n      keccak256(0x00, 0x20)\n      swap1\n      0x02\n      mul\n      add\n      0x00\n      swap1\n      swap2\n      swap1\n      swap2\n      swap1\n      swap2\n      pop\n      0x00\n      dup3\n      add\n      mload\n      dup2\n      0x00\n      add\n      sstore\n      0x20\n      dup3\n      add\n      mload\n      dup2\n      0x01\n      add\n      sstore\n      pop\n      pop\n        /* \"Stack.sol\":5683:5692  _duration */\n      dup2\n        /* \"Stack.sol\":5670:5671  p */\n      dup2\n        /* \"Stack.sol\":5670:5680  p.duration */\n      0x00\n      add\n        /* \"Stack.sol\":5670:5692  p.duration = _duration */\n      dup2\n      swap1\n      sstore\n      pop\n        /* \"Stack.sol\":5551:5938  {... */\n      pop\n        /* \"Stack.sol\":5485:5938  function add(uint256 _apr, uint256 _duration) external  onlyOwner {... */\n      pop\n      pop\n      jump\t// out\n        /* \"Stack.sol\":2834:2863  IMigratorChef public migrator */\n    tag_61:\n      0x05\n      0x00\n      swap1\n      sload\n      swap1\n      0x0100\n      exp\n      swap1\n      div\n      0xffffffffffffffffffffffffffffffffffffffff\n      and\n      dup2\n      jump\t// out\n        /* \"Stack.sol\":2674:2709  uint256 public BONUS_MULTIPLIER = 1 */\n    tag_65:\n      sload(0x04)\n      dup2\n      jump\t// out\n        /* \"@openzeppelin/contracts/access/Ownable.sol\":1201:1286  function owner() public view virtual returns (address) {... */\n    tag_68:\n        /* \"@openzeppelin/contracts/access/Ownable.sol\":1247:1254  address */\n      0x00\n        /* \"@openzeppelin/contracts/access/Ownable.sol\":1273:1279  _owner */\n      dup1\n      0x00\n      swap1\n      sload\n      swap1\n      0x0100\n      exp\n      swap1\n      div\n      0xffffffffffffffffffffffffffffffffffffffff\n      and\n        /* \"@openzeppelin/contracts/access/Ownable.sol\":1266:1279  return _owner */\n      swap1\n      pop\n        /* \"@openzeppelin/contracts/access/Ownable.sol\":1201:1286  function owner() public view virtual returns (address) {... */\n      swap1\n      jump\t// out\n        /* \"Stack.sol\":6549:6670  function getMultiplier(uint256 _from, uint256 _to) public pure returns (uint256) {... */\n    tag_73:\n        /* \"Stack.sol\":6621:6628  uint256 */\n      0x00\n        /* \"Stack.sol\":6648:6662  _to.sub(_from) */\n      tag_155\n        /* \"Stack.sol\":6656:6661  _from */\n      dup4\n        /* \"Stack.sol\":6648:6651  _to */\n      dup4\n        /* \"Stack.sol\":6648:6655  _to.sub */\n      tag_156\n      swap1\n        /* \"Stack.sol\":6648:6662  _to.sub(_from) */\n      swap2\n      swap1\n      0xffffffff\n      and\n      jump\t// in\n    tag_155:\n        /* \"Stack.sol\":6641:6662  return _to.sub(_from) */\n      swap1\n      pop\n        /* \"Stack.sol\":6549:6670  function getMultiplier(uint256 _from, uint256 _to) public pure returns (uint256) {... */\n      swap3\n      swap2\n      pop\n      pop\n      jump\t// out\n        /* \"Stack.sol\":572:618  uint256 public constant DENOMINATOR = 365 days */\n    tag_76:\n        /* \"Stack.sol\":610:618  365 days */\n      0x01e13380\n        /* \"Stack.sol\":572:618  uint256 public constant DENOMINATOR = 365 days */\n      dup2\n      jump\t// out\n        /* \"Stack.sol\":1878:1944  mapping (uint256 => mapping (address => UserInfo)) public userInfo */\n    tag_81:\n      mstore(0x20, 0x02)\n      dup2\n      0x00\n      mstore\n      mstore(0x20, keccak256(0x00, 0x40))\n      dup1\n      0x00\n      mstore\n      keccak256(0x00, 0x40)\n      0x00\n      swap2\n      pop\n      swap2\n      pop\n      pop\n      dup1\n      0x00\n      add\n      sload\n      swap1\n      dup1\n      0x01\n      add\n      sload\n      swap1\n      dup1\n      0x02\n      add\n      sload\n      swap1\n      pop\n      dup4\n      jump\t// out\n        /* \"Stack.sol\":6759:8137  function pendingReward(uint256 _pid, address _user) external view returns (uint256 reward) {... */\n    tag_86:\n        /* \"Stack.sol\":6834:6848  uint256 reward */\n      0x00\n        /* \"Stack.sol\":6861:6882  PoolInfo storage pool */\n      dup1\n        /* \"Stack.sol\":6885:6894  poolInfos */\n      0x01\n        /* \"Stack.sol\":6895:6899  _pid */\n      dup5\n        /* \"Stack.sol\":6885:6900  poolInfos[_pid] */\n      dup2\n      sload\n      dup2\n      lt\n      tag_158\n      jumpi\n      tag_159\n      tag_113\n      jump\t// in\n    tag_159:\n    tag_158:\n      swap1\n      0x00\n      mstore\n      keccak256(0x00, 0x20)\n      swap1\n      0x02\n      mul\n      add\n        /* \"Stack.sol\":6861:6900  PoolInfo storage pool = poolInfos[_pid] */\n      swap1\n      pop\n        /* \"Stack.sol\":6911:6932  UserInfo storage user */\n      0x00\n        /* \"Stack.sol\":6935:6943  userInfo */\n      0x02\n        /* \"Stack.sol\":6935:6949  userInfo[_pid] */\n      0x00\n        /* \"Stack.sol\":6944:6948  _pid */\n      dup7\n        /* \"Stack.sol\":6935:6949  userInfo[_pid] */\n      dup2\n      mstore\n      0x20\n      add\n      swap1\n      dup2\n      mstore\n      0x20\n      add\n      0x00\n      keccak256\n        /* \"Stack.sol\":6935:6956  userInfo[_pid][_user] */\n      0x00\n        /* \"Stack.sol\":6950:6955  _user */\n      dup6\n        /* \"Stack.sol\":6935:6956  userInfo[_pid][_user] */\n      0xffffffffffffffffffffffffffffffffffffffff\n      and\n      0xffffffffffffffffffffffffffffffffffffffff\n      and\n      dup2\n      mstore\n      0x20\n      add\n      swap1\n      dup2\n      mstore\n      0x20\n      add\n      0x00\n      keccak256\n        /* \"Stack.sol\":6911:6956  UserInfo storage user = userInfo[_pid][_user] */\n      swap1\n      pop\n        /* \"Stack.sol\":6967:6978  uint256 len */\n      0x00\n        /* \"Stack.sol\":6981:6985  pool */\n      dup3\n        /* \"Stack.sol\":6981:6990  pool.aprs */\n      0x01\n      add\n        /* \"Stack.sol\":6981:6997  pool.aprs.length */\n      dup1\n      sload\n      swap1\n      pop\n        /* \"Stack.sol\":6967:6997  uint256 len = pool.aprs.length */\n      swap1\n      pop\n        /* \"Stack.sol\":7008:7026  uint256 multiplier */\n      0x00\n        /* \"Stack.sol\":7037:7046  bool flag */\n      dup1\n        /* \"Stack.sol\":7085:7089  user */\n      dup4\n        /* \"Stack.sol\":7085:7103  user.lockStartTime */\n      0x02\n      add\n      sload\n        /* \"Stack.sol\":7061:7065  pool */\n      dup6\n        /* \"Stack.sol\":7061:7070  pool.aprs */\n      0x01\n      add\n        /* \"Stack.sol\":7075:7076  1 */\n      0x01\n        /* \"Stack.sol\":7071:7074  len */\n      dup6\n        /* \"Stack.sol\":7071:7076  len-1 */\n      tag_161\n      swap2\n      swap1\n      tag_162\n      jump\t// in\n    tag_161:\n        /* \"Stack.sol\":7061:7077  pool.aprs[len-1] */\n      dup2\n      sload\n      dup2\n      lt\n      tag_163\n      jumpi\n      tag_164\n      tag_113\n      jump\t// in\n    tag_164:\n    tag_163:\n      swap1\n      0x00\n      mstore\n      keccak256(0x00, 0x20)\n      swap1\n      0x02\n      mul\n      add\n        /* \"Stack.sol\":7061:7082  pool.aprs[len-1].time */\n      0x01\n      add\n      sload\n        /* \"Stack.sol\":7061:7103  pool.aprs[len-1].time < user.lockStartTime */\n      lt\n        /* \"Stack.sol\":7057:7359  if (pool.aprs[len-1].time < user.lockStartTime){... */\n      iszero\n      tag_166\n      jumpi\n        /* \"Stack.sol\":7132:7181  getMultiplier(user.lockStartTime,block.timestamp) */\n      tag_167\n        /* \"Stack.sol\":7146:7150  user */\n      dup5\n        /* \"Stack.sol\":7146:7164  user.lockStartTime */\n      0x02\n      add\n      sload\n        /* \"Stack.sol\":7165:7180  block.timestamp */\n      timestamp\n        /* \"Stack.sol\":7132:7145  getMultiplier */\n      tag_73\n        /* \"Stack.sol\":7132:7181  getMultiplier(user.lockStartTime,block.timestamp) */\n      jump\t// in\n    tag_167:\n        /* \"Stack.sol\":7119:7181  multiplier = getMultiplier(user.lockStartTime,block.timestamp) */\n      swap2\n      pop\n        /* \"Stack.sol\":7205:7258  multiplier.mul(pool.aprs[len-1].apr).mul(user.amount) */\n      tag_168\n        /* \"Stack.sol\":7246:7250  user */\n      dup5\n        /* \"Stack.sol\":7246:7257  user.amount */\n      0x00\n      add\n      sload\n        /* \"Stack.sol\":7205:7241  multiplier.mul(pool.aprs[len-1].apr) */\n      tag_169\n        /* \"Stack.sol\":7220:7224  pool */\n      dup8\n        /* \"Stack.sol\":7220:7229  pool.aprs */\n      0x01\n      add\n        /* \"Stack.sol\":7234:7235  1 */\n      0x01\n        /* \"Stack.sol\":7230:7233  len */\n      dup8\n        /* \"Stack.sol\":7230:7235  len-1 */\n      tag_170\n      swap2\n      swap1\n      tag_162\n      jump\t// in\n    tag_170:\n        /* \"Stack.sol\":7220:7236  pool.aprs[len-1] */\n      dup2\n      sload\n      dup2\n      lt\n      tag_171\n      jumpi\n      tag_172\n      tag_113\n      jump\t// in\n    tag_172:\n    tag_171:\n      swap1\n      0x00\n      mstore\n      keccak256(0x00, 0x20)\n      swap1\n      0x02\n      mul\n      add\n        /* \"Stack.sol\":7220:7240  pool.aprs[len-1].apr */\n      0x00\n      add\n      sload\n        /* \"Stack.sol\":7205:7215  multiplier */\n      dup6\n        /* \"Stack.sol\":7205:7219  multiplier.mul */\n      tag_174\n      swap1\n        /* \"Stack.sol\":7205:7241  multiplier.mul(pool.aprs[len-1].apr) */\n      swap2\n      swap1\n      0xffffffff\n      and\n      jump\t// in\n    tag_169:\n        /* \"Stack.sol\":7205:7245  multiplier.mul(pool.aprs[len-1].apr).mul */\n      tag_174\n      swap1\n        /* \"Stack.sol\":7205:7258  multiplier.mul(pool.aprs[len-1].apr).mul(user.amount) */\n      swap2\n      swap1\n      0xffffffff\n      and\n      jump\t// in\n    tag_168:\n        /* \"Stack.sol\":7196:7258  reward = multiplier.mul(pool.aprs[len-1].apr).mul(user.amount) */\n      swap6\n      pop\n        /* \"Stack.sol\":7282:7319  reward.div(DENOMINATOR_TEST).div(100) */\n      tag_175\n        /* \"Stack.sol\":7315:7318  100 */\n      0x64\n        /* \"Stack.sol\":7282:7310  reward.div(DENOMINATOR_TEST) */\n      tag_176\n        /* \"Stack.sol\":715:724  5 minutes */\n      0x012c\n        /* \"Stack.sol\":7282:7288  reward */\n      dup10\n        /* \"Stack.sol\":7282:7292  reward.div */\n      tag_177\n      swap1\n        /* \"Stack.sol\":7282:7310  reward.div(DENOMINATOR_TEST) */\n      swap2\n      swap1\n      0xffffffff\n      and\n      jump\t// in\n    tag_176:\n        /* \"Stack.sol\":7282:7314  reward.div(DENOMINATOR_TEST).div */\n      tag_177\n      swap1\n        /* \"Stack.sol\":7282:7319  reward.div(DENOMINATOR_TEST).div(100) */\n      swap2\n      swap1\n      0xffffffff\n      and\n      jump\t// in\n    tag_175:\n        /* \"Stack.sol\":7273:7319  reward = reward.div(DENOMINATOR_TEST).div(100) */\n      swap6\n      pop\n        /* \"Stack.sol\":7334:7347  return reward */\n      pop\n      pop\n      pop\n      pop\n      pop\n      jump(tag_157)\n        /* \"Stack.sol\":7057:7359  if (pool.aprs[len-1].time < user.lockStartTime){... */\n    tag_166:\n        /* \"Stack.sol\":7376:7382  uint i */\n      0x00\n        /* \"Stack.sol\":7385:7389  user */\n      dup5\n        /* \"Stack.sol\":7385:7396  user.offset */\n      0x01\n      add\n      sload\n        /* \"Stack.sol\":7376:7396  uint i = user.offset */\n      swap1\n      pop\n        /* \"Stack.sol\":7371:7942  for (uint i = user.offset;i< len-1;i++){... */\n    tag_178:\n        /* \"Stack.sol\":7404:7405  1 */\n      0x01\n        /* \"Stack.sol\":7400:7403  len */\n      dup5\n        /* \"Stack.sol\":7400:7405  len-1 */\n      tag_181\n      swap2\n      swap1\n      tag_162\n      jump\t// in\n    tag_181:\n        /* \"Stack.sol\":7397:7398  i */\n      dup2\n        /* \"Stack.sol\":7397:7405  i< len-1 */\n      lt\n        /* \"Stack.sol\":7371:7942  for (uint i = user.offset;i< len-1;i++){... */\n      iszero\n      tag_179\n      jumpi\n        /* \"Stack.sol\":7432:7436  flag */\n      dup2\n        /* \"Stack.sol\":7427:7674  if (!flag){... */\n      tag_182\n      jumpi\n        /* \"Stack.sol\":7469:7523  getMultiplier(user.lockStartTime, pool.aprs[i+1].time) */\n      tag_183\n        /* \"Stack.sol\":7483:7487  user */\n      dup6\n        /* \"Stack.sol\":7483:7501  user.lockStartTime */\n      0x02\n      add\n      sload\n        /* \"Stack.sol\":7503:7507  pool */\n      dup8\n        /* \"Stack.sol\":7503:7512  pool.aprs */\n      0x01\n      add\n        /* \"Stack.sol\":7515:7516  1 */\n      0x01\n        /* \"Stack.sol\":7513:7514  i */\n      dup5\n        /* \"Stack.sol\":7513:7516  i+1 */\n      tag_184\n      swap2\n      swap1\n      tag_185\n      jump\t// in\n    tag_184:\n        /* \"Stack.sol\":7503:7517  pool.aprs[i+1] */\n      dup2\n      sload\n      dup2\n      lt\n      tag_186\n      jumpi\n      tag_187\n      tag_113\n      jump\t// in\n    tag_187:\n    tag_186:\n      swap1\n      0x00\n      mstore\n      keccak256(0x00, 0x20)\n      swap1\n      0x02\n      mul\n      add\n        /* \"Stack.sol\":7503:7522  pool.aprs[i+1].time */\n      0x01\n      add\n      sload\n        /* \"Stack.sol\":7469:7482  getMultiplier */\n      tag_73\n        /* \"Stack.sol\":7469:7523  getMultiplier(user.lockStartTime, pool.aprs[i+1].time) */\n      jump\t// in\n    tag_183:\n        /* \"Stack.sol\":7456:7523  multiplier = getMultiplier(user.lockStartTime, pool.aprs[i+1].time) */\n      swap3\n      pop\n        /* \"Stack.sol\":7551:7600  multiplier.mul(pool.aprs[i].apr).mul(user.amount) */\n      tag_189\n        /* \"Stack.sol\":7588:7592  user */\n      dup6\n        /* \"Stack.sol\":7588:7599  user.amount */\n      0x00\n      add\n      sload\n        /* \"Stack.sol\":7551:7583  multiplier.mul(pool.aprs[i].apr) */\n      tag_190\n        /* \"Stack.sol\":7566:7570  pool */\n      dup9\n        /* \"Stack.sol\":7566:7575  pool.aprs */\n      0x01\n      add\n        /* \"Stack.sol\":7576:7577  i */\n      dup5\n        /* \"Stack.sol\":7566:7578  pool.aprs[i] */\n      dup2\n      sload\n      dup2\n      lt\n      tag_191\n      jumpi\n      tag_192\n      tag_113\n      jump\t// in\n    tag_192:\n    tag_191:\n      swap1\n      0x00\n      mstore\n      keccak256(0x00, 0x20)\n      swap1\n      0x02\n      mul\n      add\n        /* \"Stack.sol\":7566:7582  pool.aprs[i].apr */\n      0x00\n      add\n      sload\n        /* \"Stack.sol\":7551:7561  multiplier */\n      dup7\n        /* \"Stack.sol\":7551:7565  multiplier.mul */\n      tag_174\n      swap1\n        /* \"Stack.sol\":7551:7583  multiplier.mul(pool.aprs[i].apr) */\n      swap2\n      swap1\n      0xffffffff\n      and\n      jump\t// in\n    tag_190:\n        /* \"Stack.sol\":7551:7587  multiplier.mul(pool.aprs[i].apr).mul */\n      tag_174\n      swap1\n        /* \"Stack.sol\":7551:7600  multiplier.mul(pool.aprs[i].apr).mul(user.amount) */\n      swap2\n      swap1\n      0xffffffff\n      and\n      jump\t// in\n    tag_189:\n        /* \"Stack.sol\":7542:7600  reward = multiplier.mul(pool.aprs[i].apr).mul(user.amount) */\n      swap7\n      pop\n        /* \"Stack.sol\":7626:7630  true */\n      0x01\n        /* \"Stack.sol\":7619:7630  flag = true */\n      swap2\n      pop\n        /* \"Stack.sol\":7649:7657  continue */\n      jump(tag_180)\n        /* \"Stack.sol\":7427:7674  if (!flag){... */\n    tag_182:\n        /* \"Stack.sol\":7690:7708  uint256 tempNumber */\n      0x00\n        /* \"Stack.sol\":7711:7764  getMultiplier(pool.aprs[i].time, pool.aprs[i+1].time) */\n      tag_194\n        /* \"Stack.sol\":7725:7729  pool */\n      dup8\n        /* \"Stack.sol\":7725:7734  pool.aprs */\n      0x01\n      add\n        /* \"Stack.sol\":7735:7736  i */\n      dup4\n        /* \"Stack.sol\":7725:7737  pool.aprs[i] */\n      dup2\n      sload\n      dup2\n      lt\n      tag_195\n      jumpi\n      tag_196\n      tag_113\n      jump\t// in\n    tag_196:\n    tag_195:\n      swap1\n      0x00\n      mstore\n      keccak256(0x00, 0x20)\n      swap1\n      0x02\n      mul\n      add\n        /* \"Stack.sol\":7725:7742  pool.aprs[i].time */\n      0x01\n      add\n      sload\n        /* \"Stack.sol\":7744:7748  pool */\n      dup9\n        /* \"Stack.sol\":7744:7753  pool.aprs */\n      0x01\n      add\n        /* \"Stack.sol\":7756:7757  1 */\n      0x01\n        /* \"Stack.sol\":7754:7755  i */\n      dup6\n        /* \"Stack.sol\":7754:7757  i+1 */\n      tag_198\n      swap2\n      swap1\n      tag_185\n      jump\t// in\n    tag_198:\n        /* \"Stack.sol\":7744:7758  pool.aprs[i+1] */\n      dup2\n      sload\n      dup2\n      lt\n      tag_199\n      jumpi\n      tag_200\n      tag_113\n      jump\t// in\n    tag_200:\n    tag_199:\n      swap1\n      0x00\n      mstore\n      keccak256(0x00, 0x20)\n      swap1\n      0x02\n      mul\n      add\n        /* \"Stack.sol\":7744:7763  pool.aprs[i+1].time */\n      0x01\n      add\n      sload\n        /* \"Stack.sol\":7711:7724  getMultiplier */\n      tag_73\n        /* \"Stack.sol\":7711:7764  getMultiplier(pool.aprs[i].time, pool.aprs[i+1].time) */\n      jump\t// in\n    tag_194:\n        /* \"Stack.sol\":7690:7764  uint256 tempNumber = getMultiplier(pool.aprs[i].time, pool.aprs[i+1].time) */\n      swap1\n      pop\n        /* \"Stack.sol\":7789:7850  reward.add(tempNumber.mul(pool.aprs[i].apr).mul(user.amount)) */\n      tag_202\n        /* \"Stack.sol\":7800:7849  tempNumber.mul(pool.aprs[i].apr).mul(user.amount) */\n      tag_203\n        /* \"Stack.sol\":7837:7841  user */\n      dup8\n        /* \"Stack.sol\":7837:7848  user.amount */\n      0x00\n      add\n      sload\n        /* \"Stack.sol\":7800:7832  tempNumber.mul(pool.aprs[i].apr) */\n      tag_204\n        /* \"Stack.sol\":7815:7819  pool */\n      dup11\n        /* \"Stack.sol\":7815:7824  pool.aprs */\n      0x01\n      add\n        /* \"Stack.sol\":7825:7826  i */\n      dup7\n        /* \"Stack.sol\":7815:7827  pool.aprs[i] */\n      dup2\n      sload\n      dup2\n      lt\n      tag_205\n      jumpi\n      tag_206\n      tag_113\n      jump\t// in\n    tag_206:\n    tag_205:\n      swap1\n      0x00\n      mstore\n      keccak256(0x00, 0x20)\n      swap1\n      0x02\n      mul\n      add\n        /* \"Stack.sol\":7815:7831  pool.aprs[i].apr */\n      0x00\n      add\n      sload\n        /* \"Stack.sol\":7800:7810  tempNumber */\n      dup6\n        /* \"Stack.sol\":7800:7814  tempNumber.mul */\n      tag_174\n      swap1\n        /* \"Stack.sol\":7800:7832  tempNumber.mul(pool.aprs[i].apr) */\n      swap2\n      swap1\n      0xffffffff\n      and\n      jump\t// in\n    tag_204:\n        /* \"Stack.sol\":7800:7836  tempNumber.mul(pool.aprs[i].apr).mul */\n      tag_174\n      swap1\n        /* \"Stack.sol\":7800:7849  tempNumber.mul(pool.aprs[i].apr).mul(user.amount) */\n      swap2\n      swap1\n      0xffffffff\n      and\n      jump\t// in\n    tag_203:\n        /* \"Stack.sol\":7789:7795  reward */\n      dup10\n        /* \"Stack.sol\":7789:7799  reward.add */\n      tag_136\n      swap1\n        /* \"Stack.sol\":7789:7850  reward.add(tempNumber.mul(pool.aprs[i].apr).mul(user.amount)) */\n      swap2\n      swap1\n      0xffffffff\n      and\n      jump\t// in\n    tag_202:\n        /* \"Stack.sol\":7781:7850  reward =reward.add(tempNumber.mul(pool.aprs[i].apr).mul(user.amount)) */\n      swap8\n      pop\n        /* \"Stack.sol\":7880:7906  multiplier.add(tempNumber) */\n      tag_208\n        /* \"Stack.sol\":7895:7905  tempNumber */\n      dup2\n        /* \"Stack.sol\":7880:7890  multiplier */\n      dup6\n        /* \"Stack.sol\":7880:7894  multiplier.add */\n      tag_136\n      swap1\n        /* \"Stack.sol\":7880:7906  multiplier.add(tempNumber) */\n      swap2\n      swap1\n      0xffffffff\n      and\n      jump\t// in\n    tag_208:\n        /* \"Stack.sol\":7867:7906  multiplier = multiplier.add(tempNumber) */\n      swap4\n      pop\n        /* \"Stack.sol\":7410:7942  {... */\n      pop\n        /* \"Stack.sol\":7371:7942  for (uint i = user.offset;i< len-1;i++){... */\n    tag_180:\n        /* \"Stack.sol\":7406:7409  i++ */\n      dup1\n      dup1\n      tag_209\n      swap1\n      tag_210\n      jump\t// in\n    tag_209:\n      swap2\n      pop\n      pop\n        /* \"Stack.sol\":7371:7942  for (uint i = user.offset;i< len-1;i++){... */\n      jump(tag_178)\n    tag_179:\n      pop\n        /* \"Stack.sol\":7967:8017  getMultiplier(pool.aprs[len-1].time, block.number) */\n      tag_211\n        /* \"Stack.sol\":7981:7985  pool */\n      dup6\n        /* \"Stack.sol\":7981:7990  pool.aprs */\n      0x01\n      add\n        /* \"Stack.sol\":7995:7996  1 */\n      0x01\n        /* \"Stack.sol\":7991:7994  len */\n      dup6\n        /* \"Stack.sol\":7991:7996  len-1 */\n      tag_212\n      swap2\n      swap1\n      tag_162\n      jump\t// in\n    tag_212:\n        /* \"Stack.sol\":7981:7997  pool.aprs[len-1] */\n      dup2\n      sload\n      dup2\n      lt\n      tag_213\n      jumpi\n      tag_214\n      tag_113\n      jump\t// in\n    tag_214:\n    tag_213:\n      swap1\n      0x00\n      mstore\n      keccak256(0x00, 0x20)\n      swap1\n      0x02\n      mul\n      add\n        /* \"Stack.sol\":7981:8002  pool.aprs[len-1].time */\n      0x01\n      add\n      sload\n        /* \"Stack.sol\":8004:8016  block.number */\n      number\n        /* \"Stack.sol\":7967:7980  getMultiplier */\n      tag_73\n        /* \"Stack.sol\":7967:8017  getMultiplier(pool.aprs[len-1].time, block.number) */\n      jump\t// in\n    tag_211:\n        /* \"Stack.sol\":7954:8017  multiplier = getMultiplier(pool.aprs[len-1].time, block.number) */\n      swap2\n      pop\n        /* \"Stack.sol\":8036:8101  reward.add(multiplier.mul(pool.aprs[len-1].apr).mul(user.amount)) */\n      tag_216\n        /* \"Stack.sol\":8047:8100  multiplier.mul(pool.aprs[len-1].apr).mul(user.amount) */\n      tag_217\n        /* \"Stack.sol\":8088:8092  user */\n      dup6\n        /* \"Stack.sol\":8088:8099  user.amount */\n      0x00\n      add\n      sload\n        /* \"Stack.sol\":8047:8083  multiplier.mul(pool.aprs[len-1].apr) */\n      tag_218\n        /* \"Stack.sol\":8062:8066  pool */\n      dup9\n        /* \"Stack.sol\":8062:8071  pool.aprs */\n      0x01\n      add\n        /* \"Stack.sol\":8076:8077  1 */\n      0x01\n        /* \"Stack.sol\":8072:8075  len */\n      dup9\n        /* \"Stack.sol\":8072:8077  len-1 */\n      tag_219\n      swap2\n      swap1\n      tag_162\n      jump\t// in\n    tag_219:\n        /* \"Stack.sol\":8062:8078  pool.aprs[len-1] */\n      dup2\n      sload\n      dup2\n      lt\n      tag_220\n      jumpi\n      tag_221\n      tag_113\n      jump\t// in\n    tag_221:\n    tag_220:\n      swap1\n      0x00\n      mstore\n      keccak256(0x00, 0x20)\n      swap1\n      0x02\n      mul\n      add\n        /* \"Stack.sol\":8062:8082  pool.aprs[len-1].apr */\n      0x00\n      add\n      sload\n        /* \"Stack.sol\":8047:8057  multiplier */\n      dup7\n        /* \"Stack.sol\":8047:8061  multiplier.mul */\n      tag_174\n      swap1\n        /* \"Stack.sol\":8047:8083  multiplier.mul(pool.aprs[len-1].apr) */\n      swap2\n      swap1\n      0xffffffff\n      and\n      jump\t// in\n    tag_218:\n        /* \"Stack.sol\":8047:8087  multiplier.mul(pool.aprs[len-1].apr).mul */\n      tag_174\n      swap1\n        /* \"Stack.sol\":8047:8100  multiplier.mul(pool.aprs[len-1].apr).mul(user.amount) */\n      swap2\n      swap1\n      0xffffffff\n      and\n      jump\t// in\n    tag_217:\n        /* \"Stack.sol\":8036:8042  reward */\n      dup8\n        /* \"Stack.sol\":8036:8046  reward.add */\n      tag_136\n      swap1\n        /* \"Stack.sol\":8036:8101  reward.add(multiplier.mul(pool.aprs[len-1].apr).mul(user.amount)) */\n      swap2\n      swap1\n      0xffffffff\n      and\n      jump\t// in\n    tag_216:\n        /* \"Stack.sol\":8028:8101  reward =reward.add(multiplier.mul(pool.aprs[len-1].apr).mul(user.amount)) */\n      swap6\n      pop\n        /* \"Stack.sol\":8114:8127  return reward */\n      pop\n      pop\n      pop\n      pop\n      pop\n        /* \"Stack.sol\":6759:8137  function pendingReward(uint256 _pid, address _user) external view returns (uint256 reward) {... */\n    tag_157:\n      swap3\n      swap2\n      pop\n      pop\n      jump\t// out\n        /* \"Stack.sol\":8147:9933  function calculateReward(uint256 _pid, address _user) public view returns (uint256 reward) {... */\n    tag_90:\n        /* \"Stack.sol\":8222:8236  uint256 reward */\n      0x00\n        /* \"Stack.sol\":8249:8270  PoolInfo storage pool */\n      dup1\n        /* \"Stack.sol\":8273:8282  poolInfos */\n      0x01\n        /* \"Stack.sol\":8283:8287  _pid */\n      dup5\n        /* \"Stack.sol\":8273:8288  poolInfos[_pid] */\n      dup2\n      sload\n      dup2\n      lt\n      tag_224\n      jumpi\n      tag_225\n      tag_113\n      jump\t// in\n    tag_225:\n    tag_224:\n      swap1\n      0x00\n      mstore\n      keccak256(0x00, 0x20)\n      swap1\n      0x02\n      mul\n      add\n        /* \"Stack.sol\":8249:8288  PoolInfo storage pool = poolInfos[_pid] */\n      swap1\n      pop\n        /* \"Stack.sol\":8299:8320  UserInfo storage user */\n      0x00\n        /* \"Stack.sol\":8323:8331  userInfo */\n      0x02\n        /* \"Stack.sol\":8323:8337  userInfo[_pid] */\n      0x00\n        /* \"Stack.sol\":8332:8336  _pid */\n      dup7\n        /* \"Stack.sol\":8323:8337  userInfo[_pid] */\n      dup2\n      mstore\n      0x20\n      add\n      swap1\n      dup2\n      mstore\n      0x20\n      add\n      0x00\n      keccak256\n        /* \"Stack.sol\":8323:8344  userInfo[_pid][_user] */\n      0x00\n        /* \"Stack.sol\":8338:8343  _user */\n      dup6\n        /* \"Stack.sol\":8323:8344  userInfo[_pid][_user] */\n      0xffffffffffffffffffffffffffffffffffffffff\n      and\n      0xffffffffffffffffffffffffffffffffffffffff\n      and\n      dup2\n      mstore\n      0x20\n      add\n      swap1\n      dup2\n      mstore\n      0x20\n      add\n      0x00\n      keccak256\n        /* \"Stack.sol\":8299:8344  UserInfo storage user = userInfo[_pid][_user] */\n      swap1\n      pop\n        /* \"Stack.sol\":8355:8366  uint256 len */\n      0x00\n        /* \"Stack.sol\":8369:8373  pool */\n      dup3\n        /* \"Stack.sol\":8369:8378  pool.aprs */\n      0x01\n      add\n        /* \"Stack.sol\":8369:8385  pool.aprs.length */\n      dup1\n      sload\n      swap1\n      pop\n        /* \"Stack.sol\":8355:8385  uint256 len = pool.aprs.length */\n      swap1\n      pop\n        /* \"Stack.sol\":8396:8414  uint256 multiplier */\n      0x00\n        /* \"Stack.sol\":8425:8434  bool flag */\n      dup1\n        /* \"Stack.sol\":8492:8496  user */\n      dup4\n        /* \"Stack.sol\":8492:8510  user.lockStartTime */\n      0x02\n      add\n      sload\n        /* \"Stack.sol\":8468:8472  pool */\n      dup6\n        /* \"Stack.sol\":8468:8477  pool.aprs */\n      0x01\n      add\n        /* \"Stack.sol\":8482:8483  1 */\n      0x01\n        /* \"Stack.sol\":8478:8481  len */\n      dup6\n        /* \"Stack.sol\":8478:8483  len-1 */\n      tag_227\n      swap2\n      swap1\n      tag_162\n      jump\t// in\n    tag_227:\n        /* \"Stack.sol\":8468:8484  pool.aprs[len-1] */\n      dup2\n      sload\n      dup2\n      lt\n      tag_228\n      jumpi\n      tag_229\n      tag_113\n      jump\t// in\n    tag_229:\n    tag_228:\n      swap1\n      0x00\n      mstore\n      keccak256(0x00, 0x20)\n      swap1\n      0x02\n      mul\n      add\n        /* \"Stack.sol\":8468:8489  pool.aprs[len-1].time */\n      0x01\n      add\n      sload\n        /* \"Stack.sol\":8468:8510  pool.aprs[len-1].time < user.lockStartTime */\n      lt\n        /* \"Stack.sol\":8464:8669  if (pool.aprs[len-1].time < user.lockStartTime){... */\n      iszero\n      tag_231\n      jumpi\n        /* \"Stack.sol\":8539:8543  pool */\n      dup5\n        /* \"Stack.sol\":8539:8552  pool.duration */\n      0x00\n      add\n      sload\n        /* \"Stack.sol\":8526:8552  multiplier = pool.duration */\n      swap2\n      pop\n        /* \"Stack.sol\":8576:8629  multiplier.mul(pool.aprs[len-1].apr).mul(user.amount) */\n      tag_232\n        /* \"Stack.sol\":8617:8621  user */\n      dup5\n        /* \"Stack.sol\":8617:8628  user.amount */\n      0x00\n      add\n      sload\n        /* \"Stack.sol\":8576:8612  multiplier.mul(pool.aprs[len-1].apr) */\n      tag_233\n        /* \"Stack.sol\":8591:8595  pool */\n      dup8\n        /* \"Stack.sol\":8591:8600  pool.aprs */\n      0x01\n      add\n        /* \"Stack.sol\":8605:8606  1 */\n      0x01\n        /* \"Stack.sol\":8601:8604  len */\n      dup8\n        /* \"Stack.sol\":8601:8606  len-1 */\n      tag_234\n      swap2\n      swap1\n      tag_162\n      jump\t// in\n    tag_234:\n        /* \"Stack.sol\":8591:8607  pool.aprs[len-1] */\n      dup2\n      sload\n      dup2\n      lt\n      tag_235\n      jumpi\n      tag_236\n      tag_113\n      jump\t// in\n    tag_236:\n    tag_235:\n      swap1\n      0x00\n      mstore\n      keccak256(0x00, 0x20)\n      swap1\n      0x02\n      mul\n      add\n        /* \"Stack.sol\":8591:8611  pool.aprs[len-1].apr */\n      0x00\n      add\n      sload\n        /* \"Stack.sol\":8576:8586  multiplier */\n      dup6\n        /* \"Stack.sol\":8576:8590  multiplier.mul */\n      tag_174\n      swap1\n        /* \"Stack.sol\":8576:8612  multiplier.mul(pool.aprs[len-1].apr) */\n      swap2\n      swap1\n      0xffffffff\n      and\n      jump\t// in\n    tag_233:\n        /* \"Stack.sol\":8576:8616  multiplier.mul(pool.aprs[len-1].apr).mul */\n      tag_174\n      swap1\n        /* \"Stack.sol\":8576:8629  multiplier.mul(pool.aprs[len-1].apr).mul(user.amount) */\n      swap2\n      swap1\n      0xffffffff\n      and\n      jump\t// in\n    tag_232:\n        /* \"Stack.sol\":8567:8629  reward = multiplier.mul(pool.aprs[len-1].apr).mul(user.amount) */\n      swap6\n      pop\n        /* \"Stack.sol\":8644:8657  return reward */\n      pop\n      pop\n      pop\n      pop\n      pop\n      jump(tag_223)\n        /* \"Stack.sol\":8464:8669  if (pool.aprs[len-1].time < user.lockStartTime){... */\n    tag_231:\n        /* \"Stack.sol\":8684:8690  uint i */\n      0x00\n        /* \"Stack.sol\":8693:8697  user */\n      dup5\n        /* \"Stack.sol\":8693:8704  user.offset */\n      0x01\n      add\n      sload\n        /* \"Stack.sol\":8684:8704  uint i = user.offset */\n      swap1\n      pop\n        /* \"Stack.sol\":8679:9768  for (uint i = user.offset;i< len-1;i++){... */\n    tag_238:\n        /* \"Stack.sol\":8712:8713  1 */\n      0x01\n        /* \"Stack.sol\":8708:8711  len */\n      dup5\n        /* \"Stack.sol\":8708:8713  len-1 */\n      tag_241\n      swap2\n      swap1\n      tag_162\n      jump\t// in\n    tag_241:\n        /* \"Stack.sol\":8705:8706  i */\n      dup2\n        /* \"Stack.sol\":8705:8713  i< len-1 */\n      lt\n        /* \"Stack.sol\":8679:9768  for (uint i = user.offset;i< len-1;i++){... */\n      iszero\n      tag_239\n      jumpi\n        /* \"Stack.sol\":8740:8744  flag */\n      dup2\n        /* \"Stack.sol\":8735:9175  if (!flag){... */\n      tag_242\n      jumpi\n        /* \"Stack.sol\":8777:8831  getMultiplier(user.lockStartTime, pool.aprs[i+1].time) */\n      tag_243\n        /* \"Stack.sol\":8791:8795  user */\n      dup6\n        /* \"Stack.sol\":8791:8809  user.lockStartTime */\n      0x02\n      add\n      sload\n        /* \"Stack.sol\":8811:8815  pool */\n      dup8\n        /* \"Stack.sol\":8811:8820  pool.aprs */\n      0x01\n      add\n        /* \"Stack.sol\":8823:8824  1 */\n      0x01\n        /* \"Stack.sol\":8821:8822  i */\n      dup5\n        /* \"Stack.sol\":8821:8824  i+1 */\n      tag_244\n      swap2\n      swap1\n      tag_185\n      jump\t// in\n    tag_244:\n        /* \"Stack.sol\":8811:8825  pool.aprs[i+1] */\n      dup2\n      sload\n      dup2\n      lt\n      tag_245\n      jumpi\n      tag_246\n      tag_113\n      jump\t// in\n    tag_246:\n    tag_245:\n      swap1\n      0x00\n      mstore\n      keccak256(0x00, 0x20)\n      swap1\n      0x02\n      mul\n      add\n        /* \"Stack.sol\":8811:8830  pool.aprs[i+1].time */\n      0x01\n      add\n      sload\n        /* \"Stack.sol\":8777:8790  getMultiplier */\n      tag_73\n        /* \"Stack.sol\":8777:8831  getMultiplier(user.lockStartTime, pool.aprs[i+1].time) */\n      jump\t// in\n    tag_243:\n        /* \"Stack.sol\":8764:8831  multiplier = getMultiplier(user.lockStartTime, pool.aprs[i+1].time) */\n      swap3\n      pop\n        /* \"Stack.sol\":8867:8871  pool */\n      dup6\n        /* \"Stack.sol\":8867:8880  pool.duration */\n      0x00\n      add\n      sload\n        /* \"Stack.sol\":8854:8864  multiplier */\n      dup4\n        /* \"Stack.sol\":8854:8880  multiplier > pool.duration */\n      gt\n        /* \"Stack.sol\":8850:9025  if (multiplier > pool.duration){... */\n      iszero\n      tag_248\n      jumpi\n        /* \"Stack.sol\":8913:8965  pool.duration.mul(pool.aprs[i].apr).mul(user.amount) */\n      tag_249\n        /* \"Stack.sol\":8953:8957  user */\n      dup6\n        /* \"Stack.sol\":8953:8964  user.amount */\n      0x00\n      add\n      sload\n        /* \"Stack.sol\":8913:8948  pool.duration.mul(pool.aprs[i].apr) */\n      tag_250\n        /* \"Stack.sol\":8931:8935  pool */\n      dup9\n        /* \"Stack.sol\":8931:8940  pool.aprs */\n      0x01\n      add\n        /* \"Stack.sol\":8941:8942  i */\n      dup5\n        /* \"Stack.sol\":8931:8943  pool.aprs[i] */\n      dup2\n      sload\n      dup2\n      lt\n      tag_251\n      jumpi\n      tag_252\n      tag_113\n      jump\t// in\n    tag_252:\n    tag_251:\n      swap1\n      0x00\n      mstore\n      keccak256(0x00, 0x20)\n      swap1\n      0x02\n      mul\n      add\n        /* \"Stack.sol\":8931:8947  pool.aprs[i].apr */\n      0x00\n      add\n      sload\n        /* \"Stack.sol\":8913:8917  pool */\n      dup10\n        /* \"Stack.sol\":8913:8926  pool.duration */\n      0x00\n      add\n      sload\n        /* \"Stack.sol\":8913:8930  pool.duration.mul */\n      tag_174\n      swap1\n        /* \"Stack.sol\":8913:8948  pool.duration.mul(pool.aprs[i].apr) */\n      swap2\n      swap1\n      0xffffffff\n      and\n      jump\t// in\n    tag_250:\n        /* \"Stack.sol\":8913:8952  pool.duration.mul(pool.aprs[i].apr).mul */\n      tag_174\n      swap1\n        /* \"Stack.sol\":8913:8965  pool.duration.mul(pool.aprs[i].apr).mul(user.amount) */\n      swap2\n      swap1\n      0xffffffff\n      and\n      jump\t// in\n    tag_249:\n        /* \"Stack.sol\":8904:8965  reward = pool.duration.mul(pool.aprs[i].apr).mul(user.amount) */\n      swap7\n      pop\n        /* \"Stack.sol\":8988:9001  return reward */\n      pop\n      pop\n      pop\n      pop\n      pop\n      pop\n      jump(tag_223)\n        /* \"Stack.sol\":8850:9025  if (multiplier > pool.duration){... */\n    tag_248:\n        /* \"Stack.sol\":9052:9101  multiplier.mul(pool.aprs[i].apr).mul(user.amount) */\n      tag_254\n        /* \"Stack.sol\":9089:9093  user */\n      dup6\n        /* \"Stack.sol\":9089:9100  user.amount */\n      0x00\n      add\n      sload\n        /* \"Stack.sol\":9052:9084  multiplier.mul(pool.aprs[i].apr) */\n      tag_255\n        /* \"Stack.sol\":9067:9071  pool */\n      dup9\n        /* \"Stack.sol\":9067:9076  pool.aprs */\n      0x01\n      add\n        /* \"Stack.sol\":9077:9078  i */\n      dup5\n        /* \"Stack.sol\":9067:9079  pool.aprs[i] */\n      dup2\n      sload\n      dup2\n      lt\n      tag_256\n      jumpi\n      tag_257\n      tag_113\n      jump\t// in\n    tag_257:\n    tag_256:\n      swap1\n      0x00\n      mstore\n      keccak256(0x00, 0x20)\n      swap1\n      0x02\n      mul\n      add\n        /* \"Stack.sol\":9067:9083  pool.aprs[i].apr */\n      0x00\n      add\n      sload\n        /* \"Stack.sol\":9052:9062  multiplier */\n      dup7\n        /* \"Stack.sol\":9052:9066  multiplier.mul */\n      tag_174\n      swap1\n        /* \"Stack.sol\":9052:9084  multiplier.mul(pool.aprs[i].apr) */\n      swap2\n      swap1\n      0xffffffff\n      and\n      jump\t// in\n    tag_255:\n        /* \"Stack.sol\":9052:9088  multiplier.mul(pool.aprs[i].apr).mul */\n      tag_174\n      swap1\n        /* \"Stack.sol\":9052:9101  multiplier.mul(pool.aprs[i].apr).mul(user.amount) */\n      swap2\n      swap1\n      0xffffffff\n      and\n      jump\t// in\n    tag_254:\n        /* \"Stack.sol\":9043:9101  reward = multiplier.mul(pool.aprs[i].apr).mul(user.amount) */\n      swap7\n      pop\n        /* \"Stack.sol\":9127:9131  true */\n      0x01\n        /* \"Stack.sol\":9120:9131  flag = true */\n      swap2\n      pop\n        /* \"Stack.sol\":9150:9158  continue */\n      jump(tag_240)\n        /* \"Stack.sol\":8735:9175  if (!flag){... */\n    tag_242:\n        /* \"Stack.sol\":9191:9209  uint256 tempNumber */\n      0x00\n        /* \"Stack.sol\":9212:9265  getMultiplier(pool.aprs[i].time, pool.aprs[i+1].time) */\n      tag_259\n        /* \"Stack.sol\":9226:9230  pool */\n      dup8\n        /* \"Stack.sol\":9226:9235  pool.aprs */\n      0x01\n      add\n        /* \"Stack.sol\":9236:9237  i */\n      dup4\n        /* \"Stack.sol\":9226:9238  pool.aprs[i] */\n      dup2\n      sload\n      dup2\n      lt\n      tag_260\n      jumpi\n      tag_261\n      tag_113\n      jump\t// in\n    tag_261:\n    tag_260:\n      swap1\n      0x00\n      mstore\n      keccak256(0x00, 0x20)\n      swap1\n      0x02\n      mul\n      add\n        /* \"Stack.sol\":9226:9243  pool.aprs[i].time */\n      0x01\n      add\n      sload\n        /* \"Stack.sol\":9245:9249  pool */\n      dup9\n        /* \"Stack.sol\":9245:9254  pool.aprs */\n      0x01\n      add\n        /* \"Stack.sol\":9257:9258  1 */\n      0x01\n        /* \"Stack.sol\":9255:9256  i */\n      dup6\n        /* \"Stack.sol\":9255:9258  i+1 */\n      tag_263\n      swap2\n      swap1\n      tag_185\n      jump\t// in\n    tag_263:\n        /* \"Stack.sol\":9245:9259  pool.aprs[i+1] */\n      dup2\n      sload\n      dup2\n      lt\n      tag_264\n      jumpi\n      tag_265\n      tag_113\n      jump\t// in\n    tag_265:\n    tag_264:\n      swap1\n      0x00\n      mstore\n      keccak256(0x00, 0x20)\n      swap1\n      0x02\n      mul\n      add\n        /* \"Stack.sol\":9245:9264  pool.aprs[i+1].time */\n      0x01\n      add\n      sload\n        /* \"Stack.sol\":9212:9225  getMultiplier */\n      tag_73\n        /* \"Stack.sol\":9212:9265  getMultiplier(pool.aprs[i].time, pool.aprs[i+1].time) */\n      jump\t// in\n    tag_259:\n        /* \"Stack.sol\":9191:9265  uint256 tempNumber = getMultiplier(pool.aprs[i].time, pool.aprs[i+1].time) */\n      swap1\n      pop\n        /* \"Stack.sol\":9315:9319  pool */\n      dup7\n        /* \"Stack.sol\":9315:9328  pool.duration */\n      0x00\n      add\n      sload\n        /* \"Stack.sol\":9286:9312  tempNumber.add(multiplier) */\n      tag_267\n        /* \"Stack.sol\":9301:9311  multiplier */\n      dup6\n        /* \"Stack.sol\":9286:9296  tempNumber */\n      dup4\n        /* \"Stack.sol\":9286:9300  tempNumber.add */\n      tag_136\n      swap1\n        /* \"Stack.sol\":9286:9312  tempNumber.add(multiplier) */\n      swap2\n      swap1\n      0xffffffff\n      and\n      jump\t// in\n    tag_267:\n        /* \"Stack.sol\":9286:9328  tempNumber.add(multiplier) > pool.duration */\n      gt\n        /* \"Stack.sol\":9282:9489  if (tempNumber.add(multiplier) > pool.duration){... */\n      iszero\n      tag_268\n      jumpi\n        /* \"Stack.sol\":9357:9437  reward.add(pool.duration.sub(multiplier).mul(pool.aprs[i].apr).mul(user.amount)) */\n      tag_269\n        /* \"Stack.sol\":9368:9436  pool.duration.sub(multiplier).mul(pool.aprs[i].apr).mul(user.amount) */\n      tag_270\n        /* \"Stack.sol\":9424:9428  user */\n      dup8\n        /* \"Stack.sol\":9424:9435  user.amount */\n      0x00\n      add\n      sload\n        /* \"Stack.sol\":9368:9419  pool.duration.sub(multiplier).mul(pool.aprs[i].apr) */\n      tag_271\n        /* \"Stack.sol\":9402:9406  pool */\n      dup11\n        /* \"Stack.sol\":9402:9411  pool.aprs */\n      0x01\n      add\n        /* \"Stack.sol\":9412:9413  i */\n      dup7\n        /* \"Stack.sol\":9402:9414  pool.aprs[i] */\n      dup2\n      sload\n      dup2\n      lt\n      tag_272\n      jumpi\n      tag_273\n      tag_113\n      jump\t// in\n    tag_273:\n    tag_272:\n      swap1\n      0x00\n      mstore\n      keccak256(0x00, 0x20)\n      swap1\n      0x02\n      mul\n      add\n        /* \"Stack.sol\":9402:9418  pool.aprs[i].apr */\n      0x00\n      add\n      sload\n        /* \"Stack.sol\":9368:9397  pool.duration.sub(multiplier) */\n      tag_275\n        /* \"Stack.sol\":9386:9396  multiplier */\n      dup10\n        /* \"Stack.sol\":9368:9372  pool */\n      dup14\n        /* \"Stack.sol\":9368:9381  pool.duration */\n      0x00\n      add\n      sload\n        /* \"Stack.sol\":9368:9385  pool.duration.sub */\n      tag_156\n      swap1\n        /* \"Stack.sol\":9368:9397  pool.duration.sub(multiplier) */\n      swap2\n      swap1\n      0xffffffff\n      and\n      jump\t// in\n    tag_275:\n        /* \"Stack.sol\":9368:9401  pool.duration.sub(multiplier).mul */\n      tag_174\n      swap1\n        /* \"Stack.sol\":9368:9419  pool.duration.sub(multiplier).mul(pool.aprs[i].apr) */\n      swap2\n      swap1\n      0xffffffff\n      and\n      jump\t// in\n    tag_271:\n        /* \"Stack.sol\":9368:9423  pool.duration.sub(multiplier).mul(pool.aprs[i].apr).mul */\n      tag_174\n      swap1\n        /* \"Stack.sol\":9368:9436  pool.duration.sub(multiplier).mul(pool.aprs[i].apr).mul(user.amount) */\n      swap2\n      swap1\n      0xffffffff\n      and\n      jump\t// in\n    tag_270:\n        /* \"Stack.sol\":9357:9363  reward */\n      dup10\n        /* \"Stack.sol\":9357:9367  reward.add */\n      tag_136\n      swap1\n        /* \"Stack.sol\":9357:9437  reward.add(pool.duration.sub(multiplier).mul(pool.aprs[i].apr).mul(user.amount)) */\n      swap2\n      swap1\n      0xffffffff\n      and\n      jump\t// in\n    tag_269:\n        /* \"Stack.sol\":9348:9437  reward = reward.add(pool.duration.sub(multiplier).mul(pool.aprs[i].apr).mul(user.amount)) */\n      swap8\n      pop\n        /* \"Stack.sol\":9456:9469  return reward */\n      pop\n      pop\n      pop\n      pop\n      pop\n      pop\n      pop\n      jump(tag_223)\n        /* \"Stack.sol\":9282:9489  if (tempNumber.add(multiplier) > pool.duration){... */\n    tag_268:\n        /* \"Stack.sol\":9629:9690  reward.add(tempNumber.mul(pool.aprs[i].apr).mul(user.amount)) */\n      tag_276\n        /* \"Stack.sol\":9640:9689  tempNumber.mul(pool.aprs[i].apr).mul(user.amount) */\n      tag_277\n        /* \"Stack.sol\":9677:9681  user */\n      dup8\n        /* \"Stack.sol\":9677:9688  user.amount */\n      0x00\n      add\n      sload\n        /* \"Stack.sol\":9640:9672  tempNumber.mul(pool.aprs[i].apr) */\n      tag_278\n        /* \"Stack.sol\":9655:9659  pool */\n      dup11\n        /* \"Stack.sol\":9655:9664  pool.aprs */\n      0x01\n      add\n        /* \"Stack.sol\":9665:9666  i */\n      dup7\n        /* \"Stack.sol\":9655:9667  pool.aprs[i] */\n      dup2\n      sload\n      dup2\n      lt\n      tag_279\n      jumpi\n      tag_280\n      tag_113\n      jump\t// in\n    tag_280:\n    tag_279:\n      swap1\n      0x00\n      mstore\n      keccak256(0x00, 0x20)\n      swap1\n      0x02\n      mul\n      add\n        /* \"Stack.sol\":9655:9671  pool.aprs[i].apr */\n      0x00\n      add\n      sload\n        /* \"Stack.sol\":9640:9650  tempNumber */\n      dup6\n        /* \"Stack.sol\":9640:9654  tempNumber.mul */\n      tag_174\n      swap1\n        /* \"Stack.sol\":9640:9672  tempNumber.mul(pool.aprs[i].apr) */\n      swap2\n      swap1\n      0xffffffff\n      and\n      jump\t// in\n    tag_278:\n        /* \"Stack.sol\":9640:9676  tempNumber.mul(pool.aprs[i].apr).mul */\n      tag_174\n      swap1\n        /* \"Stack.sol\":9640:9689  tempNumber.mul(pool.aprs[i].apr).mul(user.amount) */\n      swap2\n      swap1\n      0xffffffff\n      and\n      jump\t// in\n    tag_277:\n        /* \"Stack.sol\":9629:9635  reward */\n      dup10\n        /* \"Stack.sol\":9629:9639  reward.add */\n      tag_136\n      swap1\n        /* \"Stack.sol\":9629:9690  reward.add(tempNumber.mul(pool.aprs[i].apr).mul(user.amount)) */\n      swap2\n      swap1\n      0xffffffff\n      and\n      jump\t// in\n    tag_276:\n        /* \"Stack.sol\":9621:9690  reward =reward.add(tempNumber.mul(pool.aprs[i].apr).mul(user.amount)) */\n      swap8\n      pop\n        /* \"Stack.sol\":9720:9746  multiplier.add(tempNumber) */\n      tag_282\n        /* \"Stack.sol\":9735:9745  tempNumber */\n      dup2\n        /* \"Stack.sol\":9720:9730  multiplier */\n      dup6\n        /* \"Stack.sol\":9720:9734  multiplier.add */\n      tag_136\n      swap1\n        /* \"Stack.sol\":9720:9746  multiplier.add(tempNumber) */\n      swap2\n      swap1\n      0xffffffff\n      and\n      jump\t// in\n    tag_282:\n        /* \"Stack.sol\":9707:9746  multiplier = multiplier.add(tempNumber) */\n      swap4\n      pop\n        /* \"Stack.sol\":8718:9768  {... */\n      pop\n        /* \"Stack.sol\":8679:9768  for (uint i = user.offset;i< len-1;i++){... */\n    tag_240:\n        /* \"Stack.sol\":8714:8717  i++ */\n      dup1\n      dup1\n      tag_283\n      swap1\n      tag_210\n      jump\t// in\n    tag_283:\n      swap2\n      pop\n      pop\n        /* \"Stack.sol\":8679:9768  for (uint i = user.offset;i< len-1;i++){... */\n      jump(tag_238)\n    tag_239:\n      pop\n        /* \"Stack.sol\":9793:9877  reward.add(pool.duration.sub(multiplier).mul(pool.aprs[len-1].apr).mul(user.amount)) */\n      tag_284\n        /* \"Stack.sol\":9804:9876  pool.duration.sub(multiplier).mul(pool.aprs[len-1].apr).mul(user.amount) */\n      tag_285\n        /* \"Stack.sol\":9864:9868  user */\n      dup6\n        /* \"Stack.sol\":9864:9875  user.amount */\n      0x00\n      add\n      sload\n        /* \"Stack.sol\":9804:9859  pool.duration.sub(multiplier).mul(pool.aprs[len-1].apr) */\n      tag_286\n        /* \"Stack.sol\":9838:9842  pool */\n      dup9\n        /* \"Stack.sol\":9838:9847  pool.aprs */\n      0x01\n      add\n        /* \"Stack.sol\":9852:9853  1 */\n      0x01\n        /* \"Stack.sol\":9848:9851  len */\n      dup9\n        /* \"Stack.sol\":9848:9853  len-1 */\n      tag_287\n      swap2\n      swap1\n      tag_162\n      jump\t// in\n    tag_287:\n        /* \"Stack.sol\":9838:9854  pool.aprs[len-1] */\n      dup2\n      sload\n      dup2\n      lt\n      tag_288\n      jumpi\n      tag_289\n      tag_113\n      jump\t// in\n    tag_289:\n    tag_288:\n      swap1\n      0x00\n      mstore\n      keccak256(0x00, 0x20)\n      swap1\n      0x02\n      mul\n      add\n        /* \"Stack.sol\":9838:9858  pool.aprs[len-1].apr */\n      0x00\n      add\n      sload\n        /* \"Stack.sol\":9804:9833  pool.duration.sub(multiplier) */\n      tag_291\n        /* \"Stack.sol\":9822:9832  multiplier */\n      dup8\n        /* \"Stack.sol\":9804:9808  pool */\n      dup12\n        /* \"Stack.sol\":9804:9817  pool.duration */\n      0x00\n      add\n      sload\n        /* \"Stack.sol\":9804:9821  pool.duration.sub */\n      tag_156\n      swap1\n        /* \"Stack.sol\":9804:9833  pool.duration.sub(multiplier) */\n      swap2\n      swap1\n      0xffffffff\n      and\n      jump\t// in\n    tag_291:\n        /* \"Stack.sol\":9804:9837  pool.duration.sub(multiplier).mul */\n      tag_174\n      swap1\n        /* \"Stack.sol\":9804:9859  pool.duration.sub(multiplier).mul(pool.aprs[len-1].apr) */\n      swap2\n      swap1\n      0xffffffff\n      and\n      jump\t// in\n    tag_286:\n        /* \"Stack.sol\":9804:9863  pool.duration.sub(multiplier).mul(pool.aprs[len-1].apr).mul */\n      tag_174\n      swap1\n        /* \"Stack.sol\":9804:9876  pool.duration.sub(multiplier).mul(pool.aprs[len-1].apr).mul(user.amount) */\n      swap2\n      swap1\n      0xffffffff\n      and\n      jump\t// in\n    tag_285:\n        /* \"Stack.sol\":9793:9799  reward */\n      dup8\n        /* \"Stack.sol\":9793:9803  reward.add */\n      tag_136\n      swap1\n        /* \"Stack.sol\":9793:9877  reward.add(pool.duration.sub(multiplier).mul(pool.aprs[len-1].apr).mul(user.amount)) */\n      swap2\n      swap1\n      0xffffffff\n      and\n      jump\t// in\n    tag_284:\n        /* \"Stack.sol\":9784:9877  reward = reward.add(pool.duration.sub(multiplier).mul(pool.aprs[len-1].apr).mul(user.amount)) */\n      swap6\n      pop\n        /* \"Stack.sol\":9892:9905  return reward */\n      pop\n      pop\n      pop\n      pop\n      pop\n        /* \"Stack.sol\":8147:9933  function calculateReward(uint256 _pid, address _user) public view returns (uint256 reward) {... */\n    tag_223:\n      swap3\n      swap2\n      pop\n      pop\n      jump\t// out\n        /* \"Stack.sol\":10023:11870  function deposit(uint256 _pid, uint256 _amount) public {... */\n    tag_94:\n        /* \"Stack.sol\":10089:10110  PoolInfo storage pool */\n      0x00\n        /* \"Stack.sol\":10113:10122  poolInfos */\n      0x01\n        /* \"Stack.sol\":10123:10127  _pid */\n      dup4\n        /* \"Stack.sol\":10113:10128  poolInfos[_pid] */\n      dup2\n      sload\n      dup2\n      lt\n      tag_293\n      jumpi\n      tag_294\n      tag_113\n      jump\t// in\n    tag_294:\n    tag_293:\n      swap1\n      0x00\n      mstore\n      keccak256(0x00, 0x20)\n      swap1\n      0x02\n      mul\n      add\n        /* \"Stack.sol\":10089:10128  PoolInfo storage pool = poolInfos[_pid] */\n      swap1\n      pop\n        /* \"Stack.sol\":10139:10160  UserInfo storage user */\n      0x00\n        /* \"Stack.sol\":10163:10171  userInfo */\n      0x02\n        /* \"Stack.sol\":10163:10177  userInfo[_pid] */\n      0x00\n        /* \"Stack.sol\":10172:10176  _pid */\n      dup6\n        /* \"Stack.sol\":10163:10177  userInfo[_pid] */\n      dup2\n      mstore\n      0x20\n      add\n      swap1\n      dup2\n      mstore\n      0x20\n      add\n      0x00\n      keccak256\n        /* \"Stack.sol\":10163:10189  userInfo[_pid][msg.sender] */\n      0x00\n        /* \"Stack.sol\":10178:10188  msg.sender */\n      caller\n        /* \"Stack.sol\":10163:10189  userInfo[_pid][msg.sender] */\n      0xffffffffffffffffffffffffffffffffffffffff\n      and\n      0xffffffffffffffffffffffffffffffffffffffff\n      and\n      dup2\n      mstore\n      0x20\n      add\n      swap1\n      dup2\n      mstore\n      0x20\n      add\n      0x00\n      keccak256\n        /* \"Stack.sol\":10139:10189  UserInfo storage user = userInfo[_pid][msg.sender] */\n      swap1\n      pop\n        /* \"Stack.sol\":10222:10223  0 */\n      0x00\n        /* \"Stack.sol\":10208:10212  user */\n      dup2\n        /* \"Stack.sol\":10208:10219  user.amount */\n      0x00\n      add\n      sload\n        /* \"Stack.sol\":10208:10223  user.amount > 0 */\n      gt\n        /* \"Stack.sol\":10204:11853  if (user.amount > 0){... */\n      iszero\n      tag_296\n      jumpi\n        /* \"Stack.sol\":10295:10310  block.timestamp */\n      timestamp\n        /* \"Stack.sol\":10256:10293  user.lockStartTime.add(pool.duration) */\n      tag_297\n        /* \"Stack.sol\":10279:10283  pool */\n      dup4\n        /* \"Stack.sol\":10279:10292  pool.duration */\n      0x00\n      add\n      sload\n        /* \"Stack.sol\":10256:10260  user */\n      dup4\n        /* \"Stack.sol\":10256:10274  user.lockStartTime */\n      0x02\n      add\n      sload\n        /* \"Stack.sol\":10256:10278  user.lockStartTime.add */\n      tag_136\n      swap1\n        /* \"Stack.sol\":10256:10293  user.lockStartTime.add(pool.duration) */\n      swap2\n      swap1\n      0xffffffff\n      and\n      jump\t// in\n    tag_297:\n        /* \"Stack.sol\":10256:10310  user.lockStartTime.add(pool.duration)> block.timestamp */\n      gt\n        /* \"Stack.sol\":10253:11431  if(user.lockStartTime.add(pool.duration)> block.timestamp){... */\n      iszero\n      tag_298\n      jumpi\n        /* \"Stack.sol\":10378:10393  uint256 pending */\n      0x00\n        /* \"Stack.sol\":10396:10428  calculateReward(_pid,msg.sender) */\n      tag_299\n        /* \"Stack.sol\":10412:10416  _pid */\n      dup6\n        /* \"Stack.sol\":10417:10427  msg.sender */\n      caller\n        /* \"Stack.sol\":10396:10411  calculateReward */\n      tag_90\n        /* \"Stack.sol\":10396:10428  calculateReward(_pid,msg.sender) */\n      jump\t// in\n    tag_299:\n        /* \"Stack.sol\":10378:10428  uint256 pending = calculateReward(_pid,msg.sender) */\n      swap1\n      pop\n        /* \"Stack.sol\":10460:10461  0 */\n      0x00\n        /* \"Stack.sol\":10450:10457  pending */\n      dup2\n        /* \"Stack.sol\":10450:10461  pending > 0 */\n      gt\n        /* \"Stack.sol\":10447:10552  if(pending > 0) {... */\n      iszero\n      tag_300\n      jumpi\n        /* \"Stack.sol\":10486:10532  IBEP20(para).safeTransfer(msg.sender, pending) */\n      tag_301\n        /* \"Stack.sol\":10512:10522  msg.sender */\n      caller\n        /* \"Stack.sol\":10524:10531  pending */\n      dup3\n        /* \"Stack.sol\":10493:10497  para */\n      0x03\n      0x00\n      swap1\n      sload\n      swap1\n      0x0100\n      exp\n      swap1\n      div\n      0xffffffffffffffffffffffffffffffffffffffff\n      and\n        /* \"Stack.sol\":10486:10511  IBEP20(para).safeTransfer */\n      0xffffffffffffffffffffffffffffffffffffffff\n      and\n      tag_141\n      swap1\n        /* \"Stack.sol\":10486:10532  IBEP20(para).safeTransfer(msg.sender, pending) */\n      swap3\n      swap2\n      swap1\n      0xffffffff\n      and\n      jump\t// in\n    tag_301:\n        /* \"Stack.sol\":10447:10552  if(pending > 0) {... */\n    tag_300:\n        /* \"Stack.sol\":10634:10708  IBEP20(para).safeTransferFrom(address(msg.sender), address(this), _amount) */\n      tag_302\n        /* \"Stack.sol\":10672:10682  msg.sender */\n      caller\n        /* \"Stack.sol\":10693:10697  this */\n      address\n        /* \"Stack.sol\":10700:10707  _amount */\n      dup7\n        /* \"Stack.sol\":10641:10645  para */\n      0x03\n      0x00\n      swap1\n      sload\n      swap1\n      0x0100\n      exp\n      swap1\n      div\n      0xffffffffffffffffffffffffffffffffffffffff\n      and\n        /* \"Stack.sol\":10634:10663  IBEP20(para).safeTransferFrom */\n      0xffffffffffffffffffffffffffffffffffffffff\n      and\n      tag_303\n      swap1\n        /* \"Stack.sol\":10634:10708  IBEP20(para).safeTransferFrom(address(msg.sender), address(this), _amount) */\n      swap4\n      swap3\n      swap2\n      swap1\n      0xffffffff\n      and\n      jump\t// in\n    tag_302:\n        /* \"Stack.sol\":10741:10765  user.amount.add(_amount) */\n      tag_304\n        /* \"Stack.sol\":10757:10764  _amount */\n      dup5\n        /* \"Stack.sol\":10741:10745  user */\n      dup4\n        /* \"Stack.sol\":10741:10752  user.amount */\n      0x00\n      add\n      sload\n        /* \"Stack.sol\":10741:10756  user.amount.add */\n      tag_136\n      swap1\n        /* \"Stack.sol\":10741:10765  user.amount.add(_amount) */\n      swap2\n      swap1\n      0xffffffff\n      and\n      jump\t// in\n    tag_304:\n        /* \"Stack.sol\":10727:10731  user */\n      dup3\n        /* \"Stack.sol\":10727:10738  user.amount */\n      0x00\n      add\n        /* \"Stack.sol\":10727:10765  user.amount = user.amount.add(_amount) */\n      dup2\n      swap1\n      sstore\n      pop\n        /* \"Stack.sol\":10819:10834  block.timestamp */\n      timestamp\n        /* \"Stack.sol\":10798:10802  user */\n      dup3\n        /* \"Stack.sol\":10798:10816  user.lockStartTime */\n      0x02\n      add\n        /* \"Stack.sol\":10798:10834  user.lockStartTime = block.timestamp */\n      dup2\n      swap1\n      sstore\n      pop\n        /* \"Stack.sol\":10886:10887  1 */\n      0x01\n        /* \"Stack.sol\":10867:10871  pool */\n      dup4\n        /* \"Stack.sol\":10867:10876  pool.aprs */\n      0x01\n      add\n        /* \"Stack.sol\":10867:10883  pool.aprs.length */\n      dup1\n      sload\n      swap1\n      pop\n        /* \"Stack.sol\":10867:10887  pool.aprs.length - 1 */\n      tag_305\n      swap2\n      swap1\n      tag_162\n      jump\t// in\n    tag_305:\n        /* \"Stack.sol\":10853:10857  user */\n      dup3\n        /* \"Stack.sol\":10853:10864  user.offset */\n      0x01\n      add\n        /* \"Stack.sol\":10853:10887  user.offset = pool.aprs.length - 1 */\n      dup2\n      swap1\n      sstore\n      pop\n        /* \"Stack.sol\":10933:10937  _pid */\n      dup5\n        /* \"Stack.sol\":10921:10931  msg.sender */\n      caller\n        /* \"Stack.sol\":10913:10947  Deposit(msg.sender, _pid, _amount) */\n      0xffffffffffffffffffffffffffffffffffffffff\n      and\n      0x90890809c654f11d6e72a28fa60149770a0d11ec6c92319d6ceb2bb0a4ea1a15\n        /* \"Stack.sol\":10939:10946  _amount */\n      dup7\n        /* \"Stack.sol\":10913:10947  Deposit(msg.sender, _pid, _amount) */\n      mload(0x40)\n      tag_306\n      swap2\n      swap1\n      tag_30\n      jump\t// in\n    tag_306:\n      mload(0x40)\n      dup1\n      swap2\n      sub\n      swap1\n      log3\n        /* \"Stack.sol\":10966:10973  return; */\n      pop\n      pop\n      pop\n      jump(tag_292)\n        /* \"Stack.sol\":10253:11431  if(user.lockStartTime.add(pool.duration)> block.timestamp){... */\n    tag_298:\n        /* \"Stack.sol\":11077:11151  IBEP20(para).safeTransferFrom(address(msg.sender), address(this), _amount) */\n      tag_308\n        /* \"Stack.sol\":11115:11125  msg.sender */\n      caller\n        /* \"Stack.sol\":11136:11140  this */\n      address\n        /* \"Stack.sol\":11143:11150  _amount */\n      dup6\n        /* \"Stack.sol\":11084:11088  para */\n      0x03\n      0x00\n      swap1\n      sload\n      swap1\n      0x0100\n      exp\n      swap1\n      div\n      0xffffffffffffffffffffffffffffffffffffffff\n      and\n        /* \"Stack.sol\":11077:11106  IBEP20(para).safeTransferFrom */\n      0xffffffffffffffffffffffffffffffffffffffff\n      and\n      tag_303\n      swap1\n        /* \"Stack.sol\":11077:11151  IBEP20(para).safeTransferFrom(address(msg.sender), address(this), _amount) */\n      swap4\n      swap3\n      swap2\n      swap1\n      0xffffffff\n      and\n      jump\t// in\n    tag_308:\n        /* \"Stack.sol\":11184:11208  user.amount.add(_amount) */\n      tag_309\n        /* \"Stack.sol\":11200:11207  _amount */\n      dup4\n        /* \"Stack.sol\":11184:11188  user */\n      dup3\n        /* \"Stack.sol\":11184:11195  user.amount */\n      0x00\n      add\n      sload\n        /* \"Stack.sol\":11184:11199  user.amount.add */\n      tag_136\n      swap1\n        /* \"Stack.sol\":11184:11208  user.amount.add(_amount) */\n      swap2\n      swap1\n      0xffffffff\n      and\n      jump\t// in\n    tag_309:\n        /* \"Stack.sol\":11170:11174  user */\n      dup2\n        /* \"Stack.sol\":11170:11181  user.amount */\n      0x00\n      add\n        /* \"Stack.sol\":11170:11208  user.amount = user.amount.add(_amount) */\n      dup2\n      swap1\n      sstore\n      pop\n        /* \"Stack.sol\":11262:11277  block.timestamp */\n      timestamp\n        /* \"Stack.sol\":11241:11245  user */\n      dup2\n        /* \"Stack.sol\":11241:11259  user.lockStartTime */\n      0x02\n      add\n        /* \"Stack.sol\":11241:11277  user.lockStartTime = block.timestamp */\n      dup2\n      swap1\n      sstore\n      pop\n        /* \"Stack.sol\":11329:11330  1 */\n      0x01\n        /* \"Stack.sol\":11310:11314  pool */\n      dup3\n        /* \"Stack.sol\":11310:11319  pool.aprs */\n      0x01\n      add\n        /* \"Stack.sol\":11310:11326  pool.aprs.length */\n      dup1\n      sload\n      swap1\n      pop\n        /* \"Stack.sol\":11310:11330  pool.aprs.length - 1 */\n      tag_310\n      swap2\n      swap1\n      tag_162\n      jump\t// in\n    tag_310:\n        /* \"Stack.sol\":11296:11300  user */\n      dup2\n        /* \"Stack.sol\":11296:11307  user.offset */\n      0x01\n      add\n        /* \"Stack.sol\":11296:11330  user.offset = pool.aprs.length - 1 */\n      dup2\n      swap1\n      sstore\n      pop\n        /* \"Stack.sol\":11376:11380  _pid */\n      dup4\n        /* \"Stack.sol\":11364:11374  msg.sender */\n      caller\n        /* \"Stack.sol\":11356:11390  Deposit(msg.sender, _pid, _amount) */\n      0xffffffffffffffffffffffffffffffffffffffff\n      and\n      0x90890809c654f11d6e72a28fa60149770a0d11ec6c92319d6ceb2bb0a4ea1a15\n        /* \"Stack.sol\":11382:11389  _amount */\n      dup6\n        /* \"Stack.sol\":11356:11390  Deposit(msg.sender, _pid, _amount) */\n      mload(0x40)\n      tag_311\n      swap2\n      swap1\n      tag_30\n      jump\t// in\n    tag_311:\n      mload(0x40)\n      dup1\n      swap2\n      sub\n      swap1\n      log3\n        /* \"Stack.sol\":11409:11416  return; */\n      pop\n      pop\n      jump(tag_292)\n        /* \"Stack.sol\":10204:11853  if (user.amount > 0){... */\n    tag_296:\n        /* \"Stack.sol\":11573:11588  block.timestamp */\n      timestamp\n        /* \"Stack.sol\":11552:11556  user */\n      dup2\n        /* \"Stack.sol\":11552:11570  user.lockStartTime */\n      0x02\n      add\n        /* \"Stack.sol\":11552:11588  user.lockStartTime = block.timestamp */\n      dup2\n      swap1\n      sstore\n      pop\n        /* \"Stack.sol\":11636:11637  1 */\n      0x01\n        /* \"Stack.sol\":11617:11621  pool */\n      dup3\n        /* \"Stack.sol\":11617:11626  pool.aprs */\n      0x01\n      add\n        /* \"Stack.sol\":11617:11633  pool.aprs.length */\n      dup1\n      sload\n      swap1\n      pop\n        /* \"Stack.sol\":11617:11637  pool.aprs.length - 1 */\n      tag_313\n      swap2\n      swap1\n      tag_162\n      jump\t// in\n    tag_313:\n        /* \"Stack.sol\":11603:11607  user */\n      dup2\n        /* \"Stack.sol\":11603:11614  user.offset */\n      0x01\n      add\n        /* \"Stack.sol\":11603:11637  user.offset = pool.aprs.length - 1 */\n      dup2\n      swap1\n      sstore\n      pop\n        /* \"Stack.sol\":11667:11674  _amount */\n      dup3\n        /* \"Stack.sol\":11653:11657  user */\n      dup2\n        /* \"Stack.sol\":11653:11664  user.amount */\n      0x00\n      add\n        /* \"Stack.sol\":11653:11674  user.amount = _amount */\n      dup2\n      swap1\n      sstore\n      pop\n        /* \"Stack.sol\":11690:11764  IBEP20(para).safeTransferFrom(address(msg.sender), address(this), _amount) */\n      tag_314\n        /* \"Stack.sol\":11728:11738  msg.sender */\n      caller\n        /* \"Stack.sol\":11749:11753  this */\n      address\n        /* \"Stack.sol\":11756:11763  _amount */\n      dup6\n        /* \"Stack.sol\":11697:11701  para */\n      0x03\n      0x00\n      swap1\n      sload\n      swap1\n      0x0100\n      exp\n      swap1\n      div\n      0xffffffffffffffffffffffffffffffffffffffff\n      and\n        /* \"Stack.sol\":11690:11719  IBEP20(para).safeTransferFrom */\n      0xffffffffffffffffffffffffffffffffffffffff\n      and\n      tag_303\n      swap1\n        /* \"Stack.sol\":11690:11764  IBEP20(para).safeTransferFrom(address(msg.sender), address(this), _amount) */\n      swap4\n      swap3\n      swap2\n      swap1\n      0xffffffff\n      and\n      jump\t// in\n    tag_314:\n        /* \"Stack.sol\":11804:11808  _pid */\n      dup4\n        /* \"Stack.sol\":11792:11802  msg.sender */\n      caller\n        /* \"Stack.sol\":11784:11818  Deposit(msg.sender, _pid, _amount) */\n      0xffffffffffffffffffffffffffffffffffffffff\n      and\n      0x90890809c654f11d6e72a28fa60149770a0d11ec6c92319d6ceb2bb0a4ea1a15\n        /* \"Stack.sol\":11810:11817  _amount */\n      dup6\n        /* \"Stack.sol\":11784:11818  Deposit(msg.sender, _pid, _amount) */\n      mload(0x40)\n      tag_315\n      swap2\n      swap1\n      tag_30\n      jump\t// in\n    tag_315:\n      mload(0x40)\n      dup1\n      swap2\n      sub\n      swap1\n      log3\n        /* \"Stack.sol\":11833:11841  return ; */\n      pop\n      pop\n        /* \"Stack.sol\":10023:11870  function deposit(uint256 _pid, uint256 _amount) public {... */\n    tag_292:\n      pop\n      pop\n      jump\t// out\n        /* \"Stack.sol\":672:724  uint256 public constant DENOMINATOR_TEST = 5 minutes */\n    tag_96:\n        /* \"Stack.sol\":715:724  5 minutes */\n      0x012c\n        /* \"Stack.sol\":672:724  uint256 public constant DENOMINATOR_TEST = 5 minutes */\n      dup2\n      jump\t// out\n        /* \"Stack.sol\":629:663  uint256 public constant BASE = 100 */\n    tag_99:\n        /* \"Stack.sol\":660:663  100 */\n      0x64\n        /* \"Stack.sol\":629:663  uint256 public constant BASE = 100 */\n      dup2\n      jump\t// out\n        /* \"@openzeppelin/contracts/access/Ownable.sol\":2081:2279  function transferOwnership(address newOwner) public virtual onlyOwner {... */\n    tag_104:\n        /* \"@openzeppelin/contracts/access/Ownable.sol\":1094:1107  _checkOwner() */\n      tag_317\n        /* \"@openzeppelin/contracts/access/Ownable.sol\":1094:1105  _checkOwner */\n      tag_109\n        /* \"@openzeppelin/contracts/access/Ownable.sol\":1094:1107  _checkOwner() */\n      jump\t// in\n    tag_317:\n        /* \"@openzeppelin/contracts/access/Ownable.sol\":2189:2190  0 */\n      0x00\n        /* \"@openzeppelin/contracts/access/Ownable.sol\":2169:2191  newOwner != address(0) */\n      0xffffffffffffffffffffffffffffffffffffffff\n      and\n        /* \"@openzeppelin/contracts/access/Ownable.sol\":2169:2177  newOwner */\n      dup2\n        /* \"@openzeppelin/contracts/access/Ownable.sol\":2169:2191  newOwner != address(0) */\n      0xffffffffffffffffffffffffffffffffffffffff\n      and\n      sub\n        /* \"@openzeppelin/contracts/access/Ownable.sol\":2161:2234  require(newOwner != address(0), \"Ownable: new owner is the zero address\") */\n      tag_319\n      jumpi\n      mload(0x40)\n      0x08c379a000000000000000000000000000000000000000000000000000000000\n      dup2\n      mstore\n      0x04\n      add\n      tag_320\n      swap1\n      tag_321\n      jump\t// in\n    tag_320:\n      mload(0x40)\n      dup1\n      swap2\n      sub\n      swap1\n      revert\n    tag_319:\n        /* \"@openzeppelin/contracts/access/Ownable.sol\":2244:2272  _transferOwnership(newOwner) */\n      tag_322\n        /* \"@openzeppelin/contracts/access/Ownable.sol\":2263:2271  newOwner */\n      dup2\n        /* \"@openzeppelin/contracts/access/Ownable.sol\":2244:2262  _transferOwnership */\n      tag_147\n        /* \"@openzeppelin/contracts/access/Ownable.sol\":2244:2272  _transferOwnership(newOwner) */\n      jump\t// in\n    tag_322:\n        /* \"@openzeppelin/contracts/access/Ownable.sol\":2081:2279  function transferOwnership(address newOwner) public virtual onlyOwner {... */\n      pop\n      jump\t// out\n        /* \"@openzeppelin/contracts/access/Ownable.sol\":1359:1489  function _checkOwner() internal view virtual {... */\n    tag_109:\n        /* \"@openzeppelin/contracts/access/Ownable.sol\":1433:1445  _msgSender() */\n      tag_324\n        /* \"@openzeppelin/contracts/access/Ownable.sol\":1433:1443  _msgSender */\n      tag_325\n        /* \"@openzeppelin/contracts/access/Ownable.sol\":1433:1445  _msgSender() */\n      jump\t// in\n    tag_324:\n        /* \"@openzeppelin/contracts/access/Ownable.sol\":1422:1445  owner() == _msgSender() */\n      0xffffffffffffffffffffffffffffffffffffffff\n      and\n        /* \"@openzeppelin/contracts/access/Ownable.sol\":1422:1429  owner() */\n      tag_326\n        /* \"@openzeppelin/contracts/access/Ownable.sol\":1422:1427  owner */\n      tag_68\n        /* \"@openzeppelin/contracts/access/Ownable.sol\":1422:1429  owner() */\n      jump\t// in\n    tag_326:\n        /* \"@openzeppelin/contracts/access/Ownable.sol\":1422:1445  owner() == _msgSender() */\n      0xffffffffffffffffffffffffffffffffffffffff\n      and\n      eq\n        /* \"@openzeppelin/contracts/access/Ownable.sol\":1414:1482  require(owner() == _msgSender(), \"Ownable: caller is not the owner\") */\n      tag_327\n      jumpi\n      mload(0x40)\n      0x08c379a000000000000000000000000000000000000000000000000000000000\n      dup2\n      mstore\n      0x04\n      add\n      tag_328\n      swap1\n      tag_329\n      jump\t// in\n    tag_328:\n      mload(0x40)\n      dup1\n      swap2\n      sub\n      swap1\n      revert\n    tag_327:\n        /* \"@openzeppelin/contracts/access/Ownable.sol\":1359:1489  function _checkOwner() internal view virtual {... */\n      jump\t// out\n        /* \"@openzeppelin/contracts/utils/math/SafeMath.sol\":2755:2851  function add(uint256 a, uint256 b) internal pure returns (uint256) {... */\n    tag_136:\n        /* \"@openzeppelin/contracts/utils/math/SafeMath.sol\":2813:2820  uint256 */\n      0x00\n        /* \"@openzeppelin/contracts/utils/math/SafeMath.sol\":2843:2844  b */\n      dup2\n        /* \"@openzeppelin/contracts/utils/math/SafeMath.sol\":2839:2840  a */\n      dup4\n        /* \"@openzeppelin/contracts/utils/math/SafeMath.sol\":2839:2844  a + b */\n      tag_331\n      swap2\n      swap1\n      tag_185\n      jump\t// in\n    tag_331:\n        /* \"@openzeppelin/contracts/utils/math/SafeMath.sol\":2832:2844  return a + b */\n      swap1\n      pop\n        /* \"@openzeppelin/contracts/utils/math/SafeMath.sol\":2755:2851  function add(uint256 a, uint256 b) internal pure returns (uint256) {... */\n      swap3\n      swap2\n      pop\n      pop\n      jump\t// out\n        /* \"libraries/SafeBEP20.sol\":771:982  function safeTransfer(... */\n    tag_141:\n        /* \"libraries/SafeBEP20.sol\":888:974  _callOptionalReturn(token, abi.encodeWithSelector(token.transfer.selector, to, value)) */\n      tag_333\n        /* \"libraries/SafeBEP20.sol\":908:913  token */\n      dup4\n        /* \"libraries/SafeBEP20.sol\":938:961  token.transfer.selector */\n      shl(0xe0, 0xa9059cbb)\n        /* \"libraries/SafeBEP20.sol\":963:965  to */\n      dup5\n        /* \"libraries/SafeBEP20.sol\":967:972  value */\n      dup5\n        /* \"libraries/SafeBEP20.sol\":915:973  abi.encodeWithSelector(token.transfer.selector, to, value) */\n      add(0x24, mload(0x40))\n      tag_334\n      swap3\n      swap2\n      swap1\n      tag_335\n      jump\t// in\n    tag_334:\n      mload(0x40)\n      0x20\n      dup2\n      dup4\n      sub\n      sub\n      dup2\n      mstore\n      swap1\n      0x40\n      mstore\n      swap1\n      not(0xffffffffffffffffffffffffffffffffffffffffffffffffffffffff)\n      and\n      0x20\n      dup3\n      add\n      dup1\n      mload\n      0xffffffffffffffffffffffffffffffffffffffffffffffffffffffff\n      dup4\n      dup2\n      dup4\n      and\n      or\n      dup4\n      mstore\n      pop\n      pop\n      pop\n      pop\n        /* \"libraries/SafeBEP20.sol\":888:907  _callOptionalReturn */\n      tag_336\n        /* \"libraries/SafeBEP20.sol\":888:974  _callOptionalReturn(token, abi.encodeWithSelector(token.transfer.selector, to, value)) */\n      jump\t// in\n    tag_333:\n        /* \"libraries/SafeBEP20.sol\":771:982  function safeTransfer(... */\n      pop\n      pop\n      pop\n      jump\t// out\n        /* \"@openzeppelin/contracts/access/Ownable.sol\":2433:2620  function _transferOwnership(address newOwner) internal virtual {... */\n    tag_147:\n        /* \"@openzeppelin/contracts/access/Ownable.sol\":2506:2522  address oldOwner */\n      0x00\n        /* \"@openzeppelin/contracts/access/Ownable.sol\":2525:2531  _owner */\n      dup1\n      0x00\n      swap1\n      sload\n      swap1\n      0x0100\n      exp\n      swap1\n      div\n      0xffffffffffffffffffffffffffffffffffffffff\n      and\n        /* \"@openzeppelin/contracts/access/Ownable.sol\":2506:2531  address oldOwner = _owner */\n      swap1\n      pop\n        /* \"@openzeppelin/contracts/access/Ownable.sol\":2550:2558  newOwner */\n      dup2\n        /* \"@openzeppelin/contracts/access/Ownable.sol\":2541:2547  _owner */\n      0x00\n      dup1\n        /* \"@openzeppelin/contracts/access/Ownable.sol\":2541:2558  _owner = newOwner */\n      0x0100\n      exp\n      dup2\n      sload\n      dup2\n      0xffffffffffffffffffffffffffffffffffffffff\n      mul\n      not\n      and\n      swap1\n      dup4\n      0xffffffffffffffffffffffffffffffffffffffff\n      and\n      mul\n      or\n      swap1\n      sstore\n      pop\n        /* \"@openzeppelin/contracts/access/Ownable.sol\":2604:2612  newOwner */\n      dup2\n        /* \"@openzeppelin/contracts/access/Ownable.sol\":2573:2613  OwnershipTransferred(oldOwner, newOwner) */\n      0xffffffffffffffffffffffffffffffffffffffff\n      and\n        /* \"@openzeppelin/contracts/access/Ownable.sol\":2594:2602  oldOwner */\n      dup2\n        /* \"@openzeppelin/contracts/access/Ownable.sol\":2573:2613  OwnershipTransferred(oldOwner, newOwner) */\n      0xffffffffffffffffffffffffffffffffffffffff\n      and\n      0x8be0079c531659141344cd1fd0a4f28419497f9722a3daafe3b4186f6b6457e0\n      mload(0x40)\n      mload(0x40)\n      dup1\n      swap2\n      sub\n      swap1\n      log3\n        /* \"@openzeppelin/contracts/access/Ownable.sol\":2496:2620  {... */\n      pop\n        /* \"@openzeppelin/contracts/access/Ownable.sol\":2433:2620  function _transferOwnership(address newOwner) internal virtual {... */\n      pop\n      jump\t// out\n        /* \"@openzeppelin/contracts/utils/math/SafeMath.sol\":3122:3218  function sub(uint256 a, uint256 b) internal pure returns (uint256) {... */\n    tag_156:\n        /* \"@openzeppelin/contracts/utils/math/SafeMath.sol\":3180:3187  uint256 */\n      0x00\n        /* \"@openzeppelin/contracts/utils/math/SafeMath.sol\":3210:3211  b */\n      dup2\n        /* \"@openzeppelin/contracts/utils/math/SafeMath.sol\":3206:3207  a */\n      dup4\n        /* \"@openzeppelin/contracts/utils/math/SafeMath.sol\":3206:3211  a - b */\n      tag_339\n      swap2\n      swap1\n      tag_162\n      jump\t// in\n    tag_339:\n        /* \"@openzeppelin/contracts/utils/math/SafeMath.sol\":3199:3211  return a - b */\n      swap1\n      pop\n        /* \"@openzeppelin/contracts/utils/math/SafeMath.sol\":3122:3218  function sub(uint256 a, uint256 b) internal pure returns (uint256) {... */\n      swap3\n      swap2\n      pop\n      pop\n      jump\t// out\n        /* \"@openzeppelin/contracts/utils/math/SafeMath.sol\":3465:3561  function mul(uint256 a, uint256 b) internal pure returns (uint256) {... */\n    tag_174:\n        /* \"@openzeppelin/contracts/utils/math/SafeMath.sol\":3523:3530  uint256 */\n      0x00\n        /* \"@openzeppelin/contracts/utils/math/SafeMath.sol\":3553:3554  b */\n      dup2\n        /* \"@openzeppelin/contracts/utils/math/SafeMath.sol\":3549:3550  a */\n      dup4\n        /* \"@openzeppelin/contracts/utils/math/SafeMath.sol\":3549:3554  a * b */\n      tag_341\n      swap2\n      swap1\n      tag_342\n      jump\t// in\n    tag_341:\n        /* \"@openzeppelin/contracts/utils/math/SafeMath.sol\":3542:3554  return a * b */\n      swap1\n      pop\n        /* \"@openzeppelin/contracts/utils/math/SafeMath.sol\":3465:3561  function mul(uint256 a, uint256 b) internal pure returns (uint256) {... */\n      swap3\n      swap2\n      pop\n      pop\n      jump\t// out\n        /* \"@openzeppelin/contracts/utils/math/SafeMath.sol\":3850:3946  function div(uint256 a, uint256 b) internal pure returns (uint256) {... */\n    tag_177:\n        /* \"@openzeppelin/contracts/utils/math/SafeMath.sol\":3908:3915  uint256 */\n      0x00\n        /* \"@openzeppelin/contracts/utils/math/SafeMath.sol\":3938:3939  b */\n      dup2\n        /* \"@openzeppelin/contracts/utils/math/SafeMath.sol\":3934:3935  a */\n      dup4\n        /* \"@openzeppelin/contracts/utils/math/SafeMath.sol\":3934:3939  a / b */\n      tag_344\n      swap2\n      swap1\n      tag_345\n      jump\t// in\n    tag_344:\n        /* \"@openzeppelin/contracts/utils/math/SafeMath.sol\":3927:3939  return a / b */\n      swap1\n      pop\n        /* \"@openzeppelin/contracts/utils/math/SafeMath.sol\":3850:3946  function div(uint256 a, uint256 b) internal pure returns (uint256) {... */\n      swap3\n      swap2\n      pop\n      pop\n      jump\t// out\n        /* \"libraries/SafeBEP20.sol\":990:1238  function safeTransferFrom(... */\n    tag_303:\n        /* \"libraries/SafeBEP20.sol\":1134:1230  _callOptionalReturn(token, abi.encodeWithSelector(token.transferFrom.selector, from, to, value)) */\n      tag_347\n        /* \"libraries/SafeBEP20.sol\":1154:1159  token */\n      dup5\n        /* \"libraries/SafeBEP20.sol\":1184:1211  token.transferFrom.selector */\n      shl(0xe0, 0x23b872dd)\n        /* \"libraries/SafeBEP20.sol\":1213:1217  from */\n      dup6\n        /* \"libraries/SafeBEP20.sol\":1219:1221  to */\n      dup6\n        /* \"libraries/SafeBEP20.sol\":1223:1228  value */\n      dup6\n        /* \"libraries/SafeBEP20.sol\":1161:1229  abi.encodeWithSelector(token.transferFrom.selector, from, to, value) */\n      add(0x24, mload(0x40))\n      tag_348\n      swap4\n      swap3\n      swap2\n      swap1\n      tag_349\n      jump\t// in\n    tag_348:\n      mload(0x40)\n      0x20\n      dup2\n      dup4\n      sub\n      sub\n      dup2\n      mstore\n      swap1\n      0x40\n      mstore\n      swap1\n      not(0xffffffffffffffffffffffffffffffffffffffffffffffffffffffff)\n      and\n      0x20\n      dup3\n      add\n      dup1\n      mload\n      0xffffffffffffffffffffffffffffffffffffffffffffffffffffffff\n      dup4\n      dup2\n      dup4\n      and\n      or\n      dup4\n      mstore\n      pop\n      pop\n      pop\n      pop\n        /* \"libraries/SafeBEP20.sol\":1134:1153  _callOptionalReturn */\n      tag_336\n        /* \"libraries/SafeBEP20.sol\":1134:1230  _callOptionalReturn(token, abi.encodeWithSelector(token.transferFrom.selector, from, to, value)) */\n      jump\t// in\n    tag_347:\n        /* \"libraries/SafeBEP20.sol\":990:1238  function safeTransferFrom(... */\n      pop\n      pop\n      pop\n      pop\n      jump\t// out\n        /* \"@openzeppelin/contracts/utils/Context.sol\":640:736  function _msgSender() internal view virtual returns (address) {... */\n    tag_325:\n        /* \"@openzeppelin/contracts/utils/Context.sol\":693:700  address */\n      0x00\n        /* \"@openzeppelin/contracts/utils/Context.sol\":719:729  msg.sender */\n      caller\n        /* \"@openzeppelin/contracts/utils/Context.sol\":712:729  return msg.sender */\n      swap1\n      pop\n        /* \"@openzeppelin/contracts/utils/Context.sol\":640:736  function _msgSender() internal view virtual returns (address) {... */\n      swap1\n      jump\t// out\n        /* \"libraries/SafeBEP20.sol\":3282:4056  function _callOptionalReturn(IBEP20 token, bytes memory data) private {... */\n    tag_336:\n        /* \"libraries/SafeBEP20.sol\":3706:3729  bytes memory returndata */\n      0x00\n        /* \"libraries/SafeBEP20.sol\":3732:3801  address(token).functionCall(data, \"SafeBEP20: low-level call failed\") */\n      tag_352\n        /* \"libraries/SafeBEP20.sol\":3760:3764  data */\n      dup3\n        /* \"libraries/SafeBEP20.sol\":3732:3801  address(token).functionCall(data, \"SafeBEP20: low-level call failed\") */\n      mload(0x40)\n      dup1\n      0x40\n      add\n      0x40\n      mstore\n      dup1\n      0x20\n      dup2\n      mstore\n      0x20\n      add\n      0x5361666542455032303a206c6f772d6c6576656c2063616c6c206661696c6564\n      dup2\n      mstore\n      pop\n        /* \"libraries/SafeBEP20.sol\":3740:3745  token */\n      dup6\n        /* \"libraries/SafeBEP20.sol\":3732:3759  address(token).functionCall */\n      0xffffffffffffffffffffffffffffffffffffffff\n      and\n      tag_353\n      swap1\n        /* \"libraries/SafeBEP20.sol\":3732:3801  address(token).functionCall(data, \"SafeBEP20: low-level call failed\") */\n      swap3\n      swap2\n      swap1\n      0xffffffff\n      and\n      jump\t// in\n    tag_352:\n        /* \"libraries/SafeBEP20.sol\":3706:3801  bytes memory returndata = address(token).functionCall(data, \"SafeBEP20: low-level call failed\") */\n      swap1\n      pop\n        /* \"libraries/SafeBEP20.sol\":3836:3837  0 */\n      0x00\n        /* \"libraries/SafeBEP20.sol\":3816:3826  returndata */\n      dup2\n        /* \"libraries/SafeBEP20.sol\":3816:3833  returndata.length */\n      mload\n        /* \"libraries/SafeBEP20.sol\":3816:3837  returndata.length > 0 */\n      gt\n        /* \"libraries/SafeBEP20.sol\":3812:4049  if (returndata.length > 0) {... */\n      iszero\n      tag_354\n      jumpi\n        /* \"libraries/SafeBEP20.sol\":3971:3981  returndata */\n      dup1\n        /* \"libraries/SafeBEP20.sol\":3960:3990  abi.decode(returndata, (bool)) */\n      dup1\n      0x20\n      add\n      swap1\n      mload\n      dup2\n      add\n      swap1\n      tag_355\n      swap2\n      swap1\n      tag_356\n      jump\t// in\n    tag_355:\n        /* \"libraries/SafeBEP20.sol\":3952:4037  require(abi.decode(returndata, (bool)), \"SafeBEP20: BEP20 operation did not succeed\") */\n      tag_357\n      jumpi\n      mload(0x40)\n      0x08c379a000000000000000000000000000000000000000000000000000000000\n      dup2\n      mstore\n      0x04\n      add\n      tag_358\n      swap1\n      tag_359\n      jump\t// in\n    tag_358:\n      mload(0x40)\n      dup1\n      swap2\n      sub\n      swap1\n      revert\n    tag_357:\n        /* \"libraries/SafeBEP20.sol\":3812:4049  if (returndata.length > 0) {... */\n    tag_354:\n        /* \"libraries/SafeBEP20.sol\":3352:4056  {... */\n      pop\n        /* \"libraries/SafeBEP20.sol\":3282:4056  function _callOptionalReturn(IBEP20 token, bytes memory data) private {... */\n      pop\n      pop\n      jump\t// out\n        /* \"@openzeppelin/contracts/utils/Address.sol\":3873:4096  function functionCall(... */\n    tag_353:\n        /* \"@openzeppelin/contracts/utils/Address.sol\":4006:4018  bytes memory */\n      0x60\n        /* \"@openzeppelin/contracts/utils/Address.sol\":4037:4089  functionCallWithValue(target, data, 0, errorMessage) */\n      tag_361\n        /* \"@openzeppelin/contracts/utils/Address.sol\":4059:4065  target */\n      dup5\n        /* \"@openzeppelin/contracts/utils/Address.sol\":4067:4071  data */\n      dup5\n        /* \"@openzeppelin/contracts/utils/Address.sol\":4073:4074  0 */\n      0x00\n        /* \"@openzeppelin/contracts/utils/Address.sol\":4076:4088  errorMessage */\n      dup6\n        /* \"@openzeppelin/contracts/utils/Address.sol\":4037:4058  functionCallWithValue */\n      tag_362\n        /* \"@openzeppelin/contracts/utils/Address.sol\":4037:4089  functionCallWithValue(target, data, 0, errorMessage) */\n      jump\t// in\n    tag_361:\n        /* \"@openzeppelin/contracts/utils/Address.sol\":4030:4089  return functionCallWithValue(target, data, 0, errorMessage) */\n      swap1\n      pop\n        /* \"@openzeppelin/contracts/utils/Address.sol\":3873:4096  function functionCall(... */\n      swap4\n      swap3\n      pop\n      pop\n      pop\n      jump\t// out\n        /* \"@openzeppelin/contracts/utils/Address.sol\":4960:5406  function functionCallWithValue(... */\n    tag_362:\n        /* \"@openzeppelin/contracts/utils/Address.sol\":5125:5137  bytes memory */\n      0x60\n        /* \"@openzeppelin/contracts/utils/Address.sol\":5182:5187  value */\n      dup3\n        /* \"@openzeppelin/contracts/utils/Address.sol\":5157:5178  address(this).balance */\n      selfbalance\n        /* \"@openzeppelin/contracts/utils/Address.sol\":5157:5187  address(this).balance >= value */\n      lt\n      iszero\n        /* \"@openzeppelin/contracts/utils/Address.sol\":5149:5230  require(address(this).balance >= value, \"Address: insufficient balance for call\") */\n      tag_364\n      jumpi\n      mload(0x40)\n      0x08c379a000000000000000000000000000000000000000000000000000000000\n      dup2\n      mstore\n      0x04\n      add\n      tag_365\n      swap1\n      tag_366\n      jump\t// in\n    tag_365:\n      mload(0x40)\n      dup1\n      swap2\n      sub\n      swap1\n      revert\n    tag_364:\n        /* \"@openzeppelin/contracts/utils/Address.sol\":5241:5253  bool success */\n      0x00\n        /* \"@openzeppelin/contracts/utils/Address.sol\":5255:5278  bytes memory returndata */\n      dup1\n        /* \"@openzeppelin/contracts/utils/Address.sol\":5282:5288  target */\n      dup7\n        /* \"@openzeppelin/contracts/utils/Address.sol\":5282:5293  target.call */\n      0xffffffffffffffffffffffffffffffffffffffff\n      and\n        /* \"@openzeppelin/contracts/utils/Address.sol\":5301:5306  value */\n      dup6\n        /* \"@openzeppelin/contracts/utils/Address.sol\":5308:5312  data */\n      dup8\n        /* \"@openzeppelin/contracts/utils/Address.sol\":5282:5313  target.call{value: value}(data) */\n      mload(0x40)\n      tag_367\n      swap2\n      swap1\n      tag_368\n      jump\t// in\n    tag_367:\n      0x00\n      mload(0x40)\n      dup1\n      dup4\n      sub\n      dup2\n      dup6\n      dup8\n      gas\n      call\n      swap3\n      pop\n      pop\n      pop\n      returndatasize\n      dup1\n      0x00\n      dup2\n      eq\n      tag_371\n      jumpi\n      mload(0x40)\n      swap2\n      pop\n      and(add(returndatasize, 0x3f), not(0x1f))\n      dup3\n      add\n      0x40\n      mstore\n      returndatasize\n      dup3\n      mstore\n      returndatasize\n      0x00\n      0x20\n      dup5\n      add\n      returndatacopy\n      jump(tag_370)\n    tag_371:\n      0x60\n      swap2\n      pop\n    tag_370:\n      pop\n        /* \"@openzeppelin/contracts/utils/Address.sol\":5240:5313  (bool success, bytes memory returndata) = target.call{value: value}(data) */\n      swap2\n      pop\n      swap2\n      pop\n        /* \"@openzeppelin/contracts/utils/Address.sol\":5330:5399  verifyCallResultFromTarget(target, success, returndata, errorMessage) */\n      tag_372\n        /* \"@openzeppelin/contracts/utils/Address.sol\":5357:5363  target */\n      dup8\n        /* \"@openzeppelin/contracts/utils/Address.sol\":5365:5372  success */\n      dup4\n        /* \"@openzeppelin/contracts/utils/Address.sol\":5374:5384  returndata */\n      dup4\n        /* \"@openzeppelin/contracts/utils/Address.sol\":5386:5398  errorMessage */\n      dup8\n        /* \"@openzeppelin/contracts/utils/Address.sol\":5330:5356  verifyCallResultFromTarget */\n      tag_373\n        /* \"@openzeppelin/contracts/utils/Address.sol\":5330:5399  verifyCallResultFromTarget(target, success, returndata, errorMessage) */\n      jump\t// in\n    tag_372:\n        /* \"@openzeppelin/contracts/utils/Address.sol\":5323:5399  return verifyCallResultFromTarget(target, success, returndata, errorMessage) */\n      swap3\n      pop\n      pop\n      pop\n        /* \"@openzeppelin/contracts/utils/Address.sol\":4960:5406  function functionCallWithValue(... */\n      swap5\n      swap4\n      pop\n      pop\n      pop\n      pop\n      jump\t// out\n        /* \"@openzeppelin/contracts/utils/Address.sol\":7466:8094  function verifyCallResultFromTarget(... */\n    tag_373:\n        /* \"@openzeppelin/contracts/utils/Address.sol\":7646:7658  bytes memory */\n      0x60\n        /* \"@openzeppelin/contracts/utils/Address.sol\":7674:7681  success */\n      dup4\n        /* \"@openzeppelin/contracts/utils/Address.sol\":7670:8088  if (success) {... */\n      iszero\n      tag_375\n      jumpi\n        /* \"@openzeppelin/contracts/utils/Address.sol\":7722:7723  0 */\n      0x00\n        /* \"@openzeppelin/contracts/utils/Address.sol\":7701:7711  returndata */\n      dup4\n        /* \"@openzeppelin/contracts/utils/Address.sol\":7701:7718  returndata.length */\n      mload\n        /* \"@openzeppelin/contracts/utils/Address.sol\":7701:7723  returndata.length == 0 */\n      sub\n        /* \"@openzeppelin/contracts/utils/Address.sol\":7697:7983  if (returndata.length == 0) {... */\n      tag_376\n      jumpi\n        /* \"@openzeppelin/contracts/utils/Address.sol\":7916:7934  isContract(target) */\n      tag_377\n        /* \"@openzeppelin/contracts/utils/Address.sol\":7927:7933  target */\n      dup6\n        /* \"@openzeppelin/contracts/utils/Address.sol\":7916:7926  isContract */\n      tag_378\n        /* \"@openzeppelin/contracts/utils/Address.sol\":7916:7934  isContract(target) */\n      jump\t// in\n    tag_377:\n        /* \"@openzeppelin/contracts/utils/Address.sol\":7908:7968  require(isContract(target), \"Address: call to non-contract\") */\n      tag_379\n      jumpi\n      mload(0x40)\n      0x08c379a000000000000000000000000000000000000000000000000000000000\n      dup2\n      mstore\n      0x04\n      add\n      tag_380\n      swap1\n      tag_381\n      jump\t// in\n    tag_380:\n      mload(0x40)\n      dup1\n      swap2\n      sub\n      swap1\n      revert\n    tag_379:\n        /* \"@openzeppelin/contracts/utils/Address.sol\":7697:7983  if (returndata.length == 0) {... */\n    tag_376:\n        /* \"@openzeppelin/contracts/utils/Address.sol\":8003:8013  returndata */\n      dup3\n        /* \"@openzeppelin/contracts/utils/Address.sol\":7996:8013  return returndata */\n      swap1\n      pop\n      jump(tag_374)\n        /* \"@openzeppelin/contracts/utils/Address.sol\":7670:8088  if (success) {... */\n    tag_375:\n        /* \"@openzeppelin/contracts/utils/Address.sol\":8044:8077  _revert(returndata, errorMessage) */\n      tag_383\n        /* \"@openzeppelin/contracts/utils/Address.sol\":8052:8062  returndata */\n      dup4\n        /* \"@openzeppelin/contracts/utils/Address.sol\":8064:8076  errorMessage */\n      dup4\n        /* \"@openzeppelin/contracts/utils/Address.sol\":8044:8051  _revert */\n      tag_384\n        /* \"@openzeppelin/contracts/utils/Address.sol\":8044:8077  _revert(returndata, errorMessage) */\n      jump\t// in\n    tag_383:\n        /* \"@openzeppelin/contracts/utils/Address.sol\":7466:8094  function verifyCallResultFromTarget(... */\n    tag_374:\n      swap5\n      swap4\n      pop\n      pop\n      pop\n      pop\n      jump\t// out\n        /* \"@openzeppelin/contracts/utils/Address.sol\":1175:1495  function isContract(address account) internal view returns (bool) {... */\n    tag_378:\n        /* \"@openzeppelin/contracts/utils/Address.sol\":1235:1239  bool */\n      0x00\n        /* \"@openzeppelin/contracts/utils/Address.sol\":1487:1488  0 */\n      dup1\n        /* \"@openzeppelin/contracts/utils/Address.sol\":1465:1472  account */\n      dup3\n        /* \"@openzeppelin/contracts/utils/Address.sol\":1465:1484  account.code.length */\n      0xffffffffffffffffffffffffffffffffffffffff\n      and\n      extcodesize\n        /* \"@openzeppelin/contracts/utils/Address.sol\":1465:1488  account.code.length > 0 */\n      gt\n        /* \"@openzeppelin/contracts/utils/Address.sol\":1458:1488  return account.code.length > 0 */\n      swap1\n      pop\n        /* \"@openzeppelin/contracts/utils/Address.sol\":1175:1495  function isContract(address account) internal view returns (bool) {... */\n      swap2\n      swap1\n      pop\n      jump\t// out\n        /* \"@openzeppelin/contracts/utils/Address.sol\":8616:9156  function _revert(bytes memory returndata, string memory errorMessage) private pure {... */\n    tag_384:\n        /* \"@openzeppelin/contracts/utils/Address.sol\":8795:8796  0 */\n      0x00\n        /* \"@openzeppelin/contracts/utils/Address.sol\":8775:8785  returndata */\n      dup3\n        /* \"@openzeppelin/contracts/utils/Address.sol\":8775:8792  returndata.length */\n      mload\n        /* \"@openzeppelin/contracts/utils/Address.sol\":8775:8796  returndata.length > 0 */\n      gt\n        /* \"@openzeppelin/contracts/utils/Address.sol\":8771:9150  if (returndata.length > 0) {... */\n      iszero\n      tag_387\n      jumpi\n        /* \"@openzeppelin/contracts/utils/Address.sol\":9003:9013  returndata */\n      dup2\n        /* \"@openzeppelin/contracts/utils/Address.sol\":8997:9014  mload(returndata) */\n      mload\n        /* \"@openzeppelin/contracts/utils/Address.sol\":9059:9074  returndata_size */\n      dup1\n        /* \"@openzeppelin/contracts/utils/Address.sol\":9046:9056  returndata */\n      dup4\n        /* \"@openzeppelin/contracts/utils/Address.sol\":9042:9044  32 */\n      0x20\n        /* \"@openzeppelin/contracts/utils/Address.sol\":9038:9057  add(32, returndata) */\n      add\n        /* \"@openzeppelin/contracts/utils/Address.sol\":9031:9075  revert(add(32, returndata), returndata_size) */\n      revert\n        /* \"@openzeppelin/contracts/utils/Address.sol\":8771:9150  if (returndata.length > 0) {... */\n    tag_387:\n        /* \"@openzeppelin/contracts/utils/Address.sol\":9126:9138  errorMessage */\n      dup1\n        /* \"@openzeppelin/contracts/utils/Address.sol\":9119:9139  revert(errorMessage) */\n      mload(0x40)\n      0x08c379a000000000000000000000000000000000000000000000000000000000\n      dup2\n      mstore\n      0x04\n      add\n      tag_389\n      swap2\n      swap1\n      tag_390\n      jump\t// in\n    tag_389:\n      mload(0x40)\n      dup1\n      swap2\n      sub\n      swap1\n      revert\n    tag_120:\n      mload(0x40)\n      dup1\n      0x40\n      add\n      0x40\n      mstore\n      dup1\n      0x00\n      dup2\n      mstore\n      0x20\n      add\n      0x60\n      dup2\n      mstore\n      pop\n      swap1\n      jump\t// out\n        /* \"#utility.yul\":7:84   */\n    tag_391:\n        /* \"#utility.yul\":44:51   */\n      0x00\n        /* \"#utility.yul\":73:78   */\n      dup2\n        /* \"#utility.yul\":62:78   */\n      swap1\n      pop\n        /* \"#utility.yul\":7:84   */\n      swap2\n      swap1\n      pop\n      jump\t// out\n        /* \"#utility.yul\":90:208   */\n    tag_392:\n        /* \"#utility.yul\":177:201   */\n      tag_450\n        /* \"#utility.yul\":195:200   */\n      dup2\n        /* \"#utility.yul\":177:201   */\n      tag_391\n      jump\t// in\n    tag_450:\n        /* \"#utility.yul\":172:175   */\n      dup3\n        /* \"#utility.yul\":165:202   */\n      mstore\n        /* \"#utility.yul\":90:208   */\n      pop\n      pop\n      jump\t// out\n        /* \"#utility.yul\":214:436   */\n    tag_30:\n        /* \"#utility.yul\":307:311   */\n      0x00\n        /* \"#utility.yul\":345:347   */\n      0x20\n        /* \"#utility.yul\":334:343   */\n      dup3\n        /* \"#utility.yul\":330:348   */\n      add\n        /* \"#utility.yul\":322:348   */\n      swap1\n      pop\n        /* \"#utility.yul\":358:429   */\n      tag_452\n        /* \"#utility.yul\":426:427   */\n      0x00\n        /* \"#utility.yul\":415:424   */\n      dup4\n        /* \"#utility.yul\":411:428   */\n      add\n        /* \"#utility.yul\":402:408   */\n      dup5\n        /* \"#utility.yul\":358:429   */\n      tag_392\n      jump\t// in\n    tag_452:\n        /* \"#utility.yul\":214:436   */\n      swap3\n      swap2\n      pop\n      pop\n      jump\t// out\n        /* \"#utility.yul\":523:640   */\n    tag_394:\n        /* \"#utility.yul\":632:633   */\n      0x00\n        /* \"#utility.yul\":629:630   */\n      dup1\n        /* \"#utility.yul\":622:634   */\n      revert\n        /* \"#utility.yul\":769:891   */\n    tag_396:\n        /* \"#utility.yul\":842:866   */\n      tag_457\n        /* \"#utility.yul\":860:865   */\n      dup2\n        /* \"#utility.yul\":842:866   */\n      tag_391\n      jump\t// in\n    tag_457:\n        /* \"#utility.yul\":835:840   */\n      dup2\n        /* \"#utility.yul\":832:867   */\n      eq\n        /* \"#utility.yul\":822:885   */\n      tag_458\n      jumpi\n        /* \"#utility.yul\":881:882   */\n      0x00\n        /* \"#utility.yul\":878:879   */\n      dup1\n        /* \"#utility.yul\":871:883   */\n      revert\n        /* \"#utility.yul\":822:885   */\n    tag_458:\n        /* \"#utility.yul\":769:891   */\n      pop\n      jump\t// out\n        /* \"#utility.yul\":897:1036   */\n    tag_397:\n        /* \"#utility.yul\":943:948   */\n      0x00\n        /* \"#utility.yul\":981:987   */\n      dup2\n        /* \"#utility.yul\":968:988   */\n      calldataload\n        /* \"#utility.yul\":959:988   */\n      swap1\n      pop\n        /* \"#utility.yul\":997:1030   */\n      tag_460\n        /* \"#utility.yul\":1024:1029   */\n      dup2\n        /* \"#utility.yul\":997:1030   */\n      tag_396\n      jump\t// in\n    tag_460:\n        /* \"#utility.yul\":897:1036   */\n      swap3\n      swap2\n      pop\n      pop\n      jump\t// out\n        /* \"#utility.yul\":1042:1516   */\n    tag_36:\n        /* \"#utility.yul\":1110:1116   */\n      0x00\n        /* \"#utility.yul\":1118:1124   */\n      dup1\n        /* \"#utility.yul\":1167:1169   */\n      0x40\n        /* \"#utility.yul\":1155:1164   */\n      dup4\n        /* \"#utility.yul\":1146:1153   */\n      dup6\n        /* \"#utility.yul\":1142:1165   */\n      sub\n        /* \"#utility.yul\":1138:1170   */\n      slt\n        /* \"#utility.yul\":1135:1254   */\n      iszero\n      tag_462\n      jumpi\n        /* \"#utility.yul\":1173:1252   */\n      tag_463\n      tag_394\n      jump\t// in\n    tag_463:\n        /* \"#utility.yul\":1135:1254   */\n    tag_462:\n        /* \"#utility.yul\":1293:1294   */\n      0x00\n        /* \"#utility.yul\":1318:1371   */\n      tag_464\n        /* \"#utility.yul\":1363:1370   */\n      dup6\n        /* \"#utility.yul\":1354:1360   */\n      dup3\n        /* \"#utility.yul\":1343:1352   */\n      dup7\n        /* \"#utility.yul\":1339:1361   */\n      add\n        /* \"#utility.yul\":1318:1371   */\n      tag_397\n      jump\t// in\n    tag_464:\n        /* \"#utility.yul\":1308:1371   */\n      swap3\n      pop\n        /* \"#utility.yul\":1264:1381   */\n      pop\n        /* \"#utility.yul\":1420:1422   */\n      0x20\n        /* \"#utility.yul\":1446:1499   */\n      tag_465\n        /* \"#utility.yul\":1491:1498   */\n      dup6\n        /* \"#utility.yul\":1482:1488   */\n      dup3\n        /* \"#utility.yul\":1471:1480   */\n      dup7\n        /* \"#utility.yul\":1467:1489   */\n      add\n        /* \"#utility.yul\":1446:1499   */\n      tag_397\n      jump\t// in\n    tag_465:\n        /* \"#utility.yul\":1436:1499   */\n      swap2\n      pop\n        /* \"#utility.yul\":1391:1509   */\n      pop\n        /* \"#utility.yul\":1042:1516   */\n      swap3\n      pop\n      swap3\n      swap1\n      pop\n      jump\t// out\n        /* \"#utility.yul\":1522:1648   */\n    tag_398:\n        /* \"#utility.yul\":1559:1566   */\n      0x00\n        /* \"#utility.yul\":1599:1641   */\n      0xffffffffffffffffffffffffffffffffffffffff\n        /* \"#utility.yul\":1592:1597   */\n      dup3\n        /* \"#utility.yul\":1588:1642   */\n      and\n        /* \"#utility.yul\":1577:1642   */\n      swap1\n      pop\n        /* \"#utility.yul\":1522:1648   */\n      swap2\n      swap1\n      pop\n      jump\t// out\n        /* \"#utility.yul\":1654:1750   */\n    tag_399:\n        /* \"#utility.yul\":1691:1698   */\n      0x00\n        /* \"#utility.yul\":1720:1744   */\n      tag_468\n        /* \"#utility.yul\":1738:1743   */\n      dup3\n        /* \"#utility.yul\":1720:1744   */\n      tag_398\n      jump\t// in\n    tag_468:\n        /* \"#utility.yul\":1709:1744   */\n      swap1\n      pop\n        /* \"#utility.yul\":1654:1750   */\n      swap2\n      swap1\n      pop\n      jump\t// out\n        /* \"#utility.yul\":1756:1874   */\n    tag_400:\n        /* \"#utility.yul\":1815:1822   */\n      0x00\n        /* \"#utility.yul\":1844:1868   */\n      tag_470\n        /* \"#utility.yul\":1862:1867   */\n      dup3\n        /* \"#utility.yul\":1844:1868   */\n      tag_399\n      jump\t// in\n    tag_470:\n        /* \"#utility.yul\":1833:1868   */\n      swap1\n      pop\n        /* \"#utility.yul\":1756:1874   */\n      swap2\n      swap1\n      pop\n      jump\t// out\n        /* \"#utility.yul\":1880:2046   */\n    tag_401:\n        /* \"#utility.yul\":1975:2021   */\n      tag_472\n        /* \"#utility.yul\":2015:2020   */\n      dup2\n        /* \"#utility.yul\":1975:2021   */\n      tag_400\n      jump\t// in\n    tag_472:\n        /* \"#utility.yul\":1968:1973   */\n      dup2\n        /* \"#utility.yul\":1965:2022   */\n      eq\n        /* \"#utility.yul\":1955:2040   */\n      tag_473\n      jumpi\n        /* \"#utility.yul\":2036:2037   */\n      0x00\n        /* \"#utility.yul\":2033:2034   */\n      dup1\n        /* \"#utility.yul\":2026:2038   */\n      revert\n        /* \"#utility.yul\":1955:2040   */\n    tag_473:\n        /* \"#utility.yul\":1880:2046   */\n      pop\n      jump\t// out\n        /* \"#utility.yul\":2052:2235   */\n    tag_402:\n        /* \"#utility.yul\":2120:2125   */\n      0x00\n        /* \"#utility.yul\":2158:2164   */\n      dup2\n        /* \"#utility.yul\":2145:2165   */\n      calldataload\n        /* \"#utility.yul\":2136:2165   */\n      swap1\n      pop\n        /* \"#utility.yul\":2174:2229   */\n      tag_475\n        /* \"#utility.yul\":2223:2228   */\n      dup2\n        /* \"#utility.yul\":2174:2229   */\n      tag_401\n      jump\t// in\n    tag_475:\n        /* \"#utility.yul\":2052:2235   */\n      swap3\n      swap2\n      pop\n      pop\n      jump\t// out\n        /* \"#utility.yul\":2241:2614   */\n    tag_40:\n        /* \"#utility.yul\":2322:2328   */\n      0x00\n        /* \"#utility.yul\":2371:2373   */\n      0x20\n        /* \"#utility.yul\":2359:2368   */\n      dup3\n        /* \"#utility.yul\":2350:2357   */\n      dup5\n        /* \"#utility.yul\":2346:2369   */\n      sub\n        /* \"#utility.yul\":2342:2374   */\n      slt\n        /* \"#utility.yul\":2339:2458   */\n      iszero\n      tag_477\n      jumpi\n        /* \"#utility.yul\":2377:2456   */\n      tag_478\n      tag_394\n      jump\t// in\n    tag_478:\n        /* \"#utility.yul\":2339:2458   */\n    tag_477:\n        /* \"#utility.yul\":2497:2498   */\n      0x00\n        /* \"#utility.yul\":2522:2597   */\n      tag_479\n        /* \"#utility.yul\":2589:2596   */\n      dup5\n        /* \"#utility.yul\":2580:2586   */\n      dup3\n        /* \"#utility.yul\":2569:2578   */\n      dup6\n        /* \"#utility.yul\":2565:2587   */\n      add\n        /* \"#utility.yul\":2522:2597   */\n      tag_402\n      jump\t// in\n    tag_479:\n        /* \"#utility.yul\":2512:2597   */\n      swap2\n      pop\n        /* \"#utility.yul\":2468:2607   */\n      pop\n        /* \"#utility.yul\":2241:2614   */\n      swap3\n      swap2\n      pop\n      pop\n      jump\t// out\n        /* \"#utility.yul\":2620:2949   */\n    tag_44:\n        /* \"#utility.yul\":2679:2685   */\n      0x00\n        /* \"#utility.yul\":2728:2730   */\n      0x20\n        /* \"#utility.yul\":2716:2725   */\n      dup3\n        /* \"#utility.yul\":2707:2714   */\n      dup5\n        /* \"#utility.yul\":2703:2726   */\n      sub\n        /* \"#utility.yul\":2699:2731   */\n      slt\n        /* \"#utility.yul\":2696:2815   */\n      iszero\n      tag_481\n      jumpi\n        /* \"#utility.yul\":2734:2813   */\n      tag_482\n      tag_394\n      jump\t// in\n    tag_482:\n        /* \"#utility.yul\":2696:2815   */\n    tag_481:\n        /* \"#utility.yul\":2854:2855   */\n      0x00\n        /* \"#utility.yul\":2879:2932   */\n      tag_483\n        /* \"#utility.yul\":2924:2931   */\n      dup5\n        /* \"#utility.yul\":2915:2921   */\n      dup3\n        /* \"#utility.yul\":2904:2913   */\n      dup6\n        /* \"#utility.yul\":2900:2922   */\n      add\n        /* \"#utility.yul\":2879:2932   */\n      tag_397\n      jump\t// in\n    tag_483:\n        /* \"#utility.yul\":2869:2932   */\n      swap2\n      pop\n        /* \"#utility.yul\":2825:2942   */\n      pop\n        /* \"#utility.yul\":2620:2949   */\n      swap3\n      swap2\n      pop\n      pop\n      jump\t// out\n        /* \"#utility.yul\":2955:3063   */\n    tag_403:\n        /* \"#utility.yul\":3032:3056   */\n      tag_485\n        /* \"#utility.yul\":3050:3055   */\n      dup2\n        /* \"#utility.yul\":3032:3056   */\n      tag_391\n      jump\t// in\n    tag_485:\n        /* \"#utility.yul\":3027:3030   */\n      dup3\n        /* \"#utility.yul\":3020:3057   */\n      mstore\n        /* \"#utility.yul\":2955:3063   */\n      pop\n      pop\n      jump\t// out\n        /* \"#utility.yul\":3069:3207   */\n    tag_404:\n        /* \"#utility.yul\":3160:3166   */\n      0x00\n        /* \"#utility.yul\":3194:3199   */\n      dup2\n        /* \"#utility.yul\":3188:3200   */\n      mload\n        /* \"#utility.yul\":3178:3200   */\n      swap1\n      pop\n        /* \"#utility.yul\":3069:3207   */\n      swap2\n      swap1\n      pop\n      jump\t// out\n        /* \"#utility.yul\":3213:3411   */\n    tag_405:\n        /* \"#utility.yul\":3326:3337   */\n      0x00\n        /* \"#utility.yul\":3360:3366   */\n      dup3\n        /* \"#utility.yul\":3355:3358   */\n      dup3\n        /* \"#utility.yul\":3348:3367   */\n      mstore\n        /* \"#utility.yul\":3400:3404   */\n      0x20\n        /* \"#utility.yul\":3395:3398   */\n      dup3\n        /* \"#utility.yul\":3391:3405   */\n      add\n        /* \"#utility.yul\":3376:3405   */\n      swap1\n      pop\n        /* \"#utility.yul\":3213:3411   */\n      swap3\n      swap2\n      pop\n      pop\n      jump\t// out\n        /* \"#utility.yul\":3417:3573   */\n    tag_406:\n        /* \"#utility.yul\":3508:3512   */\n      0x00\n        /* \"#utility.yul\":3531:3534   */\n      dup2\n        /* \"#utility.yul\":3523:3534   */\n      swap1\n      pop\n        /* \"#utility.yul\":3561:3565   */\n      0x20\n        /* \"#utility.yul\":3556:3559   */\n      dup3\n        /* \"#utility.yul\":3552:3566   */\n      add\n        /* \"#utility.yul\":3544:3566   */\n      swap1\n      pop\n        /* \"#utility.yul\":3417:3573   */\n      swap2\n      swap1\n      pop\n      jump\t// out\n        /* \"#utility.yul\":3637:4131   */\n    tag_407:\n        /* \"#utility.yul\":3772:3776   */\n      0x40\n        /* \"#utility.yul\":3767:3770   */\n      dup3\n        /* \"#utility.yul\":3763:3777   */\n      add\n        /* \"#utility.yul\":3858:3862   */\n      0x00\n        /* \"#utility.yul\":3851:3856   */\n      dup3\n        /* \"#utility.yul\":3847:3863   */\n      add\n        /* \"#utility.yul\":3841:3864   */\n      mload\n        /* \"#utility.yul\":3877:3940   */\n      tag_490\n        /* \"#utility.yul\":3934:3938   */\n      0x00\n        /* \"#utility.yul\":3929:3932   */\n      dup6\n        /* \"#utility.yul\":3925:3939   */\n      add\n        /* \"#utility.yul\":3911:3923   */\n      dup3\n        /* \"#utility.yul\":3877:3940   */\n      tag_403\n      jump\t// in\n    tag_490:\n        /* \"#utility.yul\":3787:3950   */\n      pop\n        /* \"#utility.yul\":4032:4036   */\n      0x20\n        /* \"#utility.yul\":4025:4030   */\n      dup3\n        /* \"#utility.yul\":4021:4037   */\n      add\n        /* \"#utility.yul\":4015:4038   */\n      mload\n        /* \"#utility.yul\":4051:4114   */\n      tag_491\n        /* \"#utility.yul\":4108:4112   */\n      0x20\n        /* \"#utility.yul\":4103:4106   */\n      dup6\n        /* \"#utility.yul\":4099:4113   */\n      add\n        /* \"#utility.yul\":4085:4097   */\n      dup3\n        /* \"#utility.yul\":4051:4114   */\n      tag_403\n      jump\t// in\n    tag_491:\n        /* \"#utility.yul\":3960:4124   */\n      pop\n        /* \"#utility.yul\":3741:4131   */\n      pop\n        /* \"#utility.yul\":3637:4131   */\n      pop\n      pop\n      jump\t// out\n        /* \"#utility.yul\":4137:4412   */\n    tag_408:\n        /* \"#utility.yul\":4254:4264   */\n      0x00\n        /* \"#utility.yul\":4275:4369   */\n      tag_493\n        /* \"#utility.yul\":4365:4368   */\n      dup4\n        /* \"#utility.yul\":4357:4363   */\n      dup4\n        /* \"#utility.yul\":4275:4369   */\n      tag_407\n      jump\t// in\n    tag_493:\n        /* \"#utility.yul\":4401:4405   */\n      0x40\n        /* \"#utility.yul\":4396:4399   */\n      dup4\n        /* \"#utility.yul\":4392:4406   */\n      add\n        /* \"#utility.yul\":4378:4406   */\n      swap1\n      pop\n        /* \"#utility.yul\":4137:4412   */\n      swap3\n      swap2\n      pop\n      pop\n      jump\t// out\n        /* \"#utility.yul\":4418:4555   */\n    tag_409:\n        /* \"#utility.yul\":4512:4516   */\n      0x00\n        /* \"#utility.yul\":4544:4548   */\n      0x20\n        /* \"#utility.yul\":4539:4542   */\n      dup3\n        /* \"#utility.yul\":4535:4549   */\n      add\n        /* \"#utility.yul\":4527:4549   */\n      swap1\n      pop\n        /* \"#utility.yul\":4418:4555   */\n      swap2\n      swap1\n      pop\n      jump\t// out\n        /* \"#utility.yul\":4623:5527   */\n    tag_410:\n        /* \"#utility.yul\":4780:4783   */\n      0x00\n        /* \"#utility.yul\":4809:4887   */\n      tag_496\n        /* \"#utility.yul\":4881:4886   */\n      dup3\n        /* \"#utility.yul\":4809:4887   */\n      tag_404\n      jump\t// in\n    tag_496:\n        /* \"#utility.yul\":4903:5003   */\n      tag_497\n        /* \"#utility.yul\":4996:5002   */\n      dup2\n        /* \"#utility.yul\":4991:4994   */\n      dup6\n        /* \"#utility.yul\":4903:5003   */\n      tag_405\n      jump\t// in\n    tag_497:\n        /* \"#utility.yul\":4896:5003   */\n      swap4\n      pop\n        /* \"#utility.yul\":5027:5107   */\n      tag_498\n        /* \"#utility.yul\":5101:5106   */\n      dup4\n        /* \"#utility.yul\":5027:5107   */\n      tag_406\n      jump\t// in\n    tag_498:\n        /* \"#utility.yul\":5130:5137   */\n      dup1\n        /* \"#utility.yul\":5161:5162   */\n      0x00\n        /* \"#utility.yul\":5146:5502   */\n    tag_499:\n        /* \"#utility.yul\":5171:5177   */\n      dup4\n        /* \"#utility.yul\":5168:5169   */\n      dup2\n        /* \"#utility.yul\":5165:5178   */\n      lt\n        /* \"#utility.yul\":5146:5502   */\n      iszero\n      tag_501\n      jumpi\n        /* \"#utility.yul\":5247:5253   */\n      dup2\n        /* \"#utility.yul\":5241:5254   */\n      mload\n        /* \"#utility.yul\":5274:5385   */\n      tag_502\n        /* \"#utility.yul\":5381:5384   */\n      dup9\n        /* \"#utility.yul\":5366:5379   */\n      dup3\n        /* \"#utility.yul\":5274:5385   */\n      tag_408\n      jump\t// in\n    tag_502:\n        /* \"#utility.yul\":5267:5385   */\n      swap8\n      pop\n        /* \"#utility.yul\":5408:5492   */\n      tag_503\n        /* \"#utility.yul\":5485:5491   */\n      dup4\n        /* \"#utility.yul\":5408:5492   */\n      tag_409\n      jump\t// in\n    tag_503:\n        /* \"#utility.yul\":5398:5492   */\n      swap3\n      pop\n        /* \"#utility.yul\":5206:5502   */\n      pop\n        /* \"#utility.yul\":5193:5194   */\n      0x01\n        /* \"#utility.yul\":5190:5191   */\n      dup2\n        /* \"#utility.yul\":5186:5195   */\n      add\n        /* \"#utility.yul\":5181:5195   */\n      swap1\n      pop\n        /* \"#utility.yul\":5146:5502   */\n      jump(tag_499)\n    tag_501:\n        /* \"#utility.yul\":5150:5164   */\n      pop\n        /* \"#utility.yul\":5518:5521   */\n      dup6\n        /* \"#utility.yul\":5511:5521   */\n      swap4\n      pop\n        /* \"#utility.yul\":4785:5527   */\n      pop\n      pop\n      pop\n        /* \"#utility.yul\":4623:5527   */\n      swap3\n      swap2\n      pop\n      pop\n      jump\t// out\n        /* \"#utility.yul\":5593:6281   */\n    tag_411:\n        /* \"#utility.yul\":5712:5715   */\n      0x00\n        /* \"#utility.yul\":5748:5752   */\n      0x40\n        /* \"#utility.yul\":5743:5746   */\n      dup4\n        /* \"#utility.yul\":5739:5753   */\n      add\n        /* \"#utility.yul\":5839:5843   */\n      0x00\n        /* \"#utility.yul\":5832:5837   */\n      dup4\n        /* \"#utility.yul\":5828:5844   */\n      add\n        /* \"#utility.yul\":5822:5845   */\n      mload\n        /* \"#utility.yul\":5858:5921   */\n      tag_505\n        /* \"#utility.yul\":5915:5919   */\n      0x00\n        /* \"#utility.yul\":5910:5913   */\n      dup7\n        /* \"#utility.yul\":5906:5920   */\n      add\n        /* \"#utility.yul\":5892:5904   */\n      dup3\n        /* \"#utility.yul\":5858:5921   */\n      tag_403\n      jump\t// in\n    tag_505:\n        /* \"#utility.yul\":5763:5931   */\n      pop\n        /* \"#utility.yul\":6013:6017   */\n      0x20\n        /* \"#utility.yul\":6006:6011   */\n      dup4\n        /* \"#utility.yul\":6002:6018   */\n      add\n        /* \"#utility.yul\":5996:6019   */\n      mload\n        /* \"#utility.yul\":6066:6069   */\n      dup5\n        /* \"#utility.yul\":6060:6064   */\n      dup3\n        /* \"#utility.yul\":6056:6070   */\n      sub\n        /* \"#utility.yul\":6049:6053   */\n      0x20\n        /* \"#utility.yul\":6044:6047   */\n      dup7\n        /* \"#utility.yul\":6040:6054   */\n      add\n        /* \"#utility.yul\":6033:6071   */\n      mstore\n        /* \"#utility.yul\":6092:6243   */\n      tag_506\n        /* \"#utility.yul\":6238:6242   */\n      dup3\n        /* \"#utility.yul\":6224:6236   */\n      dup3\n        /* \"#utility.yul\":6092:6243   */\n      tag_410\n      jump\t// in\n    tag_506:\n        /* \"#utility.yul\":6084:6243   */\n      swap2\n      pop\n        /* \"#utility.yul\":5941:6254   */\n      pop\n        /* \"#utility.yul\":6271:6275   */\n      dup1\n        /* \"#utility.yul\":6264:6275   */\n      swap2\n      pop\n        /* \"#utility.yul\":5717:6281   */\n      pop\n        /* \"#utility.yul\":5593:6281   */\n      swap3\n      swap2\n      pop\n      pop\n      jump\t// out\n        /* \"#utility.yul\":6287:6660   */\n    tag_47:\n        /* \"#utility.yul\":6430:6434   */\n      0x00\n        /* \"#utility.yul\":6468:6470   */\n      0x20\n        /* \"#utility.yul\":6457:6466   */\n      dup3\n        /* \"#utility.yul\":6453:6471   */\n      add\n        /* \"#utility.yul\":6445:6471   */\n      swap1\n      pop\n        /* \"#utility.yul\":6517:6526   */\n      dup2\n        /* \"#utility.yul\":6511:6515   */\n      dup2\n        /* \"#utility.yul\":6507:6527   */\n      sub\n        /* \"#utility.yul\":6503:6504   */\n      0x00\n        /* \"#utility.yul\":6492:6501   */\n      dup4\n        /* \"#utility.yul\":6488:6505   */\n      add\n        /* \"#utility.yul\":6481:6528   */\n      mstore\n        /* \"#utility.yul\":6545:6653   */\n      tag_508\n        /* \"#utility.yul\":6648:6652   */\n      dup2\n        /* \"#utility.yul\":6639:6645   */\n      dup5\n        /* \"#utility.yul\":6545:6653   */\n      tag_411\n      jump\t// in\n    tag_508:\n        /* \"#utility.yul\":6537:6653   */\n      swap1\n      pop\n        /* \"#utility.yul\":6287:6660   */\n      swap3\n      swap2\n      pop\n      pop\n      jump\t// out\n        /* \"#utility.yul\":6666:6726   */\n    tag_412:\n        /* \"#utility.yul\":6694:6697   */\n      0x00\n        /* \"#utility.yul\":6715:6720   */\n      dup2\n        /* \"#utility.yul\":6708:6720   */\n      swap1\n      pop\n        /* \"#utility.yul\":6666:6726   */\n      swap2\n      swap1\n      pop\n      jump\t// out\n        /* \"#utility.yul\":6732:6874   */\n    tag_413:\n        /* \"#utility.yul\":6782:6791   */\n      0x00\n        /* \"#utility.yul\":6815:6868   */\n      tag_511\n        /* \"#utility.yul\":6833:6867   */\n      tag_512\n        /* \"#utility.yul\":6842:6866   */\n      tag_513\n        /* \"#utility.yul\":6860:6865   */\n      dup5\n        /* \"#utility.yul\":6842:6866   */\n      tag_398\n      jump\t// in\n    tag_513:\n        /* \"#utility.yul\":6833:6867   */\n      tag_412\n      jump\t// in\n    tag_512:\n        /* \"#utility.yul\":6815:6868   */\n      tag_398\n      jump\t// in\n    tag_511:\n        /* \"#utility.yul\":6802:6868   */\n      swap1\n      pop\n        /* \"#utility.yul\":6732:6874   */\n      swap2\n      swap1\n      pop\n      jump\t// out\n        /* \"#utility.yul\":6880:7006   */\n    tag_414:\n        /* \"#utility.yul\":6930:6939   */\n      0x00\n        /* \"#utility.yul\":6963:7000   */\n      tag_515\n        /* \"#utility.yul\":6994:6999   */\n      dup3\n        /* \"#utility.yul\":6963:7000   */\n      tag_413\n      jump\t// in\n    tag_515:\n        /* \"#utility.yul\":6950:7000   */\n      swap1\n      pop\n        /* \"#utility.yul\":6880:7006   */\n      swap2\n      swap1\n      pop\n      jump\t// out\n        /* \"#utility.yul\":7012:7153   */\n    tag_415:\n        /* \"#utility.yul\":7077:7086   */\n      0x00\n        /* \"#utility.yul\":7110:7147   */\n      tag_517\n        /* \"#utility.yul\":7141:7146   */\n      dup3\n        /* \"#utility.yul\":7110:7147   */\n      tag_414\n      jump\t// in\n    tag_517:\n        /* \"#utility.yul\":7097:7147   */\n      swap1\n      pop\n        /* \"#utility.yul\":7012:7153   */\n      swap2\n      swap1\n      pop\n      jump\t// out\n        /* \"#utility.yul\":7159:7320   */\n    tag_416:\n        /* \"#utility.yul\":7261:7313   */\n      tag_519\n        /* \"#utility.yul\":7307:7312   */\n      dup2\n        /* \"#utility.yul\":7261:7313   */\n      tag_415\n      jump\t// in\n    tag_519:\n        /* \"#utility.yul\":7256:7259   */\n      dup3\n        /* \"#utility.yul\":7249:7314   */\n      mstore\n        /* \"#utility.yul\":7159:7320   */\n      pop\n      pop\n      jump\t// out\n        /* \"#utility.yul\":7326:7578   */\n    tag_51:\n        /* \"#utility.yul\":7434:7438   */\n      0x00\n        /* \"#utility.yul\":7472:7474   */\n      0x20\n        /* \"#utility.yul\":7461:7470   */\n      dup3\n        /* \"#utility.yul\":7457:7475   */\n      add\n        /* \"#utility.yul\":7449:7475   */\n      swap1\n      pop\n        /* \"#utility.yul\":7485:7571   */\n      tag_521\n        /* \"#utility.yul\":7568:7569   */\n      0x00\n        /* \"#utility.yul\":7557:7566   */\n      dup4\n        /* \"#utility.yul\":7553:7570   */\n      add\n        /* \"#utility.yul\":7544:7550   */\n      dup5\n        /* \"#utility.yul\":7485:7571   */\n      tag_416\n      jump\t// in\n    tag_521:\n        /* \"#utility.yul\":7326:7578   */\n      swap3\n      swap2\n      pop\n      pop\n      jump\t// out\n        /* \"#utility.yul\":7584:7732   */\n    tag_417:\n        /* \"#utility.yul\":7656:7665   */\n      0x00\n        /* \"#utility.yul\":7689:7726   */\n      tag_523\n        /* \"#utility.yul\":7720:7725   */\n      dup3\n        /* \"#utility.yul\":7689:7726   */\n      tag_414\n      jump\t// in\n    tag_523:\n        /* \"#utility.yul\":7676:7726   */\n      swap1\n      pop\n        /* \"#utility.yul\":7584:7732   */\n      swap2\n      swap1\n      pop\n      jump\t// out\n        /* \"#utility.yul\":7738:7913   */\n    tag_418:\n        /* \"#utility.yul\":7847:7906   */\n      tag_525\n        /* \"#utility.yul\":7900:7905   */\n      dup2\n        /* \"#utility.yul\":7847:7906   */\n      tag_417\n      jump\t// in\n    tag_525:\n        /* \"#utility.yul\":7842:7845   */\n      dup3\n        /* \"#utility.yul\":7835:7907   */\n      mstore\n        /* \"#utility.yul\":7738:7913   */\n      pop\n      pop\n      jump\t// out\n        /* \"#utility.yul\":7919:8185   */\n    tag_63:\n        /* \"#utility.yul\":8034:8038   */\n      0x00\n        /* \"#utility.yul\":8072:8074   */\n      0x20\n        /* \"#utility.yul\":8061:8070   */\n      dup3\n        /* \"#utility.yul\":8057:8075   */\n      add\n        /* \"#utility.yul\":8049:8075   */\n      swap1\n      pop\n        /* \"#utility.yul\":8085:8178   */\n      tag_527\n        /* \"#utility.yul\":8175:8176   */\n      0x00\n        /* \"#utility.yul\":8164:8173   */\n      dup4\n        /* \"#utility.yul\":8160:8177   */\n      add\n        /* \"#utility.yul\":8151:8157   */\n      dup5\n        /* \"#utility.yul\":8085:8178   */\n      tag_418\n      jump\t// in\n    tag_527:\n        /* \"#utility.yul\":7919:8185   */\n      swap3\n      swap2\n      pop\n      pop\n      jump\t// out\n        /* \"#utility.yul\":8191:8309   */\n    tag_419:\n        /* \"#utility.yul\":8278:8302   */\n      tag_529\n        /* \"#utility.yul\":8296:8301   */\n      dup2\n        /* \"#utility.yul\":8278:8302   */\n      tag_399\n      jump\t// in\n    tag_529:\n        /* \"#utility.yul\":8273:8276   */\n      dup3\n        /* \"#utility.yul\":8266:8303   */\n      mstore\n        /* \"#utility.yul\":8191:8309   */\n      pop\n      pop\n      jump\t// out\n        /* \"#utility.yul\":8315:8537   */\n    tag_70:\n        /* \"#utility.yul\":8408:8412   */\n      0x00\n        /* \"#utility.yul\":8446:8448   */\n      0x20\n        /* \"#utility.yul\":8435:8444   */\n      dup3\n        /* \"#utility.yul\":8431:8449   */\n      add\n        /* \"#utility.yul\":8423:8449   */\n      swap1\n      pop\n        /* \"#utility.yul\":8459:8530   */\n      tag_531\n        /* \"#utility.yul\":8527:8528   */\n      0x00\n        /* \"#utility.yul\":8516:8525   */\n      dup4\n        /* \"#utility.yul\":8512:8529   */\n      add\n        /* \"#utility.yul\":8503:8509   */\n      dup5\n        /* \"#utility.yul\":8459:8530   */\n      tag_419\n      jump\t// in\n    tag_531:\n        /* \"#utility.yul\":8315:8537   */\n      swap3\n      swap2\n      pop\n      pop\n      jump\t// out\n        /* \"#utility.yul\":8543:8665   */\n    tag_420:\n        /* \"#utility.yul\":8616:8640   */\n      tag_533\n        /* \"#utility.yul\":8634:8639   */\n      dup2\n        /* \"#utility.yul\":8616:8640   */\n      tag_399\n      jump\t// in\n    tag_533:\n        /* \"#utility.yul\":8609:8614   */\n      dup2\n        /* \"#utility.yul\":8606:8641   */\n      eq\n        /* \"#utility.yul\":8596:8659   */\n      tag_534\n      jumpi\n        /* \"#utility.yul\":8655:8656   */\n      0x00\n        /* \"#utility.yul\":8652:8653   */\n      dup1\n        /* \"#utility.yul\":8645:8657   */\n      revert\n        /* \"#utility.yul\":8596:8659   */\n    tag_534:\n        /* \"#utility.yul\":8543:8665   */\n      pop\n      jump\t// out\n        /* \"#utility.yul\":8671:8810   */\n    tag_421:\n        /* \"#utility.yul\":8717:8722   */\n      0x00\n        /* \"#utility.yul\":8755:8761   */\n      dup2\n        /* \"#utility.yul\":8742:8762   */\n      calldataload\n        /* \"#utility.yul\":8733:8762   */\n      swap1\n      pop\n        /* \"#utility.yul\":8771:8804   */\n      tag_536\n        /* \"#utility.yul\":8798:8803   */\n      dup2\n        /* \"#utility.yul\":8771:8804   */\n      tag_420\n      jump\t// in\n    tag_536:\n        /* \"#utility.yul\":8671:8810   */\n      swap3\n      swap2\n      pop\n      pop\n      jump\t// out\n        /* \"#utility.yul\":8816:9290   */\n    tag_80:\n        /* \"#utility.yul\":8884:8890   */\n      0x00\n        /* \"#utility.yul\":8892:8898   */\n      dup1\n        /* \"#utility.yul\":8941:8943   */\n      0x40\n        /* \"#utility.yul\":8929:8938   */\n      dup4\n        /* \"#utility.yul\":8920:8927   */\n      dup6\n        /* \"#utility.yul\":8916:8939   */\n      sub\n        /* \"#utility.yul\":8912:8944   */\n      slt\n        /* \"#utility.yul\":8909:9028   */\n      iszero\n      tag_538\n      jumpi\n        /* \"#utility.yul\":8947:9026   */\n      tag_539\n      tag_394\n      jump\t// in\n    tag_539:\n        /* \"#utility.yul\":8909:9028   */\n    tag_538:\n        /* \"#utility.yul\":9067:9068   */\n      0x00\n        /* \"#utility.yul\":9092:9145   */\n      tag_540\n        /* \"#utility.yul\":9137:9144   */\n      dup6\n        /* \"#utility.yul\":9128:9134   */\n      dup3\n        /* \"#utility.yul\":9117:9126   */\n      dup7\n        /* \"#utility.yul\":9113:9135   */\n      add\n        /* \"#utility.yul\":9092:9145   */\n      tag_397\n      jump\t// in\n    tag_540:\n        /* \"#utility.yul\":9082:9145   */\n      swap3\n      pop\n        /* \"#utility.yul\":9038:9155   */\n      pop\n        /* \"#utility.yul\":9194:9196   */\n      0x20\n        /* \"#utility.yul\":9220:9273   */\n      tag_541\n        /* \"#utility.yul\":9265:9272   */\n      dup6\n        /* \"#utility.yul\":9256:9262   */\n      dup3\n        /* \"#utility.yul\":9245:9254   */\n      dup7\n        /* \"#utility.yul\":9241:9263   */\n      add\n        /* \"#utility.yul\":9220:9273   */\n      tag_421\n      jump\t// in\n    tag_541:\n        /* \"#utility.yul\":9210:9273   */\n      swap2\n      pop\n        /* \"#utility.yul\":9165:9283   */\n      pop\n        /* \"#utility.yul\":8816:9290   */\n      swap3\n      pop\n      swap3\n      swap1\n      pop\n      jump\t// out\n        /* \"#utility.yul\":9296:9738   */\n    tag_83:\n        /* \"#utility.yul\":9445:9449   */\n      0x00\n        /* \"#utility.yul\":9483:9485   */\n      0x60\n        /* \"#utility.yul\":9472:9481   */\n      dup3\n        /* \"#utility.yul\":9468:9486   */\n      add\n        /* \"#utility.yul\":9460:9486   */\n      swap1\n      pop\n        /* \"#utility.yul\":9496:9567   */\n      tag_543\n        /* \"#utility.yul\":9564:9565   */\n      0x00\n        /* \"#utility.yul\":9553:9562   */\n      dup4\n        /* \"#utility.yul\":9549:9566   */\n      add\n        /* \"#utility.yul\":9540:9546   */\n      dup7\n        /* \"#utility.yul\":9496:9567   */\n      tag_392\n      jump\t// in\n    tag_543:\n        /* \"#utility.yul\":9577:9649   */\n      tag_544\n        /* \"#utility.yul\":9645:9647   */\n      0x20\n        /* \"#utility.yul\":9634:9643   */\n      dup4\n        /* \"#utility.yul\":9630:9648   */\n      add\n        /* \"#utility.yul\":9621:9627   */\n      dup6\n        /* \"#utility.yul\":9577:9649   */\n      tag_392\n      jump\t// in\n    tag_544:\n        /* \"#utility.yul\":9659:9731   */\n      tag_545\n        /* \"#utility.yul\":9727:9729   */\n      0x40\n        /* \"#utility.yul\":9716:9725   */\n      dup4\n        /* \"#utility.yul\":9712:9730   */\n      add\n        /* \"#utility.yul\":9703:9709   */\n      dup5\n        /* \"#utility.yul\":9659:9731   */\n      tag_392\n      jump\t// in\n    tag_545:\n        /* \"#utility.yul\":9296:9738   */\n      swap5\n      swap4\n      pop\n      pop\n      pop\n      pop\n      jump\t// out\n        /* \"#utility.yul\":9744:10073   */\n    tag_103:\n        /* \"#utility.yul\":9803:9809   */\n      0x00\n        /* \"#utility.yul\":9852:9854   */\n      0x20\n        /* \"#utility.yul\":9840:9849   */\n      dup3\n        /* \"#utility.yul\":9831:9838   */\n      dup5\n        /* \"#utility.yul\":9827:9850   */\n      sub\n        /* \"#utility.yul\":9823:9855   */\n      slt\n        /* \"#utility.yul\":9820:9939   */\n      iszero\n      tag_547\n      jumpi\n        /* \"#utility.yul\":9858:9937   */\n      tag_548\n      tag_394\n      jump\t// in\n    tag_548:\n        /* \"#utility.yul\":9820:9939   */\n    tag_547:\n        /* \"#utility.yul\":9978:9979   */\n      0x00\n        /* \"#utility.yul\":10003:10056   */\n      tag_549\n        /* \"#utility.yul\":10048:10055   */\n      dup5\n        /* \"#utility.yul\":10039:10045   */\n      dup3\n        /* \"#utility.yul\":10028:10037   */\n      dup6\n        /* \"#utility.yul\":10024:10046   */\n      add\n        /* \"#utility.yul\":10003:10056   */\n      tag_421\n      jump\t// in\n    tag_549:\n        /* \"#utility.yul\":9993:10056   */\n      swap2\n      pop\n        /* \"#utility.yul\":9949:10066   */\n      pop\n        /* \"#utility.yul\":9744:10073   */\n      swap3\n      swap2\n      pop\n      pop\n      jump\t// out\n        /* \"#utility.yul\":10079:10259   */\n    tag_113:\n        /* \"#utility.yul\":10127:10204   */\n      0x4e487b7100000000000000000000000000000000000000000000000000000000\n        /* \"#utility.yul\":10124:10125   */\n      0x00\n        /* \"#utility.yul\":10117:10205   */\n      mstore\n        /* \"#utility.yul\":10224:10228   */\n      0x32\n        /* \"#utility.yul\":10221:10222   */\n      0x04\n        /* \"#utility.yul\":10214:10229   */\n      mstore\n        /* \"#utility.yul\":10248:10252   */\n      0x24\n        /* \"#utility.yul\":10245:10246   */\n      0x00\n        /* \"#utility.yul\":10238:10253   */\n      revert\n        /* \"#utility.yul\":10265:10434   */\n    tag_422:\n        /* \"#utility.yul\":10349:10360   */\n      0x00\n        /* \"#utility.yul\":10383:10389   */\n      dup3\n        /* \"#utility.yul\":10378:10381   */\n      dup3\n        /* \"#utility.yul\":10371:10390   */\n      mstore\n        /* \"#utility.yul\":10423:10427   */\n      0x20\n        /* \"#utility.yul\":10418:10421   */\n      dup3\n        /* \"#utility.yul\":10414:10428   */\n      add\n        /* \"#utility.yul\":10399:10428   */\n      swap1\n      pop\n        /* \"#utility.yul\":10265:10434   */\n      swap3\n      swap2\n      pop\n      pop\n      jump\t// out\n        /* \"#utility.yul\":10440:10614   */\n    tag_423:\n        /* \"#utility.yul\":10580:10606   */\n      0x42464c593a2053554646494349454e545f42414c414e43450000000000000000\n        /* \"#utility.yul\":10576:10577   */\n      0x00\n        /* \"#utility.yul\":10568:10574   */\n      dup3\n        /* \"#utility.yul\":10564:10578   */\n      add\n        /* \"#utility.yul\":10557:10607   */\n      mstore\n        /* \"#utility.yul\":10440:10614   */\n      pop\n      jump\t// out\n        /* \"#utility.yul\":10620:10986   */\n    tag_424:\n        /* \"#utility.yul\":10762:10765   */\n      0x00\n        /* \"#utility.yul\":10783:10850   */\n      tag_554\n        /* \"#utility.yul\":10847:10849   */\n      0x18\n        /* \"#utility.yul\":10842:10845   */\n      dup4\n        /* \"#utility.yul\":10783:10850   */\n      tag_422\n      jump\t// in\n    tag_554:\n        /* \"#utility.yul\":10776:10850   */\n      swap2\n      pop\n        /* \"#utility.yul\":10859:10952   */\n      tag_555\n        /* \"#utility.yul\":10948:10951   */\n      dup3\n        /* \"#utility.yul\":10859:10952   */\n      tag_423\n      jump\t// in\n    tag_555:\n        /* \"#utility.yul\":10977:10979   */\n      0x20\n        /* \"#utility.yul\":10972:10975   */\n      dup3\n        /* \"#utility.yul\":10968:10980   */\n      add\n        /* \"#utility.yul\":10961:10980   */\n      swap1\n      pop\n        /* \"#utility.yul\":10620:10986   */\n      swap2\n      swap1\n      pop\n      jump\t// out\n        /* \"#utility.yul\":10992:11411   */\n    tag_134:\n        /* \"#utility.yul\":11158:11162   */\n      0x00\n        /* \"#utility.yul\":11196:11198   */\n      0x20\n        /* \"#utility.yul\":11185:11194   */\n      dup3\n        /* \"#utility.yul\":11181:11199   */\n      add\n        /* \"#utility.yul\":11173:11199   */\n      swap1\n      pop\n        /* \"#utility.yul\":11245:11254   */\n      dup2\n        /* \"#utility.yul\":11239:11243   */\n      dup2\n        /* \"#utility.yul\":11235:11255   */\n      sub\n        /* \"#utility.yul\":11231:11232   */\n      0x00\n        /* \"#utility.yul\":11220:11229   */\n      dup4\n        /* \"#utility.yul\":11216:11233   */\n      add\n        /* \"#utility.yul\":11209:11256   */\n      mstore\n        /* \"#utility.yul\":11273:11404   */\n      tag_557\n        /* \"#utility.yul\":11399:11403   */\n      dup2\n        /* \"#utility.yul\":11273:11404   */\n      tag_424\n      jump\t// in\n    tag_557:\n        /* \"#utility.yul\":11265:11404   */\n      swap1\n      pop\n        /* \"#utility.yul\":10992:11411   */\n      swap2\n      swap1\n      pop\n      jump\t// out\n        /* \"#utility.yul\":11417:11597   */\n    tag_425:\n        /* \"#utility.yul\":11465:11542   */\n      0x4e487b7100000000000000000000000000000000000000000000000000000000\n        /* \"#utility.yul\":11462:11463   */\n      0x00\n        /* \"#utility.yul\":11455:11543   */\n      mstore\n        /* \"#utility.yul\":11562:11566   */\n      0x11\n        /* \"#utility.yul\":11559:11560   */\n      0x04\n        /* \"#utility.yul\":11552:11567   */\n      mstore\n        /* \"#utility.yul\":11586:11590   */\n      0x24\n        /* \"#utility.yul\":11583:11584   */\n      0x00\n        /* \"#utility.yul\":11576:11591   */\n      revert\n        /* \"#utility.yul\":11603:11797   */\n    tag_162:\n        /* \"#utility.yul\":11643:11647   */\n      0x00\n        /* \"#utility.yul\":11663:11683   */\n      tag_560\n        /* \"#utility.yul\":11681:11682   */\n      dup3\n        /* \"#utility.yul\":11663:11683   */\n      tag_391\n      jump\t// in\n    tag_560:\n        /* \"#utility.yul\":11658:11683   */\n      swap2\n      pop\n        /* \"#utility.yul\":11697:11717   */\n      tag_561\n        /* \"#utility.yul\":11715:11716   */\n      dup4\n        /* \"#utility.yul\":11697:11717   */\n      tag_391\n      jump\t// in\n    tag_561:\n        /* \"#utility.yul\":11692:11717   */\n      swap3\n      pop\n        /* \"#utility.yul\":11741:11742   */\n      dup3\n        /* \"#utility.yul\":11738:11739   */\n      dup3\n        /* \"#utility.yul\":11734:11743   */\n      sub\n        /* \"#utility.yul\":11726:11743   */\n      swap1\n      pop\n        /* \"#utility.yul\":11765:11766   */\n      dup2\n        /* \"#utility.yul\":11759:11763   */\n      dup2\n        /* \"#utility.yul\":11756:11767   */\n      gt\n        /* \"#utility.yul\":11753:11790   */\n      iszero\n      tag_562\n      jumpi\n        /* \"#utility.yul\":11770:11788   */\n      tag_563\n      tag_425\n      jump\t// in\n    tag_563:\n        /* \"#utility.yul\":11753:11790   */\n    tag_562:\n        /* \"#utility.yul\":11603:11797   */\n      swap3\n      swap2\n      pop\n      pop\n      jump\t// out\n        /* \"#utility.yul\":11803:11994   */\n    tag_185:\n        /* \"#utility.yul\":11843:11846   */\n      0x00\n        /* \"#utility.yul\":11862:11882   */\n      tag_565\n        /* \"#utility.yul\":11880:11881   */\n      dup3\n        /* \"#utility.yul\":11862:11882   */\n      tag_391\n      jump\t// in\n    tag_565:\n        /* \"#utility.yul\":11857:11882   */\n      swap2\n      pop\n        /* \"#utility.yul\":11896:11916   */\n      tag_566\n        /* \"#utility.yul\":11914:11915   */\n      dup4\n        /* \"#utility.yul\":11896:11916   */\n      tag_391\n      jump\t// in\n    tag_566:\n        /* \"#utility.yul\":11891:11916   */\n      swap3\n      pop\n        /* \"#utility.yul\":11939:11940   */\n      dup3\n        /* \"#utility.yul\":11936:11937   */\n      dup3\n        /* \"#utility.yul\":11932:11941   */\n      add\n        /* \"#utility.yul\":11925:11941   */\n      swap1\n      pop\n        /* \"#utility.yul\":11960:11963   */\n      dup1\n        /* \"#utility.yul\":11957:11958   */\n      dup3\n        /* \"#utility.yul\":11954:11964   */\n      gt\n        /* \"#utility.yul\":11951:11987   */\n      iszero\n      tag_567\n      jumpi\n        /* \"#utility.yul\":11967:11985   */\n      tag_568\n      tag_425\n      jump\t// in\n    tag_568:\n        /* \"#utility.yul\":11951:11987   */\n    tag_567:\n        /* \"#utility.yul\":11803:11994   */\n      swap3\n      swap2\n      pop\n      pop\n      jump\t// out\n        /* \"#utility.yul\":12000:12233   */\n    tag_210:\n        /* \"#utility.yul\":12039:12042   */\n      0x00\n        /* \"#utility.yul\":12062:12086   */\n      tag_570\n        /* \"#utility.yul\":12080:12085   */\n      dup3\n        /* \"#utility.yul\":12062:12086   */\n      tag_391\n      jump\t// in\n    tag_570:\n        /* \"#utility.yul\":12053:12086   */\n      swap2\n      pop\n        /* \"#utility.yul\":12108:12174   */\n      0xffffffffffffffffffffffffffffffffffffffffffffffffffffffffffffffff\n        /* \"#utility.yul\":12101:12106   */\n      dup3\n        /* \"#utility.yul\":12098:12175   */\n      sub\n        /* \"#utility.yul\":12095:12198   */\n      tag_571\n      jumpi\n        /* \"#utility.yul\":12178:12196   */\n      tag_572\n      tag_425\n      jump\t// in\n    tag_572:\n        /* \"#utility.yul\":12095:12198   */\n    tag_571:\n        /* \"#utility.yul\":12225:12226   */\n      0x01\n        /* \"#utility.yul\":12218:12223   */\n      dup3\n        /* \"#utility.yul\":12214:12227   */\n      add\n        /* \"#utility.yul\":12207:12227   */\n      swap1\n      pop\n        /* \"#utility.yul\":12000:12233   */\n      swap2\n      swap1\n      pop\n      jump\t// out\n        /* \"#utility.yul\":12239:12464   */\n    tag_426:\n        /* \"#utility.yul\":12379:12413   */\n      0x4f776e61626c653a206e6577206f776e657220697320746865207a65726f2061\n        /* \"#utility.yul\":12375:12376   */\n      0x00\n        /* \"#utility.yul\":12367:12373   */\n      dup3\n        /* \"#utility.yul\":12363:12377   */\n      add\n        /* \"#utility.yul\":12356:12414   */\n      mstore\n        /* \"#utility.yul\":12448:12456   */\n      0x6464726573730000000000000000000000000000000000000000000000000000\n        /* \"#utility.yul\":12443:12445   */\n      0x20\n        /* \"#utility.yul\":12435:12441   */\n      dup3\n        /* \"#utility.yul\":12431:12446   */\n      add\n        /* \"#utility.yul\":12424:12457   */\n      mstore\n        /* \"#utility.yul\":12239:12464   */\n      pop\n      jump\t// out\n        /* \"#utility.yul\":12470:12836   */\n    tag_427:\n        /* \"#utility.yul\":12612:12615   */\n      0x00\n        /* \"#utility.yul\":12633:12700   */\n      tag_575\n        /* \"#utility.yul\":12697:12699   */\n      0x26\n        /* \"#utility.yul\":12692:12695   */\n      dup4\n        /* \"#utility.yul\":12633:12700   */\n      tag_422\n      jump\t// in\n    tag_575:\n        /* \"#utility.yul\":12626:12700   */\n      swap2\n      pop\n        /* \"#utility.yul\":12709:12802   */\n      tag_576\n        /* \"#utility.yul\":12798:12801   */\n      dup3\n        /* \"#utility.yul\":12709:12802   */\n      tag_426\n      jump\t// in\n    tag_576:\n        /* \"#utility.yul\":12827:12829   */\n      0x40\n        /* \"#utility.yul\":12822:12825   */\n      dup3\n        /* \"#utility.yul\":12818:12830   */\n      add\n        /* \"#utility.yul\":12811:12830   */\n      swap1\n      pop\n        /* \"#utility.yul\":12470:12836   */\n      swap2\n      swap1\n      pop\n      jump\t// out\n        /* \"#utility.yul\":12842:13261   */\n    tag_321:\n        /* \"#utility.yul\":13008:13012   */\n      0x00\n        /* \"#utility.yul\":13046:13048   */\n      0x20\n        /* \"#utility.yul\":13035:13044   */\n      dup3\n        /* \"#utility.yul\":13031:13049   */\n      add\n        /* \"#utility.yul\":13023:13049   */\n      swap1\n      pop\n        /* \"#utility.yul\":13095:13104   */\n      dup2\n        /* \"#utility.yul\":13089:13093   */\n      dup2\n        /* \"#utility.yul\":13085:13105   */\n      sub\n        /* \"#utility.yul\":13081:13082   */\n      0x00\n        /* \"#utility.yul\":13070:13079   */\n      dup4\n        /* \"#utility.yul\":13066:13083   */\n      add\n        /* \"#utility.yul\":13059:13106   */\n      mstore\n        /* \"#utility.yul\":13123:13254   */\n      tag_578\n        /* \"#utility.yul\":13249:13253   */\n      dup2\n        /* \"#utility.yul\":13123:13254   */\n      tag_427\n      jump\t// in\n    tag_578:\n        /* \"#utility.yul\":13115:13254   */\n      swap1\n      pop\n        /* \"#utility.yul\":12842:13261   */\n      swap2\n      swap1\n      pop\n      jump\t// out\n        /* \"#utility.yul\":13267:13449   */\n    tag_428:\n        /* \"#utility.yul\":13407:13441   */\n      0x4f776e61626c653a2063616c6c6572206973206e6f7420746865206f776e6572\n        /* \"#utility.yul\":13403:13404   */\n      0x00\n        /* \"#utility.yul\":13395:13401   */\n      dup3\n        /* \"#utility.yul\":13391:13405   */\n      add\n        /* \"#utility.yul\":13384:13442   */\n      mstore\n        /* \"#utility.yul\":13267:13449   */\n      pop\n      jump\t// out\n        /* \"#utility.yul\":13455:13821   */\n    tag_429:\n        /* \"#utility.yul\":13597:13600   */\n      0x00\n        /* \"#utility.yul\":13618:13685   */\n      tag_581\n        /* \"#utility.yul\":13682:13684   */\n      0x20\n        /* \"#utility.yul\":13677:13680   */\n      dup4\n        /* \"#utility.yul\":13618:13685   */\n      tag_422\n      jump\t// in\n    tag_581:\n        /* \"#utility.yul\":13611:13685   */\n      swap2\n      pop\n        /* \"#utility.yul\":13694:13787   */\n      tag_582\n        /* \"#utility.yul\":13783:13786   */\n      dup3\n        /* \"#utility.yul\":13694:13787   */\n      tag_428\n      jump\t// in\n    tag_582:\n        /* \"#utility.yul\":13812:13814   */\n      0x20\n        /* \"#utility.yul\":13807:13810   */\n      dup3\n        /* \"#utility.yul\":13803:13815   */\n      add\n        /* \"#utility.yul\":13796:13815   */\n      swap1\n      pop\n        /* \"#utility.yul\":13455:13821   */\n      swap2\n      swap1\n      pop\n      jump\t// out\n        /* \"#utility.yul\":13827:14246   */\n    tag_329:\n        /* \"#utility.yul\":13993:13997   */\n      0x00\n        /* \"#utility.yul\":14031:14033   */\n      0x20\n        /* \"#utility.yul\":14020:14029   */\n      dup3\n        /* \"#utility.yul\":14016:14034   */\n      add\n        /* \"#utility.yul\":14008:14034   */\n      swap1\n      pop\n        /* \"#utility.yul\":14080:14089   */\n      dup2\n        /* \"#utility.yul\":14074:14078   */\n      dup2\n        /* \"#utility.yul\":14070:14090   */\n      sub\n        /* \"#utility.yul\":14066:14067   */\n      0x00\n        /* \"#utility.yul\":14055:14064   */\n      dup4\n        /* \"#utility.yul\":14051:14068   */\n      add\n        /* \"#utility.yul\":14044:14091   */\n      mstore\n        /* \"#utility.yul\":14108:14239   */\n      tag_584\n        /* \"#utility.yul\":14234:14238   */\n      dup2\n        /* \"#utility.yul\":14108:14239   */\n      tag_429\n      jump\t// in\n    tag_584:\n        /* \"#utility.yul\":14100:14239   */\n      swap1\n      pop\n        /* \"#utility.yul\":13827:14246   */\n      swap2\n      swap1\n      pop\n      jump\t// out\n        /* \"#utility.yul\":14252:14584   */\n    tag_335:\n        /* \"#utility.yul\":14373:14377   */\n      0x00\n        /* \"#utility.yul\":14411:14413   */\n      0x40\n        /* \"#utility.yul\":14400:14409   */\n      dup3\n        /* \"#utility.yul\":14396:14414   */\n      add\n        /* \"#utility.yul\":14388:14414   */\n      swap1\n      pop\n        /* \"#utility.yul\":14424:14495   */\n      tag_586\n        /* \"#utility.yul\":14492:14493   */\n      0x00\n        /* \"#utility.yul\":14481:14490   */\n      dup4\n        /* \"#utility.yul\":14477:14494   */\n      add\n        /* \"#utility.yul\":14468:14474   */\n      dup6\n        /* \"#utility.yul\":14424:14495   */\n      tag_419\n      jump\t// in\n    tag_586:\n        /* \"#utility.yul\":14505:14577   */\n      tag_587\n        /* \"#utility.yul\":14573:14575   */\n      0x20\n        /* \"#utility.yul\":14562:14571   */\n      dup4\n        /* \"#utility.yul\":14558:14576   */\n      add\n        /* \"#utility.yul\":14549:14555   */\n      dup5\n        /* \"#utility.yul\":14505:14577   */\n      tag_392\n      jump\t// in\n    tag_587:\n        /* \"#utility.yul\":14252:14584   */\n      swap4\n      swap3\n      pop\n      pop\n      pop\n      jump\t// out\n        /* \"#utility.yul\":14590:15000   */\n    tag_342:\n        /* \"#utility.yul\":14630:14637   */\n      0x00\n        /* \"#utility.yul\":14653:14673   */\n      tag_589\n        /* \"#utility.yul\":14671:14672   */\n      dup3\n        /* \"#utility.yul\":14653:14673   */\n      tag_391\n      jump\t// in\n    tag_589:\n        /* \"#utility.yul\":14648:14673   */\n      swap2\n      pop\n        /* \"#utility.yul\":14687:14707   */\n      tag_590\n        /* \"#utility.yul\":14705:14706   */\n      dup4\n        /* \"#utility.yul\":14687:14707   */\n      tag_391\n      jump\t// in\n    tag_590:\n        /* \"#utility.yul\":14682:14707   */\n      swap3\n      pop\n        /* \"#utility.yul\":14742:14743   */\n      dup3\n        /* \"#utility.yul\":14739:14740   */\n      dup3\n        /* \"#utility.yul\":14735:14744   */\n      mul\n        /* \"#utility.yul\":14764:14794   */\n      tag_591\n        /* \"#utility.yul\":14782:14793   */\n      dup2\n        /* \"#utility.yul\":14764:14794   */\n      tag_391\n      jump\t// in\n    tag_591:\n        /* \"#utility.yul\":14753:14794   */\n      swap2\n      pop\n        /* \"#utility.yul\":14943:14944   */\n      dup3\n        /* \"#utility.yul\":14934:14941   */\n      dup3\n        /* \"#utility.yul\":14930:14945   */\n      div\n        /* \"#utility.yul\":14927:14928   */\n      dup5\n        /* \"#utility.yul\":14924:14946   */\n      eq\n        /* \"#utility.yul\":14904:14905   */\n      dup4\n        /* \"#utility.yul\":14897:14906   */\n      iszero\n        /* \"#utility.yul\":14877:14960   */\n      or\n        /* \"#utility.yul\":14854:14993   */\n      tag_592\n      jumpi\n        /* \"#utility.yul\":14973:14991   */\n      tag_593\n      tag_425\n      jump\t// in\n    tag_593:\n        /* \"#utility.yul\":14854:14993   */\n    tag_592:\n        /* \"#utility.yul\":14638:15000   */\n      pop\n        /* \"#utility.yul\":14590:15000   */\n      swap3\n      swap2\n      pop\n      pop\n      jump\t// out\n        /* \"#utility.yul\":15006:15186   */\n    tag_430:\n        /* \"#utility.yul\":15054:15131   */\n      0x4e487b7100000000000000000000000000000000000000000000000000000000\n        /* \"#utility.yul\":15051:15052   */\n      0x00\n        /* \"#utility.yul\":15044:15132   */\n      mstore\n        /* \"#utility.yul\":15151:15155   */\n      0x12\n        /* \"#utility.yul\":15148:15149   */\n      0x04\n        /* \"#utility.yul\":15141:15156   */\n      mstore\n        /* \"#utility.yul\":15175:15179   */\n      0x24\n        /* \"#utility.yul\":15172:15173   */\n      0x00\n        /* \"#utility.yul\":15165:15180   */\n      revert\n        /* \"#utility.yul\":15192:15377   */\n    tag_345:\n        /* \"#utility.yul\":15232:15233   */\n      0x00\n        /* \"#utility.yul\":15249:15269   */\n      tag_596\n        /* \"#utility.yul\":15267:15268   */\n      dup3\n        /* \"#utility.yul\":15249:15269   */\n      tag_391\n      jump\t// in\n    tag_596:\n        /* \"#utility.yul\":15244:15269   */\n      swap2\n      pop\n        /* \"#utility.yul\":15283:15303   */\n      tag_597\n        /* \"#utility.yul\":15301:15302   */\n      dup4\n        /* \"#utility.yul\":15283:15303   */\n      tag_391\n      jump\t// in\n    tag_597:\n        /* \"#utility.yul\":15278:15303   */\n      swap3\n      pop\n        /* \"#utility.yul\":15322:15323   */\n      dup3\n        /* \"#utility.yul\":15312:15347   */\n      tag_598\n      jumpi\n        /* \"#utility.yul\":15327:15345   */\n      tag_599\n      tag_430\n      jump\t// in\n    tag_599:\n        /* \"#utility.yul\":15312:15347   */\n    tag_598:\n        /* \"#utility.yul\":15369:15370   */\n      dup3\n        /* \"#utility.yul\":15366:15367   */\n      dup3\n        /* \"#utility.yul\":15362:15371   */\n      div\n        /* \"#utility.yul\":15357:15371   */\n      swap1\n      pop\n        /* \"#utility.yul\":15192:15377   */\n      swap3\n      swap2\n      pop\n      pop\n      jump\t// out\n        /* \"#utility.yul\":15383:15825   */\n    tag_349:\n        /* \"#utility.yul\":15532:15536   */\n      0x00\n        /* \"#utility.yul\":15570:15572   */\n      0x60\n        /* \"#utility.yul\":15559:15568   */\n      dup3\n        /* \"#utility.yul\":15555:15573   */\n      add\n        /* \"#utility.yul\":15547:15573   */\n      swap1\n      pop\n        /* \"#utility.yul\":15583:15654   */\n      tag_601\n        /* \"#utility.yul\":15651:15652   */\n      0x00\n        /* \"#utility.yul\":15640:15649   */\n      dup4\n        /* \"#utility.yul\":15636:15653   */\n      add\n        /* \"#utility.yul\":15627:15633   */\n      dup7\n        /* \"#utility.yul\":15583:15654   */\n      tag_419\n      jump\t// in\n    tag_601:\n        /* \"#utility.yul\":15664:15736   */\n      tag_602\n        /* \"#utility.yul\":15732:15734   */\n      0x20\n        /* \"#utility.yul\":15721:15730   */\n      dup4\n        /* \"#utility.yul\":15717:15735   */\n      add\n        /* \"#utility.yul\":15708:15714   */\n      dup6\n        /* \"#utility.yul\":15664:15736   */\n      tag_419\n      jump\t// in\n    tag_602:\n        /* \"#utility.yul\":15746:15818   */\n      tag_603\n        /* \"#utility.yul\":15814:15816   */\n      0x40\n        /* \"#utility.yul\":15803:15812   */\n      dup4\n        /* \"#utility.yul\":15799:15817   */\n      add\n        /* \"#utility.yul\":15790:15796   */\n      dup5\n        /* \"#utility.yul\":15746:15818   */\n      tag_392\n      jump\t// in\n    tag_603:\n        /* \"#utility.yul\":15383:15825   */\n      swap5\n      swap4\n      pop\n      pop\n      pop\n      pop\n      jump\t// out\n        /* \"#utility.yul\":15831:15921   */\n    tag_431:\n        /* \"#utility.yul\":15865:15872   */\n      0x00\n        /* \"#utility.yul\":15908:15913   */\n      dup2\n        /* \"#utility.yul\":15901:15914   */\n      iszero\n        /* \"#utility.yul\":15894:15915   */\n      iszero\n        /* \"#utility.yul\":15883:15915   */\n      swap1\n      pop\n        /* \"#utility.yul\":15831:15921   */\n      swap2\n      swap1\n      pop\n      jump\t// out\n        /* \"#utility.yul\":15927:16043   */\n    tag_432:\n        /* \"#utility.yul\":15997:16018   */\n      tag_606\n        /* \"#utility.yul\":16012:16017   */\n      dup2\n        /* \"#utility.yul\":15997:16018   */\n      tag_431\n      jump\t// in\n    tag_606:\n        /* \"#utility.yul\":15990:15995   */\n      dup2\n        /* \"#utility.yul\":15987:16019   */\n      eq\n        /* \"#utility.yul\":15977:16037   */\n      tag_607\n      jumpi\n        /* \"#utility.yul\":16033:16034   */\n      0x00\n        /* \"#utility.yul\":16030:16031   */\n      dup1\n        /* \"#utility.yul\":16023:16035   */\n      revert\n        /* \"#utility.yul\":15977:16037   */\n    tag_607:\n        /* \"#utility.yul\":15927:16043   */\n      pop\n      jump\t// out\n        /* \"#utility.yul\":16049:16186   */\n    tag_433:\n        /* \"#utility.yul\":16103:16108   */\n      0x00\n        /* \"#utility.yul\":16134:16140   */\n      dup2\n        /* \"#utility.yul\":16128:16141   */\n      mload\n        /* \"#utility.yul\":16119:16141   */\n      swap1\n      pop\n        /* \"#utility.yul\":16150:16180   */\n      tag_609\n        /* \"#utility.yul\":16174:16179   */\n      dup2\n        /* \"#utility.yul\":16150:16180   */\n      tag_432\n      jump\t// in\n    tag_609:\n        /* \"#utility.yul\":16049:16186   */\n      swap3\n      swap2\n      pop\n      pop\n      jump\t// out\n        /* \"#utility.yul\":16192:16537   */\n    tag_356:\n        /* \"#utility.yul\":16259:16265   */\n      0x00\n        /* \"#utility.yul\":16308:16310   */\n      0x20\n        /* \"#utility.yul\":16296:16305   */\n      dup3\n        /* \"#utility.yul\":16287:16294   */\n      dup5\n        /* \"#utility.yul\":16283:16306   */\n      sub\n        /* \"#utility.yul\":16279:16311   */\n      slt\n        /* \"#utility.yul\":16276:16395   */\n      iszero\n      tag_611\n      jumpi\n        /* \"#utility.yul\":16314:16393   */\n      tag_612\n      tag_394\n      jump\t// in\n    tag_612:\n        /* \"#utility.yul\":16276:16395   */\n    tag_611:\n        /* \"#utility.yul\":16434:16435   */\n      0x00\n        /* \"#utility.yul\":16459:16520   */\n      tag_613\n        /* \"#utility.yul\":16512:16519   */\n      dup5\n        /* \"#utility.yul\":16503:16509   */\n      dup3\n        /* \"#utility.yul\":16492:16501   */\n      dup6\n        /* \"#utility.yul\":16488:16510   */\n      add\n        /* \"#utility.yul\":16459:16520   */\n      tag_433\n      jump\t// in\n    tag_613:\n        /* \"#utility.yul\":16449:16520   */\n      swap2\n      pop\n        /* \"#utility.yul\":16405:16530   */\n      pop\n        /* \"#utility.yul\":16192:16537   */\n      swap3\n      swap2\n      pop\n      pop\n      jump\t// out\n        /* \"#utility.yul\":16543:16772   */\n    tag_434:\n        /* \"#utility.yul\":16683:16717   */\n      0x5361666542455032303a204245503230206f7065726174696f6e20646964206e\n        /* \"#utility.yul\":16679:16680   */\n      0x00\n        /* \"#utility.yul\":16671:16677   */\n      dup3\n        /* \"#utility.yul\":16667:16681   */\n      add\n        /* \"#utility.yul\":16660:16718   */\n      mstore\n        /* \"#utility.yul\":16752:16764   */\n      0x6f74207375636365656400000000000000000000000000000000000000000000\n        /* \"#utility.yul\":16747:16749   */\n      0x20\n        /* \"#utility.yul\":16739:16745   */\n      dup3\n        /* \"#utility.yul\":16735:16750   */\n      add\n        /* \"#utility.yul\":16728:16765   */\n      mstore\n        /* \"#utility.yul\":16543:16772   */\n      pop\n      jump\t// out\n        /* \"#utility.yul\":16778:17144   */\n    tag_435:\n        /* \"#utility.yul\":16920:16923   */\n      0x00\n        /* \"#utility.yul\":16941:17008   */\n      tag_616\n        /* \"#utility.yul\":17005:17007   */\n      0x2a\n        /* \"#utility.yul\":17000:17003   */\n      dup4\n        /* \"#utility.yul\":16941:17008   */\n      tag_422\n      jump\t// in\n    tag_616:\n        /* \"#utility.yul\":16934:17008   */\n      swap2\n      pop\n        /* \"#utility.yul\":17017:17110   */\n      tag_617\n        /* \"#utility.yul\":17106:17109   */\n      dup3\n        /* \"#utility.yul\":17017:17110   */\n      tag_434\n      jump\t// in\n    tag_617:\n        /* \"#utility.yul\":17135:17137   */\n      0x40\n        /* \"#utility.yul\":17130:17133   */\n      dup3\n        /* \"#utility.yul\":17126:17138   */\n      add\n        /* \"#utility.yul\":17119:17138   */\n      swap1\n      pop\n        /* \"#utility.yul\":16778:17144   */\n      swap2\n      swap1\n      pop\n      jump\t// out\n        /* \"#utility.yul\":17150:17569   */\n    tag_359:\n        /* \"#utility.yul\":17316:17320   */\n      0x00\n        /* \"#utility.yul\":17354:17356   */\n      0x20\n        /* \"#utility.yul\":17343:17352   */\n      dup3\n        /* \"#utility.yul\":17339:17357   */\n      add\n        /* \"#utility.yul\":17331:17357   */\n      swap1\n      pop\n        /* \"#utility.yul\":17403:17412   */\n      dup2\n        /* \"#utility.yul\":17397:17401   */\n      dup2\n        /* \"#utility.yul\":17393:17413   */\n      sub\n        /* \"#utility.yul\":17389:17390   */\n      0x00\n        /* \"#utility.yul\":17378:17387   */\n      dup4\n        /* \"#utility.yul\":17374:17391   */\n      add\n        /* \"#utility.yul\":17367:17414   */\n      mstore\n        /* \"#utility.yul\":17431:17562   */\n      tag_619\n        /* \"#utility.yul\":17557:17561   */\n      dup2\n        /* \"#utility.yul\":17431:17562   */\n      tag_435\n      jump\t// in\n    tag_619:\n        /* \"#utility.yul\":17423:17562   */\n      swap1\n      pop\n        /* \"#utility.yul\":17150:17569   */\n      swap2\n      swap1\n      pop\n      jump\t// out\n        /* \"#utility.yul\":17575:17800   */\n    tag_436:\n        /* \"#utility.yul\":17715:17749   */\n      0x416464726573733a20696e73756666696369656e742062616c616e636520666f\n        /* \"#utility.yul\":17711:17712   */\n      0x00\n        /* \"#utility.yul\":17703:17709   */\n      dup3\n        /* \"#utility.yul\":17699:17713   */\n      add\n        /* \"#utility.yul\":17692:17750   */\n      mstore\n        /* \"#utility.yul\":17784:17792   */\n      0x722063616c6c0000000000000000000000000000000000000000000000000000\n        /* \"#utility.yul\":17779:17781   */\n      0x20\n        /* \"#utility.yul\":17771:17777   */\n      dup3\n        /* \"#utility.yul\":17767:17782   */\n      add\n        /* \"#utility.yul\":17760:17793   */\n      mstore\n        /* \"#utility.yul\":17575:17800   */\n      pop\n      jump\t// out\n        /* \"#utility.yul\":17806:18172   */\n    tag_437:\n        /* \"#utility.yul\":17948:17951   */\n      0x00\n        /* \"#utility.yul\":17969:18036   */\n      tag_622\n        /* \"#utility.yul\":18033:18035   */\n      0x26\n        /* \"#utility.yul\":18028:18031   */\n      dup4\n        /* \"#utility.yul\":17969:18036   */\n      tag_422\n      jump\t// in\n    tag_622:\n        /* \"#utility.yul\":17962:18036   */\n      swap2\n      pop\n        /* \"#utility.yul\":18045:18138   */\n      tag_623\n        /* \"#utility.yul\":18134:18137   */\n      dup3\n        /* \"#utility.yul\":18045:18138   */\n      tag_436\n      jump\t// in\n    tag_623:\n        /* \"#utility.yul\":18163:18165   */\n      0x40\n        /* \"#utility.yul\":18158:18161   */\n      dup3\n        /* \"#utility.yul\":18154:18166   */\n      add\n        /* \"#utility.yul\":18147:18166   */\n      swap1\n      pop\n        /* \"#utility.yul\":17806:18172   */\n      swap2\n      swap1\n      pop\n      jump\t// out\n        /* \"#utility.yul\":18178:18597   */\n    tag_366:\n        /* \"#utility.yul\":18344:18348   */\n      0x00\n        /* \"#utility.yul\":18382:18384   */\n      0x20\n        /* \"#utility.yul\":18371:18380   */\n      dup3\n        /* \"#utility.yul\":18367:18385   */\n      add\n        /* \"#utility.yul\":18359:18385   */\n      swap1\n      pop\n        /* \"#utility.yul\":18431:18440   */\n      dup2\n        /* \"#utility.yul\":18425:18429   */\n      dup2\n        /* \"#utility.yul\":18421:18441   */\n      sub\n        /* \"#utility.yul\":18417:18418   */\n      0x00\n        /* \"#utility.yul\":18406:18415   */\n      dup4\n        /* \"#utility.yul\":18402:18419   */\n      add\n        /* \"#utility.yul\":18395:18442   */\n      mstore\n        /* \"#utility.yul\":18459:18590   */\n      tag_625\n        /* \"#utility.yul\":18585:18589   */\n      dup2\n        /* \"#utility.yul\":18459:18590   */\n      tag_437\n      jump\t// in\n    tag_625:\n        /* \"#utility.yul\":18451:18590   */\n      swap1\n      pop\n        /* \"#utility.yul\":18178:18597   */\n      swap2\n      swap1\n      pop\n      jump\t// out\n        /* \"#utility.yul\":18603:18701   */\n    tag_438:\n        /* \"#utility.yul\":18654:18660   */\n      0x00\n        /* \"#utility.yul\":18688:18693   */\n      dup2\n        /* \"#utility.yul\":18682:18694   */\n      mload\n        /* \"#utility.yul\":18672:18694   */\n      swap1\n      pop\n        /* \"#utility.yul\":18603:18701   */\n      swap2\n      swap1\n      pop\n      jump\t// out\n        /* \"#utility.yul\":18707:18854   */\n    tag_439:\n        /* \"#utility.yul\":18808:18819   */\n      0x00\n        /* \"#utility.yul\":18845:18848   */\n      dup2\n        /* \"#utility.yul\":18830:18848   */\n      swap1\n      pop\n        /* \"#utility.yul\":18707:18854   */\n      swap3\n      swap2\n      pop\n      pop\n      jump\t// out\n        /* \"#utility.yul\":18860:19106   */\n    tag_440:\n        /* \"#utility.yul\":18941:18942   */\n      0x00\n        /* \"#utility.yul\":18951:19064   */\n    tag_629:\n        /* \"#utility.yul\":18965:18971   */\n      dup4\n        /* \"#utility.yul\":18962:18963   */\n      dup2\n        /* \"#utility.yul\":18959:18972   */\n      lt\n        /* \"#utility.yul\":18951:19064   */\n      iszero\n      tag_631\n      jumpi\n        /* \"#utility.yul\":19050:19051   */\n      dup1\n        /* \"#utility.yul\":19045:19048   */\n      dup3\n        /* \"#utility.yul\":19041:19052   */\n      add\n        /* \"#utility.yul\":19035:19053   */\n      mload\n        /* \"#utility.yul\":19031:19032   */\n      dup2\n        /* \"#utility.yul\":19026:19029   */\n      dup5\n        /* \"#utility.yul\":19022:19033   */\n      add\n        /* \"#utility.yul\":19015:19054   */\n      mstore\n        /* \"#utility.yul\":18987:18989   */\n      0x20\n        /* \"#utility.yul\":18984:18985   */\n      dup2\n        /* \"#utility.yul\":18980:18990   */\n      add\n        /* \"#utility.yul\":18975:18990   */\n      swap1\n      pop\n        /* \"#utility.yul\":18951:19064   */\n      jump(tag_629)\n    tag_631:\n        /* \"#utility.yul\":19098:19099   */\n      0x00\n        /* \"#utility.yul\":19089:19095   */\n      dup5\n        /* \"#utility.yul\":19084:19087   */\n      dup5\n        /* \"#utility.yul\":19080:19096   */\n      add\n        /* \"#utility.yul\":19073:19100   */\n      mstore\n        /* \"#utility.yul\":18922:19106   */\n      pop\n        /* \"#utility.yul\":18860:19106   */\n      pop\n      pop\n      pop\n      jump\t// out\n        /* \"#utility.yul\":19112:19498   */\n    tag_441:\n        /* \"#utility.yul\":19216:19219   */\n      0x00\n        /* \"#utility.yul\":19244:19282   */\n      tag_633\n        /* \"#utility.yul\":19276:19281   */\n      dup3\n        /* \"#utility.yul\":19244:19282   */\n      tag_438\n      jump\t// in\n    tag_633:\n        /* \"#utility.yul\":19298:19386   */\n      tag_634\n        /* \"#utility.yul\":19379:19385   */\n      dup2\n        /* \"#utility.yul\":19374:19377   */\n      dup6\n        /* \"#utility.yul\":19298:19386   */\n      tag_439\n      jump\t// in\n    tag_634:\n        /* \"#utility.yul\":19291:19386   */\n      swap4\n      pop\n        /* \"#utility.yul\":19395:19460   */\n      tag_635\n        /* \"#utility.yul\":19453:19459   */\n      dup2\n        /* \"#utility.yul\":19448:19451   */\n      dup6\n        /* \"#utility.yul\":19441:19445   */\n      0x20\n        /* \"#utility.yul\":19434:19439   */\n      dup7\n        /* \"#utility.yul\":19430:19446   */\n      add\n        /* \"#utility.yul\":19395:19460   */\n      tag_440\n      jump\t// in\n    tag_635:\n        /* \"#utility.yul\":19485:19491   */\n      dup1\n        /* \"#utility.yul\":19480:19483   */\n      dup5\n        /* \"#utility.yul\":19476:19492   */\n      add\n        /* \"#utility.yul\":19469:19492   */\n      swap2\n      pop\n        /* \"#utility.yul\":19220:19498   */\n      pop\n        /* \"#utility.yul\":19112:19498   */\n      swap3\n      swap2\n      pop\n      pop\n      jump\t// out\n        /* \"#utility.yul\":19504:19775   */\n    tag_368:\n        /* \"#utility.yul\":19634:19637   */\n      0x00\n        /* \"#utility.yul\":19656:19749   */\n      tag_637\n        /* \"#utility.yul\":19745:19748   */\n      dup3\n        /* \"#utility.yul\":19736:19742   */\n      dup5\n        /* \"#utility.yul\":19656:19749   */\n      tag_441\n      jump\t// in\n    tag_637:\n        /* \"#utility.yul\":19649:19749   */\n      swap2\n      pop\n        /* \"#utility.yul\":19766:19769   */\n      dup2\n        /* \"#utility.yul\":19759:19769   */\n      swap1\n      pop\n        /* \"#utility.yul\":19504:19775   */\n      swap3\n      swap2\n      pop\n      pop\n      jump\t// out\n        /* \"#utility.yul\":19781:19960   */\n    tag_442:\n        /* \"#utility.yul\":19921:19952   */\n      0x416464726573733a2063616c6c20746f206e6f6e2d636f6e7472616374000000\n        /* \"#utility.yul\":19917:19918   */\n      0x00\n        /* \"#utility.yul\":19909:19915   */\n      dup3\n        /* \"#utility.yul\":19905:19919   */\n      add\n        /* \"#utility.yul\":19898:19953   */\n      mstore\n        /* \"#utility.yul\":19781:19960   */\n      pop\n      jump\t// out\n        /* \"#utility.yul\":19966:20332   */\n    tag_443:\n        /* \"#utility.yul\":20108:20111   */\n      0x00\n        /* \"#utility.yul\":20129:20196   */\n      tag_640\n        /* \"#utility.yul\":20193:20195   */\n      0x1d\n        /* \"#utility.yul\":20188:20191   */\n      dup4\n        /* \"#utility.yul\":20129:20196   */\n      tag_422\n      jump\t// in\n    tag_640:\n        /* \"#utility.yul\":20122:20196   */\n      swap2\n      pop\n        /* \"#utility.yul\":20205:20298   */\n      tag_641\n        /* \"#utility.yul\":20294:20297   */\n      dup3\n        /* \"#utility.yul\":20205:20298   */\n      tag_442\n      jump\t// in\n    tag_641:\n        /* \"#utility.yul\":20323:20325   */\n      0x20\n        /* \"#utility.yul\":20318:20321   */\n      dup3\n        /* \"#utility.yul\":20314:20326   */\n      add\n        /* \"#utility.yul\":20307:20326   */\n      swap1\n      pop\n        /* \"#utility.yul\":19966:20332   */\n      swap2\n      swap1\n      pop\n      jump\t// out\n        /* \"#utility.yul\":20338:20757   */\n    tag_381:\n        /* \"#utility.yul\":20504:20508   */\n      0x00\n        /* \"#utility.yul\":20542:20544   */\n      0x20\n        /* \"#utility.yul\":20531:20540   */\n      dup3\n        /* \"#utility.yul\":20527:20545   */\n      add\n        /* \"#utility.yul\":20519:20545   */\n      swap1\n      pop\n        /* \"#utility.yul\":20591:20600   */\n      dup2\n        /* \"#utility.yul\":20585:20589   */\n      dup2\n        /* \"#utility.yul\":20581:20601   */\n      sub\n        /* \"#utility.yul\":20577:20578   */\n      0x00\n        /* \"#utility.yul\":20566:20575   */\n      dup4\n        /* \"#utility.yul\":20562:20579   */\n      add\n        /* \"#utility.yul\":20555:20602   */\n      mstore\n        /* \"#utility.yul\":20619:20750   */\n      tag_643\n        /* \"#utility.yul\":20745:20749   */\n      dup2\n        /* \"#utility.yul\":20619:20750   */\n      tag_443\n      jump\t// in\n    tag_643:\n        /* \"#utility.yul\":20611:20750   */\n      swap1\n      pop\n        /* \"#utility.yul\":20338:20757   */\n      swap2\n      swap1\n      pop\n      jump\t// out\n        /* \"#utility.yul\":20763:20862   */\n    tag_444:\n        /* \"#utility.yul\":20815:20821   */\n      0x00\n        /* \"#utility.yul\":20849:20854   */\n      dup2\n        /* \"#utility.yul\":20843:20855   */\n      mload\n        /* \"#utility.yul\":20833:20855   */\n      swap1\n      pop\n        /* \"#utility.yul\":20763:20862   */\n      swap2\n      swap1\n      pop\n      jump\t// out\n        /* \"#utility.yul\":20868:20970   */\n    tag_445:\n        /* \"#utility.yul\":20909:20915   */\n      0x00\n        /* \"#utility.yul\":20960:20962   */\n      0x1f\n        /* \"#utility.yul\":20956:20963   */\n      not\n        /* \"#utility.yul\":20951:20953   */\n      0x1f\n        /* \"#utility.yul\":20944:20949   */\n      dup4\n        /* \"#utility.yul\":20940:20954   */\n      add\n        /* \"#utility.yul\":20936:20964   */\n      and\n        /* \"#utility.yul\":20926:20964   */\n      swap1\n      pop\n        /* \"#utility.yul\":20868:20970   */\n      swap2\n      swap1\n      pop\n      jump\t// out\n        /* \"#utility.yul\":20976:21353   */\n    tag_446:\n        /* \"#utility.yul\":21064:21067   */\n      0x00\n        /* \"#utility.yul\":21092:21131   */\n      tag_647\n        /* \"#utility.yul\":21125:21130   */\n      dup3\n        /* \"#utility.yul\":21092:21131   */\n      tag_444\n      jump\t// in\n    tag_647:\n        /* \"#utility.yul\":21147:21218   */\n      tag_648\n        /* \"#utility.yul\":21211:21217   */\n      dup2\n        /* \"#utility.yul\":21206:21209   */\n      dup6\n        /* \"#utility.yul\":21147:21218   */\n      tag_422\n      jump\t// in\n    tag_648:\n        /* \"#utility.yul\":21140:21218   */\n      swap4\n      pop\n        /* \"#utility.yul\":21227:21292   */\n      tag_649\n        /* \"#utility.yul\":21285:21291   */\n      dup2\n        /* \"#utility.yul\":21280:21283   */\n      dup6\n        /* \"#utility.yul\":21273:21277   */\n      0x20\n        /* \"#utility.yul\":21266:21271   */\n      dup7\n        /* \"#utility.yul\":21262:21278   */\n      add\n        /* \"#utility.yul\":21227:21292   */\n      tag_440\n      jump\t// in\n    tag_649:\n        /* \"#utility.yul\":21317:21346   */\n      tag_650\n        /* \"#utility.yul\":21339:21345   */\n      dup2\n        /* \"#utility.yul\":21317:21346   */\n      tag_445\n      jump\t// in\n    tag_650:\n        /* \"#utility.yul\":21312:21315   */\n      dup5\n        /* \"#utility.yul\":21308:21347   */\n      add\n        /* \"#utility.yul\":21301:21347   */\n      swap2\n      pop\n        /* \"#utility.yul\":21068:21353   */\n      pop\n        /* \"#utility.yul\":20976:21353   */\n      swap3\n      swap2\n      pop\n      pop\n      jump\t// out\n        /* \"#utility.yul\":21359:21672   */\n    tag_390:\n        /* \"#utility.yul\":21472:21476   */\n      0x00\n        /* \"#utility.yul\":21510:21512   */\n      0x20\n        /* \"#utility.yul\":21499:21508   */\n      dup3\n        /* \"#utility.yul\":21495:21513   */\n      add\n        /* \"#utility.yul\":21487:21513   */\n      swap1\n      pop\n        /* \"#utility.yul\":21559:21568   */\n      dup2\n        /* \"#utility.yul\":21553:21557   */\n      dup2\n        /* \"#utility.yul\":21549:21569   */\n      sub\n        /* \"#utility.yul\":21545:21546   */\n      0x00\n        /* \"#utility.yul\":21534:21543   */\n      dup4\n        /* \"#utility.yul\":21530:21547   */\n      add\n        /* \"#utility.yul\":21523:21570   */\n      mstore\n        /* \"#utility.yul\":21587:21665   */\n      tag_652\n        /* \"#utility.yul\":21660:21664   */\n      dup2\n        /* \"#utility.yul\":21651:21657   */\n      dup5\n        /* \"#utility.yul\":21587:21665   */\n      tag_446\n      jump\t// in\n    tag_652:\n        /* \"#utility.yul\":21579:21665   */\n      swap1\n      pop\n        /* \"#utility.yul\":21359:21672   */\n      swap3\n      swap2\n      pop\n      pop\n      jump\t// out\n\n    auxdata: 0xa26469706673582212201019a6fc57bf444c1fc6a3c0fda26e5d5fcb01d37e54f8f916221bbedcc40bbc64736f6c63430008110033\n}\n",
				"bytecode": {
					"linkReferences": {},
					"object": "608060405260016004553480156200001657600080fd5b50604051620028b6380380620028b683398181016040528101906200003c919062000287565b6200005c62000050620000b460201b60201c565b620000bc60201b60201c565b80600360006101000a81548173ffffffffffffffffffffffffffffffffffffffff021916908373ffffffffffffffffffffffffffffffffffffffff160217905550620000ad6200018060201b60201c565b50620002b9565b600033905090565b60008060009054906101000a900473ffffffffffffffffffffffffffffffffffffffff169050816000806101000a81548173ffffffffffffffffffffffffffffffffffffffff021916908373ffffffffffffffffffffffffffffffffffffffff1602179055508173ffffffffffffffffffffffffffffffffffffffff168173ffffffffffffffffffffffffffffffffffffffff167f8be0079c531659141344cd1fd0a4f28419497f9722a3daafe3b4186f6b6457e060405160405180910390a35050565b600060018081600181540180825580915050039060005260206000209060020201905080600101604051806040016040528060148152602001428152509080600181540180825580915050600190039060005260206000209060020201600090919091909150600082015181600001556020820151816001015550506005816000018190555050565b600080fd5b600073ffffffffffffffffffffffffffffffffffffffff82169050919050565b60006200023b826200020e565b9050919050565b60006200024f826200022e565b9050919050565b620002618162000242565b81146200026d57600080fd5b50565b600081519050620002818162000256565b92915050565b600060208284031215620002a0576200029f62000209565b5b6000620002b08482850162000270565b91505092915050565b6125ed80620002c96000396000f3fe608060405234801561001057600080fd5b50600436106101375760003560e01c80638aa28550116100b857806398969e821161007c57806398969e821461031a578063a18f07a01461034a578063e2bbb1581461037a578063e3d0b2bf14610396578063ec342ad0146103b4578063f2fde38b146103d257610137565b80638aa285501461025e5780638da5cb5b1461027c5780638dbb1e3a1461029a578063918f8674146102ca57806393f1a40b146102e857610137565b80633e3cca90116100ff5780633e3cca90146101e0578063441a3e70146101fe578063715018a61461021a578063771602f7146102245780637cd07e471461024057610137565b8063081e3eda1461013c57806314d20dc21461015a5780631ab06ee51461017857806323cf3118146101945780632f380b35146101b0575b600080fd5b6101446103ee565b6040516101519190611ae6565b60405180910390f35b6101626103fb565b60405161016f9190611ae6565b60405180910390f35b610192600480360381019061018d9190611b32565b610404565b005b6101ae60048036038101906101a99190611be2565b61048f565b005b6101ca60048036038101906101c59190611c0f565b6104db565b6040516101d79190611d66565b60405180910390f35b6101e8610594565b6040516101f59190611de7565b60405180910390f35b61021860048036038101906102139190611b32565b6105ba565b005b610222610765565b005b61023e60048036038101906102399190611b32565b610779565b005b61024861080a565b6040516102559190611e23565b60405180910390f35b610266610830565b6040516102739190611ae6565b60405180910390f35b610284610836565b6040516102919190611e4d565b60405180910390f35b6102b460048036038101906102af9190611b32565b61085f565b6040516102c19190611ae6565b60405180910390f35b6102d261087c565b6040516102df9190611ae6565b60405180910390f35b61030260048036038101906102fd9190611e94565b610884565b60405161031193929190611ed4565b60405180910390f35b610334600480360381019061032f9190611e94565b6108bb565b6040516103419190611ae6565b60405180910390f35b610364600480360381019061035f9190611e94565b610c99565b6040516103719190611ae6565b60405180910390f35b610394600480360381019061038f9190611b32565b61112c565b005b61039e6114e0565b6040516103ab9190611ae6565b60405180910390f35b6103bc6114e6565b6040516103c99190611ae6565b60405180910390f35b6103ec60048036038101906103e79190611f0b565b6114eb565b005b6000600180549050905090565b6000603c905090565b61040c61156e565b60006001838154811061042257610421611f38565b5b9060005260206000209060020201905080600101604051806040016040528084815260200142815250908060018154018082558091505060019003906000526020600020906002020160009091909190915060008201518160000155602082015181600101555050505050565b61049761156e565b80600560006101000a81548173ffffffffffffffffffffffffffffffffffffffff021916908373ffffffffffffffffffffffffffffffffffffffff16021790555050565b6104e3611ab3565b600182815481106104f7576104f6611f38565b5b90600052602060002090600202016040518060400160405290816000820154815260200160018201805480602002602001604051908101604052809291908181526020016000905b828210156105855783829060005260206000209060020201604051806040016040529081600082015481526020016001820154815250508152602001906001019061053f565b50505050815250509050919050565b600360009054906101000a900473ffffffffffffffffffffffffffffffffffffffff1681565b6000600183815481106105d0576105cf611f38565b5b9060005260206000209060020201905060006002600085815260200190815260200160002060003373ffffffffffffffffffffffffffffffffffffffff1673ffffffffffffffffffffffffffffffffffffffff1681526020019081526020016000209050828160000154101561067b576040517f08c379a000000000000000000000000000000000000000000000000000000000815260040161067290611fc4565b60405180910390fd5b42610697836000015483600201546115ec90919063ffffffff16565b11156107045760006106a98533610c99565b90506000811115610702576107013382600360009054906101000a900473ffffffffffffffffffffffffffffffffffffffff1673ffffffffffffffffffffffffffffffffffffffff166116029092919063ffffffff16565b5b505b610755338260000154600360009054906101000a900473ffffffffffffffffffffffffffffffffffffffff1673ffffffffffffffffffffffffffffffffffffffff166116029092919063ffffffff16565b6000816000018190555050505050565b61076d61156e565b6107776000611688565b565b61078161156e565b600060018081600181540180825580915050039060005260206000209060020201905080600101604051806040016040528085815260200142815250908060018154018082558091505060019003906000526020600020906002020160009091909190915060008201518160000155602082015181600101555050818160000181905550505050565b600560009054906101000a900473ffffffffffffffffffffffffffffffffffffffff1681565b60045481565b60008060009054906101000a900473ffffffffffffffffffffffffffffffffffffffff16905090565b6000610874838361174c90919063ffffffff16565b905092915050565b6301e1338081565b6002602052816000526040600020602052806000526040600020600091509150508060000154908060010154908060020154905083565b600080600184815481106108d2576108d1611f38565b5b9060005260206000209060020201905060006002600086815260200190815260200160002060008573ffffffffffffffffffffffffffffffffffffffff1673ffffffffffffffffffffffffffffffffffffffff168152602001908152602001600020905060008260010180549050905060008083600201548560010160018561095b9190612013565b8154811061096c5761096b611f38565b5b9060005260206000209060020201600101541015610a265761099284600201544261085f565b91506109f084600001546109e2876001016001876109b09190612013565b815481106109c1576109c0611f38565b5b9060005260206000209060020201600001548561176290919063ffffffff16565b61176290919063ffffffff16565b9550610a1a6064610a0c61012c8961177890919063ffffffff16565b61177890919063ffffffff16565b95505050505050610c93565b6000846001015490505b600184610a3d9190612013565b811015610bdd5781610ae757610a8a856002015487600101600184610a629190612047565b81548110610a7357610a72611f38565b5b90600052602060002090600202016001015461085f565b9250610adc8560000154610ace886001018481548110610aad57610aac611f38565b5b9060005260206000209060020201600001548661176290919063ffffffff16565b61176290919063ffffffff16565b965060019150610bca565b6000610b4d876001018381548110610b0257610b01611f38565b5b90600052602060002090600202016001015488600101600185610b259190612047565b81548110610b3657610b35611f38565b5b90600052602060002090600202016001015461085f565b9050610bb1610ba28760000154610b948a6001018681548110610b7357610b72611f38565b5b9060005260206000209060020201600001548561176290919063ffffffff16565b61176290919063ffffffff16565b896115ec90919063ffffffff16565b9750610bc681856115ec90919063ffffffff16565b9350505b8080610bd59061207b565b915050610a30565b50610c1b85600101600185610bf29190612013565b81548110610c0357610c02611f38565b5b9060005260206000209060020201600101544361085f565b9150610c8b610c7c8560000154610c6e88600101600188610c3c9190612013565b81548110610c4d57610c4c611f38565b5b9060005260206000209060020201600001548661176290919063ffffffff16565b61176290919063ffffffff16565b876115ec90919063ffffffff16565b955050505050505b92915050565b60008060018481548110610cb057610caf611f38565b5b9060005260206000209060020201905060006002600086815260200190815260200160002060008573ffffffffffffffffffffffffffffffffffffffff1673ffffffffffffffffffffffffffffffffffffffff1681526020019081526020016000209050600082600101805490509050600080836002015485600101600185610d399190612013565b81548110610d4a57610d49611f38565b5b9060005260206000209060020201600101541015610dd15784600001549150610dc58460000154610db787600101600187610d859190612013565b81548110610d9657610d95611f38565b5b9060005260206000209060020201600001548561176290919063ffffffff16565b61176290919063ffffffff16565b95505050505050611126565b6000846001015490505b600184610de89190612013565b8110156110995781610eff57610e35856002015487600101600184610e0d9190612047565b81548110610e1e57610e1d611f38565b5b90600052602060002090600202016001015461085f565b92508560000154831115610ea457610e978560000154610e89886001018481548110610e6457610e63611f38565b5b906000526020600020906002020160000154896000015461176290919063ffffffff16565b61176290919063ffffffff16565b9650505050505050611126565b610ef48560000154610ee6886001018481548110610ec557610ec4611f38565b5b9060005260206000209060020201600001548661176290919063ffffffff16565b61176290919063ffffffff16565b965060019150611086565b6000610f65876001018381548110610f1a57610f19611f38565b5b90600052602060002090600202016001015488600101600185610f3d9190612047565b81548110610f4e57610f4d611f38565b5b90600052602060002090600202016001015461085f565b90508660000154610f7f85836115ec90919063ffffffff16565b111561100b57610ffd610fee8760000154610fe08a6001018681548110610fa957610fa8611f38565b5b906000526020600020906002020160000154610fd2898d6000015461174c90919063ffffffff16565b61176290919063ffffffff16565b61176290919063ffffffff16565b896115ec90919063ffffffff16565b975050505050505050611126565b61106d61105e87600001546110508a600101868154811061102f5761102e611f38565b5b9060005260206000209060020201600001548561176290919063ffffffff16565b61176290919063ffffffff16565b896115ec90919063ffffffff16565b975061108281856115ec90919063ffffffff16565b9350505b80806110919061207b565b915050610ddb565b5061111e61110f8560000154611101886001016001886110b99190612013565b815481106110ca576110c9611f38565b5b9060005260206000209060020201600001546110f3878b6000015461174c90919063ffffffff16565b61176290919063ffffffff16565b61176290919063ffffffff16565b876115ec90919063ffffffff16565b955050505050505b92915050565b60006001838154811061114257611141611f38565b5b9060005260206000209060020201905060006002600085815260200190815260200160002060003373ffffffffffffffffffffffffffffffffffffffff1673ffffffffffffffffffffffffffffffffffffffff168152602001908152602001600020905060008160000154111561140d57426111cf836000015483600201546115ec90919063ffffffff16565b11156113245760006111e18533610c99565b9050600081111561123a576112393382600360009054906101000a900473ffffffffffffffffffffffffffffffffffffffff1673ffffffffffffffffffffffffffffffffffffffff166116029092919063ffffffff16565b5b611289333086600360009054906101000a900473ffffffffffffffffffffffffffffffffffffffff1673ffffffffffffffffffffffffffffffffffffffff1661178e909392919063ffffffff16565b6112a08483600001546115ec90919063ffffffff16565b8260000181905550428260020181905550600183600101805490506112c59190612013565b8260010181905550843373ffffffffffffffffffffffffffffffffffffffff167f90890809c654f11d6e72a28fa60149770a0d11ec6c92319d6ceb2bb0a4ea1a15866040516113149190611ae6565b60405180910390a35050506114dc565b611373333085600360009054906101000a900473ffffffffffffffffffffffffffffffffffffffff1673ffffffffffffffffffffffffffffffffffffffff1661178e909392919063ffffffff16565b61138a8382600001546115ec90919063ffffffff16565b8160000181905550428160020181905550600182600101805490506113af9190612013565b8160010181905550833373ffffffffffffffffffffffffffffffffffffffff167f90890809c654f11d6e72a28fa60149770a0d11ec6c92319d6ceb2bb0a4ea1a15856040516113fe9190611ae6565b60405180910390a350506114dc565b4281600201819055506001826001018054905061142a9190612013565b816001018190555082816000018190555061148a333085600360009054906101000a900473ffffffffffffffffffffffffffffffffffffffff1673ffffffffffffffffffffffffffffffffffffffff1661178e909392919063ffffffff16565b833373ffffffffffffffffffffffffffffffffffffffff167f90890809c654f11d6e72a28fa60149770a0d11ec6c92319d6ceb2bb0a4ea1a15856040516114d19190611ae6565b60405180910390a350505b5050565b61012c81565b606481565b6114f361156e565b600073ffffffffffffffffffffffffffffffffffffffff168173ffffffffffffffffffffffffffffffffffffffff1603611562576040517f08c379a000000000000000000000000000000000000000000000000000000000815260040161155990612135565b60405180910390fd5b61156b81611688565b50565b611576611817565b73ffffffffffffffffffffffffffffffffffffffff16611594610836565b73ffffffffffffffffffffffffffffffffffffffff16146115ea576040517f08c379a00000000000000000000000000000000000000000000000000000000081526004016115e1906121a1565b60405180910390fd5b565b600081836115fa9190612047565b905092915050565b6116838363a9059cbb60e01b84846040516024016116219291906121c1565b604051602081830303815290604052907bffffffffffffffffffffffffffffffffffffffffffffffffffffffff19166020820180517bffffffffffffffffffffffffffffffffffffffffffffffffffffffff838183161783525050505061181f565b505050565b60008060009054906101000a900473ffffffffffffffffffffffffffffffffffffffff169050816000806101000a81548173ffffffffffffffffffffffffffffffffffffffff021916908373ffffffffffffffffffffffffffffffffffffffff1602179055508173ffffffffffffffffffffffffffffffffffffffff168173ffffffffffffffffffffffffffffffffffffffff167f8be0079c531659141344cd1fd0a4f28419497f9722a3daafe3b4186f6b6457e060405160405180910390a35050565b6000818361175a9190612013565b905092915050565b6000818361177091906121ea565b905092915050565b60008183611786919061225b565b905092915050565b611811846323b872dd60e01b8585856040516024016117af9392919061228c565b604051602081830303815290604052907bffffffffffffffffffffffffffffffffffffffffffffffffffffffff19166020820180517bffffffffffffffffffffffffffffffffffffffffffffffffffffffff838183161783525050505061181f565b50505050565b600033905090565b6000611881826040518060400160405280602081526020017f5361666542455032303a206c6f772d6c6576656c2063616c6c206661696c65648152508573ffffffffffffffffffffffffffffffffffffffff166118e69092919063ffffffff16565b90506000815111156118e157808060200190518101906118a191906122fb565b6118e0576040517f08c379a00000000000000000000000000000000000000000000000000000000081526004016118d79061239a565b60405180910390fd5b5b505050565b60606118f584846000856118fe565b90509392505050565b606082471015611943576040517f08c379a000000000000000000000000000000000000000000000000000000000815260040161193a9061242c565b60405180910390fd5b6000808673ffffffffffffffffffffffffffffffffffffffff16858760405161196c91906124bd565b60006040518083038185875af1925050503d80600081146119a9576040519150601f19603f3d011682016040523d82523d6000602084013e6119ae565b606091505b50915091506119bf878383876119cb565b92505050949350505050565b60608315611a2d576000835103611a25576119e585611a40565b611a24576040517f08c379a0000000000000000000000000000000000000000000000000000000008152600401611a1b90612520565b60405180910390fd5b5b829050611a38565b611a378383611a63565b5b949350505050565b6000808273ffffffffffffffffffffffffffffffffffffffff163b119050919050565b600082511115611a765781518083602001fd5b806040517f08c379a0000000000000000000000000000000000000000000000000000000008152600401611aaa9190612595565b60405180910390fd5b604051806040016040528060008152602001606081525090565b6000819050919050565b611ae081611acd565b82525050565b6000602082019050611afb6000830184611ad7565b92915050565b600080fd5b611b0f81611acd565b8114611b1a57600080fd5b50565b600081359050611b2c81611b06565b92915050565b60008060408385031215611b4957611b48611b01565b5b6000611b5785828601611b1d565b9250506020611b6885828601611b1d565b9150509250929050565b600073ffffffffffffffffffffffffffffffffffffffff82169050919050565b6000611b9d82611b72565b9050919050565b6000611baf82611b92565b9050919050565b611bbf81611ba4565b8114611bca57600080fd5b50565b600081359050611bdc81611bb6565b92915050565b600060208284031215611bf857611bf7611b01565b5b6000611c0684828501611bcd565b91505092915050565b600060208284031215611c2557611c24611b01565b5b6000611c3384828501611b1d565b91505092915050565b611c4581611acd565b82525050565b600081519050919050565b600082825260208201905092915050565b6000819050602082019050919050565b604082016000820151611c8d6000850182611c3c565b506020820151611ca06020850182611c3c565b50505050565b6000611cb28383611c77565b60408301905092915050565b6000602082019050919050565b6000611cd682611c4b565b611ce08185611c56565b9350611ceb83611c67565b8060005b83811015611d1c578151611d038882611ca6565b9750611d0e83611cbe565b925050600181019050611cef565b5085935050505092915050565b6000604083016000830151611d416000860182611c3c565b5060208301518482036020860152611d598282611ccb565b9150508091505092915050565b60006020820190508181036000830152611d808184611d29565b905092915050565b6000819050919050565b6000611dad611da8611da384611b72565b611d88565b611b72565b9050919050565b6000611dbf82611d92565b9050919050565b6000611dd182611db4565b9050919050565b611de181611dc6565b82525050565b6000602082019050611dfc6000830184611dd8565b92915050565b6000611e0d82611db4565b9050919050565b611e1d81611e02565b82525050565b6000602082019050611e386000830184611e14565b92915050565b611e4781611b92565b82525050565b6000602082019050611e626000830184611e3e565b92915050565b611e7181611b92565b8114611e7c57600080fd5b50565b600081359050611e8e81611e68565b92915050565b60008060408385031215611eab57611eaa611b01565b5b6000611eb985828601611b1d565b9250506020611eca85828601611e7f565b9150509250929050565b6000606082019050611ee96000830186611ad7565b611ef66020830185611ad7565b611f036040830184611ad7565b949350505050565b600060208284031215611f2157611f20611b01565b5b6000611f2f84828501611e7f565b91505092915050565b7f4e487b7100000000000000000000000000000000000000000000000000000000600052603260045260246000fd5b600082825260208201905092915050565b7f42464c593a2053554646494349454e545f42414c414e43450000000000000000600082015250565b6000611fae601883611f67565b9150611fb982611f78565b602082019050919050565b60006020820190508181036000830152611fdd81611fa1565b9050919050565b7f4e487b7100000000000000000000000000000000000000000000000000000000600052601160045260246000fd5b600061201e82611acd565b915061202983611acd565b925082820390508181111561204157612040611fe4565b5b92915050565b600061205282611acd565b915061205d83611acd565b925082820190508082111561207557612074611fe4565b5b92915050565b600061208682611acd565b91507fffffffffffffffffffffffffffffffffffffffffffffffffffffffffffffffff82036120b8576120b7611fe4565b5b600182019050919050565b7f4f776e61626c653a206e6577206f776e657220697320746865207a65726f206160008201527f6464726573730000000000000000000000000000000000000000000000000000602082015250565b600061211f602683611f67565b915061212a826120c3565b604082019050919050565b6000602082019050818103600083015261214e81612112565b9050919050565b7f4f776e61626c653a2063616c6c6572206973206e6f7420746865206f776e6572600082015250565b600061218b602083611f67565b915061219682612155565b602082019050919050565b600060208201905081810360008301526121ba8161217e565b9050919050565b60006040820190506121d66000830185611e3e565b6121e36020830184611ad7565b9392505050565b60006121f582611acd565b915061220083611acd565b925082820261220e81611acd565b9150828204841483151761222557612224611fe4565b5b5092915050565b7f4e487b7100000000000000000000000000000000000000000000000000000000600052601260045260246000fd5b600061226682611acd565b915061227183611acd565b9250826122815761228061222c565b5b828204905092915050565b60006060820190506122a16000830186611e3e565b6122ae6020830185611e3e565b6122bb6040830184611ad7565b949350505050565b60008115159050919050565b6122d8816122c3565b81146122e357600080fd5b50565b6000815190506122f5816122cf565b92915050565b60006020828403121561231157612310611b01565b5b600061231f848285016122e6565b91505092915050565b7f5361666542455032303a204245503230206f7065726174696f6e20646964206e60008201527f6f74207375636365656400000000000000000000000000000000000000000000602082015250565b6000612384602a83611f67565b915061238f82612328565b604082019050919050565b600060208201905081810360008301526123b381612377565b9050919050565b7f416464726573733a20696e73756666696369656e742062616c616e636520666f60008201527f722063616c6c0000000000000000000000000000000000000000000000000000602082015250565b6000612416602683611f67565b9150612421826123ba565b604082019050919050565b6000602082019050818103600083015261244581612409565b9050919050565b600081519050919050565b600081905092915050565b60005b83811015612480578082015181840152602081019050612465565b60008484015250505050565b60006124978261244c565b6124a18185612457565b93506124b1818560208601612462565b80840191505092915050565b60006124c9828461248c565b915081905092915050565b7f416464726573733a2063616c6c20746f206e6f6e2d636f6e7472616374000000600082015250565b600061250a601d83611f67565b9150612515826124d4565b602082019050919050565b60006020820190508181036000830152612539816124fd565b9050919050565b600081519050919050565b6000601f19601f8301169050919050565b600061256782612540565b6125718185611f67565b9350612581818560208601612462565b61258a8161254b565b840191505092915050565b600060208201905081810360008301526125af818461255c565b90509291505056fea26469706673582212201019a6fc57bf444c1fc6a3c0fda26e5d5fcb01d37e54f8f916221bbedcc40bbc64736f6c63430008110033",
					"opcodes": "PUSH1 0x80 PUSH1 0x40 MSTORE PUSH1 0x1 PUSH1 0x4 SSTORE CALLVALUE DUP1 ISZERO PUSH3 0x16 JUMPI PUSH1 0x0 DUP1 REVERT JUMPDEST POP PUSH1 0x40 MLOAD PUSH3 0x28B6 CODESIZE SUB DUP1 PUSH3 0x28B6 DUP4 CODECOPY DUP2 DUP2 ADD PUSH1 0x40 MSTORE DUP2 ADD SWAP1 PUSH3 0x3C SWAP2 SWAP1 PUSH3 0x287 JUMP JUMPDEST PUSH3 0x5C PUSH3 0x50 PUSH3 0xB4 PUSH1 0x20 SHL PUSH1 0x20 SHR JUMP JUMPDEST PUSH3 0xBC PUSH1 0x20 SHL PUSH1 0x20 SHR JUMP JUMPDEST DUP1 PUSH1 0x3 PUSH1 0x0 PUSH2 0x100 EXP DUP2 SLOAD DUP2 PUSH20 0xFFFFFFFFFFFFFFFFFFFFFFFFFFFFFFFFFFFFFFFF MUL NOT AND SWAP1 DUP4 PUSH20 0xFFFFFFFFFFFFFFFFFFFFFFFFFFFFFFFFFFFFFFFF AND MUL OR SWAP1 SSTORE POP PUSH3 0xAD PUSH3 0x180 PUSH1 0x20 SHL PUSH1 0x20 SHR JUMP JUMPDEST POP PUSH3 0x2B9 JUMP JUMPDEST PUSH1 0x0 CALLER SWAP1 POP SWAP1 JUMP JUMPDEST PUSH1 0x0 DUP1 PUSH1 0x0 SWAP1 SLOAD SWAP1 PUSH2 0x100 EXP SWAP1 DIV PUSH20 0xFFFFFFFFFFFFFFFFFFFFFFFFFFFFFFFFFFFFFFFF AND SWAP1 POP DUP2 PUSH1 0x0 DUP1 PUSH2 0x100 EXP DUP2 SLOAD DUP2 PUSH20 0xFFFFFFFFFFFFFFFFFFFFFFFFFFFFFFFFFFFFFFFF MUL NOT AND SWAP1 DUP4 PUSH20 0xFFFFFFFFFFFFFFFFFFFFFFFFFFFFFFFFFFFFFFFF AND MUL OR SWAP1 SSTORE POP DUP2 PUSH20 0xFFFFFFFFFFFFFFFFFFFFFFFFFFFFFFFFFFFFFFFF AND DUP2 PUSH20 0xFFFFFFFFFFFFFFFFFFFFFFFFFFFFFFFFFFFFFFFF AND PUSH32 0x8BE0079C531659141344CD1FD0A4F28419497F9722A3DAAFE3B4186F6B6457E0 PUSH1 0x40 MLOAD PUSH1 0x40 MLOAD DUP1 SWAP2 SUB SWAP1 LOG3 POP POP JUMP JUMPDEST PUSH1 0x0 PUSH1 0x1 DUP1 DUP2 PUSH1 0x1 DUP2 SLOAD ADD DUP1 DUP3 SSTORE DUP1 SWAP2 POP POP SUB SWAP1 PUSH1 0x0 MSTORE PUSH1 0x20 PUSH1 0x0 KECCAK256 SWAP1 PUSH1 0x2 MUL ADD SWAP1 POP DUP1 PUSH1 0x1 ADD PUSH1 0x40 MLOAD DUP1 PUSH1 0x40 ADD PUSH1 0x40 MSTORE DUP1 PUSH1 0x14 DUP2 MSTORE PUSH1 0x20 ADD TIMESTAMP DUP2 MSTORE POP SWAP1 DUP1 PUSH1 0x1 DUP2 SLOAD ADD DUP1 DUP3 SSTORE DUP1 SWAP2 POP POP PUSH1 0x1 SWAP1 SUB SWAP1 PUSH1 0x0 MSTORE PUSH1 0x20 PUSH1 0x0 KECCAK256 SWAP1 PUSH1 0x2 MUL ADD PUSH1 0x0 SWAP1 SWAP2 SWAP1 SWAP2 SWAP1 SWAP2 POP PUSH1 0x0 DUP3 ADD MLOAD DUP2 PUSH1 0x0 ADD SSTORE PUSH1 0x20 DUP3 ADD MLOAD DUP2 PUSH1 0x1 ADD SSTORE POP POP PUSH1 0x5 DUP2 PUSH1 0x0 ADD DUP2 SWAP1 SSTORE POP POP JUMP JUMPDEST PUSH1 0x0 DUP1 REVERT JUMPDEST PUSH1 0x0 PUSH20 0xFFFFFFFFFFFFFFFFFFFFFFFFFFFFFFFFFFFFFFFF DUP3 AND SWAP1 POP SWAP2 SWAP1 POP JUMP JUMPDEST PUSH1 0x0 PUSH3 0x23B DUP3 PUSH3 0x20E JUMP JUMPDEST SWAP1 POP SWAP2 SWAP1 POP JUMP JUMPDEST PUSH1 0x0 PUSH3 0x24F DUP3 PUSH3 0x22E JUMP JUMPDEST SWAP1 POP SWAP2 SWAP1 POP JUMP JUMPDEST PUSH3 0x261 DUP2 PUSH3 0x242 JUMP JUMPDEST DUP2 EQ PUSH3 0x26D JUMPI PUSH1 0x0 DUP1 REVERT JUMPDEST POP JUMP JUMPDEST PUSH1 0x0 DUP2 MLOAD SWAP1 POP PUSH3 0x281 DUP2 PUSH3 0x256 JUMP JUMPDEST SWAP3 SWAP2 POP POP JUMP JUMPDEST PUSH1 0x0 PUSH1 0x20 DUP3 DUP5 SUB SLT ISZERO PUSH3 0x2A0 JUMPI PUSH3 0x29F PUSH3 0x209 JUMP JUMPDEST JUMPDEST PUSH1 0x0 PUSH3 0x2B0 DUP5 DUP3 DUP6 ADD PUSH3 0x270 JUMP JUMPDEST SWAP2 POP POP SWAP3 SWAP2 POP POP JUMP JUMPDEST PUSH2 0x25ED DUP1 PUSH3 0x2C9 PUSH1 0x0 CODECOPY PUSH1 0x0 RETURN INVALID PUSH1 0x80 PUSH1 0x40 MSTORE CALLVALUE DUP1 ISZERO PUSH2 0x10 JUMPI PUSH1 0x0 DUP1 REVERT JUMPDEST POP PUSH1 0x4 CALLDATASIZE LT PUSH2 0x137 JUMPI PUSH1 0x0 CALLDATALOAD PUSH1 0xE0 SHR DUP1 PUSH4 0x8AA28550 GT PUSH2 0xB8 JUMPI DUP1 PUSH4 0x98969E82 GT PUSH2 0x7C JUMPI DUP1 PUSH4 0x98969E82 EQ PUSH2 0x31A JUMPI DUP1 PUSH4 0xA18F07A0 EQ PUSH2 0x34A JUMPI DUP1 PUSH4 0xE2BBB158 EQ PUSH2 0x37A JUMPI DUP1 PUSH4 0xE3D0B2BF EQ PUSH2 0x396 JUMPI DUP1 PUSH4 0xEC342AD0 EQ PUSH2 0x3B4 JUMPI DUP1 PUSH4 0xF2FDE38B EQ PUSH2 0x3D2 JUMPI PUSH2 0x137 JUMP JUMPDEST DUP1 PUSH4 0x8AA28550 EQ PUSH2 0x25E JUMPI DUP1 PUSH4 0x8DA5CB5B EQ PUSH2 0x27C JUMPI DUP1 PUSH4 0x8DBB1E3A EQ PUSH2 0x29A JUMPI DUP1 PUSH4 0x918F8674 EQ PUSH2 0x2CA JUMPI DUP1 PUSH4 0x93F1A40B EQ PUSH2 0x2E8 JUMPI PUSH2 0x137 JUMP JUMPDEST DUP1 PUSH4 0x3E3CCA90 GT PUSH2 0xFF JUMPI DUP1 PUSH4 0x3E3CCA90 EQ PUSH2 0x1E0 JUMPI DUP1 PUSH4 0x441A3E70 EQ PUSH2 0x1FE JUMPI DUP1 PUSH4 0x715018A6 EQ PUSH2 0x21A JUMPI DUP1 PUSH4 0x771602F7 EQ PUSH2 0x224 JUMPI DUP1 PUSH4 0x7CD07E47 EQ PUSH2 0x240 JUMPI PUSH2 0x137 JUMP JUMPDEST DUP1 PUSH4 0x81E3EDA EQ PUSH2 0x13C JUMPI DUP1 PUSH4 0x14D20DC2 EQ PUSH2 0x15A JUMPI DUP1 PUSH4 0x1AB06EE5 EQ PUSH2 0x178 JUMPI DUP1 PUSH4 0x23CF3118 EQ PUSH2 0x194 JUMPI DUP1 PUSH4 0x2F380B35 EQ PUSH2 0x1B0 JUMPI JUMPDEST PUSH1 0x0 DUP1 REVERT JUMPDEST PUSH2 0x144 PUSH2 0x3EE JUMP JUMPDEST PUSH1 0x40 MLOAD PUSH2 0x151 SWAP2 SWAP1 PUSH2 0x1AE6 JUMP JUMPDEST PUSH1 0x40 MLOAD DUP1 SWAP2 SUB SWAP1 RETURN JUMPDEST PUSH2 0x162 PUSH2 0x3FB JUMP JUMPDEST PUSH1 0x40 MLOAD PUSH2 0x16F SWAP2 SWAP1 PUSH2 0x1AE6 JUMP JUMPDEST PUSH1 0x40 MLOAD DUP1 SWAP2 SUB SWAP1 RETURN JUMPDEST PUSH2 0x192 PUSH1 0x4 DUP1 CALLDATASIZE SUB DUP2 ADD SWAP1 PUSH2 0x18D SWAP2 SWAP1 PUSH2 0x1B32 JUMP JUMPDEST PUSH2 0x404 JUMP JUMPDEST STOP JUMPDEST PUSH2 0x1AE PUSH1 0x4 DUP1 CALLDATASIZE SUB DUP2 ADD SWAP1 PUSH2 0x1A9 SWAP2 SWAP1 PUSH2 0x1BE2 JUMP JUMPDEST PUSH2 0x48F JUMP JUMPDEST STOP JUMPDEST PUSH2 0x1CA PUSH1 0x4 DUP1 CALLDATASIZE SUB DUP2 ADD SWAP1 PUSH2 0x1C5 SWAP2 SWAP1 PUSH2 0x1C0F JUMP JUMPDEST PUSH2 0x4DB JUMP JUMPDEST PUSH1 0x40 MLOAD PUSH2 0x1D7 SWAP2 SWAP1 PUSH2 0x1D66 JUMP JUMPDEST PUSH1 0x40 MLOAD DUP1 SWAP2 SUB SWAP1 RETURN JUMPDEST PUSH2 0x1E8 PUSH2 0x594 JUMP JUMPDEST PUSH1 0x40 MLOAD PUSH2 0x1F5 SWAP2 SWAP1 PUSH2 0x1DE7 JUMP JUMPDEST PUSH1 0x40 MLOAD DUP1 SWAP2 SUB SWAP1 RETURN JUMPDEST PUSH2 0x218 PUSH1 0x4 DUP1 CALLDATASIZE SUB DUP2 ADD SWAP1 PUSH2 0x213 SWAP2 SWAP1 PUSH2 0x1B32 JUMP JUMPDEST PUSH2 0x5BA JUMP JUMPDEST STOP JUMPDEST PUSH2 0x222 PUSH2 0x765 JUMP JUMPDEST STOP JUMPDEST PUSH2 0x23E PUSH1 0x4 DUP1 CALLDATASIZE SUB DUP2 ADD SWAP1 PUSH2 0x239 SWAP2 SWAP1 PUSH2 0x1B32 JUMP JUMPDEST PUSH2 0x779 JUMP JUMPDEST STOP JUMPDEST PUSH2 0x248 PUSH2 0x80A JUMP JUMPDEST PUSH1 0x40 MLOAD PUSH2 0x255 SWAP2 SWAP1 PUSH2 0x1E23 JUMP JUMPDEST PUSH1 0x40 MLOAD DUP1 SWAP2 SUB SWAP1 RETURN JUMPDEST PUSH2 0x266 PUSH2 0x830 JUMP JUMPDEST PUSH1 0x40 MLOAD PUSH2 0x273 SWAP2 SWAP1 PUSH2 0x1AE6 JUMP JUMPDEST PUSH1 0x40 MLOAD DUP1 SWAP2 SUB SWAP1 RETURN JUMPDEST PUSH2 0x284 PUSH2 0x836 JUMP JUMPDEST PUSH1 0x40 MLOAD PUSH2 0x291 SWAP2 SWAP1 PUSH2 0x1E4D JUMP JUMPDEST PUSH1 0x40 MLOAD DUP1 SWAP2 SUB SWAP1 RETURN JUMPDEST PUSH2 0x2B4 PUSH1 0x4 DUP1 CALLDATASIZE SUB DUP2 ADD SWAP1 PUSH2 0x2AF SWAP2 SWAP1 PUSH2 0x1B32 JUMP JUMPDEST PUSH2 0x85F JUMP JUMPDEST PUSH1 0x40 MLOAD PUSH2 0x2C1 SWAP2 SWAP1 PUSH2 0x1AE6 JUMP JUMPDEST PUSH1 0x40 MLOAD DUP1 SWAP2 SUB SWAP1 RETURN JUMPDEST PUSH2 0x2D2 PUSH2 0x87C JUMP JUMPDEST PUSH1 0x40 MLOAD PUSH2 0x2DF SWAP2 SWAP1 PUSH2 0x1AE6 JUMP JUMPDEST PUSH1 0x40 MLOAD DUP1 SWAP2 SUB SWAP1 RETURN JUMPDEST PUSH2 0x302 PUSH1 0x4 DUP1 CALLDATASIZE SUB DUP2 ADD SWAP1 PUSH2 0x2FD SWAP2 SWAP1 PUSH2 0x1E94 JUMP JUMPDEST PUSH2 0x884 JUMP JUMPDEST PUSH1 0x40 MLOAD PUSH2 0x311 SWAP4 SWAP3 SWAP2 SWAP1 PUSH2 0x1ED4 JUMP JUMPDEST PUSH1 0x40 MLOAD DUP1 SWAP2 SUB SWAP1 RETURN JUMPDEST PUSH2 0x334 PUSH1 0x4 DUP1 CALLDATASIZE SUB DUP2 ADD SWAP1 PUSH2 0x32F SWAP2 SWAP1 PUSH2 0x1E94 JUMP JUMPDEST PUSH2 0x8BB JUMP JUMPDEST PUSH1 0x40 MLOAD PUSH2 0x341 SWAP2 SWAP1 PUSH2 0x1AE6 JUMP JUMPDEST PUSH1 0x40 MLOAD DUP1 SWAP2 SUB SWAP1 RETURN JUMPDEST PUSH2 0x364 PUSH1 0x4 DUP1 CALLDATASIZE SUB DUP2 ADD SWAP1 PUSH2 0x35F SWAP2 SWAP1 PUSH2 0x1E94 JUMP JUMPDEST PUSH2 0xC99 JUMP JUMPDEST PUSH1 0x40 MLOAD PUSH2 0x371 SWAP2 SWAP1 PUSH2 0x1AE6 JUMP JUMPDEST PUSH1 0x40 MLOAD DUP1 SWAP2 SUB SWAP1 RETURN JUMPDEST PUSH2 0x394 PUSH1 0x4 DUP1 CALLDATASIZE SUB DUP2 ADD SWAP1 PUSH2 0x38F SWAP2 SWAP1 PUSH2 0x1B32 JUMP JUMPDEST PUSH2 0x112C JUMP JUMPDEST STOP JUMPDEST PUSH2 0x39E PUSH2 0x14E0 JUMP JUMPDEST PUSH1 0x40 MLOAD PUSH2 0x3AB SWAP2 SWAP1 PUSH2 0x1AE6 JUMP JUMPDEST PUSH1 0x40 MLOAD DUP1 SWAP2 SUB SWAP1 RETURN JUMPDEST PUSH2 0x3BC PUSH2 0x14E6 JUMP JUMPDEST PUSH1 0x40 MLOAD PUSH2 0x3C9 SWAP2 SWAP1 PUSH2 0x1AE6 JUMP JUMPDEST PUSH1 0x40 MLOAD DUP1 SWAP2 SUB SWAP1 RETURN JUMPDEST PUSH2 0x3EC PUSH1 0x4 DUP1 CALLDATASIZE SUB DUP2 ADD SWAP1 PUSH2 0x3E7 SWAP2 SWAP1 PUSH2 0x1F0B JUMP JUMPDEST PUSH2 0x14EB JUMP JUMPDEST STOP JUMPDEST PUSH1 0x0 PUSH1 0x1 DUP1 SLOAD SWAP1 POP SWAP1 POP SWAP1 JUMP JUMPDEST PUSH1 0x0 PUSH1 0x3C SWAP1 POP SWAP1 JUMP JUMPDEST PUSH2 0x40C PUSH2 0x156E JUMP JUMPDEST PUSH1 0x0 PUSH1 0x1 DUP4 DUP2 SLOAD DUP2 LT PUSH2 0x422 JUMPI PUSH2 0x421 PUSH2 0x1F38 JUMP JUMPDEST JUMPDEST SWAP1 PUSH1 0x0 MSTORE PUSH1 0x20 PUSH1 0x0 KECCAK256 SWAP1 PUSH1 0x2 MUL ADD SWAP1 POP DUP1 PUSH1 0x1 ADD PUSH1 0x40 MLOAD DUP1 PUSH1 0x40 ADD PUSH1 0x40 MSTORE DUP1 DUP5 DUP2 MSTORE PUSH1 0x20 ADD TIMESTAMP DUP2 MSTORE POP SWAP1 DUP1 PUSH1 0x1 DUP2 SLOAD ADD DUP1 DUP3 SSTORE DUP1 SWAP2 POP POP PUSH1 0x1 SWAP1 SUB SWAP1 PUSH1 0x0 MSTORE PUSH1 0x20 PUSH1 0x0 KECCAK256 SWAP1 PUSH1 0x2 MUL ADD PUSH1 0x0 SWAP1 SWAP2 SWAP1 SWAP2 SWAP1 SWAP2 POP PUSH1 0x0 DUP3 ADD MLOAD DUP2 PUSH1 0x0 ADD SSTORE PUSH1 0x20 DUP3 ADD MLOAD DUP2 PUSH1 0x1 ADD SSTORE POP POP POP POP POP JUMP JUMPDEST PUSH2 0x497 PUSH2 0x156E JUMP JUMPDEST DUP1 PUSH1 0x5 PUSH1 0x0 PUSH2 0x100 EXP DUP2 SLOAD DUP2 PUSH20 0xFFFFFFFFFFFFFFFFFFFFFFFFFFFFFFFFFFFFFFFF MUL NOT AND SWAP1 DUP4 PUSH20 0xFFFFFFFFFFFFFFFFFFFFFFFFFFFFFFFFFFFFFFFF AND MUL OR SWAP1 SSTORE POP POP JUMP JUMPDEST PUSH2 0x4E3 PUSH2 0x1AB3 JUMP JUMPDEST PUSH1 0x1 DUP3 DUP2 SLOAD DUP2 LT PUSH2 0x4F7 JUMPI PUSH2 0x4F6 PUSH2 0x1F38 JUMP JUMPDEST JUMPDEST SWAP1 PUSH1 0x0 MSTORE PUSH1 0x20 PUSH1 0x0 KECCAK256 SWAP1 PUSH1 0x2 MUL ADD PUSH1 0x40 MLOAD DUP1 PUSH1 0x40 ADD PUSH1 0x40 MSTORE SWAP1 DUP2 PUSH1 0x0 DUP3 ADD SLOAD DUP2 MSTORE PUSH1 0x20 ADD PUSH1 0x1 DUP3 ADD DUP1 SLOAD DUP1 PUSH1 0x20 MUL PUSH1 0x20 ADD PUSH1 0x40 MLOAD SWAP1 DUP2 ADD PUSH1 0x40 MSTORE DUP1 SWAP3 SWAP2 SWAP1 DUP2 DUP2 MSTORE PUSH1 0x20 ADD PUSH1 0x0 SWAP1 JUMPDEST DUP3 DUP3 LT ISZERO PUSH2 0x585 JUMPI DUP4 DUP3 SWAP1 PUSH1 0x0 MSTORE PUSH1 0x20 PUSH1 0x0 KECCAK256 SWAP1 PUSH1 0x2 MUL ADD PUSH1 0x40 MLOAD DUP1 PUSH1 0x40 ADD PUSH1 0x40 MSTORE SWAP1 DUP2 PUSH1 0x0 DUP3 ADD SLOAD DUP2 MSTORE PUSH1 0x20 ADD PUSH1 0x1 DUP3 ADD SLOAD DUP2 MSTORE POP POP DUP2 MSTORE PUSH1 0x20 ADD SWAP1 PUSH1 0x1 ADD SWAP1 PUSH2 0x53F JUMP JUMPDEST POP POP POP POP DUP2 MSTORE POP POP SWAP1 POP SWAP2 SWAP1 POP JUMP JUMPDEST PUSH1 0x3 PUSH1 0x0 SWAP1 SLOAD SWAP1 PUSH2 0x100 EXP SWAP1 DIV PUSH20 0xFFFFFFFFFFFFFFFFFFFFFFFFFFFFFFFFFFFFFFFF AND DUP2 JUMP JUMPDEST PUSH1 0x0 PUSH1 0x1 DUP4 DUP2 SLOAD DUP2 LT PUSH2 0x5D0 JUMPI PUSH2 0x5CF PUSH2 0x1F38 JUMP JUMPDEST JUMPDEST SWAP1 PUSH1 0x0 MSTORE PUSH1 0x20 PUSH1 0x0 KECCAK256 SWAP1 PUSH1 0x2 MUL ADD SWAP1 POP PUSH1 0x0 PUSH1 0x2 PUSH1 0x0 DUP6 DUP2 MSTORE PUSH1 0x20 ADD SWAP1 DUP2 MSTORE PUSH1 0x20 ADD PUSH1 0x0 KECCAK256 PUSH1 0x0 CALLER PUSH20 0xFFFFFFFFFFFFFFFFFFFFFFFFFFFFFFFFFFFFFFFF AND PUSH20 0xFFFFFFFFFFFFFFFFFFFFFFFFFFFFFFFFFFFFFFFF AND DUP2 MSTORE PUSH1 0x20 ADD SWAP1 DUP2 MSTORE PUSH1 0x20 ADD PUSH1 0x0 KECCAK256 SWAP1 POP DUP3 DUP2 PUSH1 0x0 ADD SLOAD LT ISZERO PUSH2 0x67B JUMPI PUSH1 0x40 MLOAD PUSH32 0x8C379A000000000000000000000000000000000000000000000000000000000 DUP2 MSTORE PUSH1 0x4 ADD PUSH2 0x672 SWAP1 PUSH2 0x1FC4 JUMP JUMPDEST PUSH1 0x40 MLOAD DUP1 SWAP2 SUB SWAP1 REVERT JUMPDEST TIMESTAMP PUSH2 0x697 DUP4 PUSH1 0x0 ADD SLOAD DUP4 PUSH1 0x2 ADD SLOAD PUSH2 0x15EC SWAP1 SWAP2 SWAP1 PUSH4 0xFFFFFFFF AND JUMP JUMPDEST GT ISZERO PUSH2 0x704 JUMPI PUSH1 0x0 PUSH2 0x6A9 DUP6 CALLER PUSH2 0xC99 JUMP JUMPDEST SWAP1 POP PUSH1 0x0 DUP2 GT ISZERO PUSH2 0x702 JUMPI PUSH2 0x701 CALLER DUP3 PUSH1 0x3 PUSH1 0x0 SWAP1 SLOAD SWAP1 PUSH2 0x100 EXP SWAP1 DIV PUSH20 0xFFFFFFFFFFFFFFFFFFFFFFFFFFFFFFFFFFFFFFFF AND PUSH20 0xFFFFFFFFFFFFFFFFFFFFFFFFFFFFFFFFFFFFFFFF AND PUSH2 0x1602 SWAP1 SWAP3 SWAP2 SWAP1 PUSH4 0xFFFFFFFF AND JUMP JUMPDEST JUMPDEST POP JUMPDEST PUSH2 0x755 CALLER DUP3 PUSH1 0x0 ADD SLOAD PUSH1 0x3 PUSH1 0x0 SWAP1 SLOAD SWAP1 PUSH2 0x100 EXP SWAP1 DIV PUSH20 0xFFFFFFFFFFFFFFFFFFFFFFFFFFFFFFFFFFFFFFFF AND PUSH20 0xFFFFFFFFFFFFFFFFFFFFFFFFFFFFFFFFFFFFFFFF AND PUSH2 0x1602 SWAP1 SWAP3 SWAP2 SWAP1 PUSH4 0xFFFFFFFF AND JUMP JUMPDEST PUSH1 0x0 DUP2 PUSH1 0x0 ADD DUP2 SWAP1 SSTORE POP POP POP POP POP JUMP JUMPDEST PUSH2 0x76D PUSH2 0x156E JUMP JUMPDEST PUSH2 0x777 PUSH1 0x0 PUSH2 0x1688 JUMP JUMPDEST JUMP JUMPDEST PUSH2 0x781 PUSH2 0x156E JUMP JUMPDEST PUSH1 0x0 PUSH1 0x1 DUP1 DUP2 PUSH1 0x1 DUP2 SLOAD ADD DUP1 DUP3 SSTORE DUP1 SWAP2 POP POP SUB SWAP1 PUSH1 0x0 MSTORE PUSH1 0x20 PUSH1 0x0 KECCAK256 SWAP1 PUSH1 0x2 MUL ADD SWAP1 POP DUP1 PUSH1 0x1 ADD PUSH1 0x40 MLOAD DUP1 PUSH1 0x40 ADD PUSH1 0x40 MSTORE DUP1 DUP6 DUP2 MSTORE PUSH1 0x20 ADD TIMESTAMP DUP2 MSTORE POP SWAP1 DUP1 PUSH1 0x1 DUP2 SLOAD ADD DUP1 DUP3 SSTORE DUP1 SWAP2 POP POP PUSH1 0x1 SWAP1 SUB SWAP1 PUSH1 0x0 MSTORE PUSH1 0x20 PUSH1 0x0 KECCAK256 SWAP1 PUSH1 0x2 MUL ADD PUSH1 0x0 SWAP1 SWAP2 SWAP1 SWAP2 SWAP1 SWAP2 POP PUSH1 0x0 DUP3 ADD MLOAD DUP2 PUSH1 0x0 ADD SSTORE PUSH1 0x20 DUP3 ADD MLOAD DUP2 PUSH1 0x1 ADD SSTORE POP POP DUP2 DUP2 PUSH1 0x0 ADD DUP2 SWAP1 SSTORE POP POP POP POP JUMP JUMPDEST PUSH1 0x5 PUSH1 0x0 SWAP1 SLOAD SWAP1 PUSH2 0x100 EXP SWAP1 DIV PUSH20 0xFFFFFFFFFFFFFFFFFFFFFFFFFFFFFFFFFFFFFFFF AND DUP2 JUMP JUMPDEST PUSH1 0x4 SLOAD DUP2 JUMP JUMPDEST PUSH1 0x0 DUP1 PUSH1 0x0 SWAP1 SLOAD SWAP1 PUSH2 0x100 EXP SWAP1 DIV PUSH20 0xFFFFFFFFFFFFFFFFFFFFFFFFFFFFFFFFFFFFFFFF AND SWAP1 POP SWAP1 JUMP JUMPDEST PUSH1 0x0 PUSH2 0x874 DUP4 DUP4 PUSH2 0x174C SWAP1 SWAP2 SWAP1 PUSH4 0xFFFFFFFF AND JUMP JUMPDEST SWAP1 POP SWAP3 SWAP2 POP POP JUMP JUMPDEST PUSH4 0x1E13380 DUP2 JUMP JUMPDEST PUSH1 0x2 PUSH1 0x20 MSTORE DUP2 PUSH1 0x0 MSTORE PUSH1 0x40 PUSH1 0x0 KECCAK256 PUSH1 0x20 MSTORE DUP1 PUSH1 0x0 MSTORE PUSH1 0x40 PUSH1 0x0 KECCAK256 PUSH1 0x0 SWAP2 POP SWAP2 POP POP DUP1 PUSH1 0x0 ADD SLOAD SWAP1 DUP1 PUSH1 0x1 ADD SLOAD SWAP1 DUP1 PUSH1 0x2 ADD SLOAD SWAP1 POP DUP4 JUMP JUMPDEST PUSH1 0x0 DUP1 PUSH1 0x1 DUP5 DUP2 SLOAD DUP2 LT PUSH2 0x8D2 JUMPI PUSH2 0x8D1 PUSH2 0x1F38 JUMP JUMPDEST JUMPDEST SWAP1 PUSH1 0x0 MSTORE PUSH1 0x20 PUSH1 0x0 KECCAK256 SWAP1 PUSH1 0x2 MUL ADD SWAP1 POP PUSH1 0x0 PUSH1 0x2 PUSH1 0x0 DUP7 DUP2 MSTORE PUSH1 0x20 ADD SWAP1 DUP2 MSTORE PUSH1 0x20 ADD PUSH1 0x0 KECCAK256 PUSH1 0x0 DUP6 PUSH20 0xFFFFFFFFFFFFFFFFFFFFFFFFFFFFFFFFFFFFFFFF AND PUSH20 0xFFFFFFFFFFFFFFFFFFFFFFFFFFFFFFFFFFFFFFFF AND DUP2 MSTORE PUSH1 0x20 ADD SWAP1 DUP2 MSTORE PUSH1 0x20 ADD PUSH1 0x0 KECCAK256 SWAP1 POP PUSH1 0x0 DUP3 PUSH1 0x1 ADD DUP1 SLOAD SWAP1 POP SWAP1 POP PUSH1 0x0 DUP1 DUP4 PUSH1 0x2 ADD SLOAD DUP6 PUSH1 0x1 ADD PUSH1 0x1 DUP6 PUSH2 0x95B SWAP2 SWAP1 PUSH2 0x2013 JUMP JUMPDEST DUP2 SLOAD DUP2 LT PUSH2 0x96C JUMPI PUSH2 0x96B PUSH2 0x1F38 JUMP JUMPDEST JUMPDEST SWAP1 PUSH1 0x0 MSTORE PUSH1 0x20 PUSH1 0x0 KECCAK256 SWAP1 PUSH1 0x2 MUL ADD PUSH1 0x1 ADD SLOAD LT ISZERO PUSH2 0xA26 JUMPI PUSH2 0x992 DUP5 PUSH1 0x2 ADD SLOAD TIMESTAMP PUSH2 0x85F JUMP JUMPDEST SWAP2 POP PUSH2 0x9F0 DUP5 PUSH1 0x0 ADD SLOAD PUSH2 0x9E2 DUP8 PUSH1 0x1 ADD PUSH1 0x1 DUP8 PUSH2 0x9B0 SWAP2 SWAP1 PUSH2 0x2013 JUMP JUMPDEST DUP2 SLOAD DUP2 LT PUSH2 0x9C1 JUMPI PUSH2 0x9C0 PUSH2 0x1F38 JUMP JUMPDEST JUMPDEST SWAP1 PUSH1 0x0 MSTORE PUSH1 0x20 PUSH1 0x0 KECCAK256 SWAP1 PUSH1 0x2 MUL ADD PUSH1 0x0 ADD SLOAD DUP6 PUSH2 0x1762 SWAP1 SWAP2 SWAP1 PUSH4 0xFFFFFFFF AND JUMP JUMPDEST PUSH2 0x1762 SWAP1 SWAP2 SWAP1 PUSH4 0xFFFFFFFF AND JUMP JUMPDEST SWAP6 POP PUSH2 0xA1A PUSH1 0x64 PUSH2 0xA0C PUSH2 0x12C DUP10 PUSH2 0x1778 SWAP1 SWAP2 SWAP1 PUSH4 0xFFFFFFFF AND JUMP JUMPDEST PUSH2 0x1778 SWAP1 SWAP2 SWAP1 PUSH4 0xFFFFFFFF AND JUMP JUMPDEST SWAP6 POP POP POP POP POP POP PUSH2 0xC93 JUMP JUMPDEST PUSH1 0x0 DUP5 PUSH1 0x1 ADD SLOAD SWAP1 POP JUMPDEST PUSH1 0x1 DUP5 PUSH2 0xA3D SWAP2 SWAP1 PUSH2 0x2013 JUMP JUMPDEST DUP2 LT ISZERO PUSH2 0xBDD JUMPI DUP2 PUSH2 0xAE7 JUMPI PUSH2 0xA8A DUP6 PUSH1 0x2 ADD SLOAD DUP8 PUSH1 0x1 ADD PUSH1 0x1 DUP5 PUSH2 0xA62 SWAP2 SWAP1 PUSH2 0x2047 JUMP JUMPDEST DUP2 SLOAD DUP2 LT PUSH2 0xA73 JUMPI PUSH2 0xA72 PUSH2 0x1F38 JUMP JUMPDEST JUMPDEST SWAP1 PUSH1 0x0 MSTORE PUSH1 0x20 PUSH1 0x0 KECCAK256 SWAP1 PUSH1 0x2 MUL ADD PUSH1 0x1 ADD SLOAD PUSH2 0x85F JUMP JUMPDEST SWAP3 POP PUSH2 0xADC DUP6 PUSH1 0x0 ADD SLOAD PUSH2 0xACE DUP9 PUSH1 0x1 ADD DUP5 DUP2 SLOAD DUP2 LT PUSH2 0xAAD JUMPI PUSH2 0xAAC PUSH2 0x1F38 JUMP JUMPDEST JUMPDEST SWAP1 PUSH1 0x0 MSTORE PUSH1 0x20 PUSH1 0x0 KECCAK256 SWAP1 PUSH1 0x2 MUL ADD PUSH1 0x0 ADD SLOAD DUP7 PUSH2 0x1762 SWAP1 SWAP2 SWAP1 PUSH4 0xFFFFFFFF AND JUMP JUMPDEST PUSH2 0x1762 SWAP1 SWAP2 SWAP1 PUSH4 0xFFFFFFFF AND JUMP JUMPDEST SWAP7 POP PUSH1 0x1 SWAP2 POP PUSH2 0xBCA JUMP JUMPDEST PUSH1 0x0 PUSH2 0xB4D DUP8 PUSH1 0x1 ADD DUP4 DUP2 SLOAD DUP2 LT PUSH2 0xB02 JUMPI PUSH2 0xB01 PUSH2 0x1F38 JUMP JUMPDEST JUMPDEST SWAP1 PUSH1 0x0 MSTORE PUSH1 0x20 PUSH1 0x0 KECCAK256 SWAP1 PUSH1 0x2 MUL ADD PUSH1 0x1 ADD SLOAD DUP9 PUSH1 0x1 ADD PUSH1 0x1 DUP6 PUSH2 0xB25 SWAP2 SWAP1 PUSH2 0x2047 JUMP JUMPDEST DUP2 SLOAD DUP2 LT PUSH2 0xB36 JUMPI PUSH2 0xB35 PUSH2 0x1F38 JUMP JUMPDEST JUMPDEST SWAP1 PUSH1 0x0 MSTORE PUSH1 0x20 PUSH1 0x0 KECCAK256 SWAP1 PUSH1 0x2 MUL ADD PUSH1 0x1 ADD SLOAD PUSH2 0x85F JUMP JUMPDEST SWAP1 POP PUSH2 0xBB1 PUSH2 0xBA2 DUP8 PUSH1 0x0 ADD SLOAD PUSH2 0xB94 DUP11 PUSH1 0x1 ADD DUP7 DUP2 SLOAD DUP2 LT PUSH2 0xB73 JUMPI PUSH2 0xB72 PUSH2 0x1F38 JUMP JUMPDEST JUMPDEST SWAP1 PUSH1 0x0 MSTORE PUSH1 0x20 PUSH1 0x0 KECCAK256 SWAP1 PUSH1 0x2 MUL ADD PUSH1 0x0 ADD SLOAD DUP6 PUSH2 0x1762 SWAP1 SWAP2 SWAP1 PUSH4 0xFFFFFFFF AND JUMP JUMPDEST PUSH2 0x1762 SWAP1 SWAP2 SWAP1 PUSH4 0xFFFFFFFF AND JUMP JUMPDEST DUP10 PUSH2 0x15EC SWAP1 SWAP2 SWAP1 PUSH4 0xFFFFFFFF AND JUMP JUMPDEST SWAP8 POP PUSH2 0xBC6 DUP2 DUP6 PUSH2 0x15EC SWAP1 SWAP2 SWAP1 PUSH4 0xFFFFFFFF AND JUMP JUMPDEST SWAP4 POP POP JUMPDEST DUP1 DUP1 PUSH2 0xBD5 SWAP1 PUSH2 0x207B JUMP JUMPDEST SWAP2 POP POP PUSH2 0xA30 JUMP JUMPDEST POP PUSH2 0xC1B DUP6 PUSH1 0x1 ADD PUSH1 0x1 DUP6 PUSH2 0xBF2 SWAP2 SWAP1 PUSH2 0x2013 JUMP JUMPDEST DUP2 SLOAD DUP2 LT PUSH2 0xC03 JUMPI PUSH2 0xC02 PUSH2 0x1F38 JUMP JUMPDEST JUMPDEST SWAP1 PUSH1 0x0 MSTORE PUSH1 0x20 PUSH1 0x0 KECCAK256 SWAP1 PUSH1 0x2 MUL ADD PUSH1 0x1 ADD SLOAD NUMBER PUSH2 0x85F JUMP JUMPDEST SWAP2 POP PUSH2 0xC8B PUSH2 0xC7C DUP6 PUSH1 0x0 ADD SLOAD PUSH2 0xC6E DUP9 PUSH1 0x1 ADD PUSH1 0x1 DUP9 PUSH2 0xC3C SWAP2 SWAP1 PUSH2 0x2013 JUMP JUMPDEST DUP2 SLOAD DUP2 LT PUSH2 0xC4D JUMPI PUSH2 0xC4C PUSH2 0x1F38 JUMP JUMPDEST JUMPDEST SWAP1 PUSH1 0x0 MSTORE PUSH1 0x20 PUSH1 0x0 KECCAK256 SWAP1 PUSH1 0x2 MUL ADD PUSH1 0x0 ADD SLOAD DUP7 PUSH2 0x1762 SWAP1 SWAP2 SWAP1 PUSH4 0xFFFFFFFF AND JUMP JUMPDEST PUSH2 0x1762 SWAP1 SWAP2 SWAP1 PUSH4 0xFFFFFFFF AND JUMP JUMPDEST DUP8 PUSH2 0x15EC SWAP1 SWAP2 SWAP1 PUSH4 0xFFFFFFFF AND JUMP JUMPDEST SWAP6 POP POP POP POP POP POP JUMPDEST SWAP3 SWAP2 POP POP JUMP JUMPDEST PUSH1 0x0 DUP1 PUSH1 0x1 DUP5 DUP2 SLOAD DUP2 LT PUSH2 0xCB0 JUMPI PUSH2 0xCAF PUSH2 0x1F38 JUMP JUMPDEST JUMPDEST SWAP1 PUSH1 0x0 MSTORE PUSH1 0x20 PUSH1 0x0 KECCAK256 SWAP1 PUSH1 0x2 MUL ADD SWAP1 POP PUSH1 0x0 PUSH1 0x2 PUSH1 0x0 DUP7 DUP2 MSTORE PUSH1 0x20 ADD SWAP1 DUP2 MSTORE PUSH1 0x20 ADD PUSH1 0x0 KECCAK256 PUSH1 0x0 DUP6 PUSH20 0xFFFFFFFFFFFFFFFFFFFFFFFFFFFFFFFFFFFFFFFF AND PUSH20 0xFFFFFFFFFFFFFFFFFFFFFFFFFFFFFFFFFFFFFFFF AND DUP2 MSTORE PUSH1 0x20 ADD SWAP1 DUP2 MSTORE PUSH1 0x20 ADD PUSH1 0x0 KECCAK256 SWAP1 POP PUSH1 0x0 DUP3 PUSH1 0x1 ADD DUP1 SLOAD SWAP1 POP SWAP1 POP PUSH1 0x0 DUP1 DUP4 PUSH1 0x2 ADD SLOAD DUP6 PUSH1 0x1 ADD PUSH1 0x1 DUP6 PUSH2 0xD39 SWAP2 SWAP1 PUSH2 0x2013 JUMP JUMPDEST DUP2 SLOAD DUP2 LT PUSH2 0xD4A JUMPI PUSH2 0xD49 PUSH2 0x1F38 JUMP JUMPDEST JUMPDEST SWAP1 PUSH1 0x0 MSTORE PUSH1 0x20 PUSH1 0x0 KECCAK256 SWAP1 PUSH1 0x2 MUL ADD PUSH1 0x1 ADD SLOAD LT ISZERO PUSH2 0xDD1 JUMPI DUP5 PUSH1 0x0 ADD SLOAD SWAP2 POP PUSH2 0xDC5 DUP5 PUSH1 0x0 ADD SLOAD PUSH2 0xDB7 DUP8 PUSH1 0x1 ADD PUSH1 0x1 DUP8 PUSH2 0xD85 SWAP2 SWAP1 PUSH2 0x2013 JUMP JUMPDEST DUP2 SLOAD DUP2 LT PUSH2 0xD96 JUMPI PUSH2 0xD95 PUSH2 0x1F38 JUMP JUMPDEST JUMPDEST SWAP1 PUSH1 0x0 MSTORE PUSH1 0x20 PUSH1 0x0 KECCAK256 SWAP1 PUSH1 0x2 MUL ADD PUSH1 0x0 ADD SLOAD DUP6 PUSH2 0x1762 SWAP1 SWAP2 SWAP1 PUSH4 0xFFFFFFFF AND JUMP JUMPDEST PUSH2 0x1762 SWAP1 SWAP2 SWAP1 PUSH4 0xFFFFFFFF AND JUMP JUMPDEST SWAP6 POP POP POP POP POP POP PUSH2 0x1126 JUMP JUMPDEST PUSH1 0x0 DUP5 PUSH1 0x1 ADD SLOAD SWAP1 POP JUMPDEST PUSH1 0x1 DUP5 PUSH2 0xDE8 SWAP2 SWAP1 PUSH2 0x2013 JUMP JUMPDEST DUP2 LT ISZERO PUSH2 0x1099 JUMPI DUP2 PUSH2 0xEFF JUMPI PUSH2 0xE35 DUP6 PUSH1 0x2 ADD SLOAD DUP8 PUSH1 0x1 ADD PUSH1 0x1 DUP5 PUSH2 0xE0D SWAP2 SWAP1 PUSH2 0x2047 JUMP JUMPDEST DUP2 SLOAD DUP2 LT PUSH2 0xE1E JUMPI PUSH2 0xE1D PUSH2 0x1F38 JUMP JUMPDEST JUMPDEST SWAP1 PUSH1 0x0 MSTORE PUSH1 0x20 PUSH1 0x0 KECCAK256 SWAP1 PUSH1 0x2 MUL ADD PUSH1 0x1 ADD SLOAD PUSH2 0x85F JUMP JUMPDEST SWAP3 POP DUP6 PUSH1 0x0 ADD SLOAD DUP4 GT ISZERO PUSH2 0xEA4 JUMPI PUSH2 0xE97 DUP6 PUSH1 0x0 ADD SLOAD PUSH2 0xE89 DUP9 PUSH1 0x1 ADD DUP5 DUP2 SLOAD DUP2 LT PUSH2 0xE64 JUMPI PUSH2 0xE63 PUSH2 0x1F38 JUMP JUMPDEST JUMPDEST SWAP1 PUSH1 0x0 MSTORE PUSH1 0x20 PUSH1 0x0 KECCAK256 SWAP1 PUSH1 0x2 MUL ADD PUSH1 0x0 ADD SLOAD DUP10 PUSH1 0x0 ADD SLOAD PUSH2 0x1762 SWAP1 SWAP2 SWAP1 PUSH4 0xFFFFFFFF AND JUMP JUMPDEST PUSH2 0x1762 SWAP1 SWAP2 SWAP1 PUSH4 0xFFFFFFFF AND JUMP JUMPDEST SWAP7 POP POP POP POP POP POP POP PUSH2 0x1126 JUMP JUMPDEST PUSH2 0xEF4 DUP6 PUSH1 0x0 ADD SLOAD PUSH2 0xEE6 DUP9 PUSH1 0x1 ADD DUP5 DUP2 SLOAD DUP2 LT PUSH2 0xEC5 JUMPI PUSH2 0xEC4 PUSH2 0x1F38 JUMP JUMPDEST JUMPDEST SWAP1 PUSH1 0x0 MSTORE PUSH1 0x20 PUSH1 0x0 KECCAK256 SWAP1 PUSH1 0x2 MUL ADD PUSH1 0x0 ADD SLOAD DUP7 PUSH2 0x1762 SWAP1 SWAP2 SWAP1 PUSH4 0xFFFFFFFF AND JUMP JUMPDEST PUSH2 0x1762 SWAP1 SWAP2 SWAP1 PUSH4 0xFFFFFFFF AND JUMP JUMPDEST SWAP7 POP PUSH1 0x1 SWAP2 POP PUSH2 0x1086 JUMP JUMPDEST PUSH1 0x0 PUSH2 0xF65 DUP8 PUSH1 0x1 ADD DUP4 DUP2 SLOAD DUP2 LT PUSH2 0xF1A JUMPI PUSH2 0xF19 PUSH2 0x1F38 JUMP JUMPDEST JUMPDEST SWAP1 PUSH1 0x0 MSTORE PUSH1 0x20 PUSH1 0x0 KECCAK256 SWAP1 PUSH1 0x2 MUL ADD PUSH1 0x1 ADD SLOAD DUP9 PUSH1 0x1 ADD PUSH1 0x1 DUP6 PUSH2 0xF3D SWAP2 SWAP1 PUSH2 0x2047 JUMP JUMPDEST DUP2 SLOAD DUP2 LT PUSH2 0xF4E JUMPI PUSH2 0xF4D PUSH2 0x1F38 JUMP JUMPDEST JUMPDEST SWAP1 PUSH1 0x0 MSTORE PUSH1 0x20 PUSH1 0x0 KECCAK256 SWAP1 PUSH1 0x2 MUL ADD PUSH1 0x1 ADD SLOAD PUSH2 0x85F JUMP JUMPDEST SWAP1 POP DUP7 PUSH1 0x0 ADD SLOAD PUSH2 0xF7F DUP6 DUP4 PUSH2 0x15EC SWAP1 SWAP2 SWAP1 PUSH4 0xFFFFFFFF AND JUMP JUMPDEST GT ISZERO PUSH2 0x100B JUMPI PUSH2 0xFFD PUSH2 0xFEE DUP8 PUSH1 0x0 ADD SLOAD PUSH2 0xFE0 DUP11 PUSH1 0x1 ADD DUP7 DUP2 SLOAD DUP2 LT PUSH2 0xFA9 JUMPI PUSH2 0xFA8 PUSH2 0x1F38 JUMP JUMPDEST JUMPDEST SWAP1 PUSH1 0x0 MSTORE PUSH1 0x20 PUSH1 0x0 KECCAK256 SWAP1 PUSH1 0x2 MUL ADD PUSH1 0x0 ADD SLOAD PUSH2 0xFD2 DUP10 DUP14 PUSH1 0x0 ADD SLOAD PUSH2 0x174C SWAP1 SWAP2 SWAP1 PUSH4 0xFFFFFFFF AND JUMP JUMPDEST PUSH2 0x1762 SWAP1 SWAP2 SWAP1 PUSH4 0xFFFFFFFF AND JUMP JUMPDEST PUSH2 0x1762 SWAP1 SWAP2 SWAP1 PUSH4 0xFFFFFFFF AND JUMP JUMPDEST DUP10 PUSH2 0x15EC SWAP1 SWAP2 SWAP1 PUSH4 0xFFFFFFFF AND JUMP JUMPDEST SWAP8 POP POP POP POP POP POP POP POP PUSH2 0x1126 JUMP JUMPDEST PUSH2 0x106D PUSH2 0x105E DUP8 PUSH1 0x0 ADD SLOAD PUSH2 0x1050 DUP11 PUSH1 0x1 ADD DUP7 DUP2 SLOAD DUP2 LT PUSH2 0x102F JUMPI PUSH2 0x102E PUSH2 0x1F38 JUMP JUMPDEST JUMPDEST SWAP1 PUSH1 0x0 MSTORE PUSH1 0x20 PUSH1 0x0 KECCAK256 SWAP1 PUSH1 0x2 MUL ADD PUSH1 0x0 ADD SLOAD DUP6 PUSH2 0x1762 SWAP1 SWAP2 SWAP1 PUSH4 0xFFFFFFFF AND JUMP JUMPDEST PUSH2 0x1762 SWAP1 SWAP2 SWAP1 PUSH4 0xFFFFFFFF AND JUMP JUMPDEST DUP10 PUSH2 0x15EC SWAP1 SWAP2 SWAP1 PUSH4 0xFFFFFFFF AND JUMP JUMPDEST SWAP8 POP PUSH2 0x1082 DUP2 DUP6 PUSH2 0x15EC SWAP1 SWAP2 SWAP1 PUSH4 0xFFFFFFFF AND JUMP JUMPDEST SWAP4 POP POP JUMPDEST DUP1 DUP1 PUSH2 0x1091 SWAP1 PUSH2 0x207B JUMP JUMPDEST SWAP2 POP POP PUSH2 0xDDB JUMP JUMPDEST POP PUSH2 0x111E PUSH2 0x110F DUP6 PUSH1 0x0 ADD SLOAD PUSH2 0x1101 DUP9 PUSH1 0x1 ADD PUSH1 0x1 DUP9 PUSH2 0x10B9 SWAP2 SWAP1 PUSH2 0x2013 JUMP JUMPDEST DUP2 SLOAD DUP2 LT PUSH2 0x10CA JUMPI PUSH2 0x10C9 PUSH2 0x1F38 JUMP JUMPDEST JUMPDEST SWAP1 PUSH1 0x0 MSTORE PUSH1 0x20 PUSH1 0x0 KECCAK256 SWAP1 PUSH1 0x2 MUL ADD PUSH1 0x0 ADD SLOAD PUSH2 0x10F3 DUP8 DUP12 PUSH1 0x0 ADD SLOAD PUSH2 0x174C SWAP1 SWAP2 SWAP1 PUSH4 0xFFFFFFFF AND JUMP JUMPDEST PUSH2 0x1762 SWAP1 SWAP2 SWAP1 PUSH4 0xFFFFFFFF AND JUMP JUMPDEST PUSH2 0x1762 SWAP1 SWAP2 SWAP1 PUSH4 0xFFFFFFFF AND JUMP JUMPDEST DUP8 PUSH2 0x15EC SWAP1 SWAP2 SWAP1 PUSH4 0xFFFFFFFF AND JUMP JUMPDEST SWAP6 POP POP POP POP POP POP JUMPDEST SWAP3 SWAP2 POP POP JUMP JUMPDEST PUSH1 0x0 PUSH1 0x1 DUP4 DUP2 SLOAD DUP2 LT PUSH2 0x1142 JUMPI PUSH2 0x1141 PUSH2 0x1F38 JUMP JUMPDEST JUMPDEST SWAP1 PUSH1 0x0 MSTORE PUSH1 0x20 PUSH1 0x0 KECCAK256 SWAP1 PUSH1 0x2 MUL ADD SWAP1 POP PUSH1 0x0 PUSH1 0x2 PUSH1 0x0 DUP6 DUP2 MSTORE PUSH1 0x20 ADD SWAP1 DUP2 MSTORE PUSH1 0x20 ADD PUSH1 0x0 KECCAK256 PUSH1 0x0 CALLER PUSH20 0xFFFFFFFFFFFFFFFFFFFFFFFFFFFFFFFFFFFFFFFF AND PUSH20 0xFFFFFFFFFFFFFFFFFFFFFFFFFFFFFFFFFFFFFFFF AND DUP2 MSTORE PUSH1 0x20 ADD SWAP1 DUP2 MSTORE PUSH1 0x20 ADD PUSH1 0x0 KECCAK256 SWAP1 POP PUSH1 0x0 DUP2 PUSH1 0x0 ADD SLOAD GT ISZERO PUSH2 0x140D JUMPI TIMESTAMP PUSH2 0x11CF DUP4 PUSH1 0x0 ADD SLOAD DUP4 PUSH1 0x2 ADD SLOAD PUSH2 0x15EC SWAP1 SWAP2 SWAP1 PUSH4 0xFFFFFFFF AND JUMP JUMPDEST GT ISZERO PUSH2 0x1324 JUMPI PUSH1 0x0 PUSH2 0x11E1 DUP6 CALLER PUSH2 0xC99 JUMP JUMPDEST SWAP1 POP PUSH1 0x0 DUP2 GT ISZERO PUSH2 0x123A JUMPI PUSH2 0x1239 CALLER DUP3 PUSH1 0x3 PUSH1 0x0 SWAP1 SLOAD SWAP1 PUSH2 0x100 EXP SWAP1 DIV PUSH20 0xFFFFFFFFFFFFFFFFFFFFFFFFFFFFFFFFFFFFFFFF AND PUSH20 0xFFFFFFFFFFFFFFFFFFFFFFFFFFFFFFFFFFFFFFFF AND PUSH2 0x1602 SWAP1 SWAP3 SWAP2 SWAP1 PUSH4 0xFFFFFFFF AND JUMP JUMPDEST JUMPDEST PUSH2 0x1289 CALLER ADDRESS DUP7 PUSH1 0x3 PUSH1 0x0 SWAP1 SLOAD SWAP1 PUSH2 0x100 EXP SWAP1 DIV PUSH20 0xFFFFFFFFFFFFFFFFFFFFFFFFFFFFFFFFFFFFFFFF AND PUSH20 0xFFFFFFFFFFFFFFFFFFFFFFFFFFFFFFFFFFFFFFFF AND PUSH2 0x178E SWAP1 SWAP4 SWAP3 SWAP2 SWAP1 PUSH4 0xFFFFFFFF AND JUMP JUMPDEST PUSH2 0x12A0 DUP5 DUP4 PUSH1 0x0 ADD SLOAD PUSH2 0x15EC SWAP1 SWAP2 SWAP1 PUSH4 0xFFFFFFFF AND JUMP JUMPDEST DUP3 PUSH1 0x0 ADD DUP2 SWAP1 SSTORE POP TIMESTAMP DUP3 PUSH1 0x2 ADD DUP2 SWAP1 SSTORE POP PUSH1 0x1 DUP4 PUSH1 0x1 ADD DUP1 SLOAD SWAP1 POP PUSH2 0x12C5 SWAP2 SWAP1 PUSH2 0x2013 JUMP JUMPDEST DUP3 PUSH1 0x1 ADD DUP2 SWAP1 SSTORE POP DUP5 CALLER PUSH20 0xFFFFFFFFFFFFFFFFFFFFFFFFFFFFFFFFFFFFFFFF AND PUSH32 0x90890809C654F11D6E72A28FA60149770A0D11EC6C92319D6CEB2BB0A4EA1A15 DUP7 PUSH1 0x40 MLOAD PUSH2 0x1314 SWAP2 SWAP1 PUSH2 0x1AE6 JUMP JUMPDEST PUSH1 0x40 MLOAD DUP1 SWAP2 SUB SWAP1 LOG3 POP POP POP PUSH2 0x14DC JUMP JUMPDEST PUSH2 0x1373 CALLER ADDRESS DUP6 PUSH1 0x3 PUSH1 0x0 SWAP1 SLOAD SWAP1 PUSH2 0x100 EXP SWAP1 DIV PUSH20 0xFFFFFFFFFFFFFFFFFFFFFFFFFFFFFFFFFFFFFFFF AND PUSH20 0xFFFFFFFFFFFFFFFFFFFFFFFFFFFFFFFFFFFFFFFF AND PUSH2 0x178E SWAP1 SWAP4 SWAP3 SWAP2 SWAP1 PUSH4 0xFFFFFFFF AND JUMP JUMPDEST PUSH2 0x138A DUP4 DUP3 PUSH1 0x0 ADD SLOAD PUSH2 0x15EC SWAP1 SWAP2 SWAP1 PUSH4 0xFFFFFFFF AND JUMP JUMPDEST DUP2 PUSH1 0x0 ADD DUP2 SWAP1 SSTORE POP TIMESTAMP DUP2 PUSH1 0x2 ADD DUP2 SWAP1 SSTORE POP PUSH1 0x1 DUP3 PUSH1 0x1 ADD DUP1 SLOAD SWAP1 POP PUSH2 0x13AF SWAP2 SWAP1 PUSH2 0x2013 JUMP JUMPDEST DUP2 PUSH1 0x1 ADD DUP2 SWAP1 SSTORE POP DUP4 CALLER PUSH20 0xFFFFFFFFFFFFFFFFFFFFFFFFFFFFFFFFFFFFFFFF AND PUSH32 0x90890809C654F11D6E72A28FA60149770A0D11EC6C92319D6CEB2BB0A4EA1A15 DUP6 PUSH1 0x40 MLOAD PUSH2 0x13FE SWAP2 SWAP1 PUSH2 0x1AE6 JUMP JUMPDEST PUSH1 0x40 MLOAD DUP1 SWAP2 SUB SWAP1 LOG3 POP POP PUSH2 0x14DC JUMP JUMPDEST TIMESTAMP DUP2 PUSH1 0x2 ADD DUP2 SWAP1 SSTORE POP PUSH1 0x1 DUP3 PUSH1 0x1 ADD DUP1 SLOAD SWAP1 POP PUSH2 0x142A SWAP2 SWAP1 PUSH2 0x2013 JUMP JUMPDEST DUP2 PUSH1 0x1 ADD DUP2 SWAP1 SSTORE POP DUP3 DUP2 PUSH1 0x0 ADD DUP2 SWAP1 SSTORE POP PUSH2 0x148A CALLER ADDRESS DUP6 PUSH1 0x3 PUSH1 0x0 SWAP1 SLOAD SWAP1 PUSH2 0x100 EXP SWAP1 DIV PUSH20 0xFFFFFFFFFFFFFFFFFFFFFFFFFFFFFFFFFFFFFFFF AND PUSH20 0xFFFFFFFFFFFFFFFFFFFFFFFFFFFFFFFFFFFFFFFF AND PUSH2 0x178E SWAP1 SWAP4 SWAP3 SWAP2 SWAP1 PUSH4 0xFFFFFFFF AND JUMP JUMPDEST DUP4 CALLER PUSH20 0xFFFFFFFFFFFFFFFFFFFFFFFFFFFFFFFFFFFFFFFF AND PUSH32 0x90890809C654F11D6E72A28FA60149770A0D11EC6C92319D6CEB2BB0A4EA1A15 DUP6 PUSH1 0x40 MLOAD PUSH2 0x14D1 SWAP2 SWAP1 PUSH2 0x1AE6 JUMP JUMPDEST PUSH1 0x40 MLOAD DUP1 SWAP2 SUB SWAP1 LOG3 POP POP JUMPDEST POP POP JUMP JUMPDEST PUSH2 0x12C DUP2 JUMP JUMPDEST PUSH1 0x64 DUP2 JUMP JUMPDEST PUSH2 0x14F3 PUSH2 0x156E JUMP JUMPDEST PUSH1 0x0 PUSH20 0xFFFFFFFFFFFFFFFFFFFFFFFFFFFFFFFFFFFFFFFF AND DUP2 PUSH20 0xFFFFFFFFFFFFFFFFFFFFFFFFFFFFFFFFFFFFFFFF AND SUB PUSH2 0x1562 JUMPI PUSH1 0x40 MLOAD PUSH32 0x8C379A000000000000000000000000000000000000000000000000000000000 DUP2 MSTORE PUSH1 0x4 ADD PUSH2 0x1559 SWAP1 PUSH2 0x2135 JUMP JUMPDEST PUSH1 0x40 MLOAD DUP1 SWAP2 SUB SWAP1 REVERT JUMPDEST PUSH2 0x156B DUP2 PUSH2 0x1688 JUMP JUMPDEST POP JUMP JUMPDEST PUSH2 0x1576 PUSH2 0x1817 JUMP JUMPDEST PUSH20 0xFFFFFFFFFFFFFFFFFFFFFFFFFFFFFFFFFFFFFFFF AND PUSH2 0x1594 PUSH2 0x836 JUMP JUMPDEST PUSH20 0xFFFFFFFFFFFFFFFFFFFFFFFFFFFFFFFFFFFFFFFF AND EQ PUSH2 0x15EA JUMPI PUSH1 0x40 MLOAD PUSH32 0x8C379A000000000000000000000000000000000000000000000000000000000 DUP2 MSTORE PUSH1 0x4 ADD PUSH2 0x15E1 SWAP1 PUSH2 0x21A1 JUMP JUMPDEST PUSH1 0x40 MLOAD DUP1 SWAP2 SUB SWAP1 REVERT JUMPDEST JUMP JUMPDEST PUSH1 0x0 DUP2 DUP4 PUSH2 0x15FA SWAP2 SWAP1 PUSH2 0x2047 JUMP JUMPDEST SWAP1 POP SWAP3 SWAP2 POP POP JUMP JUMPDEST PUSH2 0x1683 DUP4 PUSH4 0xA9059CBB PUSH1 0xE0 SHL DUP5 DUP5 PUSH1 0x40 MLOAD PUSH1 0x24 ADD PUSH2 0x1621 SWAP3 SWAP2 SWAP1 PUSH2 0x21C1 JUMP JUMPDEST PUSH1 0x40 MLOAD PUSH1 0x20 DUP2 DUP4 SUB SUB DUP2 MSTORE SWAP1 PUSH1 0x40 MSTORE SWAP1 PUSH28 0xFFFFFFFFFFFFFFFFFFFFFFFFFFFFFFFFFFFFFFFFFFFFFFFFFFFFFFFF NOT AND PUSH1 0x20 DUP3 ADD DUP1 MLOAD PUSH28 0xFFFFFFFFFFFFFFFFFFFFFFFFFFFFFFFFFFFFFFFFFFFFFFFFFFFFFFFF DUP4 DUP2 DUP4 AND OR DUP4 MSTORE POP POP POP POP PUSH2 0x181F JUMP JUMPDEST POP POP POP JUMP JUMPDEST PUSH1 0x0 DUP1 PUSH1 0x0 SWAP1 SLOAD SWAP1 PUSH2 0x100 EXP SWAP1 DIV PUSH20 0xFFFFFFFFFFFFFFFFFFFFFFFFFFFFFFFFFFFFFFFF AND SWAP1 POP DUP2 PUSH1 0x0 DUP1 PUSH2 0x100 EXP DUP2 SLOAD DUP2 PUSH20 0xFFFFFFFFFFFFFFFFFFFFFFFFFFFFFFFFFFFFFFFF MUL NOT AND SWAP1 DUP4 PUSH20 0xFFFFFFFFFFFFFFFFFFFFFFFFFFFFFFFFFFFFFFFF AND MUL OR SWAP1 SSTORE POP DUP2 PUSH20 0xFFFFFFFFFFFFFFFFFFFFFFFFFFFFFFFFFFFFFFFF AND DUP2 PUSH20 0xFFFFFFFFFFFFFFFFFFFFFFFFFFFFFFFFFFFFFFFF AND PUSH32 0x8BE0079C531659141344CD1FD0A4F28419497F9722A3DAAFE3B4186F6B6457E0 PUSH1 0x40 MLOAD PUSH1 0x40 MLOAD DUP1 SWAP2 SUB SWAP1 LOG3 POP POP JUMP JUMPDEST PUSH1 0x0 DUP2 DUP4 PUSH2 0x175A SWAP2 SWAP1 PUSH2 0x2013 JUMP JUMPDEST SWAP1 POP SWAP3 SWAP2 POP POP JUMP JUMPDEST PUSH1 0x0 DUP2 DUP4 PUSH2 0x1770 SWAP2 SWAP1 PUSH2 0x21EA JUMP JUMPDEST SWAP1 POP SWAP3 SWAP2 POP POP JUMP JUMPDEST PUSH1 0x0 DUP2 DUP4 PUSH2 0x1786 SWAP2 SWAP1 PUSH2 0x225B JUMP JUMPDEST SWAP1 POP SWAP3 SWAP2 POP POP JUMP JUMPDEST PUSH2 0x1811 DUP5 PUSH4 0x23B872DD PUSH1 0xE0 SHL DUP6 DUP6 DUP6 PUSH1 0x40 MLOAD PUSH1 0x24 ADD PUSH2 0x17AF SWAP4 SWAP3 SWAP2 SWAP1 PUSH2 0x228C JUMP JUMPDEST PUSH1 0x40 MLOAD PUSH1 0x20 DUP2 DUP4 SUB SUB DUP2 MSTORE SWAP1 PUSH1 0x40 MSTORE SWAP1 PUSH28 0xFFFFFFFFFFFFFFFFFFFFFFFFFFFFFFFFFFFFFFFFFFFFFFFFFFFFFFFF NOT AND PUSH1 0x20 DUP3 ADD DUP1 MLOAD PUSH28 0xFFFFFFFFFFFFFFFFFFFFFFFFFFFFFFFFFFFFFFFFFFFFFFFFFFFFFFFF DUP4 DUP2 DUP4 AND OR DUP4 MSTORE POP POP POP POP PUSH2 0x181F JUMP JUMPDEST POP POP POP POP JUMP JUMPDEST PUSH1 0x0 CALLER SWAP1 POP SWAP1 JUMP JUMPDEST PUSH1 0x0 PUSH2 0x1881 DUP3 PUSH1 0x40 MLOAD DUP1 PUSH1 0x40 ADD PUSH1 0x40 MSTORE DUP1 PUSH1 0x20 DUP2 MSTORE PUSH1 0x20 ADD PUSH32 0x5361666542455032303A206C6F772D6C6576656C2063616C6C206661696C6564 DUP2 MSTORE POP DUP6 PUSH20 0xFFFFFFFFFFFFFFFFFFFFFFFFFFFFFFFFFFFFFFFF AND PUSH2 0x18E6 SWAP1 SWAP3 SWAP2 SWAP1 PUSH4 0xFFFFFFFF AND JUMP JUMPDEST SWAP1 POP PUSH1 0x0 DUP2 MLOAD GT ISZERO PUSH2 0x18E1 JUMPI DUP1 DUP1 PUSH1 0x20 ADD SWAP1 MLOAD DUP2 ADD SWAP1 PUSH2 0x18A1 SWAP2 SWAP1 PUSH2 0x22FB JUMP JUMPDEST PUSH2 0x18E0 JUMPI PUSH1 0x40 MLOAD PUSH32 0x8C379A000000000000000000000000000000000000000000000000000000000 DUP2 MSTORE PUSH1 0x4 ADD PUSH2 0x18D7 SWAP1 PUSH2 0x239A JUMP JUMPDEST PUSH1 0x40 MLOAD DUP1 SWAP2 SUB SWAP1 REVERT JUMPDEST JUMPDEST POP POP POP JUMP JUMPDEST PUSH1 0x60 PUSH2 0x18F5 DUP5 DUP5 PUSH1 0x0 DUP6 PUSH2 0x18FE JUMP JUMPDEST SWAP1 POP SWAP4 SWAP3 POP POP POP JUMP JUMPDEST PUSH1 0x60 DUP3 SELFBALANCE LT ISZERO PUSH2 0x1943 JUMPI PUSH1 0x40 MLOAD PUSH32 0x8C379A000000000000000000000000000000000000000000000000000000000 DUP2 MSTORE PUSH1 0x4 ADD PUSH2 0x193A SWAP1 PUSH2 0x242C JUMP JUMPDEST PUSH1 0x40 MLOAD DUP1 SWAP2 SUB SWAP1 REVERT JUMPDEST PUSH1 0x0 DUP1 DUP7 PUSH20 0xFFFFFFFFFFFFFFFFFFFFFFFFFFFFFFFFFFFFFFFF AND DUP6 DUP8 PUSH1 0x40 MLOAD PUSH2 0x196C SWAP2 SWAP1 PUSH2 0x24BD JUMP JUMPDEST PUSH1 0x0 PUSH1 0x40 MLOAD DUP1 DUP4 SUB DUP2 DUP6 DUP8 GAS CALL SWAP3 POP POP POP RETURNDATASIZE DUP1 PUSH1 0x0 DUP2 EQ PUSH2 0x19A9 JUMPI PUSH1 0x40 MLOAD SWAP2 POP PUSH1 0x1F NOT PUSH1 0x3F RETURNDATASIZE ADD AND DUP3 ADD PUSH1 0x40 MSTORE RETURNDATASIZE DUP3 MSTORE RETURNDATASIZE PUSH1 0x0 PUSH1 0x20 DUP5 ADD RETURNDATACOPY PUSH2 0x19AE JUMP JUMPDEST PUSH1 0x60 SWAP2 POP JUMPDEST POP SWAP2 POP SWAP2 POP PUSH2 0x19BF DUP8 DUP4 DUP4 DUP8 PUSH2 0x19CB JUMP JUMPDEST SWAP3 POP POP POP SWAP5 SWAP4 POP POP POP POP JUMP JUMPDEST PUSH1 0x60 DUP4 ISZERO PUSH2 0x1A2D JUMPI PUSH1 0x0 DUP4 MLOAD SUB PUSH2 0x1A25 JUMPI PUSH2 0x19E5 DUP6 PUSH2 0x1A40 JUMP JUMPDEST PUSH2 0x1A24 JUMPI PUSH1 0x40 MLOAD PUSH32 0x8C379A000000000000000000000000000000000000000000000000000000000 DUP2 MSTORE PUSH1 0x4 ADD PUSH2 0x1A1B SWAP1 PUSH2 0x2520 JUMP JUMPDEST PUSH1 0x40 MLOAD DUP1 SWAP2 SUB SWAP1 REVERT JUMPDEST JUMPDEST DUP3 SWAP1 POP PUSH2 0x1A38 JUMP JUMPDEST PUSH2 0x1A37 DUP4 DUP4 PUSH2 0x1A63 JUMP JUMPDEST JUMPDEST SWAP5 SWAP4 POP POP POP POP JUMP JUMPDEST PUSH1 0x0 DUP1 DUP3 PUSH20 0xFFFFFFFFFFFFFFFFFFFFFFFFFFFFFFFFFFFFFFFF AND EXTCODESIZE GT SWAP1 POP SWAP2 SWAP1 POP JUMP JUMPDEST PUSH1 0x0 DUP3 MLOAD GT ISZERO PUSH2 0x1A76 JUMPI DUP2 MLOAD DUP1 DUP4 PUSH1 0x20 ADD REVERT JUMPDEST DUP1 PUSH1 0x40 MLOAD PUSH32 0x8C379A000000000000000000000000000000000000000000000000000000000 DUP2 MSTORE PUSH1 0x4 ADD PUSH2 0x1AAA SWAP2 SWAP1 PUSH2 0x2595 JUMP JUMPDEST PUSH1 0x40 MLOAD DUP1 SWAP2 SUB SWAP1 REVERT JUMPDEST PUSH1 0x40 MLOAD DUP1 PUSH1 0x40 ADD PUSH1 0x40 MSTORE DUP1 PUSH1 0x0 DUP2 MSTORE PUSH1 0x20 ADD PUSH1 0x60 DUP2 MSTORE POP SWAP1 JUMP JUMPDEST PUSH1 0x0 DUP2 SWAP1 POP SWAP2 SWAP1 POP JUMP JUMPDEST PUSH2 0x1AE0 DUP2 PUSH2 0x1ACD JUMP JUMPDEST DUP3 MSTORE POP POP JUMP JUMPDEST PUSH1 0x0 PUSH1 0x20 DUP3 ADD SWAP1 POP PUSH2 0x1AFB PUSH1 0x0 DUP4 ADD DUP5 PUSH2 0x1AD7 JUMP JUMPDEST SWAP3 SWAP2 POP POP JUMP JUMPDEST PUSH1 0x0 DUP1 REVERT JUMPDEST PUSH2 0x1B0F DUP2 PUSH2 0x1ACD JUMP JUMPDEST DUP2 EQ PUSH2 0x1B1A JUMPI PUSH1 0x0 DUP1 REVERT JUMPDEST POP JUMP JUMPDEST PUSH1 0x0 DUP2 CALLDATALOAD SWAP1 POP PUSH2 0x1B2C DUP2 PUSH2 0x1B06 JUMP JUMPDEST SWAP3 SWAP2 POP POP JUMP JUMPDEST PUSH1 0x0 DUP1 PUSH1 0x40 DUP4 DUP6 SUB SLT ISZERO PUSH2 0x1B49 JUMPI PUSH2 0x1B48 PUSH2 0x1B01 JUMP JUMPDEST JUMPDEST PUSH1 0x0 PUSH2 0x1B57 DUP6 DUP3 DUP7 ADD PUSH2 0x1B1D JUMP JUMPDEST SWAP3 POP POP PUSH1 0x20 PUSH2 0x1B68 DUP6 DUP3 DUP7 ADD PUSH2 0x1B1D JUMP JUMPDEST SWAP2 POP POP SWAP3 POP SWAP3 SWAP1 POP JUMP JUMPDEST PUSH1 0x0 PUSH20 0xFFFFFFFFFFFFFFFFFFFFFFFFFFFFFFFFFFFFFFFF DUP3 AND SWAP1 POP SWAP2 SWAP1 POP JUMP JUMPDEST PUSH1 0x0 PUSH2 0x1B9D DUP3 PUSH2 0x1B72 JUMP JUMPDEST SWAP1 POP SWAP2 SWAP1 POP JUMP JUMPDEST PUSH1 0x0 PUSH2 0x1BAF DUP3 PUSH2 0x1B92 JUMP JUMPDEST SWAP1 POP SWAP2 SWAP1 POP JUMP JUMPDEST PUSH2 0x1BBF DUP2 PUSH2 0x1BA4 JUMP JUMPDEST DUP2 EQ PUSH2 0x1BCA JUMPI PUSH1 0x0 DUP1 REVERT JUMPDEST POP JUMP JUMPDEST PUSH1 0x0 DUP2 CALLDATALOAD SWAP1 POP PUSH2 0x1BDC DUP2 PUSH2 0x1BB6 JUMP JUMPDEST SWAP3 SWAP2 POP POP JUMP JUMPDEST PUSH1 0x0 PUSH1 0x20 DUP3 DUP5 SUB SLT ISZERO PUSH2 0x1BF8 JUMPI PUSH2 0x1BF7 PUSH2 0x1B01 JUMP JUMPDEST JUMPDEST PUSH1 0x0 PUSH2 0x1C06 DUP5 DUP3 DUP6 ADD PUSH2 0x1BCD JUMP JUMPDEST SWAP2 POP POP SWAP3 SWAP2 POP POP JUMP JUMPDEST PUSH1 0x0 PUSH1 0x20 DUP3 DUP5 SUB SLT ISZERO PUSH2 0x1C25 JUMPI PUSH2 0x1C24 PUSH2 0x1B01 JUMP JUMPDEST JUMPDEST PUSH1 0x0 PUSH2 0x1C33 DUP5 DUP3 DUP6 ADD PUSH2 0x1B1D JUMP JUMPDEST SWAP2 POP POP SWAP3 SWAP2 POP POP JUMP JUMPDEST PUSH2 0x1C45 DUP2 PUSH2 0x1ACD JUMP JUMPDEST DUP3 MSTORE POP POP JUMP JUMPDEST PUSH1 0x0 DUP2 MLOAD SWAP1 POP SWAP2 SWAP1 POP JUMP JUMPDEST PUSH1 0x0 DUP3 DUP3 MSTORE PUSH1 0x20 DUP3 ADD SWAP1 POP SWAP3 SWAP2 POP POP JUMP JUMPDEST PUSH1 0x0 DUP2 SWAP1 POP PUSH1 0x20 DUP3 ADD SWAP1 POP SWAP2 SWAP1 POP JUMP JUMPDEST PUSH1 0x40 DUP3 ADD PUSH1 0x0 DUP3 ADD MLOAD PUSH2 0x1C8D PUSH1 0x0 DUP6 ADD DUP3 PUSH2 0x1C3C JUMP JUMPDEST POP PUSH1 0x20 DUP3 ADD MLOAD PUSH2 0x1CA0 PUSH1 0x20 DUP6 ADD DUP3 PUSH2 0x1C3C JUMP JUMPDEST POP POP POP POP JUMP JUMPDEST PUSH1 0x0 PUSH2 0x1CB2 DUP4 DUP4 PUSH2 0x1C77 JUMP JUMPDEST PUSH1 0x40 DUP4 ADD SWAP1 POP SWAP3 SWAP2 POP POP JUMP JUMPDEST PUSH1 0x0 PUSH1 0x20 DUP3 ADD SWAP1 POP SWAP2 SWAP1 POP JUMP JUMPDEST PUSH1 0x0 PUSH2 0x1CD6 DUP3 PUSH2 0x1C4B JUMP JUMPDEST PUSH2 0x1CE0 DUP2 DUP6 PUSH2 0x1C56 JUMP JUMPDEST SWAP4 POP PUSH2 0x1CEB DUP4 PUSH2 0x1C67 JUMP JUMPDEST DUP1 PUSH1 0x0 JUMPDEST DUP4 DUP2 LT ISZERO PUSH2 0x1D1C JUMPI DUP2 MLOAD PUSH2 0x1D03 DUP9 DUP3 PUSH2 0x1CA6 JUMP JUMPDEST SWAP8 POP PUSH2 0x1D0E DUP4 PUSH2 0x1CBE JUMP JUMPDEST SWAP3 POP POP PUSH1 0x1 DUP2 ADD SWAP1 POP PUSH2 0x1CEF JUMP JUMPDEST POP DUP6 SWAP4 POP POP POP POP SWAP3 SWAP2 POP POP JUMP JUMPDEST PUSH1 0x0 PUSH1 0x40 DUP4 ADD PUSH1 0x0 DUP4 ADD MLOAD PUSH2 0x1D41 PUSH1 0x0 DUP7 ADD DUP3 PUSH2 0x1C3C JUMP JUMPDEST POP PUSH1 0x20 DUP4 ADD MLOAD DUP5 DUP3 SUB PUSH1 0x20 DUP7 ADD MSTORE PUSH2 0x1D59 DUP3 DUP3 PUSH2 0x1CCB JUMP JUMPDEST SWAP2 POP POP DUP1 SWAP2 POP POP SWAP3 SWAP2 POP POP JUMP JUMPDEST PUSH1 0x0 PUSH1 0x20 DUP3 ADD SWAP1 POP DUP2 DUP2 SUB PUSH1 0x0 DUP4 ADD MSTORE PUSH2 0x1D80 DUP2 DUP5 PUSH2 0x1D29 JUMP JUMPDEST SWAP1 POP SWAP3 SWAP2 POP POP JUMP JUMPDEST PUSH1 0x0 DUP2 SWAP1 POP SWAP2 SWAP1 POP JUMP JUMPDEST PUSH1 0x0 PUSH2 0x1DAD PUSH2 0x1DA8 PUSH2 0x1DA3 DUP5 PUSH2 0x1B72 JUMP JUMPDEST PUSH2 0x1D88 JUMP JUMPDEST PUSH2 0x1B72 JUMP JUMPDEST SWAP1 POP SWAP2 SWAP1 POP JUMP JUMPDEST PUSH1 0x0 PUSH2 0x1DBF DUP3 PUSH2 0x1D92 JUMP JUMPDEST SWAP1 POP SWAP2 SWAP1 POP JUMP JUMPDEST PUSH1 0x0 PUSH2 0x1DD1 DUP3 PUSH2 0x1DB4 JUMP JUMPDEST SWAP1 POP SWAP2 SWAP1 POP JUMP JUMPDEST PUSH2 0x1DE1 DUP2 PUSH2 0x1DC6 JUMP JUMPDEST DUP3 MSTORE POP POP JUMP JUMPDEST PUSH1 0x0 PUSH1 0x20 DUP3 ADD SWAP1 POP PUSH2 0x1DFC PUSH1 0x0 DUP4 ADD DUP5 PUSH2 0x1DD8 JUMP JUMPDEST SWAP3 SWAP2 POP POP JUMP JUMPDEST PUSH1 0x0 PUSH2 0x1E0D DUP3 PUSH2 0x1DB4 JUMP JUMPDEST SWAP1 POP SWAP2 SWAP1 POP JUMP JUMPDEST PUSH2 0x1E1D DUP2 PUSH2 0x1E02 JUMP JUMPDEST DUP3 MSTORE POP POP JUMP JUMPDEST PUSH1 0x0 PUSH1 0x20 DUP3 ADD SWAP1 POP PUSH2 0x1E38 PUSH1 0x0 DUP4 ADD DUP5 PUSH2 0x1E14 JUMP JUMPDEST SWAP3 SWAP2 POP POP JUMP JUMPDEST PUSH2 0x1E47 DUP2 PUSH2 0x1B92 JUMP JUMPDEST DUP3 MSTORE POP POP JUMP JUMPDEST PUSH1 0x0 PUSH1 0x20 DUP3 ADD SWAP1 POP PUSH2 0x1E62 PUSH1 0x0 DUP4 ADD DUP5 PUSH2 0x1E3E JUMP JUMPDEST SWAP3 SWAP2 POP POP JUMP JUMPDEST PUSH2 0x1E71 DUP2 PUSH2 0x1B92 JUMP JUMPDEST DUP2 EQ PUSH2 0x1E7C JUMPI PUSH1 0x0 DUP1 REVERT JUMPDEST POP JUMP JUMPDEST PUSH1 0x0 DUP2 CALLDATALOAD SWAP1 POP PUSH2 0x1E8E DUP2 PUSH2 0x1E68 JUMP JUMPDEST SWAP3 SWAP2 POP POP JUMP JUMPDEST PUSH1 0x0 DUP1 PUSH1 0x40 DUP4 DUP6 SUB SLT ISZERO PUSH2 0x1EAB JUMPI PUSH2 0x1EAA PUSH2 0x1B01 JUMP JUMPDEST JUMPDEST PUSH1 0x0 PUSH2 0x1EB9 DUP6 DUP3 DUP7 ADD PUSH2 0x1B1D JUMP JUMPDEST SWAP3 POP POP PUSH1 0x20 PUSH2 0x1ECA DUP6 DUP3 DUP7 ADD PUSH2 0x1E7F JUMP JUMPDEST SWAP2 POP POP SWAP3 POP SWAP3 SWAP1 POP JUMP JUMPDEST PUSH1 0x0 PUSH1 0x60 DUP3 ADD SWAP1 POP PUSH2 0x1EE9 PUSH1 0x0 DUP4 ADD DUP7 PUSH2 0x1AD7 JUMP JUMPDEST PUSH2 0x1EF6 PUSH1 0x20 DUP4 ADD DUP6 PUSH2 0x1AD7 JUMP JUMPDEST PUSH2 0x1F03 PUSH1 0x40 DUP4 ADD DUP5 PUSH2 0x1AD7 JUMP JUMPDEST SWAP5 SWAP4 POP POP POP POP JUMP JUMPDEST PUSH1 0x0 PUSH1 0x20 DUP3 DUP5 SUB SLT ISZERO PUSH2 0x1F21 JUMPI PUSH2 0x1F20 PUSH2 0x1B01 JUMP JUMPDEST JUMPDEST PUSH1 0x0 PUSH2 0x1F2F DUP5 DUP3 DUP6 ADD PUSH2 0x1E7F JUMP JUMPDEST SWAP2 POP POP SWAP3 SWAP2 POP POP JUMP JUMPDEST PUSH32 0x4E487B7100000000000000000000000000000000000000000000000000000000 PUSH1 0x0 MSTORE PUSH1 0x32 PUSH1 0x4 MSTORE PUSH1 0x24 PUSH1 0x0 REVERT JUMPDEST PUSH1 0x0 DUP3 DUP3 MSTORE PUSH1 0x20 DUP3 ADD SWAP1 POP SWAP3 SWAP2 POP POP JUMP JUMPDEST PUSH32 0x42464C593A2053554646494349454E545F42414C414E43450000000000000000 PUSH1 0x0 DUP3 ADD MSTORE POP JUMP JUMPDEST PUSH1 0x0 PUSH2 0x1FAE PUSH1 0x18 DUP4 PUSH2 0x1F67 JUMP JUMPDEST SWAP2 POP PUSH2 0x1FB9 DUP3 PUSH2 0x1F78 JUMP JUMPDEST PUSH1 0x20 DUP3 ADD SWAP1 POP SWAP2 SWAP1 POP JUMP JUMPDEST PUSH1 0x0 PUSH1 0x20 DUP3 ADD SWAP1 POP DUP2 DUP2 SUB PUSH1 0x0 DUP4 ADD MSTORE PUSH2 0x1FDD DUP2 PUSH2 0x1FA1 JUMP JUMPDEST SWAP1 POP SWAP2 SWAP1 POP JUMP JUMPDEST PUSH32 0x4E487B7100000000000000000000000000000000000000000000000000000000 PUSH1 0x0 MSTORE PUSH1 0x11 PUSH1 0x4 MSTORE PUSH1 0x24 PUSH1 0x0 REVERT JUMPDEST PUSH1 0x0 PUSH2 0x201E DUP3 PUSH2 0x1ACD JUMP JUMPDEST SWAP2 POP PUSH2 0x2029 DUP4 PUSH2 0x1ACD JUMP JUMPDEST SWAP3 POP DUP3 DUP3 SUB SWAP1 POP DUP2 DUP2 GT ISZERO PUSH2 0x2041 JUMPI PUSH2 0x2040 PUSH2 0x1FE4 JUMP JUMPDEST JUMPDEST SWAP3 SWAP2 POP POP JUMP JUMPDEST PUSH1 0x0 PUSH2 0x2052 DUP3 PUSH2 0x1ACD JUMP JUMPDEST SWAP2 POP PUSH2 0x205D DUP4 PUSH2 0x1ACD JUMP JUMPDEST SWAP3 POP DUP3 DUP3 ADD SWAP1 POP DUP1 DUP3 GT ISZERO PUSH2 0x2075 JUMPI PUSH2 0x2074 PUSH2 0x1FE4 JUMP JUMPDEST JUMPDEST SWAP3 SWAP2 POP POP JUMP JUMPDEST PUSH1 0x0 PUSH2 0x2086 DUP3 PUSH2 0x1ACD JUMP JUMPDEST SWAP2 POP PUSH32 0xFFFFFFFFFFFFFFFFFFFFFFFFFFFFFFFFFFFFFFFFFFFFFFFFFFFFFFFFFFFFFFFF DUP3 SUB PUSH2 0x20B8 JUMPI PUSH2 0x20B7 PUSH2 0x1FE4 JUMP JUMPDEST JUMPDEST PUSH1 0x1 DUP3 ADD SWAP1 POP SWAP2 SWAP1 POP JUMP JUMPDEST PUSH32 0x4F776E61626C653A206E6577206F776E657220697320746865207A65726F2061 PUSH1 0x0 DUP3 ADD MSTORE PUSH32 0x6464726573730000000000000000000000000000000000000000000000000000 PUSH1 0x20 DUP3 ADD MSTORE POP JUMP JUMPDEST PUSH1 0x0 PUSH2 0x211F PUSH1 0x26 DUP4 PUSH2 0x1F67 JUMP JUMPDEST SWAP2 POP PUSH2 0x212A DUP3 PUSH2 0x20C3 JUMP JUMPDEST PUSH1 0x40 DUP3 ADD SWAP1 POP SWAP2 SWAP1 POP JUMP JUMPDEST PUSH1 0x0 PUSH1 0x20 DUP3 ADD SWAP1 POP DUP2 DUP2 SUB PUSH1 0x0 DUP4 ADD MSTORE PUSH2 0x214E DUP2 PUSH2 0x2112 JUMP JUMPDEST SWAP1 POP SWAP2 SWAP1 POP JUMP JUMPDEST PUSH32 0x4F776E61626C653A2063616C6C6572206973206E6F7420746865206F776E6572 PUSH1 0x0 DUP3 ADD MSTORE POP JUMP JUMPDEST PUSH1 0x0 PUSH2 0x218B PUSH1 0x20 DUP4 PUSH2 0x1F67 JUMP JUMPDEST SWAP2 POP PUSH2 0x2196 DUP3 PUSH2 0x2155 JUMP JUMPDEST PUSH1 0x20 DUP3 ADD SWAP1 POP SWAP2 SWAP1 POP JUMP JUMPDEST PUSH1 0x0 PUSH1 0x20 DUP3 ADD SWAP1 POP DUP2 DUP2 SUB PUSH1 0x0 DUP4 ADD MSTORE PUSH2 0x21BA DUP2 PUSH2 0x217E JUMP JUMPDEST SWAP1 POP SWAP2 SWAP1 POP JUMP JUMPDEST PUSH1 0x0 PUSH1 0x40 DUP3 ADD SWAP1 POP PUSH2 0x21D6 PUSH1 0x0 DUP4 ADD DUP6 PUSH2 0x1E3E JUMP JUMPDEST PUSH2 0x21E3 PUSH1 0x20 DUP4 ADD DUP5 PUSH2 0x1AD7 JUMP JUMPDEST SWAP4 SWAP3 POP POP POP JUMP JUMPDEST PUSH1 0x0 PUSH2 0x21F5 DUP3 PUSH2 0x1ACD JUMP JUMPDEST SWAP2 POP PUSH2 0x2200 DUP4 PUSH2 0x1ACD JUMP JUMPDEST SWAP3 POP DUP3 DUP3 MUL PUSH2 0x220E DUP2 PUSH2 0x1ACD JUMP JUMPDEST SWAP2 POP DUP3 DUP3 DIV DUP5 EQ DUP4 ISZERO OR PUSH2 0x2225 JUMPI PUSH2 0x2224 PUSH2 0x1FE4 JUMP JUMPDEST JUMPDEST POP SWAP3 SWAP2 POP POP JUMP JUMPDEST PUSH32 0x4E487B7100000000000000000000000000000000000000000000000000000000 PUSH1 0x0 MSTORE PUSH1 0x12 PUSH1 0x4 MSTORE PUSH1 0x24 PUSH1 0x0 REVERT JUMPDEST PUSH1 0x0 PUSH2 0x2266 DUP3 PUSH2 0x1ACD JUMP JUMPDEST SWAP2 POP PUSH2 0x2271 DUP4 PUSH2 0x1ACD JUMP JUMPDEST SWAP3 POP DUP3 PUSH2 0x2281 JUMPI PUSH2 0x2280 PUSH2 0x222C JUMP JUMPDEST JUMPDEST DUP3 DUP3 DIV SWAP1 POP SWAP3 SWAP2 POP POP JUMP JUMPDEST PUSH1 0x0 PUSH1 0x60 DUP3 ADD SWAP1 POP PUSH2 0x22A1 PUSH1 0x0 DUP4 ADD DUP7 PUSH2 0x1E3E JUMP JUMPDEST PUSH2 0x22AE PUSH1 0x20 DUP4 ADD DUP6 PUSH2 0x1E3E JUMP JUMPDEST PUSH2 0x22BB PUSH1 0x40 DUP4 ADD DUP5 PUSH2 0x1AD7 JUMP JUMPDEST SWAP5 SWAP4 POP POP POP POP JUMP JUMPDEST PUSH1 0x0 DUP2 ISZERO ISZERO SWAP1 POP SWAP2 SWAP1 POP JUMP JUMPDEST PUSH2 0x22D8 DUP2 PUSH2 0x22C3 JUMP JUMPDEST DUP2 EQ PUSH2 0x22E3 JUMPI PUSH1 0x0 DUP1 REVERT JUMPDEST POP JUMP JUMPDEST PUSH1 0x0 DUP2 MLOAD SWAP1 POP PUSH2 0x22F5 DUP2 PUSH2 0x22CF JUMP JUMPDEST SWAP3 SWAP2 POP POP JUMP JUMPDEST PUSH1 0x0 PUSH1 0x20 DUP3 DUP5 SUB SLT ISZERO PUSH2 0x2311 JUMPI PUSH2 0x2310 PUSH2 0x1B01 JUMP JUMPDEST JUMPDEST PUSH1 0x0 PUSH2 0x231F DUP5 DUP3 DUP6 ADD PUSH2 0x22E6 JUMP JUMPDEST SWAP2 POP POP SWAP3 SWAP2 POP POP JUMP JUMPDEST PUSH32 0x5361666542455032303A204245503230206F7065726174696F6E20646964206E PUSH1 0x0 DUP3 ADD MSTORE PUSH32 0x6F74207375636365656400000000000000000000000000000000000000000000 PUSH1 0x20 DUP3 ADD MSTORE POP JUMP JUMPDEST PUSH1 0x0 PUSH2 0x2384 PUSH1 0x2A DUP4 PUSH2 0x1F67 JUMP JUMPDEST SWAP2 POP PUSH2 0x238F DUP3 PUSH2 0x2328 JUMP JUMPDEST PUSH1 0x40 DUP3 ADD SWAP1 POP SWAP2 SWAP1 POP JUMP JUMPDEST PUSH1 0x0 PUSH1 0x20 DUP3 ADD SWAP1 POP DUP2 DUP2 SUB PUSH1 0x0 DUP4 ADD MSTORE PUSH2 0x23B3 DUP2 PUSH2 0x2377 JUMP JUMPDEST SWAP1 POP SWAP2 SWAP1 POP JUMP JUMPDEST PUSH32 0x416464726573733A20696E73756666696369656E742062616C616E636520666F PUSH1 0x0 DUP3 ADD MSTORE PUSH32 0x722063616C6C0000000000000000000000000000000000000000000000000000 PUSH1 0x20 DUP3 ADD MSTORE POP JUMP JUMPDEST PUSH1 0x0 PUSH2 0x2416 PUSH1 0x26 DUP4 PUSH2 0x1F67 JUMP JUMPDEST SWAP2 POP PUSH2 0x2421 DUP3 PUSH2 0x23BA JUMP JUMPDEST PUSH1 0x40 DUP3 ADD SWAP1 POP SWAP2 SWAP1 POP JUMP JUMPDEST PUSH1 0x0 PUSH1 0x20 DUP3 ADD SWAP1 POP DUP2 DUP2 SUB PUSH1 0x0 DUP4 ADD MSTORE PUSH2 0x2445 DUP2 PUSH2 0x2409 JUMP JUMPDEST SWAP1 POP SWAP2 SWAP1 POP JUMP JUMPDEST PUSH1 0x0 DUP2 MLOAD SWAP1 POP SWAP2 SWAP1 POP JUMP JUMPDEST PUSH1 0x0 DUP2 SWAP1 POP SWAP3 SWAP2 POP POP JUMP JUMPDEST PUSH1 0x0 JUMPDEST DUP4 DUP2 LT ISZERO PUSH2 0x2480 JUMPI DUP1 DUP3 ADD MLOAD DUP2 DUP5 ADD MSTORE PUSH1 0x20 DUP2 ADD SWAP1 POP PUSH2 0x2465 JUMP JUMPDEST PUSH1 0x0 DUP5 DUP5 ADD MSTORE POP POP POP POP JUMP JUMPDEST PUSH1 0x0 PUSH2 0x2497 DUP3 PUSH2 0x244C JUMP JUMPDEST PUSH2 0x24A1 DUP2 DUP6 PUSH2 0x2457 JUMP JUMPDEST SWAP4 POP PUSH2 0x24B1 DUP2 DUP6 PUSH1 0x20 DUP7 ADD PUSH2 0x2462 JUMP JUMPDEST DUP1 DUP5 ADD SWAP2 POP POP SWAP3 SWAP2 POP POP JUMP JUMPDEST PUSH1 0x0 PUSH2 0x24C9 DUP3 DUP5 PUSH2 0x248C JUMP JUMPDEST SWAP2 POP DUP2 SWAP1 POP SWAP3 SWAP2 POP POP JUMP JUMPDEST PUSH32 0x416464726573733A2063616C6C20746F206E6F6E2D636F6E7472616374000000 PUSH1 0x0 DUP3 ADD MSTORE POP JUMP JUMPDEST PUSH1 0x0 PUSH2 0x250A PUSH1 0x1D DUP4 PUSH2 0x1F67 JUMP JUMPDEST SWAP2 POP PUSH2 0x2515 DUP3 PUSH2 0x24D4 JUMP JUMPDEST PUSH1 0x20 DUP3 ADD SWAP1 POP SWAP2 SWAP1 POP JUMP JUMPDEST PUSH1 0x0 PUSH1 0x20 DUP3 ADD SWAP1 POP DUP2 DUP2 SUB PUSH1 0x0 DUP4 ADD MSTORE PUSH2 0x2539 DUP2 PUSH2 0x24FD JUMP JUMPDEST SWAP1 POP SWAP2 SWAP1 POP JUMP JUMPDEST PUSH1 0x0 DUP2 MLOAD SWAP1 POP SWAP2 SWAP1 POP JUMP JUMPDEST PUSH1 0x0 PUSH1 0x1F NOT PUSH1 0x1F DUP4 ADD AND SWAP1 POP SWAP2 SWAP1 POP JUMP JUMPDEST PUSH1 0x0 PUSH2 0x2567 DUP3 PUSH2 0x2540 JUMP JUMPDEST PUSH2 0x2571 DUP2 DUP6 PUSH2 0x1F67 JUMP JUMPDEST SWAP4 POP PUSH2 0x2581 DUP2 DUP6 PUSH1 0x20 DUP7 ADD PUSH2 0x2462 JUMP JUMPDEST PUSH2 0x258A DUP2 PUSH2 0x254B JUMP JUMPDEST DUP5 ADD SWAP2 POP POP SWAP3 SWAP2 POP POP JUMP JUMPDEST PUSH1 0x0 PUSH1 0x20 DUP3 ADD SWAP1 POP DUP2 DUP2 SUB PUSH1 0x0 DUP4 ADD MSTORE PUSH2 0x25AF DUP2 DUP5 PUSH2 0x255C JUMP JUMPDEST SWAP1 POP SWAP3 SWAP2 POP POP JUMP INVALID LOG2 PUSH5 0x6970667358 0x22 SLT KECCAK256 LT NOT 0xA6 0xFC JUMPI 0xBF DIFFICULTY 0x4C 0x1F 0xC6 LOG3 0xC0 REVERT LOG2 PUSH15 0x5D5FCB01D37E54F8F916221BBEDCC4 SIGNEXTEND 0xBC PUSH5 0x736F6C6343 STOP ADDMOD GT STOP CALLER "
				},
				"gasEstimates": {
					"creation": {
						"codeDepositCost": "1941800",
						"executionCost": "infinite",
						"totalCost": "infinite"
					},
					"external": {
						"BASE()": "439",
						"BONUS_MULTIPLIER()": "2452",
						"DENOMINATOR()": "418",
						"DENOMINATOR_TEST()": "417",
						"aadd()": "383",
						"add(uint256,uint256)": "infinite",
						"calculateReward(uint256,address)": "infinite",
						"deposit(uint256,uint256)": "infinite",
						"getMultiplier(uint256,uint256)": "infinite",
						"getPoolInfo(uint256)": "infinite",
						"migrator()": "infinite",
						"owner()": "2567",
						"para()": "infinite",
						"pendingReward(uint256,address)": "infinite",
						"poolLength()": "2469",
						"renounceOwnership()": "30465",
						"set(uint256,uint256)": "infinite",
						"setMigrator(address)": "27119",
						"transferOwnership(address)": "30876",
						"userInfo(uint256,address)": "infinite",
						"withdraw(uint256,uint256)": "infinite"
					},
					"internal": {
						"initialized()": "infinite"
					}
				},
				"methodIdentifiers": {
					"BASE()": "ec342ad0",
					"BONUS_MULTIPLIER()": "8aa28550",
					"DENOMINATOR()": "918f8674",
					"DENOMINATOR_TEST()": "e3d0b2bf",
					"aadd()": "14d20dc2",
					"add(uint256,uint256)": "771602f7",
					"calculateReward(uint256,address)": "a18f07a0",
					"deposit(uint256,uint256)": "e2bbb158",
					"getMultiplier(uint256,uint256)": "8dbb1e3a",
					"getPoolInfo(uint256)": "2f380b35",
					"migrator()": "7cd07e47",
					"owner()": "8da5cb5b",
					"para()": "3e3cca90",
					"pendingReward(uint256,address)": "98969e82",
					"poolLength()": "081e3eda",
					"renounceOwnership()": "715018a6",
					"set(uint256,uint256)": "1ab06ee5",
					"setMigrator(address)": "23cf3118",
					"transferOwnership(address)": "f2fde38b",
					"userInfo(uint256,address)": "93f1a40b",
					"withdraw(uint256,uint256)": "441a3e70"
				}
			},
			"storageLayout": {
				"storage": [
					{
						"astId": 7,
						"contract": "Stack.sol:LPMining",
						"label": "_owner",
						"offset": 0,
						"slot": "0",
						"type": "t_address"
					},
					{
						"astId": 825,
						"contract": "Stack.sol:LPMining",
						"label": "poolInfos",
						"offset": 0,
						"slot": "1",
						"type": "t_array(t_struct(PoolInfo)821_storage)dyn_storage"
					},
					{
						"astId": 832,
						"contract": "Stack.sol:LPMining",
						"label": "userInfo",
						"offset": 0,
						"slot": "2",
						"type": "t_mapping(t_uint256,t_mapping(t_address,t_struct(UserInfo)809_storage))"
					},
					{
						"astId": 836,
						"contract": "Stack.sol:LPMining",
						"label": "para",
						"offset": 0,
						"slot": "3",
						"type": "t_contract(IBEP20)1913"
					},
					{
						"astId": 840,
						"contract": "Stack.sol:LPMining",
						"label": "BONUS_MULTIPLIER",
						"offset": 0,
						"slot": "4",
						"type": "t_uint256"
					},
					{
						"astId": 844,
						"contract": "Stack.sol:LPMining",
						"label": "migrator",
						"offset": 0,
						"slot": "5",
						"type": "t_contract(IMigratorChef)1926"
					}
				],
				"types": {
					"t_address": {
						"encoding": "inplace",
						"label": "address",
						"numberOfBytes": "20"
					},
					"t_array(t_struct(AprInfo)814_storage)dyn_storage": {
						"base": "t_struct(AprInfo)814_storage",
						"encoding": "dynamic_array",
						"label": "struct LPMining.AprInfo[]",
						"numberOfBytes": "32"
					},
					"t_array(t_struct(PoolInfo)821_storage)dyn_storage": {
						"base": "t_struct(PoolInfo)821_storage",
						"encoding": "dynamic_array",
						"label": "struct LPMining.PoolInfo[]",
						"numberOfBytes": "32"
					},
					"t_contract(IBEP20)1913": {
						"encoding": "inplace",
						"label": "contract IBEP20",
						"numberOfBytes": "20"
					},
					"t_contract(IMigratorChef)1926": {
						"encoding": "inplace",
						"label": "contract IMigratorChef",
						"numberOfBytes": "20"
					},
					"t_mapping(t_address,t_struct(UserInfo)809_storage)": {
						"encoding": "mapping",
						"key": "t_address",
						"label": "mapping(address => struct LPMining.UserInfo)",
						"numberOfBytes": "32",
						"value": "t_struct(UserInfo)809_storage"
					},
					"t_mapping(t_uint256,t_mapping(t_address,t_struct(UserInfo)809_storage))": {
						"encoding": "mapping",
						"key": "t_uint256",
						"label": "mapping(uint256 => mapping(address => struct LPMining.UserInfo))",
						"numberOfBytes": "32",
						"value": "t_mapping(t_address,t_struct(UserInfo)809_storage)"
					},
					"t_struct(AprInfo)814_storage": {
						"encoding": "inplace",
						"label": "struct LPMining.AprInfo",
						"members": [
							{
								"astId": 811,
								"contract": "Stack.sol:LPMining",
								"label": "apr",
								"offset": 0,
								"slot": "0",
								"type": "t_uint256"
							},
							{
								"astId": 813,
								"contract": "Stack.sol:LPMining",
								"label": "time",
								"offset": 0,
								"slot": "1",
								"type": "t_uint256"
							}
						],
						"numberOfBytes": "64"
					},
					"t_struct(PoolInfo)821_storage": {
						"encoding": "inplace",
						"label": "struct LPMining.PoolInfo",
						"members": [
							{
								"astId": 816,
								"contract": "Stack.sol:LPMining",
								"label": "duration",
								"offset": 0,
								"slot": "0",
								"type": "t_uint256"
							},
							{
								"astId": 820,
								"contract": "Stack.sol:LPMining",
								"label": "aprs",
								"offset": 0,
								"slot": "1",
								"type": "t_array(t_struct(AprInfo)814_storage)dyn_storage"
							}
						],
						"numberOfBytes": "64"
					},
					"t_struct(UserInfo)809_storage": {
						"encoding": "inplace",
						"label": "struct LPMining.UserInfo",
						"members": [
							{
								"astId": 804,
								"contract": "Stack.sol:LPMining",
								"label": "amount",
								"offset": 0,
								"slot": "0",
								"type": "t_uint256"
							},
							{
								"astId": 806,
								"contract": "Stack.sol:LPMining",
								"label": "offset",
								"offset": 0,
								"slot": "1",
								"type": "t_uint256"
							},
							{
								"astId": 808,
								"contract": "Stack.sol:LPMining",
								"label": "lockStartTime",
								"offset": 0,
								"slot": "2",
								"type": "t_uint256"
							}
						],
						"numberOfBytes": "96"
					},
					"t_uint256": {
						"encoding": "inplace",
						"label": "uint256",
						"numberOfBytes": "32"
					}
				}
			},
			"userdoc": {
				"events": {
					"Deposit(address,uint256,uint256)": {
						"notice": "The block number when mining starts."
					}
				},
				"kind": "user",
				"methods": {
					"BONUS_MULTIPLIER()": {
						"notice": "Bonus muliplier for early ARC makers."
					},
					"migrator()": {
						"notice": "The migrator contract. It has a lot of power. Can only be set through governance (owner)."
					},
					"para()": {
						"notice": "The reward token!"
					}
				},
				"version": 1
			}
		}
	}
}