{
	"FixedTermStack.sol": {
		"FixedTermStack": {
			"abi": [
				{
					"inputs": [
						{
							"internalType": "contract IBEP20",
							"name": "_para",
							"type": "address"
						}
					],
					"stateMutability": "nonpayable",
					"type": "constructor"
				},
				{
					"anonymous": false,
					"inputs": [
						{
							"indexed": true,
							"internalType": "uint256",
							"name": "pid",
							"type": "uint256"
						},
						{
							"indexed": true,
							"internalType": "uint256",
							"name": "apr",
							"type": "uint256"
						},
						{
							"indexed": true,
							"internalType": "uint256",
							"name": "duration",
							"type": "uint256"
						}
					],
					"name": "AddPool",
					"type": "event"
				},
				{
					"anonymous": false,
					"inputs": [
						{
							"indexed": true,
							"internalType": "address",
							"name": "user",
							"type": "address"
						},
						{
							"indexed": true,
							"internalType": "uint256",
							"name": "pid",
							"type": "uint256"
						},
						{
							"indexed": false,
							"internalType": "uint256",
							"name": "amount",
							"type": "uint256"
						}
					],
					"name": "Deposit",
					"type": "event"
				},
				{
					"anonymous": false,
					"inputs": [
						{
							"indexed": true,
							"internalType": "address",
							"name": "previousOwner",
							"type": "address"
						},
						{
							"indexed": true,
							"internalType": "address",
							"name": "newOwner",
							"type": "address"
						}
					],
					"name": "OwnershipTransferred",
					"type": "event"
				},
				{
					"anonymous": false,
					"inputs": [
						{
							"indexed": true,
							"internalType": "uint256",
							"name": "pid",
							"type": "uint256"
						},
						{
							"indexed": true,
							"internalType": "uint256",
							"name": "apr",
							"type": "uint256"
						}
					],
					"name": "SetApr",
					"type": "event"
				},
				{
					"anonymous": false,
					"inputs": [
						{
							"indexed": true,
							"internalType": "address",
							"name": "user",
							"type": "address"
						},
						{
							"indexed": true,
							"internalType": "uint256",
							"name": "pid",
							"type": "uint256"
						},
						{
							"indexed": false,
							"internalType": "uint256",
							"name": "amount",
							"type": "uint256"
						}
					],
					"name": "Withdraw",
					"type": "event"
				},
				{
					"inputs": [],
					"name": "BASE",
					"outputs": [
						{
							"internalType": "uint256",
							"name": "",
							"type": "uint256"
						}
					],
					"stateMutability": "view",
					"type": "function"
				},
				{
					"inputs": [],
					"name": "DENOMINATOR",
					"outputs": [
						{
							"internalType": "uint256",
							"name": "",
							"type": "uint256"
						}
					],
					"stateMutability": "view",
					"type": "function"
				},
				{
					"inputs": [],
					"name": "DENOMINATOR_TEST",
					"outputs": [
						{
							"internalType": "uint256",
							"name": "",
							"type": "uint256"
						}
					],
					"stateMutability": "view",
					"type": "function"
				},
				{
					"inputs": [
						{
							"internalType": "uint256",
							"name": "_apr",
							"type": "uint256"
						},
						{
							"internalType": "uint256",
							"name": "_duration",
							"type": "uint256"
						}
					],
					"name": "addPool",
					"outputs": [],
					"stateMutability": "nonpayable",
					"type": "function"
				},
				{
					"inputs": [
						{
							"internalType": "uint256",
							"name": "_pid",
							"type": "uint256"
						},
						{
							"internalType": "address",
							"name": "_user",
							"type": "address"
						}
					],
					"name": "calculateReward",
					"outputs": [
						{
							"internalType": "uint256",
							"name": "reward",
							"type": "uint256"
						}
					],
					"stateMutability": "view",
					"type": "function"
				},
				{
					"inputs": [
						{
							"internalType": "uint256",
							"name": "_pid",
							"type": "uint256"
						},
						{
							"internalType": "uint256",
							"name": "_amount",
							"type": "uint256"
						}
					],
					"name": "deposit",
					"outputs": [],
					"stateMutability": "nonpayable",
					"type": "function"
				},
				{
					"inputs": [],
					"name": "getAllAmount",
					"outputs": [
						{
							"internalType": "uint256",
							"name": "allAmount",
							"type": "uint256"
						}
					],
					"stateMutability": "view",
					"type": "function"
				},
				{
					"inputs": [
						{
							"internalType": "uint256",
							"name": "_from",
							"type": "uint256"
						},
						{
							"internalType": "uint256",
							"name": "_to",
							"type": "uint256"
						}
					],
					"name": "getMultiplier",
					"outputs": [
						{
							"internalType": "uint256",
							"name": "",
							"type": "uint256"
						}
					],
					"stateMutability": "pure",
					"type": "function"
				},
				{
					"inputs": [
						{
							"internalType": "uint256",
							"name": "_pid",
							"type": "uint256"
						}
					],
					"name": "getPoolInfo",
					"outputs": [
						{
							"components": [
								{
									"internalType": "uint256",
									"name": "id",
									"type": "uint256"
								},
								{
									"internalType": "uint256",
									"name": "amount",
									"type": "uint256"
								},
								{
									"internalType": "uint256",
									"name": "duration",
									"type": "uint256"
								},
								{
									"components": [
										{
											"internalType": "uint256",
											"name": "apr",
											"type": "uint256"
										},
										{
											"internalType": "uint256",
											"name": "time",
											"type": "uint256"
										}
									],
									"internalType": "struct FixedTermStack.AprInfo[]",
									"name": "aprs",
									"type": "tuple[]"
								}
							],
							"internalType": "struct FixedTermStack.PoolInfo",
							"name": "info",
							"type": "tuple"
						}
					],
					"stateMutability": "view",
					"type": "function"
				},
				{
					"inputs": [],
					"name": "owner",
					"outputs": [
						{
							"internalType": "address",
							"name": "",
							"type": "address"
						}
					],
					"stateMutability": "view",
					"type": "function"
				},
				{
					"inputs": [],
					"name": "para",
					"outputs": [
						{
							"internalType": "contract IBEP20",
							"name": "",
							"type": "address"
						}
					],
					"stateMutability": "view",
					"type": "function"
				},
				{
					"inputs": [
						{
							"internalType": "uint256",
							"name": "_pid",
							"type": "uint256"
						},
						{
							"internalType": "address",
							"name": "_user",
							"type": "address"
						}
					],
					"name": "pendingReward",
					"outputs": [
						{
							"internalType": "uint256",
							"name": "reward",
							"type": "uint256"
						}
					],
					"stateMutability": "view",
					"type": "function"
				},
				{
					"inputs": [],
					"name": "poolLength",
					"outputs": [
						{
							"internalType": "uint256",
							"name": "",
							"type": "uint256"
						}
					],
					"stateMutability": "view",
					"type": "function"
				},
				{
					"inputs": [
						{
							"internalType": "address",
							"name": "_tokenAddress",
							"type": "address"
						},
						{
							"internalType": "uint256",
							"name": "_tokenAmount",
							"type": "uint256"
						}
					],
					"name": "recoverWrongTokens",
					"outputs": [],
					"stateMutability": "nonpayable",
					"type": "function"
				},
				{
					"inputs": [],
					"name": "renounceOwnership",
					"outputs": [],
					"stateMutability": "nonpayable",
					"type": "function"
				},
				{
					"inputs": [
						{
							"internalType": "uint256",
							"name": "_pid",
							"type": "uint256"
						},
						{
							"internalType": "uint256",
							"name": "_apr",
							"type": "uint256"
						}
					],
					"name": "setApr",
					"outputs": [],
					"stateMutability": "nonpayable",
					"type": "function"
				},
				{
					"inputs": [
						{
							"internalType": "address",
							"name": "newOwner",
							"type": "address"
						}
					],
					"name": "transferOwnership",
					"outputs": [],
					"stateMutability": "nonpayable",
					"type": "function"
				},
				{
					"inputs": [
						{
							"internalType": "uint256",
							"name": "",
							"type": "uint256"
						},
						{
							"internalType": "address",
							"name": "",
							"type": "address"
						}
					],
					"name": "userInfo",
					"outputs": [
						{
							"internalType": "uint256",
							"name": "amount",
							"type": "uint256"
						},
						{
							"internalType": "uint256",
							"name": "lockStartTime",
							"type": "uint256"
						},
						{
							"internalType": "uint256",
							"name": "offset",
							"type": "uint256"
						}
					],
					"stateMutability": "view",
					"type": "function"
				},
				{
					"inputs": [
						{
							"internalType": "uint256",
							"name": "_pid",
							"type": "uint256"
						},
						{
							"internalType": "uint256",
							"name": "_amount",
							"type": "uint256"
						}
					],
					"name": "withdraw",
					"outputs": [],
					"stateMutability": "nonpayable",
					"type": "function"
				}
			],
			"devdoc": {
				"kind": "dev",
				"methods": {
					"deposit(uint256,uint256)": {
						"details": "Deposit LP tokens to LPMining for bfly allocation."
					},
					"getMultiplier(uint256,uint256)": {
						"details": "Return reward multiplier over the given _from to _to block."
					},
					"owner()": {
						"details": "Returns the address of the current owner."
					},
					"pendingReward(uint256,address)": {
						"details": "View function to see pending rewards on frontend."
					},
					"poolLength()": {
						"details": "Number of the pools"
					},
					"renounceOwnership()": {
						"details": "Leaves the contract without owner. It will not be possible to call `onlyOwner` functions anymore. Can only be called by the current owner. NOTE: Renouncing ownership will leave the contract without an owner, thereby removing any functionality that is only available to the owner."
					},
					"setApr(uint256,uint256)": {
						"details": "Update the given pool's BFLY allocation point. Can only be called by the owner."
					},
					"transferOwnership(address)": {
						"details": "Transfers ownership of the contract to a new account (`newOwner`). Can only be called by the current owner."
					},
					"withdraw(uint256,uint256)": {
						"details": "Withdraw LP tokens from MasterChef."
					}
				},
				"version": 1
			},
			"evm": {
				"assembly": "    /* \"FixedTermStack.sol\":306:10124  contract FixedTermStack is Ownable {... */\n  mstore(0x40, 0x80)\n    /* \"FixedTermStack.sol\":2411:2512  constructor(... */\n  callvalue\n  dup1\n  iszero\n  tag_1\n  jumpi\n  0x00\n  dup1\n  revert\ntag_1:\n  pop\n  mload(0x40)\n  sub(codesize, bytecodeSize)\n  dup1\n  bytecodeSize\n  dup4\n  codecopy\n  dup2\n  add\n  0x40\n  dup2\n  swap1\n  mstore\n  tag_2\n  swap2\n  tag_3\n  jump\t// in\ntag_2:\n    /* \"@openzeppelin/contracts/access/Ownable.sol\":936:968  _transferOwnership(_msgSender()) */\n  tag_7\n    /* \"@openzeppelin/contracts/utils/Context.sol\":719:729  msg.sender */\n  caller\n    /* \"@openzeppelin/contracts/access/Ownable.sol\":936:954  _transferOwnership */\n  tag_10\n    /* \"@openzeppelin/contracts/access/Ownable.sol\":936:968  _transferOwnership(_msgSender()) */\n  jump\t// in\ntag_7:\n    /* \"FixedTermStack.sol\":2466:2470  para */\n  0x03\n    /* \"FixedTermStack.sol\":2466:2478  para = _para */\n  dup1\n  sload\n  not(sub(shl(0xa0, 0x01), 0x01))\n  and\n  sub(shl(0xa0, 0x01), 0x01)\n  dup4\n  and\n  or\n  swap1\n  sstore\n    /* \"FixedTermStack.sol\":2491:2504  initialized() */\n  tag_12\n    /* \"FixedTermStack.sol\":2576:2585  poolInfos */\n  0x01\n    /* \"FixedTermStack.sol\":2576:2592  poolInfos.length */\n  dup1\n  sload\n    /* \"FixedTermStack.sol\":2624:2640  poolInfos.push() */\n  dup1\n  dup3\n  add\n  dup3\n  sstore\n    /* \"FixedTermStack.sol\":2665:2693  AprInfo(20, block.timestamp) */\n  0x40\n  dup1\n  mload\n  dup1\n  dup3\n  add\n  swap1\n  swap2\n  mstore\n    /* \"FixedTermStack.sol\":2673:2675  20 */\n  0x14\n    /* \"FixedTermStack.sol\":2665:2693  AprInfo(20, block.timestamp) */\n  dup2\n  mstore\n    /* \"FixedTermStack.sol\":2677:2692  block.timestamp */\n  timestamp\n    /* \"FixedTermStack.sol\":2624:2640  poolInfos.push() */\n  0x20\n    /* \"FixedTermStack.sol\":2665:2693  AprInfo(20, block.timestamp) */\n  dup1\n  dup4\n  add\n  swap2\n  dup3\n  mstore\n    /* \"FixedTermStack.sol\":2624:2640  poolInfos.push() */\n  0x04\n  dup5\n  mul\n    /* \"FixedTermStack.sol\":2653:2659  p.aprs */\n  0xb10e2d527612073b26eecdfd717e6a320cf44b4afac2b0732d9fcbe2b7fa0cf9\n  dup2\n  add\n    /* \"FixedTermStack.sol\":2653:2694  p.aprs.push(AprInfo(20, block.timestamp)) */\n  dup1\n  sload\n  dup1\n  dup9\n  add\n  dup3\n  sstore\n  0x00\n  swap2\n  dup3\n  mstore\n  swap3\n  dup2\n  keccak256\n  swap5\n  mload\n  0x02\n  swap1\n  swap4\n  mul\n  swap1\n  swap5\n  add\n  swap2\n  dup3\n  sstore\n  swap2\n  mload\n  swap5\n  add\n  swap4\n  swap1\n  swap4\n  sstore\n    /* \"FixedTermStack.sol\":2718:2731  5 * 1 minutes */\n  0x012c\n    /* \"FixedTermStack.sol\":2705:2715  p.duration */\n  0xb10e2d527612073b26eecdfd717e6a320cf44b4afac2b0732d9fcbe2b7fa0cf8\n  dup5\n  add\n    /* \"FixedTermStack.sol\":2705:2731  p.duration = 5 * 1 minutes */\n  sstore\n    /* \"FixedTermStack.sol\":2624:2640  poolInfos.push() */\n  0xb10e2d527612073b26eecdfd717e6a320cf44b4afac2b0732d9fcbe2b7fa0cf6\n  dup4\n  add\n    /* \"FixedTermStack.sol\":2742:2752  p.id = _id */\n  swap2\n  swap1\n  swap2\n  sstore\n    /* \"FixedTermStack.sol\":2763:2771  p.amount */\n  0xb10e2d527612073b26eecdfd717e6a320cf44b4afac2b0732d9fcbe2b7fa0cf7\n  swap1\n  swap2\n  add\n    /* \"FixedTermStack.sol\":2763:2775  p.amount = 0 */\n  sstore\n    /* \"FixedTermStack.sol\":2522:2787  function initialized()private {... */\n  jump\n    /* \"FixedTermStack.sol\":2491:2504  initialized() */\ntag_12:\n    /* \"FixedTermStack.sol\":2411:2512  constructor(... */\n  pop\n    /* \"FixedTermStack.sol\":306:10124  contract FixedTermStack is Ownable {... */\n  jump(tag_20)\n    /* \"@openzeppelin/contracts/access/Ownable.sol\":2433:2620  function _transferOwnership(address newOwner) internal virtual {... */\ntag_10:\n    /* \"@openzeppelin/contracts/access/Ownable.sol\":2506:2522  address oldOwner */\n  0x00\n    /* \"@openzeppelin/contracts/access/Ownable.sol\":2525:2531  _owner */\n  dup1\n  sload\n  sub(shl(0xa0, 0x01), 0x01)\n    /* \"@openzeppelin/contracts/access/Ownable.sol\":2541:2558  _owner = newOwner */\n  dup4\n  dup2\n  and\n  not(sub(shl(0xa0, 0x01), 0x01))\n  dup4\n  and\n  dup2\n  or\n  dup5\n  sstore\n    /* \"@openzeppelin/contracts/access/Ownable.sol\":2573:2613  OwnershipTransferred(oldOwner, newOwner) */\n  mload(0x40)\n    /* \"@openzeppelin/contracts/access/Ownable.sol\":2525:2531  _owner */\n  swap2\n  swap1\n  swap3\n  and\n  swap3\n  dup4\n  swap2\n    /* \"@openzeppelin/contracts/access/Ownable.sol\":2573:2613  OwnershipTransferred(oldOwner, newOwner) */\n  0x8be0079c531659141344cd1fd0a4f28419497f9722a3daafe3b4186f6b6457e0\n  swap2\n    /* \"@openzeppelin/contracts/access/Ownable.sol\":2506:2522  address oldOwner */\n  swap1\n    /* \"@openzeppelin/contracts/access/Ownable.sol\":2573:2613  OwnershipTransferred(oldOwner, newOwner) */\n  log3\n    /* \"@openzeppelin/contracts/access/Ownable.sol\":2496:2620  {... */\n  pop\n    /* \"@openzeppelin/contracts/access/Ownable.sol\":2433:2620  function _transferOwnership(address newOwner) internal virtual {... */\n  pop\n  jump\t// out\n    /* \"#utility.yul\":14:319   */\ntag_3:\n    /* \"#utility.yul\":99:105   */\n  0x00\n    /* \"#utility.yul\":152:154   */\n  0x20\n    /* \"#utility.yul\":140:149   */\n  dup3\n    /* \"#utility.yul\":131:138   */\n  dup5\n    /* \"#utility.yul\":127:150   */\n  sub\n    /* \"#utility.yul\":123:155   */\n  slt\n    /* \"#utility.yul\":120:172   */\n  iszero\n  tag_22\n  jumpi\n    /* \"#utility.yul\":168:169   */\n  0x00\n    /* \"#utility.yul\":165:166   */\n  dup1\n    /* \"#utility.yul\":158:170   */\n  revert\n    /* \"#utility.yul\":120:172   */\ntag_22:\n    /* \"#utility.yul\":194:210   */\n  dup2\n  mload\n  sub(shl(0xa0, 0x01), 0x01)\n    /* \"#utility.yul\":239:270   */\n  dup2\n  and\n    /* \"#utility.yul\":229:271   */\n  dup2\n  eq\n    /* \"#utility.yul\":219:289   */\n  tag_23\n  jumpi\n    /* \"#utility.yul\":285:286   */\n  0x00\n    /* \"#utility.yul\":282:283   */\n  dup1\n    /* \"#utility.yul\":275:287   */\n  revert\n    /* \"#utility.yul\":219:289   */\ntag_23:\n    /* \"#utility.yul\":308:313   */\n  swap4\n    /* \"#utility.yul\":14:319   */\n  swap3\n  pop\n  pop\n  pop\n  jump\t// out\ntag_20:\n    /* \"FixedTermStack.sol\":306:10124  contract FixedTermStack is Ownable {... */\n  dataSize(sub_0)\n  dup1\n  dataOffset(sub_0)\n  0x00\n  codecopy\n  0x00\n  return\nstop\n\nsub_0: assembly {\n        /* \"FixedTermStack.sol\":306:10124  contract FixedTermStack is Ownable {... */\n      mstore(0x40, 0x80)\n      callvalue\n      dup1\n      iszero\n      tag_1\n      jumpi\n      0x00\n      dup1\n      revert\n    tag_1:\n      pop\n      jumpi(tag_2, lt(calldatasize, 0x04))\n      shr(0xe0, calldataload(0x00))\n      dup1\n      0x8dbb1e3a\n      gt\n      tag_22\n      jumpi\n      dup1\n      0xcfbb3dbd\n      gt\n      tag_23\n      jumpi\n      dup1\n      0xcfbb3dbd\n      eq\n      tag_17\n      jumpi\n      dup1\n      0xe2bbb158\n      eq\n      tag_18\n      jumpi\n      dup1\n      0xe3d0b2bf\n      eq\n      tag_19\n      jumpi\n      dup1\n      0xec342ad0\n      eq\n      tag_20\n      jumpi\n      dup1\n      0xf2fde38b\n      eq\n      tag_21\n      jumpi\n      0x00\n      dup1\n      revert\n    tag_23:\n      dup1\n      0x8dbb1e3a\n      eq\n      tag_12\n      jumpi\n      dup1\n      0x918f8674\n      eq\n      tag_13\n      jumpi\n      dup1\n      0x93f1a40b\n      eq\n      tag_14\n      jumpi\n      dup1\n      0x98969e82\n      eq\n      tag_15\n      jumpi\n      dup1\n      0xa18f07a0\n      eq\n      tag_16\n      jumpi\n      0x00\n      dup1\n      revert\n    tag_22:\n      dup1\n      0x441a3e70\n      gt\n      tag_24\n      jumpi\n      dup1\n      0x441a3e70\n      eq\n      tag_7\n      jumpi\n      dup1\n      0x51166d78\n      eq\n      tag_8\n      jumpi\n      dup1\n      0x6d89dbc5\n      eq\n      tag_9\n      jumpi\n      dup1\n      0x715018a6\n      eq\n      tag_10\n      jumpi\n      dup1\n      0x8da5cb5b\n      eq\n      tag_11\n      jumpi\n      0x00\n      dup1\n      revert\n    tag_24:\n      dup1\n      0x081e3eda\n      eq\n      tag_3\n      jumpi\n      dup1\n      0x2f380b35\n      eq\n      tag_4\n      jumpi\n      dup1\n      0x3e3cca90\n      eq\n      tag_5\n      jumpi\n      dup1\n      0x3f138d4b\n      eq\n      tag_6\n      jumpi\n    tag_2:\n      0x00\n      dup1\n      revert\n        /* \"FixedTermStack.sol\":2857:2953  function poolLength() external view returns (uint256) {... */\n    tag_3:\n        /* \"FixedTermStack.sol\":2929:2938  poolInfos */\n      0x01\n        /* \"FixedTermStack.sol\":2929:2945  poolInfos.length */\n      sload\n        /* \"FixedTermStack.sol\":2857:2953  function poolLength() external view returns (uint256) {... */\n    tag_25:\n      mload(0x40)\n        /* \"#utility.yul\":160:185   */\n      swap1\n      dup2\n      mstore\n        /* \"#utility.yul\":148:150   */\n      0x20\n        /* \"#utility.yul\":133:151   */\n      add\n        /* \"FixedTermStack.sol\":2857:2953  function poolLength() external view returns (uint256) {... */\n    tag_27:\n      mload(0x40)\n      dup1\n      swap2\n      sub\n      swap1\n      return\n        /* \"FixedTermStack.sol\":2961:3081  function getPoolInfo(uint256 _pid) external view returns (PoolInfo memory info){... */\n    tag_4:\n      tag_29\n      tag_30\n      calldatasize\n      0x04\n      tag_31\n      jump\t// in\n    tag_30:\n      tag_32\n      jump\t// in\n    tag_29:\n      mload(0x40)\n      tag_27\n      swap2\n      swap1\n      tag_34\n      jump\t// in\n        /* \"FixedTermStack.sol\":1972:1990  IBEP20 public para */\n    tag_5:\n      sload(0x03)\n      tag_35\n      swap1\n      sub(shl(0xa0, 0x01), 0x01)\n      and\n      dup2\n      jump\n    tag_35:\n      mload(0x40)\n      sub(shl(0xa0, 0x01), 0x01)\n        /* \"#utility.yul\":1600:1632   */\n      swap1\n      swap2\n      and\n        /* \"#utility.yul\":1582:1633   */\n      dup2\n      mstore\n        /* \"#utility.yul\":1570:1572   */\n      0x20\n        /* \"#utility.yul\":1555:1573   */\n      add\n        /* \"FixedTermStack.sol\":1972:1990  IBEP20 public para */\n      tag_27\n        /* \"#utility.yul\":1421:1639   */\n      jump\n        /* \"FixedTermStack.sol\":8920:9180  function recoverWrongTokens(address _tokenAddress, uint256 _tokenAmount) external onlyOwner {... */\n    tag_6:\n      tag_39\n      tag_40\n      calldatasize\n      0x04\n      tag_41\n      jump\t// in\n    tag_40:\n      tag_42\n      jump\t// in\n    tag_39:\n      stop\n        /* \"FixedTermStack.sol\":8014:8910  function withdraw(uint256 _pid, uint256 _amount) public {... */\n    tag_7:\n      tag_39\n      tag_44\n      calldatasize\n      0x04\n      tag_45\n      jump\t// in\n    tag_44:\n      tag_46\n      jump\t// in\n        /* \"FixedTermStack.sol\":9188:9367  function getAllAmount()public view returns(uint256 allAmount){... */\n    tag_8:\n      tag_25\n      tag_48\n      jump\t// in\n        /* \"FixedTermStack.sol\":9377:9735  function addPool(uint256 _apr, uint256 _duration) external  onlyOwner {... */\n    tag_9:\n      tag_39\n      tag_51\n      calldatasize\n      0x04\n      tag_45\n      jump\t// in\n    tag_51:\n      tag_52\n      jump\t// in\n        /* \"@openzeppelin/contracts/access/Ownable.sol\":1831:1932  function renounceOwnership() public virtual onlyOwner {... */\n    tag_10:\n      tag_39\n      tag_54\n      jump\t// in\n        /* \"@openzeppelin/contracts/access/Ownable.sol\":1201:1286  function owner() public view virtual returns (address) {... */\n    tag_11:\n        /* \"@openzeppelin/contracts/access/Ownable.sol\":1247:1254  address */\n      0x00\n        /* \"@openzeppelin/contracts/access/Ownable.sol\":1273:1279  _owner */\n      sload\n      sub(shl(0xa0, 0x01), 0x01)\n      and\n        /* \"@openzeppelin/contracts/access/Ownable.sol\":1201:1286  function owner() public view virtual returns (address) {... */\n      jump(tag_35)\n        /* \"FixedTermStack.sol\":3187:3308  function getMultiplier(uint256 _from, uint256 _to) public pure returns (uint256) {... */\n    tag_12:\n      tag_25\n      tag_60\n      calldatasize\n      0x04\n      tag_45\n      jump\t// in\n    tag_60:\n      tag_61\n      jump\t// in\n        /* \"FixedTermStack.sol\":536:582  uint256 public constant DENOMINATOR = 365 days */\n    tag_13:\n      tag_25\n        /* \"FixedTermStack.sol\":574:582  365 days */\n      0x01e13380\n        /* \"FixedTermStack.sol\":536:582  uint256 public constant DENOMINATOR = 365 days */\n      dup2\n      jump\n        /* \"FixedTermStack.sol\":1851:1917  mapping (uint256 => mapping (address => UserInfo)) public userInfo */\n    tag_14:\n      tag_66\n      tag_67\n      calldatasize\n      0x04\n      tag_68\n      jump\t// in\n    tag_67:\n      0x02\n      0x20\n      dup2\n      dup2\n      mstore\n      0x00\n      swap4\n      dup5\n      mstore\n      0x40\n      dup1\n      dup6\n      keccak256\n      swap1\n      swap2\n      mstore\n      swap2\n      dup4\n      mstore\n      swap2\n      keccak256\n      dup1\n      sload\n      0x01\n      dup3\n      add\n      sload\n      swap2\n      swap1\n      swap3\n      add\n      sload\n      dup4\n      jump\n    tag_66:\n      0x40\n      dup1\n      mload\n        /* \"#utility.yul\":3003:3028   */\n      swap4\n      dup5\n      mstore\n        /* \"#utility.yul\":3059:3061   */\n      0x20\n        /* \"#utility.yul\":3044:3062   */\n      dup5\n      add\n        /* \"#utility.yul\":3037:3071   */\n      swap3\n      swap1\n      swap3\n      mstore\n        /* \"#utility.yul\":3087:3105   */\n      swap1\n      dup3\n      add\n        /* \"#utility.yul\":3080:3114   */\n      mstore\n        /* \"#utility.yul\":2991:2993   */\n      0x60\n        /* \"#utility.yul\":2976:2994   */\n      add\n        /* \"FixedTermStack.sol\":1851:1917  mapping (uint256 => mapping (address => UserInfo)) public userInfo */\n      tag_27\n        /* \"#utility.yul\":2801:3120   */\n      jump\n        /* \"FixedTermStack.sol\":3397:4832  function pendingReward(uint256 _pid, address _user) external view returns (uint256 reward) {... */\n    tag_15:\n      tag_25\n      tag_73\n      calldatasize\n      0x04\n      tag_68\n      jump\t// in\n    tag_73:\n      tag_74\n      jump\t// in\n        /* \"FixedTermStack.sol\":4842:6784  function calculateReward(uint256 _pid, address _user) public view returns (uint256 reward) {... */\n    tag_16:\n      tag_25\n      tag_77\n      calldatasize\n      0x04\n      tag_68\n      jump\t// in\n    tag_77:\n      tag_78\n      jump\t// in\n        /* \"FixedTermStack.sol\":9854:10117  function setApr(uint256 _pid, uint256 _apr) public onlyOwner {... */\n    tag_17:\n      tag_39\n      tag_81\n      calldatasize\n      0x04\n      tag_45\n      jump\t// in\n    tag_81:\n      tag_82\n      jump\t// in\n        /* \"FixedTermStack.sol\":6874:7939  function deposit(uint256 _pid, uint256 _amount) public {... */\n    tag_18:\n      tag_39\n      tag_84\n      calldatasize\n      0x04\n      tag_45\n      jump\t// in\n    tag_84:\n      tag_85\n      jump\t// in\n        /* \"FixedTermStack.sol\":636:689  uint256 public constant DENOMINATOR_TEST = 10 minutes */\n    tag_19:\n      tag_25\n        /* \"FixedTermStack.sol\":679:689  10 minutes */\n      0x0258\n        /* \"FixedTermStack.sol\":636:689  uint256 public constant DENOMINATOR_TEST = 10 minutes */\n      dup2\n      jump\n        /* \"FixedTermStack.sol\":593:627  uint256 public constant BASE = 100 */\n    tag_20:\n      tag_25\n        /* \"FixedTermStack.sol\":624:627  100 */\n      0x64\n        /* \"FixedTermStack.sol\":593:627  uint256 public constant BASE = 100 */\n      dup2\n      jump\n        /* \"@openzeppelin/contracts/access/Ownable.sol\":2081:2279  function transferOwnership(address newOwner) public virtual onlyOwner {... */\n    tag_21:\n      tag_39\n      tag_93\n      calldatasize\n      0x04\n      tag_94\n      jump\t// in\n    tag_93:\n      tag_95\n      jump\t// in\n        /* \"FixedTermStack.sol\":2961:3081  function getPoolInfo(uint256 _pid) external view returns (PoolInfo memory info){... */\n    tag_32:\n        /* \"FixedTermStack.sol\":3019:3039  PoolInfo memory info */\n      tag_97\n      mload(0x40)\n      dup1\n      0x80\n      add\n      0x40\n      mstore\n      dup1\n      0x00\n      dup2\n      mstore\n      0x20\n      add\n      0x00\n      dup2\n      mstore\n      0x20\n      add\n      0x00\n      dup2\n      mstore\n      0x20\n      add\n      0x60\n      dup2\n      mstore\n      pop\n      swap1\n      jump\n    tag_97:\n        /* \"FixedTermStack.sol\":3058:3067  poolInfos */\n      0x01\n        /* \"FixedTermStack.sol\":3068:3072  _pid */\n      dup3\n        /* \"FixedTermStack.sol\":3058:3073  poolInfos[_pid] */\n      dup2\n      sload\n      dup2\n      lt\n      tag_101\n      jumpi\n      tag_101\n      tag_102\n      jump\t// in\n    tag_101:\n      swap1\n      0x00\n      mstore\n      keccak256(0x00, 0x20)\n      swap1\n      0x04\n      mul\n      add\n        /* \"FixedTermStack.sol\":3051:3073  return poolInfos[_pid] */\n      mload(0x40)\n      dup1\n      0x80\n      add\n      0x40\n      mstore\n      swap1\n      dup2\n      0x00\n      dup3\n      add\n      sload\n      dup2\n      mstore\n      0x20\n      add\n      0x01\n      dup3\n      add\n      sload\n      dup2\n      mstore\n      0x20\n      add\n      0x02\n      dup3\n      add\n      sload\n      dup2\n      mstore\n      0x20\n      add\n      0x03\n      dup3\n      add\n      dup1\n      sload\n      dup1\n      0x20\n      mul\n      0x20\n      add\n      mload(0x40)\n      swap1\n      dup2\n      add\n      0x40\n      mstore\n      dup1\n      swap3\n      swap2\n      swap1\n      dup2\n      dup2\n      mstore\n      0x20\n      add\n      0x00\n      swap1\n    tag_104:\n      dup3\n      dup3\n      lt\n      iszero\n      tag_105\n      jumpi\n      dup4\n      dup3\n      swap1\n      0x00\n      mstore\n      keccak256(0x00, 0x20)\n      swap1\n      0x02\n      mul\n      add\n      mload(0x40)\n      dup1\n      0x40\n      add\n      0x40\n      mstore\n      swap1\n      dup2\n      0x00\n      dup3\n      add\n      sload\n      dup2\n      mstore\n      0x20\n      add\n      0x01\n      dup3\n      add\n      sload\n      dup2\n      mstore\n      pop\n      pop\n      dup2\n      mstore\n      0x20\n      add\n      swap1\n      0x01\n      add\n      swap1\n      jump(tag_104)\n    tag_105:\n      pop\n      pop\n      pop\n      swap2\n      mstore\n      pop\n      swap1\n      swap4\n        /* \"FixedTermStack.sol\":2961:3081  function getPoolInfo(uint256 _pid) external view returns (PoolInfo memory info){... */\n      swap3\n      pop\n      pop\n      pop\n      jump\t// out\n        /* \"FixedTermStack.sol\":8920:9180  function recoverWrongTokens(address _tokenAddress, uint256 _tokenAmount) external onlyOwner {... */\n    tag_42:\n        /* \"@openzeppelin/contracts/access/Ownable.sol\":1094:1107  _checkOwner() */\n      tag_108\n        /* \"@openzeppelin/contracts/access/Ownable.sol\":1094:1105  _checkOwner */\n      tag_109\n        /* \"@openzeppelin/contracts/access/Ownable.sol\":1094:1107  _checkOwner() */\n      jump\t// in\n    tag_108:\n        /* \"FixedTermStack.sol\":9056:9060  para */\n      sload(0x03)\n      sub(shl(0xa0, 0x01), 0x01)\n      swap1\n      dup2\n      and\n        /* \"FixedTermStack.sol\":9031:9061  _tokenAddress != address(para) */\n      swap1\n      dup4\n      and\n      sub\n        /* \"FixedTermStack.sol\":9023:9088  require(_tokenAddress != address(para), \"Cannot be staked token\") */\n      tag_111\n      jumpi\n      mload(0x40)\n      shl(0xe5, 0x461bcd)\n      dup2\n      mstore\n        /* \"#utility.yul\":3650:3652   */\n      0x20\n        /* \"FixedTermStack.sol\":9023:9088  require(_tokenAddress != address(para), \"Cannot be staked token\") */\n      0x04\n      dup3\n      add\n        /* \"#utility.yul\":3632:3653   */\n      mstore\n        /* \"#utility.yul\":3689:3691   */\n      0x16\n        /* \"#utility.yul\":3669:3687   */\n      0x24\n      dup3\n      add\n        /* \"#utility.yul\":3662:3692   */\n      mstore\n      shl(0x51, 0x21b0b73737ba1031329039ba30b5b2b2103a37b5b2b7)\n        /* \"#utility.yul\":3708:3726   */\n      0x44\n      dup3\n      add\n        /* \"#utility.yul\":3701:3753   */\n      mstore\n        /* \"#utility.yul\":3770:3788   */\n      0x64\n      add\n        /* \"FixedTermStack.sol\":9023:9088  require(_tokenAddress != address(para), \"Cannot be staked token\") */\n    tag_112:\n      mload(0x40)\n      dup1\n      swap2\n      sub\n      swap1\n      revert\n    tag_111:\n        /* \"FixedTermStack.sol\":9101:9170  IBEP20(_tokenAddress).safeTransfer(address(msg.sender), _tokenAmount) */\n      tag_114\n      sub(shl(0xa0, 0x01), 0x01)\n        /* \"FixedTermStack.sol\":9101:9135  IBEP20(_tokenAddress).safeTransfer */\n      dup4\n      and\n        /* \"FixedTermStack.sol\":9144:9154  msg.sender */\n      caller\n        /* \"FixedTermStack.sol\":9157:9169  _tokenAmount */\n      dup4\n        /* \"FixedTermStack.sol\":9101:9135  IBEP20(_tokenAddress).safeTransfer */\n      tag_115\n        /* \"FixedTermStack.sol\":9101:9170  IBEP20(_tokenAddress).safeTransfer(address(msg.sender), _tokenAmount) */\n      jump\t// in\n    tag_114:\n        /* \"FixedTermStack.sol\":8920:9180  function recoverWrongTokens(address _tokenAddress, uint256 _tokenAmount) external onlyOwner {... */\n      pop\n      pop\n      jump\t// out\n        /* \"FixedTermStack.sol\":8014:8910  function withdraw(uint256 _pid, uint256 _amount) public {... */\n    tag_46:\n        /* \"FixedTermStack.sol\":8081:8102  PoolInfo storage pool */\n      0x00\n        /* \"FixedTermStack.sol\":8105:8114  poolInfos */\n      0x01\n        /* \"FixedTermStack.sol\":8115:8119  _pid */\n      dup4\n        /* \"FixedTermStack.sol\":8105:8120  poolInfos[_pid] */\n      dup2\n      sload\n      dup2\n      lt\n      tag_118\n      jumpi\n      tag_118\n      tag_102\n      jump\t// in\n    tag_118:\n      0x00\n      swap2\n      dup3\n      mstore\n      0x20\n      dup1\n      dup4\n      keccak256\n        /* \"FixedTermStack.sol\":8155:8169  userInfo[_pid] */\n      dup7\n      dup5\n      mstore\n        /* \"FixedTermStack.sol\":8155:8163  userInfo */\n      0x02\n        /* \"FixedTermStack.sol\":8155:8169  userInfo[_pid] */\n      dup3\n      mstore\n      0x40\n      dup1\n      dup6\n      keccak256\n        /* \"FixedTermStack.sol\":8170:8180  msg.sender */\n      caller\n        /* \"FixedTermStack.sol\":8155:8181  userInfo[_pid][msg.sender] */\n      dup7\n      mstore\n      swap1\n      swap3\n      mstore\n      swap3\n      keccak256\n        /* \"FixedTermStack.sol\":8200:8211  user.amount */\n      dup1\n      sload\n        /* \"FixedTermStack.sol\":8105:8120  poolInfos[_pid] */\n      0x04\n      swap1\n      swap3\n      mul\n      swap1\n      swap3\n      add\n      swap3\n      pop\n        /* \"FixedTermStack.sol\":8200:8222  user.amount >= _amount */\n      dup4\n      gt\n      iszero\n        /* \"FixedTermStack.sol\":8192:8261  require(user.amount >= _amount, \"FixedTermStack: SUFFICIENT_BALANCE\") */\n      tag_120\n      jumpi\n      mload(0x40)\n      shl(0xe5, 0x461bcd)\n      dup2\n      mstore\n        /* \"#utility.yul\":4001:4003   */\n      0x20\n        /* \"FixedTermStack.sol\":8192:8261  require(user.amount >= _amount, \"FixedTermStack: SUFFICIENT_BALANCE\") */\n      0x04\n      dup3\n      add\n        /* \"#utility.yul\":3983:4004   */\n      mstore\n        /* \"#utility.yul\":4040:4042   */\n      0x22\n        /* \"#utility.yul\":4020:4038   */\n      0x24\n      dup3\n      add\n        /* \"#utility.yul\":4013:4043   */\n      mstore\n        /* \"#utility.yul\":4079:4113   */\n      0x46697865645465726d537461636b3a2053554646494349454e545f42414c414e\n        /* \"#utility.yul\":4059:4077   */\n      0x44\n      dup3\n      add\n        /* \"#utility.yul\":4052:4114   */\n      mstore\n      shl(0xf0, 0x4345)\n        /* \"#utility.yul\":4130:4148   */\n      0x64\n      dup3\n      add\n        /* \"#utility.yul\":4123:4155   */\n      mstore\n        /* \"#utility.yul\":4172:4191   */\n      0x84\n      add\n        /* \"FixedTermStack.sol\":8192:8261  require(user.amount >= _amount, \"FixedTermStack: SUFFICIENT_BALANCE\") */\n      tag_112\n        /* \"#utility.yul\":3799:4197   */\n      jump\n        /* \"FixedTermStack.sol\":8192:8261  require(user.amount >= _amount, \"FixedTermStack: SUFFICIENT_BALANCE\") */\n    tag_120:\n        /* \"FixedTermStack.sol\":8316:8331  block.timestamp */\n      timestamp\n        /* \"FixedTermStack.sol\":8277:8314  user.lockStartTime.add(pool.duration) */\n      tag_123\n        /* \"FixedTermStack.sol\":8300:8304  pool */\n      dup4\n        /* \"FixedTermStack.sol\":8300:8313  pool.duration */\n      0x02\n      add\n      sload\n        /* \"FixedTermStack.sol\":8277:8281  user */\n      dup4\n        /* \"FixedTermStack.sol\":8277:8295  user.lockStartTime */\n      0x01\n      add\n      sload\n        /* \"FixedTermStack.sol\":8277:8299  user.lockStartTime.add */\n      tag_124\n      swap1\n        /* \"FixedTermStack.sol\":8277:8314  user.lockStartTime.add(pool.duration) */\n      swap2\n      swap1\n      0xffffffff\n      and\n      jump\t// in\n    tag_123:\n        /* \"FixedTermStack.sol\":8277:8331  user.lockStartTime.add(pool.duration)> block.timestamp */\n      gt\n        /* \"FixedTermStack.sol\":8274:8577  if(user.lockStartTime.add(pool.duration)> block.timestamp){... */\n      iszero\n      tag_125\n      jumpi\n        /* \"FixedTermStack.sol\":8378:8393  uint256 pending */\n      0x00\n        /* \"FixedTermStack.sol\":8396:8428  calculateReward(_pid,msg.sender) */\n      tag_126\n        /* \"FixedTermStack.sol\":8412:8416  _pid */\n      dup6\n        /* \"FixedTermStack.sol\":8417:8427  msg.sender */\n      caller\n        /* \"FixedTermStack.sol\":8396:8411  calculateReward */\n      tag_78\n        /* \"FixedTermStack.sol\":8396:8428  calculateReward(_pid,msg.sender) */\n      jump\t// in\n    tag_126:\n        /* \"FixedTermStack.sol\":8378:8428  uint256 pending = calculateReward(_pid,msg.sender) */\n      swap1\n      pop\n        /* \"FixedTermStack.sol\":8450:8461  pending > 0 */\n      dup1\n      iszero\n        /* \"FixedTermStack.sol\":8447:8552  if(pending > 0) {... */\n      tag_128\n      jumpi\n        /* \"FixedTermStack.sol\":8493:8497  para */\n      sload(0x03)\n        /* \"FixedTermStack.sol\":8486:8532  IBEP20(para).safeTransfer(msg.sender, pending) */\n      tag_128\n      swap1\n      sub(shl(0xa0, 0x01), 0x01)\n        /* \"FixedTermStack.sol\":8493:8497  para */\n      and\n        /* \"FixedTermStack.sol\":8512:8522  msg.sender */\n      caller\n        /* \"FixedTermStack.sol\":8524:8531  pending */\n      dup4\n        /* \"FixedTermStack.sol\":8486:8511  IBEP20(para).safeTransfer */\n      tag_115\n        /* \"FixedTermStack.sol\":8486:8532  IBEP20(para).safeTransfer(msg.sender, pending) */\n      jump\t// in\n    tag_128:\n        /* \"FixedTermStack.sol\":8332:8577  {... */\n      pop\n        /* \"FixedTermStack.sol\":8274:8577  if(user.lockStartTime.add(pool.duration)> block.timestamp){... */\n    tag_125:\n        /* \"FixedTermStack.sol\":8603:8614  user.amount */\n      dup1\n      sload\n        /* \"FixedTermStack.sol\":8603:8627  user.amount.sub(_amount) */\n      tag_129\n      swap1\n        /* \"FixedTermStack.sol\":8619:8626  _amount */\n      dup5\n        /* \"FixedTermStack.sol\":8603:8618  user.amount.sub */\n      tag_130\n        /* \"FixedTermStack.sol\":8603:8627  user.amount.sub(_amount) */\n      jump\t// in\n    tag_129:\n        /* \"FixedTermStack.sol\":8589:8627  user.amount = user.amount.sub(_amount) */\n      dup2\n      sstore\n        /* \"FixedTermStack.sol\":8659:8674  block.timestamp */\n      timestamp\n        /* \"FixedTermStack.sol\":8638:8656  user.lockStartTime */\n      0x01\n      dup1\n      dup4\n      add\n        /* \"FixedTermStack.sol\":8638:8674  user.lockStartTime = block.timestamp */\n      swap2\n      swap1\n      swap2\n      sstore\n        /* \"FixedTermStack.sol\":8699:8708  pool.aprs */\n      0x03\n      dup4\n      add\n        /* \"FixedTermStack.sol\":8699:8715  pool.aprs.length */\n      sload\n        /* \"FixedTermStack.sol\":8699:8719  pool.aprs.length - 1 */\n      tag_131\n      swap2\n        /* \"FixedTermStack.sol\":8638:8656  user.lockStartTime */\n      swap1\n        /* \"FixedTermStack.sol\":8699:8719  pool.aprs.length - 1 */\n      tag_132\n      jump\t// in\n    tag_131:\n        /* \"FixedTermStack.sol\":8685:8696  user.offset */\n      0x02\n      dup3\n      add\n        /* \"FixedTermStack.sol\":8685:8719  user.offset = pool.aprs.length - 1 */\n      sstore\n        /* \"FixedTermStack.sol\":8744:8755  pool.amount */\n      0x01\n      dup3\n      add\n      sload\n        /* \"FixedTermStack.sol\":8744:8768  pool.amount.sub(_amount) */\n      tag_133\n      swap1\n        /* \"FixedTermStack.sol\":8760:8767  _amount */\n      dup5\n        /* \"FixedTermStack.sol\":8744:8759  pool.amount.sub */\n      tag_130\n        /* \"FixedTermStack.sol\":8744:8768  pool.amount.sub(_amount) */\n      jump\t// in\n    tag_133:\n        /* \"FixedTermStack.sol\":8730:8741  pool.amount */\n      0x01\n      dup4\n      add\n        /* \"FixedTermStack.sol\":8730:8768  pool.amount = pool.amount.sub(_amount) */\n      sstore\n        /* \"FixedTermStack.sol\":8800:8804  para */\n      sload(0x03)\n        /* \"FixedTermStack.sol\":8793:8839  IBEP20(para).safeTransfer(msg.sender, _amount) */\n      tag_134\n      swap1\n      sub(shl(0xa0, 0x01), 0x01)\n        /* \"FixedTermStack.sol\":8800:8804  para */\n      and\n        /* \"FixedTermStack.sol\":8819:8829  msg.sender */\n      caller\n        /* \"FixedTermStack.sol\":8831:8838  _amount */\n      dup6\n        /* \"FixedTermStack.sol\":8793:8818  IBEP20(para).safeTransfer */\n      tag_115\n        /* \"FixedTermStack.sol\":8793:8839  IBEP20(para).safeTransfer(msg.sender, _amount) */\n      jump\t// in\n    tag_134:\n        /* \"FixedTermStack.sol\":8857:8892  Withdraw(msg.sender, _pid, _amount) */\n      mload(0x40)\n        /* \"#utility.yul\":160:185   */\n      dup4\n      dup2\n      mstore\n        /* \"FixedTermStack.sol\":8878:8882  _pid */\n      dup5\n      swap1\n        /* \"FixedTermStack.sol\":8866:8876  msg.sender */\n      caller\n      swap1\n        /* \"FixedTermStack.sol\":8857:8892  Withdraw(msg.sender, _pid, _amount) */\n      0xf279e6a1f5e320cca91135676d9cb6e44ca8a08c0b88342bcdb1144f6511b568\n      swap1\n        /* \"#utility.yul\":148:150   */\n      0x20\n        /* \"#utility.yul\":133:151   */\n      add\n        /* \"FixedTermStack.sol\":8857:8892  Withdraw(msg.sender, _pid, _amount) */\n    tag_135:\n      mload(0x40)\n      dup1\n      swap2\n      sub\n      swap1\n      log3\n        /* \"FixedTermStack.sol\":8070:8910  {... */\n      pop\n      pop\n        /* \"FixedTermStack.sol\":8014:8910  function withdraw(uint256 _pid, uint256 _amount) public {... */\n      pop\n      pop\n      jump\t// out\n        /* \"FixedTermStack.sol\":9188:9367  function getAllAmount()public view returns(uint256 allAmount){... */\n    tag_48:\n        /* \"FixedTermStack.sol\":9231:9248  uint256 allAmount */\n      0x00\n      dup1\n        /* \"FixedTermStack.sol\":9260:9360  for(uint i = 0; i < poolInfos.length;i++){... */\n    tag_137:\n        /* \"FixedTermStack.sol\":9280:9289  poolInfos */\n      0x01\n        /* \"FixedTermStack.sol\":9280:9296  poolInfos.length */\n      sload\n        /* \"FixedTermStack.sol\":9276:9296  i < poolInfos.length */\n      dup2\n      lt\n        /* \"FixedTermStack.sol\":9260:9360  for(uint i = 0; i < poolInfos.length;i++){... */\n      iszero\n      tag_138\n      jumpi\n        /* \"FixedTermStack.sol\":9329:9338  poolInfos */\n      0x01\n        /* \"FixedTermStack.sol\":9339:9340  i */\n      dup2\n        /* \"FixedTermStack.sol\":9329:9341  poolInfos[i] */\n      dup2\n      sload\n      dup2\n      lt\n      tag_141\n      jumpi\n      tag_141\n      tag_102\n      jump\t// in\n    tag_141:\n      swap1\n      0x00\n      mstore\n      keccak256(0x00, 0x20)\n      swap1\n      0x04\n      mul\n      add\n        /* \"FixedTermStack.sol\":9329:9348  poolInfos[i].amount */\n      0x01\n      add\n      sload\n        /* \"FixedTermStack.sol\":9316:9348  allAmount += poolInfos[i].amount */\n      dup3\n      tag_143\n      swap2\n      swap1\n      tag_144\n      jump\t// in\n    tag_143:\n      swap2\n      pop\n        /* \"FixedTermStack.sol\":9297:9300  i++ */\n      dup1\n      tag_145\n      dup2\n      tag_146\n      jump\t// in\n    tag_145:\n      swap2\n      pop\n      pop\n        /* \"FixedTermStack.sol\":9260:9360  for(uint i = 0; i < poolInfos.length;i++){... */\n      jump(tag_137)\n    tag_138:\n      pop\n        /* \"FixedTermStack.sol\":9188:9367  function getAllAmount()public view returns(uint256 allAmount){... */\n      swap1\n      jump\t// out\n        /* \"FixedTermStack.sol\":9377:9735  function addPool(uint256 _apr, uint256 _duration) external  onlyOwner {... */\n    tag_52:\n        /* \"@openzeppelin/contracts/access/Ownable.sol\":1094:1107  _checkOwner() */\n      tag_148\n        /* \"@openzeppelin/contracts/access/Ownable.sol\":1094:1105  _checkOwner */\n      tag_109\n        /* \"@openzeppelin/contracts/access/Ownable.sol\":1094:1107  _checkOwner() */\n      jump\t// in\n    tag_148:\n        /* \"FixedTermStack.sol\":9471:9480  poolInfos */\n      0x01\n        /* \"FixedTermStack.sol\":9471:9487  poolInfos.length */\n      dup1\n      sload\n        /* \"FixedTermStack.sol\":9519:9535  poolInfos.push() */\n      dup1\n      dup3\n      add\n      dup3\n      sstore\n        /* \"FixedTermStack.sol\":9560:9590  AprInfo(_apr, block.timestamp) */\n      0x40\n      dup1\n      mload\n      dup1\n      dup3\n      add\n      swap1\n      swap2\n      mstore\n      dup5\n      dup2\n      mstore\n        /* \"FixedTermStack.sol\":9574:9589  block.timestamp */\n      timestamp\n        /* \"FixedTermStack.sol\":9519:9535  poolInfos.push() */\n      0x20\n        /* \"FixedTermStack.sol\":9560:9590  AprInfo(_apr, block.timestamp) */\n      dup1\n      dup4\n      add\n      swap2\n      dup3\n      mstore\n        /* \"FixedTermStack.sol\":9519:9535  poolInfos.push() */\n      0x04\n      dup5\n      mul\n        /* \"FixedTermStack.sol\":9548:9554  p.aprs */\n      0xb10e2d527612073b26eecdfd717e6a320cf44b4afac2b0732d9fcbe2b7fa0cf9\n      dup2\n      add\n        /* \"FixedTermStack.sol\":9548:9591  p.aprs.push(AprInfo(_apr, block.timestamp)) */\n      dup1\n      sload\n      dup1\n      dup9\n      add\n      dup3\n      sstore\n      0x00\n      swap2\n      dup3\n      mstore\n      swap3\n      swap1\n      keccak256\n      swap4\n      mload\n      0x02\n      swap1\n      swap3\n      mul\n      swap1\n      swap4\n      add\n      swap1\n      dup2\n      sstore\n      swap1\n      mload\n      swap4\n      add\n      swap3\n      swap1\n      swap3\n      sstore\n        /* \"FixedTermStack.sol\":9471:9487  poolInfos.length */\n      swap1\n        /* \"FixedTermStack.sol\":9519:9535  poolInfos.push() */\n      0xb10e2d527612073b26eecdfd717e6a320cf44b4afac2b0732d9fcbe2b7fa0cf6\n      add\n        /* \"FixedTermStack.sol\":9615:9636  _duration * 1 minutes */\n      tag_152\n        /* \"FixedTermStack.sol\":9615:9624  _duration */\n      dup4\n        /* \"FixedTermStack.sol\":9627:9636  1 minutes */\n      0x3c\n        /* \"FixedTermStack.sol\":9615:9636  _duration * 1 minutes */\n      tag_153\n      jump\t// in\n    tag_152:\n        /* \"FixedTermStack.sol\":9602:9612  p.duration */\n      0x02\n      dup3\n      add\n        /* \"FixedTermStack.sol\":9602:9636  p.duration = _duration * 1 minutes */\n      sstore\n        /* \"FixedTermStack.sol\":9647:9657  p.id = _id */\n      dup2\n      dup2\n      sstore\n        /* \"FixedTermStack.sol\":9647:9651  p.id */\n      0x00\n        /* \"FixedTermStack.sol\":9668:9676  p.amount */\n      0x01\n      dup3\n      add\n        /* \"FixedTermStack.sol\":9668:9680  p.amount = 0 */\n      dup2\n      swap1\n      sstore\n        /* \"FixedTermStack.sol\":9698:9725  AddPool(_id,_apr,_duration) */\n      mload(0x40)\n        /* \"FixedTermStack.sol\":9715:9724  _duration */\n      dup5\n      swap2\n        /* \"FixedTermStack.sol\":9710:9714  _apr */\n      dup7\n      swap2\n        /* \"FixedTermStack.sol\":9654:9657  _id */\n      dup6\n      swap2\n        /* \"FixedTermStack.sol\":9698:9725  AddPool(_id,_apr,_duration) */\n      0x4d93067d0d628fe42c457623322c0f22ad92f71762a2eebe06e2a0e7d2aa61c7\n      swap2\n      log4\n        /* \"FixedTermStack.sol\":9447:9735  {... */\n      pop\n      pop\n        /* \"FixedTermStack.sol\":9377:9735  function addPool(uint256 _apr, uint256 _duration) external  onlyOwner {... */\n      pop\n      pop\n      jump\t// out\n        /* \"@openzeppelin/contracts/access/Ownable.sol\":1831:1932  function renounceOwnership() public virtual onlyOwner {... */\n    tag_54:\n        /* \"@openzeppelin/contracts/access/Ownable.sol\":1094:1107  _checkOwner() */\n      tag_155\n        /* \"@openzeppelin/contracts/access/Ownable.sol\":1094:1105  _checkOwner */\n      tag_109\n        /* \"@openzeppelin/contracts/access/Ownable.sol\":1094:1107  _checkOwner() */\n      jump\t// in\n    tag_155:\n        /* \"@openzeppelin/contracts/access/Ownable.sol\":1895:1925  _transferOwnership(address(0)) */\n      tag_157\n        /* \"@openzeppelin/contracts/access/Ownable.sol\":1922:1923  0 */\n      0x00\n        /* \"@openzeppelin/contracts/access/Ownable.sol\":1895:1913  _transferOwnership */\n      tag_158\n        /* \"@openzeppelin/contracts/access/Ownable.sol\":1895:1925  _transferOwnership(address(0)) */\n      jump\t// in\n    tag_157:\n        /* \"@openzeppelin/contracts/access/Ownable.sol\":1831:1932  function renounceOwnership() public virtual onlyOwner {... */\n      jump\t// out\n        /* \"FixedTermStack.sol\":3187:3308  function getMultiplier(uint256 _from, uint256 _to) public pure returns (uint256) {... */\n    tag_61:\n        /* \"FixedTermStack.sol\":3259:3266  uint256 */\n      0x00\n        /* \"FixedTermStack.sol\":3286:3300  _to.sub(_from) */\n      tag_161\n        /* \"FixedTermStack.sol\":3286:3289  _to */\n      dup3\n        /* \"FixedTermStack.sol\":3294:3299  _from */\n      dup5\n        /* \"FixedTermStack.sol\":3286:3293  _to.sub */\n      tag_130\n        /* \"FixedTermStack.sol\":3286:3300  _to.sub(_from) */\n      jump\t// in\n    tag_161:\n        /* \"FixedTermStack.sol\":3279:3300  return _to.sub(_from) */\n      swap1\n      pop\n        /* \"FixedTermStack.sol\":3187:3308  function getMultiplier(uint256 _from, uint256 _to) public pure returns (uint256) {... */\n    tag_160:\n      swap3\n      swap2\n      pop\n      pop\n      jump\t// out\n        /* \"FixedTermStack.sol\":3397:4832  function pendingReward(uint256 _pid, address _user) external view returns (uint256 reward) {... */\n    tag_74:\n        /* \"FixedTermStack.sol\":3472:3486  uint256 reward */\n      0x00\n        /* \"FixedTermStack.sol\":3499:3520  PoolInfo storage pool */\n      dup1\n        /* \"FixedTermStack.sol\":3523:3532  poolInfos */\n      0x01\n        /* \"FixedTermStack.sol\":3533:3537  _pid */\n      dup5\n        /* \"FixedTermStack.sol\":3523:3538  poolInfos[_pid] */\n      dup2\n      sload\n      dup2\n      lt\n      tag_164\n      jumpi\n      tag_164\n      tag_102\n      jump\t// in\n    tag_164:\n      0x00\n      swap2\n      dup3\n      mstore\n      0x20\n      dup1\n      dup4\n      keccak256\n        /* \"FixedTermStack.sol\":3573:3587  userInfo[_pid] */\n      dup8\n      dup5\n      mstore\n        /* \"FixedTermStack.sol\":3573:3581  userInfo */\n      0x02\n        /* \"FixedTermStack.sol\":3573:3587  userInfo[_pid] */\n      dup3\n      mstore\n      0x40\n      dup1\n      dup6\n      keccak256\n      sub(shl(0xa0, 0x01), 0x01)\n        /* \"FixedTermStack.sol\":3573:3594  userInfo[_pid][_user] */\n      dup10\n      and\n      dup7\n      mstore\n      swap1\n      swap3\n      mstore\n      swap1\n      dup4\n      keccak256\n        /* \"FixedTermStack.sol\":3523:3538  poolInfos[_pid] */\n      0x04\n      swap3\n      swap1\n      swap3\n      mul\n      add\n        /* \"FixedTermStack.sol\":3619:3628  pool.aprs */\n      0x03\n      dup2\n      add\n        /* \"FixedTermStack.sol\":3619:3635  pool.aprs.length */\n      dup1\n      sload\n        /* \"FixedTermStack.sol\":3723:3741  user.lockStartTime */\n      0x01\n      dup1\n      dup6\n      add\n      sload\n        /* \"FixedTermStack.sol\":3523:3538  poolInfos[_pid] */\n      swap4\n      swap7\n      pop\n        /* \"FixedTermStack.sol\":3573:3594  userInfo[_pid][_user] */\n      swap4\n      swap5\n        /* \"FixedTermStack.sol\":3619:3635  pool.aprs.length */\n      swap1\n      swap4\n        /* \"FixedTermStack.sol\":3523:3538  poolInfos[_pid] */\n      swap1\n      swap3\n      dup4\n      swap3\n        /* \"FixedTermStack.sol\":3723:3741  user.lockStartTime */\n      swap1\n      swap2\n        /* \"FixedTermStack.sol\":3709:3714  len-1 */\n      tag_166\n      swap1\n        /* \"FixedTermStack.sol\":3619:3635  pool.aprs.length */\n      dup7\n        /* \"FixedTermStack.sol\":3709:3714  len-1 */\n      tag_132\n      jump\t// in\n    tag_166:\n        /* \"FixedTermStack.sol\":3699:3715  pool.aprs[len-1] */\n      dup2\n      sload\n      dup2\n      lt\n      tag_168\n      jumpi\n      tag_168\n      tag_102\n      jump\t// in\n    tag_168:\n      swap1\n      0x00\n      mstore\n      keccak256(0x00, 0x20)\n      swap1\n      0x02\n      mul\n      add\n        /* \"FixedTermStack.sol\":3699:3720  pool.aprs[len-1].time */\n      0x01\n      add\n      sload\n        /* \"FixedTermStack.sol\":3699:3741  pool.aprs[len-1].time < user.lockStartTime */\n      lt\n        /* \"FixedTermStack.sol\":3695:3997  if (pool.aprs[len-1].time < user.lockStartTime){... */\n      iszero\n      tag_170\n      jumpi\n        /* \"FixedTermStack.sol\":3770:3819  getMultiplier(user.lockStartTime,block.timestamp) */\n      tag_171\n        /* \"FixedTermStack.sol\":3784:3788  user */\n      dup5\n        /* \"FixedTermStack.sol\":3784:3802  user.lockStartTime */\n      0x01\n      add\n      sload\n        /* \"FixedTermStack.sol\":3803:3818  block.timestamp */\n      timestamp\n        /* \"FixedTermStack.sol\":3770:3783  getMultiplier */\n      tag_61\n        /* \"FixedTermStack.sol\":3770:3819  getMultiplier(user.lockStartTime,block.timestamp) */\n      jump\t// in\n    tag_171:\n        /* \"FixedTermStack.sol\":3884:3895  user.amount */\n      dup5\n      sload\n        /* \"FixedTermStack.sol\":3757:3819  multiplier = getMultiplier(user.lockStartTime,block.timestamp) */\n      swap1\n      swap3\n      pop\n        /* \"FixedTermStack.sol\":3843:3896  multiplier.mul(pool.aprs[len-1].apr).mul(user.amount) */\n      tag_172\n      swap1\n        /* \"FixedTermStack.sol\":3843:3879  multiplier.mul(pool.aprs[len-1].apr) */\n      tag_173\n        /* \"FixedTermStack.sol\":3858:3867  pool.aprs */\n      0x03\n      dup9\n      add\n        /* \"FixedTermStack.sol\":3868:3873  len-1 */\n      tag_174\n        /* \"FixedTermStack.sol\":3872:3873  1 */\n      0x01\n        /* \"FixedTermStack.sol\":3868:3871  len */\n      dup9\n        /* \"FixedTermStack.sol\":3868:3873  len-1 */\n      tag_132\n      jump\t// in\n    tag_174:\n        /* \"FixedTermStack.sol\":3858:3874  pool.aprs[len-1] */\n      dup2\n      sload\n      dup2\n      lt\n      tag_176\n      jumpi\n      tag_176\n      tag_102\n      jump\t// in\n    tag_176:\n      0x00\n      swap2\n      dup3\n      mstore\n      0x20\n      swap1\n      swap2\n      keccak256\n      0x02\n      swap1\n      swap2\n      mul\n      add\n        /* \"FixedTermStack.sol\":3858:3878  pool.aprs[len-1].apr */\n      sload\n        /* \"FixedTermStack.sol\":3843:3853  multiplier */\n      dup6\n      swap1\n        /* \"FixedTermStack.sol\":3843:3857  multiplier.mul */\n      tag_178\n        /* \"FixedTermStack.sol\":3843:3879  multiplier.mul(pool.aprs[len-1].apr) */\n      jump\t// in\n    tag_173:\n        /* \"FixedTermStack.sol\":3843:3883  multiplier.mul(pool.aprs[len-1].apr).mul */\n      swap1\n      tag_178\n        /* \"FixedTermStack.sol\":3843:3896  multiplier.mul(pool.aprs[len-1].apr).mul(user.amount) */\n      jump\t// in\n    tag_172:\n        /* \"FixedTermStack.sol\":3834:3896  reward = multiplier.mul(pool.aprs[len-1].apr).mul(user.amount) */\n      swap6\n      pop\n        /* \"FixedTermStack.sol\":3920:3957  reward.div(DENOMINATOR_TEST).div(100) */\n      tag_179\n        /* \"FixedTermStack.sol\":3953:3956  100 */\n      0x64\n        /* \"FixedTermStack.sol\":3920:3948  reward.div(DENOMINATOR_TEST) */\n      tag_180\n        /* \"FixedTermStack.sol\":3834:3896  reward = multiplier.mul(pool.aprs[len-1].apr).mul(user.amount) */\n      dup9\n        /* \"FixedTermStack.sol\":679:689  10 minutes */\n      0x0258\n        /* \"FixedTermStack.sol\":3920:3930  reward.div */\n      tag_181\n        /* \"FixedTermStack.sol\":3920:3948  reward.div(DENOMINATOR_TEST) */\n      jump\t// in\n    tag_180:\n        /* \"FixedTermStack.sol\":3920:3952  reward.div(DENOMINATOR_TEST).div */\n      swap1\n      tag_181\n        /* \"FixedTermStack.sol\":3920:3957  reward.div(DENOMINATOR_TEST).div(100) */\n      jump\t// in\n    tag_179:\n        /* \"FixedTermStack.sol\":3911:3957  reward = reward.div(DENOMINATOR_TEST).div(100) */\n      swap6\n      pop\n        /* \"FixedTermStack.sol\":3972:3985  return reward */\n      pop\n      pop\n      pop\n      pop\n      pop\n      jump(tag_160)\n        /* \"FixedTermStack.sol\":3695:3997  if (pool.aprs[len-1].time < user.lockStartTime){... */\n    tag_170:\n        /* \"FixedTermStack.sol\":4023:4034  user.offset */\n      0x02\n      dup5\n      add\n      sload\n        /* \"FixedTermStack.sol\":4009:4580  for (uint i = user.offset;i< len-1;i++){... */\n    tag_182:\n        /* \"FixedTermStack.sol\":4038:4043  len-1 */\n      tag_185\n        /* \"FixedTermStack.sol\":4042:4043  1 */\n      0x01\n        /* \"FixedTermStack.sol\":4038:4041  len */\n      dup6\n        /* \"FixedTermStack.sol\":4038:4043  len-1 */\n      tag_132\n      jump\t// in\n    tag_185:\n        /* \"FixedTermStack.sol\":4035:4036  i */\n      dup2\n        /* \"FixedTermStack.sol\":4035:4043  i< len-1 */\n      lt\n        /* \"FixedTermStack.sol\":4009:4580  for (uint i = user.offset;i< len-1;i++){... */\n      iszero\n      tag_183\n      jumpi\n        /* \"FixedTermStack.sol\":4070:4074  flag */\n      dup2\n        /* \"FixedTermStack.sol\":4065:4312  if (!flag){... */\n      tag_186\n      jumpi\n        /* \"FixedTermStack.sol\":4107:4161  getMultiplier(user.lockStartTime, pool.aprs[i+1].time) */\n      tag_187\n        /* \"FixedTermStack.sol\":4121:4125  user */\n      dup6\n        /* \"FixedTermStack.sol\":4121:4139  user.lockStartTime */\n      0x01\n      add\n      sload\n        /* \"FixedTermStack.sol\":4141:4145  pool */\n      dup8\n        /* \"FixedTermStack.sol\":4141:4150  pool.aprs */\n      0x03\n      add\n        /* \"FixedTermStack.sol\":4151:4152  i */\n      dup4\n        /* \"FixedTermStack.sol\":4153:4154  1 */\n      0x01\n        /* \"FixedTermStack.sol\":4151:4154  i+1 */\n      tag_188\n      swap2\n      swap1\n      tag_144\n      jump\t// in\n    tag_188:\n        /* \"FixedTermStack.sol\":4141:4155  pool.aprs[i+1] */\n      dup2\n      sload\n      dup2\n      lt\n      tag_190\n      jumpi\n      tag_190\n      tag_102\n      jump\t// in\n    tag_190:\n      swap1\n      0x00\n      mstore\n      keccak256(0x00, 0x20)\n      swap1\n      0x02\n      mul\n      add\n        /* \"FixedTermStack.sol\":4141:4160  pool.aprs[i+1].time */\n      0x01\n      add\n      sload\n        /* \"FixedTermStack.sol\":4107:4120  getMultiplier */\n      tag_61\n        /* \"FixedTermStack.sol\":4107:4161  getMultiplier(user.lockStartTime, pool.aprs[i+1].time) */\n      jump\t// in\n    tag_187:\n        /* \"FixedTermStack.sol\":4094:4161  multiplier = getMultiplier(user.lockStartTime, pool.aprs[i+1].time) */\n      swap3\n      pop\n        /* \"FixedTermStack.sol\":4189:4238  multiplier.mul(pool.aprs[i].apr).mul(user.amount) */\n      tag_192\n        /* \"FixedTermStack.sol\":4226:4230  user */\n      dup6\n        /* \"FixedTermStack.sol\":4226:4237  user.amount */\n      0x00\n      add\n      sload\n        /* \"FixedTermStack.sol\":4189:4221  multiplier.mul(pool.aprs[i].apr) */\n      tag_173\n        /* \"FixedTermStack.sol\":4204:4208  pool */\n      dup9\n        /* \"FixedTermStack.sol\":4204:4213  pool.aprs */\n      0x03\n      add\n        /* \"FixedTermStack.sol\":4214:4215  i */\n      dup5\n        /* \"FixedTermStack.sol\":4204:4216  pool.aprs[i] */\n      dup2\n      sload\n      dup2\n      lt\n      tag_195\n      jumpi\n      tag_195\n      tag_102\n      jump\t// in\n    tag_195:\n      0x00\n      swap2\n      dup3\n      mstore\n      0x20\n      swap1\n      swap2\n      keccak256\n      0x02\n      swap1\n      swap2\n      mul\n      add\n        /* \"FixedTermStack.sol\":4204:4220  pool.aprs[i].apr */\n      sload\n        /* \"FixedTermStack.sol\":4189:4199  multiplier */\n      dup7\n      swap1\n        /* \"FixedTermStack.sol\":4189:4203  multiplier.mul */\n      tag_178\n        /* \"FixedTermStack.sol\":4189:4221  multiplier.mul(pool.aprs[i].apr) */\n      jump\t// in\n        /* \"FixedTermStack.sol\":4189:4238  multiplier.mul(pool.aprs[i].apr).mul(user.amount) */\n    tag_192:\n        /* \"FixedTermStack.sol\":4180:4238  reward = multiplier.mul(pool.aprs[i].apr).mul(user.amount) */\n      swap7\n      pop\n        /* \"FixedTermStack.sol\":4264:4268  true */\n      0x01\n        /* \"FixedTermStack.sol\":4257:4268  flag = true */\n      swap2\n      pop\n        /* \"FixedTermStack.sol\":4287:4295  continue */\n      jump(tag_184)\n        /* \"FixedTermStack.sol\":4065:4312  if (!flag){... */\n    tag_186:\n        /* \"FixedTermStack.sol\":4328:4346  uint256 tempNumber */\n      0x00\n        /* \"FixedTermStack.sol\":4349:4402  getMultiplier(pool.aprs[i].time, pool.aprs[i+1].time) */\n      tag_197\n        /* \"FixedTermStack.sol\":4363:4367  pool */\n      dup8\n        /* \"FixedTermStack.sol\":4363:4372  pool.aprs */\n      0x03\n      add\n        /* \"FixedTermStack.sol\":4373:4374  i */\n      dup4\n        /* \"FixedTermStack.sol\":4363:4375  pool.aprs[i] */\n      dup2\n      sload\n      dup2\n      lt\n      tag_199\n      jumpi\n      tag_199\n      tag_102\n      jump\t// in\n    tag_199:\n      swap1\n      0x00\n      mstore\n      keccak256(0x00, 0x20)\n      swap1\n      0x02\n      mul\n      add\n        /* \"FixedTermStack.sol\":4363:4380  pool.aprs[i].time */\n      0x01\n      add\n      sload\n        /* \"FixedTermStack.sol\":4382:4386  pool */\n      dup9\n        /* \"FixedTermStack.sol\":4382:4391  pool.aprs */\n      0x03\n      add\n        /* \"FixedTermStack.sol\":4392:4393  i */\n      dup5\n        /* \"FixedTermStack.sol\":4394:4395  1 */\n      0x01\n        /* \"FixedTermStack.sol\":4392:4395  i+1 */\n      tag_188\n      swap2\n      swap1\n      tag_144\n      jump\t// in\n        /* \"FixedTermStack.sol\":4349:4402  getMultiplier(pool.aprs[i].time, pool.aprs[i+1].time) */\n    tag_197:\n        /* \"FixedTermStack.sol\":4328:4402  uint256 tempNumber = getMultiplier(pool.aprs[i].time, pool.aprs[i+1].time) */\n      swap1\n      pop\n        /* \"FixedTermStack.sol\":4427:4488  reward.add(tempNumber.mul(pool.aprs[i].apr).mul(user.amount)) */\n      tag_205\n        /* \"FixedTermStack.sol\":4438:4487  tempNumber.mul(pool.aprs[i].apr).mul(user.amount) */\n      tag_206\n        /* \"FixedTermStack.sol\":4475:4479  user */\n      dup8\n        /* \"FixedTermStack.sol\":4475:4486  user.amount */\n      0x00\n      add\n      sload\n        /* \"FixedTermStack.sol\":4438:4470  tempNumber.mul(pool.aprs[i].apr) */\n      tag_173\n        /* \"FixedTermStack.sol\":4453:4457  pool */\n      dup11\n        /* \"FixedTermStack.sol\":4453:4462  pool.aprs */\n      0x03\n      add\n        /* \"FixedTermStack.sol\":4463:4464  i */\n      dup7\n        /* \"FixedTermStack.sol\":4453:4465  pool.aprs[i] */\n      dup2\n      sload\n      dup2\n      lt\n      tag_176\n      jumpi\n      tag_176\n      tag_102\n      jump\t// in\n        /* \"FixedTermStack.sol\":4438:4487  tempNumber.mul(pool.aprs[i].apr).mul(user.amount) */\n    tag_206:\n        /* \"FixedTermStack.sol\":4427:4433  reward */\n      dup10\n      swap1\n        /* \"FixedTermStack.sol\":4427:4437  reward.add */\n      tag_124\n        /* \"FixedTermStack.sol\":4427:4488  reward.add(tempNumber.mul(pool.aprs[i].apr).mul(user.amount)) */\n      jump\t// in\n    tag_205:\n        /* \"FixedTermStack.sol\":4419:4488  reward =reward.add(tempNumber.mul(pool.aprs[i].apr).mul(user.amount)) */\n      swap8\n      pop\n        /* \"FixedTermStack.sol\":4518:4544  multiplier.add(tempNumber) */\n      tag_211\n        /* \"FixedTermStack.sol\":4518:4528  multiplier */\n      dup5\n        /* \"FixedTermStack.sol\":4533:4543  tempNumber */\n      dup3\n        /* \"FixedTermStack.sol\":4518:4532  multiplier.add */\n      tag_124\n        /* \"FixedTermStack.sol\":4518:4544  multiplier.add(tempNumber) */\n      jump\t// in\n    tag_211:\n        /* \"FixedTermStack.sol\":4505:4544  multiplier = multiplier.add(tempNumber) */\n      swap4\n      pop\n        /* \"FixedTermStack.sol\":4048:4580  {... */\n      pop\n        /* \"FixedTermStack.sol\":4009:4580  for (uint i = user.offset;i< len-1;i++){... */\n    tag_184:\n        /* \"FixedTermStack.sol\":4044:4047  i++ */\n      dup1\n      tag_212\n      dup2\n      tag_146\n      jump\t// in\n    tag_212:\n      swap2\n      pop\n      pop\n        /* \"FixedTermStack.sol\":4009:4580  for (uint i = user.offset;i< len-1;i++){... */\n      jump(tag_182)\n    tag_183:\n      pop\n        /* \"FixedTermStack.sol\":4605:4655  getMultiplier(pool.aprs[len-1].time, block.number) */\n      tag_213\n        /* \"FixedTermStack.sol\":4619:4628  pool.aprs */\n      0x03\n      dup7\n      add\n        /* \"FixedTermStack.sol\":4629:4634  len-1 */\n      tag_214\n        /* \"FixedTermStack.sol\":4633:4634  1 */\n      0x01\n        /* \"FixedTermStack.sol\":4629:4632  len */\n      dup7\n        /* \"FixedTermStack.sol\":4629:4634  len-1 */\n      tag_132\n      jump\t// in\n    tag_214:\n        /* \"FixedTermStack.sol\":4619:4635  pool.aprs[len-1] */\n      dup2\n      sload\n      dup2\n      lt\n      tag_216\n      jumpi\n      tag_216\n      tag_102\n      jump\t// in\n    tag_216:\n      swap1\n      0x00\n      mstore\n      keccak256(0x00, 0x20)\n      swap1\n      0x02\n      mul\n      add\n        /* \"FixedTermStack.sol\":4619:4640  pool.aprs[len-1].time */\n      0x01\n      add\n      sload\n        /* \"FixedTermStack.sol\":4642:4654  block.number */\n      number\n        /* \"FixedTermStack.sol\":4605:4618  getMultiplier */\n      tag_61\n        /* \"FixedTermStack.sol\":4605:4655  getMultiplier(pool.aprs[len-1].time, block.number) */\n      jump\t// in\n    tag_213:\n        /* \"FixedTermStack.sol\":4726:4737  user.amount */\n      dup5\n      sload\n        /* \"FixedTermStack.sol\":4592:4655  multiplier = getMultiplier(pool.aprs[len-1].time, block.number) */\n      swap1\n      swap3\n      pop\n        /* \"FixedTermStack.sol\":4674:4739  reward.add(multiplier.mul(pool.aprs[len-1].apr).mul(user.amount)) */\n      tag_218\n      swap1\n        /* \"FixedTermStack.sol\":4685:4738  multiplier.mul(pool.aprs[len-1].apr).mul(user.amount) */\n      tag_219\n      swap1\n        /* \"FixedTermStack.sol\":4685:4721  multiplier.mul(pool.aprs[len-1].apr) */\n      tag_173\n        /* \"FixedTermStack.sol\":4700:4709  pool.aprs */\n      0x03\n      dup10\n      add\n        /* \"FixedTermStack.sol\":4710:4715  len-1 */\n      tag_221\n        /* \"FixedTermStack.sol\":4714:4715  1 */\n      0x01\n        /* \"FixedTermStack.sol\":4710:4713  len */\n      dup10\n        /* \"FixedTermStack.sol\":4710:4715  len-1 */\n      tag_132\n      jump\t// in\n    tag_221:\n        /* \"FixedTermStack.sol\":4700:4716  pool.aprs[len-1] */\n      dup2\n      sload\n      dup2\n      lt\n      tag_195\n      jumpi\n      tag_195\n      tag_102\n      jump\t// in\n        /* \"FixedTermStack.sol\":4685:4738  multiplier.mul(pool.aprs[len-1].apr).mul(user.amount) */\n    tag_219:\n        /* \"FixedTermStack.sol\":4674:4680  reward */\n      dup8\n      swap1\n        /* \"FixedTermStack.sol\":4674:4684  reward.add */\n      tag_124\n        /* \"FixedTermStack.sol\":4674:4739  reward.add(multiplier.mul(pool.aprs[len-1].apr).mul(user.amount)) */\n      jump\t// in\n    tag_218:\n        /* \"FixedTermStack.sol\":4666:4739  reward =reward.add(multiplier.mul(pool.aprs[len-1].apr).mul(user.amount)) */\n      swap6\n      pop\n        /* \"FixedTermStack.sol\":4759:4796  reward.div(DENOMINATOR_TEST).div(100) */\n      tag_225\n        /* \"FixedTermStack.sol\":4792:4795  100 */\n      0x64\n        /* \"FixedTermStack.sol\":4759:4787  reward.div(DENOMINATOR_TEST) */\n      tag_180\n        /* \"FixedTermStack.sol\":4666:4739  reward =reward.add(multiplier.mul(pool.aprs[len-1].apr).mul(user.amount)) */\n      dup9\n        /* \"FixedTermStack.sol\":679:689  10 minutes */\n      0x0258\n        /* \"FixedTermStack.sol\":4759:4769  reward.div */\n      tag_181\n        /* \"FixedTermStack.sol\":4759:4787  reward.div(DENOMINATOR_TEST) */\n      jump\t// in\n        /* \"FixedTermStack.sol\":4759:4796  reward.div(DENOMINATOR_TEST).div(100) */\n    tag_225:\n        /* \"FixedTermStack.sol\":4750:4796  reward = reward.div(DENOMINATOR_TEST).div(100) */\n      swap9\n        /* \"FixedTermStack.sol\":3397:4832  function pendingReward(uint256 _pid, address _user) external view returns (uint256 reward) {... */\n      swap8\n      pop\n      pop\n      pop\n      pop\n      pop\n      pop\n      pop\n      pop\n      jump\t// out\n        /* \"FixedTermStack.sol\":4842:6784  function calculateReward(uint256 _pid, address _user) public view returns (uint256 reward) {... */\n    tag_78:\n        /* \"FixedTermStack.sol\":4917:4931  uint256 reward */\n      0x00\n        /* \"FixedTermStack.sol\":4944:4965  PoolInfo storage pool */\n      dup1\n        /* \"FixedTermStack.sol\":4968:4977  poolInfos */\n      0x01\n        /* \"FixedTermStack.sol\":4978:4982  _pid */\n      dup5\n        /* \"FixedTermStack.sol\":4968:4983  poolInfos[_pid] */\n      dup2\n      sload\n      dup2\n      lt\n      tag_229\n      jumpi\n      tag_229\n      tag_102\n      jump\t// in\n    tag_229:\n      0x00\n      swap2\n      dup3\n      mstore\n      0x20\n      dup1\n      dup4\n      keccak256\n        /* \"FixedTermStack.sol\":5018:5032  userInfo[_pid] */\n      dup8\n      dup5\n      mstore\n        /* \"FixedTermStack.sol\":5018:5026  userInfo */\n      0x02\n        /* \"FixedTermStack.sol\":5018:5032  userInfo[_pid] */\n      dup3\n      mstore\n      0x40\n      dup1\n      dup6\n      keccak256\n      sub(shl(0xa0, 0x01), 0x01)\n        /* \"FixedTermStack.sol\":5018:5039  userInfo[_pid][_user] */\n      dup10\n      and\n      dup7\n      mstore\n      swap1\n      swap3\n      mstore\n      swap1\n      dup4\n      keccak256\n        /* \"FixedTermStack.sol\":4968:4983  poolInfos[_pid] */\n      0x04\n      swap3\n      swap1\n      swap3\n      mul\n      add\n        /* \"FixedTermStack.sol\":5064:5073  pool.aprs */\n      0x03\n      dup2\n      add\n        /* \"FixedTermStack.sol\":5064:5080  pool.aprs.length */\n      dup1\n      sload\n        /* \"FixedTermStack.sol\":5187:5205  user.lockStartTime */\n      0x01\n      dup1\n      dup6\n      add\n      sload\n        /* \"FixedTermStack.sol\":4968:4983  poolInfos[_pid] */\n      swap4\n      swap7\n      pop\n        /* \"FixedTermStack.sol\":5018:5039  userInfo[_pid][_user] */\n      swap4\n      swap5\n        /* \"FixedTermStack.sol\":5064:5080  pool.aprs.length */\n      swap1\n      swap4\n        /* \"FixedTermStack.sol\":4968:4983  poolInfos[_pid] */\n      swap1\n      swap3\n      dup4\n      swap3\n        /* \"FixedTermStack.sol\":5187:5205  user.lockStartTime */\n      swap1\n      swap2\n        /* \"FixedTermStack.sol\":5173:5178  len-1 */\n      tag_231\n      swap1\n        /* \"FixedTermStack.sol\":5064:5080  pool.aprs.length */\n      dup7\n        /* \"FixedTermStack.sol\":5173:5178  len-1 */\n      tag_132\n      jump\t// in\n    tag_231:\n        /* \"FixedTermStack.sol\":5163:5179  pool.aprs[len-1] */\n      dup2\n      sload\n      dup2\n      lt\n      tag_233\n      jumpi\n      tag_233\n      tag_102\n      jump\t// in\n    tag_233:\n      swap1\n      0x00\n      mstore\n      keccak256(0x00, 0x20)\n      swap1\n      0x02\n      mul\n      add\n        /* \"FixedTermStack.sol\":5163:5184  pool.aprs[len-1].time */\n      0x01\n      add\n      sload\n        /* \"FixedTermStack.sol\":5163:5205  pool.aprs[len-1].time < user.lockStartTime */\n      lt\n        /* \"FixedTermStack.sol\":5159:5425  if (pool.aprs[len-1].time < user.lockStartTime){... */\n      iszero\n      tag_235\n      jumpi\n        /* \"FixedTermStack.sol\":5234:5247  pool.duration */\n      0x02\n      dup6\n      add\n      sload\n        /* \"FixedTermStack.sol\":5312:5323  user.amount */\n      dup5\n      sload\n        /* \"FixedTermStack.sol\":5234:5247  pool.duration */\n      swap1\n      swap3\n      pop\n        /* \"FixedTermStack.sol\":5271:5324  multiplier.mul(pool.aprs[len-1].apr).mul(user.amount) */\n      tag_172\n      swap1\n        /* \"FixedTermStack.sol\":5271:5307  multiplier.mul(pool.aprs[len-1].apr) */\n      tag_173\n        /* \"FixedTermStack.sol\":5286:5295  pool.aprs */\n      0x03\n      dup9\n      add\n        /* \"FixedTermStack.sol\":5296:5301  len-1 */\n      tag_174\n        /* \"FixedTermStack.sol\":5300:5301  1 */\n      0x01\n        /* \"FixedTermStack.sol\":5296:5299  len */\n      dup9\n        /* \"FixedTermStack.sol\":5296:5301  len-1 */\n      tag_132\n      jump\t// in\n        /* \"FixedTermStack.sol\":5159:5425  if (pool.aprs[len-1].time < user.lockStartTime){... */\n    tag_235:\n        /* \"FixedTermStack.sol\":5449:5460  user.offset */\n      0x02\n      dup5\n      add\n      sload\n        /* \"FixedTermStack.sol\":5435:6558  for (uint i = user.offset;i< len-1;i++){... */\n    tag_244:\n        /* \"FixedTermStack.sol\":5464:5469  len-1 */\n      tag_247\n        /* \"FixedTermStack.sol\":5468:5469  1 */\n      0x01\n        /* \"FixedTermStack.sol\":5464:5467  len */\n      dup6\n        /* \"FixedTermStack.sol\":5464:5469  len-1 */\n      tag_132\n      jump\t// in\n    tag_247:\n        /* \"FixedTermStack.sol\":5461:5462  i */\n      dup2\n        /* \"FixedTermStack.sol\":5461:5469  i< len-1 */\n      lt\n        /* \"FixedTermStack.sol\":5435:6558  for (uint i = user.offset;i< len-1;i++){... */\n      iszero\n      tag_245\n      jumpi\n        /* \"FixedTermStack.sol\":5496:5500  flag */\n      dup2\n        /* \"FixedTermStack.sol\":5491:6000  if (!flag){... */\n      tag_248\n      jumpi\n        /* \"FixedTermStack.sol\":5533:5587  getMultiplier(user.lockStartTime, pool.aprs[i+1].time) */\n      tag_249\n        /* \"FixedTermStack.sol\":5547:5551  user */\n      dup6\n        /* \"FixedTermStack.sol\":5547:5565  user.lockStartTime */\n      0x01\n      add\n      sload\n        /* \"FixedTermStack.sol\":5567:5571  pool */\n      dup8\n        /* \"FixedTermStack.sol\":5567:5576  pool.aprs */\n      0x03\n      add\n        /* \"FixedTermStack.sol\":5577:5578  i */\n      dup4\n        /* \"FixedTermStack.sol\":5579:5580  1 */\n      0x01\n        /* \"FixedTermStack.sol\":5577:5580  i+1 */\n      tag_188\n      swap2\n      swap1\n      tag_144\n      jump\t// in\n        /* \"FixedTermStack.sol\":5533:5587  getMultiplier(user.lockStartTime, pool.aprs[i+1].time) */\n    tag_249:\n        /* \"FixedTermStack.sol\":5520:5587  multiplier = getMultiplier(user.lockStartTime, pool.aprs[i+1].time) */\n      swap3\n      pop\n        /* \"FixedTermStack.sol\":5623:5627  pool */\n      dup6\n        /* \"FixedTermStack.sol\":5623:5636  pool.duration */\n      0x02\n      add\n      sload\n        /* \"FixedTermStack.sol\":5610:5620  multiplier */\n      dup4\n        /* \"FixedTermStack.sol\":5610:5636  multiplier > pool.duration */\n      gt\n        /* \"FixedTermStack.sol\":5606:5850  if (multiplier > pool.duration){... */\n      iszero\n      tag_254\n      jumpi\n        /* \"FixedTermStack.sol\":5669:5721  pool.duration.mul(pool.aprs[i].apr).mul(user.amount) */\n      tag_255\n        /* \"FixedTermStack.sol\":5709:5713  user */\n      dup6\n        /* \"FixedTermStack.sol\":5709:5720  user.amount */\n      0x00\n      add\n      sload\n        /* \"FixedTermStack.sol\":5669:5704  pool.duration.mul(pool.aprs[i].apr) */\n      tag_173\n        /* \"FixedTermStack.sol\":5687:5691  pool */\n      dup9\n        /* \"FixedTermStack.sol\":5687:5696  pool.aprs */\n      0x03\n      add\n        /* \"FixedTermStack.sol\":5697:5698  i */\n      dup5\n        /* \"FixedTermStack.sol\":5687:5699  pool.aprs[i] */\n      dup2\n      sload\n      dup2\n      lt\n      tag_258\n      jumpi\n      tag_258\n      tag_102\n      jump\t// in\n    tag_258:\n      0x00\n      swap2\n      dup3\n      mstore\n      0x20\n      swap1\n      swap2\n      keccak256\n      0x02\n      swap2\n      dup3\n      mul\n      add\n        /* \"FixedTermStack.sol\":5687:5703  pool.aprs[i].apr */\n      sload\n        /* \"FixedTermStack.sol\":5669:5682  pool.duration */\n      swap1\n      dup11\n      add\n      sload\n      swap1\n        /* \"FixedTermStack.sol\":5669:5686  pool.duration.mul */\n      tag_178\n        /* \"FixedTermStack.sol\":5669:5704  pool.duration.mul(pool.aprs[i].apr) */\n      jump\t// in\n        /* \"FixedTermStack.sol\":5669:5721  pool.duration.mul(pool.aprs[i].apr).mul(user.amount) */\n    tag_255:\n        /* \"FixedTermStack.sol\":5660:5721  reward = pool.duration.mul(pool.aprs[i].apr).mul(user.amount) */\n      swap7\n      pop\n        /* \"FixedTermStack.sol\":5753:5790  reward.div(DENOMINATOR_TEST).div(100) */\n      tag_260\n        /* \"FixedTermStack.sol\":5786:5789  100 */\n      0x64\n        /* \"FixedTermStack.sol\":5753:5781  reward.div(DENOMINATOR_TEST) */\n      tag_180\n        /* \"FixedTermStack.sol\":5660:5721  reward = pool.duration.mul(pool.aprs[i].apr).mul(user.amount) */\n      dup10\n        /* \"FixedTermStack.sol\":679:689  10 minutes */\n      0x0258\n        /* \"FixedTermStack.sol\":5753:5763  reward.div */\n      tag_181\n        /* \"FixedTermStack.sol\":5753:5781  reward.div(DENOMINATOR_TEST) */\n      jump\t// in\n        /* \"FixedTermStack.sol\":5753:5790  reward.div(DENOMINATOR_TEST).div(100) */\n    tag_260:\n        /* \"FixedTermStack.sol\":5744:5790  reward = reward.div(DENOMINATOR_TEST).div(100) */\n      swap7\n      pop\n        /* \"FixedTermStack.sol\":5813:5826  return reward */\n      pop\n      pop\n      pop\n      pop\n      pop\n      pop\n      jump(tag_160)\n        /* \"FixedTermStack.sol\":5606:5850  if (multiplier > pool.duration){... */\n    tag_254:\n        /* \"FixedTermStack.sol\":5877:5926  multiplier.mul(pool.aprs[i].apr).mul(user.amount) */\n      tag_262\n        /* \"FixedTermStack.sol\":5914:5918  user */\n      dup6\n        /* \"FixedTermStack.sol\":5914:5925  user.amount */\n      0x00\n      add\n      sload\n        /* \"FixedTermStack.sol\":5877:5909  multiplier.mul(pool.aprs[i].apr) */\n      tag_173\n        /* \"FixedTermStack.sol\":5892:5896  pool */\n      dup9\n        /* \"FixedTermStack.sol\":5892:5901  pool.aprs */\n      0x03\n      add\n        /* \"FixedTermStack.sol\":5902:5903  i */\n      dup5\n        /* \"FixedTermStack.sol\":5892:5904  pool.aprs[i] */\n      dup2\n      sload\n      dup2\n      lt\n      tag_195\n      jumpi\n      tag_195\n      tag_102\n      jump\t// in\n        /* \"FixedTermStack.sol\":5877:5926  multiplier.mul(pool.aprs[i].apr).mul(user.amount) */\n    tag_262:\n        /* \"FixedTermStack.sol\":5868:5926  reward = multiplier.mul(pool.aprs[i].apr).mul(user.amount) */\n      swap7\n      pop\n        /* \"FixedTermStack.sol\":5952:5956  true */\n      0x01\n        /* \"FixedTermStack.sol\":5945:5956  flag = true */\n      swap2\n      pop\n        /* \"FixedTermStack.sol\":5975:5983  continue */\n      jump(tag_246)\n        /* \"FixedTermStack.sol\":5491:6000  if (!flag){... */\n    tag_248:\n        /* \"FixedTermStack.sol\":6016:6034  uint256 tempNumber */\n      0x00\n        /* \"FixedTermStack.sol\":6037:6090  getMultiplier(pool.aprs[i].time, pool.aprs[i+1].time) */\n      tag_267\n        /* \"FixedTermStack.sol\":6051:6055  pool */\n      dup8\n        /* \"FixedTermStack.sol\":6051:6060  pool.aprs */\n      0x03\n      add\n        /* \"FixedTermStack.sol\":6061:6062  i */\n      dup4\n        /* \"FixedTermStack.sol\":6051:6063  pool.aprs[i] */\n      dup2\n      sload\n      dup2\n      lt\n      tag_199\n      jumpi\n      tag_199\n      tag_102\n      jump\t// in\n        /* \"FixedTermStack.sol\":6037:6090  getMultiplier(pool.aprs[i].time, pool.aprs[i+1].time) */\n    tag_267:\n        /* \"FixedTermStack.sol\":6140:6153  pool.duration */\n      0x02\n      dup9\n      add\n      sload\n        /* \"FixedTermStack.sol\":6016:6090  uint256 tempNumber = getMultiplier(pool.aprs[i].time, pool.aprs[i+1].time) */\n      swap1\n      swap2\n      pop\n        /* \"FixedTermStack.sol\":6111:6137  tempNumber.add(multiplier) */\n      tag_275\n        /* \"FixedTermStack.sol\":6016:6090  uint256 tempNumber = getMultiplier(pool.aprs[i].time, pool.aprs[i+1].time) */\n      dup3\n        /* \"FixedTermStack.sol\":6126:6136  multiplier */\n      dup7\n        /* \"FixedTermStack.sol\":6111:6125  tempNumber.add */\n      tag_124\n        /* \"FixedTermStack.sol\":6111:6137  tempNumber.add(multiplier) */\n      jump\t// in\n    tag_275:\n        /* \"FixedTermStack.sol\":6111:6153  tempNumber.add(multiplier) > pool.duration */\n      gt\n        /* \"FixedTermStack.sol\":6107:6379  if (tempNumber.add(multiplier) > pool.duration){... */\n      iszero\n      tag_276\n      jumpi\n        /* \"FixedTermStack.sol\":6182:6262  reward.add(pool.duration.sub(multiplier).mul(pool.aprs[i].apr).mul(user.amount)) */\n      tag_277\n        /* \"FixedTermStack.sol\":6193:6261  pool.duration.sub(multiplier).mul(pool.aprs[i].apr).mul(user.amount) */\n      tag_206\n        /* \"FixedTermStack.sol\":6249:6253  user */\n      dup8\n        /* \"FixedTermStack.sol\":6249:6260  user.amount */\n      0x00\n      add\n      sload\n        /* \"FixedTermStack.sol\":6193:6244  pool.duration.sub(multiplier).mul(pool.aprs[i].apr) */\n      tag_173\n        /* \"FixedTermStack.sol\":6227:6231  pool */\n      dup11\n        /* \"FixedTermStack.sol\":6227:6236  pool.aprs */\n      0x03\n      add\n        /* \"FixedTermStack.sol\":6237:6238  i */\n      dup7\n        /* \"FixedTermStack.sol\":6227:6239  pool.aprs[i] */\n      dup2\n      sload\n      dup2\n      lt\n      tag_281\n      jumpi\n      tag_281\n      tag_102\n      jump\t// in\n    tag_281:\n      0x00\n      swap2\n      dup3\n      mstore\n      0x20\n      swap1\n      swap2\n      keccak256\n      0x02\n      swap2\n      dup3\n      mul\n      add\n        /* \"FixedTermStack.sol\":6227:6243  pool.aprs[i].apr */\n      sload\n        /* \"FixedTermStack.sol\":6193:6206  pool.duration */\n      swap1\n      dup13\n      add\n      sload\n        /* \"FixedTermStack.sol\":6193:6222  pool.duration.sub(multiplier) */\n      tag_173\n      swap1\n        /* \"FixedTermStack.sol\":6211:6221  multiplier */\n      dup11\n        /* \"FixedTermStack.sol\":6193:6210  pool.duration.sub */\n      tag_130\n        /* \"FixedTermStack.sol\":6193:6222  pool.duration.sub(multiplier) */\n      jump\t// in\n        /* \"FixedTermStack.sol\":6182:6262  reward.add(pool.duration.sub(multiplier).mul(pool.aprs[i].apr).mul(user.amount)) */\n    tag_277:\n        /* \"FixedTermStack.sol\":6173:6262  reward = reward.add(pool.duration.sub(multiplier).mul(pool.aprs[i].apr).mul(user.amount)) */\n      swap8\n      pop\n        /* \"FixedTermStack.sol\":6290:6327  reward.div(DENOMINATOR_TEST).div(100) */\n      tag_284\n        /* \"FixedTermStack.sol\":6323:6326  100 */\n      0x64\n        /* \"FixedTermStack.sol\":6290:6318  reward.div(DENOMINATOR_TEST) */\n      tag_180\n        /* \"FixedTermStack.sol\":6173:6262  reward = reward.add(pool.duration.sub(multiplier).mul(pool.aprs[i].apr).mul(user.amount)) */\n      dup11\n        /* \"FixedTermStack.sol\":679:689  10 minutes */\n      0x0258\n        /* \"FixedTermStack.sol\":6290:6300  reward.div */\n      tag_181\n        /* \"FixedTermStack.sol\":6290:6318  reward.div(DENOMINATOR_TEST) */\n      jump\t// in\n        /* \"FixedTermStack.sol\":6290:6327  reward.div(DENOMINATOR_TEST).div(100) */\n    tag_284:\n        /* \"FixedTermStack.sol\":6281:6327  reward = reward.div(DENOMINATOR_TEST).div(100) */\n      swap8\n      pop\n        /* \"FixedTermStack.sol\":6346:6359  return reward */\n      pop\n      pop\n      pop\n      pop\n      pop\n      pop\n      pop\n      jump(tag_160)\n        /* \"FixedTermStack.sol\":6107:6379  if (tempNumber.add(multiplier) > pool.duration){... */\n    tag_276:\n        /* \"FixedTermStack.sol\":6419:6480  reward.add(tempNumber.mul(pool.aprs[i].apr).mul(user.amount)) */\n      tag_286\n        /* \"FixedTermStack.sol\":6430:6479  tempNumber.mul(pool.aprs[i].apr).mul(user.amount) */\n      tag_206\n        /* \"FixedTermStack.sol\":6467:6471  user */\n      dup8\n        /* \"FixedTermStack.sol\":6467:6478  user.amount */\n      0x00\n      add\n      sload\n        /* \"FixedTermStack.sol\":6430:6462  tempNumber.mul(pool.aprs[i].apr) */\n      tag_173\n        /* \"FixedTermStack.sol\":6445:6449  pool */\n      dup11\n        /* \"FixedTermStack.sol\":6445:6454  pool.aprs */\n      0x03\n      add\n        /* \"FixedTermStack.sol\":6455:6456  i */\n      dup7\n        /* \"FixedTermStack.sol\":6445:6457  pool.aprs[i] */\n      dup2\n      sload\n      dup2\n      lt\n      tag_176\n      jumpi\n      tag_176\n      tag_102\n      jump\t// in\n        /* \"FixedTermStack.sol\":6419:6480  reward.add(tempNumber.mul(pool.aprs[i].apr).mul(user.amount)) */\n    tag_286:\n        /* \"FixedTermStack.sol\":6411:6480  reward =reward.add(tempNumber.mul(pool.aprs[i].apr).mul(user.amount)) */\n      swap8\n      pop\n        /* \"FixedTermStack.sol\":6510:6536  multiplier.add(tempNumber) */\n      tag_292\n        /* \"FixedTermStack.sol\":6510:6520  multiplier */\n      dup5\n        /* \"FixedTermStack.sol\":6525:6535  tempNumber */\n      dup3\n        /* \"FixedTermStack.sol\":6510:6524  multiplier.add */\n      tag_124\n        /* \"FixedTermStack.sol\":6510:6536  multiplier.add(tempNumber) */\n      jump\t// in\n    tag_292:\n        /* \"FixedTermStack.sol\":6497:6536  multiplier = multiplier.add(tempNumber) */\n      swap4\n      pop\n        /* \"FixedTermStack.sol\":5474:6558  {... */\n      pop\n        /* \"FixedTermStack.sol\":5435:6558  for (uint i = user.offset;i< len-1;i++){... */\n    tag_246:\n        /* \"FixedTermStack.sol\":5470:5473  i++ */\n      dup1\n      tag_293\n      dup2\n      tag_146\n      jump\t// in\n    tag_293:\n      swap2\n      pop\n      pop\n        /* \"FixedTermStack.sol\":5435:6558  for (uint i = user.offset;i< len-1;i++){... */\n      jump(tag_244)\n    tag_245:\n      pop\n        /* \"FixedTermStack.sol\":6654:6665  user.amount */\n      dup4\n      sload\n        /* \"FixedTermStack.sol\":6583:6667  reward.add(pool.duration.sub(multiplier).mul(pool.aprs[len-1].apr).mul(user.amount)) */\n      tag_218\n      swap1\n        /* \"FixedTermStack.sol\":6594:6666  pool.duration.sub(multiplier).mul(pool.aprs[len-1].apr).mul(user.amount) */\n      tag_219\n      swap1\n        /* \"FixedTermStack.sol\":6594:6649  pool.duration.sub(multiplier).mul(pool.aprs[len-1].apr) */\n      tag_173\n        /* \"FixedTermStack.sol\":6628:6637  pool.aprs */\n      0x03\n      dup10\n      add\n        /* \"FixedTermStack.sol\":6638:6643  len-1 */\n      tag_297\n        /* \"FixedTermStack.sol\":6642:6643  1 */\n      0x01\n        /* \"FixedTermStack.sol\":6638:6641  len */\n      dup10\n        /* \"FixedTermStack.sol\":6638:6643  len-1 */\n      tag_132\n      jump\t// in\n    tag_297:\n        /* \"FixedTermStack.sol\":6628:6644  pool.aprs[len-1] */\n      dup2\n      sload\n      dup2\n      lt\n      tag_299\n      jumpi\n      tag_299\n      tag_102\n      jump\t// in\n    tag_299:\n      0x00\n      swap2\n      dup3\n      mstore\n      0x20\n      swap1\n      swap2\n      keccak256\n      0x02\n      swap2\n      dup3\n      mul\n      add\n        /* \"FixedTermStack.sol\":6628:6648  pool.aprs[len-1].apr */\n      sload\n        /* \"FixedTermStack.sol\":6594:6607  pool.duration */\n      swap1\n      dup11\n      add\n      sload\n        /* \"FixedTermStack.sol\":6594:6623  pool.duration.sub(multiplier) */\n      tag_173\n      swap1\n        /* \"FixedTermStack.sol\":6612:6622  multiplier */\n      dup9\n        /* \"FixedTermStack.sol\":6594:6611  pool.duration.sub */\n      tag_130\n        /* \"FixedTermStack.sol\":6594:6623  pool.duration.sub(multiplier) */\n      jump\t// in\n        /* \"FixedTermStack.sol\":9854:10117  function setApr(uint256 _pid, uint256 _apr) public onlyOwner {... */\n    tag_82:\n        /* \"@openzeppelin/contracts/access/Ownable.sol\":1094:1107  _checkOwner() */\n      tag_305\n        /* \"@openzeppelin/contracts/access/Ownable.sol\":1094:1105  _checkOwner */\n      tag_109\n        /* \"@openzeppelin/contracts/access/Ownable.sol\":1094:1107  _checkOwner() */\n      jump\t// in\n    tag_305:\n        /* \"FixedTermStack.sol\":9926:9947  PoolInfo storage pool */\n      0x00\n        /* \"FixedTermStack.sol\":9950:9959  poolInfos */\n      0x01\n        /* \"FixedTermStack.sol\":9960:9964  _pid */\n      dup4\n        /* \"FixedTermStack.sol\":9950:9965  poolInfos[_pid] */\n      dup2\n      sload\n      dup2\n      lt\n      tag_308\n      jumpi\n      tag_308\n      tag_102\n      jump\t// in\n    tag_308:\n      0x00\n      swap2\n      dup3\n      mstore\n      0x20\n      dup1\n      dup4\n      keccak256\n        /* \"FixedTermStack.sol\":9991:10073  AprInfo({... */\n      0x40\n      dup1\n      mload\n      dup1\n      dup3\n      add\n      dup3\n      mstore\n      dup8\n      dup2\n      mstore\n        /* \"FixedTermStack.sol\":10042:10057  block.timestamp */\n      timestamp\n        /* \"FixedTermStack.sol\":9991:10073  AprInfo({... */\n      dup2\n      dup6\n      add\n      swap1\n      dup2\n      mstore\n        /* \"FixedTermStack.sol\":9976:9985  pool.aprs */\n      0x03\n        /* \"FixedTermStack.sol\":9950:9965  poolInfos[_pid] */\n      0x04\n      swap1\n      swap7\n      mul\n      swap1\n      swap4\n      add\n        /* \"FixedTermStack.sol\":9976:9985  pool.aprs */\n      swap5\n      dup6\n      add\n        /* \"FixedTermStack.sol\":9976:10074  pool.aprs.push(AprInfo({... */\n      dup1\n      sload\n      0x01\n      dup2\n      dup2\n      add\n      dup4\n      sstore\n      swap2\n      dup9\n      mstore\n      swap5\n      dup8\n      keccak256\n      swap2\n      mload\n      0x02\n      swap1\n      swap6\n      mul\n      swap1\n      swap2\n      add\n      swap4\n      dup5\n      sstore\n      swap2\n      mload\n      swap3\n      swap1\n      swap2\n      add\n      swap2\n      swap1\n      swap2\n      sstore\n        /* \"FixedTermStack.sol\":10092:10109  SetApr(_pid,_apr) */\n      mload\n        /* \"FixedTermStack.sol\":9950:9965  poolInfos[_pid] */\n      swap1\n      swap3\n      pop\n        /* \"FixedTermStack.sol\":10018:10022  _apr */\n      dup4\n      swap2\n        /* \"FixedTermStack.sol\":10099:10103  _pid */\n      dup6\n      swap2\n        /* \"FixedTermStack.sol\":10092:10109  SetApr(_pid,_apr) */\n      0x6ec6d062a87c4b42fe40885d2e8955d89ab9275e14d24354dd2b6b130043bba5\n      swap2\n        /* \"FixedTermStack.sol\":9950:9965  poolInfos[_pid] */\n      swap1\n        /* \"FixedTermStack.sol\":10092:10109  SetApr(_pid,_apr) */\n      log3\n        /* \"FixedTermStack.sol\":9915:10117  {... */\n      pop\n        /* \"FixedTermStack.sol\":9854:10117  function setApr(uint256 _pid, uint256 _apr) public onlyOwner {... */\n      pop\n      pop\n      jump\t// out\n        /* \"FixedTermStack.sol\":6874:7939  function deposit(uint256 _pid, uint256 _amount) public {... */\n    tag_85:\n        /* \"FixedTermStack.sol\":6940:6961  PoolInfo storage pool */\n      0x00\n        /* \"FixedTermStack.sol\":6964:6973  poolInfos */\n      0x01\n        /* \"FixedTermStack.sol\":6974:6978  _pid */\n      dup4\n        /* \"FixedTermStack.sol\":6964:6979  poolInfos[_pid] */\n      dup2\n      sload\n      dup2\n      lt\n      tag_313\n      jumpi\n      tag_313\n      tag_102\n      jump\t// in\n    tag_313:\n      0x00\n      swap2\n      dup3\n      mstore\n      0x20\n      dup1\n      dup4\n      keccak256\n        /* \"FixedTermStack.sol\":7014:7028  userInfo[_pid] */\n      dup7\n      dup5\n      mstore\n        /* \"FixedTermStack.sol\":7014:7022  userInfo */\n      0x02\n        /* \"FixedTermStack.sol\":7014:7028  userInfo[_pid] */\n      dup3\n      mstore\n      0x40\n      dup1\n      dup6\n      keccak256\n        /* \"FixedTermStack.sol\":7029:7039  msg.sender */\n      caller\n        /* \"FixedTermStack.sol\":7014:7040  userInfo[_pid][msg.sender] */\n      dup7\n      mstore\n      swap1\n      swap3\n      mstore\n      swap3\n      keccak256\n        /* \"FixedTermStack.sol\":6964:6979  poolInfos[_pid] */\n      0x04\n      swap1\n      swap2\n      mul\n      swap1\n      swap2\n      add\n      swap2\n      pop\n        /* \"FixedTermStack.sol\":7059:7070  _amount > 0 */\n      dup3\n        /* \"FixedTermStack.sol\":7051:7103  require(_amount > 0,\"FixedTermStack: Below minimum\") */\n      tag_315\n      jumpi\n      mload(0x40)\n      shl(0xe5, 0x461bcd)\n      dup2\n      mstore\n        /* \"#utility.yul\":5112:5114   */\n      0x20\n        /* \"FixedTermStack.sol\":7051:7103  require(_amount > 0,\"FixedTermStack: Below minimum\") */\n      0x04\n      dup3\n      add\n        /* \"#utility.yul\":5094:5115   */\n      mstore\n        /* \"#utility.yul\":5151:5153   */\n      0x1d\n        /* \"#utility.yul\":5131:5149   */\n      0x24\n      dup3\n      add\n        /* \"#utility.yul\":5124:5154   */\n      mstore\n        /* \"#utility.yul\":5190:5221   */\n      0x46697865645465726d537461636b3a2042656c6f77206d696e696d756d000000\n        /* \"#utility.yul\":5170:5188   */\n      0x44\n      dup3\n      add\n        /* \"#utility.yul\":5163:5222   */\n      mstore\n        /* \"#utility.yul\":5239:5257   */\n      0x64\n      add\n        /* \"FixedTermStack.sol\":7051:7103  require(_amount > 0,\"FixedTermStack: Below minimum\") */\n      tag_112\n        /* \"#utility.yul\":4910:5263   */\n      jump\n        /* \"FixedTermStack.sol\":7051:7103  require(_amount > 0,\"FixedTermStack: Below minimum\") */\n    tag_315:\n        /* \"FixedTermStack.sol\":7120:7131  user.amount */\n      dup1\n      sload\n        /* \"FixedTermStack.sol\":7120:7135  user.amount > 0 */\n      iszero\n        /* \"FixedTermStack.sol\":7116:7509  if (user.amount > 0){... */\n      tag_320\n      jumpi\n        /* \"FixedTermStack.sol\":7207:7222  block.timestamp */\n      timestamp\n        /* \"FixedTermStack.sol\":7168:7205  user.lockStartTime.add(pool.duration) */\n      tag_319\n        /* \"FixedTermStack.sol\":7191:7195  pool */\n      dup4\n        /* \"FixedTermStack.sol\":7191:7204  pool.duration */\n      0x02\n      add\n      sload\n        /* \"FixedTermStack.sol\":7168:7172  user */\n      dup4\n        /* \"FixedTermStack.sol\":7168:7186  user.lockStartTime */\n      0x01\n      add\n      sload\n        /* \"FixedTermStack.sol\":7168:7190  user.lockStartTime.add */\n      tag_124\n      swap1\n        /* \"FixedTermStack.sol\":7168:7205  user.lockStartTime.add(pool.duration) */\n      swap2\n      swap1\n      0xffffffff\n      and\n      jump\t// in\n    tag_319:\n        /* \"FixedTermStack.sol\":7168:7222  user.lockStartTime.add(pool.duration)> block.timestamp */\n      gt\n        /* \"FixedTermStack.sol\":7165:7481  if(user.lockStartTime.add(pool.duration)> block.timestamp){... */\n      iszero\n      tag_320\n      jumpi\n        /* \"FixedTermStack.sol\":7290:7305  uint256 pending */\n      0x00\n        /* \"FixedTermStack.sol\":7308:7340  calculateReward(_pid,msg.sender) */\n      tag_321\n        /* \"FixedTermStack.sol\":7324:7328  _pid */\n      dup6\n        /* \"FixedTermStack.sol\":7329:7339  msg.sender */\n      caller\n        /* \"FixedTermStack.sol\":7308:7323  calculateReward */\n      tag_78\n        /* \"FixedTermStack.sol\":7308:7340  calculateReward(_pid,msg.sender) */\n      jump\t// in\n    tag_321:\n        /* \"FixedTermStack.sol\":7290:7340  uint256 pending = calculateReward(_pid,msg.sender) */\n      swap1\n      pop\n        /* \"FixedTermStack.sol\":7362:7373  pending > 0 */\n      dup1\n      iszero\n        /* \"FixedTermStack.sol\":7359:7464  if(pending > 0) {... */\n      tag_323\n      jumpi\n        /* \"FixedTermStack.sol\":7405:7409  para */\n      sload(0x03)\n        /* \"FixedTermStack.sol\":7398:7444  IBEP20(para).safeTransfer(msg.sender, pending) */\n      tag_323\n      swap1\n      sub(shl(0xa0, 0x01), 0x01)\n        /* \"FixedTermStack.sol\":7405:7409  para */\n      and\n        /* \"FixedTermStack.sol\":7424:7434  msg.sender */\n      caller\n        /* \"FixedTermStack.sol\":7436:7443  pending */\n      dup4\n        /* \"FixedTermStack.sol\":7398:7423  IBEP20(para).safeTransfer */\n      tag_115\n        /* \"FixedTermStack.sol\":7398:7444  IBEP20(para).safeTransfer(msg.sender, pending) */\n      jump\t// in\n    tag_323:\n        /* \"FixedTermStack.sol\":7223:7481  {... */\n      pop\n        /* \"FixedTermStack.sol\":7165:7481  if(user.lockStartTime.add(pool.duration)> block.timestamp){... */\n    tag_320:\n        /* \"FixedTermStack.sol\":7619:7630  user.amount */\n      dup1\n      sload\n        /* \"FixedTermStack.sol\":7619:7643  user.amount.add(_amount) */\n      tag_324\n      swap1\n        /* \"FixedTermStack.sol\":7635:7642  _amount */\n      dup5\n        /* \"FixedTermStack.sol\":7619:7634  user.amount.add */\n      tag_124\n        /* \"FixedTermStack.sol\":7619:7643  user.amount.add(_amount) */\n      jump\t// in\n    tag_324:\n        /* \"FixedTermStack.sol\":7605:7643  user.amount = user.amount.add(_amount) */\n      dup2\n      sstore\n        /* \"FixedTermStack.sol\":7675:7690  block.timestamp */\n      timestamp\n        /* \"FixedTermStack.sol\":7654:7672  user.lockStartTime */\n      0x01\n      dup1\n      dup4\n      add\n        /* \"FixedTermStack.sol\":7654:7690  user.lockStartTime = block.timestamp */\n      swap2\n      swap1\n      swap2\n      sstore\n        /* \"FixedTermStack.sol\":7715:7724  pool.aprs */\n      0x03\n      dup4\n      add\n        /* \"FixedTermStack.sol\":7715:7731  pool.aprs.length */\n      sload\n        /* \"FixedTermStack.sol\":7715:7735  pool.aprs.length - 1 */\n      tag_325\n      swap2\n        /* \"FixedTermStack.sol\":7654:7672  user.lockStartTime */\n      swap1\n        /* \"FixedTermStack.sol\":7715:7735  pool.aprs.length - 1 */\n      tag_132\n      jump\t// in\n    tag_325:\n        /* \"FixedTermStack.sol\":7701:7712  user.offset */\n      0x02\n      dup3\n      add\n        /* \"FixedTermStack.sol\":7701:7735  user.offset = pool.aprs.length - 1 */\n      sstore\n        /* \"FixedTermStack.sol\":7760:7771  pool.amount */\n      0x01\n      dup3\n      add\n      sload\n        /* \"FixedTermStack.sol\":7760:7784  pool.amount.add(_amount) */\n      tag_326\n      swap1\n        /* \"FixedTermStack.sol\":7776:7783  _amount */\n      dup5\n        /* \"FixedTermStack.sol\":7760:7775  pool.amount.add */\n      tag_124\n        /* \"FixedTermStack.sol\":7760:7784  pool.amount.add(_amount) */\n      jump\t// in\n    tag_326:\n        /* \"FixedTermStack.sol\":7746:7757  pool.amount */\n      0x01\n      dup4\n      add\n        /* \"FixedTermStack.sol\":7746:7784  pool.amount = pool.amount.add(_amount) */\n      sstore\n        /* \"FixedTermStack.sol\":7804:7808  para */\n      sload(0x03)\n        /* \"FixedTermStack.sol\":7797:7871  IBEP20(para).safeTransferFrom(address(msg.sender), address(this), _amount) */\n      tag_327\n      swap1\n      sub(shl(0xa0, 0x01), 0x01)\n        /* \"FixedTermStack.sol\":7804:7808  para */\n      and\n        /* \"FixedTermStack.sol\":7835:7845  msg.sender */\n      caller\n        /* \"FixedTermStack.sol\":7856:7860  this */\n      address\n        /* \"FixedTermStack.sol\":7863:7870  _amount */\n      dup7\n        /* \"FixedTermStack.sol\":7797:7826  IBEP20(para).safeTransferFrom */\n      tag_328\n        /* \"FixedTermStack.sol\":7797:7871  IBEP20(para).safeTransferFrom(address(msg.sender), address(this), _amount) */\n      jump\t// in\n    tag_327:\n        /* \"FixedTermStack.sol\":7887:7921  Deposit(msg.sender, _pid, _amount) */\n      mload(0x40)\n        /* \"#utility.yul\":160:185   */\n      dup4\n      dup2\n      mstore\n        /* \"FixedTermStack.sol\":7907:7911  _pid */\n      dup5\n      swap1\n        /* \"FixedTermStack.sol\":7895:7905  msg.sender */\n      caller\n      swap1\n        /* \"FixedTermStack.sol\":7887:7921  Deposit(msg.sender, _pid, _amount) */\n      0x90890809c654f11d6e72a28fa60149770a0d11ec6c92319d6ceb2bb0a4ea1a15\n      swap1\n        /* \"#utility.yul\":148:150   */\n      0x20\n        /* \"#utility.yul\":133:151   */\n      add\n        /* \"FixedTermStack.sol\":7887:7921  Deposit(msg.sender, _pid, _amount) */\n      tag_135\n        /* \"#utility.yul\":14:191   */\n      jump\n        /* \"@openzeppelin/contracts/access/Ownable.sol\":2081:2279  function transferOwnership(address newOwner) public virtual onlyOwner {... */\n    tag_95:\n        /* \"@openzeppelin/contracts/access/Ownable.sol\":1094:1107  _checkOwner() */\n      tag_331\n        /* \"@openzeppelin/contracts/access/Ownable.sol\":1094:1105  _checkOwner */\n      tag_109\n        /* \"@openzeppelin/contracts/access/Ownable.sol\":1094:1107  _checkOwner() */\n      jump\t// in\n    tag_331:\n      sub(shl(0xa0, 0x01), 0x01)\n        /* \"@openzeppelin/contracts/access/Ownable.sol\":2169:2191  newOwner != address(0) */\n      dup2\n      and\n        /* \"@openzeppelin/contracts/access/Ownable.sol\":2161:2234  require(newOwner != address(0), \"Ownable: new owner is the zero address\") */\n      tag_333\n      jumpi\n      mload(0x40)\n      shl(0xe5, 0x461bcd)\n      dup2\n      mstore\n        /* \"#utility.yul\":5470:5472   */\n      0x20\n        /* \"@openzeppelin/contracts/access/Ownable.sol\":2161:2234  require(newOwner != address(0), \"Ownable: new owner is the zero address\") */\n      0x04\n      dup3\n      add\n        /* \"#utility.yul\":5452:5473   */\n      mstore\n        /* \"#utility.yul\":5509:5511   */\n      0x26\n        /* \"#utility.yul\":5489:5507   */\n      0x24\n      dup3\n      add\n        /* \"#utility.yul\":5482:5512   */\n      mstore\n        /* \"#utility.yul\":5548:5582   */\n      0x4f776e61626c653a206e6577206f776e657220697320746865207a65726f2061\n        /* \"#utility.yul\":5528:5546   */\n      0x44\n      dup3\n      add\n        /* \"#utility.yul\":5521:5583   */\n      mstore\n      shl(0xd0, 0x646472657373)\n        /* \"#utility.yul\":5599:5617   */\n      0x64\n      dup3\n      add\n        /* \"#utility.yul\":5592:5628   */\n      mstore\n        /* \"#utility.yul\":5645:5664   */\n      0x84\n      add\n        /* \"@openzeppelin/contracts/access/Ownable.sol\":2161:2234  require(newOwner != address(0), \"Ownable: new owner is the zero address\") */\n      tag_112\n        /* \"#utility.yul\":5268:5670   */\n      jump\n        /* \"@openzeppelin/contracts/access/Ownable.sol\":2161:2234  require(newOwner != address(0), \"Ownable: new owner is the zero address\") */\n    tag_333:\n        /* \"@openzeppelin/contracts/access/Ownable.sol\":2244:2272  _transferOwnership(newOwner) */\n      tag_336\n        /* \"@openzeppelin/contracts/access/Ownable.sol\":2263:2271  newOwner */\n      dup2\n        /* \"@openzeppelin/contracts/access/Ownable.sol\":2244:2262  _transferOwnership */\n      tag_158\n        /* \"@openzeppelin/contracts/access/Ownable.sol\":2244:2272  _transferOwnership(newOwner) */\n      jump\t// in\n    tag_336:\n        /* \"@openzeppelin/contracts/access/Ownable.sol\":2081:2279  function transferOwnership(address newOwner) public virtual onlyOwner {... */\n      pop\n      jump\t// out\n        /* \"@openzeppelin/contracts/access/Ownable.sol\":1359:1489  function _checkOwner() internal view virtual {... */\n    tag_109:\n        /* \"@openzeppelin/contracts/access/Ownable.sol\":1247:1254  address */\n      0x00\n        /* \"@openzeppelin/contracts/access/Ownable.sol\":1273:1279  _owner */\n      sload\n      sub(shl(0xa0, 0x01), 0x01)\n      and\n        /* \"@openzeppelin/contracts/utils/Context.sol\":719:729  msg.sender */\n      caller\n        /* \"@openzeppelin/contracts/access/Ownable.sol\":1422:1445  owner() == _msgSender() */\n      eq\n        /* \"@openzeppelin/contracts/access/Ownable.sol\":1414:1482  require(owner() == _msgSender(), \"Ownable: caller is not the owner\") */\n      tag_157\n      jumpi\n      mload(0x40)\n      shl(0xe5, 0x461bcd)\n      dup2\n      mstore\n        /* \"#utility.yul\":5877:5879   */\n      0x20\n        /* \"@openzeppelin/contracts/access/Ownable.sol\":1414:1482  require(owner() == _msgSender(), \"Ownable: caller is not the owner\") */\n      0x04\n      dup3\n      add\n        /* \"#utility.yul\":5859:5880   */\n      dup2\n      swap1\n      mstore\n        /* \"#utility.yul\":5896:5914   */\n      0x24\n      dup3\n      add\n        /* \"#utility.yul\":5889:5919   */\n      mstore\n        /* \"#utility.yul\":5955:5989   */\n      0x4f776e61626c653a2063616c6c6572206973206e6f7420746865206f776e6572\n        /* \"#utility.yul\":5935:5953   */\n      0x44\n      dup3\n      add\n        /* \"#utility.yul\":5928:5990   */\n      mstore\n        /* \"#utility.yul\":6007:6025   */\n      0x64\n      add\n        /* \"@openzeppelin/contracts/access/Ownable.sol\":1414:1482  require(owner() == _msgSender(), \"Ownable: caller is not the owner\") */\n      tag_112\n        /* \"#utility.yul\":5675:6031   */\n      jump\n        /* \"libraries/SafeBEP20.sol\":771:982  function safeTransfer(... */\n    tag_115:\n        /* \"libraries/SafeBEP20.sol\":915:973  abi.encodeWithSelector(token.transfer.selector, to, value) */\n      mload(0x40)\n      sub(shl(0xa0, 0x01), 0x01)\n        /* \"#utility.yul\":6228:6260   */\n      dup4\n      and\n        /* \"libraries/SafeBEP20.sol\":915:973  abi.encodeWithSelector(token.transfer.selector, to, value) */\n      0x24\n      dup3\n      add\n        /* \"#utility.yul\":6210:6261   */\n      mstore\n        /* \"#utility.yul\":6277:6295   */\n      0x44\n      dup2\n      add\n        /* \"#utility.yul\":6270:6304   */\n      dup3\n      swap1\n      mstore\n        /* \"libraries/SafeBEP20.sol\":888:974  _callOptionalReturn(token, abi.encodeWithSelector(token.transfer.selector, to, value)) */\n      tag_345\n      swap1\n        /* \"libraries/SafeBEP20.sol\":908:913  token */\n      dup5\n      swap1\n      shl(0xe0, 0xa9059cbb)\n        /* \"libraries/SafeBEP20.sol\":938:961  token.transfer.selector */\n      swap1\n        /* \"#utility.yul\":6183:6201   */\n      0x64\n      add\n        /* \"libraries/SafeBEP20.sol\":915:973  abi.encodeWithSelector(token.transfer.selector, to, value) */\n    tag_346:\n      0x40\n      dup1\n      mload\n      not(0x1f)\n      dup2\n      dup5\n      sub\n      add\n      dup2\n      mstore\n      swap2\n      swap1\n      mstore\n      0x20\n      dup2\n      add\n      dup1\n      mload\n      sub(shl(0xe0, 0x01), 0x01)\n      and\n      not(sub(shl(0xe0, 0x01), 0x01))\n      swap1\n      swap4\n      and\n      swap3\n      swap1\n      swap3\n      or\n      swap1\n      swap2\n      mstore\n        /* \"libraries/SafeBEP20.sol\":888:907  _callOptionalReturn */\n      tag_348\n        /* \"libraries/SafeBEP20.sol\":888:974  _callOptionalReturn(token, abi.encodeWithSelector(token.transfer.selector, to, value)) */\n      jump\t// in\n    tag_345:\n        /* \"libraries/SafeBEP20.sol\":771:982  function safeTransfer(... */\n      pop\n      pop\n      pop\n      jump\t// out\n        /* \"@openzeppelin/contracts/utils/math/SafeMath.sol\":2755:2851  function add(uint256 a, uint256 b) internal pure returns (uint256) {... */\n    tag_124:\n        /* \"@openzeppelin/contracts/utils/math/SafeMath.sol\":2813:2820  uint256 */\n      0x00\n        /* \"@openzeppelin/contracts/utils/math/SafeMath.sol\":2839:2844  a + b */\n      tag_161\n        /* \"@openzeppelin/contracts/utils/math/SafeMath.sol\":2843:2844  b */\n      dup3\n        /* \"@openzeppelin/contracts/utils/math/SafeMath.sol\":2839:2840  a */\n      dup5\n        /* \"@openzeppelin/contracts/utils/math/SafeMath.sol\":2839:2844  a + b */\n      tag_144\n      jump\t// in\n        /* \"@openzeppelin/contracts/utils/math/SafeMath.sol\":3122:3218  function sub(uint256 a, uint256 b) internal pure returns (uint256) {... */\n    tag_130:\n        /* \"@openzeppelin/contracts/utils/math/SafeMath.sol\":3180:3187  uint256 */\n      0x00\n        /* \"@openzeppelin/contracts/utils/math/SafeMath.sol\":3206:3211  a - b */\n      tag_161\n        /* \"@openzeppelin/contracts/utils/math/SafeMath.sol\":3210:3211  b */\n      dup3\n        /* \"@openzeppelin/contracts/utils/math/SafeMath.sol\":3206:3207  a */\n      dup5\n        /* \"@openzeppelin/contracts/utils/math/SafeMath.sol\":3206:3211  a - b */\n      tag_132\n      jump\t// in\n        /* \"@openzeppelin/contracts/access/Ownable.sol\":2433:2620  function _transferOwnership(address newOwner) internal virtual {... */\n    tag_158:\n        /* \"@openzeppelin/contracts/access/Ownable.sol\":2506:2522  address oldOwner */\n      0x00\n        /* \"@openzeppelin/contracts/access/Ownable.sol\":2525:2531  _owner */\n      dup1\n      sload\n      sub(shl(0xa0, 0x01), 0x01)\n        /* \"@openzeppelin/contracts/access/Ownable.sol\":2541:2558  _owner = newOwner */\n      dup4\n      dup2\n      and\n      not(sub(shl(0xa0, 0x01), 0x01))\n      dup4\n      and\n      dup2\n      or\n      dup5\n      sstore\n        /* \"@openzeppelin/contracts/access/Ownable.sol\":2573:2613  OwnershipTransferred(oldOwner, newOwner) */\n      mload(0x40)\n        /* \"@openzeppelin/contracts/access/Ownable.sol\":2525:2531  _owner */\n      swap2\n      swap1\n      swap3\n      and\n      swap3\n      dup4\n      swap2\n        /* \"@openzeppelin/contracts/access/Ownable.sol\":2573:2613  OwnershipTransferred(oldOwner, newOwner) */\n      0x8be0079c531659141344cd1fd0a4f28419497f9722a3daafe3b4186f6b6457e0\n      swap2\n        /* \"@openzeppelin/contracts/access/Ownable.sol\":2506:2522  address oldOwner */\n      swap1\n        /* \"@openzeppelin/contracts/access/Ownable.sol\":2573:2613  OwnershipTransferred(oldOwner, newOwner) */\n      log3\n        /* \"@openzeppelin/contracts/access/Ownable.sol\":2496:2620  {... */\n      pop\n        /* \"@openzeppelin/contracts/access/Ownable.sol\":2433:2620  function _transferOwnership(address newOwner) internal virtual {... */\n      pop\n      jump\t// out\n        /* \"@openzeppelin/contracts/utils/math/SafeMath.sol\":3465:3561  function mul(uint256 a, uint256 b) internal pure returns (uint256) {... */\n    tag_178:\n        /* \"@openzeppelin/contracts/utils/math/SafeMath.sol\":3523:3530  uint256 */\n      0x00\n        /* \"@openzeppelin/contracts/utils/math/SafeMath.sol\":3549:3554  a * b */\n      tag_161\n        /* \"@openzeppelin/contracts/utils/math/SafeMath.sol\":3553:3554  b */\n      dup3\n        /* \"@openzeppelin/contracts/utils/math/SafeMath.sol\":3549:3550  a */\n      dup5\n        /* \"@openzeppelin/contracts/utils/math/SafeMath.sol\":3549:3554  a * b */\n      tag_153\n      jump\t// in\n        /* \"@openzeppelin/contracts/utils/math/SafeMath.sol\":3850:3946  function div(uint256 a, uint256 b) internal pure returns (uint256) {... */\n    tag_181:\n        /* \"@openzeppelin/contracts/utils/math/SafeMath.sol\":3908:3915  uint256 */\n      0x00\n        /* \"@openzeppelin/contracts/utils/math/SafeMath.sol\":3934:3939  a / b */\n      tag_161\n        /* \"@openzeppelin/contracts/utils/math/SafeMath.sol\":3938:3939  b */\n      dup3\n        /* \"@openzeppelin/contracts/utils/math/SafeMath.sol\":3934:3935  a */\n      dup5\n        /* \"@openzeppelin/contracts/utils/math/SafeMath.sol\":3934:3939  a / b */\n      tag_358\n      jump\t// in\n        /* \"libraries/SafeBEP20.sol\":990:1238  function safeTransferFrom(... */\n    tag_328:\n        /* \"libraries/SafeBEP20.sol\":1161:1229  abi.encodeWithSelector(token.transferFrom.selector, from, to, value) */\n      mload(0x40)\n      sub(shl(0xa0, 0x01), 0x01)\n        /* \"#utility.yul\":6795:6810   */\n      dup1\n      dup6\n      and\n        /* \"libraries/SafeBEP20.sol\":1161:1229  abi.encodeWithSelector(token.transferFrom.selector, from, to, value) */\n      0x24\n      dup4\n      add\n        /* \"#utility.yul\":6777:6811   */\n      mstore\n        /* \"#utility.yul\":6847:6862   */\n      dup4\n      and\n        /* \"#utility.yul\":6827:6845   */\n      0x44\n      dup3\n      add\n        /* \"#utility.yul\":6820:6863   */\n      mstore\n        /* \"#utility.yul\":6879:6897   */\n      0x64\n      dup2\n      add\n        /* \"#utility.yul\":6872:6906   */\n      dup3\n      swap1\n      mstore\n        /* \"libraries/SafeBEP20.sol\":1134:1230  _callOptionalReturn(token, abi.encodeWithSelector(token.transferFrom.selector, from, to, value)) */\n      tag_360\n      swap1\n        /* \"libraries/SafeBEP20.sol\":1154:1159  token */\n      dup6\n      swap1\n      shl(0xe0, 0x23b872dd)\n        /* \"libraries/SafeBEP20.sol\":1184:1211  token.transferFrom.selector */\n      swap1\n        /* \"#utility.yul\":6712:6730   */\n      0x84\n      add\n        /* \"libraries/SafeBEP20.sol\":1161:1229  abi.encodeWithSelector(token.transferFrom.selector, from, to, value) */\n      tag_346\n        /* \"#utility.yul\":6537:6912   */\n      jump\n        /* \"libraries/SafeBEP20.sol\":1134:1230  _callOptionalReturn(token, abi.encodeWithSelector(token.transferFrom.selector, from, to, value)) */\n    tag_360:\n        /* \"libraries/SafeBEP20.sol\":990:1238  function safeTransferFrom(... */\n      pop\n      pop\n      pop\n      pop\n      jump\t// out\n        /* \"libraries/SafeBEP20.sol\":3282:4056  function _callOptionalReturn(IBEP20 token, bytes memory data) private {... */\n    tag_348:\n        /* \"libraries/SafeBEP20.sol\":3706:3729  bytes memory returndata */\n      0x00\n        /* \"libraries/SafeBEP20.sol\":3732:3801  address(token).functionCall(data, \"SafeBEP20: low-level call failed\") */\n      tag_365\n        /* \"libraries/SafeBEP20.sol\":3760:3764  data */\n      dup3\n        /* \"libraries/SafeBEP20.sol\":3732:3801  address(token).functionCall(data, \"SafeBEP20: low-level call failed\") */\n      mload(0x40)\n      dup1\n      0x40\n      add\n      0x40\n      mstore\n      dup1\n      0x20\n      dup2\n      mstore\n      0x20\n      add\n      0x5361666542455032303a206c6f772d6c6576656c2063616c6c206661696c6564\n      dup2\n      mstore\n      pop\n        /* \"libraries/SafeBEP20.sol\":3740:3745  token */\n      dup6\n      sub(shl(0xa0, 0x01), 0x01)\n        /* \"libraries/SafeBEP20.sol\":3732:3759  address(token).functionCall */\n      and\n      tag_366\n      swap1\n        /* \"libraries/SafeBEP20.sol\":3732:3801  address(token).functionCall(data, \"SafeBEP20: low-level call failed\") */\n      swap3\n      swap2\n      swap1\n      0xffffffff\n      and\n      jump\t// in\n    tag_365:\n        /* \"libraries/SafeBEP20.sol\":3816:3833  returndata.length */\n      dup1\n      mload\n        /* \"libraries/SafeBEP20.sol\":3706:3801  bytes memory returndata = address(token).functionCall(data, \"SafeBEP20: low-level call failed\") */\n      swap1\n      swap2\n      pop\n        /* \"libraries/SafeBEP20.sol\":3816:3837  returndata.length > 0 */\n      iszero\n        /* \"libraries/SafeBEP20.sol\":3812:4049  if (returndata.length > 0) {... */\n      tag_345\n      jumpi\n        /* \"libraries/SafeBEP20.sol\":3971:3981  returndata */\n      dup1\n        /* \"libraries/SafeBEP20.sol\":3960:3990  abi.decode(returndata, (bool)) */\n      dup1\n      0x20\n      add\n      swap1\n      mload\n      dup2\n      add\n      swap1\n      tag_368\n      swap2\n      swap1\n      tag_369\n      jump\t// in\n    tag_368:\n        /* \"libraries/SafeBEP20.sol\":3952:4037  require(abi.decode(returndata, (bool)), \"SafeBEP20: BEP20 operation did not succeed\") */\n      tag_345\n      jumpi\n      mload(0x40)\n      shl(0xe5, 0x461bcd)\n      dup2\n      mstore\n        /* \"#utility.yul\":7401:7403   */\n      0x20\n        /* \"libraries/SafeBEP20.sol\":3952:4037  require(abi.decode(returndata, (bool)), \"SafeBEP20: BEP20 operation did not succeed\") */\n      0x04\n      dup3\n      add\n        /* \"#utility.yul\":7383:7404   */\n      mstore\n        /* \"#utility.yul\":7440:7442   */\n      0x2a\n        /* \"#utility.yul\":7420:7438   */\n      0x24\n      dup3\n      add\n        /* \"#utility.yul\":7413:7443   */\n      mstore\n        /* \"#utility.yul\":7479:7513   */\n      0x5361666542455032303a204245503230206f7065726174696f6e20646964206e\n        /* \"#utility.yul\":7459:7477   */\n      0x44\n      dup3\n      add\n        /* \"#utility.yul\":7452:7514   */\n      mstore\n      shl(0xb2, 0x1bdd081cdd58d8d95959)\n        /* \"#utility.yul\":7530:7548   */\n      0x64\n      dup3\n      add\n        /* \"#utility.yul\":7523:7563   */\n      mstore\n        /* \"#utility.yul\":7580:7599   */\n      0x84\n      add\n        /* \"libraries/SafeBEP20.sol\":3952:4037  require(abi.decode(returndata, (bool)), \"SafeBEP20: BEP20 operation did not succeed\") */\n      tag_112\n        /* \"#utility.yul\":7199:7605   */\n      jump\n        /* \"@openzeppelin/contracts/utils/Address.sol\":3873:4096  function functionCall(... */\n    tag_366:\n        /* \"@openzeppelin/contracts/utils/Address.sol\":4006:4018  bytes memory */\n      0x60\n        /* \"@openzeppelin/contracts/utils/Address.sol\":4037:4089  functionCallWithValue(target, data, 0, errorMessage) */\n      tag_374\n        /* \"@openzeppelin/contracts/utils/Address.sol\":4059:4065  target */\n      dup5\n        /* \"@openzeppelin/contracts/utils/Address.sol\":4067:4071  data */\n      dup5\n        /* \"@openzeppelin/contracts/utils/Address.sol\":4073:4074  0 */\n      0x00\n        /* \"@openzeppelin/contracts/utils/Address.sol\":4076:4088  errorMessage */\n      dup6\n        /* \"@openzeppelin/contracts/utils/Address.sol\":4037:4058  functionCallWithValue */\n      tag_375\n        /* \"@openzeppelin/contracts/utils/Address.sol\":4037:4089  functionCallWithValue(target, data, 0, errorMessage) */\n      jump\t// in\n    tag_374:\n        /* \"@openzeppelin/contracts/utils/Address.sol\":4030:4089  return functionCallWithValue(target, data, 0, errorMessage) */\n      swap5\n        /* \"@openzeppelin/contracts/utils/Address.sol\":3873:4096  function functionCall(... */\n      swap4\n      pop\n      pop\n      pop\n      pop\n      jump\t// out\n        /* \"@openzeppelin/contracts/utils/Address.sol\":4960:5406  function functionCallWithValue(... */\n    tag_375:\n        /* \"@openzeppelin/contracts/utils/Address.sol\":5125:5137  bytes memory */\n      0x60\n        /* \"@openzeppelin/contracts/utils/Address.sol\":5182:5187  value */\n      dup3\n        /* \"@openzeppelin/contracts/utils/Address.sol\":5157:5178  address(this).balance */\n      selfbalance\n        /* \"@openzeppelin/contracts/utils/Address.sol\":5157:5187  address(this).balance >= value */\n      lt\n      iszero\n        /* \"@openzeppelin/contracts/utils/Address.sol\":5149:5230  require(address(this).balance >= value, \"Address: insufficient balance for call\") */\n      tag_377\n      jumpi\n      mload(0x40)\n      shl(0xe5, 0x461bcd)\n      dup2\n      mstore\n        /* \"#utility.yul\":7812:7814   */\n      0x20\n        /* \"@openzeppelin/contracts/utils/Address.sol\":5149:5230  require(address(this).balance >= value, \"Address: insufficient balance for call\") */\n      0x04\n      dup3\n      add\n        /* \"#utility.yul\":7794:7815   */\n      mstore\n        /* \"#utility.yul\":7851:7853   */\n      0x26\n        /* \"#utility.yul\":7831:7849   */\n      0x24\n      dup3\n      add\n        /* \"#utility.yul\":7824:7854   */\n      mstore\n        /* \"#utility.yul\":7890:7924   */\n      0x416464726573733a20696e73756666696369656e742062616c616e636520666f\n        /* \"#utility.yul\":7870:7888   */\n      0x44\n      dup3\n      add\n        /* \"#utility.yul\":7863:7925   */\n      mstore\n      shl(0xd2, 0x1c8818d85b1b)\n        /* \"#utility.yul\":7941:7959   */\n      0x64\n      dup3\n      add\n        /* \"#utility.yul\":7934:7970   */\n      mstore\n        /* \"#utility.yul\":7987:8006   */\n      0x84\n      add\n        /* \"@openzeppelin/contracts/utils/Address.sol\":5149:5230  require(address(this).balance >= value, \"Address: insufficient balance for call\") */\n      tag_112\n        /* \"#utility.yul\":7610:8012   */\n      jump\n        /* \"@openzeppelin/contracts/utils/Address.sol\":5149:5230  require(address(this).balance >= value, \"Address: insufficient balance for call\") */\n    tag_377:\n        /* \"@openzeppelin/contracts/utils/Address.sol\":5241:5253  bool success */\n      0x00\n        /* \"@openzeppelin/contracts/utils/Address.sol\":5255:5278  bytes memory returndata */\n      dup1\n        /* \"@openzeppelin/contracts/utils/Address.sol\":5282:5288  target */\n      dup7\n      sub(shl(0xa0, 0x01), 0x01)\n        /* \"@openzeppelin/contracts/utils/Address.sol\":5282:5293  target.call */\n      and\n        /* \"@openzeppelin/contracts/utils/Address.sol\":5301:5306  value */\n      dup6\n        /* \"@openzeppelin/contracts/utils/Address.sol\":5308:5312  data */\n      dup8\n        /* \"@openzeppelin/contracts/utils/Address.sol\":5282:5313  target.call{value: value}(data) */\n      mload(0x40)\n      tag_380\n      swap2\n      swap1\n      tag_381\n      jump\t// in\n    tag_380:\n      0x00\n      mload(0x40)\n      dup1\n      dup4\n      sub\n      dup2\n      dup6\n      dup8\n      gas\n      call\n      swap3\n      pop\n      pop\n      pop\n      returndatasize\n      dup1\n      0x00\n      dup2\n      eq\n      tag_384\n      jumpi\n      mload(0x40)\n      swap2\n      pop\n      and(add(returndatasize, 0x3f), not(0x1f))\n      dup3\n      add\n      0x40\n      mstore\n      returndatasize\n      dup3\n      mstore\n      returndatasize\n      0x00\n      0x20\n      dup5\n      add\n      returndatacopy\n      jump(tag_383)\n    tag_384:\n      0x60\n      swap2\n      pop\n    tag_383:\n      pop\n        /* \"@openzeppelin/contracts/utils/Address.sol\":5240:5313  (bool success, bytes memory returndata) = target.call{value: value}(data) */\n      swap2\n      pop\n      swap2\n      pop\n        /* \"@openzeppelin/contracts/utils/Address.sol\":5330:5399  verifyCallResultFromTarget(target, success, returndata, errorMessage) */\n      tag_385\n        /* \"@openzeppelin/contracts/utils/Address.sol\":5357:5363  target */\n      dup8\n        /* \"@openzeppelin/contracts/utils/Address.sol\":5365:5372  success */\n      dup4\n        /* \"@openzeppelin/contracts/utils/Address.sol\":5374:5384  returndata */\n      dup4\n        /* \"@openzeppelin/contracts/utils/Address.sol\":5386:5398  errorMessage */\n      dup8\n        /* \"@openzeppelin/contracts/utils/Address.sol\":5330:5356  verifyCallResultFromTarget */\n      tag_386\n        /* \"@openzeppelin/contracts/utils/Address.sol\":5330:5399  verifyCallResultFromTarget(target, success, returndata, errorMessage) */\n      jump\t// in\n    tag_385:\n        /* \"@openzeppelin/contracts/utils/Address.sol\":5323:5399  return verifyCallResultFromTarget(target, success, returndata, errorMessage) */\n      swap8\n        /* \"@openzeppelin/contracts/utils/Address.sol\":4960:5406  function functionCallWithValue(... */\n      swap7\n      pop\n      pop\n      pop\n      pop\n      pop\n      pop\n      pop\n      jump\t// out\n        /* \"@openzeppelin/contracts/utils/Address.sol\":7466:8094  function verifyCallResultFromTarget(... */\n    tag_386:\n        /* \"@openzeppelin/contracts/utils/Address.sol\":7646:7658  bytes memory */\n      0x60\n        /* \"@openzeppelin/contracts/utils/Address.sol\":7674:7681  success */\n      dup4\n        /* \"@openzeppelin/contracts/utils/Address.sol\":7670:8088  if (success) {... */\n      iszero\n      tag_388\n      jumpi\n        /* \"@openzeppelin/contracts/utils/Address.sol\":7701:7711  returndata */\n      dup3\n        /* \"@openzeppelin/contracts/utils/Address.sol\":7701:7718  returndata.length */\n      mload\n        /* \"@openzeppelin/contracts/utils/Address.sol\":7722:7723  0 */\n      0x00\n        /* \"@openzeppelin/contracts/utils/Address.sol\":7701:7723  returndata.length == 0 */\n      sub\n        /* \"@openzeppelin/contracts/utils/Address.sol\":7697:7983  if (returndata.length == 0) {... */\n      tag_392\n      jumpi\n      sub(shl(0xa0, 0x01), 0x01)\n        /* \"@openzeppelin/contracts/utils/Address.sol\":1465:1484  account.code.length */\n      dup6\n      and\n      extcodesize\n        /* \"@openzeppelin/contracts/utils/Address.sol\":7908:7968  require(isContract(target), \"Address: call to non-contract\") */\n      tag_392\n      jumpi\n      mload(0x40)\n      shl(0xe5, 0x461bcd)\n      dup2\n      mstore\n        /* \"#utility.yul\":8766:8768   */\n      0x20\n        /* \"@openzeppelin/contracts/utils/Address.sol\":7908:7968  require(isContract(target), \"Address: call to non-contract\") */\n      0x04\n      dup3\n      add\n        /* \"#utility.yul\":8748:8769   */\n      mstore\n        /* \"#utility.yul\":8805:8807   */\n      0x1d\n        /* \"#utility.yul\":8785:8803   */\n      0x24\n      dup3\n      add\n        /* \"#utility.yul\":8778:8808   */\n      mstore\n        /* \"#utility.yul\":8844:8875   */\n      0x416464726573733a2063616c6c20746f206e6f6e2d636f6e7472616374000000\n        /* \"#utility.yul\":8824:8842   */\n      0x44\n      dup3\n      add\n        /* \"#utility.yul\":8817:8876   */\n      mstore\n        /* \"#utility.yul\":8893:8911   */\n      0x64\n      add\n        /* \"@openzeppelin/contracts/utils/Address.sol\":7908:7968  require(isContract(target), \"Address: call to non-contract\") */\n      tag_112\n        /* \"#utility.yul\":8564:8917   */\n      jump\n        /* \"@openzeppelin/contracts/utils/Address.sol\":7908:7968  require(isContract(target), \"Address: call to non-contract\") */\n    tag_392:\n      pop\n        /* \"@openzeppelin/contracts/utils/Address.sol\":8003:8013  returndata */\n      dup2\n        /* \"@openzeppelin/contracts/utils/Address.sol\":7996:8013  return returndata */\n      jump(tag_374)\n        /* \"@openzeppelin/contracts/utils/Address.sol\":7670:8088  if (success) {... */\n    tag_388:\n        /* \"@openzeppelin/contracts/utils/Address.sol\":8044:8077  _revert(returndata, errorMessage) */\n      tag_374\n        /* \"@openzeppelin/contracts/utils/Address.sol\":8052:8062  returndata */\n      dup4\n        /* \"@openzeppelin/contracts/utils/Address.sol\":8064:8076  errorMessage */\n      dup4\n        /* \"@openzeppelin/contracts/utils/Address.sol\":8775:8792  returndata.length */\n      dup2\n      mload\n        /* \"@openzeppelin/contracts/utils/Address.sol\":8775:8796  returndata.length > 0 */\n      iszero\n        /* \"@openzeppelin/contracts/utils/Address.sol\":8771:9150  if (returndata.length > 0) {... */\n      tag_400\n      jumpi\n        /* \"@openzeppelin/contracts/utils/Address.sol\":9003:9013  returndata */\n      dup2\n        /* \"@openzeppelin/contracts/utils/Address.sol\":8997:9014  mload(returndata) */\n      mload\n        /* \"@openzeppelin/contracts/utils/Address.sol\":9059:9074  returndata_size */\n      dup1\n        /* \"@openzeppelin/contracts/utils/Address.sol\":9046:9056  returndata */\n      dup4\n        /* \"@openzeppelin/contracts/utils/Address.sol\":9042:9044  32 */\n      0x20\n        /* \"@openzeppelin/contracts/utils/Address.sol\":9038:9057  add(32, returndata) */\n      add\n        /* \"@openzeppelin/contracts/utils/Address.sol\":9031:9075  revert(add(32, returndata), returndata_size) */\n      revert\n        /* \"@openzeppelin/contracts/utils/Address.sol\":8771:9150  if (returndata.length > 0) {... */\n    tag_400:\n        /* \"@openzeppelin/contracts/utils/Address.sol\":9126:9138  errorMessage */\n      dup1\n        /* \"@openzeppelin/contracts/utils/Address.sol\":9119:9139  revert(errorMessage) */\n      mload(0x40)\n      shl(0xe5, 0x461bcd)\n      dup2\n      mstore\n      0x04\n      add\n      tag_112\n      swap2\n      swap1\n      tag_403\n      jump\t// in\n        /* \"#utility.yul\":196:376   */\n    tag_31:\n        /* \"#utility.yul\":255:261   */\n      0x00\n        /* \"#utility.yul\":308:310   */\n      0x20\n        /* \"#utility.yul\":296:305   */\n      dup3\n        /* \"#utility.yul\":287:294   */\n      dup5\n        /* \"#utility.yul\":283:306   */\n      sub\n        /* \"#utility.yul\":279:311   */\n      slt\n        /* \"#utility.yul\":276:328   */\n      iszero\n      tag_410\n      jumpi\n        /* \"#utility.yul\":324:325   */\n      0x00\n        /* \"#utility.yul\":321:322   */\n      dup1\n        /* \"#utility.yul\":314:326   */\n      revert\n        /* \"#utility.yul\":276:328   */\n    tag_410:\n      pop\n        /* \"#utility.yul\":347:370   */\n      calldataload\n      swap2\n        /* \"#utility.yul\":196:376   */\n      swap1\n      pop\n      jump\t// out\n        /* \"#utility.yul\":381:1416   */\n    tag_34:\n        /* \"#utility.yul\":523:527   */\n      0x00\n        /* \"#utility.yul\":552:554   */\n      0x20\n        /* \"#utility.yul\":581:583   */\n      dup1\n        /* \"#utility.yul\":570:579   */\n      dup4\n        /* \"#utility.yul\":563:584   */\n      mstore\n        /* \"#utility.yul\":622:625   */\n      0xa0\n        /* \"#utility.yul\":611:620   */\n      dup4\n        /* \"#utility.yul\":607:626   */\n      add\n        /* \"#utility.yul\":668:674   */\n      dup5\n        /* \"#utility.yul\":662:675   */\n      mload\n        /* \"#utility.yul\":657:659   */\n      dup3\n        /* \"#utility.yul\":646:655   */\n      dup6\n        /* \"#utility.yul\":642:660   */\n      add\n        /* \"#utility.yul\":635:676   */\n      mstore\n        /* \"#utility.yul\":713:715   */\n      dup2\n        /* \"#utility.yul\":705:711   */\n      dup6\n        /* \"#utility.yul\":701:716   */\n      add\n        /* \"#utility.yul\":695:717   */\n      mload\n        /* \"#utility.yul\":736:738   */\n      0x40\n        /* \"#utility.yul\":774:776   */\n      dup2\n        /* \"#utility.yul\":769:771   */\n      dup2\n        /* \"#utility.yul\":758:767   */\n      dup8\n        /* \"#utility.yul\":754:772   */\n      add\n        /* \"#utility.yul\":747:777   */\n      mstore\n        /* \"#utility.yul\":831:833   */\n      dup1\n        /* \"#utility.yul\":823:829   */\n      dup8\n        /* \"#utility.yul\":819:834   */\n      add\n        /* \"#utility.yul\":813:835   */\n      mload\n        /* \"#utility.yul\":808:810   */\n      0x60\n        /* \"#utility.yul\":797:806   */\n      dup8\n        /* \"#utility.yul\":793:811   */\n      add\n        /* \"#utility.yul\":786:836   */\n      mstore\n        /* \"#utility.yul\":883:885   */\n      0x60\n        /* \"#utility.yul\":875:881   */\n      dup8\n        /* \"#utility.yul\":871:886   */\n      add\n        /* \"#utility.yul\":865:887   */\n      mload\n        /* \"#utility.yul\":845:887   */\n      swap2\n      pop\n        /* \"#utility.yul\":925:929   */\n      0x80\n        /* \"#utility.yul\":918:922   */\n      dup1\n        /* \"#utility.yul\":907:916   */\n      dup8\n        /* \"#utility.yul\":903:923   */\n      add\n        /* \"#utility.yul\":896:930   */\n      mstore\n        /* \"#utility.yul\":950:956   */\n      dup3\n        /* \"#utility.yul\":985:997   */\n      dup3\n        /* \"#utility.yul\":979:998   */\n      mload\n        /* \"#utility.yul\":1022:1028   */\n      dup1\n        /* \"#utility.yul\":1014:1020   */\n      dup6\n        /* \"#utility.yul\":1007:1029   */\n      mstore\n        /* \"#utility.yul\":1060:1063   */\n      0xc0\n        /* \"#utility.yul\":1049:1058   */\n      dup9\n        /* \"#utility.yul\":1045:1064   */\n      add\n        /* \"#utility.yul\":1038:1064   */\n      swap2\n      pop\n        /* \"#utility.yul\":1105:1107   */\n      dup6\n        /* \"#utility.yul\":1091:1103   */\n      dup5\n        /* \"#utility.yul\":1087:1108   */\n      add\n        /* \"#utility.yul\":1073:1108   */\n      swap5\n      pop\n        /* \"#utility.yul\":1126:1127   */\n      0x00\n        /* \"#utility.yul\":1117:1127   */\n      swap4\n      pop\n        /* \"#utility.yul\":1136:1390   */\n    tag_412:\n        /* \"#utility.yul\":1150:1156   */\n      dup1\n        /* \"#utility.yul\":1147:1148   */\n      dup5\n        /* \"#utility.yul\":1144:1157   */\n      lt\n        /* \"#utility.yul\":1136:1390   */\n      iszero\n      tag_414\n      jumpi\n        /* \"#utility.yul\":1209:1222   */\n      dup5\n      mload\n        /* \"#utility.yul\":1247:1256   */\n      dup1\n      mload\n        /* \"#utility.yul\":1235:1257   */\n      dup4\n      mstore\n        /* \"#utility.yul\":1297:1308   */\n      dup7\n      add\n        /* \"#utility.yul\":1291:1309   */\n      mload\n        /* \"#utility.yul\":1277:1289   */\n      dup7\n      dup4\n      add\n        /* \"#utility.yul\":1270:1310   */\n      mstore\n        /* \"#utility.yul\":1365:1380   */\n      swap4\n      dup6\n      add\n      swap4\n        /* \"#utility.yul\":1172:1173   */\n      0x01\n        /* \"#utility.yul\":1165:1174   */\n      swap4\n      swap1\n      swap4\n      add\n      swap3\n        /* \"#utility.yul\":1330:1342   */\n      swap1\n      dup3\n      add\n      swap1\n        /* \"#utility.yul\":1136:1390   */\n      jump(tag_412)\n    tag_414:\n      pop\n        /* \"#utility.yul\":1407:1410   */\n      swap8\n        /* \"#utility.yul\":381:1416   */\n      swap7\n      pop\n      pop\n      pop\n      pop\n      pop\n      pop\n      pop\n      jump\t// out\n        /* \"#utility.yul\":1644:1817   */\n    tag_404:\n        /* \"#utility.yul\":1712:1732   */\n      dup1\n      calldataload\n      sub(shl(0xa0, 0x01), 0x01)\n        /* \"#utility.yul\":1761:1792   */\n      dup2\n      and\n        /* \"#utility.yul\":1751:1793   */\n      dup2\n      eq\n        /* \"#utility.yul\":1741:1811   */\n      tag_417\n      jumpi\n        /* \"#utility.yul\":1807:1808   */\n      0x00\n        /* \"#utility.yul\":1804:1805   */\n      dup1\n        /* \"#utility.yul\":1797:1809   */\n      revert\n        /* \"#utility.yul\":1741:1811   */\n    tag_417:\n        /* \"#utility.yul\":1644:1817   */\n      swap2\n      swap1\n      pop\n      jump\t// out\n        /* \"#utility.yul\":1822:2076   */\n    tag_41:\n        /* \"#utility.yul\":1890:1896   */\n      0x00\n        /* \"#utility.yul\":1898:1904   */\n      dup1\n        /* \"#utility.yul\":1951:1953   */\n      0x40\n        /* \"#utility.yul\":1939:1948   */\n      dup4\n        /* \"#utility.yul\":1930:1937   */\n      dup6\n        /* \"#utility.yul\":1926:1949   */\n      sub\n        /* \"#utility.yul\":1922:1954   */\n      slt\n        /* \"#utility.yul\":1919:1971   */\n      iszero\n      tag_419\n      jumpi\n        /* \"#utility.yul\":1967:1968   */\n      0x00\n        /* \"#utility.yul\":1964:1965   */\n      dup1\n        /* \"#utility.yul\":1957:1969   */\n      revert\n        /* \"#utility.yul\":1919:1971   */\n    tag_419:\n        /* \"#utility.yul\":1990:2019   */\n      tag_420\n        /* \"#utility.yul\":2009:2018   */\n      dup4\n        /* \"#utility.yul\":1990:2019   */\n      tag_404\n      jump\t// in\n    tag_420:\n        /* \"#utility.yul\":1980:2019   */\n      swap5\n        /* \"#utility.yul\":2066:2068   */\n      0x20\n        /* \"#utility.yul\":2051:2069   */\n      swap4\n      swap1\n      swap4\n      add\n        /* \"#utility.yul\":2038:2070   */\n      calldataload\n      swap4\n      pop\n      pop\n      pop\n        /* \"#utility.yul\":1822:2076   */\n      jump\t// out\n        /* \"#utility.yul\":2081:2329   */\n    tag_45:\n        /* \"#utility.yul\":2149:2155   */\n      0x00\n        /* \"#utility.yul\":2157:2163   */\n      dup1\n        /* \"#utility.yul\":2210:2212   */\n      0x40\n        /* \"#utility.yul\":2198:2207   */\n      dup4\n        /* \"#utility.yul\":2189:2196   */\n      dup6\n        /* \"#utility.yul\":2185:2208   */\n      sub\n        /* \"#utility.yul\":2181:2213   */\n      slt\n        /* \"#utility.yul\":2178:2230   */\n      iszero\n      tag_422\n      jumpi\n        /* \"#utility.yul\":2226:2227   */\n      0x00\n        /* \"#utility.yul\":2223:2224   */\n      dup1\n        /* \"#utility.yul\":2216:2228   */\n      revert\n        /* \"#utility.yul\":2178:2230   */\n    tag_422:\n      pop\n      pop\n        /* \"#utility.yul\":2249:2272   */\n      dup1\n      calldataload\n      swap3\n        /* \"#utility.yul\":2319:2321   */\n      0x20\n        /* \"#utility.yul\":2304:2322   */\n      swap1\n      swap2\n      add\n        /* \"#utility.yul\":2291:2323   */\n      calldataload\n      swap2\n      pop\n        /* \"#utility.yul\":2081:2329   */\n      jump\t// out\n        /* \"#utility.yul\":2542:2796   */\n    tag_68:\n        /* \"#utility.yul\":2610:2616   */\n      0x00\n        /* \"#utility.yul\":2618:2624   */\n      dup1\n        /* \"#utility.yul\":2671:2673   */\n      0x40\n        /* \"#utility.yul\":2659:2668   */\n      dup4\n        /* \"#utility.yul\":2650:2657   */\n      dup6\n        /* \"#utility.yul\":2646:2669   */\n      sub\n        /* \"#utility.yul\":2642:2674   */\n      slt\n        /* \"#utility.yul\":2639:2691   */\n      iszero\n      tag_425\n      jumpi\n        /* \"#utility.yul\":2687:2688   */\n      0x00\n        /* \"#utility.yul\":2684:2685   */\n      dup1\n        /* \"#utility.yul\":2677:2689   */\n      revert\n        /* \"#utility.yul\":2639:2691   */\n    tag_425:\n        /* \"#utility.yul\":2723:2732   */\n      dup3\n        /* \"#utility.yul\":2710:2733   */\n      calldataload\n        /* \"#utility.yul\":2700:2733   */\n      swap2\n      pop\n        /* \"#utility.yul\":2752:2790   */\n      tag_426\n        /* \"#utility.yul\":2786:2788   */\n      0x20\n        /* \"#utility.yul\":2775:2784   */\n      dup5\n        /* \"#utility.yul\":2771:2789   */\n      add\n        /* \"#utility.yul\":2752:2790   */\n      tag_404\n      jump\t// in\n    tag_426:\n        /* \"#utility.yul\":2742:2790   */\n      swap1\n      pop\n        /* \"#utility.yul\":2542:2796   */\n      swap3\n      pop\n      swap3\n      swap1\n      pop\n      jump\t// out\n        /* \"#utility.yul\":3125:3311   */\n    tag_94:\n        /* \"#utility.yul\":3184:3190   */\n      0x00\n        /* \"#utility.yul\":3237:3239   */\n      0x20\n        /* \"#utility.yul\":3225:3234   */\n      dup3\n        /* \"#utility.yul\":3216:3223   */\n      dup5\n        /* \"#utility.yul\":3212:3235   */\n      sub\n        /* \"#utility.yul\":3208:3240   */\n      slt\n        /* \"#utility.yul\":3205:3257   */\n      iszero\n      tag_429\n      jumpi\n        /* \"#utility.yul\":3253:3254   */\n      0x00\n        /* \"#utility.yul\":3250:3251   */\n      dup1\n        /* \"#utility.yul\":3243:3255   */\n      revert\n        /* \"#utility.yul\":3205:3257   */\n    tag_429:\n        /* \"#utility.yul\":3276:3305   */\n      tag_161\n        /* \"#utility.yul\":3295:3304   */\n      dup3\n        /* \"#utility.yul\":3276:3305   */\n      tag_404\n      jump\t// in\n        /* \"#utility.yul\":3316:3443   */\n    tag_102:\n        /* \"#utility.yul\":3377:3387   */\n      0x4e487b71\n        /* \"#utility.yul\":3372:3375   */\n      0xe0\n        /* \"#utility.yul\":3368:3388   */\n      shl\n        /* \"#utility.yul\":3365:3366   */\n      0x00\n        /* \"#utility.yul\":3358:3389   */\n      mstore\n        /* \"#utility.yul\":3408:3412   */\n      0x32\n        /* \"#utility.yul\":3405:3406   */\n      0x04\n        /* \"#utility.yul\":3398:3413   */\n      mstore\n        /* \"#utility.yul\":3432:3436   */\n      0x24\n        /* \"#utility.yul\":3429:3430   */\n      0x00\n        /* \"#utility.yul\":3422:3437   */\n      revert\n        /* \"#utility.yul\":4202:4329   */\n    tag_405:\n        /* \"#utility.yul\":4263:4273   */\n      0x4e487b71\n        /* \"#utility.yul\":4258:4261   */\n      0xe0\n        /* \"#utility.yul\":4254:4274   */\n      shl\n        /* \"#utility.yul\":4251:4252   */\n      0x00\n        /* \"#utility.yul\":4244:4275   */\n      mstore\n        /* \"#utility.yul\":4294:4298   */\n      0x11\n        /* \"#utility.yul\":4291:4292   */\n      0x04\n        /* \"#utility.yul\":4284:4299   */\n      mstore\n        /* \"#utility.yul\":4318:4322   */\n      0x24\n        /* \"#utility.yul\":4315:4316   */\n      0x00\n        /* \"#utility.yul\":4308:4323   */\n      revert\n        /* \"#utility.yul\":4334:4462   */\n    tag_132:\n        /* \"#utility.yul\":4401:4410   */\n      dup2\n      dup2\n      sub\n        /* \"#utility.yul\":4422:4433   */\n      dup2\n      dup2\n      gt\n        /* \"#utility.yul\":4419:4456   */\n      iszero\n      tag_160\n      jumpi\n        /* \"#utility.yul\":4436:4454   */\n      tag_160\n      tag_405\n      jump\t// in\n        /* \"#utility.yul\":4467:4592   */\n    tag_144:\n        /* \"#utility.yul\":4532:4541   */\n      dup1\n      dup3\n      add\n        /* \"#utility.yul\":4553:4563   */\n      dup1\n      dup3\n      gt\n        /* \"#utility.yul\":4550:4586   */\n      iszero\n      tag_160\n      jumpi\n        /* \"#utility.yul\":4566:4584   */\n      tag_160\n      tag_405\n      jump\t// in\n        /* \"#utility.yul\":4597:4732   */\n    tag_146:\n        /* \"#utility.yul\":4636:4639   */\n      0x00\n        /* \"#utility.yul\":4657:4674   */\n      0x01\n      dup3\n      add\n        /* \"#utility.yul\":4654:4697   */\n      tag_443\n      jumpi\n        /* \"#utility.yul\":4677:4695   */\n      tag_443\n      tag_405\n      jump\t// in\n    tag_443:\n      pop\n        /* \"#utility.yul\":4724:4725   */\n      0x01\n        /* \"#utility.yul\":4713:4726   */\n      add\n      swap1\n        /* \"#utility.yul\":4597:4732   */\n      jump\t// out\n        /* \"#utility.yul\":4737:4905   */\n    tag_153:\n        /* \"#utility.yul\":4810:4819   */\n      dup1\n      dup3\n      mul\n        /* \"#utility.yul\":4841:4850   */\n      dup2\n      iszero\n        /* \"#utility.yul\":4858:4873   */\n      dup3\n      dup3\n      div\n        /* \"#utility.yul\":4852:4874   */\n      dup5\n      eq\n        /* \"#utility.yul\":4838:4875   */\n      or\n        /* \"#utility.yul\":4828:4899   */\n      tag_160\n      jumpi\n        /* \"#utility.yul\":4879:4897   */\n      tag_160\n      tag_405\n      jump\t// in\n        /* \"#utility.yul\":6315:6532   */\n    tag_358:\n        /* \"#utility.yul\":6355:6356   */\n      0x00\n        /* \"#utility.yul\":6381:6382   */\n      dup3\n        /* \"#utility.yul\":6371:6503   */\n      tag_452\n      jumpi\n        /* \"#utility.yul\":6425:6435   */\n      0x4e487b71\n        /* \"#utility.yul\":6420:6423   */\n      0xe0\n        /* \"#utility.yul\":6416:6436   */\n      shl\n        /* \"#utility.yul\":6413:6414   */\n      0x00\n        /* \"#utility.yul\":6406:6437   */\n      mstore\n        /* \"#utility.yul\":6460:6464   */\n      0x12\n        /* \"#utility.yul\":6457:6458   */\n      0x04\n        /* \"#utility.yul\":6450:6465   */\n      mstore\n        /* \"#utility.yul\":6488:6492   */\n      0x24\n        /* \"#utility.yul\":6485:6486   */\n      0x00\n        /* \"#utility.yul\":6478:6493   */\n      revert\n        /* \"#utility.yul\":6371:6503   */\n    tag_452:\n      pop\n        /* \"#utility.yul\":6517:6526   */\n      div\n      swap1\n        /* \"#utility.yul\":6315:6532   */\n      jump\t// out\n        /* \"#utility.yul\":6917:7194   */\n    tag_369:\n        /* \"#utility.yul\":6984:6990   */\n      0x00\n        /* \"#utility.yul\":7037:7039   */\n      0x20\n        /* \"#utility.yul\":7025:7034   */\n      dup3\n        /* \"#utility.yul\":7016:7023   */\n      dup5\n        /* \"#utility.yul\":7012:7035   */\n      sub\n        /* \"#utility.yul\":7008:7040   */\n      slt\n        /* \"#utility.yul\":7005:7057   */\n      iszero\n      tag_455\n      jumpi\n        /* \"#utility.yul\":7053:7054   */\n      0x00\n        /* \"#utility.yul\":7050:7051   */\n      dup1\n        /* \"#utility.yul\":7043:7055   */\n      revert\n        /* \"#utility.yul\":7005:7057   */\n    tag_455:\n        /* \"#utility.yul\":7085:7094   */\n      dup2\n        /* \"#utility.yul\":7079:7095   */\n      mload\n        /* \"#utility.yul\":7138:7143   */\n      dup1\n        /* \"#utility.yul\":7131:7144   */\n      iszero\n        /* \"#utility.yul\":7124:7145   */\n      iszero\n        /* \"#utility.yul\":7117:7122   */\n      dup2\n        /* \"#utility.yul\":7114:7146   */\n      eq\n        /* \"#utility.yul\":7104:7164   */\n      tag_456\n      jumpi\n        /* \"#utility.yul\":7160:7161   */\n      0x00\n        /* \"#utility.yul\":7157:7158   */\n      dup1\n        /* \"#utility.yul\":7150:7162   */\n      revert\n        /* \"#utility.yul\":7104:7164   */\n    tag_456:\n        /* \"#utility.yul\":7183:7188   */\n      swap4\n        /* \"#utility.yul\":6917:7194   */\n      swap3\n      pop\n      pop\n      pop\n      jump\t// out\n        /* \"#utility.yul\":8017:8267   */\n    tag_406:\n        /* \"#utility.yul\":8102:8103   */\n      0x00\n        /* \"#utility.yul\":8112:8225   */\n    tag_460:\n        /* \"#utility.yul\":8126:8132   */\n      dup4\n        /* \"#utility.yul\":8123:8124   */\n      dup2\n        /* \"#utility.yul\":8120:8133   */\n      lt\n        /* \"#utility.yul\":8112:8225   */\n      iszero\n      tag_462\n      jumpi\n        /* \"#utility.yul\":8202:8213   */\n      dup2\n      dup2\n      add\n        /* \"#utility.yul\":8196:8214   */\n      mload\n        /* \"#utility.yul\":8183:8194   */\n      dup4\n      dup3\n      add\n        /* \"#utility.yul\":8176:8215   */\n      mstore\n        /* \"#utility.yul\":8148:8150   */\n      0x20\n        /* \"#utility.yul\":8141:8151   */\n      add\n        /* \"#utility.yul\":8112:8225   */\n      jump(tag_460)\n    tag_462:\n      pop\n      pop\n        /* \"#utility.yul\":8259:8260   */\n      0x00\n        /* \"#utility.yul\":8241:8257   */\n      swap2\n      add\n        /* \"#utility.yul\":8234:8261   */\n      mstore\n        /* \"#utility.yul\":8017:8267   */\n      jump\t// out\n        /* \"#utility.yul\":8272:8559   */\n    tag_381:\n        /* \"#utility.yul\":8401:8404   */\n      0x00\n        /* \"#utility.yul\":8439:8445   */\n      dup3\n        /* \"#utility.yul\":8433:8446   */\n      mload\n        /* \"#utility.yul\":8455:8521   */\n      tag_464\n        /* \"#utility.yul\":8514:8520   */\n      dup2\n        /* \"#utility.yul\":8509:8512   */\n      dup5\n        /* \"#utility.yul\":8502:8506   */\n      0x20\n        /* \"#utility.yul\":8494:8500   */\n      dup8\n        /* \"#utility.yul\":8490:8507   */\n      add\n        /* \"#utility.yul\":8455:8521   */\n      tag_406\n      jump\t// in\n    tag_464:\n        /* \"#utility.yul\":8537:8553   */\n      swap2\n      swap1\n      swap2\n      add\n      swap3\n        /* \"#utility.yul\":8272:8559   */\n      swap2\n      pop\n      pop\n      jump\t// out\n        /* \"#utility.yul\":8922:9318   */\n    tag_403:\n        /* \"#utility.yul\":9071:9073   */\n      0x20\n        /* \"#utility.yul\":9060:9069   */\n      dup2\n        /* \"#utility.yul\":9053:9074   */\n      mstore\n        /* \"#utility.yul\":9034:9038   */\n      0x00\n        /* \"#utility.yul\":9103:9109   */\n      dup3\n        /* \"#utility.yul\":9097:9110   */\n      mload\n        /* \"#utility.yul\":9146:9152   */\n      dup1\n        /* \"#utility.yul\":9141:9143   */\n      0x20\n        /* \"#utility.yul\":9130:9139   */\n      dup5\n        /* \"#utility.yul\":9126:9144   */\n      add\n        /* \"#utility.yul\":9119:9153   */\n      mstore\n        /* \"#utility.yul\":9162:9241   */\n      tag_467\n        /* \"#utility.yul\":9234:9240   */\n      dup2\n        /* \"#utility.yul\":9229:9231   */\n      0x40\n        /* \"#utility.yul\":9218:9227   */\n      dup6\n        /* \"#utility.yul\":9214:9232   */\n      add\n        /* \"#utility.yul\":9209:9211   */\n      0x20\n        /* \"#utility.yul\":9201:9207   */\n      dup8\n        /* \"#utility.yul\":9197:9212   */\n      add\n        /* \"#utility.yul\":9162:9241   */\n      tag_406\n      jump\t// in\n    tag_467:\n        /* \"#utility.yul\":9302:9304   */\n      0x1f\n        /* \"#utility.yul\":9281:9296   */\n      add\n      not(0x1f)\n        /* \"#utility.yul\":9277:9306   */\n      and\n        /* \"#utility.yul\":9262:9307   */\n      swap2\n      swap1\n      swap2\n      add\n        /* \"#utility.yul\":9309:9311   */\n      0x40\n        /* \"#utility.yul\":9258:9312   */\n      add\n      swap3\n        /* \"#utility.yul\":8922:9318   */\n      swap2\n      pop\n      pop\n      jump\t// out\n\n    auxdata: 0xa26469706673582212209e14be90309aa20d98783b7100a2ec62cc11166d9f2879d3f77bf4a1af136c8c64736f6c63430008110033\n}\n",
				"bytecode": {
					"linkReferences": {},
					"object": "608060405234801561001057600080fd5b5060405161176038038061176083398101604081905261002f9161018c565b6100383361013c565b600380546001600160a01b0319166001600160a01b0383161790556101366001805480820182556040805180820190915260148152426020808301918252600484027fb10e2d527612073b26eecdfd717e6a320cf44b4afac2b0732d9fcbe2b7fa0cf9810180548088018255600091825292812094516002909302909401918255915194019390935561012c7fb10e2d527612073b26eecdfd717e6a320cf44b4afac2b0732d9fcbe2b7fa0cf88401557fb10e2d527612073b26eecdfd717e6a320cf44b4afac2b0732d9fcbe2b7fa0cf68301919091557fb10e2d527612073b26eecdfd717e6a320cf44b4afac2b0732d9fcbe2b7fa0cf790910155565b506101bc565b600080546001600160a01b038381166001600160a01b0319831681178455604051919092169283917f8be0079c531659141344cd1fd0a4f28419497f9722a3daafe3b4186f6b6457e09190a35050565b60006020828403121561019e57600080fd5b81516001600160a01b03811681146101b557600080fd5b9392505050565b611595806101cb6000396000f3fe608060405234801561001057600080fd5b50600436106101215760003560e01c80638dbb1e3a116100ad578063cfbb3dbd11610071578063cfbb3dbd14610279578063e2bbb1581461028c578063e3d0b2bf1461029f578063ec342ad0146102a8578063f2fde38b146102b057600080fd5b80638dbb1e3a146101e4578063918f8674146101f757806393f1a40b1461020257806398969e8214610253578063a18f07a01461026657600080fd5b8063441a3e70116100f4578063441a3e701461019d57806351166d78146101b05780636d89dbc5146101b8578063715018a6146101cb5780638da5cb5b146101d357600080fd5b8063081e3eda146101265780632f380b351461013d5780633e3cca901461015d5780633f138d4b14610188575b600080fd5b6001545b6040519081526020015b60405180910390f35b61015061014b3660046112da565b6102c3565b60405161013491906112f3565b600354610170906001600160a01b031681565b6040516001600160a01b039091168152602001610134565b61019b61019636600461138c565b6103b1565b005b61019b6101ab3660046113b6565b61042d565b61012a6105aa565b61019b6101c63660046113b6565b610600565b61019b6106e3565b6000546001600160a01b0316610170565b61012a6101f23660046113b6565b6106f7565b61012a6301e1338081565b6102386102103660046113d8565b6002602081815260009384526040808520909152918352912080546001820154919092015483565b60408051938452602084019290925290820152606001610134565b61012a6102613660046113d8565b61070c565b61012a6102743660046113d8565b6109d5565b61019b6102873660046113b6565b610c75565b61019b61029a3660046113b6565b610d13565b61012a61025881565b61012a606481565b61019b6102be366004611404565b610e7f565b6102ee6040518060800160405280600081526020016000815260200160008152602001606081525090565b600182815481106103015761030161141f565b906000526020600020906004020160405180608001604052908160008201548152602001600182015481526020016002820154815260200160038201805480602002602001604051908101604052809291908181526020016000905b828210156103a35783829060005260206000209060020201604051806040016040529081600082015481526020016001820154815250508152602001906001019061035d565b505050915250909392505050565b6103b9610ef8565b6003546001600160a01b03908116908316036104155760405162461bcd60e51b815260206004820152601660248201527521b0b73737ba1031329039ba30b5b2b2103a37b5b2b760511b60448201526064015b60405180910390fd5b6104296001600160a01b0383163383610f52565b5050565b6000600183815481106104425761044261141f565b6000918252602080832086845260028252604080852033865290925292208054600490920290920192508311156104c65760405162461bcd60e51b815260206004820152602260248201527f46697865645465726d537461636b3a2053554646494349454e545f42414c414e604482015261434560f01b606482015260840161040c565b426104e283600201548360010154610fba90919063ffffffff16565b11156105155760006104f485336109d5565b9050801561051357600354610513906001600160a01b03163383610f52565b505b80546105219084610fc6565b815542600180830191909155600383015461053c919061144b565b600282015560018201546105509084610fc6565b600183015560035461056c906001600160a01b03163385610f52565b604051838152849033907ff279e6a1f5e320cca91135676d9cb6e44ca8a08c0b88342bcdb1144f6511b568906020015b60405180910390a350505050565b6000805b6001548110156105fc57600181815481106105cb576105cb61141f565b906000526020600020906004020160010154826105e8919061145e565b9150806105f481611471565b9150506105ae565b5090565b610608610ef8565b60018054808201825560408051808201909152848152426020808301918252600484027fb10e2d527612073b26eecdfd717e6a320cf44b4afac2b0732d9fcbe2b7fa0cf98101805480880182556000918252929020935160029092029093019081559051930192909255907fb10e2d527612073b26eecdfd717e6a320cf44b4afac2b0732d9fcbe2b7fa0cf6016106a083603c61148a565b60028201558181556000600182018190556040518491869185917f4d93067d0d628fe42c457623322c0f22ad92f71762a2eebe06e2a0e7d2aa61c791a450505050565b6106eb610ef8565b6106f56000610fd2565b565b60006107038284610fc6565b90505b92915050565b600080600184815481106107225761072261141f565b600091825260208083208784526002825260408085206001600160a01b03891686529092529083206004929092020160038101805460018085015493965093949093909283929091610774908661144b565b815481106107845761078461141f565b9060005260206000209060020201600101541015610818576107aa8460010154426106f7565b84549092506107f3906107ed600388016107c560018861144b565b815481106107d5576107d561141f565b60009182526020909120600290910201548590611022565b90611022565b955061080c60646108068861025861102e565b9061102e565b95505050505050610706565b60028401545b61082960018561144b565b81101561094557816108ba5761087585600101548760030183600161084e919061145e565b8154811061085e5761085e61141f565b9060005260206000209060020201600101546106f7565b92506108af85600001546107ed8860030184815481106108975761089761141f565b60009182526020909120600290910201548690611022565b965060019150610933565b60006108f78760030183815481106108d4576108d461141f565b9060005260206000209060020201600101548860030184600161084e919061145e565b905061092361091c87600001546107ed8a60030186815481106107d5576107d561141f565b8990610fba565b975061092f8482610fba565b9350505b8061093d81611471565b91505061081e565b506109806003860161095860018661144b565b815481106109685761096861141f565b906000526020600020906002020160010154436106f7565b84549092506109b6906109af906107ed6003890161099f60018961144b565b815481106108975761089761141f565b8790610fba565b95506109c960646108068861025861102e565b98975050505050505050565b600080600184815481106109eb576109eb61141f565b600091825260208083208784526002825260408085206001600160a01b03891686529092529083206004929092020160038101805460018085015493965093949093909283929091610a3d908661144b565b81548110610a4d57610a4d61141f565b9060005260206000209060020201600101541015610a8557600285015484549092506107f3906107ed600388016107c560018861144b565b60028401545b610a9660018561144b565b811015610c295781610b4f57610abb85600101548760030183600161084e919061145e565b92508560020154831115610b2457610b0485600001546107ed886003018481548110610ae957610ae961141f565b6000918252602090912060029182020154908a015490611022565b9650610b1760646108068961025861102e565b9650505050505050610706565b610b4485600001546107ed8860030184815481106108975761089761141f565b965060019150610c17565b6000610b698760030183815481106108d4576108d461141f565b6002880154909150610b7b8286610fba565b1115610be457610bc361091c87600001546107ed8a6003018681548110610ba457610ba461141f565b6000918252602090912060029182020154908c01546107ed908a610fc6565b9750610bd660646108068a61025861102e565b975050505050505050610706565b610c0761091c87600001546107ed8a60030186815481106107d5576107d561141f565b9750610c138482610fba565b9350505b80610c2181611471565b915050610a8b565b5083546109b6906109af906107ed60038901610c4660018961144b565b81548110610c5657610c5661141f565b6000918252602090912060029182020154908a01546107ed9088610fc6565b610c7d610ef8565b600060018381548110610c9257610c9261141f565b600091825260208083206040805180820182528781524281850190815260036004909602909301948501805460018181018355918852948720915160029095029091019384559151929091019190915551909250839185917f6ec6d062a87c4b42fe40885d2e8955d89ab9275e14d24354dd2b6b130043bba59190a3505050565b600060018381548110610d2857610d2861141f565b6000918252602080832086845260028252604080852033865290925292206004909102909101915082610d9d5760405162461bcd60e51b815260206004820152601d60248201527f46697865645465726d537461636b3a2042656c6f77206d696e696d756d000000604482015260640161040c565b805415610df35742610dc083600201548360010154610fba90919063ffffffff16565b1115610df3576000610dd285336109d5565b90508015610df157600354610df1906001600160a01b03163383610f52565b505b8054610dff9084610fba565b8155426001808301919091556003830154610e1a919061144b565b60028201556001820154610e2e9084610fba565b6001830155600354610e4b906001600160a01b031633308661103a565b604051838152849033907f90890809c654f11d6e72a28fa60149770a0d11ec6c92319d6ceb2bb0a4ea1a159060200161059c565b610e87610ef8565b6001600160a01b038116610eec5760405162461bcd60e51b815260206004820152602660248201527f4f776e61626c653a206e6577206f776e657220697320746865207a65726f206160448201526564647265737360d01b606482015260840161040c565b610ef581610fd2565b50565b6000546001600160a01b031633146106f55760405162461bcd60e51b815260206004820181905260248201527f4f776e61626c653a2063616c6c6572206973206e6f7420746865206f776e6572604482015260640161040c565b6040516001600160a01b038316602482015260448101829052610fb590849063a9059cbb60e01b906064015b60408051601f198184030181529190526020810180516001600160e01b03166001600160e01b031990931692909217909152611078565b505050565b6000610703828461145e565b6000610703828461144b565b600080546001600160a01b038381166001600160a01b0319831681178455604051919092169283917f8be0079c531659141344cd1fd0a4f28419497f9722a3daafe3b4186f6b6457e09190a35050565b6000610703828461148a565b600061070382846114a1565b6040516001600160a01b03808516602483015283166044820152606481018290526110729085906323b872dd60e01b90608401610f7e565b50505050565b60006110cd826040518060400160405280602081526020017f5361666542455032303a206c6f772d6c6576656c2063616c6c206661696c6564815250856001600160a01b031661114a9092919063ffffffff16565b805190915015610fb557808060200190518101906110eb91906114c3565b610fb55760405162461bcd60e51b815260206004820152602a60248201527f5361666542455032303a204245503230206f7065726174696f6e20646964206e6044820152691bdd081cdd58d8d9595960b21b606482015260840161040c565b60606111598484600085611161565b949350505050565b6060824710156111c25760405162461bcd60e51b815260206004820152602660248201527f416464726573733a20696e73756666696369656e742062616c616e636520666f6044820152651c8818d85b1b60d21b606482015260840161040c565b600080866001600160a01b031685876040516111de9190611510565b60006040518083038185875af1925050503d806000811461121b576040519150601f19603f3d011682016040523d82523d6000602084013e611220565b606091505b50915091506112318783838761123c565b979650505050505050565b606083156112ab5782516000036112a4576001600160a01b0385163b6112a45760405162461bcd60e51b815260206004820152601d60248201527f416464726573733a2063616c6c20746f206e6f6e2d636f6e7472616374000000604482015260640161040c565b5081611159565b61115983838151156112c05781518083602001fd5b8060405162461bcd60e51b815260040161040c919061152c565b6000602082840312156112ec57600080fd5b5035919050565b6000602080835260a0830184518285015281850151604081818701528087015160608701526060870151915060808087015282825180855260c0880191508584019450600093505b80841015611364578451805183528601518683015293850193600193909301929082019061133b565b50979650505050505050565b80356001600160a01b038116811461138757600080fd5b919050565b6000806040838503121561139f57600080fd5b6113a883611370565b946020939093013593505050565b600080604083850312156113c957600080fd5b50508035926020909101359150565b600080604083850312156113eb57600080fd5b823591506113fb60208401611370565b90509250929050565b60006020828403121561141657600080fd5b61070382611370565b634e487b7160e01b600052603260045260246000fd5b634e487b7160e01b600052601160045260246000fd5b8181038181111561070657610706611435565b8082018082111561070657610706611435565b60006001820161148357611483611435565b5060010190565b808202811582820484141761070657610706611435565b6000826114be57634e487b7160e01b600052601260045260246000fd5b500490565b6000602082840312156114d557600080fd5b815180151581146114e557600080fd5b9392505050565b60005b838110156115075781810151838201526020016114ef565b50506000910152565b600082516115228184602087016114ec565b9190910192915050565b602081526000825180602084015261154b8160408501602087016114ec565b601f01601f1916919091016040019291505056fea26469706673582212209e14be90309aa20d98783b7100a2ec62cc11166d9f2879d3f77bf4a1af136c8c64736f6c63430008110033",
					"opcodes": "PUSH1 0x80 PUSH1 0x40 MSTORE CALLVALUE DUP1 ISZERO PUSH2 0x10 JUMPI PUSH1 0x0 DUP1 REVERT JUMPDEST POP PUSH1 0x40 MLOAD PUSH2 0x1760 CODESIZE SUB DUP1 PUSH2 0x1760 DUP4 CODECOPY DUP2 ADD PUSH1 0x40 DUP2 SWAP1 MSTORE PUSH2 0x2F SWAP2 PUSH2 0x18C JUMP JUMPDEST PUSH2 0x38 CALLER PUSH2 0x13C JUMP JUMPDEST PUSH1 0x3 DUP1 SLOAD PUSH1 0x1 PUSH1 0x1 PUSH1 0xA0 SHL SUB NOT AND PUSH1 0x1 PUSH1 0x1 PUSH1 0xA0 SHL SUB DUP4 AND OR SWAP1 SSTORE PUSH2 0x136 PUSH1 0x1 DUP1 SLOAD DUP1 DUP3 ADD DUP3 SSTORE PUSH1 0x40 DUP1 MLOAD DUP1 DUP3 ADD SWAP1 SWAP2 MSTORE PUSH1 0x14 DUP2 MSTORE TIMESTAMP PUSH1 0x20 DUP1 DUP4 ADD SWAP2 DUP3 MSTORE PUSH1 0x4 DUP5 MUL PUSH32 0xB10E2D527612073B26EECDFD717E6A320CF44B4AFAC2B0732D9FCBE2B7FA0CF9 DUP2 ADD DUP1 SLOAD DUP1 DUP9 ADD DUP3 SSTORE PUSH1 0x0 SWAP2 DUP3 MSTORE SWAP3 DUP2 KECCAK256 SWAP5 MLOAD PUSH1 0x2 SWAP1 SWAP4 MUL SWAP1 SWAP5 ADD SWAP2 DUP3 SSTORE SWAP2 MLOAD SWAP5 ADD SWAP4 SWAP1 SWAP4 SSTORE PUSH2 0x12C PUSH32 0xB10E2D527612073B26EECDFD717E6A320CF44B4AFAC2B0732D9FCBE2B7FA0CF8 DUP5 ADD SSTORE PUSH32 0xB10E2D527612073B26EECDFD717E6A320CF44B4AFAC2B0732D9FCBE2B7FA0CF6 DUP4 ADD SWAP2 SWAP1 SWAP2 SSTORE PUSH32 0xB10E2D527612073B26EECDFD717E6A320CF44B4AFAC2B0732D9FCBE2B7FA0CF7 SWAP1 SWAP2 ADD SSTORE JUMP JUMPDEST POP PUSH2 0x1BC JUMP JUMPDEST PUSH1 0x0 DUP1 SLOAD PUSH1 0x1 PUSH1 0x1 PUSH1 0xA0 SHL SUB DUP4 DUP2 AND PUSH1 0x1 PUSH1 0x1 PUSH1 0xA0 SHL SUB NOT DUP4 AND DUP2 OR DUP5 SSTORE PUSH1 0x40 MLOAD SWAP2 SWAP1 SWAP3 AND SWAP3 DUP4 SWAP2 PUSH32 0x8BE0079C531659141344CD1FD0A4F28419497F9722A3DAAFE3B4186F6B6457E0 SWAP2 SWAP1 LOG3 POP POP JUMP JUMPDEST PUSH1 0x0 PUSH1 0x20 DUP3 DUP5 SUB SLT ISZERO PUSH2 0x19E JUMPI PUSH1 0x0 DUP1 REVERT JUMPDEST DUP2 MLOAD PUSH1 0x1 PUSH1 0x1 PUSH1 0xA0 SHL SUB DUP2 AND DUP2 EQ PUSH2 0x1B5 JUMPI PUSH1 0x0 DUP1 REVERT JUMPDEST SWAP4 SWAP3 POP POP POP JUMP JUMPDEST PUSH2 0x1595 DUP1 PUSH2 0x1CB PUSH1 0x0 CODECOPY PUSH1 0x0 RETURN INVALID PUSH1 0x80 PUSH1 0x40 MSTORE CALLVALUE DUP1 ISZERO PUSH2 0x10 JUMPI PUSH1 0x0 DUP1 REVERT JUMPDEST POP PUSH1 0x4 CALLDATASIZE LT PUSH2 0x121 JUMPI PUSH1 0x0 CALLDATALOAD PUSH1 0xE0 SHR DUP1 PUSH4 0x8DBB1E3A GT PUSH2 0xAD JUMPI DUP1 PUSH4 0xCFBB3DBD GT PUSH2 0x71 JUMPI DUP1 PUSH4 0xCFBB3DBD EQ PUSH2 0x279 JUMPI DUP1 PUSH4 0xE2BBB158 EQ PUSH2 0x28C JUMPI DUP1 PUSH4 0xE3D0B2BF EQ PUSH2 0x29F JUMPI DUP1 PUSH4 0xEC342AD0 EQ PUSH2 0x2A8 JUMPI DUP1 PUSH4 0xF2FDE38B EQ PUSH2 0x2B0 JUMPI PUSH1 0x0 DUP1 REVERT JUMPDEST DUP1 PUSH4 0x8DBB1E3A EQ PUSH2 0x1E4 JUMPI DUP1 PUSH4 0x918F8674 EQ PUSH2 0x1F7 JUMPI DUP1 PUSH4 0x93F1A40B EQ PUSH2 0x202 JUMPI DUP1 PUSH4 0x98969E82 EQ PUSH2 0x253 JUMPI DUP1 PUSH4 0xA18F07A0 EQ PUSH2 0x266 JUMPI PUSH1 0x0 DUP1 REVERT JUMPDEST DUP1 PUSH4 0x441A3E70 GT PUSH2 0xF4 JUMPI DUP1 PUSH4 0x441A3E70 EQ PUSH2 0x19D JUMPI DUP1 PUSH4 0x51166D78 EQ PUSH2 0x1B0 JUMPI DUP1 PUSH4 0x6D89DBC5 EQ PUSH2 0x1B8 JUMPI DUP1 PUSH4 0x715018A6 EQ PUSH2 0x1CB JUMPI DUP1 PUSH4 0x8DA5CB5B EQ PUSH2 0x1D3 JUMPI PUSH1 0x0 DUP1 REVERT JUMPDEST DUP1 PUSH4 0x81E3EDA EQ PUSH2 0x126 JUMPI DUP1 PUSH4 0x2F380B35 EQ PUSH2 0x13D JUMPI DUP1 PUSH4 0x3E3CCA90 EQ PUSH2 0x15D JUMPI DUP1 PUSH4 0x3F138D4B EQ PUSH2 0x188 JUMPI JUMPDEST PUSH1 0x0 DUP1 REVERT JUMPDEST PUSH1 0x1 SLOAD JUMPDEST PUSH1 0x40 MLOAD SWAP1 DUP2 MSTORE PUSH1 0x20 ADD JUMPDEST PUSH1 0x40 MLOAD DUP1 SWAP2 SUB SWAP1 RETURN JUMPDEST PUSH2 0x150 PUSH2 0x14B CALLDATASIZE PUSH1 0x4 PUSH2 0x12DA JUMP JUMPDEST PUSH2 0x2C3 JUMP JUMPDEST PUSH1 0x40 MLOAD PUSH2 0x134 SWAP2 SWAP1 PUSH2 0x12F3 JUMP JUMPDEST PUSH1 0x3 SLOAD PUSH2 0x170 SWAP1 PUSH1 0x1 PUSH1 0x1 PUSH1 0xA0 SHL SUB AND DUP2 JUMP JUMPDEST PUSH1 0x40 MLOAD PUSH1 0x1 PUSH1 0x1 PUSH1 0xA0 SHL SUB SWAP1 SWAP2 AND DUP2 MSTORE PUSH1 0x20 ADD PUSH2 0x134 JUMP JUMPDEST PUSH2 0x19B PUSH2 0x196 CALLDATASIZE PUSH1 0x4 PUSH2 0x138C JUMP JUMPDEST PUSH2 0x3B1 JUMP JUMPDEST STOP JUMPDEST PUSH2 0x19B PUSH2 0x1AB CALLDATASIZE PUSH1 0x4 PUSH2 0x13B6 JUMP JUMPDEST PUSH2 0x42D JUMP JUMPDEST PUSH2 0x12A PUSH2 0x5AA JUMP JUMPDEST PUSH2 0x19B PUSH2 0x1C6 CALLDATASIZE PUSH1 0x4 PUSH2 0x13B6 JUMP JUMPDEST PUSH2 0x600 JUMP JUMPDEST PUSH2 0x19B PUSH2 0x6E3 JUMP JUMPDEST PUSH1 0x0 SLOAD PUSH1 0x1 PUSH1 0x1 PUSH1 0xA0 SHL SUB AND PUSH2 0x170 JUMP JUMPDEST PUSH2 0x12A PUSH2 0x1F2 CALLDATASIZE PUSH1 0x4 PUSH2 0x13B6 JUMP JUMPDEST PUSH2 0x6F7 JUMP JUMPDEST PUSH2 0x12A PUSH4 0x1E13380 DUP2 JUMP JUMPDEST PUSH2 0x238 PUSH2 0x210 CALLDATASIZE PUSH1 0x4 PUSH2 0x13D8 JUMP JUMPDEST PUSH1 0x2 PUSH1 0x20 DUP2 DUP2 MSTORE PUSH1 0x0 SWAP4 DUP5 MSTORE PUSH1 0x40 DUP1 DUP6 KECCAK256 SWAP1 SWAP2 MSTORE SWAP2 DUP4 MSTORE SWAP2 KECCAK256 DUP1 SLOAD PUSH1 0x1 DUP3 ADD SLOAD SWAP2 SWAP1 SWAP3 ADD SLOAD DUP4 JUMP JUMPDEST PUSH1 0x40 DUP1 MLOAD SWAP4 DUP5 MSTORE PUSH1 0x20 DUP5 ADD SWAP3 SWAP1 SWAP3 MSTORE SWAP1 DUP3 ADD MSTORE PUSH1 0x60 ADD PUSH2 0x134 JUMP JUMPDEST PUSH2 0x12A PUSH2 0x261 CALLDATASIZE PUSH1 0x4 PUSH2 0x13D8 JUMP JUMPDEST PUSH2 0x70C JUMP JUMPDEST PUSH2 0x12A PUSH2 0x274 CALLDATASIZE PUSH1 0x4 PUSH2 0x13D8 JUMP JUMPDEST PUSH2 0x9D5 JUMP JUMPDEST PUSH2 0x19B PUSH2 0x287 CALLDATASIZE PUSH1 0x4 PUSH2 0x13B6 JUMP JUMPDEST PUSH2 0xC75 JUMP JUMPDEST PUSH2 0x19B PUSH2 0x29A CALLDATASIZE PUSH1 0x4 PUSH2 0x13B6 JUMP JUMPDEST PUSH2 0xD13 JUMP JUMPDEST PUSH2 0x12A PUSH2 0x258 DUP2 JUMP JUMPDEST PUSH2 0x12A PUSH1 0x64 DUP2 JUMP JUMPDEST PUSH2 0x19B PUSH2 0x2BE CALLDATASIZE PUSH1 0x4 PUSH2 0x1404 JUMP JUMPDEST PUSH2 0xE7F JUMP JUMPDEST PUSH2 0x2EE PUSH1 0x40 MLOAD DUP1 PUSH1 0x80 ADD PUSH1 0x40 MSTORE DUP1 PUSH1 0x0 DUP2 MSTORE PUSH1 0x20 ADD PUSH1 0x0 DUP2 MSTORE PUSH1 0x20 ADD PUSH1 0x0 DUP2 MSTORE PUSH1 0x20 ADD PUSH1 0x60 DUP2 MSTORE POP SWAP1 JUMP JUMPDEST PUSH1 0x1 DUP3 DUP2 SLOAD DUP2 LT PUSH2 0x301 JUMPI PUSH2 0x301 PUSH2 0x141F JUMP JUMPDEST SWAP1 PUSH1 0x0 MSTORE PUSH1 0x20 PUSH1 0x0 KECCAK256 SWAP1 PUSH1 0x4 MUL ADD PUSH1 0x40 MLOAD DUP1 PUSH1 0x80 ADD PUSH1 0x40 MSTORE SWAP1 DUP2 PUSH1 0x0 DUP3 ADD SLOAD DUP2 MSTORE PUSH1 0x20 ADD PUSH1 0x1 DUP3 ADD SLOAD DUP2 MSTORE PUSH1 0x20 ADD PUSH1 0x2 DUP3 ADD SLOAD DUP2 MSTORE PUSH1 0x20 ADD PUSH1 0x3 DUP3 ADD DUP1 SLOAD DUP1 PUSH1 0x20 MUL PUSH1 0x20 ADD PUSH1 0x40 MLOAD SWAP1 DUP2 ADD PUSH1 0x40 MSTORE DUP1 SWAP3 SWAP2 SWAP1 DUP2 DUP2 MSTORE PUSH1 0x20 ADD PUSH1 0x0 SWAP1 JUMPDEST DUP3 DUP3 LT ISZERO PUSH2 0x3A3 JUMPI DUP4 DUP3 SWAP1 PUSH1 0x0 MSTORE PUSH1 0x20 PUSH1 0x0 KECCAK256 SWAP1 PUSH1 0x2 MUL ADD PUSH1 0x40 MLOAD DUP1 PUSH1 0x40 ADD PUSH1 0x40 MSTORE SWAP1 DUP2 PUSH1 0x0 DUP3 ADD SLOAD DUP2 MSTORE PUSH1 0x20 ADD PUSH1 0x1 DUP3 ADD SLOAD DUP2 MSTORE POP POP DUP2 MSTORE PUSH1 0x20 ADD SWAP1 PUSH1 0x1 ADD SWAP1 PUSH2 0x35D JUMP JUMPDEST POP POP POP SWAP2 MSTORE POP SWAP1 SWAP4 SWAP3 POP POP POP JUMP JUMPDEST PUSH2 0x3B9 PUSH2 0xEF8 JUMP JUMPDEST PUSH1 0x3 SLOAD PUSH1 0x1 PUSH1 0x1 PUSH1 0xA0 SHL SUB SWAP1 DUP2 AND SWAP1 DUP4 AND SUB PUSH2 0x415 JUMPI PUSH1 0x40 MLOAD PUSH3 0x461BCD PUSH1 0xE5 SHL DUP2 MSTORE PUSH1 0x20 PUSH1 0x4 DUP3 ADD MSTORE PUSH1 0x16 PUSH1 0x24 DUP3 ADD MSTORE PUSH22 0x21B0B73737BA1031329039BA30B5B2B2103A37B5B2B7 PUSH1 0x51 SHL PUSH1 0x44 DUP3 ADD MSTORE PUSH1 0x64 ADD JUMPDEST PUSH1 0x40 MLOAD DUP1 SWAP2 SUB SWAP1 REVERT JUMPDEST PUSH2 0x429 PUSH1 0x1 PUSH1 0x1 PUSH1 0xA0 SHL SUB DUP4 AND CALLER DUP4 PUSH2 0xF52 JUMP JUMPDEST POP POP JUMP JUMPDEST PUSH1 0x0 PUSH1 0x1 DUP4 DUP2 SLOAD DUP2 LT PUSH2 0x442 JUMPI PUSH2 0x442 PUSH2 0x141F JUMP JUMPDEST PUSH1 0x0 SWAP2 DUP3 MSTORE PUSH1 0x20 DUP1 DUP4 KECCAK256 DUP7 DUP5 MSTORE PUSH1 0x2 DUP3 MSTORE PUSH1 0x40 DUP1 DUP6 KECCAK256 CALLER DUP7 MSTORE SWAP1 SWAP3 MSTORE SWAP3 KECCAK256 DUP1 SLOAD PUSH1 0x4 SWAP1 SWAP3 MUL SWAP1 SWAP3 ADD SWAP3 POP DUP4 GT ISZERO PUSH2 0x4C6 JUMPI PUSH1 0x40 MLOAD PUSH3 0x461BCD PUSH1 0xE5 SHL DUP2 MSTORE PUSH1 0x20 PUSH1 0x4 DUP3 ADD MSTORE PUSH1 0x22 PUSH1 0x24 DUP3 ADD MSTORE PUSH32 0x46697865645465726D537461636B3A2053554646494349454E545F42414C414E PUSH1 0x44 DUP3 ADD MSTORE PUSH2 0x4345 PUSH1 0xF0 SHL PUSH1 0x64 DUP3 ADD MSTORE PUSH1 0x84 ADD PUSH2 0x40C JUMP JUMPDEST TIMESTAMP PUSH2 0x4E2 DUP4 PUSH1 0x2 ADD SLOAD DUP4 PUSH1 0x1 ADD SLOAD PUSH2 0xFBA SWAP1 SWAP2 SWAP1 PUSH4 0xFFFFFFFF AND JUMP JUMPDEST GT ISZERO PUSH2 0x515 JUMPI PUSH1 0x0 PUSH2 0x4F4 DUP6 CALLER PUSH2 0x9D5 JUMP JUMPDEST SWAP1 POP DUP1 ISZERO PUSH2 0x513 JUMPI PUSH1 0x3 SLOAD PUSH2 0x513 SWAP1 PUSH1 0x1 PUSH1 0x1 PUSH1 0xA0 SHL SUB AND CALLER DUP4 PUSH2 0xF52 JUMP JUMPDEST POP JUMPDEST DUP1 SLOAD PUSH2 0x521 SWAP1 DUP5 PUSH2 0xFC6 JUMP JUMPDEST DUP2 SSTORE TIMESTAMP PUSH1 0x1 DUP1 DUP4 ADD SWAP2 SWAP1 SWAP2 SSTORE PUSH1 0x3 DUP4 ADD SLOAD PUSH2 0x53C SWAP2 SWAP1 PUSH2 0x144B JUMP JUMPDEST PUSH1 0x2 DUP3 ADD SSTORE PUSH1 0x1 DUP3 ADD SLOAD PUSH2 0x550 SWAP1 DUP5 PUSH2 0xFC6 JUMP JUMPDEST PUSH1 0x1 DUP4 ADD SSTORE PUSH1 0x3 SLOAD PUSH2 0x56C SWAP1 PUSH1 0x1 PUSH1 0x1 PUSH1 0xA0 SHL SUB AND CALLER DUP6 PUSH2 0xF52 JUMP JUMPDEST PUSH1 0x40 MLOAD DUP4 DUP2 MSTORE DUP5 SWAP1 CALLER SWAP1 PUSH32 0xF279E6A1F5E320CCA91135676D9CB6E44CA8A08C0B88342BCDB1144F6511B568 SWAP1 PUSH1 0x20 ADD JUMPDEST PUSH1 0x40 MLOAD DUP1 SWAP2 SUB SWAP1 LOG3 POP POP POP POP JUMP JUMPDEST PUSH1 0x0 DUP1 JUMPDEST PUSH1 0x1 SLOAD DUP2 LT ISZERO PUSH2 0x5FC JUMPI PUSH1 0x1 DUP2 DUP2 SLOAD DUP2 LT PUSH2 0x5CB JUMPI PUSH2 0x5CB PUSH2 0x141F JUMP JUMPDEST SWAP1 PUSH1 0x0 MSTORE PUSH1 0x20 PUSH1 0x0 KECCAK256 SWAP1 PUSH1 0x4 MUL ADD PUSH1 0x1 ADD SLOAD DUP3 PUSH2 0x5E8 SWAP2 SWAP1 PUSH2 0x145E JUMP JUMPDEST SWAP2 POP DUP1 PUSH2 0x5F4 DUP2 PUSH2 0x1471 JUMP JUMPDEST SWAP2 POP POP PUSH2 0x5AE JUMP JUMPDEST POP SWAP1 JUMP JUMPDEST PUSH2 0x608 PUSH2 0xEF8 JUMP JUMPDEST PUSH1 0x1 DUP1 SLOAD DUP1 DUP3 ADD DUP3 SSTORE PUSH1 0x40 DUP1 MLOAD DUP1 DUP3 ADD SWAP1 SWAP2 MSTORE DUP5 DUP2 MSTORE TIMESTAMP PUSH1 0x20 DUP1 DUP4 ADD SWAP2 DUP3 MSTORE PUSH1 0x4 DUP5 MUL PUSH32 0xB10E2D527612073B26EECDFD717E6A320CF44B4AFAC2B0732D9FCBE2B7FA0CF9 DUP2 ADD DUP1 SLOAD DUP1 DUP9 ADD DUP3 SSTORE PUSH1 0x0 SWAP2 DUP3 MSTORE SWAP3 SWAP1 KECCAK256 SWAP4 MLOAD PUSH1 0x2 SWAP1 SWAP3 MUL SWAP1 SWAP4 ADD SWAP1 DUP2 SSTORE SWAP1 MLOAD SWAP4 ADD SWAP3 SWAP1 SWAP3 SSTORE SWAP1 PUSH32 0xB10E2D527612073B26EECDFD717E6A320CF44B4AFAC2B0732D9FCBE2B7FA0CF6 ADD PUSH2 0x6A0 DUP4 PUSH1 0x3C PUSH2 0x148A JUMP JUMPDEST PUSH1 0x2 DUP3 ADD SSTORE DUP2 DUP2 SSTORE PUSH1 0x0 PUSH1 0x1 DUP3 ADD DUP2 SWAP1 SSTORE PUSH1 0x40 MLOAD DUP5 SWAP2 DUP7 SWAP2 DUP6 SWAP2 PUSH32 0x4D93067D0D628FE42C457623322C0F22AD92F71762A2EEBE06E2A0E7D2AA61C7 SWAP2 LOG4 POP POP POP POP JUMP JUMPDEST PUSH2 0x6EB PUSH2 0xEF8 JUMP JUMPDEST PUSH2 0x6F5 PUSH1 0x0 PUSH2 0xFD2 JUMP JUMPDEST JUMP JUMPDEST PUSH1 0x0 PUSH2 0x703 DUP3 DUP5 PUSH2 0xFC6 JUMP JUMPDEST SWAP1 POP JUMPDEST SWAP3 SWAP2 POP POP JUMP JUMPDEST PUSH1 0x0 DUP1 PUSH1 0x1 DUP5 DUP2 SLOAD DUP2 LT PUSH2 0x722 JUMPI PUSH2 0x722 PUSH2 0x141F JUMP JUMPDEST PUSH1 0x0 SWAP2 DUP3 MSTORE PUSH1 0x20 DUP1 DUP4 KECCAK256 DUP8 DUP5 MSTORE PUSH1 0x2 DUP3 MSTORE PUSH1 0x40 DUP1 DUP6 KECCAK256 PUSH1 0x1 PUSH1 0x1 PUSH1 0xA0 SHL SUB DUP10 AND DUP7 MSTORE SWAP1 SWAP3 MSTORE SWAP1 DUP4 KECCAK256 PUSH1 0x4 SWAP3 SWAP1 SWAP3 MUL ADD PUSH1 0x3 DUP2 ADD DUP1 SLOAD PUSH1 0x1 DUP1 DUP6 ADD SLOAD SWAP4 SWAP7 POP SWAP4 SWAP5 SWAP1 SWAP4 SWAP1 SWAP3 DUP4 SWAP3 SWAP1 SWAP2 PUSH2 0x774 SWAP1 DUP7 PUSH2 0x144B JUMP JUMPDEST DUP2 SLOAD DUP2 LT PUSH2 0x784 JUMPI PUSH2 0x784 PUSH2 0x141F JUMP JUMPDEST SWAP1 PUSH1 0x0 MSTORE PUSH1 0x20 PUSH1 0x0 KECCAK256 SWAP1 PUSH1 0x2 MUL ADD PUSH1 0x1 ADD SLOAD LT ISZERO PUSH2 0x818 JUMPI PUSH2 0x7AA DUP5 PUSH1 0x1 ADD SLOAD TIMESTAMP PUSH2 0x6F7 JUMP JUMPDEST DUP5 SLOAD SWAP1 SWAP3 POP PUSH2 0x7F3 SWAP1 PUSH2 0x7ED PUSH1 0x3 DUP9 ADD PUSH2 0x7C5 PUSH1 0x1 DUP9 PUSH2 0x144B JUMP JUMPDEST DUP2 SLOAD DUP2 LT PUSH2 0x7D5 JUMPI PUSH2 0x7D5 PUSH2 0x141F JUMP JUMPDEST PUSH1 0x0 SWAP2 DUP3 MSTORE PUSH1 0x20 SWAP1 SWAP2 KECCAK256 PUSH1 0x2 SWAP1 SWAP2 MUL ADD SLOAD DUP6 SWAP1 PUSH2 0x1022 JUMP JUMPDEST SWAP1 PUSH2 0x1022 JUMP JUMPDEST SWAP6 POP PUSH2 0x80C PUSH1 0x64 PUSH2 0x806 DUP9 PUSH2 0x258 PUSH2 0x102E JUMP JUMPDEST SWAP1 PUSH2 0x102E JUMP JUMPDEST SWAP6 POP POP POP POP POP POP PUSH2 0x706 JUMP JUMPDEST PUSH1 0x2 DUP5 ADD SLOAD JUMPDEST PUSH2 0x829 PUSH1 0x1 DUP6 PUSH2 0x144B JUMP JUMPDEST DUP2 LT ISZERO PUSH2 0x945 JUMPI DUP2 PUSH2 0x8BA JUMPI PUSH2 0x875 DUP6 PUSH1 0x1 ADD SLOAD DUP8 PUSH1 0x3 ADD DUP4 PUSH1 0x1 PUSH2 0x84E SWAP2 SWAP1 PUSH2 0x145E JUMP JUMPDEST DUP2 SLOAD DUP2 LT PUSH2 0x85E JUMPI PUSH2 0x85E PUSH2 0x141F JUMP JUMPDEST SWAP1 PUSH1 0x0 MSTORE PUSH1 0x20 PUSH1 0x0 KECCAK256 SWAP1 PUSH1 0x2 MUL ADD PUSH1 0x1 ADD SLOAD PUSH2 0x6F7 JUMP JUMPDEST SWAP3 POP PUSH2 0x8AF DUP6 PUSH1 0x0 ADD SLOAD PUSH2 0x7ED DUP9 PUSH1 0x3 ADD DUP5 DUP2 SLOAD DUP2 LT PUSH2 0x897 JUMPI PUSH2 0x897 PUSH2 0x141F JUMP JUMPDEST PUSH1 0x0 SWAP2 DUP3 MSTORE PUSH1 0x20 SWAP1 SWAP2 KECCAK256 PUSH1 0x2 SWAP1 SWAP2 MUL ADD SLOAD DUP7 SWAP1 PUSH2 0x1022 JUMP JUMPDEST SWAP7 POP PUSH1 0x1 SWAP2 POP PUSH2 0x933 JUMP JUMPDEST PUSH1 0x0 PUSH2 0x8F7 DUP8 PUSH1 0x3 ADD DUP4 DUP2 SLOAD DUP2 LT PUSH2 0x8D4 JUMPI PUSH2 0x8D4 PUSH2 0x141F JUMP JUMPDEST SWAP1 PUSH1 0x0 MSTORE PUSH1 0x20 PUSH1 0x0 KECCAK256 SWAP1 PUSH1 0x2 MUL ADD PUSH1 0x1 ADD SLOAD DUP9 PUSH1 0x3 ADD DUP5 PUSH1 0x1 PUSH2 0x84E SWAP2 SWAP1 PUSH2 0x145E JUMP JUMPDEST SWAP1 POP PUSH2 0x923 PUSH2 0x91C DUP8 PUSH1 0x0 ADD SLOAD PUSH2 0x7ED DUP11 PUSH1 0x3 ADD DUP7 DUP2 SLOAD DUP2 LT PUSH2 0x7D5 JUMPI PUSH2 0x7D5 PUSH2 0x141F JUMP JUMPDEST DUP10 SWAP1 PUSH2 0xFBA JUMP JUMPDEST SWAP8 POP PUSH2 0x92F DUP5 DUP3 PUSH2 0xFBA JUMP JUMPDEST SWAP4 POP POP JUMPDEST DUP1 PUSH2 0x93D DUP2 PUSH2 0x1471 JUMP JUMPDEST SWAP2 POP POP PUSH2 0x81E JUMP JUMPDEST POP PUSH2 0x980 PUSH1 0x3 DUP7 ADD PUSH2 0x958 PUSH1 0x1 DUP7 PUSH2 0x144B JUMP JUMPDEST DUP2 SLOAD DUP2 LT PUSH2 0x968 JUMPI PUSH2 0x968 PUSH2 0x141F JUMP JUMPDEST SWAP1 PUSH1 0x0 MSTORE PUSH1 0x20 PUSH1 0x0 KECCAK256 SWAP1 PUSH1 0x2 MUL ADD PUSH1 0x1 ADD SLOAD NUMBER PUSH2 0x6F7 JUMP JUMPDEST DUP5 SLOAD SWAP1 SWAP3 POP PUSH2 0x9B6 SWAP1 PUSH2 0x9AF SWAP1 PUSH2 0x7ED PUSH1 0x3 DUP10 ADD PUSH2 0x99F PUSH1 0x1 DUP10 PUSH2 0x144B JUMP JUMPDEST DUP2 SLOAD DUP2 LT PUSH2 0x897 JUMPI PUSH2 0x897 PUSH2 0x141F JUMP JUMPDEST DUP8 SWAP1 PUSH2 0xFBA JUMP JUMPDEST SWAP6 POP PUSH2 0x9C9 PUSH1 0x64 PUSH2 0x806 DUP9 PUSH2 0x258 PUSH2 0x102E JUMP JUMPDEST SWAP9 SWAP8 POP POP POP POP POP POP POP POP JUMP JUMPDEST PUSH1 0x0 DUP1 PUSH1 0x1 DUP5 DUP2 SLOAD DUP2 LT PUSH2 0x9EB JUMPI PUSH2 0x9EB PUSH2 0x141F JUMP JUMPDEST PUSH1 0x0 SWAP2 DUP3 MSTORE PUSH1 0x20 DUP1 DUP4 KECCAK256 DUP8 DUP5 MSTORE PUSH1 0x2 DUP3 MSTORE PUSH1 0x40 DUP1 DUP6 KECCAK256 PUSH1 0x1 PUSH1 0x1 PUSH1 0xA0 SHL SUB DUP10 AND DUP7 MSTORE SWAP1 SWAP3 MSTORE SWAP1 DUP4 KECCAK256 PUSH1 0x4 SWAP3 SWAP1 SWAP3 MUL ADD PUSH1 0x3 DUP2 ADD DUP1 SLOAD PUSH1 0x1 DUP1 DUP6 ADD SLOAD SWAP4 SWAP7 POP SWAP4 SWAP5 SWAP1 SWAP4 SWAP1 SWAP3 DUP4 SWAP3 SWAP1 SWAP2 PUSH2 0xA3D SWAP1 DUP7 PUSH2 0x144B JUMP JUMPDEST DUP2 SLOAD DUP2 LT PUSH2 0xA4D JUMPI PUSH2 0xA4D PUSH2 0x141F JUMP JUMPDEST SWAP1 PUSH1 0x0 MSTORE PUSH1 0x20 PUSH1 0x0 KECCAK256 SWAP1 PUSH1 0x2 MUL ADD PUSH1 0x1 ADD SLOAD LT ISZERO PUSH2 0xA85 JUMPI PUSH1 0x2 DUP6 ADD SLOAD DUP5 SLOAD SWAP1 SWAP3 POP PUSH2 0x7F3 SWAP1 PUSH2 0x7ED PUSH1 0x3 DUP9 ADD PUSH2 0x7C5 PUSH1 0x1 DUP9 PUSH2 0x144B JUMP JUMPDEST PUSH1 0x2 DUP5 ADD SLOAD JUMPDEST PUSH2 0xA96 PUSH1 0x1 DUP6 PUSH2 0x144B JUMP JUMPDEST DUP2 LT ISZERO PUSH2 0xC29 JUMPI DUP2 PUSH2 0xB4F JUMPI PUSH2 0xABB DUP6 PUSH1 0x1 ADD SLOAD DUP8 PUSH1 0x3 ADD DUP4 PUSH1 0x1 PUSH2 0x84E SWAP2 SWAP1 PUSH2 0x145E JUMP JUMPDEST SWAP3 POP DUP6 PUSH1 0x2 ADD SLOAD DUP4 GT ISZERO PUSH2 0xB24 JUMPI PUSH2 0xB04 DUP6 PUSH1 0x0 ADD SLOAD PUSH2 0x7ED DUP9 PUSH1 0x3 ADD DUP5 DUP2 SLOAD DUP2 LT PUSH2 0xAE9 JUMPI PUSH2 0xAE9 PUSH2 0x141F JUMP JUMPDEST PUSH1 0x0 SWAP2 DUP3 MSTORE PUSH1 0x20 SWAP1 SWAP2 KECCAK256 PUSH1 0x2 SWAP2 DUP3 MUL ADD SLOAD SWAP1 DUP11 ADD SLOAD SWAP1 PUSH2 0x1022 JUMP JUMPDEST SWAP7 POP PUSH2 0xB17 PUSH1 0x64 PUSH2 0x806 DUP10 PUSH2 0x258 PUSH2 0x102E JUMP JUMPDEST SWAP7 POP POP POP POP POP POP POP PUSH2 0x706 JUMP JUMPDEST PUSH2 0xB44 DUP6 PUSH1 0x0 ADD SLOAD PUSH2 0x7ED DUP9 PUSH1 0x3 ADD DUP5 DUP2 SLOAD DUP2 LT PUSH2 0x897 JUMPI PUSH2 0x897 PUSH2 0x141F JUMP JUMPDEST SWAP7 POP PUSH1 0x1 SWAP2 POP PUSH2 0xC17 JUMP JUMPDEST PUSH1 0x0 PUSH2 0xB69 DUP8 PUSH1 0x3 ADD DUP4 DUP2 SLOAD DUP2 LT PUSH2 0x8D4 JUMPI PUSH2 0x8D4 PUSH2 0x141F JUMP JUMPDEST PUSH1 0x2 DUP9 ADD SLOAD SWAP1 SWAP2 POP PUSH2 0xB7B DUP3 DUP7 PUSH2 0xFBA JUMP JUMPDEST GT ISZERO PUSH2 0xBE4 JUMPI PUSH2 0xBC3 PUSH2 0x91C DUP8 PUSH1 0x0 ADD SLOAD PUSH2 0x7ED DUP11 PUSH1 0x3 ADD DUP7 DUP2 SLOAD DUP2 LT PUSH2 0xBA4 JUMPI PUSH2 0xBA4 PUSH2 0x141F JUMP JUMPDEST PUSH1 0x0 SWAP2 DUP3 MSTORE PUSH1 0x20 SWAP1 SWAP2 KECCAK256 PUSH1 0x2 SWAP2 DUP3 MUL ADD SLOAD SWAP1 DUP13 ADD SLOAD PUSH2 0x7ED SWAP1 DUP11 PUSH2 0xFC6 JUMP JUMPDEST SWAP8 POP PUSH2 0xBD6 PUSH1 0x64 PUSH2 0x806 DUP11 PUSH2 0x258 PUSH2 0x102E JUMP JUMPDEST SWAP8 POP POP POP POP POP POP POP POP PUSH2 0x706 JUMP JUMPDEST PUSH2 0xC07 PUSH2 0x91C DUP8 PUSH1 0x0 ADD SLOAD PUSH2 0x7ED DUP11 PUSH1 0x3 ADD DUP7 DUP2 SLOAD DUP2 LT PUSH2 0x7D5 JUMPI PUSH2 0x7D5 PUSH2 0x141F JUMP JUMPDEST SWAP8 POP PUSH2 0xC13 DUP5 DUP3 PUSH2 0xFBA JUMP JUMPDEST SWAP4 POP POP JUMPDEST DUP1 PUSH2 0xC21 DUP2 PUSH2 0x1471 JUMP JUMPDEST SWAP2 POP POP PUSH2 0xA8B JUMP JUMPDEST POP DUP4 SLOAD PUSH2 0x9B6 SWAP1 PUSH2 0x9AF SWAP1 PUSH2 0x7ED PUSH1 0x3 DUP10 ADD PUSH2 0xC46 PUSH1 0x1 DUP10 PUSH2 0x144B JUMP JUMPDEST DUP2 SLOAD DUP2 LT PUSH2 0xC56 JUMPI PUSH2 0xC56 PUSH2 0x141F JUMP JUMPDEST PUSH1 0x0 SWAP2 DUP3 MSTORE PUSH1 0x20 SWAP1 SWAP2 KECCAK256 PUSH1 0x2 SWAP2 DUP3 MUL ADD SLOAD SWAP1 DUP11 ADD SLOAD PUSH2 0x7ED SWAP1 DUP9 PUSH2 0xFC6 JUMP JUMPDEST PUSH2 0xC7D PUSH2 0xEF8 JUMP JUMPDEST PUSH1 0x0 PUSH1 0x1 DUP4 DUP2 SLOAD DUP2 LT PUSH2 0xC92 JUMPI PUSH2 0xC92 PUSH2 0x141F JUMP JUMPDEST PUSH1 0x0 SWAP2 DUP3 MSTORE PUSH1 0x20 DUP1 DUP4 KECCAK256 PUSH1 0x40 DUP1 MLOAD DUP1 DUP3 ADD DUP3 MSTORE DUP8 DUP2 MSTORE TIMESTAMP DUP2 DUP6 ADD SWAP1 DUP2 MSTORE PUSH1 0x3 PUSH1 0x4 SWAP1 SWAP7 MUL SWAP1 SWAP4 ADD SWAP5 DUP6 ADD DUP1 SLOAD PUSH1 0x1 DUP2 DUP2 ADD DUP4 SSTORE SWAP2 DUP9 MSTORE SWAP5 DUP8 KECCAK256 SWAP2 MLOAD PUSH1 0x2 SWAP1 SWAP6 MUL SWAP1 SWAP2 ADD SWAP4 DUP5 SSTORE SWAP2 MLOAD SWAP3 SWAP1 SWAP2 ADD SWAP2 SWAP1 SWAP2 SSTORE MLOAD SWAP1 SWAP3 POP DUP4 SWAP2 DUP6 SWAP2 PUSH32 0x6EC6D062A87C4B42FE40885D2E8955D89AB9275E14D24354DD2B6B130043BBA5 SWAP2 SWAP1 LOG3 POP POP POP JUMP JUMPDEST PUSH1 0x0 PUSH1 0x1 DUP4 DUP2 SLOAD DUP2 LT PUSH2 0xD28 JUMPI PUSH2 0xD28 PUSH2 0x141F JUMP JUMPDEST PUSH1 0x0 SWAP2 DUP3 MSTORE PUSH1 0x20 DUP1 DUP4 KECCAK256 DUP7 DUP5 MSTORE PUSH1 0x2 DUP3 MSTORE PUSH1 0x40 DUP1 DUP6 KECCAK256 CALLER DUP7 MSTORE SWAP1 SWAP3 MSTORE SWAP3 KECCAK256 PUSH1 0x4 SWAP1 SWAP2 MUL SWAP1 SWAP2 ADD SWAP2 POP DUP3 PUSH2 0xD9D JUMPI PUSH1 0x40 MLOAD PUSH3 0x461BCD PUSH1 0xE5 SHL DUP2 MSTORE PUSH1 0x20 PUSH1 0x4 DUP3 ADD MSTORE PUSH1 0x1D PUSH1 0x24 DUP3 ADD MSTORE PUSH32 0x46697865645465726D537461636B3A2042656C6F77206D696E696D756D000000 PUSH1 0x44 DUP3 ADD MSTORE PUSH1 0x64 ADD PUSH2 0x40C JUMP JUMPDEST DUP1 SLOAD ISZERO PUSH2 0xDF3 JUMPI TIMESTAMP PUSH2 0xDC0 DUP4 PUSH1 0x2 ADD SLOAD DUP4 PUSH1 0x1 ADD SLOAD PUSH2 0xFBA SWAP1 SWAP2 SWAP1 PUSH4 0xFFFFFFFF AND JUMP JUMPDEST GT ISZERO PUSH2 0xDF3 JUMPI PUSH1 0x0 PUSH2 0xDD2 DUP6 CALLER PUSH2 0x9D5 JUMP JUMPDEST SWAP1 POP DUP1 ISZERO PUSH2 0xDF1 JUMPI PUSH1 0x3 SLOAD PUSH2 0xDF1 SWAP1 PUSH1 0x1 PUSH1 0x1 PUSH1 0xA0 SHL SUB AND CALLER DUP4 PUSH2 0xF52 JUMP JUMPDEST POP JUMPDEST DUP1 SLOAD PUSH2 0xDFF SWAP1 DUP5 PUSH2 0xFBA JUMP JUMPDEST DUP2 SSTORE TIMESTAMP PUSH1 0x1 DUP1 DUP4 ADD SWAP2 SWAP1 SWAP2 SSTORE PUSH1 0x3 DUP4 ADD SLOAD PUSH2 0xE1A SWAP2 SWAP1 PUSH2 0x144B JUMP JUMPDEST PUSH1 0x2 DUP3 ADD SSTORE PUSH1 0x1 DUP3 ADD SLOAD PUSH2 0xE2E SWAP1 DUP5 PUSH2 0xFBA JUMP JUMPDEST PUSH1 0x1 DUP4 ADD SSTORE PUSH1 0x3 SLOAD PUSH2 0xE4B SWAP1 PUSH1 0x1 PUSH1 0x1 PUSH1 0xA0 SHL SUB AND CALLER ADDRESS DUP7 PUSH2 0x103A JUMP JUMPDEST PUSH1 0x40 MLOAD DUP4 DUP2 MSTORE DUP5 SWAP1 CALLER SWAP1 PUSH32 0x90890809C654F11D6E72A28FA60149770A0D11EC6C92319D6CEB2BB0A4EA1A15 SWAP1 PUSH1 0x20 ADD PUSH2 0x59C JUMP JUMPDEST PUSH2 0xE87 PUSH2 0xEF8 JUMP JUMPDEST PUSH1 0x1 PUSH1 0x1 PUSH1 0xA0 SHL SUB DUP2 AND PUSH2 0xEEC JUMPI PUSH1 0x40 MLOAD PUSH3 0x461BCD PUSH1 0xE5 SHL DUP2 MSTORE PUSH1 0x20 PUSH1 0x4 DUP3 ADD MSTORE PUSH1 0x26 PUSH1 0x24 DUP3 ADD MSTORE PUSH32 0x4F776E61626C653A206E6577206F776E657220697320746865207A65726F2061 PUSH1 0x44 DUP3 ADD MSTORE PUSH6 0x646472657373 PUSH1 0xD0 SHL PUSH1 0x64 DUP3 ADD MSTORE PUSH1 0x84 ADD PUSH2 0x40C JUMP JUMPDEST PUSH2 0xEF5 DUP2 PUSH2 0xFD2 JUMP JUMPDEST POP JUMP JUMPDEST PUSH1 0x0 SLOAD PUSH1 0x1 PUSH1 0x1 PUSH1 0xA0 SHL SUB AND CALLER EQ PUSH2 0x6F5 JUMPI PUSH1 0x40 MLOAD PUSH3 0x461BCD PUSH1 0xE5 SHL DUP2 MSTORE PUSH1 0x20 PUSH1 0x4 DUP3 ADD DUP2 SWAP1 MSTORE PUSH1 0x24 DUP3 ADD MSTORE PUSH32 0x4F776E61626C653A2063616C6C6572206973206E6F7420746865206F776E6572 PUSH1 0x44 DUP3 ADD MSTORE PUSH1 0x64 ADD PUSH2 0x40C JUMP JUMPDEST PUSH1 0x40 MLOAD PUSH1 0x1 PUSH1 0x1 PUSH1 0xA0 SHL SUB DUP4 AND PUSH1 0x24 DUP3 ADD MSTORE PUSH1 0x44 DUP2 ADD DUP3 SWAP1 MSTORE PUSH2 0xFB5 SWAP1 DUP5 SWAP1 PUSH4 0xA9059CBB PUSH1 0xE0 SHL SWAP1 PUSH1 0x64 ADD JUMPDEST PUSH1 0x40 DUP1 MLOAD PUSH1 0x1F NOT DUP2 DUP5 SUB ADD DUP2 MSTORE SWAP2 SWAP1 MSTORE PUSH1 0x20 DUP2 ADD DUP1 MLOAD PUSH1 0x1 PUSH1 0x1 PUSH1 0xE0 SHL SUB AND PUSH1 0x1 PUSH1 0x1 PUSH1 0xE0 SHL SUB NOT SWAP1 SWAP4 AND SWAP3 SWAP1 SWAP3 OR SWAP1 SWAP2 MSTORE PUSH2 0x1078 JUMP JUMPDEST POP POP POP JUMP JUMPDEST PUSH1 0x0 PUSH2 0x703 DUP3 DUP5 PUSH2 0x145E JUMP JUMPDEST PUSH1 0x0 PUSH2 0x703 DUP3 DUP5 PUSH2 0x144B JUMP JUMPDEST PUSH1 0x0 DUP1 SLOAD PUSH1 0x1 PUSH1 0x1 PUSH1 0xA0 SHL SUB DUP4 DUP2 AND PUSH1 0x1 PUSH1 0x1 PUSH1 0xA0 SHL SUB NOT DUP4 AND DUP2 OR DUP5 SSTORE PUSH1 0x40 MLOAD SWAP2 SWAP1 SWAP3 AND SWAP3 DUP4 SWAP2 PUSH32 0x8BE0079C531659141344CD1FD0A4F28419497F9722A3DAAFE3B4186F6B6457E0 SWAP2 SWAP1 LOG3 POP POP JUMP JUMPDEST PUSH1 0x0 PUSH2 0x703 DUP3 DUP5 PUSH2 0x148A JUMP JUMPDEST PUSH1 0x0 PUSH2 0x703 DUP3 DUP5 PUSH2 0x14A1 JUMP JUMPDEST PUSH1 0x40 MLOAD PUSH1 0x1 PUSH1 0x1 PUSH1 0xA0 SHL SUB DUP1 DUP6 AND PUSH1 0x24 DUP4 ADD MSTORE DUP4 AND PUSH1 0x44 DUP3 ADD MSTORE PUSH1 0x64 DUP2 ADD DUP3 SWAP1 MSTORE PUSH2 0x1072 SWAP1 DUP6 SWAP1 PUSH4 0x23B872DD PUSH1 0xE0 SHL SWAP1 PUSH1 0x84 ADD PUSH2 0xF7E JUMP JUMPDEST POP POP POP POP JUMP JUMPDEST PUSH1 0x0 PUSH2 0x10CD DUP3 PUSH1 0x40 MLOAD DUP1 PUSH1 0x40 ADD PUSH1 0x40 MSTORE DUP1 PUSH1 0x20 DUP2 MSTORE PUSH1 0x20 ADD PUSH32 0x5361666542455032303A206C6F772D6C6576656C2063616C6C206661696C6564 DUP2 MSTORE POP DUP6 PUSH1 0x1 PUSH1 0x1 PUSH1 0xA0 SHL SUB AND PUSH2 0x114A SWAP1 SWAP3 SWAP2 SWAP1 PUSH4 0xFFFFFFFF AND JUMP JUMPDEST DUP1 MLOAD SWAP1 SWAP2 POP ISZERO PUSH2 0xFB5 JUMPI DUP1 DUP1 PUSH1 0x20 ADD SWAP1 MLOAD DUP2 ADD SWAP1 PUSH2 0x10EB SWAP2 SWAP1 PUSH2 0x14C3 JUMP JUMPDEST PUSH2 0xFB5 JUMPI PUSH1 0x40 MLOAD PUSH3 0x461BCD PUSH1 0xE5 SHL DUP2 MSTORE PUSH1 0x20 PUSH1 0x4 DUP3 ADD MSTORE PUSH1 0x2A PUSH1 0x24 DUP3 ADD MSTORE PUSH32 0x5361666542455032303A204245503230206F7065726174696F6E20646964206E PUSH1 0x44 DUP3 ADD MSTORE PUSH10 0x1BDD081CDD58D8D95959 PUSH1 0xB2 SHL PUSH1 0x64 DUP3 ADD MSTORE PUSH1 0x84 ADD PUSH2 0x40C JUMP JUMPDEST PUSH1 0x60 PUSH2 0x1159 DUP5 DUP5 PUSH1 0x0 DUP6 PUSH2 0x1161 JUMP JUMPDEST SWAP5 SWAP4 POP POP POP POP JUMP JUMPDEST PUSH1 0x60 DUP3 SELFBALANCE LT ISZERO PUSH2 0x11C2 JUMPI PUSH1 0x40 MLOAD PUSH3 0x461BCD PUSH1 0xE5 SHL DUP2 MSTORE PUSH1 0x20 PUSH1 0x4 DUP3 ADD MSTORE PUSH1 0x26 PUSH1 0x24 DUP3 ADD MSTORE PUSH32 0x416464726573733A20696E73756666696369656E742062616C616E636520666F PUSH1 0x44 DUP3 ADD MSTORE PUSH6 0x1C8818D85B1B PUSH1 0xD2 SHL PUSH1 0x64 DUP3 ADD MSTORE PUSH1 0x84 ADD PUSH2 0x40C JUMP JUMPDEST PUSH1 0x0 DUP1 DUP7 PUSH1 0x1 PUSH1 0x1 PUSH1 0xA0 SHL SUB AND DUP6 DUP8 PUSH1 0x40 MLOAD PUSH2 0x11DE SWAP2 SWAP1 PUSH2 0x1510 JUMP JUMPDEST PUSH1 0x0 PUSH1 0x40 MLOAD DUP1 DUP4 SUB DUP2 DUP6 DUP8 GAS CALL SWAP3 POP POP POP RETURNDATASIZE DUP1 PUSH1 0x0 DUP2 EQ PUSH2 0x121B JUMPI PUSH1 0x40 MLOAD SWAP2 POP PUSH1 0x1F NOT PUSH1 0x3F RETURNDATASIZE ADD AND DUP3 ADD PUSH1 0x40 MSTORE RETURNDATASIZE DUP3 MSTORE RETURNDATASIZE PUSH1 0x0 PUSH1 0x20 DUP5 ADD RETURNDATACOPY PUSH2 0x1220 JUMP JUMPDEST PUSH1 0x60 SWAP2 POP JUMPDEST POP SWAP2 POP SWAP2 POP PUSH2 0x1231 DUP8 DUP4 DUP4 DUP8 PUSH2 0x123C JUMP JUMPDEST SWAP8 SWAP7 POP POP POP POP POP POP POP JUMP JUMPDEST PUSH1 0x60 DUP4 ISZERO PUSH2 0x12AB JUMPI DUP3 MLOAD PUSH1 0x0 SUB PUSH2 0x12A4 JUMPI PUSH1 0x1 PUSH1 0x1 PUSH1 0xA0 SHL SUB DUP6 AND EXTCODESIZE PUSH2 0x12A4 JUMPI PUSH1 0x40 MLOAD PUSH3 0x461BCD PUSH1 0xE5 SHL DUP2 MSTORE PUSH1 0x20 PUSH1 0x4 DUP3 ADD MSTORE PUSH1 0x1D PUSH1 0x24 DUP3 ADD MSTORE PUSH32 0x416464726573733A2063616C6C20746F206E6F6E2D636F6E7472616374000000 PUSH1 0x44 DUP3 ADD MSTORE PUSH1 0x64 ADD PUSH2 0x40C JUMP JUMPDEST POP DUP2 PUSH2 0x1159 JUMP JUMPDEST PUSH2 0x1159 DUP4 DUP4 DUP2 MLOAD ISZERO PUSH2 0x12C0 JUMPI DUP2 MLOAD DUP1 DUP4 PUSH1 0x20 ADD REVERT JUMPDEST DUP1 PUSH1 0x40 MLOAD PUSH3 0x461BCD PUSH1 0xE5 SHL DUP2 MSTORE PUSH1 0x4 ADD PUSH2 0x40C SWAP2 SWAP1 PUSH2 0x152C JUMP JUMPDEST PUSH1 0x0 PUSH1 0x20 DUP3 DUP5 SUB SLT ISZERO PUSH2 0x12EC JUMPI PUSH1 0x0 DUP1 REVERT JUMPDEST POP CALLDATALOAD SWAP2 SWAP1 POP JUMP JUMPDEST PUSH1 0x0 PUSH1 0x20 DUP1 DUP4 MSTORE PUSH1 0xA0 DUP4 ADD DUP5 MLOAD DUP3 DUP6 ADD MSTORE DUP2 DUP6 ADD MLOAD PUSH1 0x40 DUP2 DUP2 DUP8 ADD MSTORE DUP1 DUP8 ADD MLOAD PUSH1 0x60 DUP8 ADD MSTORE PUSH1 0x60 DUP8 ADD MLOAD SWAP2 POP PUSH1 0x80 DUP1 DUP8 ADD MSTORE DUP3 DUP3 MLOAD DUP1 DUP6 MSTORE PUSH1 0xC0 DUP9 ADD SWAP2 POP DUP6 DUP5 ADD SWAP5 POP PUSH1 0x0 SWAP4 POP JUMPDEST DUP1 DUP5 LT ISZERO PUSH2 0x1364 JUMPI DUP5 MLOAD DUP1 MLOAD DUP4 MSTORE DUP7 ADD MLOAD DUP7 DUP4 ADD MSTORE SWAP4 DUP6 ADD SWAP4 PUSH1 0x1 SWAP4 SWAP1 SWAP4 ADD SWAP3 SWAP1 DUP3 ADD SWAP1 PUSH2 0x133B JUMP JUMPDEST POP SWAP8 SWAP7 POP POP POP POP POP POP POP JUMP JUMPDEST DUP1 CALLDATALOAD PUSH1 0x1 PUSH1 0x1 PUSH1 0xA0 SHL SUB DUP2 AND DUP2 EQ PUSH2 0x1387 JUMPI PUSH1 0x0 DUP1 REVERT JUMPDEST SWAP2 SWAP1 POP JUMP JUMPDEST PUSH1 0x0 DUP1 PUSH1 0x40 DUP4 DUP6 SUB SLT ISZERO PUSH2 0x139F JUMPI PUSH1 0x0 DUP1 REVERT JUMPDEST PUSH2 0x13A8 DUP4 PUSH2 0x1370 JUMP JUMPDEST SWAP5 PUSH1 0x20 SWAP4 SWAP1 SWAP4 ADD CALLDATALOAD SWAP4 POP POP POP JUMP JUMPDEST PUSH1 0x0 DUP1 PUSH1 0x40 DUP4 DUP6 SUB SLT ISZERO PUSH2 0x13C9 JUMPI PUSH1 0x0 DUP1 REVERT JUMPDEST POP POP DUP1 CALLDATALOAD SWAP3 PUSH1 0x20 SWAP1 SWAP2 ADD CALLDATALOAD SWAP2 POP JUMP JUMPDEST PUSH1 0x0 DUP1 PUSH1 0x40 DUP4 DUP6 SUB SLT ISZERO PUSH2 0x13EB JUMPI PUSH1 0x0 DUP1 REVERT JUMPDEST DUP3 CALLDATALOAD SWAP2 POP PUSH2 0x13FB PUSH1 0x20 DUP5 ADD PUSH2 0x1370 JUMP JUMPDEST SWAP1 POP SWAP3 POP SWAP3 SWAP1 POP JUMP JUMPDEST PUSH1 0x0 PUSH1 0x20 DUP3 DUP5 SUB SLT ISZERO PUSH2 0x1416 JUMPI PUSH1 0x0 DUP1 REVERT JUMPDEST PUSH2 0x703 DUP3 PUSH2 0x1370 JUMP JUMPDEST PUSH4 0x4E487B71 PUSH1 0xE0 SHL PUSH1 0x0 MSTORE PUSH1 0x32 PUSH1 0x4 MSTORE PUSH1 0x24 PUSH1 0x0 REVERT JUMPDEST PUSH4 0x4E487B71 PUSH1 0xE0 SHL PUSH1 0x0 MSTORE PUSH1 0x11 PUSH1 0x4 MSTORE PUSH1 0x24 PUSH1 0x0 REVERT JUMPDEST DUP2 DUP2 SUB DUP2 DUP2 GT ISZERO PUSH2 0x706 JUMPI PUSH2 0x706 PUSH2 0x1435 JUMP JUMPDEST DUP1 DUP3 ADD DUP1 DUP3 GT ISZERO PUSH2 0x706 JUMPI PUSH2 0x706 PUSH2 0x1435 JUMP JUMPDEST PUSH1 0x0 PUSH1 0x1 DUP3 ADD PUSH2 0x1483 JUMPI PUSH2 0x1483 PUSH2 0x1435 JUMP JUMPDEST POP PUSH1 0x1 ADD SWAP1 JUMP JUMPDEST DUP1 DUP3 MUL DUP2 ISZERO DUP3 DUP3 DIV DUP5 EQ OR PUSH2 0x706 JUMPI PUSH2 0x706 PUSH2 0x1435 JUMP JUMPDEST PUSH1 0x0 DUP3 PUSH2 0x14BE JUMPI PUSH4 0x4E487B71 PUSH1 0xE0 SHL PUSH1 0x0 MSTORE PUSH1 0x12 PUSH1 0x4 MSTORE PUSH1 0x24 PUSH1 0x0 REVERT JUMPDEST POP DIV SWAP1 JUMP JUMPDEST PUSH1 0x0 PUSH1 0x20 DUP3 DUP5 SUB SLT ISZERO PUSH2 0x14D5 JUMPI PUSH1 0x0 DUP1 REVERT JUMPDEST DUP2 MLOAD DUP1 ISZERO ISZERO DUP2 EQ PUSH2 0x14E5 JUMPI PUSH1 0x0 DUP1 REVERT JUMPDEST SWAP4 SWAP3 POP POP POP JUMP JUMPDEST PUSH1 0x0 JUMPDEST DUP4 DUP2 LT ISZERO PUSH2 0x1507 JUMPI DUP2 DUP2 ADD MLOAD DUP4 DUP3 ADD MSTORE PUSH1 0x20 ADD PUSH2 0x14EF JUMP JUMPDEST POP POP PUSH1 0x0 SWAP2 ADD MSTORE JUMP JUMPDEST PUSH1 0x0 DUP3 MLOAD PUSH2 0x1522 DUP2 DUP5 PUSH1 0x20 DUP8 ADD PUSH2 0x14EC JUMP JUMPDEST SWAP2 SWAP1 SWAP2 ADD SWAP3 SWAP2 POP POP JUMP JUMPDEST PUSH1 0x20 DUP2 MSTORE PUSH1 0x0 DUP3 MLOAD DUP1 PUSH1 0x20 DUP5 ADD MSTORE PUSH2 0x154B DUP2 PUSH1 0x40 DUP6 ADD PUSH1 0x20 DUP8 ADD PUSH2 0x14EC JUMP JUMPDEST PUSH1 0x1F ADD PUSH1 0x1F NOT AND SWAP2 SWAP1 SWAP2 ADD PUSH1 0x40 ADD SWAP3 SWAP2 POP POP JUMP INVALID LOG2 PUSH5 0x6970667358 0x22 SLT KECCAK256 SWAP15 EQ 0xBE SWAP1 ADDRESS SWAP11 LOG2 0xD SWAP9 PUSH25 0x3B7100A2EC62CC11166D9F2879D3F77BF4A1AF136C8C64736F PUSH13 0x63430008110033000000000000 "
				},
				"gasEstimates": {
					"creation": {
						"codeDepositCost": "1105000",
						"executionCost": "infinite",
						"totalCost": "infinite"
					},
					"external": {
						"BASE()": "272",
						"DENOMINATOR()": "229",
						"DENOMINATOR_TEST()": "250",
						"addPool(uint256,uint256)": "146552",
						"calculateReward(uint256,address)": "infinite",
						"deposit(uint256,uint256)": "infinite",
						"getAllAmount()": "infinite",
						"getMultiplier(uint256,uint256)": "infinite",
						"getPoolInfo(uint256)": "infinite",
						"owner()": "2442",
						"para()": "2405",
						"pendingReward(uint256,address)": "infinite",
						"poolLength()": "2294",
						"recoverWrongTokens(address,uint256)": "infinite",
						"renounceOwnership()": "infinite",
						"setApr(uint256,uint256)": "74785",
						"transferOwnership(address)": "28447",
						"userInfo(uint256,address)": "6950",
						"withdraw(uint256,uint256)": "infinite"
					},
					"internal": {
						"initialized()": "infinite"
					}
				},
				"methodIdentifiers": {
					"BASE()": "ec342ad0",
					"DENOMINATOR()": "918f8674",
					"DENOMINATOR_TEST()": "e3d0b2bf",
					"addPool(uint256,uint256)": "6d89dbc5",
					"calculateReward(uint256,address)": "a18f07a0",
					"deposit(uint256,uint256)": "e2bbb158",
					"getAllAmount()": "51166d78",
					"getMultiplier(uint256,uint256)": "8dbb1e3a",
					"getPoolInfo(uint256)": "2f380b35",
					"owner()": "8da5cb5b",
					"para()": "3e3cca90",
					"pendingReward(uint256,address)": "98969e82",
					"poolLength()": "081e3eda",
					"recoverWrongTokens(address,uint256)": "3f138d4b",
					"renounceOwnership()": "715018a6",
					"setApr(uint256,uint256)": "cfbb3dbd",
					"transferOwnership(address)": "f2fde38b",
					"userInfo(uint256,address)": "93f1a40b",
					"withdraw(uint256,uint256)": "441a3e70"
				}
			},
			"storageLayout": {
				"storage": [
					{
						"astId": 7,
						"contract": "FixedTermStack.sol:FixedTermStack",
						"label": "_owner",
						"offset": 0,
						"slot": "0",
						"type": "t_address"
					},
					{
						"astId": 828,
						"contract": "FixedTermStack.sol:FixedTermStack",
						"label": "poolInfos",
						"offset": 0,
						"slot": "1",
						"type": "t_array(t_struct(PoolInfo)824_storage)dyn_storage"
					},
					{
						"astId": 835,
						"contract": "FixedTermStack.sol:FixedTermStack",
						"label": "userInfo",
						"offset": 0,
						"slot": "2",
						"type": "t_mapping(t_uint256,t_mapping(t_address,t_struct(UserInfo)808_storage))"
					},
					{
						"astId": 839,
						"contract": "FixedTermStack.sol:FixedTermStack",
						"label": "para",
						"offset": 0,
						"slot": "3",
						"type": "t_contract(IBEP20)2000"
					}
				],
				"types": {
					"t_address": {
						"encoding": "inplace",
						"label": "address",
						"numberOfBytes": "20"
					},
					"t_array(t_struct(AprInfo)813_storage)dyn_storage": {
						"base": "t_struct(AprInfo)813_storage",
						"encoding": "dynamic_array",
						"label": "struct FixedTermStack.AprInfo[]",
						"numberOfBytes": "32"
					},
					"t_array(t_struct(PoolInfo)824_storage)dyn_storage": {
						"base": "t_struct(PoolInfo)824_storage",
						"encoding": "dynamic_array",
						"label": "struct FixedTermStack.PoolInfo[]",
						"numberOfBytes": "32"
					},
					"t_contract(IBEP20)2000": {
						"encoding": "inplace",
						"label": "contract IBEP20",
						"numberOfBytes": "20"
					},
					"t_mapping(t_address,t_struct(UserInfo)808_storage)": {
						"encoding": "mapping",
						"key": "t_address",
						"label": "mapping(address => struct FixedTermStack.UserInfo)",
						"numberOfBytes": "32",
						"value": "t_struct(UserInfo)808_storage"
					},
					"t_mapping(t_uint256,t_mapping(t_address,t_struct(UserInfo)808_storage))": {
						"encoding": "mapping",
						"key": "t_uint256",
						"label": "mapping(uint256 => mapping(address => struct FixedTermStack.UserInfo))",
						"numberOfBytes": "32",
						"value": "t_mapping(t_address,t_struct(UserInfo)808_storage)"
					},
					"t_struct(AprInfo)813_storage": {
						"encoding": "inplace",
						"label": "struct FixedTermStack.AprInfo",
						"members": [
							{
								"astId": 810,
								"contract": "FixedTermStack.sol:FixedTermStack",
								"label": "apr",
								"offset": 0,
								"slot": "0",
								"type": "t_uint256"
							},
							{
								"astId": 812,
								"contract": "FixedTermStack.sol:FixedTermStack",
								"label": "time",
								"offset": 0,
								"slot": "1",
								"type": "t_uint256"
							}
						],
						"numberOfBytes": "64"
					},
					"t_struct(PoolInfo)824_storage": {
						"encoding": "inplace",
						"label": "struct FixedTermStack.PoolInfo",
						"members": [
							{
								"astId": 815,
								"contract": "FixedTermStack.sol:FixedTermStack",
								"label": "id",
								"offset": 0,
								"slot": "0",
								"type": "t_uint256"
							},
							{
								"astId": 817,
								"contract": "FixedTermStack.sol:FixedTermStack",
								"label": "amount",
								"offset": 0,
								"slot": "1",
								"type": "t_uint256"
							},
							{
								"astId": 819,
								"contract": "FixedTermStack.sol:FixedTermStack",
								"label": "duration",
								"offset": 0,
								"slot": "2",
								"type": "t_uint256"
							},
							{
								"astId": 823,
								"contract": "FixedTermStack.sol:FixedTermStack",
								"label": "aprs",
								"offset": 0,
								"slot": "3",
								"type": "t_array(t_struct(AprInfo)813_storage)dyn_storage"
							}
						],
						"numberOfBytes": "128"
					},
					"t_struct(UserInfo)808_storage": {
						"encoding": "inplace",
						"label": "struct FixedTermStack.UserInfo",
						"members": [
							{
								"astId": 803,
								"contract": "FixedTermStack.sol:FixedTermStack",
								"label": "amount",
								"offset": 0,
								"slot": "0",
								"type": "t_uint256"
							},
							{
								"astId": 805,
								"contract": "FixedTermStack.sol:FixedTermStack",
								"label": "lockStartTime",
								"offset": 0,
								"slot": "1",
								"type": "t_uint256"
							},
							{
								"astId": 807,
								"contract": "FixedTermStack.sol:FixedTermStack",
								"label": "offset",
								"offset": 0,
								"slot": "2",
								"type": "t_uint256"
							}
						],
						"numberOfBytes": "96"
					},
					"t_uint256": {
						"encoding": "inplace",
						"label": "uint256",
						"numberOfBytes": "32"
					}
				}
			},
			"userdoc": {
				"events": {
					"Deposit(address,uint256,uint256)": {
						"notice": "The block number when mining starts."
					}
				},
				"kind": "user",
				"methods": {
					"para()": {
						"notice": "The reward token!"
					}
				},
				"version": 1
			}
		}
	}
}