{
	"Lock.sol": {
		"SmartChefFactory": {
			"abi": [
				{
					"inputs": [],
					"stateMutability": "nonpayable",
					"type": "constructor"
				},
				{
					"anonymous": false,
					"inputs": [
						{
							"indexed": true,
							"internalType": "address",
							"name": "smartChef",
							"type": "address"
						}
					],
					"name": "NewSmartChefContract",
					"type": "event"
				},
				{
					"anonymous": false,
					"inputs": [
						{
							"indexed": true,
							"internalType": "address",
							"name": "previousOwner",
							"type": "address"
						},
						{
							"indexed": true,
							"internalType": "address",
							"name": "newOwner",
							"type": "address"
						}
					],
					"name": "OwnershipTransferred",
					"type": "event"
				},
				{
					"inputs": [
						{
							"internalType": "contract IERC20Metadata",
							"name": "_stakedToken",
							"type": "address"
						},
						{
							"internalType": "contract IERC20Metadata",
							"name": "_rewardToken",
							"type": "address"
						},
						{
							"internalType": "uint256",
							"name": "_rewardPerBlock",
							"type": "uint256"
						},
						{
							"internalType": "uint256",
							"name": "_startBlock",
							"type": "uint256"
						},
						{
							"internalType": "uint256",
							"name": "_bonusEndBlock",
							"type": "uint256"
						},
						{
							"internalType": "uint256",
							"name": "_poolLimitPerUser",
							"type": "uint256"
						},
						{
							"internalType": "uint256",
							"name": "_numberBlocksForUserLimit",
							"type": "uint256"
						},
						{
							"internalType": "address",
							"name": "_pancakeProfile",
							"type": "address"
						},
						{
							"internalType": "bool",
							"name": "_pancakeProfileIsRequested",
							"type": "bool"
						},
						{
							"internalType": "uint256",
							"name": "_pancakeProfileThresholdPoints",
							"type": "uint256"
						},
						{
							"internalType": "address",
							"name": "_admin",
							"type": "address"
						}
					],
					"name": "deployPool",
					"outputs": [],
					"stateMutability": "nonpayable",
					"type": "function"
				},
				{
					"inputs": [],
					"name": "owner",
					"outputs": [
						{
							"internalType": "address",
							"name": "",
							"type": "address"
						}
					],
					"stateMutability": "view",
					"type": "function"
				},
				{
					"inputs": [],
					"name": "renounceOwnership",
					"outputs": [],
					"stateMutability": "nonpayable",
					"type": "function"
				},
				{
					"inputs": [
						{
							"internalType": "address",
							"name": "newOwner",
							"type": "address"
						}
					],
					"name": "transferOwnership",
					"outputs": [],
					"stateMutability": "nonpayable",
					"type": "function"
				}
			],
			"devdoc": {
				"kind": "dev",
				"methods": {
					"owner()": {
						"details": "Returns the address of the current owner."
					},
					"renounceOwnership()": {
						"details": "Leaves the contract without owner. It will not be possible to call `onlyOwner` functions anymore. Can only be called by the current owner. NOTE: Renouncing ownership will leave the contract without an owner, thereby removing any functionality that is only available to the owner."
					},
					"transferOwnership(address)": {
						"details": "Transfers ownership of the contract to a new account (`newOwner`). Can only be called by the current owner."
					}
				},
				"version": 1
			},
			"evm": {
				"assembly": "    /* \"Lock.sol\":35780:38264  contract SmartChefFactory is Ownable {... */\n  mstore(0x40, 0x80)\n    /* \"Lock.sol\":35886:35920  constructor() {... */\n  callvalue\n  dup1\n  iszero\n  tag_1\n  jumpi\n  0x00\n  dup1\n  revert\ntag_1:\n  pop\n    /* \"Lock.sol\":4539:4562  _setOwner(_msgSender()) */\n  tag_5\n    /* \"Lock.sol\":4059:4069  msg.sender */\n  caller\n    /* \"Lock.sol\":4539:4548  _setOwner */\n  tag_8\n    /* \"Lock.sol\":4539:4562  _setOwner(_msgSender()) */\n  jump\t// in\ntag_5:\n    /* \"Lock.sol\":35780:38264  contract SmartChefFactory is Ownable {... */\n  jump(tag_10)\n    /* \"Lock.sol\":5751:5924  function _setOwner(address newOwner) private {... */\ntag_8:\n    /* \"Lock.sol\":5807:5823  address oldOwner */\n  0x00\n    /* \"Lock.sol\":5826:5832  _owner */\n  dup1\n  sload\n  sub(shl(0xa0, 0x01), 0x01)\n    /* \"Lock.sol\":5843:5860  _owner = newOwner */\n  dup4\n  dup2\n  and\n  not(sub(shl(0xa0, 0x01), 0x01))\n  dup4\n  and\n  dup2\n  or\n  dup5\n  sstore\n    /* \"Lock.sol\":5876:5916  OwnershipTransferred(oldOwner, newOwner) */\n  mload(0x40)\n    /* \"Lock.sol\":5826:5832  _owner */\n  swap2\n  swap1\n  swap3\n  and\n  swap3\n  dup4\n  swap2\n    /* \"Lock.sol\":5876:5916  OwnershipTransferred(oldOwner, newOwner) */\n  0x8be0079c531659141344cd1fd0a4f28419497f9722a3daafe3b4186f6b6457e0\n  swap2\n    /* \"Lock.sol\":5807:5823  address oldOwner */\n  swap1\n    /* \"Lock.sol\":5876:5916  OwnershipTransferred(oldOwner, newOwner) */\n  log3\n    /* \"Lock.sol\":5796:5924  {... */\n  pop\n    /* \"Lock.sol\":5751:5924  function _setOwner(address newOwner) private {... */\n  pop\n  jump\t// out\n    /* \"Lock.sol\":35780:38264  contract SmartChefFactory is Ownable {... */\ntag_10:\n  dataSize(sub_0)\n  dup1\n  dataOffset(sub_0)\n  0x00\n  codecopy\n  0x00\n  return\nstop\n\nsub_0: assembly {\n        /* \"Lock.sol\":35780:38264  contract SmartChefFactory is Ownable {... */\n      mstore(0x40, 0x80)\n      callvalue\n      dup1\n      iszero\n      tag_1\n      jumpi\n      0x00\n      dup1\n      revert\n    tag_1:\n      pop\n      jumpi(tag_2, lt(calldatasize, 0x04))\n      shr(0xe0, calldataload(0x00))\n      dup1\n      0x715018a6\n      eq\n      tag_3\n      jumpi\n      dup1\n      0x8da5cb5b\n      eq\n      tag_4\n      jumpi\n      dup1\n      0xf2fde38b\n      eq\n      tag_5\n      jumpi\n      dup1\n      0xf8d98c8a\n      eq\n      tag_6\n      jumpi\n    tag_2:\n      0x00\n      dup1\n      revert\n        /* \"Lock.sol\":5302:5396  function renounceOwnership() public virtual onlyOwner {... */\n    tag_3:\n      tag_7\n      tag_8\n      jump\t// in\n    tag_7:\n      stop\n        /* \"Lock.sol\":4651:4738  function owner() public view virtual returns (address) {... */\n    tag_4:\n        /* \"Lock.sol\":4697:4704  address */\n      0x00\n        /* \"Lock.sol\":4724:4730  _owner */\n      sload\n        /* \"Lock.sol\":4651:4738  function owner() public view virtual returns (address) {... */\n      0x40\n      dup1\n      mload\n      sub(shl(0xa0, 0x01), 0x01)\n        /* \"Lock.sol\":4724:4730  _owner */\n      swap1\n      swap3\n      and\n        /* \"#utility.yul\":160:211   */\n      dup3\n      mstore\n        /* \"Lock.sol\":4651:4738  function owner() public view virtual returns (address) {... */\n      mload\n      swap1\n      dup2\n      swap1\n      sub\n        /* \"#utility.yul\":148:150   */\n      0x20\n        /* \"Lock.sol\":4651:4738  function owner() public view virtual returns (address) {... */\n      add\n      swap1\n      return\n        /* \"Lock.sol\":5551:5743  function transferOwnership(address newOwner) public virtual onlyOwner {... */\n    tag_5:\n      tag_7\n      tag_14\n      calldatasize\n      0x04\n      tag_15\n      jump\t// in\n    tag_14:\n      tag_16\n      jump\t// in\n        /* \"Lock.sol\":36722:38261  function deployPool(... */\n    tag_6:\n      tag_7\n      tag_18\n      calldatasize\n      0x04\n      tag_19\n      jump\t// in\n    tag_18:\n      tag_20\n      jump\t// in\n        /* \"Lock.sol\":5302:5396  function renounceOwnership() public virtual onlyOwner {... */\n    tag_8:\n        /* \"Lock.sol\":4697:4704  address */\n      0x00\n        /* \"Lock.sol\":4724:4730  _owner */\n      sload\n      sub(shl(0xa0, 0x01), 0x01)\n      and\n        /* \"Lock.sol\":4059:4069  msg.sender */\n      caller\n        /* \"Lock.sol\":4871:4894  owner() == _msgSender() */\n      eq\n        /* \"Lock.sol\":4863:4931  require(owner() == _msgSender(), \"Ownable: caller is not the owner\") */\n      tag_25\n      jumpi\n      mload(0x40)\n      shl(0xe5, 0x461bcd)\n      dup2\n      mstore\n      0x04\n      add\n      tag_26\n      swap1\n      tag_27\n      jump\t// in\n    tag_26:\n      mload(0x40)\n      dup1\n      swap2\n      sub\n      swap1\n      revert\n    tag_25:\n        /* \"Lock.sol\":5367:5388  _setOwner(address(0)) */\n      tag_29\n        /* \"Lock.sol\":5385:5386  0 */\n      0x00\n        /* \"Lock.sol\":5367:5376  _setOwner */\n      tag_30\n        /* \"Lock.sol\":5367:5388  _setOwner(address(0)) */\n      jump\t// in\n    tag_29:\n        /* \"Lock.sol\":5302:5396  function renounceOwnership() public virtual onlyOwner {... */\n      jump\t// out\n        /* \"Lock.sol\":5551:5743  function transferOwnership(address newOwner) public virtual onlyOwner {... */\n    tag_16:\n        /* \"Lock.sol\":4697:4704  address */\n      0x00\n        /* \"Lock.sol\":4724:4730  _owner */\n      sload\n      sub(shl(0xa0, 0x01), 0x01)\n      and\n        /* \"Lock.sol\":4059:4069  msg.sender */\n      caller\n        /* \"Lock.sol\":4871:4894  owner() == _msgSender() */\n      eq\n        /* \"Lock.sol\":4863:4931  require(owner() == _msgSender(), \"Ownable: caller is not the owner\") */\n      tag_35\n      jumpi\n      mload(0x40)\n      shl(0xe5, 0x461bcd)\n      dup2\n      mstore\n      0x04\n      add\n      tag_26\n      swap1\n      tag_27\n      jump\t// in\n    tag_35:\n      sub(shl(0xa0, 0x01), 0x01)\n        /* \"Lock.sol\":5640:5662  newOwner != address(0) */\n      dup2\n      and\n        /* \"Lock.sol\":5632:5705  require(newOwner != address(0), \"Ownable: new owner is the zero address\") */\n      tag_38\n      jumpi\n      mload(0x40)\n      shl(0xe5, 0x461bcd)\n      dup2\n      mstore\n        /* \"#utility.yul\":2549:2551   */\n      0x20\n        /* \"Lock.sol\":5632:5705  require(newOwner != address(0), \"Ownable: new owner is the zero address\") */\n      0x04\n      dup3\n      add\n        /* \"#utility.yul\":2531:2552   */\n      mstore\n        /* \"#utility.yul\":2588:2590   */\n      0x26\n        /* \"#utility.yul\":2568:2586   */\n      0x24\n      dup3\n      add\n        /* \"#utility.yul\":2561:2591   */\n      mstore\n        /* \"#utility.yul\":2627:2661   */\n      0x4f776e61626c653a206e6577206f776e657220697320746865207a65726f2061\n        /* \"#utility.yul\":2607:2625   */\n      0x44\n      dup3\n      add\n        /* \"#utility.yul\":2600:2662   */\n      mstore\n      shl(0xd0, 0x646472657373)\n        /* \"#utility.yul\":2678:2696   */\n      0x64\n      dup3\n      add\n        /* \"#utility.yul\":2671:2707   */\n      mstore\n        /* \"#utility.yul\":2724:2743   */\n      0x84\n      add\n        /* \"Lock.sol\":5632:5705  require(newOwner != address(0), \"Ownable: new owner is the zero address\") */\n      tag_26\n        /* \"#utility.yul\":2347:2749   */\n      jump\n        /* \"Lock.sol\":5632:5705  require(newOwner != address(0), \"Ownable: new owner is the zero address\") */\n    tag_38:\n        /* \"Lock.sol\":5716:5735  _setOwner(newOwner) */\n      tag_41\n        /* \"Lock.sol\":5726:5734  newOwner */\n      dup2\n        /* \"Lock.sol\":5716:5725  _setOwner */\n      tag_30\n        /* \"Lock.sol\":5716:5735  _setOwner(newOwner) */\n      jump\t// in\n    tag_41:\n        /* \"Lock.sol\":5551:5743  function transferOwnership(address newOwner) public virtual onlyOwner {... */\n      pop\n      jump\t// out\n        /* \"Lock.sol\":36722:38261  function deployPool(... */\n    tag_20:\n        /* \"Lock.sol\":4697:4704  address */\n      0x00\n        /* \"Lock.sol\":4724:4730  _owner */\n      sload\n      sub(shl(0xa0, 0x01), 0x01)\n      and\n        /* \"Lock.sol\":4059:4069  msg.sender */\n      caller\n        /* \"Lock.sol\":4871:4894  owner() == _msgSender() */\n      eq\n        /* \"Lock.sol\":4863:4931  require(owner() == _msgSender(), \"Ownable: caller is not the owner\") */\n      tag_45\n      jumpi\n      mload(0x40)\n      shl(0xe5, 0x461bcd)\n      dup2\n      mstore\n      0x04\n      add\n      tag_26\n      swap1\n      tag_27\n      jump\t// in\n    tag_45:\n        /* \"Lock.sol\":37220:37221  0 */\n      0x00\n        /* \"Lock.sol\":37190:37202  _stakedToken */\n      dup12\n      sub(shl(0xa0, 0x01), 0x01)\n        /* \"Lock.sol\":37190:37214  _stakedToken.totalSupply */\n      and\n      0x18160ddd\n        /* \"Lock.sol\":37190:37216  _stakedToken.totalSupply() */\n      mload(0x40)\n      dup2\n      0xffffffff\n      and\n      0xe0\n      shl\n      dup2\n      mstore\n      0x04\n      add\n      0x20\n      mload(0x40)\n      dup1\n      dup4\n      sub\n      dup2\n      dup7\n      gas\n      staticcall\n      iszero\n      dup1\n      iszero\n      tag_49\n      jumpi\n      returndatasize\n      0x00\n      dup1\n      returndatacopy\n      revert(0x00, returndatasize)\n    tag_49:\n      pop\n      pop\n      pop\n      pop\n      mload(0x40)\n      returndatasize\n      not(0x1f)\n      0x1f\n      dup3\n      add\n      and\n      dup3\n      add\n      dup1\n      0x40\n      mstore\n      pop\n      dup2\n      add\n      swap1\n      tag_50\n      swap2\n      swap1\n      tag_51\n      jump\t// in\n    tag_50:\n        /* \"Lock.sol\":37190:37221  _stakedToken.totalSupply() >= 0 */\n      lt\n      iszero\n        /* \"Lock.sol\":37182:37222  require(_stakedToken.totalSupply() >= 0) */\n      tag_52\n      jumpi\n      0x00\n      dup1\n      revert\n    tag_52:\n        /* \"Lock.sol\":37271:37272  0 */\n      0x00\n        /* \"Lock.sol\":37241:37253  _rewardToken */\n      dup11\n      sub(shl(0xa0, 0x01), 0x01)\n        /* \"Lock.sol\":37241:37265  _rewardToken.totalSupply */\n      and\n      0x18160ddd\n        /* \"Lock.sol\":37241:37267  _rewardToken.totalSupply() */\n      mload(0x40)\n      dup2\n      0xffffffff\n      and\n      0xe0\n      shl\n      dup2\n      mstore\n      0x04\n      add\n      0x20\n      mload(0x40)\n      dup1\n      dup4\n      sub\n      dup2\n      dup7\n      gas\n      staticcall\n      iszero\n      dup1\n      iszero\n      tag_54\n      jumpi\n      returndatasize\n      0x00\n      dup1\n      returndatacopy\n      revert(0x00, returndatasize)\n    tag_54:\n      pop\n      pop\n      pop\n      pop\n      mload(0x40)\n      returndatasize\n      not(0x1f)\n      0x1f\n      dup3\n      add\n      and\n      dup3\n      add\n      dup1\n      0x40\n      mstore\n      pop\n      dup2\n      add\n      swap1\n      tag_55\n      swap2\n      swap1\n      tag_51\n      jump\t// in\n    tag_55:\n        /* \"Lock.sol\":37241:37272  _rewardToken.totalSupply() >= 0 */\n      lt\n      iszero\n        /* \"Lock.sol\":37233:37273  require(_rewardToken.totalSupply() >= 0) */\n      tag_56\n      jumpi\n      0x00\n      dup1\n      revert\n    tag_56:\n        /* \"Lock.sol\":37308:37320  _rewardToken */\n      dup10\n      sub(shl(0xa0, 0x01), 0x01)\n        /* \"Lock.sol\":37292:37320  _stakedToken != _rewardToken */\n      and\n        /* \"Lock.sol\":37292:37304  _stakedToken */\n      dup12\n      sub(shl(0xa0, 0x01), 0x01)\n        /* \"Lock.sol\":37292:37320  _stakedToken != _rewardToken */\n      and\n      sub\n        /* \"Lock.sol\":37284:37352  require(_stakedToken != _rewardToken, \"Tokens must be be different\") */\n      tag_57\n      jumpi\n      mload(0x40)\n      shl(0xe5, 0x461bcd)\n      dup2\n      mstore\n        /* \"#utility.yul\":3145:3147   */\n      0x20\n        /* \"Lock.sol\":37284:37352  require(_stakedToken != _rewardToken, \"Tokens must be be different\") */\n      0x04\n      dup3\n      add\n        /* \"#utility.yul\":3127:3148   */\n      mstore\n        /* \"#utility.yul\":3184:3186   */\n      0x1b\n        /* \"#utility.yul\":3164:3182   */\n      0x24\n      dup3\n      add\n        /* \"#utility.yul\":3157:3187   */\n      mstore\n        /* \"#utility.yul\":3223:3252   */\n      0x546f6b656e73206d75737420626520626520646966666572656e740000000000\n        /* \"#utility.yul\":3203:3221   */\n      0x44\n      dup3\n      add\n        /* \"#utility.yul\":3196:3253   */\n      mstore\n        /* \"#utility.yul\":3270:3288   */\n      0x64\n      add\n        /* \"Lock.sol\":37284:37352  require(_stakedToken != _rewardToken, \"Tokens must be be different\") */\n      tag_26\n        /* \"#utility.yul\":2943:3294   */\n      jump\n        /* \"Lock.sol\":37284:37352  require(_stakedToken != _rewardToken, \"Tokens must be be different\") */\n    tag_57:\n        /* \"Lock.sol\":37365:37386  bytes memory bytecode */\n      0x00\n        /* \"Lock.sol\":37389:37430  type(SmartChefInitializable).creationCode */\n      mload(0x40)\n      dup1\n      0x20\n      add\n      tag_60\n      swap1\n      tag_61\n      jump\t// in\n    tag_60:\n      not(0x1f)\n      dup3\n      dup3\n      sub\n      dup2\n      add\n      dup4\n      mstore\n      0x1f\n      swap1\n      swap2\n      add\n      and\n      0x40\n      dup2\n      dup2\n      mstore\n      sub(shl(0xa0, 0x01), 0x01)\n        /* \"#utility.yul\":3513:3545   */\n      dup9\n      and\n        /* \"Lock.sol\":37389:37430  type(SmartChefInitializable).creationCode */\n      0x20\n        /* \"Lock.sol\":37544:37631  abi.encode(_pancakeProfile, _pancakeProfileIsRequested, _pancakeProfileThresholdPoints) */\n      dup4\n      add\n        /* \"#utility.yul\":3495:3546   */\n      mstore\n        /* \"#utility.yul\":3589:3603   */\n      dup7\n      iszero\n        /* \"#utility.yul\":3582:3604   */\n      iszero\n        /* \"#utility.yul\":3562:3580   */\n      swap1\n      dup3\n      add\n        /* \"#utility.yul\":3555:3605   */\n      mstore\n        /* \"#utility.yul\":3621:3639   */\n      0x60\n      dup2\n      add\n        /* \"#utility.yul\":3614:3648   */\n      dup6\n      swap1\n      mstore\n        /* \"Lock.sol\":37389:37430  type(SmartChefInitializable).creationCode */\n      swap1\n      swap2\n      pop\n      dup2\n      swap1\n        /* \"#utility.yul\":3468:3486   */\n      0x80\n      add\n        /* \"Lock.sol\":37544:37631  abi.encode(_pancakeProfile, _pancakeProfileIsRequested, _pancakeProfileThresholdPoints) */\n      0x40\n      dup1\n      mload\n      not(0x1f)\n      dup2\n      dup5\n      sub\n      add\n      dup2\n      mstore\n      swap1\n      dup3\n      swap1\n      mstore\n        /* \"Lock.sol\":37490:37642  abi.encodePacked(... */\n      tag_64\n      swap3\n      swap2\n        /* \"Lock.sol\":37544:37631  abi.encode(_pancakeProfile, _pancakeProfileIsRequested, _pancakeProfileThresholdPoints) */\n      0x20\n        /* \"Lock.sol\":37490:37642  abi.encodePacked(... */\n      add\n      tag_65\n      jump\t// in\n    tag_64:\n      0x40\n      dup1\n      mload\n      not(0x1f)\n      dup2\n      dup5\n      sub\n      add\n      dup2\n      mstore\n      swap1\n      dup3\n      swap1\n      mstore\n      not(0xffffffffffffffffffffffff)\n        /* \"#utility.yul\":4549:4551   */\n      0x60\n        /* \"#utility.yul\":4545:4560   */\n      dup16\n      dup2\n      shl\n        /* \"#utility.yul\":4541:4565   */\n      dup3\n      and\n        /* \"Lock.sol\":37490:37642  abi.encodePacked(... */\n      0x20\n        /* \"Lock.sol\":37678:37735  abi.encodePacked(_stakedToken, _rewardToken, _startBlock) */\n      dup6\n      add\n        /* \"#utility.yul\":4529:4566   */\n      mstore\n        /* \"#utility.yul\":4600:4615   */\n      dup15\n      swap1\n      shl\n        /* \"#utility.yul\":4596:4620   */\n      and\n        /* \"#utility.yul\":4582:4594   */\n      0x34\n      dup4\n      add\n        /* \"#utility.yul\":4575:4621   */\n      mstore\n        /* \"#utility.yul\":4637:4649   */\n      0x48\n      dup3\n      add\n        /* \"#utility.yul\":4630:4658   */\n      dup12\n      swap1\n      mstore\n        /* \"Lock.sol\":37490:37642  abi.encodePacked(... */\n      swap2\n      pop\n        /* \"Lock.sol\":37653:37665  bytes32 salt */\n      0x00\n      swap1\n        /* \"#utility.yul\":4674:4686   */\n      0x68\n      add\n        /* \"Lock.sol\":37678:37735  abi.encodePacked(_stakedToken, _rewardToken, _startBlock) */\n      mload(0x40)\n      0x20\n      dup2\n      dup4\n      sub\n      sub\n      dup2\n      mstore\n      swap1\n      0x40\n      mstore\n        /* \"Lock.sol\":37668:37736  keccak256(abi.encodePacked(_stakedToken, _rewardToken, _startBlock)) */\n      dup1\n      mload\n      swap1\n      0x20\n      add\n      keccak256\n        /* \"Lock.sol\":37653:37736  bytes32 salt = keccak256(abi.encodePacked(_stakedToken, _rewardToken, _startBlock)) */\n      swap1\n      pop\n        /* \"Lock.sol\":37747:37771  address smartChefAddress */\n      0x00\n        /* \"Lock.sol\":37875:37879  salt */\n      dup2\n        /* \"Lock.sol\":37864:37872  bytecode */\n      dup4\n        /* \"Lock.sol\":37858:37873  mload(bytecode) */\n      mload\n        /* \"Lock.sol\":37853:37855  32 */\n      0x20\n        /* \"Lock.sol\":37843:37851  bytecode */\n      dup6\n        /* \"Lock.sol\":37839:37856  add(bytecode, 32) */\n      add\n        /* \"Lock.sol\":37836:37837  0 */\n      0x00\n        /* \"Lock.sol\":37828:37880  create2(0, add(bytecode, 32), mload(bytecode), salt) */\n      create2\n        /* \"Lock.sol\":37808:37880  smartChefAddress := create2(0, add(bytecode, 32), mload(bytecode), salt) */\n      swap1\n      pop\n        /* \"Lock.sol\":37926:37942  smartChefAddress */\n      dup1\n      sub(shl(0xa0, 0x01), 0x01)\n        /* \"Lock.sol\":37903:37954  SmartChefInitializable(smartChefAddress).initialize */\n      and\n      0x2aa2c381\n        /* \"Lock.sol\":37969:37981  _stakedToken */\n      dup16\n        /* \"Lock.sol\":37996:38008  _rewardToken */\n      dup16\n        /* \"Lock.sol\":38023:38038  _rewardPerBlock */\n      dup16\n        /* \"Lock.sol\":38053:38064  _startBlock */\n      dup16\n        /* \"Lock.sol\":38079:38093  _bonusEndBlock */\n      dup16\n        /* \"Lock.sol\":38108:38125  _poolLimitPerUser */\n      dup16\n        /* \"Lock.sol\":38140:38165  _numberBlocksForUserLimit */\n      dup16\n        /* \"Lock.sol\":38180:38186  _admin */\n      dup13\n        /* \"Lock.sol\":37903:38197  SmartChefInitializable(smartChefAddress).initialize(... */\n      mload(0x40)\n      dup10\n      0xffffffff\n      and\n      0xe0\n      shl\n      dup2\n      mstore\n      0x04\n      add\n      tag_68\n      swap9\n      swap8\n      swap7\n      swap6\n      swap5\n      swap4\n      swap3\n      swap2\n      swap1\n      sub(shl(0xa0, 0x01), 0x01)\n        /* \"#utility.yul\":5138:5153   */\n      swap9\n      dup10\n      and\n        /* \"#utility.yul\":5120:5154   */\n      dup2\n      mstore\n        /* \"#utility.yul\":5190:5205   */\n      swap7\n      dup9\n      and\n        /* \"#utility.yul\":5185:5187   */\n      0x20\n        /* \"#utility.yul\":5170:5188   */\n      dup9\n      add\n        /* \"#utility.yul\":5163:5206   */\n      mstore\n        /* \"#utility.yul\":5237:5239   */\n      0x40\n        /* \"#utility.yul\":5222:5240   */\n      dup8\n      add\n        /* \"#utility.yul\":5215:5249   */\n      swap6\n      swap1\n      swap6\n      mstore\n        /* \"#utility.yul\":5280:5282   */\n      0x60\n        /* \"#utility.yul\":5265:5283   */\n      dup7\n      add\n        /* \"#utility.yul\":5258:5292   */\n      swap4\n      swap1\n      swap4\n      mstore\n        /* \"#utility.yul\":5323:5326   */\n      0x80\n        /* \"#utility.yul\":5308:5327   */\n      dup6\n      add\n        /* \"#utility.yul\":5301:5336   */\n      swap2\n      swap1\n      swap2\n      mstore\n        /* \"#utility.yul\":5100:5103   */\n      0xa0\n        /* \"#utility.yul\":5352:5371   */\n      dup5\n      add\n        /* \"#utility.yul\":5345:5380   */\n      mstore\n        /* \"#utility.yul\":5411:5414   */\n      0xc0\n        /* \"#utility.yul\":5396:5415   */\n      dup4\n      add\n        /* \"#utility.yul\":5389:5424   */\n      mstore\n        /* \"#utility.yul\":5461:5476   */\n      swap1\n      swap2\n      and\n        /* \"#utility.yul\":5455:5458   */\n      0xe0\n        /* \"#utility.yul\":5440:5459   */\n      dup3\n      add\n        /* \"#utility.yul\":5433:5477   */\n      mstore\n        /* \"#utility.yul\":5069:5072   */\n      0x0100\n        /* \"#utility.yul\":5054:5073   */\n      add\n      swap1\n        /* \"#utility.yul\":4697:5483   */\n      jump\n        /* \"Lock.sol\":37903:38197  SmartChefInitializable(smartChefAddress).initialize(... */\n    tag_68:\n      0x00\n      mload(0x40)\n      dup1\n      dup4\n      sub\n      dup2\n      0x00\n      dup8\n      dup1\n      extcodesize\n      iszero\n      dup1\n      iszero\n      tag_70\n      jumpi\n      0x00\n      dup1\n      revert\n    tag_70:\n      pop\n      gas\n      call\n      iszero\n      dup1\n      iszero\n      tag_72\n      jumpi\n      returndatasize\n      0x00\n      dup1\n      returndatacopy\n      revert(0x00, returndatasize)\n    tag_72:\n      pop\n      pop\n        /* \"Lock.sol\":38215:38253  NewSmartChefContract(smartChefAddress) */\n      mload(0x40)\n      sub(shl(0xa0, 0x01), 0x01)\n      dup5\n      and\n      swap3\n      pop\n      0xe0d103a92c6ff6c4aceb49d436f4028e0deb4884fdbcb9f32b03045eabb44a6c\n      swap2\n      pop\n      0x00\n      swap1\n      log2\n        /* \"Lock.sol\":37171:38261  {... */\n      pop\n      pop\n      pop\n        /* \"Lock.sol\":36722:38261  function deployPool(... */\n      pop\n      pop\n      pop\n      pop\n      pop\n      pop\n      pop\n      pop\n      pop\n      pop\n      pop\n      jump\t// out\n        /* \"Lock.sol\":5751:5924  function _setOwner(address newOwner) private {... */\n    tag_30:\n        /* \"Lock.sol\":5807:5823  address oldOwner */\n      0x00\n        /* \"Lock.sol\":5826:5832  _owner */\n      dup1\n      sload\n      sub(shl(0xa0, 0x01), 0x01)\n        /* \"Lock.sol\":5843:5860  _owner = newOwner */\n      dup4\n      dup2\n      and\n      not(sub(shl(0xa0, 0x01), 0x01))\n      dup4\n      and\n      dup2\n      or\n      dup5\n      sstore\n        /* \"Lock.sol\":5876:5916  OwnershipTransferred(oldOwner, newOwner) */\n      mload(0x40)\n        /* \"Lock.sol\":5826:5832  _owner */\n      swap2\n      swap1\n      swap3\n      and\n      swap3\n      dup4\n      swap2\n        /* \"Lock.sol\":5876:5916  OwnershipTransferred(oldOwner, newOwner) */\n      0x8be0079c531659141344cd1fd0a4f28419497f9722a3daafe3b4186f6b6457e0\n      swap2\n        /* \"Lock.sol\":5807:5823  address oldOwner */\n      swap1\n        /* \"Lock.sol\":5876:5916  OwnershipTransferred(oldOwner, newOwner) */\n      log3\n        /* \"Lock.sol\":5796:5924  {... */\n      pop\n        /* \"Lock.sol\":5751:5924  function _setOwner(address newOwner) private {... */\n      pop\n      jump\t// out\n    tag_61:\n      dataSize(sub_0)\n      dup1\n      dataOffset(sub_0)\n      dup4\n      codecopy\n      add\n      swap1\n      jump\t// out\n        /* \"#utility.yul\":222:353   */\n    tag_75:\n      sub(shl(0xa0, 0x01), 0x01)\n        /* \"#utility.yul\":297:328   */\n      dup2\n      and\n        /* \"#utility.yul\":287:329   */\n      dup2\n      eq\n        /* \"#utility.yul\":277:347   */\n      tag_41\n      jumpi\n        /* \"#utility.yul\":343:344   */\n      0x00\n        /* \"#utility.yul\":340:341   */\n      dup1\n        /* \"#utility.yul\":333:345   */\n      revert\n        /* \"#utility.yul\":358:492   */\n    tag_76:\n        /* \"#utility.yul\":426:446   */\n      dup1\n      calldataload\n        /* \"#utility.yul\":455:486   */\n      tag_83\n        /* \"#utility.yul\":426:446   */\n      dup2\n        /* \"#utility.yul\":455:486   */\n      tag_75\n      jump\t// in\n    tag_83:\n        /* \"#utility.yul\":358:492   */\n      swap2\n      swap1\n      pop\n      jump\t// out\n        /* \"#utility.yul\":497:744   */\n    tag_15:\n        /* \"#utility.yul\":556:562   */\n      0x00\n        /* \"#utility.yul\":609:611   */\n      0x20\n        /* \"#utility.yul\":597:606   */\n      dup3\n        /* \"#utility.yul\":588:595   */\n      dup5\n        /* \"#utility.yul\":584:607   */\n      sub\n        /* \"#utility.yul\":580:612   */\n      slt\n        /* \"#utility.yul\":577:629   */\n      iszero\n      tag_85\n      jumpi\n        /* \"#utility.yul\":625:626   */\n      0x00\n        /* \"#utility.yul\":622:623   */\n      dup1\n        /* \"#utility.yul\":615:627   */\n      revert\n        /* \"#utility.yul\":577:629   */\n    tag_85:\n        /* \"#utility.yul\":664:673   */\n      dup2\n        /* \"#utility.yul\":651:674   */\n      calldataload\n        /* \"#utility.yul\":683:714   */\n      tag_86\n        /* \"#utility.yul\":708:713   */\n      dup2\n        /* \"#utility.yul\":683:714   */\n      tag_75\n      jump\t// in\n    tag_86:\n        /* \"#utility.yul\":733:738   */\n      swap4\n        /* \"#utility.yul\":497:744   */\n      swap3\n      pop\n      pop\n      pop\n      jump\t// out\n        /* \"#utility.yul\":749:1981   */\n    tag_19:\n        /* \"#utility.yul\":937:943   */\n      0x00\n        /* \"#utility.yul\":945:951   */\n      dup1\n        /* \"#utility.yul\":953:959   */\n      0x00\n        /* \"#utility.yul\":961:967   */\n      dup1\n        /* \"#utility.yul\":969:975   */\n      0x00\n        /* \"#utility.yul\":977:983   */\n      dup1\n        /* \"#utility.yul\":985:991   */\n      0x00\n        /* \"#utility.yul\":993:999   */\n      dup1\n        /* \"#utility.yul\":1001:1007   */\n      0x00\n        /* \"#utility.yul\":1009:1015   */\n      dup1\n        /* \"#utility.yul\":1017:1024   */\n      0x00\n        /* \"#utility.yul\":1071:1074   */\n      0x0160\n        /* \"#utility.yul\":1059:1068   */\n      dup13\n        /* \"#utility.yul\":1050:1057   */\n      dup15\n        /* \"#utility.yul\":1046:1069   */\n      sub\n        /* \"#utility.yul\":1042:1075   */\n      slt\n        /* \"#utility.yul\":1039:1092   */\n      iszero\n      tag_88\n      jumpi\n        /* \"#utility.yul\":1088:1089   */\n      0x00\n        /* \"#utility.yul\":1085:1086   */\n      dup1\n        /* \"#utility.yul\":1078:1090   */\n      revert\n        /* \"#utility.yul\":1039:1092   */\n    tag_88:\n        /* \"#utility.yul\":1127:1136   */\n      dup12\n        /* \"#utility.yul\":1114:1137   */\n      calldataload\n        /* \"#utility.yul\":1146:1177   */\n      tag_89\n        /* \"#utility.yul\":1171:1176   */\n      dup2\n        /* \"#utility.yul\":1146:1177   */\n      tag_75\n      jump\t// in\n    tag_89:\n        /* \"#utility.yul\":1196:1201   */\n      swap11\n      pop\n        /* \"#utility.yul\":1253:1255   */\n      0x20\n        /* \"#utility.yul\":1238:1256   */\n      dup13\n      add\n        /* \"#utility.yul\":1225:1257   */\n      calldataload\n        /* \"#utility.yul\":1266:1299   */\n      tag_90\n        /* \"#utility.yul\":1225:1257   */\n      dup2\n        /* \"#utility.yul\":1266:1299   */\n      tag_75\n      jump\t// in\n    tag_90:\n        /* \"#utility.yul\":1318:1325   */\n      swap10\n      pop\n        /* \"#utility.yul\":1372:1374   */\n      0x40\n        /* \"#utility.yul\":1357:1375   */\n      dup13\n      add\n        /* \"#utility.yul\":1344:1376   */\n      calldataload\n      swap9\n      pop\n        /* \"#utility.yul\":1423:1425   */\n      0x60\n        /* \"#utility.yul\":1408:1426   */\n      dup13\n      add\n        /* \"#utility.yul\":1395:1427   */\n      calldataload\n      swap8\n      pop\n        /* \"#utility.yul\":1474:1477   */\n      0x80\n        /* \"#utility.yul\":1459:1478   */\n      dup13\n      add\n        /* \"#utility.yul\":1446:1479   */\n      calldataload\n      swap7\n      pop\n        /* \"#utility.yul\":1526:1529   */\n      0xa0\n        /* \"#utility.yul\":1511:1530   */\n      dup13\n      add\n        /* \"#utility.yul\":1498:1531   */\n      calldataload\n      swap6\n      pop\n        /* \"#utility.yul\":1578:1581   */\n      0xc0\n        /* \"#utility.yul\":1563:1582   */\n      dup13\n      add\n        /* \"#utility.yul\":1550:1583   */\n      calldataload\n      swap5\n      pop\n        /* \"#utility.yul\":1635:1638   */\n      0xe0\n        /* \"#utility.yul\":1620:1639   */\n      dup13\n      add\n        /* \"#utility.yul\":1607:1640   */\n      calldataload\n        /* \"#utility.yul\":1649:1682   */\n      tag_91\n        /* \"#utility.yul\":1607:1640   */\n      dup2\n        /* \"#utility.yul\":1649:1682   */\n      tag_75\n      jump\t// in\n    tag_91:\n        /* \"#utility.yul\":1701:1708   */\n      swap4\n      pop\n        /* \"#utility.yul\":1760:1763   */\n      0x0100\n        /* \"#utility.yul\":1745:1764   */\n      dup13\n      add\n        /* \"#utility.yul\":1732:1765   */\n      calldataload\n        /* \"#utility.yul\":1803:1818   */\n      dup1\n      iszero\n        /* \"#utility.yul\":1796:1819   */\n      iszero\n        /* \"#utility.yul\":1784:1820   */\n      dup2\n      eq\n        /* \"#utility.yul\":1774:1838   */\n      tag_92\n      jumpi\n        /* \"#utility.yul\":1834:1835   */\n      0x00\n        /* \"#utility.yul\":1831:1832   */\n      dup1\n        /* \"#utility.yul\":1824:1836   */\n      revert\n        /* \"#utility.yul\":1774:1838   */\n    tag_92:\n        /* \"#utility.yul\":1857:1864   */\n      swap3\n      pop\n        /* \"#utility.yul\":1911:1914   */\n      0x0120\n        /* \"#utility.yul\":1896:1915   */\n      dup13\n      add\n        /* \"#utility.yul\":1883:1916   */\n      calldataload\n      swap2\n      pop\n        /* \"#utility.yul\":1936:1975   */\n      tag_93\n        /* \"#utility.yul\":1970:1973   */\n      0x0140\n        /* \"#utility.yul\":1955:1974   */\n      dup14\n      add\n        /* \"#utility.yul\":1936:1975   */\n      tag_76\n      jump\t// in\n    tag_93:\n        /* \"#utility.yul\":1925:1975   */\n      swap1\n      pop\n        /* \"#utility.yul\":749:1981   */\n      swap3\n      swap6\n      swap9\n      swap12\n      pop\n      swap3\n      swap6\n      swap9\n      swap12\n      swap1\n      swap4\n      swap7\n      swap10\n      pop\n      jump\t// out\n        /* \"#utility.yul\":1986:2342   */\n    tag_27:\n        /* \"#utility.yul\":2188:2190   */\n      0x20\n        /* \"#utility.yul\":2170:2191   */\n      dup1\n      dup3\n      mstore\n        /* \"#utility.yul\":2207:2225   */\n      dup2\n      dup2\n      add\n        /* \"#utility.yul\":2200:2230   */\n      mstore\n        /* \"#utility.yul\":2266:2300   */\n      0x4f776e61626c653a2063616c6c6572206973206e6f7420746865206f776e6572\n        /* \"#utility.yul\":2261:2263   */\n      0x40\n        /* \"#utility.yul\":2246:2264   */\n      dup3\n      add\n        /* \"#utility.yul\":2239:2301   */\n      mstore\n        /* \"#utility.yul\":2333:2335   */\n      0x60\n        /* \"#utility.yul\":2318:2336   */\n      add\n      swap1\n        /* \"#utility.yul\":1986:2342   */\n      jump\t// out\n        /* \"#utility.yul\":2754:2938   */\n    tag_51:\n        /* \"#utility.yul\":2824:2830   */\n      0x00\n        /* \"#utility.yul\":2877:2879   */\n      0x20\n        /* \"#utility.yul\":2865:2874   */\n      dup3\n        /* \"#utility.yul\":2856:2863   */\n      dup5\n        /* \"#utility.yul\":2852:2875   */\n      sub\n        /* \"#utility.yul\":2848:2880   */\n      slt\n        /* \"#utility.yul\":2845:2897   */\n      iszero\n      tag_97\n      jumpi\n        /* \"#utility.yul\":2893:2894   */\n      0x00\n        /* \"#utility.yul\":2890:2891   */\n      dup1\n        /* \"#utility.yul\":2883:2895   */\n      revert\n        /* \"#utility.yul\":2845:2897   */\n    tag_97:\n      pop\n        /* \"#utility.yul\":2916:2932   */\n      mload\n      swap2\n        /* \"#utility.yul\":2754:2938   */\n      swap1\n      pop\n      jump\t// out\n        /* \"#utility.yul\":3659:3981   */\n    tag_77:\n        /* \"#utility.yul\":3700:3703   */\n      0x00\n        /* \"#utility.yul\":3738:3743   */\n      dup2\n        /* \"#utility.yul\":3732:3744   */\n      mload\n        /* \"#utility.yul\":3762:3763   */\n      0x00\n        /* \"#utility.yul\":3772:3900   */\n    tag_101:\n        /* \"#utility.yul\":3786:3792   */\n      dup2\n        /* \"#utility.yul\":3783:3784   */\n      dup2\n        /* \"#utility.yul\":3780:3793   */\n      lt\n        /* \"#utility.yul\":3772:3900   */\n      iszero\n      tag_103\n      jumpi\n        /* \"#utility.yul\":3883:3887   */\n      0x20\n        /* \"#utility.yul\":3868:3881   */\n      dup2\n      dup6\n      add\n        /* \"#utility.yul\":3864:3888   */\n      dup2\n      add\n        /* \"#utility.yul\":3858:3889   */\n      mload\n        /* \"#utility.yul\":3845:3856   */\n      dup7\n      dup4\n      add\n        /* \"#utility.yul\":3838:3890   */\n      mstore\n        /* \"#utility.yul\":3801:3813   */\n      add\n        /* \"#utility.yul\":3772:3900   */\n      jump(tag_101)\n    tag_103:\n      pop\n        /* \"#utility.yul\":3955:3956   */\n      0x00\n        /* \"#utility.yul\":3919:3935   */\n      swap4\n      add\n        /* \"#utility.yul\":3944:3957   */\n      swap3\n      dup4\n      mstore\n      pop\n        /* \"#utility.yul\":3919:3935   */\n      swap1\n      swap2\n        /* \"#utility.yul\":3659:3981   */\n      swap1\n      pop\n      jump\t// out\n        /* \"#utility.yul\":3986:4247   */\n    tag_65:\n        /* \"#utility.yul\":4161:4164   */\n      0x00\n        /* \"#utility.yul\":4186:4241   */\n      tag_105\n        /* \"#utility.yul\":4211:4240   */\n      tag_106\n        /* \"#utility.yul\":4236:4239   */\n      dup4\n        /* \"#utility.yul\":4228:4234   */\n      dup7\n        /* \"#utility.yul\":4211:4240   */\n      tag_77\n      jump\t// in\n    tag_106:\n        /* \"#utility.yul\":4203:4209   */\n      dup5\n        /* \"#utility.yul\":4186:4241   */\n      tag_77\n      jump\t// in\n    tag_105:\n        /* \"#utility.yul\":4179:4241   */\n      swap5\n        /* \"#utility.yul\":3986:4247   */\n      swap4\n      pop\n      pop\n      pop\n      pop\n      jump\t// out\n    stop\n\n    sub_0: assembly {\n            /* \"Lock.sol\":21455:35733  contract SmartChefInitializable is Ownable, ReentrancyGuard {... */\n          mstore(0x40, 0xc0)\n            /* \"Lock.sol\":23956:24588  constructor(... */\n          callvalue\n          dup1\n          iszero\n          tag_1\n          jumpi\n          0x00\n          dup1\n          revert\n        tag_1:\n          pop\n          mload(0x40)\n          sub(codesize, bytecodeSize)\n          dup1\n          bytecodeSize\n          dup4\n          codecopy\n          dup2\n          add\n          0x40\n          dup2\n          swap1\n          mstore\n          tag_2\n          swap2\n          tag_3\n          jump\t// in\n        tag_2:\n            /* \"Lock.sol\":4539:4562  _setOwner(_msgSender()) */\n          tag_8\n            /* \"Lock.sol\":4059:4069  msg.sender */\n          caller\n            /* \"Lock.sol\":4539:4548  _setOwner */\n          tag_11\n            /* \"Lock.sol\":4539:4562  _setOwner(_msgSender()) */\n          jump\t// in\n        tag_8:\n            /* \"Lock.sol\":7600:7601  1 */\n          0x01\n            /* \"Lock.sol\":7711:7733  _status = _NOT_ENTERED */\n          dup1\n          dup1\n          sstore\n            /* \"Lock.sol\":24132:24142  msg.sender */\n          caller\n            /* \"Lock.sol\":24111:24142  SMART_CHEF_FACTORY = msg.sender */\n          0x80\n          mstore\n            /* \"Lock.sol\":24205:24255  IPancakeProfile(_pancakeProfile).getTeamProfile(1) */\n          mload(0x40)\n          shl(0xe0, 0xaee2f47f)\n          dup2\n          mstore\n          0x04\n          dup2\n          add\n            /* \"#utility.yul\":772:797   */\n          swap2\n          swap1\n          swap2\n          mstore\n          sub(shl(0xa0, 0x01), 0x01)\n            /* \"Lock.sol\":24205:24252  IPancakeProfile(_pancakeProfile).getTeamProfile */\n          dup5\n          and\n          swap1\n          0xaee2f47f\n          swap1\n            /* \"#utility.yul\":745:763   */\n          0x24\n          add\n            /* \"Lock.sol\":24205:24255  IPancakeProfile(_pancakeProfile).getTeamProfile(1) */\n          0x00\n          mload(0x40)\n          dup1\n          dup4\n          sub\n          dup2\n          dup7\n          gas\n          staticcall\n          iszero\n          dup1\n          iszero\n          tag_17\n          jumpi\n          returndatasize\n          0x00\n          dup1\n          returndatacopy\n          revert(0x00, returndatasize)\n        tag_17:\n          pop\n          pop\n          pop\n          pop\n          mload(0x40)\n          returndatasize\n          0x00\n          dup3\n          returndatacopy\n          0x1f\n          returndatasize\n          swap1\n          dup2\n          add\n          not(0x1f)\n          and\n          dup3\n          add\n          0x40\n          mstore\n          tag_18\n          swap2\n          swap1\n          dup2\n          add\n          swap1\n          tag_19\n          jump\t// in\n        tag_18:\n          pop\n          pop\n          pop\n          pop\n          sub(shl(0xa0, 0x01), 0x01)\n            /* \"Lock.sol\":24266:24315  pancakeProfile = IPancakeProfile(_pancakeProfile) */\n          swap4\n          swap1\n          swap4\n          and\n          0xa0\n          mstore\n            /* \"Lock.sol\":24371:24396  pancakeProfileIsRequested */\n          0x09\n            /* \"Lock.sol\":24371:24425  pancakeProfileIsRequested = _pancakeProfileIsRequested */\n          dup1\n          sload\n          not(0xff)\n          and\n          swap3\n          iszero\n          iszero\n          swap3\n          swap1\n          swap3\n          or\n          swap1\n          swap2\n          sstore\n            /* \"Lock.sol\":24518:24547  pancakeProfileThresholdPoints */\n          0x0a\n            /* \"Lock.sol\":24518:24580  pancakeProfileThresholdPoints = _pancakeProfileThresholdPoints */\n          sstore\n          pop\n            /* \"Lock.sol\":21455:35733  contract SmartChefInitializable is Ownable, ReentrancyGuard {... */\n          jump(tag_26)\n            /* \"Lock.sol\":5751:5924  function _setOwner(address newOwner) private {... */\n        tag_11:\n            /* \"Lock.sol\":5807:5823  address oldOwner */\n          0x00\n            /* \"Lock.sol\":5826:5832  _owner */\n          dup1\n          sload\n          sub(shl(0xa0, 0x01), 0x01)\n            /* \"Lock.sol\":5843:5860  _owner = newOwner */\n          dup4\n          dup2\n          and\n          not(sub(shl(0xa0, 0x01), 0x01))\n          dup4\n          and\n          dup2\n          or\n          dup5\n          sstore\n            /* \"Lock.sol\":5876:5916  OwnershipTransferred(oldOwner, newOwner) */\n          mload(0x40)\n            /* \"Lock.sol\":5826:5832  _owner */\n          swap2\n          swap1\n          swap3\n          and\n          swap3\n          dup4\n          swap2\n            /* \"Lock.sol\":5876:5916  OwnershipTransferred(oldOwner, newOwner) */\n          0x8be0079c531659141344cd1fd0a4f28419497f9722a3daafe3b4186f6b6457e0\n          swap2\n            /* \"Lock.sol\":5807:5823  address oldOwner */\n          swap1\n            /* \"Lock.sol\":5876:5916  OwnershipTransferred(oldOwner, newOwner) */\n          log3\n            /* \"Lock.sol\":5796:5924  {... */\n          pop\n            /* \"Lock.sol\":5751:5924  function _setOwner(address newOwner) private {... */\n          pop\n          jump\t// out\n            /* \"#utility.yul\":14:178   */\n        tag_23:\n            /* \"#utility.yul\":90:103   */\n          dup1\n          mload\n            /* \"#utility.yul\":139:152   */\n          dup1\n          iszero\n            /* \"#utility.yul\":132:153   */\n          iszero\n            /* \"#utility.yul\":122:154   */\n          dup2\n          eq\n            /* \"#utility.yul\":112:172   */\n          tag_28\n          jumpi\n            /* \"#utility.yul\":168:169   */\n          0x00\n            /* \"#utility.yul\":165:166   */\n          dup1\n            /* \"#utility.yul\":158:170   */\n          revert\n            /* \"#utility.yul\":112:172   */\n        tag_28:\n            /* \"#utility.yul\":14:178   */\n          swap2\n          swap1\n          pop\n          jump\t// out\n            /* \"#utility.yul\":183:613   */\n        tag_3:\n            /* \"#utility.yul\":268:274   */\n          0x00\n            /* \"#utility.yul\":276:282   */\n          dup1\n            /* \"#utility.yul\":284:290   */\n          0x00\n            /* \"#utility.yul\":337:339   */\n          0x60\n            /* \"#utility.yul\":325:334   */\n          dup5\n            /* \"#utility.yul\":316:323   */\n          dup7\n            /* \"#utility.yul\":312:335   */\n          sub\n            /* \"#utility.yul\":308:340   */\n          slt\n            /* \"#utility.yul\":305:357   */\n          iszero\n          tag_30\n          jumpi\n            /* \"#utility.yul\":353:354   */\n          0x00\n            /* \"#utility.yul\":350:351   */\n          dup1\n            /* \"#utility.yul\":343:355   */\n          revert\n            /* \"#utility.yul\":305:357   */\n        tag_30:\n            /* \"#utility.yul\":379:395   */\n          dup4\n          mload\n          sub(shl(0xa0, 0x01), 0x01)\n            /* \"#utility.yul\":424:455   */\n          dup2\n          and\n            /* \"#utility.yul\":414:456   */\n          dup2\n          eq\n            /* \"#utility.yul\":404:474   */\n          tag_31\n          jumpi\n            /* \"#utility.yul\":470:471   */\n          0x00\n            /* \"#utility.yul\":467:468   */\n          dup1\n            /* \"#utility.yul\":460:472   */\n          revert\n            /* \"#utility.yul\":404:474   */\n        tag_31:\n            /* \"#utility.yul\":493:498   */\n          swap3\n          pop\n            /* \"#utility.yul\":517:563   */\n          tag_32\n            /* \"#utility.yul\":559:561   */\n          0x20\n            /* \"#utility.yul\":544:562   */\n          dup6\n          add\n            /* \"#utility.yul\":517:563   */\n          tag_23\n          jump\t// in\n        tag_32:\n            /* \"#utility.yul\":507:563   */\n          swap2\n          pop\n            /* \"#utility.yul\":603:605   */\n          0x40\n            /* \"#utility.yul\":592:601   */\n          dup5\n            /* \"#utility.yul\":588:606   */\n          add\n            /* \"#utility.yul\":582:607   */\n          mload\n            /* \"#utility.yul\":572:607   */\n          swap1\n          pop\n            /* \"#utility.yul\":183:613   */\n          swap3\n          pop\n          swap3\n          pop\n          swap3\n          jump\t// out\n            /* \"#utility.yul\":808:935   */\n        tag_24:\n            /* \"#utility.yul\":869:879   */\n          0x4e487b71\n            /* \"#utility.yul\":864:867   */\n          0xe0\n            /* \"#utility.yul\":860:880   */\n          shl\n            /* \"#utility.yul\":857:858   */\n          0x00\n            /* \"#utility.yul\":850:881   */\n          mstore\n            /* \"#utility.yul\":900:904   */\n          0x41\n            /* \"#utility.yul\":897:898   */\n          0x04\n            /* \"#utility.yul\":890:905   */\n          mstore\n            /* \"#utility.yul\":924:928   */\n          0x24\n            /* \"#utility.yul\":921:922   */\n          0x00\n            /* \"#utility.yul\":914:929   */\n          revert\n            /* \"#utility.yul\":940:1780   */\n        tag_25:\n            /* \"#utility.yul\":994:999   */\n          0x00\n            /* \"#utility.yul\":1047:1050   */\n          dup3\n            /* \"#utility.yul\":1040:1044   */\n          0x1f\n            /* \"#utility.yul\":1032:1038   */\n          dup4\n            /* \"#utility.yul\":1028:1045   */\n          add\n            /* \"#utility.yul\":1024:1051   */\n          slt\n            /* \"#utility.yul\":1014:1069   */\n          tag_36\n          jumpi\n            /* \"#utility.yul\":1065:1066   */\n          0x00\n            /* \"#utility.yul\":1062:1063   */\n          dup1\n            /* \"#utility.yul\":1055:1067   */\n          revert\n            /* \"#utility.yul\":1014:1069   */\n        tag_36:\n            /* \"#utility.yul\":1088:1101   */\n          dup2\n          mload\n          sub(shl(0x40, 0x01), 0x01)\n            /* \"#utility.yul\":1150:1160   */\n          dup1\n          dup3\n          gt\n            /* \"#utility.yul\":1147:1183   */\n          iszero\n          tag_38\n          jumpi\n            /* \"#utility.yul\":1163:1181   */\n          tag_38\n          tag_24\n          jump\t// in\n        tag_38:\n            /* \"#utility.yul\":1238:1240   */\n          0x40\n            /* \"#utility.yul\":1232:1241   */\n          mload\n            /* \"#utility.yul\":1206:1208   */\n          0x1f\n            /* \"#utility.yul\":1292:1305   */\n          dup4\n          add\n          not(0x1f)\n            /* \"#utility.yul\":1288:1310   */\n          swap1\n          dup2\n          and\n            /* \"#utility.yul\":1312:1314   */\n          0x3f\n            /* \"#utility.yul\":1284:1315   */\n          add\n            /* \"#utility.yul\":1280:1320   */\n          and\n            /* \"#utility.yul\":1268:1321   */\n          dup2\n          add\n          swap1\n            /* \"#utility.yul\":1336:1354   */\n          dup3\n          dup3\n          gt\n            /* \"#utility.yul\":1356:1378   */\n          dup2\n          dup4\n          lt\n            /* \"#utility.yul\":1333:1379   */\n          or\n            /* \"#utility.yul\":1330:1402   */\n          iszero\n          tag_40\n          jumpi\n            /* \"#utility.yul\":1382:1400   */\n          tag_40\n          tag_24\n          jump\t// in\n        tag_40:\n            /* \"#utility.yul\":1422:1432   */\n          dup2\n            /* \"#utility.yul\":1418:1420   */\n          0x40\n            /* \"#utility.yul\":1411:1433   */\n          mstore\n            /* \"#utility.yul\":1457:1459   */\n          dup4\n            /* \"#utility.yul\":1449:1455   */\n          dup2\n            /* \"#utility.yul\":1442:1460   */\n          mstore\n            /* \"#utility.yul\":1479:1483   */\n          0x20\n            /* \"#utility.yul\":1469:1483   */\n          swap3\n          pop\n            /* \"#utility.yul\":1524:1527   */\n          dup7\n            /* \"#utility.yul\":1519:1521   */\n          dup4\n            /* \"#utility.yul\":1514:1516   */\n          dup6\n            /* \"#utility.yul\":1506:1512   */\n          dup9\n            /* \"#utility.yul\":1502:1517   */\n          add\n            /* \"#utility.yul\":1498:1522   */\n          add\n            /* \"#utility.yul\":1495:1528   */\n          gt\n            /* \"#utility.yul\":1492:1545   */\n          iszero\n          tag_41\n          jumpi\n            /* \"#utility.yul\":1541:1542   */\n          0x00\n            /* \"#utility.yul\":1538:1539   */\n          dup1\n            /* \"#utility.yul\":1531:1543   */\n          revert\n            /* \"#utility.yul\":1492:1545   */\n        tag_41:\n            /* \"#utility.yul\":1563:1564   */\n          0x00\n            /* \"#utility.yul\":1554:1564   */\n          swap2\n          pop\n            /* \"#utility.yul\":1573:1706   */\n        tag_42:\n            /* \"#utility.yul\":1587:1589   */\n          dup4\n            /* \"#utility.yul\":1584:1585   */\n          dup3\n            /* \"#utility.yul\":1581:1590   */\n          lt\n            /* \"#utility.yul\":1573:1706   */\n          iszero\n          tag_44\n          jumpi\n            /* \"#utility.yul\":1675:1689   */\n          dup6\n          dup3\n          add\n            /* \"#utility.yul\":1671:1694   */\n          dup4\n          add\n            /* \"#utility.yul\":1665:1695   */\n          mload\n            /* \"#utility.yul\":1644:1658   */\n          dup2\n          dup4\n          add\n            /* \"#utility.yul\":1640:1663   */\n          dup5\n          add\n            /* \"#utility.yul\":1633:1696   */\n          mstore\n            /* \"#utility.yul\":1598:1608   */\n          swap1\n          dup3\n          add\n          swap1\n            /* \"#utility.yul\":1573:1706   */\n          jump(tag_42)\n        tag_44:\n            /* \"#utility.yul\":1748:1749   */\n          0x00\n            /* \"#utility.yul\":1726:1741   */\n          swap4\n          dup2\n          add\n            /* \"#utility.yul\":1722:1746   */\n          swap1\n          swap3\n          add\n            /* \"#utility.yul\":1715:1750   */\n          swap3\n          swap1\n          swap3\n          mstore\n            /* \"#utility.yul\":1730:1736   */\n          swap5\n            /* \"#utility.yul\":940:1780   */\n          swap4\n          pop\n          pop\n          pop\n          pop\n          jump\t// out\n            /* \"#utility.yul\":1785:2550   */\n        tag_19:\n            /* \"#utility.yul\":1908:1914   */\n          0x00\n            /* \"#utility.yul\":1916:1922   */\n          dup1\n            /* \"#utility.yul\":1924:1930   */\n          0x00\n            /* \"#utility.yul\":1932:1938   */\n          dup1\n            /* \"#utility.yul\":1940:1946   */\n          0x00\n            /* \"#utility.yul\":1993:1996   */\n          0xa0\n            /* \"#utility.yul\":1981:1990   */\n          dup7\n            /* \"#utility.yul\":1972:1979   */\n          dup9\n            /* \"#utility.yul\":1968:1991   */\n          sub\n            /* \"#utility.yul\":1964:1997   */\n          slt\n            /* \"#utility.yul\":1961:2014   */\n          iszero\n          tag_46\n          jumpi\n            /* \"#utility.yul\":2010:2011   */\n          0x00\n            /* \"#utility.yul\":2007:2008   */\n          dup1\n            /* \"#utility.yul\":2000:2012   */\n          revert\n            /* \"#utility.yul\":1961:2014   */\n        tag_46:\n            /* \"#utility.yul\":2037:2053   */\n          dup6\n          mload\n          sub(shl(0x40, 0x01), 0x01)\n            /* \"#utility.yul\":2102:2116   */\n          dup1\n          dup3\n          gt\n            /* \"#utility.yul\":2099:2133   */\n          iszero\n          tag_47\n          jumpi\n            /* \"#utility.yul\":2129:2130   */\n          0x00\n            /* \"#utility.yul\":2126:2127   */\n          dup1\n            /* \"#utility.yul\":2119:2131   */\n          revert\n            /* \"#utility.yul\":2099:2133   */\n        tag_47:\n            /* \"#utility.yul\":2152:2213   */\n          tag_48\n            /* \"#utility.yul\":2205:2212   */\n          dup10\n            /* \"#utility.yul\":2196:2202   */\n          dup4\n            /* \"#utility.yul\":2185:2194   */\n          dup11\n            /* \"#utility.yul\":2181:2203   */\n          add\n            /* \"#utility.yul\":2152:2213   */\n          tag_25\n          jump\t// in\n        tag_48:\n            /* \"#utility.yul\":2142:2213   */\n          swap7\n          pop\n            /* \"#utility.yul\":2259:2261   */\n          0x20\n            /* \"#utility.yul\":2248:2257   */\n          dup9\n            /* \"#utility.yul\":2244:2262   */\n          add\n            /* \"#utility.yul\":2238:2263   */\n          mload\n            /* \"#utility.yul\":2222:2263   */\n          swap2\n          pop\n            /* \"#utility.yul\":2288:2290   */\n          dup1\n            /* \"#utility.yul\":2278:2286   */\n          dup3\n            /* \"#utility.yul\":2275:2291   */\n          gt\n            /* \"#utility.yul\":2272:2308   */\n          iszero\n          tag_49\n          jumpi\n            /* \"#utility.yul\":2304:2305   */\n          0x00\n            /* \"#utility.yul\":2301:2302   */\n          dup1\n            /* \"#utility.yul\":2294:2306   */\n          revert\n            /* \"#utility.yul\":2272:2308   */\n        tag_49:\n          pop\n            /* \"#utility.yul\":2327:2390   */\n          tag_50\n            /* \"#utility.yul\":2382:2389   */\n          dup9\n            /* \"#utility.yul\":2371:2379   */\n          dup3\n            /* \"#utility.yul\":2360:2369   */\n          dup10\n            /* \"#utility.yul\":2356:2380   */\n          add\n            /* \"#utility.yul\":2327:2390   */\n          tag_25\n          jump\t// in\n        tag_50:\n            /* \"#utility.yul\":2317:2390   */\n          swap5\n          pop\n          pop\n            /* \"#utility.yul\":2430:2432   */\n          0x40\n            /* \"#utility.yul\":2419:2428   */\n          dup7\n            /* \"#utility.yul\":2415:2433   */\n          add\n            /* \"#utility.yul\":2409:2434   */\n          mload\n            /* \"#utility.yul\":2399:2434   */\n          swap3\n          pop\n            /* \"#utility.yul\":2474:2476   */\n          0x60\n            /* \"#utility.yul\":2463:2472   */\n          dup7\n            /* \"#utility.yul\":2459:2477   */\n          add\n            /* \"#utility.yul\":2453:2478   */\n          mload\n            /* \"#utility.yul\":2443:2478   */\n          swap2\n          pop\n            /* \"#utility.yul\":2497:2544   */\n          tag_51\n            /* \"#utility.yul\":2539:2542   */\n          0x80\n            /* \"#utility.yul\":2528:2537   */\n          dup8\n            /* \"#utility.yul\":2524:2543   */\n          add\n            /* \"#utility.yul\":2497:2544   */\n          tag_23\n          jump\t// in\n        tag_51:\n            /* \"#utility.yul\":2487:2544   */\n          swap1\n          pop\n            /* \"#utility.yul\":1785:2550   */\n          swap3\n          swap6\n          pop\n          swap3\n          swap6\n          swap1\n          swap4\n          pop\n          jump\t// out\n        tag_26:\n            /* \"Lock.sol\":21455:35733  contract SmartChefInitializable is Ownable, ReentrancyGuard {... */\n          mload(0x80)\n          mload(0xa0)\n          codecopy(0x00, dataOffset(sub_0), dataSize(sub_0))\n          0x00\n          assignImmutable(\"0x2d1d4c297109e684b5dd49024b3dae75e2c67e9cb1e22aef0feb556356c54e23\")\n          0x00\n          assignImmutable(\"0xdff167ddfa3189a3e9389ac75b945e17c7959b64870603a7f04a55d1519d28e2\")\n          return(0x00, dataSize(sub_0))\n        stop\n\n        sub_0: assembly {\n                /* \"Lock.sol\":21455:35733  contract SmartChefInitializable is Ownable, ReentrancyGuard {... */\n              mstore(0x40, 0x80)\n              callvalue\n              dup1\n              iszero\n              tag_1\n              jumpi\n              0x00\n              dup1\n              revert\n            tag_1:\n              pop\n              jumpi(tag_2, lt(calldatasize, 0x04))\n              shr(0xe0, calldataload(0x00))\n              dup1\n              0x8ae39cac\n              gt\n              tag_36\n              jumpi\n              dup1\n              0xb6b55f25\n              gt\n              tag_37\n              jumpi\n              dup1\n              0xccd34cd5\n              gt\n              tag_38\n              jumpi\n              dup1\n              0xccd34cd5\n              eq\n              tag_31\n              jumpi\n              dup1\n              0xdb2e21bc\n              eq\n              tag_32\n              jumpi\n              dup1\n              0xf2fde38b\n              eq\n              tag_33\n              jumpi\n              dup1\n              0xf40f0f52\n              eq\n              tag_34\n              jumpi\n              dup1\n              0xf7c618c1\n              eq\n              tag_35\n              jumpi\n              0x00\n              dup1\n              revert\n            tag_38:\n              dup1\n              0xb6b55f25\n              eq\n              tag_27\n              jumpi\n              dup1\n              0xbd617191\n              eq\n              tag_28\n              jumpi\n              dup1\n              0xc7d936ec\n              eq\n              tag_29\n              jumpi\n              dup1\n              0xcc7a262e\n              eq\n              tag_30\n              jumpi\n              0x00\n              dup1\n              revert\n            tag_37:\n              dup1\n              0x9513997f\n              gt\n              tag_39\n              jumpi\n              dup1\n              0x9513997f\n              eq\n              tag_23\n              jumpi\n              dup1\n              0x9be65a60\n              eq\n              tag_24\n              jumpi\n              dup1\n              0xa0b40905\n              eq\n              tag_25\n              jumpi\n              dup1\n              0xa9f8d181\n              eq\n              tag_26\n              jumpi\n              0x00\n              dup1\n              revert\n            tag_39:\n              dup1\n              0x8ae39cac\n              eq\n              tag_19\n              jumpi\n              dup1\n              0x8da5cb5b\n              eq\n              tag_20\n              jumpi\n              dup1\n              0x8f662915\n              eq\n              tag_21\n              jumpi\n              dup1\n              0x92e8990e\n              eq\n              tag_22\n              jumpi\n              0x00\n              dup1\n              revert\n            tag_36:\n              dup1\n              0x48cd4cb1\n              gt\n              tag_40\n              jumpi\n              dup1\n              0x68109631\n              gt\n              tag_41\n              jumpi\n              dup1\n              0x68109631\n              eq\n              tag_15\n              jumpi\n              dup1\n              0x715018a6\n              eq\n              tag_16\n              jumpi\n              dup1\n              0x80dc0672\n              eq\n              tag_17\n              jumpi\n              dup1\n              0x8ad1071b\n              eq\n              tag_18\n              jumpi\n              0x00\n              dup1\n              revert\n            tag_41:\n              dup1\n              0x48cd4cb1\n              eq\n              tag_11\n              jumpi\n              dup1\n              0x4a7c01ec\n              eq\n              tag_12\n              jumpi\n              dup1\n              0x5a0b5f34\n              eq\n              tag_13\n              jumpi\n              dup1\n              0x66fe9f8a\n              eq\n              tag_14\n              jumpi\n              0x00\n              dup1\n              revert\n            tag_40:\n              dup1\n              0x2aa2c381\n              gt\n              tag_42\n              jumpi\n              dup1\n              0x2aa2c381\n              eq\n              tag_7\n              jumpi\n              dup1\n              0x2e1a7d4d\n              eq\n              tag_8\n              jumpi\n              dup1\n              0x3279beab\n              eq\n              tag_9\n              jumpi\n              dup1\n              0x392e53cd\n              eq\n              tag_10\n              jumpi\n              0x00\n              dup1\n              revert\n            tag_42:\n              dup1\n              0x01f8a976\n              eq\n              tag_3\n              jumpi\n              dup1\n              0x0ace6247\n              eq\n              tag_4\n              jumpi\n              dup1\n              0x1959a002\n              eq\n              tag_5\n              jumpi\n              dup1\n              0x1aed6553\n              eq\n              tag_6\n              jumpi\n            tag_2:\n              0x00\n              dup1\n              revert\n                /* \"Lock.sol\":31580:31820  function updateRewardPerBlock(uint256 _rewardPerBlock) external onlyOwner {... */\n            tag_3:\n              tag_43\n              tag_44\n              calldatasize\n              0x04\n              tag_45\n              jump\t// in\n            tag_44:\n              tag_46\n              jump\t// in\n            tag_43:\n              stop\n                /* \"Lock.sol\":22525:22569  uint256 public pancakeProfileThresholdPoints */\n            tag_4:\n              tag_47\n              sload(0x0a)\n              dup2\n              jump\n            tag_47:\n              mload(0x40)\n                /* \"#utility.yul\":345:370   */\n              swap1\n              dup2\n              mstore\n                /* \"#utility.yul\":333:335   */\n              0x20\n                /* \"#utility.yul\":318:336   */\n              add\n                /* \"Lock.sol\":22525:22569  uint256 public pancakeProfileThresholdPoints */\n            tag_49:\n              mload(0x40)\n              dup1\n              swap2\n              sub\n              swap1\n              return\n                /* \"Lock.sol\":22917:22961  mapping(address => UserInfo) public userInfo */\n            tag_5:\n              tag_51\n              tag_52\n              calldatasize\n              0x04\n              tag_53\n              jump\t// in\n            tag_52:\n              mstore(0x20, 0x0f)\n              0x00\n              swap1\n              dup2\n              mstore\n              0x40\n              swap1\n              keccak256\n              dup1\n              sload\n              0x01\n              swap1\n              swap2\n              add\n              sload\n              dup3\n              jump\n            tag_51:\n              0x40\n              dup1\n              mload\n                /* \"#utility.yul\":943:968   */\n              swap3\n              dup4\n              mstore\n                /* \"#utility.yul\":999:1001   */\n              0x20\n                /* \"#utility.yul\":984:1002   */\n              dup4\n              add\n                /* \"#utility.yul\":977:1011   */\n              swap2\n              swap1\n              swap2\n              mstore\n                /* \"#utility.yul\":916:934   */\n              add\n                /* \"Lock.sol\":22917:22961  mapping(address => UserInfo) public userInfo */\n              tag_49\n                /* \"#utility.yul\":769:1017   */\n              jump\n                /* \"Lock.sol\":21922:21950  uint256 public bonusEndBlock */\n            tag_6:\n              tag_47\n              sload(0x04)\n              dup2\n              jump\n                /* \"Lock.sol\":25139:26497  function initialize(... */\n            tag_7:\n              tag_43\n              tag_61\n              calldatasize\n              0x04\n              tag_62\n              jump\t// in\n            tag_61:\n              tag_63\n              jump\t// in\n                /* \"Lock.sol\":28331:29049  function withdraw(uint256 _amount) external nonReentrant {... */\n            tag_8:\n              tag_43\n              tag_65\n              calldatasize\n              0x04\n              tag_45\n              jump\t// in\n            tag_65:\n              tag_66\n              jump\t// in\n                /* \"Lock.sol\":29715:29857  function emergencyRewardWithdraw(uint256 _amount) external onlyOwner {... */\n            tag_9:\n              tag_43\n              tag_68\n              calldatasize\n              0x04\n              tag_45\n              jump\t// in\n            tag_68:\n              tag_69\n              jump\t// in\n                /* \"Lock.sol\":21768:21793  bool public isInitialized */\n            tag_10:\n              sload(0x02)\n              tag_70\n              swap1\n              0x0100\n              swap1\n              div\n              0xff\n              and\n              dup2\n              jump\n            tag_70:\n              mload(0x40)\n                /* \"#utility.yul\":2108:2122   */\n              swap1\n              iszero\n                /* \"#utility.yul\":2101:2123   */\n              iszero\n                /* \"#utility.yul\":2083:2124   */\n              dup2\n              mstore\n                /* \"#utility.yul\":2071:2073   */\n              0x20\n                /* \"#utility.yul\":2056:2074   */\n              add\n                /* \"Lock.sol\":21768:21793  bool public isInitialized */\n              tag_49\n                /* \"#utility.yul\":1943:2130   */\n              jump\n                /* \"Lock.sol\":22009:22034  uint256 public startBlock */\n            tag_11:\n              tag_47\n              sload(0x05)\n              dup2\n              jump\n                /* \"Lock.sol\":21704:21725  bool public userLimit */\n            tag_12:\n              sload(0x02)\n              tag_70\n              swap1\n              0xff\n              and\n              dup2\n              jump\n                /* \"Lock.sol\":22438:22475  bool public pancakeProfileIsRequested */\n            tag_13:\n              sload(0x09)\n              tag_70\n              swap1\n              0xff\n              and\n              dup2\n              jump\n                /* \"Lock.sol\":22166:22197  uint256 public poolLimitPerUser */\n            tag_14:\n              tag_47\n              sload(0x07)\n              dup2\n              jump\n                /* \"Lock.sol\":32946:33348  function updateProfileAndThresholdPointsRequirement(bool _isRequested, uint256 _thresholdPoints) external onlyOwner {... */\n            tag_15:\n              tag_43\n              tag_87\n              calldatasize\n              0x04\n              tag_88\n              jump\t// in\n            tag_87:\n              tag_89\n              jump\t// in\n                /* \"Lock.sol\":5302:5396  function renounceOwnership() public virtual onlyOwner {... */\n            tag_16:\n              tag_43\n              tag_91\n              jump\t// in\n                /* \"Lock.sol\":30654:30742  function stopReward() external onlyOwner {... */\n            tag_17:\n              tag_43\n              tag_93\n              jump\t// in\n                /* \"Lock.sol\":22273:22312  uint256 public numberBlocksForUserLimit */\n            tag_18:\n              tag_47\n              sload(0x08)\n              dup2\n              jump\n                /* \"Lock.sol\":22617:22646  uint256 public rewardPerBlock */\n            tag_19:\n              tag_47\n              sload(0x0b)\n              dup2\n              jump\n                /* \"Lock.sol\":4651:4738  function owner() public view virtual returns (address) {... */\n            tag_20:\n                /* \"Lock.sol\":4697:4704  address */\n              0x00\n                /* \"Lock.sol\":4724:4730  _owner */\n              sload\n              sub(shl(0xa0, 0x01), 0x01)\n              and\n                /* \"Lock.sol\":4651:4738  function owner() public view virtual returns (address) {... */\n            tag_100:\n              mload(0x40)\n              sub(shl(0xa0, 0x01), 0x01)\n                /* \"#utility.yul\":2736:2768   */\n              swap1\n              swap2\n              and\n                /* \"#utility.yul\":2718:2769   */\n              dup2\n              mstore\n                /* \"#utility.yul\":2706:2708   */\n              0x20\n                /* \"#utility.yul\":2691:2709   */\n              add\n                /* \"Lock.sol\":4651:4738  function owner() public view virtual returns (address) {... */\n              tag_49\n                /* \"#utility.yul\":2572:2775   */\n              jump\n                /* \"Lock.sol\":21834:21865  uint256 public accTokenPerShare */\n            tag_21:\n              tag_47\n              sload(0x03)\n              dup2\n              jump\n                /* \"Lock.sol\":35521:35730  function hasUserLimit() public view returns (bool) {... */\n            tag_22:\n              tag_70\n              tag_108\n              jump\t// in\n                /* \"Lock.sol\":32064:32670  function updateStartAndEndBlocks(uint256 _startBlock, uint256 _bonusEndBlock) external onlyOwner {... */\n            tag_23:\n              tag_43\n              tag_111\n              calldatasize\n              0x04\n              tag_112\n              jump\t// in\n            tag_111:\n              tag_113\n              jump\t// in\n                /* \"Lock.sol\":30034:30564  function recoverToken(address _token) external onlyOwner {... */\n            tag_24:\n              tag_43\n              tag_115\n              calldatasize\n              0x04\n              tag_53\n              jump\t// in\n            tag_115:\n              tag_116\n              jump\t// in\n                /* \"Lock.sol\":30965:31425  function updatePoolLimitPerUser(bool _userLimit, uint256 _poolLimitPerUser) external onlyOwner {... */\n            tag_25:\n              tag_43\n              tag_118\n              calldatasize\n              0x04\n              tag_88\n              jump\t// in\n            tag_118:\n              tag_119\n              jump\t// in\n                /* \"Lock.sol\":22092:22122  uint256 public lastRewardBlock */\n            tag_26:\n              tag_47\n              sload(0x06)\n              dup2\n              jump\n                /* \"Lock.sol\":26655:28181  function deposit(uint256 _amount) external nonReentrant {... */\n            tag_27:\n              tag_43\n              tag_124\n              calldatasize\n              0x04\n              tag_45\n              jump\t// in\n            tag_124:\n              tag_125\n              jump\t// in\n                /* \"Lock.sol\":21611:21654  address public immutable SMART_CHEF_FACTORY */\n            tag_28:\n              tag_100\n              immutable(\"0xdff167ddfa3189a3e9389ac75b945e17c7959b64870603a7f04a55d1519d28e2\")\n              dup2\n              jump\n                /* \"Lock.sol\":22345:22392  IPancakeProfile public immutable pancakeProfile */\n            tag_29:\n              tag_100\n              immutable(\"0x2d1d4c297109e684b5dd49024b3dae75e2c67e9cb1e22aef0feb556356c54e23\")\n              dup2\n              jump\n                /* \"Lock.sol\":22816:22849  IERC20Metadata public stakedToken */\n            tag_30:\n              sload(0x0e)\n              tag_100\n              swap1\n              sub(shl(0xa0, 0x01), 0x01)\n              and\n              dup2\n              jump\n                /* \"Lock.sol\":22684:22715  uint256 public PRECISION_FACTOR */\n            tag_31:\n              tag_47\n              sload(0x0c)\n              dup2\n              jump\n                /* \"Lock.sol\":29190:29597  function emergencyWithdraw() external nonReentrant {... */\n            tag_32:\n              tag_43\n              tag_141\n              jump\t// in\n                /* \"Lock.sol\":5551:5743  function transferOwnership(address newOwner) public virtual onlyOwner {... */\n            tag_33:\n              tag_43\n              tag_143\n              calldatasize\n              0x04\n              tag_53\n              jump\t// in\n            tag_143:\n              tag_144\n              jump\t// in\n                /* \"Lock.sol\":33521:34274  function pendingReward(address _user) external view returns (uint256) {... */\n            tag_34:\n              tag_47\n              tag_146\n              calldatasize\n              0x04\n              tag_53\n              jump\t// in\n            tag_146:\n              tag_147\n              jump\t// in\n                /* \"Lock.sol\":22749:22782  IERC20Metadata public rewardToken */\n            tag_35:\n              sload(0x0d)\n              tag_100\n              swap1\n              sub(shl(0xa0, 0x01), 0x01)\n              and\n              dup2\n              jump\n                /* \"Lock.sol\":31580:31820  function updateRewardPerBlock(uint256 _rewardPerBlock) external onlyOwner {... */\n            tag_46:\n                /* \"Lock.sol\":4697:4704  address */\n              0x00\n                /* \"Lock.sol\":4724:4730  _owner */\n              sload\n              sub(shl(0xa0, 0x01), 0x01)\n              and\n                /* \"Lock.sol\":4059:4069  msg.sender */\n              caller\n                /* \"Lock.sol\":4871:4894  owner() == _msgSender() */\n              eq\n                /* \"Lock.sol\":4863:4931  require(owner() == _msgSender(), \"Ownable: caller is not the owner\") */\n              tag_156\n              jumpi\n              mload(0x40)\n              shl(0xe5, 0x461bcd)\n              dup2\n              mstore\n              0x04\n              add\n              tag_157\n              swap1\n              tag_158\n              jump\t// in\n            tag_157:\n              mload(0x40)\n              dup1\n              swap2\n              sub\n              swap1\n              revert\n            tag_156:\n                /* \"Lock.sol\":31688:31698  startBlock */\n              sload(0x05)\n                /* \"Lock.sol\":31673:31685  block.number */\n              number\n                /* \"Lock.sol\":31673:31698  block.number < startBlock */\n              lt\n                /* \"Lock.sol\":31665:31719  require(block.number < startBlock, \"Pool has started\") */\n              tag_160\n              jumpi\n              mload(0x40)\n              shl(0xe5, 0x461bcd)\n              dup2\n              mstore\n                /* \"#utility.yul\":4056:4058   */\n              0x20\n                /* \"Lock.sol\":31665:31719  require(block.number < startBlock, \"Pool has started\") */\n              0x04\n              dup3\n              add\n                /* \"#utility.yul\":4038:4059   */\n              mstore\n                /* \"#utility.yul\":4095:4097   */\n              0x10\n                /* \"#utility.yul\":4075:4093   */\n              0x24\n              dup3\n              add\n                /* \"#utility.yul\":4068:4098   */\n              mstore\n              shl(0x82, 0x141bdbdb081a185cc81cdd185c9d1959)\n                /* \"#utility.yul\":4114:4132   */\n              0x44\n              dup3\n              add\n                /* \"#utility.yul\":4107:4153   */\n              mstore\n                /* \"#utility.yul\":4170:4188   */\n              0x64\n              add\n                /* \"Lock.sol\":31665:31719  require(block.number < startBlock, \"Pool has started\") */\n              tag_157\n                /* \"#utility.yul\":3854:4194   */\n              jump\n                /* \"Lock.sol\":31665:31719  require(block.number < startBlock, \"Pool has started\") */\n            tag_160:\n                /* \"Lock.sol\":31730:31744  rewardPerBlock */\n              0x0b\n                /* \"Lock.sol\":31730:31762  rewardPerBlock = _rewardPerBlock */\n              dup2\n              swap1\n              sstore\n                /* \"Lock.sol\":31778:31812  NewRewardPerBlock(_rewardPerBlock) */\n              mload(0x40)\n                /* \"#utility.yul\":345:370   */\n              dup2\n              dup2\n              mstore\n                /* \"Lock.sol\":31778:31812  NewRewardPerBlock(_rewardPerBlock) */\n              0x0c4d677eef92893ac7ec52faf8140fc6c851ab4736302b4f3a89dfb20696a0df\n              swap1\n                /* \"#utility.yul\":333:335   */\n              0x20\n                /* \"#utility.yul\":318:336   */\n              add\n                /* \"Lock.sol\":31778:31812  NewRewardPerBlock(_rewardPerBlock) */\n              mload(0x40)\n              dup1\n              swap2\n              sub\n              swap1\n              log1\n                /* \"Lock.sol\":31580:31820  function updateRewardPerBlock(uint256 _rewardPerBlock) external onlyOwner {... */\n              pop\n              jump\t// out\n                /* \"Lock.sol\":25139:26497  function initialize(... */\n            tag_63:\n                /* \"Lock.sol\":25473:25486  isInitialized */\n              sload(0x02)\n              0x0100\n              swap1\n              div\n              0xff\n              and\n                /* \"Lock.sol\":25472:25486  !isInitialized */\n              iszero\n                /* \"Lock.sol\":25464:25510  require(!isInitialized, \"Already initialized\") */\n              tag_165\n              jumpi\n              mload(0x40)\n              shl(0xe5, 0x461bcd)\n              dup2\n              mstore\n                /* \"#utility.yul\":4401:4403   */\n              0x20\n                /* \"Lock.sol\":25464:25510  require(!isInitialized, \"Already initialized\") */\n              0x04\n              dup3\n              add\n                /* \"#utility.yul\":4383:4404   */\n              mstore\n                /* \"#utility.yul\":4440:4442   */\n              0x13\n                /* \"#utility.yul\":4420:4438   */\n              0x24\n              dup3\n              add\n                /* \"#utility.yul\":4413:4443   */\n              mstore\n              shl(0x6a, 0x105b1c9958591e481a5b9a5d1a585b1a5e9959)\n                /* \"#utility.yul\":4459:4477   */\n              0x44\n              dup3\n              add\n                /* \"#utility.yul\":4452:4501   */\n              mstore\n                /* \"#utility.yul\":4518:4536   */\n              0x64\n              add\n                /* \"Lock.sol\":25464:25510  require(!isInitialized, \"Already initialized\") */\n              tag_157\n                /* \"#utility.yul\":4199:4542   */\n              jump\n                /* \"Lock.sol\":25464:25510  require(!isInitialized, \"Already initialized\") */\n            tag_165:\n                /* \"Lock.sol\":25529:25539  msg.sender */\n              caller\n              sub(shl(0xa0, 0x01), 0x01)\n                /* \"Lock.sol\":25543:25561  SMART_CHEF_FACTORY */\n              immutable(\"0xdff167ddfa3189a3e9389ac75b945e17c7959b64870603a7f04a55d1519d28e2\")\n                /* \"Lock.sol\":25529:25561  msg.sender == SMART_CHEF_FACTORY */\n              and\n              eq\n                /* \"Lock.sol\":25521:25577  require(msg.sender == SMART_CHEF_FACTORY, \"Not factory\") */\n              tag_168\n              jumpi\n              mload(0x40)\n              shl(0xe5, 0x461bcd)\n              dup2\n              mstore\n                /* \"#utility.yul\":4749:4751   */\n              0x20\n                /* \"Lock.sol\":25521:25577  require(msg.sender == SMART_CHEF_FACTORY, \"Not factory\") */\n              0x04\n              dup3\n              add\n                /* \"#utility.yul\":4731:4752   */\n              mstore\n                /* \"#utility.yul\":4788:4790   */\n              0x0b\n                /* \"#utility.yul\":4768:4786   */\n              0x24\n              dup3\n              add\n                /* \"#utility.yul\":4761:4791   */\n              mstore\n              shl(0xa8, 0x4e6f7420666163746f7279)\n                /* \"#utility.yul\":4807:4825   */\n              0x44\n              dup3\n              add\n                /* \"#utility.yul\":4800:4841   */\n              mstore\n                /* \"#utility.yul\":4858:4876   */\n              0x64\n              add\n                /* \"Lock.sol\":25521:25577  require(msg.sender == SMART_CHEF_FACTORY, \"Not factory\") */\n              tag_157\n                /* \"#utility.yul\":4547:4882   */\n              jump\n                /* \"Lock.sol\":25521:25577  require(msg.sender == SMART_CHEF_FACTORY, \"Not factory\") */\n            tag_168:\n                /* \"Lock.sol\":25633:25646  isInitialized */\n              0x02\n                /* \"Lock.sol\":25633:25653  isInitialized = true */\n              dup1\n              sload\n              not(0xff00)\n              and\n              0x0100\n              or\n              swap1\n              sstore\n                /* \"Lock.sol\":25666:25677  stakedToken */\n              0x0e\n                /* \"Lock.sol\":25666:25692  stakedToken = _stakedToken */\n              dup1\n              sload\n              sub(shl(0xa0, 0x01), 0x01)\n              dup1\n              dup12\n              and\n              not(sub(shl(0xa0, 0x01), 0x01))\n              swap3\n              dup4\n              and\n              or\n              swap1\n              swap3\n              sstore\n                /* \"Lock.sol\":25703:25714  rewardToken */\n              0x0d\n                /* \"Lock.sol\":25703:25729  rewardToken = _rewardToken */\n              dup1\n              sload\n              swap3\n              dup11\n              and\n              swap3\n              swap1\n              swap2\n              and\n              swap2\n              swap1\n              swap2\n              or\n              swap1\n              sstore\n                /* \"Lock.sol\":25740:25754  rewardPerBlock */\n              0x0b\n                /* \"Lock.sol\":25740:25772  rewardPerBlock = _rewardPerBlock */\n              dup7\n              swap1\n              sstore\n                /* \"Lock.sol\":25783:25793  startBlock */\n              0x05\n                /* \"Lock.sol\":25783:25807  startBlock = _startBlock */\n              dup6\n              swap1\n              sstore\n                /* \"Lock.sol\":25818:25831  bonusEndBlock */\n              0x04\n                /* \"Lock.sol\":25818:25848  bonusEndBlock = _bonusEndBlock */\n              dup5\n              swap1\n              sstore\n                /* \"Lock.sol\":25865:25886  _poolLimitPerUser > 0 */\n              dup3\n              iszero\n                /* \"Lock.sol\":25861:26049  if (_poolLimitPerUser > 0) {... */\n              tag_171\n              jumpi\n                /* \"Lock.sol\":25903:25912  userLimit */\n              0x02\n                /* \"Lock.sol\":25903:25919  userLimit = true */\n              dup1\n              sload\n              not(0xff)\n              and\n                /* \"Lock.sol\":25915:25919  true */\n              0x01\n                /* \"Lock.sol\":25903:25919  userLimit = true */\n              or\n              swap1\n              sstore\n                /* \"Lock.sol\":25934:25950  poolLimitPerUser */\n              0x07\n                /* \"Lock.sol\":25934:25970  poolLimitPerUser = _poolLimitPerUser */\n              dup4\n              swap1\n              sstore\n                /* \"Lock.sol\":25985:26009  numberBlocksForUserLimit */\n              0x08\n                /* \"Lock.sol\":25985:26037  numberBlocksForUserLimit = _numberBlocksForUserLimit */\n              dup3\n              swap1\n              sstore\n                /* \"Lock.sol\":25861:26049  if (_poolLimitPerUser > 0) {... */\n            tag_171:\n                /* \"Lock.sol\":26099:26110  rewardToken */\n              sload(0x0d)\n                /* \"Lock.sol\":26099:26121  rewardToken.decimals() */\n              0x40\n              dup1\n              mload\n              shl(0xe0, 0x313ce567)\n              dup2\n              mstore\n              swap1\n              mload\n                /* \"Lock.sol\":26061:26088  uint256 decimalsRewardToken */\n              0x00\n              swap3\n              sub(shl(0xa0, 0x01), 0x01)\n                /* \"Lock.sol\":26099:26110  rewardToken */\n              and\n              swap2\n                /* \"Lock.sol\":26099:26119  rewardToken.decimals */\n              0x313ce567\n              swap2\n                /* \"Lock.sol\":26099:26121  rewardToken.decimals() */\n              0x04\n              dup1\n              dup4\n              add\n              swap3\n              0x20\n              swap3\n              swap2\n              swap1\n              dup3\n              swap1\n              sub\n              add\n              dup2\n                /* \"Lock.sol\":26099:26110  rewardToken */\n              dup7\n                /* \"Lock.sol\":26099:26121  rewardToken.decimals() */\n              gas\n              staticcall\n              iszero\n              dup1\n              iszero\n              tag_173\n              jumpi\n              returndatasize\n              0x00\n              dup1\n              returndatacopy\n              revert(0x00, returndatasize)\n            tag_173:\n              pop\n              pop\n              pop\n              pop\n              mload(0x40)\n              returndatasize\n              not(0x1f)\n              0x1f\n              dup3\n              add\n              and\n              dup3\n              add\n              dup1\n              0x40\n              mstore\n              pop\n              dup2\n              add\n              swap1\n              tag_174\n              swap2\n              swap1\n              tag_175\n              jump\t// in\n            tag_174:\n                /* \"Lock.sol\":26091:26122  uint256(rewardToken.decimals()) */\n              0xff\n              and\n                /* \"Lock.sol\":26061:26122  uint256 decimalsRewardToken = uint256(rewardToken.decimals()) */\n              swap1\n              pop\n                /* \"Lock.sol\":26163:26165  30 */\n              0x1e\n                /* \"Lock.sol\":26141:26160  decimalsRewardToken */\n              dup2\n                /* \"Lock.sol\":26141:26165  decimalsRewardToken < 30 */\n              lt\n                /* \"Lock.sol\":26133:26190  require(decimalsRewardToken < 30, \"Must be less than 30\") */\n              tag_176\n              jumpi\n              mload(0x40)\n              shl(0xe5, 0x461bcd)\n              dup2\n              mstore\n                /* \"#utility.yul\":5367:5369   */\n              0x20\n                /* \"Lock.sol\":26133:26190  require(decimalsRewardToken < 30, \"Must be less than 30\") */\n              0x04\n              dup3\n              add\n                /* \"#utility.yul\":5349:5370   */\n              mstore\n                /* \"#utility.yul\":5406:5408   */\n              0x14\n                /* \"#utility.yul\":5386:5404   */\n              0x24\n              dup3\n              add\n                /* \"#utility.yul\":5379:5409   */\n              mstore\n              shl(0x64, 0x04d757374206265206c657373207468616e20333)\n                /* \"#utility.yul\":5425:5443   */\n              0x44\n              dup3\n              add\n                /* \"#utility.yul\":5418:5468   */\n              mstore\n                /* \"#utility.yul\":5485:5503   */\n              0x64\n              add\n                /* \"Lock.sol\":26133:26190  require(decimalsRewardToken < 30, \"Must be less than 30\") */\n              tag_157\n                /* \"#utility.yul\":5165:5509   */\n              jump\n                /* \"Lock.sol\":26133:26190  require(decimalsRewardToken < 30, \"Must be less than 30\") */\n            tag_176:\n                /* \"Lock.sol\":26235:26268  uint256(30) - decimalsRewardToken */\n              tag_179\n                /* \"Lock.sol\":26249:26268  decimalsRewardToken */\n              dup2\n                /* \"Lock.sol\":26243:26245  30 */\n              0x1e\n                /* \"Lock.sol\":26235:26268  uint256(30) - decimalsRewardToken */\n              tag_180\n              jump\t// in\n            tag_179:\n                /* \"Lock.sol\":26230:26269  10**(uint256(30) - decimalsRewardToken) */\n              tag_181\n              swap1\n                /* \"Lock.sol\":26230:26232  10 */\n              0x0a\n                /* \"Lock.sol\":26230:26269  10**(uint256(30) - decimalsRewardToken) */\n              tag_182\n              jump\t// in\n            tag_181:\n                /* \"Lock.sol\":26203:26219  PRECISION_FACTOR */\n              0x0c\n                /* \"Lock.sol\":26203:26270  PRECISION_FACTOR = uint256(10**(uint256(30) - decimalsRewardToken)) */\n              sstore\n                /* \"Lock.sol\":26355:26365  startBlock */\n              sload(0x05)\n                /* \"Lock.sol\":26337:26352  lastRewardBlock */\n              0x06\n                /* \"Lock.sol\":26337:26365  lastRewardBlock = startBlock */\n              sstore\n                /* \"Lock.sol\":26464:26489  transferOwnership(_admin) */\n              tag_183\n                /* \"Lock.sol\":26482:26488  _admin */\n              dup3\n                /* \"Lock.sol\":26464:26481  transferOwnership */\n              tag_144\n                /* \"Lock.sol\":26464:26489  transferOwnership(_admin) */\n              jump\t// in\n            tag_183:\n                /* \"Lock.sol\":25453:26497  {... */\n              pop\n                /* \"Lock.sol\":25139:26497  function initialize(... */\n              pop\n              pop\n              pop\n              pop\n              pop\n              pop\n              pop\n              pop\n              jump\t// out\n                /* \"Lock.sol\":28331:29049  function withdraw(uint256 _amount) external nonReentrant {... */\n            tag_66:\n                /* \"Lock.sol\":7644:7645  2 */\n              0x02\n                /* \"Lock.sol\":8240:8247  _status */\n              sload(0x01)\n                /* \"Lock.sol\":8240:8259  _status != _ENTERED */\n              sub\n                /* \"Lock.sol\":8232:8295  require(_status != _ENTERED, \"ReentrancyGuard: reentrant call\") */\n              tag_185\n              jumpi\n              mload(0x40)\n              shl(0xe5, 0x461bcd)\n              dup2\n              mstore\n              0x04\n              add\n              tag_157\n              swap1\n              tag_187\n              jump\t// in\n            tag_185:\n                /* \"Lock.sol\":7644:7645  2 */\n              0x02\n                /* \"Lock.sol\":8373:8380  _status */\n              0x01\n                /* \"Lock.sol\":8373:8391  _status = _ENTERED */\n              sstore\n                /* \"Lock.sol\":28432:28442  msg.sender */\n              caller\n                /* \"Lock.sol\":28399:28420  UserInfo storage user */\n              0x00\n                /* \"Lock.sol\":28423:28443  userInfo[msg.sender] */\n              swap1\n              dup2\n              mstore\n                /* \"Lock.sol\":28423:28431  userInfo */\n              0x0f\n                /* \"Lock.sol\":28423:28443  userInfo[msg.sender] */\n              0x20\n              mstore\n              0x40\n              swap1\n              keccak256\n                /* \"Lock.sol\":28462:28473  user.amount */\n              dup1\n              sload\n                /* \"Lock.sol\":28462:28484  user.amount >= _amount */\n              dup3\n              gt\n              iszero\n                /* \"Lock.sol\":28454:28516  require(user.amount >= _amount, \"Amount to withdraw too high\") */\n              tag_189\n              jumpi\n              mload(0x40)\n              shl(0xe5, 0x461bcd)\n              dup2\n              mstore\n                /* \"#utility.yul\":7715:7717   */\n              0x20\n                /* \"Lock.sol\":28454:28516  require(user.amount >= _amount, \"Amount to withdraw too high\") */\n              0x04\n              dup3\n              add\n                /* \"#utility.yul\":7697:7718   */\n              mstore\n                /* \"#utility.yul\":7754:7756   */\n              0x1b\n                /* \"#utility.yul\":7734:7752   */\n              0x24\n              dup3\n              add\n                /* \"#utility.yul\":7727:7757   */\n              mstore\n                /* \"#utility.yul\":7793:7822   */\n              0x416d6f756e7420746f20776974686472617720746f6f20686967680000000000\n                /* \"#utility.yul\":7773:7791   */\n              0x44\n              dup3\n              add\n                /* \"#utility.yul\":7766:7823   */\n              mstore\n                /* \"#utility.yul\":7840:7858   */\n              0x64\n              add\n                /* \"Lock.sol\":28454:28516  require(user.amount >= _amount, \"Amount to withdraw too high\") */\n              tag_157\n                /* \"#utility.yul\":7513:7864   */\n              jump\n                /* \"Lock.sol\":28454:28516  require(user.amount >= _amount, \"Amount to withdraw too high\") */\n            tag_189:\n                /* \"Lock.sol\":28529:28542  _updatePool() */\n              tag_192\n                /* \"Lock.sol\":28529:28540  _updatePool */\n              tag_193\n                /* \"Lock.sol\":28529:28542  _updatePool() */\n              jump\t// in\n            tag_192:\n                /* \"Lock.sol\":28555:28570  uint256 pending */\n              0x00\n                /* \"Lock.sol\":28627:28631  user */\n              dup2\n                /* \"Lock.sol\":28627:28642  user.rewardDebt */\n              0x01\n              add\n              sload\n                /* \"Lock.sol\":28608:28624  PRECISION_FACTOR */\n              sload(0x0c)\n                /* \"Lock.sol\":28588:28604  accTokenPerShare */\n              sload(0x03)\n                /* \"Lock.sol\":28574:28578  user */\n              dup5\n                /* \"Lock.sol\":28574:28585  user.amount */\n              0x00\n              add\n              sload\n                /* \"Lock.sol\":28574:28604  user.amount * accTokenPerShare */\n              tag_194\n              swap2\n              swap1\n              tag_195\n              jump\t// in\n            tag_194:\n                /* \"Lock.sol\":28573:28624  (user.amount * accTokenPerShare) / PRECISION_FACTOR */\n              tag_196\n              swap2\n              swap1\n              tag_197\n              jump\t// in\n            tag_196:\n                /* \"Lock.sol\":28573:28642  (user.amount * accTokenPerShare) / PRECISION_FACTOR - user.rewardDebt */\n              tag_198\n              swap2\n              swap1\n              tag_180\n              jump\t// in\n            tag_198:\n                /* \"Lock.sol\":28555:28642  uint256 pending = (user.amount * accTokenPerShare) / PRECISION_FACTOR - user.rewardDebt */\n              swap1\n              pop\n                /* \"Lock.sol\":28659:28670  _amount > 0 */\n              dup3\n              iszero\n                /* \"Lock.sol\":28655:28803  if (_amount > 0) {... */\n              tag_201\n              jumpi\n                /* \"Lock.sol\":28701:28712  user.amount */\n              dup2\n              sload\n                /* \"Lock.sol\":28701:28722  user.amount - _amount */\n              tag_200\n              swap1\n                /* \"Lock.sol\":28715:28722  _amount */\n              dup5\n              swap1\n                /* \"Lock.sol\":28701:28722  user.amount - _amount */\n              tag_180\n              jump\t// in\n            tag_200:\n                /* \"Lock.sol\":28687:28722  user.amount = user.amount - _amount */\n              dup3\n              sstore\n                /* \"Lock.sol\":28737:28748  stakedToken */\n              sload(0x0e)\n                /* \"Lock.sol\":28737:28791  stakedToken.safeTransfer(address(msg.sender), _amount) */\n              tag_201\n              swap1\n              sub(shl(0xa0, 0x01), 0x01)\n                /* \"Lock.sol\":28737:28748  stakedToken */\n              and\n                /* \"Lock.sol\":28770:28780  msg.sender */\n              caller\n                /* \"Lock.sol\":28783:28790  _amount */\n              dup6\n                /* \"Lock.sol\":28737:28761  stakedToken.safeTransfer */\n              tag_202\n                /* \"Lock.sol\":28737:28791  stakedToken.safeTransfer(address(msg.sender), _amount) */\n              jump\t// in\n            tag_201:\n                /* \"Lock.sol\":28819:28830  pending > 0 */\n              dup1\n              iszero\n                /* \"Lock.sol\":28815:28913  if (pending > 0) {... */\n              tag_204\n              jumpi\n                /* \"Lock.sol\":28847:28858  rewardToken */\n              sload(0x0d)\n                /* \"Lock.sol\":28847:28901  rewardToken.safeTransfer(address(msg.sender), pending) */\n              tag_204\n              swap1\n              sub(shl(0xa0, 0x01), 0x01)\n                /* \"Lock.sol\":28847:28858  rewardToken */\n              and\n                /* \"Lock.sol\":28880:28890  msg.sender */\n              caller\n                /* \"Lock.sol\":28893:28900  pending */\n              dup4\n                /* \"Lock.sol\":28847:28871  rewardToken.safeTransfer */\n              tag_202\n                /* \"Lock.sol\":28847:28901  rewardToken.safeTransfer(address(msg.sender), pending) */\n              jump\t// in\n            tag_204:\n                /* \"Lock.sol\":28978:28994  PRECISION_FACTOR */\n              sload(0x0c)\n                /* \"Lock.sol\":28958:28974  accTokenPerShare */\n              sload(0x03)\n                /* \"Lock.sol\":28944:28955  user.amount */\n              dup4\n              sload\n                /* \"Lock.sol\":28944:28974  user.amount * accTokenPerShare */\n              tag_205\n              swap2\n                /* \"Lock.sol\":28958:28974  accTokenPerShare */\n              swap1\n                /* \"Lock.sol\":28944:28974  user.amount * accTokenPerShare */\n              tag_195\n              jump\t// in\n            tag_205:\n                /* \"Lock.sol\":28943:28994  (user.amount * accTokenPerShare) / PRECISION_FACTOR */\n              tag_206\n              swap2\n              swap1\n              tag_197\n              jump\t// in\n            tag_206:\n                /* \"Lock.sol\":28925:28940  user.rewardDebt */\n              0x01\n              dup4\n              add\n                /* \"Lock.sol\":28925:28994  user.rewardDebt = (user.amount * accTokenPerShare) / PRECISION_FACTOR */\n              sstore\n                /* \"Lock.sol\":29012:29041  Withdraw(msg.sender, _amount) */\n              mload(0x40)\n                /* \"#utility.yul\":345:370   */\n              dup4\n              dup2\n              mstore\n                /* \"Lock.sol\":29021:29031  msg.sender */\n              caller\n              swap1\n                /* \"Lock.sol\":29012:29041  Withdraw(msg.sender, _amount) */\n              0x884edad9ce6fa2440d8a54cc123490eb96d2768479d49ff9c7366125a9424364\n              swap1\n                /* \"#utility.yul\":333:335   */\n              0x20\n                /* \"#utility.yul\":318:336   */\n              add\n                /* \"Lock.sol\":29012:29041  Withdraw(msg.sender, _amount) */\n            tag_207:\n              mload(0x40)\n              dup1\n              swap2\n              sub\n              swap1\n              log2\n              pop\n              pop\n                /* \"Lock.sol\":7600:7601  1 */\n              0x01\n                /* \"Lock.sol\":8552:8574  _status = _NOT_ENTERED */\n              dup1\n              sstore\n              pop\n                /* \"Lock.sol\":28331:29049  function withdraw(uint256 _amount) external nonReentrant {... */\n              jump\t// out\n                /* \"Lock.sol\":29715:29857  function emergencyRewardWithdraw(uint256 _amount) external onlyOwner {... */\n            tag_69:\n                /* \"Lock.sol\":4697:4704  address */\n              0x00\n                /* \"Lock.sol\":4724:4730  _owner */\n              sload\n              sub(shl(0xa0, 0x01), 0x01)\n              and\n                /* \"Lock.sol\":4059:4069  msg.sender */\n              caller\n                /* \"Lock.sol\":4871:4894  owner() == _msgSender() */\n              eq\n                /* \"Lock.sol\":4863:4931  require(owner() == _msgSender(), \"Ownable: caller is not the owner\") */\n              tag_211\n              jumpi\n              mload(0x40)\n              shl(0xe5, 0x461bcd)\n              dup2\n              mstore\n              0x04\n              add\n              tag_157\n              swap1\n              tag_158\n              jump\t// in\n            tag_211:\n                /* \"Lock.sol\":29795:29806  rewardToken */\n              sload(0x0d)\n                /* \"Lock.sol\":29795:29849  rewardToken.safeTransfer(address(msg.sender), _amount) */\n              tag_214\n              swap1\n              sub(shl(0xa0, 0x01), 0x01)\n                /* \"Lock.sol\":29795:29806  rewardToken */\n              and\n                /* \"Lock.sol\":29828:29838  msg.sender */\n              caller\n                /* \"Lock.sol\":29841:29848  _amount */\n              dup4\n                /* \"Lock.sol\":29795:29819  rewardToken.safeTransfer */\n              tag_202\n                /* \"Lock.sol\":29795:29849  rewardToken.safeTransfer(address(msg.sender), _amount) */\n              jump\t// in\n            tag_214:\n                /* \"Lock.sol\":29715:29857  function emergencyRewardWithdraw(uint256 _amount) external onlyOwner {... */\n              pop\n              jump\t// out\n                /* \"Lock.sol\":32946:33348  function updateProfileAndThresholdPointsRequirement(bool _isRequested, uint256 _thresholdPoints) external onlyOwner {... */\n            tag_89:\n                /* \"Lock.sol\":4697:4704  address */\n              0x00\n                /* \"Lock.sol\":4724:4730  _owner */\n              sload\n              sub(shl(0xa0, 0x01), 0x01)\n              and\n                /* \"Lock.sol\":4059:4069  msg.sender */\n              caller\n                /* \"Lock.sol\":4871:4894  owner() == _msgSender() */\n              eq\n                /* \"Lock.sol\":4863:4931  require(owner() == _msgSender(), \"Ownable: caller is not the owner\") */\n              tag_218\n              jumpi\n              mload(0x40)\n              shl(0xe5, 0x461bcd)\n              dup2\n              mstore\n              0x04\n              add\n              tag_157\n              swap1\n              tag_158\n              jump\t// in\n            tag_218:\n                /* \"Lock.sol\":33151:33176  pancakeProfileIsRequested */\n              0x09\n                /* \"Lock.sol\":33151:33191  pancakeProfileIsRequested = _isRequested */\n              dup1\n              sload\n              not(0xff)\n              and\n              dup4\n              iszero\n              iszero\n              swap1\n              dup2\n              or\n              swap1\n              swap2\n              sstore\n                /* \"Lock.sol\":33202:33231  pancakeProfileThresholdPoints */\n              0x0a\n                /* \"Lock.sol\":33202:33250  pancakeProfileThresholdPoints = _thresholdPoints */\n              dup3\n              swap1\n              sstore\n                /* \"Lock.sol\":33266:33340  UpdateProfileAndThresholdPointsRequirement(_isRequested, _thresholdPoints) */\n              0x40\n              dup1\n              mload\n                /* \"#utility.yul\":8834:8875   */\n              swap2\n              dup3\n              mstore\n                /* \"#utility.yul\":8906:8908   */\n              0x20\n                /* \"#utility.yul\":8891:8909   */\n              dup3\n              add\n                /* \"#utility.yul\":8884:8918   */\n              dup4\n              swap1\n              mstore\n                /* \"Lock.sol\":33266:33340  UpdateProfileAndThresholdPointsRequirement(_isRequested, _thresholdPoints) */\n              0x915d08e0e89c58e352d7c1d66c942cb15dac8a7294d2ca80ddf46f1998f0512b\n              swap2\n                /* \"#utility.yul\":8807:8825   */\n              add\n                /* \"Lock.sol\":33266:33340  UpdateProfileAndThresholdPointsRequirement(_isRequested, _thresholdPoints) */\n            tag_224:\n              mload(0x40)\n              dup1\n              swap2\n              sub\n              swap1\n              log1\n                /* \"Lock.sol\":32946:33348  function updateProfileAndThresholdPointsRequirement(bool _isRequested, uint256 _thresholdPoints) external onlyOwner {... */\n              pop\n              pop\n              jump\t// out\n                /* \"Lock.sol\":5302:5396  function renounceOwnership() public virtual onlyOwner {... */\n            tag_91:\n                /* \"Lock.sol\":4697:4704  address */\n              0x00\n                /* \"Lock.sol\":4724:4730  _owner */\n              sload\n              sub(shl(0xa0, 0x01), 0x01)\n              and\n                /* \"Lock.sol\":4059:4069  msg.sender */\n              caller\n                /* \"Lock.sol\":4871:4894  owner() == _msgSender() */\n              eq\n                /* \"Lock.sol\":4863:4931  require(owner() == _msgSender(), \"Ownable: caller is not the owner\") */\n              tag_229\n              jumpi\n              mload(0x40)\n              shl(0xe5, 0x461bcd)\n              dup2\n              mstore\n              0x04\n              add\n              tag_157\n              swap1\n              tag_158\n              jump\t// in\n            tag_229:\n                /* \"Lock.sol\":5367:5388  _setOwner(address(0)) */\n              tag_232\n                /* \"Lock.sol\":5385:5386  0 */\n              0x00\n                /* \"Lock.sol\":5367:5376  _setOwner */\n              tag_233\n                /* \"Lock.sol\":5367:5388  _setOwner(address(0)) */\n              jump\t// in\n            tag_232:\n                /* \"Lock.sol\":5302:5396  function renounceOwnership() public virtual onlyOwner {... */\n              jump\t// out\n                /* \"Lock.sol\":30654:30742  function stopReward() external onlyOwner {... */\n            tag_93:\n                /* \"Lock.sol\":4697:4704  address */\n              0x00\n                /* \"Lock.sol\":4724:4730  _owner */\n              sload\n              sub(shl(0xa0, 0x01), 0x01)\n              and\n                /* \"Lock.sol\":4059:4069  msg.sender */\n              caller\n                /* \"Lock.sol\":4871:4894  owner() == _msgSender() */\n              eq\n                /* \"Lock.sol\":4863:4931  require(owner() == _msgSender(), \"Ownable: caller is not the owner\") */\n              tag_237\n              jumpi\n              mload(0x40)\n              shl(0xe5, 0x461bcd)\n              dup2\n              mstore\n              0x04\n              add\n              tag_157\n              swap1\n              tag_158\n              jump\t// in\n            tag_237:\n                /* \"Lock.sol\":30722:30734  block.number */\n              number\n                /* \"Lock.sol\":30706:30719  bonusEndBlock */\n              0x04\n                /* \"Lock.sol\":30706:30734  bonusEndBlock = block.number */\n              sstore\n                /* \"Lock.sol\":30654:30742  function stopReward() external onlyOwner {... */\n              jump\t// out\n                /* \"Lock.sol\":35521:35730  function hasUserLimit() public view returns (bool) {... */\n            tag_108:\n                /* \"Lock.sol\":35588:35597  userLimit */\n              sload(0x02)\n                /* \"Lock.sol\":35566:35570  bool */\n              0x00\n              swap1\n                /* \"Lock.sol\":35588:35597  userLimit */\n              0xff\n              and\n                /* \"Lock.sol\":35587:35597  !userLimit */\n              iszero\n              dup1\n                /* \"Lock.sol\":35587:35658  !userLimit || (block.number >= (startBlock + numberBlocksForUserLimit)) */\n              tag_242\n              jumpi\n              pop\n                /* \"Lock.sol\":35632:35656  numberBlocksForUserLimit */\n              sload(0x08)\n                /* \"Lock.sol\":35619:35629  startBlock */\n              sload(0x05)\n                /* \"Lock.sol\":35619:35656  startBlock + numberBlocksForUserLimit */\n              tag_243\n              swap2\n              swap1\n              tag_244\n              jump\t// in\n            tag_243:\n                /* \"Lock.sol\":35602:35614  block.number */\n              number\n                /* \"Lock.sol\":35602:35657  block.number >= (startBlock + numberBlocksForUserLimit) */\n              lt\n              iszero\n                /* \"Lock.sol\":35587:35658  !userLimit || (block.number >= (startBlock + numberBlocksForUserLimit)) */\n            tag_242:\n                /* \"Lock.sol\":35583:35699  if (!userLimit || (block.number >= (startBlock + numberBlocksForUserLimit))) {... */\n              iszero\n              tag_245\n              jumpi\n              pop\n                /* \"Lock.sol\":35682:35687  false */\n              0x00\n              swap1\n                /* \"Lock.sol\":35521:35730  function hasUserLimit() public view returns (bool) {... */\n              jump\t// out\n                /* \"Lock.sol\":35583:35699  if (!userLimit || (block.number >= (startBlock + numberBlocksForUserLimit))) {... */\n            tag_245:\n              pop\n                /* \"Lock.sol\":35718:35722  true */\n              0x01\n              swap1\n                /* \"Lock.sol\":35521:35730  function hasUserLimit() public view returns (bool) {... */\n              jump\t// out\n                /* \"Lock.sol\":32064:32670  function updateStartAndEndBlocks(uint256 _startBlock, uint256 _bonusEndBlock) external onlyOwner {... */\n            tag_113:\n                /* \"Lock.sol\":4697:4704  address */\n              0x00\n                /* \"Lock.sol\":4724:4730  _owner */\n              sload\n              sub(shl(0xa0, 0x01), 0x01)\n              and\n                /* \"Lock.sol\":4059:4069  msg.sender */\n              caller\n                /* \"Lock.sol\":4871:4894  owner() == _msgSender() */\n              eq\n                /* \"Lock.sol\":4863:4931  require(owner() == _msgSender(), \"Ownable: caller is not the owner\") */\n              tag_249\n              jumpi\n              mload(0x40)\n              shl(0xe5, 0x461bcd)\n              dup2\n              mstore\n              0x04\n              add\n              tag_157\n              swap1\n              tag_158\n              jump\t// in\n            tag_249:\n                /* \"Lock.sol\":32195:32205  startBlock */\n              sload(0x05)\n                /* \"Lock.sol\":32180:32192  block.number */\n              number\n                /* \"Lock.sol\":32180:32205  block.number < startBlock */\n              lt\n                /* \"Lock.sol\":32172:32226  require(block.number < startBlock, \"Pool has started\") */\n              tag_252\n              jumpi\n              mload(0x40)\n              shl(0xe5, 0x461bcd)\n              dup2\n              mstore\n                /* \"#utility.yul\":4056:4058   */\n              0x20\n                /* \"Lock.sol\":32172:32226  require(block.number < startBlock, \"Pool has started\") */\n              0x04\n              dup3\n              add\n                /* \"#utility.yul\":4038:4059   */\n              mstore\n                /* \"#utility.yul\":4095:4097   */\n              0x10\n                /* \"#utility.yul\":4075:4093   */\n              0x24\n              dup3\n              add\n                /* \"#utility.yul\":4068:4098   */\n              mstore\n              shl(0x82, 0x141bdbdb081a185cc81cdd185c9d1959)\n                /* \"#utility.yul\":4114:4132   */\n              0x44\n              dup3\n              add\n                /* \"#utility.yul\":4107:4153   */\n              mstore\n                /* \"#utility.yul\":4170:4188   */\n              0x64\n              add\n                /* \"Lock.sol\":32172:32226  require(block.number < startBlock, \"Pool has started\") */\n              tag_157\n                /* \"#utility.yul\":3854:4194   */\n              jump\n                /* \"Lock.sol\":32172:32226  require(block.number < startBlock, \"Pool has started\") */\n            tag_252:\n                /* \"Lock.sol\":32259:32273  _bonusEndBlock */\n              dup1\n                /* \"Lock.sol\":32245:32256  _startBlock */\n              dup3\n                /* \"Lock.sol\":32245:32273  _startBlock < _bonusEndBlock */\n              lt\n                /* \"Lock.sol\":32237:32324  require(_startBlock < _bonusEndBlock, \"New startBlock must be lower than new endBlock\") */\n              tag_254\n              jumpi\n              mload(0x40)\n              shl(0xe5, 0x461bcd)\n              dup2\n              mstore\n                /* \"#utility.yul\":9261:9263   */\n              0x20\n                /* \"Lock.sol\":32237:32324  require(_startBlock < _bonusEndBlock, \"New startBlock must be lower than new endBlock\") */\n              0x04\n              dup3\n              add\n                /* \"#utility.yul\":9243:9264   */\n              mstore\n                /* \"#utility.yul\":9300:9302   */\n              0x2e\n                /* \"#utility.yul\":9280:9298   */\n              0x24\n              dup3\n              add\n                /* \"#utility.yul\":9273:9303   */\n              mstore\n                /* \"#utility.yul\":9339:9373   */\n              0x4e6577207374617274426c6f636b206d757374206265206c6f77657220746861\n                /* \"#utility.yul\":9319:9337   */\n              0x44\n              dup3\n              add\n                /* \"#utility.yul\":9312:9374   */\n              mstore\n              shl(0x90, 0x6e206e657720656e64426c6f636b)\n                /* \"#utility.yul\":9390:9408   */\n              0x64\n              dup3\n              add\n                /* \"#utility.yul\":9383:9427   */\n              mstore\n                /* \"#utility.yul\":9444:9463   */\n              0x84\n              add\n                /* \"Lock.sol\":32237:32324  require(_startBlock < _bonusEndBlock, \"New startBlock must be lower than new endBlock\") */\n              tag_157\n                /* \"#utility.yul\":9059:9469   */\n              jump\n                /* \"Lock.sol\":32237:32324  require(_startBlock < _bonusEndBlock, \"New startBlock must be lower than new endBlock\") */\n            tag_254:\n                /* \"Lock.sol\":32358:32369  _startBlock */\n              dup2\n                /* \"Lock.sol\":32343:32355  block.number */\n              number\n                /* \"Lock.sol\":32343:32369  block.number < _startBlock */\n              lt\n                /* \"Lock.sol\":32335:32422  require(block.number < _startBlock, \"New startBlock must be higher than current block\") */\n              tag_257\n              jumpi\n              mload(0x40)\n              shl(0xe5, 0x461bcd)\n              dup2\n              mstore\n                /* \"#utility.yul\":9676:9678   */\n              0x20\n                /* \"Lock.sol\":32335:32422  require(block.number < _startBlock, \"New startBlock must be higher than current block\") */\n              0x04\n              dup3\n              add\n                /* \"#utility.yul\":9658:9679   */\n              mstore\n                /* \"#utility.yul\":9715:9717   */\n              0x30\n                /* \"#utility.yul\":9695:9713   */\n              0x24\n              dup3\n              add\n                /* \"#utility.yul\":9688:9718   */\n              mstore\n                /* \"#utility.yul\":9754:9788   */\n              0x4e6577207374617274426c6f636b206d75737420626520686967686572207468\n                /* \"#utility.yul\":9734:9752   */\n              0x44\n              dup3\n              add\n                /* \"#utility.yul\":9727:9789   */\n              mstore\n              shl(0x80, 0x616e2063757272656e7420626c6f636b)\n                /* \"#utility.yul\":9805:9823   */\n              0x64\n              dup3\n              add\n                /* \"#utility.yul\":9798:9844   */\n              mstore\n                /* \"#utility.yul\":9861:9880   */\n              0x84\n              add\n                /* \"Lock.sol\":32335:32422  require(block.number < _startBlock, \"New startBlock must be higher than current block\") */\n              tag_157\n                /* \"#utility.yul\":9474:9886   */\n              jump\n                /* \"Lock.sol\":32335:32422  require(block.number < _startBlock, \"New startBlock must be higher than current block\") */\n            tag_257:\n                /* \"Lock.sol\":32435:32445  startBlock */\n              0x05\n                /* \"Lock.sol\":32435:32459  startBlock = _startBlock */\n              dup3\n              swap1\n              sstore\n                /* \"Lock.sol\":32470:32483  bonusEndBlock */\n              0x04\n                /* \"Lock.sol\":32470:32500  bonusEndBlock = _bonusEndBlock */\n              dup2\n              swap1\n              sstore\n                /* \"Lock.sol\":32567:32582  lastRewardBlock */\n              0x06\n                /* \"Lock.sol\":32567:32595  lastRewardBlock = startBlock */\n              dup3\n              swap1\n              sstore\n                /* \"Lock.sol\":32613:32662  NewStartAndEndBlocks(_startBlock, _bonusEndBlock) */\n              0x40\n              dup1\n              mload\n                /* \"#utility.yul\":943:968   */\n              dup4\n              dup2\n              mstore\n                /* \"#utility.yul\":999:1001   */\n              0x20\n                /* \"#utility.yul\":984:1002   */\n              dup2\n              add\n                /* \"#utility.yul\":977:1011   */\n              dup4\n              swap1\n              mstore\n                /* \"Lock.sol\":32613:32662  NewStartAndEndBlocks(_startBlock, _bonusEndBlock) */\n              0x7cd0ab87d19036f3dfadadb232c78aa4879dda3f0c994a9d637532410ee2ce06\n              swap2\n                /* \"#utility.yul\":916:934   */\n              add\n                /* \"Lock.sol\":32613:32662  NewStartAndEndBlocks(_startBlock, _bonusEndBlock) */\n              tag_224\n                /* \"#utility.yul\":769:1017   */\n              jump\n                /* \"Lock.sol\":30034:30564  function recoverToken(address _token) external onlyOwner {... */\n            tag_116:\n                /* \"Lock.sol\":4697:4704  address */\n              0x00\n                /* \"Lock.sol\":4724:4730  _owner */\n              sload\n              sub(shl(0xa0, 0x01), 0x01)\n              and\n                /* \"Lock.sol\":4059:4069  msg.sender */\n              caller\n                /* \"Lock.sol\":4871:4894  owner() == _msgSender() */\n              eq\n                /* \"Lock.sol\":4863:4931  require(owner() == _msgSender(), \"Ownable: caller is not the owner\") */\n              tag_264\n              jumpi\n              mload(0x40)\n              shl(0xe5, 0x461bcd)\n              dup2\n              mstore\n              0x04\n              add\n              tag_157\n              swap1\n              tag_158\n              jump\t// in\n            tag_264:\n                /* \"Lock.sol\":30128:30139  stakedToken */\n              sload(0x0e)\n              sub(shl(0xa0, 0x01), 0x01)\n              swap1\n              dup2\n              and\n                /* \"Lock.sol\":30110:30140  _token != address(stakedToken) */\n              swap1\n              dup3\n              and\n              sub\n                /* \"Lock.sol\":30102:30184  require(_token != address(stakedToken), \"Operations: Cannot recover staked token\") */\n              tag_267\n              jumpi\n              mload(0x40)\n              shl(0xe5, 0x461bcd)\n              dup2\n              mstore\n                /* \"#utility.yul\":10093:10095   */\n              0x20\n                /* \"Lock.sol\":30102:30184  require(_token != address(stakedToken), \"Operations: Cannot recover staked token\") */\n              0x04\n              dup3\n              add\n                /* \"#utility.yul\":10075:10096   */\n              mstore\n                /* \"#utility.yul\":10132:10134   */\n              0x27\n                /* \"#utility.yul\":10112:10130   */\n              0x24\n              dup3\n              add\n                /* \"#utility.yul\":10105:10135   */\n              mstore\n                /* \"#utility.yul\":10171:10205   */\n              0x4f7065726174696f6e733a2043616e6e6f74207265636f766572207374616b65\n                /* \"#utility.yul\":10151:10169   */\n              0x44\n              dup3\n              add\n                /* \"#utility.yul\":10144:10206   */\n              mstore\n              shl(0xc9, 0x32103a37b5b2b7)\n                /* \"#utility.yul\":10222:10240   */\n              0x64\n              dup3\n              add\n                /* \"#utility.yul\":10215:10252   */\n              mstore\n                /* \"#utility.yul\":10269:10288   */\n              0x84\n              add\n                /* \"Lock.sol\":30102:30184  require(_token != address(stakedToken), \"Operations: Cannot recover staked token\") */\n              tag_157\n                /* \"#utility.yul\":9891:10294   */\n              jump\n                /* \"Lock.sol\":30102:30184  require(_token != address(stakedToken), \"Operations: Cannot recover staked token\") */\n            tag_267:\n                /* \"Lock.sol\":30221:30232  rewardToken */\n              sload(0x0d)\n              sub(shl(0xa0, 0x01), 0x01)\n              swap1\n              dup2\n              and\n                /* \"Lock.sol\":30203:30233  _token != address(rewardToken) */\n              swap1\n              dup3\n              and\n              sub\n                /* \"Lock.sol\":30195:30277  require(_token != address(rewardToken), \"Operations: Cannot recover reward token\") */\n              tag_270\n              jumpi\n              mload(0x40)\n              shl(0xe5, 0x461bcd)\n              dup2\n              mstore\n                /* \"#utility.yul\":10501:10503   */\n              0x20\n                /* \"Lock.sol\":30195:30277  require(_token != address(rewardToken), \"Operations: Cannot recover reward token\") */\n              0x04\n              dup3\n              add\n                /* \"#utility.yul\":10483:10504   */\n              mstore\n                /* \"#utility.yul\":10540:10542   */\n              0x27\n                /* \"#utility.yul\":10520:10538   */\n              0x24\n              dup3\n              add\n                /* \"#utility.yul\":10513:10543   */\n              mstore\n                /* \"#utility.yul\":10579:10613   */\n              0x4f7065726174696f6e733a2043616e6e6f74207265636f766572207265776172\n                /* \"#utility.yul\":10559:10577   */\n              0x44\n              dup3\n              add\n                /* \"#utility.yul\":10552:10614   */\n              mstore\n              shl(0xc9, 0x32103a37b5b2b7)\n                /* \"#utility.yul\":10630:10648   */\n              0x64\n              dup3\n              add\n                /* \"#utility.yul\":10623:10660   */\n              mstore\n                /* \"#utility.yul\":10677:10696   */\n              0x84\n              add\n                /* \"Lock.sol\":30195:30277  require(_token != address(rewardToken), \"Operations: Cannot recover reward token\") */\n              tag_157\n                /* \"#utility.yul\":10299:10702   */\n              jump\n                /* \"Lock.sol\":30195:30277  require(_token != address(rewardToken), \"Operations: Cannot recover reward token\") */\n            tag_270:\n                /* \"Lock.sol\":30308:30355  IERC20Metadata(_token).balanceOf(address(this)) */\n              mload(0x40)\n              shl(0xe0, 0x70a08231)\n              dup2\n              mstore\n                /* \"Lock.sol\":30349:30353  this */\n              address\n                /* \"Lock.sol\":30308:30355  IERC20Metadata(_token).balanceOf(address(this)) */\n              0x04\n              dup3\n              add\n                /* \"#utility.yul\":2718:2769   */\n              mstore\n                /* \"Lock.sol\":30290:30305  uint256 balance */\n              0x00\n              swap1\n              sub(shl(0xa0, 0x01), 0x01)\n                /* \"Lock.sol\":30308:30340  IERC20Metadata(_token).balanceOf */\n              dup4\n              and\n              swap1\n              0x70a08231\n              swap1\n                /* \"#utility.yul\":2691:2709   */\n              0x24\n              add\n                /* \"Lock.sol\":30308:30355  IERC20Metadata(_token).balanceOf(address(this)) */\n              0x20\n              mload(0x40)\n              dup1\n              dup4\n              sub\n              dup2\n              dup7\n              gas\n              staticcall\n              iszero\n              dup1\n              iszero\n              tag_275\n              jumpi\n              returndatasize\n              0x00\n              dup1\n              returndatacopy\n              revert(0x00, returndatasize)\n            tag_275:\n              pop\n              pop\n              pop\n              pop\n              mload(0x40)\n              returndatasize\n              not(0x1f)\n              0x1f\n              dup3\n              add\n              and\n              dup3\n              add\n              dup1\n              0x40\n              mstore\n              pop\n              dup2\n              add\n              swap1\n              tag_276\n              swap2\n              swap1\n              tag_277\n              jump\t// in\n            tag_276:\n                /* \"Lock.sol\":30290:30355  uint256 balance = IERC20Metadata(_token).balanceOf(address(this)) */\n              swap1\n              pop\n                /* \"Lock.sol\":30374:30381  balance */\n              dup1\n                /* \"Lock.sol\":30385:30386  0 */\n              0x00\n                /* \"Lock.sol\":30374:30386  balance != 0 */\n              sub\n                /* \"Lock.sol\":30366:30430  require(balance != 0, \"Operations: Cannot recover zero balance\") */\n              tag_278\n              jumpi\n              mload(0x40)\n              shl(0xe5, 0x461bcd)\n              dup2\n              mstore\n                /* \"#utility.yul\":11098:11100   */\n              0x20\n                /* \"Lock.sol\":30366:30430  require(balance != 0, \"Operations: Cannot recover zero balance\") */\n              0x04\n              dup3\n              add\n                /* \"#utility.yul\":11080:11101   */\n              mstore\n                /* \"#utility.yul\":11137:11139   */\n              0x27\n                /* \"#utility.yul\":11117:11135   */\n              0x24\n              dup3\n              add\n                /* \"#utility.yul\":11110:11140   */\n              mstore\n                /* \"#utility.yul\":11176:11210   */\n              0x4f7065726174696f6e733a2043616e6e6f74207265636f766572207a65726f20\n                /* \"#utility.yul\":11156:11174   */\n              0x44\n              dup3\n              add\n                /* \"#utility.yul\":11149:11211   */\n              mstore\n              shl(0xc8, 0x62616c616e6365)\n                /* \"#utility.yul\":11227:11245   */\n              0x64\n              dup3\n              add\n                /* \"#utility.yul\":11220:11257   */\n              mstore\n                /* \"#utility.yul\":11274:11293   */\n              0x84\n              add\n                /* \"Lock.sol\":30366:30430  require(balance != 0, \"Operations: Cannot recover zero balance\") */\n              tag_157\n                /* \"#utility.yul\":10896:11299   */\n              jump\n                /* \"Lock.sol\":30366:30430  require(balance != 0, \"Operations: Cannot recover zero balance\") */\n            tag_278:\n                /* \"Lock.sol\":30443:30508  IERC20Metadata(_token).safeTransfer(address(msg.sender), balance) */\n              tag_281\n              sub(shl(0xa0, 0x01), 0x01)\n                /* \"Lock.sol\":30443:30478  IERC20Metadata(_token).safeTransfer */\n              dup4\n              and\n                /* \"Lock.sol\":30487:30497  msg.sender */\n              caller\n                /* \"Lock.sol\":30500:30507  balance */\n              dup4\n                /* \"Lock.sol\":30443:30478  IERC20Metadata(_token).safeTransfer */\n              tag_202\n                /* \"Lock.sol\":30443:30508  IERC20Metadata(_token).safeTransfer(address(msg.sender), balance) */\n              jump\t// in\n            tag_281:\n                /* \"Lock.sol\":30540:30546  _token */\n              dup2\n              sub(shl(0xa0, 0x01), 0x01)\n                /* \"Lock.sol\":30526:30556  TokenRecovery(_token, balance) */\n              and\n              0x14f11966a996e0629572e51064726d2057a80fbd34efc066682c06a71dbb6e98\n                /* \"Lock.sol\":30548:30555  balance */\n              dup3\n                /* \"Lock.sol\":30526:30556  TokenRecovery(_token, balance) */\n              mload(0x40)\n              tag_282\n              swap2\n                /* \"#utility.yul\":345:370   */\n              dup2\n              mstore\n                /* \"#utility.yul\":333:335   */\n              0x20\n                /* \"#utility.yul\":318:336   */\n              add\n              swap1\n                /* \"#utility.yul\":199:376   */\n              jump\n                /* \"Lock.sol\":30526:30556  TokenRecovery(_token, balance) */\n            tag_282:\n              mload(0x40)\n              dup1\n              swap2\n              sub\n              swap1\n              log2\n                /* \"Lock.sol\":30091:30564  {... */\n              pop\n                /* \"Lock.sol\":30034:30564  function recoverToken(address _token) external onlyOwner {... */\n              pop\n              jump\t// out\n                /* \"Lock.sol\":30965:31425  function updatePoolLimitPerUser(bool _userLimit, uint256 _poolLimitPerUser) external onlyOwner {... */\n            tag_119:\n                /* \"Lock.sol\":4697:4704  address */\n              0x00\n                /* \"Lock.sol\":4724:4730  _owner */\n              sload\n              sub(shl(0xa0, 0x01), 0x01)\n              and\n                /* \"Lock.sol\":4059:4069  msg.sender */\n              caller\n                /* \"Lock.sol\":4871:4894  owner() == _msgSender() */\n              eq\n                /* \"Lock.sol\":4863:4931  require(owner() == _msgSender(), \"Ownable: caller is not the owner\") */\n              tag_286\n              jumpi\n              mload(0x40)\n              shl(0xe5, 0x461bcd)\n              dup2\n              mstore\n              0x04\n              add\n              tag_157\n              swap1\n              tag_158\n              jump\t// in\n            tag_286:\n                /* \"Lock.sol\":31079:31088  userLimit */\n              and(0xff, sload(0x02))\n                /* \"Lock.sol\":31071:31104  require(userLimit, \"Must be set\") */\n              tag_289\n              jumpi\n              mload(0x40)\n              shl(0xe5, 0x461bcd)\n              dup2\n              mstore\n                /* \"#utility.yul\":11506:11508   */\n              0x20\n                /* \"Lock.sol\":31071:31104  require(userLimit, \"Must be set\") */\n              0x04\n              dup3\n              add\n                /* \"#utility.yul\":11488:11509   */\n              mstore\n                /* \"#utility.yul\":11545:11547   */\n              0x0b\n                /* \"#utility.yul\":11525:11543   */\n              0x24\n              dup3\n              add\n                /* \"#utility.yul\":11518:11548   */\n              mstore\n              shl(0xaa, 0x135d5cdd081899481cd95d)\n                /* \"#utility.yul\":11564:11582   */\n              0x44\n              dup3\n              add\n                /* \"#utility.yul\":11557:11598   */\n              mstore\n                /* \"#utility.yul\":11615:11633   */\n              0x64\n              add\n                /* \"Lock.sol\":31071:31104  require(userLimit, \"Must be set\") */\n              tag_157\n                /* \"#utility.yul\":11304:11639   */\n              jump\n                /* \"Lock.sol\":31071:31104  require(userLimit, \"Must be set\") */\n            tag_289:\n                /* \"Lock.sol\":31119:31129  _userLimit */\n              dup2\n                /* \"Lock.sol\":31115:31372  if (_userLimit) {... */\n              iszero\n              tag_292\n              jumpi\n                /* \"Lock.sol\":31174:31190  poolLimitPerUser */\n              sload(0x07)\n                /* \"Lock.sol\":31154:31171  _poolLimitPerUser */\n              dup2\n                /* \"Lock.sol\":31154:31190  _poolLimitPerUser > poolLimitPerUser */\n              gt\n                /* \"Lock.sol\":31146:31219  require(_poolLimitPerUser > poolLimitPerUser, \"New limit must be higher\") */\n              tag_293\n              jumpi\n              mload(0x40)\n              shl(0xe5, 0x461bcd)\n              dup2\n              mstore\n                /* \"#utility.yul\":11846:11848   */\n              0x20\n                /* \"Lock.sol\":31146:31219  require(_poolLimitPerUser > poolLimitPerUser, \"New limit must be higher\") */\n              0x04\n              dup3\n              add\n                /* \"#utility.yul\":11828:11849   */\n              mstore\n                /* \"#utility.yul\":11885:11887   */\n              0x18\n                /* \"#utility.yul\":11865:11883   */\n              0x24\n              dup3\n              add\n                /* \"#utility.yul\":11858:11888   */\n              mstore\n                /* \"#utility.yul\":11924:11950   */\n              0x4e6577206c696d6974206d757374206265206869676865720000000000000000\n                /* \"#utility.yul\":11904:11922   */\n              0x44\n              dup3\n              add\n                /* \"#utility.yul\":11897:11951   */\n              mstore\n                /* \"#utility.yul\":11968:11986   */\n              0x64\n              add\n                /* \"Lock.sol\":31146:31219  require(_poolLimitPerUser > poolLimitPerUser, \"New limit must be higher\") */\n              tag_157\n                /* \"#utility.yul\":11644:11992   */\n              jump\n                /* \"Lock.sol\":31146:31219  require(_poolLimitPerUser > poolLimitPerUser, \"New limit must be higher\") */\n            tag_293:\n                /* \"Lock.sol\":31234:31250  poolLimitPerUser */\n              0x07\n                /* \"Lock.sol\":31234:31270  poolLimitPerUser = _poolLimitPerUser */\n              dup2\n              swap1\n              sstore\n                /* \"Lock.sol\":31115:31372  if (_userLimit) {... */\n              jump(tag_296)\n            tag_292:\n                /* \"Lock.sol\":31303:31312  userLimit */\n              0x02\n                /* \"Lock.sol\":31303:31325  userLimit = _userLimit */\n              dup1\n              sload\n              not(0xff)\n              and\n              dup4\n              iszero\n              iszero\n              or\n              swap1\n              sstore\n              0x00\n                /* \"Lock.sol\":31340:31356  poolLimitPerUser */\n              0x07\n                /* \"Lock.sol\":31340:31360  poolLimitPerUser = 0 */\n              sstore\n                /* \"Lock.sol\":31115:31372  if (_userLimit) {... */\n            tag_296:\n                /* \"Lock.sol\":31387:31417  NewPoolLimit(poolLimitPerUser) */\n              0x241f67ee5f41b7a5cabf911367329be7215900f602ebfc47f89dce2a6bcd847c\n                /* \"Lock.sol\":31400:31416  poolLimitPerUser */\n              sload(0x07)\n                /* \"Lock.sol\":31387:31417  NewPoolLimit(poolLimitPerUser) */\n              mload(0x40)\n              tag_224\n              swap2\n                /* \"#utility.yul\":345:370   */\n              dup2\n              mstore\n                /* \"#utility.yul\":333:335   */\n              0x20\n                /* \"#utility.yul\":318:336   */\n              add\n              swap1\n                /* \"#utility.yul\":199:376   */\n              jump\n                /* \"Lock.sol\":26655:28181  function deposit(uint256 _amount) external nonReentrant {... */\n            tag_125:\n                /* \"Lock.sol\":7644:7645  2 */\n              0x02\n                /* \"Lock.sol\":8240:8247  _status */\n              sload(0x01)\n                /* \"Lock.sol\":8240:8259  _status != _ENTERED */\n              sub\n                /* \"Lock.sol\":8232:8295  require(_status != _ENTERED, \"ReentrancyGuard: reentrant call\") */\n              tag_299\n              jumpi\n              mload(0x40)\n              shl(0xe5, 0x461bcd)\n              dup2\n              mstore\n              0x04\n              add\n              tag_157\n              swap1\n              tag_187\n              jump\t// in\n            tag_299:\n                /* \"Lock.sol\":7644:7645  2 */\n              0x02\n                /* \"Lock.sol\":8373:8380  _status */\n              0x01\n                /* \"Lock.sol\":8373:8391  _status = _ENTERED */\n              sstore\n                /* \"Lock.sol\":26755:26765  msg.sender */\n              caller\n                /* \"Lock.sol\":26722:26743  UserInfo storage user */\n              0x00\n                /* \"Lock.sol\":26746:26766  userInfo[msg.sender] */\n              swap1\n              dup2\n              mstore\n                /* \"Lock.sol\":26746:26754  userInfo */\n              0x0f\n                /* \"Lock.sol\":26746:26766  userInfo[msg.sender] */\n              0x20\n              mstore\n              0x40\n              swap1\n              keccak256\n                /* \"Lock.sol\":26861:26886  pancakeProfileIsRequested */\n              and(0xff, sload(0x09))\n                /* \"Lock.sol\":26860:26886  !pancakeProfileIsRequested */\n              iszero\n                /* \"Lock.sol\":26860:26924  !pancakeProfileIsRequested && pancakeProfileThresholdPoints == 0 */\n              dup1\n              iszero\n              tag_302\n              jumpi\n              pop\n                /* \"Lock.sol\":26890:26919  pancakeProfileThresholdPoints */\n              sload(0x0a)\n                /* \"Lock.sol\":26890:26924  pancakeProfileThresholdPoints == 0 */\n              iszero\n                /* \"Lock.sol\":26860:26924  !pancakeProfileIsRequested && pancakeProfileThresholdPoints == 0 */\n            tag_302:\n                /* \"Lock.sol\":26859:26982  (!pancakeProfileIsRequested && pancakeProfileThresholdPoints == 0) ||... */\n              dup1\n              tag_307\n              jumpi\n              pop\n                /* \"Lock.sol\":26942:26982  pancakeProfile.getUserStatus(msg.sender) */\n              mload(0x40)\n              shl(0xe0, 0xea0d5dcd)\n              dup2\n              mstore\n                /* \"Lock.sol\":26971:26981  msg.sender */\n              caller\n                /* \"Lock.sol\":26942:26982  pancakeProfile.getUserStatus(msg.sender) */\n              0x04\n              dup3\n              add\n                /* \"#utility.yul\":2718:2769   */\n              mstore\n                /* \"Lock.sol\":26942:26956  pancakeProfile */\n              immutable(\"0x2d1d4c297109e684b5dd49024b3dae75e2c67e9cb1e22aef0feb556356c54e23\")\n              sub(shl(0xa0, 0x01), 0x01)\n                /* \"Lock.sol\":26942:26970  pancakeProfile.getUserStatus */\n              and\n              swap1\n              0xea0d5dcd\n              swap1\n                /* \"#utility.yul\":2691:2709   */\n              0x24\n              add\n                /* \"Lock.sol\":26942:26982  pancakeProfile.getUserStatus(msg.sender) */\n              0x20\n              mload(0x40)\n              dup1\n              dup4\n              sub\n              dup2\n              dup7\n              gas\n              staticcall\n              iszero\n              dup1\n              iszero\n              tag_306\n              jumpi\n              returndatasize\n              0x00\n              dup1\n              returndatacopy\n              revert(0x00, returndatasize)\n            tag_306:\n              pop\n              pop\n              pop\n              pop\n              mload(0x40)\n              returndatasize\n              not(0x1f)\n              0x1f\n              dup3\n              add\n              and\n              dup3\n              add\n              dup1\n              0x40\n              mstore\n              pop\n              dup2\n              add\n              swap1\n              tag_307\n              swap2\n              swap1\n              tag_308\n              jump\t// in\n            tag_307:\n                /* \"Lock.sol\":26837:27046  require(... */\n              tag_309\n              jumpi\n              mload(0x40)\n              shl(0xe5, 0x461bcd)\n              dup2\n              mstore\n                /* \"#utility.yul\":12449:12451   */\n              0x20\n                /* \"Lock.sol\":26837:27046  require(... */\n              0x04\n              dup3\n              add\n                /* \"#utility.yul\":12431:12452   */\n              mstore\n                /* \"#utility.yul\":12488:12490   */\n              0x24\n                /* \"#utility.yul\":12468:12486   */\n              dup1\n              dup3\n              add\n                /* \"#utility.yul\":12461:12491   */\n              mstore\n                /* \"#utility.yul\":12527:12561   */\n              0x4465706f7369743a204d757374206861766520616e206163746976652070726f\n                /* \"#utility.yul\":12507:12525   */\n              0x44\n              dup3\n              add\n                /* \"#utility.yul\":12500:12562   */\n              mstore\n              shl(0xe0, 0x66696c65)\n                /* \"#utility.yul\":12578:12596   */\n              0x64\n              dup3\n              add\n                /* \"#utility.yul\":12571:12605   */\n              mstore\n                /* \"#utility.yul\":12622:12641   */\n              0x84\n              add\n                /* \"Lock.sol\":26837:27046  require(... */\n              tag_157\n                /* \"#utility.yul\":12247:12647   */\n              jump\n                /* \"Lock.sol\":26837:27046  require(... */\n            tag_309:\n                /* \"Lock.sol\":27104:27133  pancakeProfileThresholdPoints */\n              sload(0x0a)\n                /* \"Lock.sol\":27059:27083  uint256 numberUserPoints */\n              0x00\n              swap1\n                /* \"Lock.sol\":27104:27137  pancakeProfileThresholdPoints > 0 */\n              iszero\n                /* \"Lock.sol\":27100:27238  if (pancakeProfileThresholdPoints > 0) {... */\n              tag_312\n              jumpi\n                /* \"Lock.sol\":27185:27226  pancakeProfile.getUserProfile(msg.sender) */\n              mload(0x40)\n              shl(0xe1, 0x4c3f70ab)\n              dup2\n              mstore\n                /* \"Lock.sol\":27215:27225  msg.sender */\n              caller\n                /* \"Lock.sol\":27185:27226  pancakeProfile.getUserProfile(msg.sender) */\n              0x04\n              dup3\n              add\n                /* \"#utility.yul\":2718:2769   */\n              mstore\n                /* \"Lock.sol\":27185:27199  pancakeProfile */\n              immutable(\"0x2d1d4c297109e684b5dd49024b3dae75e2c67e9cb1e22aef0feb556356c54e23\")\n              sub(shl(0xa0, 0x01), 0x01)\n                /* \"Lock.sol\":27185:27214  pancakeProfile.getUserProfile */\n              and\n              swap1\n              0x987ee156\n              swap1\n                /* \"#utility.yul\":2691:2709   */\n              0x24\n              add\n                /* \"Lock.sol\":27185:27226  pancakeProfile.getUserProfile(msg.sender) */\n              0xc0\n              mload(0x40)\n              dup1\n              dup4\n              sub\n              dup2\n              dup7\n              gas\n              staticcall\n              iszero\n              dup1\n              iszero\n              tag_315\n              jumpi\n              returndatasize\n              0x00\n              dup1\n              returndatacopy\n              revert(0x00, returndatasize)\n            tag_315:\n              pop\n              pop\n              pop\n              pop\n              mload(0x40)\n              returndatasize\n              not(0x1f)\n              0x1f\n              dup3\n              add\n              and\n              dup3\n              add\n              dup1\n              0x40\n              mstore\n              pop\n              dup2\n              add\n              swap1\n              tag_316\n              swap2\n              swap1\n              tag_317\n              jump\t// in\n            tag_316:\n              pop\n                /* \"Lock.sol\":27154:27226  (, numberUserPoints, , , , ) = pancakeProfile.getUserProfile(msg.sender) */\n              swap3\n              swap5\n              pop\n              pop\n              pop\n              pop\n              pop\n                /* \"Lock.sol\":27100:27238  if (pancakeProfileThresholdPoints > 0) {... */\n            tag_312:\n                /* \"Lock.sol\":27272:27301  pancakeProfileThresholdPoints */\n              sload(0x0a)\n                /* \"Lock.sol\":27272:27306  pancakeProfileThresholdPoints == 0 */\n              iszero\n              dup1\n                /* \"Lock.sol\":27272:27359  pancakeProfileThresholdPoints == 0 || numberUserPoints >= pancakeProfileThresholdPoints */\n              tag_318\n              jumpi\n              pop\n                /* \"Lock.sol\":27330:27359  pancakeProfileThresholdPoints */\n              sload(0x0a)\n                /* \"Lock.sol\":27310:27326  numberUserPoints */\n              dup2\n                /* \"Lock.sol\":27310:27359  numberUserPoints >= pancakeProfileThresholdPoints */\n              lt\n              iszero\n                /* \"Lock.sol\":27272:27359  pancakeProfileThresholdPoints == 0 || numberUserPoints >= pancakeProfileThresholdPoints */\n            tag_318:\n                /* \"Lock.sol\":27250:27422  require(... */\n              tag_319\n              jumpi\n              mload(0x40)\n              shl(0xe5, 0x461bcd)\n              dup2\n              mstore\n                /* \"#utility.yul\":13485:13487   */\n              0x20\n                /* \"Lock.sol\":27250:27422  require(... */\n              0x04\n              dup3\n              add\n                /* \"#utility.yul\":13467:13488   */\n              mstore\n                /* \"#utility.yul\":13524:13526   */\n              0x23\n                /* \"#utility.yul\":13504:13522   */\n              0x24\n              dup3\n              add\n                /* \"#utility.yul\":13497:13527   */\n              mstore\n                /* \"#utility.yul\":13563:13597   */\n              0x4465706f7369743a205573657220686173206e6f7420656e6f75676820706f69\n                /* \"#utility.yul\":13543:13561   */\n              0x44\n              dup3\n              add\n                /* \"#utility.yul\":13536:13598   */\n              mstore\n              shl(0xe8, 0x6e7473)\n                /* \"#utility.yul\":13614:13632   */\n              0x64\n              dup3\n              add\n                /* \"#utility.yul\":13607:13640   */\n              mstore\n                /* \"#utility.yul\":13657:13676   */\n              0x84\n              add\n                /* \"Lock.sol\":27250:27422  require(... */\n              tag_157\n                /* \"#utility.yul\":13283:13682   */\n              jump\n                /* \"Lock.sol\":27250:27422  require(... */\n            tag_319:\n                /* \"Lock.sol\":27447:27461  hasUserLimit() */\n              tag_322\n                /* \"Lock.sol\":27447:27459  hasUserLimit */\n              tag_108\n                /* \"Lock.sol\":27447:27461  hasUserLimit() */\n              jump\t// in\n            tag_322:\n                /* \"Lock.sol\":27435:27444  userLimit */\n              0x02\n                /* \"Lock.sol\":27435:27461  userLimit = hasUserLimit() */\n              dup1\n              sload\n              not(0xff)\n              and\n              swap2\n              iszero\n              iszero\n              swap2\n              dup3\n              or\n              swap1\n              sstore\n              0xff\n                /* \"Lock.sol\":27483:27492  userLimit */\n              and\n                /* \"Lock.sol\":27482:27492  !userLimit */\n              iszero\n              dup1\n                /* \"Lock.sol\":27482:27541  !userLimit || ((_amount + user.amount) <= poolLimitPerUser) */\n              tag_323\n              jumpi\n              pop\n                /* \"Lock.sol\":27524:27540  poolLimitPerUser */\n              sload(0x07)\n                /* \"Lock.sol\":27508:27519  user.amount */\n              dup3\n              sload\n                /* \"Lock.sol\":27498:27519  _amount + user.amount */\n              tag_324\n              swap1\n                /* \"Lock.sol\":27498:27505  _amount */\n              dup6\n                /* \"Lock.sol\":27498:27519  _amount + user.amount */\n              tag_244\n              jump\t// in\n            tag_324:\n                /* \"Lock.sol\":27497:27540  (_amount + user.amount) <= poolLimitPerUser */\n              gt\n              iszero\n                /* \"Lock.sol\":27482:27541  !userLimit || ((_amount + user.amount) <= poolLimitPerUser) */\n            tag_323:\n                /* \"Lock.sol\":27474:27573  require(!userLimit || ((_amount + user.amount) <= poolLimitPerUser), \"Deposit: Amount above limit\") */\n              tag_325\n              jumpi\n              mload(0x40)\n              shl(0xe5, 0x461bcd)\n              dup2\n              mstore\n                /* \"#utility.yul\":13889:13891   */\n              0x20\n                /* \"Lock.sol\":27474:27573  require(!userLimit || ((_amount + user.amount) <= poolLimitPerUser), \"Deposit: Amount above limit\") */\n              0x04\n              dup3\n              add\n                /* \"#utility.yul\":13871:13892   */\n              mstore\n                /* \"#utility.yul\":13928:13930   */\n              0x1b\n                /* \"#utility.yul\":13908:13926   */\n              0x24\n              dup3\n              add\n                /* \"#utility.yul\":13901:13931   */\n              mstore\n                /* \"#utility.yul\":13967:13996   */\n              0x4465706f7369743a20416d6f756e742061626f7665206c696d69740000000000\n                /* \"#utility.yul\":13947:13965   */\n              0x44\n              dup3\n              add\n                /* \"#utility.yul\":13940:13997   */\n              mstore\n                /* \"#utility.yul\":14014:14032   */\n              0x64\n              add\n                /* \"Lock.sol\":27474:27573  require(!userLimit || ((_amount + user.amount) <= poolLimitPerUser), \"Deposit: Amount above limit\") */\n              tag_157\n                /* \"#utility.yul\":13687:14038   */\n              jump\n                /* \"Lock.sol\":27474:27573  require(!userLimit || ((_amount + user.amount) <= poolLimitPerUser), \"Deposit: Amount above limit\") */\n            tag_325:\n                /* \"Lock.sol\":27586:27599  _updatePool() */\n              tag_328\n                /* \"Lock.sol\":27586:27597  _updatePool */\n              tag_193\n                /* \"Lock.sol\":27586:27599  _updatePool() */\n              jump\t// in\n            tag_328:\n                /* \"Lock.sol\":27616:27627  user.amount */\n              dup2\n              sload\n                /* \"Lock.sol\":27616:27631  user.amount > 0 */\n              iszero\n                /* \"Lock.sol\":27612:27867  if (user.amount > 0) {... */\n              tag_329\n              jumpi\n                /* \"Lock.sol\":27648:27663  uint256 pending */\n              0x00\n                /* \"Lock.sol\":27720:27724  user */\n              dup3\n                /* \"Lock.sol\":27720:27735  user.rewardDebt */\n              0x01\n              add\n              sload\n                /* \"Lock.sol\":27701:27717  PRECISION_FACTOR */\n              sload(0x0c)\n                /* \"Lock.sol\":27681:27697  accTokenPerShare */\n              sload(0x03)\n                /* \"Lock.sol\":27667:27671  user */\n              dup6\n                /* \"Lock.sol\":27667:27678  user.amount */\n              0x00\n              add\n              sload\n                /* \"Lock.sol\":27667:27697  user.amount * accTokenPerShare */\n              tag_330\n              swap2\n              swap1\n              tag_195\n              jump\t// in\n            tag_330:\n                /* \"Lock.sol\":27666:27717  (user.amount * accTokenPerShare) / PRECISION_FACTOR */\n              tag_331\n              swap2\n              swap1\n              tag_197\n              jump\t// in\n            tag_331:\n                /* \"Lock.sol\":27666:27735  (user.amount * accTokenPerShare) / PRECISION_FACTOR - user.rewardDebt */\n              tag_332\n              swap2\n              swap1\n              tag_180\n              jump\t// in\n            tag_332:\n                /* \"Lock.sol\":27648:27735  uint256 pending = (user.amount * accTokenPerShare) / PRECISION_FACTOR - user.rewardDebt */\n              swap1\n              pop\n                /* \"Lock.sol\":27754:27765  pending > 0 */\n              dup1\n              iszero\n                /* \"Lock.sol\":27750:27856  if (pending > 0) {... */\n              tag_334\n              jumpi\n                /* \"Lock.sol\":27786:27797  rewardToken */\n              sload(0x0d)\n                /* \"Lock.sol\":27786:27840  rewardToken.safeTransfer(address(msg.sender), pending) */\n              tag_334\n              swap1\n              sub(shl(0xa0, 0x01), 0x01)\n                /* \"Lock.sol\":27786:27797  rewardToken */\n              and\n                /* \"Lock.sol\":27819:27829  msg.sender */\n              caller\n                /* \"Lock.sol\":27832:27839  pending */\n              dup4\n                /* \"Lock.sol\":27786:27810  rewardToken.safeTransfer */\n              tag_202\n                /* \"Lock.sol\":27786:27840  rewardToken.safeTransfer(address(msg.sender), pending) */\n              jump\t// in\n            tag_334:\n                /* \"Lock.sol\":27633:27867  {... */\n              pop\n                /* \"Lock.sol\":27612:27867  if (user.amount > 0) {... */\n            tag_329:\n                /* \"Lock.sol\":27883:27894  _amount > 0 */\n              dup3\n              iszero\n                /* \"Lock.sol\":27879:28046  if (_amount > 0) {... */\n              tag_337\n              jumpi\n                /* \"Lock.sol\":27925:27936  user.amount */\n              dup2\n              sload\n                /* \"Lock.sol\":27925:27946  user.amount + _amount */\n              tag_336\n              swap1\n                /* \"Lock.sol\":27939:27946  _amount */\n              dup5\n              swap1\n                /* \"Lock.sol\":27925:27946  user.amount + _amount */\n              tag_244\n              jump\t// in\n            tag_336:\n                /* \"Lock.sol\":27911:27946  user.amount = user.amount + _amount */\n              dup3\n              sstore\n                /* \"Lock.sol\":27961:27972  stakedToken */\n              sload(0x0e)\n                /* \"Lock.sol\":27961:28034  stakedToken.safeTransferFrom(address(msg.sender), address(this), _amount) */\n              tag_337\n              swap1\n              sub(shl(0xa0, 0x01), 0x01)\n                /* \"Lock.sol\":27961:27972  stakedToken */\n              and\n                /* \"Lock.sol\":27998:28008  msg.sender */\n              caller\n                /* \"Lock.sol\":28019:28023  this */\n              address\n                /* \"Lock.sol\":28026:28033  _amount */\n              dup7\n                /* \"Lock.sol\":27961:27989  stakedToken.safeTransferFrom */\n              tag_338\n                /* \"Lock.sol\":27961:28034  stakedToken.safeTransferFrom(address(msg.sender), address(this), _amount) */\n              jump\t// in\n            tag_337:\n                /* \"Lock.sol\":28111:28127  PRECISION_FACTOR */\n              sload(0x0c)\n                /* \"Lock.sol\":28091:28107  accTokenPerShare */\n              sload(0x03)\n                /* \"Lock.sol\":28077:28088  user.amount */\n              dup4\n              sload\n                /* \"Lock.sol\":28077:28107  user.amount * accTokenPerShare */\n              tag_339\n              swap2\n                /* \"Lock.sol\":28091:28107  accTokenPerShare */\n              swap1\n                /* \"Lock.sol\":28077:28107  user.amount * accTokenPerShare */\n              tag_195\n              jump\t// in\n            tag_339:\n                /* \"Lock.sol\":28076:28127  (user.amount * accTokenPerShare) / PRECISION_FACTOR */\n              tag_340\n              swap2\n              swap1\n              tag_197\n              jump\t// in\n            tag_340:\n                /* \"Lock.sol\":28058:28073  user.rewardDebt */\n              0x01\n              dup4\n              add\n                /* \"Lock.sol\":28058:28127  user.rewardDebt = (user.amount * accTokenPerShare) / PRECISION_FACTOR */\n              sstore\n                /* \"Lock.sol\":28145:28173  Deposit(msg.sender, _amount) */\n              mload(0x40)\n                /* \"#utility.yul\":345:370   */\n              dup4\n              dup2\n              mstore\n                /* \"Lock.sol\":28153:28163  msg.sender */\n              caller\n              swap1\n                /* \"Lock.sol\":28145:28173  Deposit(msg.sender, _amount) */\n              0xe1fffcc4923d04b559f4d29a8bfc6cda04eb5b0d3c460751c2402c5c5cc9109c\n              swap1\n                /* \"#utility.yul\":333:335   */\n              0x20\n                /* \"#utility.yul\":318:336   */\n              add\n                /* \"Lock.sol\":28145:28173  Deposit(msg.sender, _amount) */\n              tag_207\n                /* \"#utility.yul\":199:376   */\n              jump\n                /* \"Lock.sol\":29190:29597  function emergencyWithdraw() external nonReentrant {... */\n            tag_141:\n                /* \"Lock.sol\":7644:7645  2 */\n              0x02\n                /* \"Lock.sol\":8240:8247  _status */\n              sload(0x01)\n                /* \"Lock.sol\":8240:8259  _status != _ENTERED */\n              sub\n                /* \"Lock.sol\":8232:8295  require(_status != _ENTERED, \"ReentrancyGuard: reentrant call\") */\n              tag_343\n              jumpi\n              mload(0x40)\n              shl(0xe5, 0x461bcd)\n              dup2\n              mstore\n              0x04\n              add\n              tag_157\n              swap1\n              tag_187\n              jump\t// in\n            tag_343:\n                /* \"Lock.sol\":7644:7645  2 */\n              0x02\n                /* \"Lock.sol\":8373:8380  _status */\n              0x01\n                /* \"Lock.sol\":8373:8391  _status = _ENTERED */\n              swap1\n              dup2\n              sstore\n                /* \"Lock.sol\":29285:29295  msg.sender */\n              caller\n                /* \"Lock.sol\":29252:29273  UserInfo storage user */\n              0x00\n                /* \"Lock.sol\":29276:29296  userInfo[msg.sender] */\n              swap1\n              dup2\n              mstore\n                /* \"Lock.sol\":29276:29284  userInfo */\n              0x0f\n                /* \"Lock.sol\":29276:29296  userInfo[msg.sender] */\n              0x20\n              mstore\n              0x40\n              dup2\n              keccak256\n                /* \"Lock.sol\":29334:29345  user.amount */\n              dup1\n              sload\n                /* \"Lock.sol\":29356:29371  user.amount = 0 */\n              dup3\n              dup3\n              sstore\n                /* \"Lock.sol\":29382:29397  user.rewardDebt */\n              swap3\n              dup2\n              add\n                /* \"Lock.sol\":29382:29401  user.rewardDebt = 0 */\n              swap2\n              swap1\n              swap2\n              sstore\n                /* \"Lock.sol\":29276:29296  userInfo[msg.sender] */\n              swap1\n                /* \"Lock.sol\":29418:29438  amountToTransfer > 0 */\n              dup1\n              iszero\n                /* \"Lock.sol\":29414:29530  if (amountToTransfer > 0) {... */\n              tag_347\n              jumpi\n                /* \"Lock.sol\":29455:29466  stakedToken */\n              sload(0x0e)\n                /* \"Lock.sol\":29455:29518  stakedToken.safeTransfer(address(msg.sender), amountToTransfer) */\n              tag_347\n              swap1\n              sub(shl(0xa0, 0x01), 0x01)\n                /* \"Lock.sol\":29455:29466  stakedToken */\n              and\n                /* \"Lock.sol\":29488:29498  msg.sender */\n              caller\n                /* \"Lock.sol\":29501:29517  amountToTransfer */\n              dup4\n                /* \"Lock.sol\":29455:29479  stakedToken.safeTransfer */\n              tag_202\n                /* \"Lock.sol\":29455:29518  stakedToken.safeTransfer(address(msg.sender), amountToTransfer) */\n              jump\t// in\n            tag_347:\n                /* \"Lock.sol\":29577:29588  user.amount */\n              dup2\n              sload\n                /* \"Lock.sol\":29547:29589  EmergencyWithdraw(msg.sender, user.amount) */\n              mload(0x40)\n                /* \"#utility.yul\":345:370   */\n              swap1\n              dup2\n              mstore\n                /* \"Lock.sol\":29565:29575  msg.sender */\n              caller\n              swap1\n                /* \"Lock.sol\":29547:29589  EmergencyWithdraw(msg.sender, user.amount) */\n              0x5fafa99d0643513820be26656b45130b01e1c03062e1266bf36f88cbd3bd9695\n              swap1\n                /* \"#utility.yul\":333:335   */\n              0x20\n                /* \"#utility.yul\":318:336   */\n              add\n                /* \"Lock.sol\":29547:29589  EmergencyWithdraw(msg.sender, user.amount) */\n              mload(0x40)\n              dup1\n              swap2\n              sub\n              swap1\n              log2\n              pop\n              pop\n                /* \"Lock.sol\":7600:7601  1 */\n              0x01\n                /* \"Lock.sol\":8552:8574  _status = _NOT_ENTERED */\n              dup1\n              sstore\n                /* \"Lock.sol\":29190:29597  function emergencyWithdraw() external nonReentrant {... */\n              jump\t// out\n                /* \"Lock.sol\":5551:5743  function transferOwnership(address newOwner) public virtual onlyOwner {... */\n            tag_144:\n                /* \"Lock.sol\":4697:4704  address */\n              0x00\n                /* \"Lock.sol\":4724:4730  _owner */\n              sload\n              sub(shl(0xa0, 0x01), 0x01)\n              and\n                /* \"Lock.sol\":4059:4069  msg.sender */\n              caller\n                /* \"Lock.sol\":4871:4894  owner() == _msgSender() */\n              eq\n                /* \"Lock.sol\":4863:4931  require(owner() == _msgSender(), \"Ownable: caller is not the owner\") */\n              tag_352\n              jumpi\n              mload(0x40)\n              shl(0xe5, 0x461bcd)\n              dup2\n              mstore\n              0x04\n              add\n              tag_157\n              swap1\n              tag_158\n              jump\t// in\n            tag_352:\n              sub(shl(0xa0, 0x01), 0x01)\n                /* \"Lock.sol\":5640:5662  newOwner != address(0) */\n              dup2\n              and\n                /* \"Lock.sol\":5632:5705  require(newOwner != address(0), \"Ownable: new owner is the zero address\") */\n              tag_355\n              jumpi\n              mload(0x40)\n              shl(0xe5, 0x461bcd)\n              dup2\n              mstore\n                /* \"#utility.yul\":14245:14247   */\n              0x20\n                /* \"Lock.sol\":5632:5705  require(newOwner != address(0), \"Ownable: new owner is the zero address\") */\n              0x04\n              dup3\n              add\n                /* \"#utility.yul\":14227:14248   */\n              mstore\n                /* \"#utility.yul\":14284:14286   */\n              0x26\n                /* \"#utility.yul\":14264:14282   */\n              0x24\n              dup3\n              add\n                /* \"#utility.yul\":14257:14287   */\n              mstore\n                /* \"#utility.yul\":14323:14357   */\n              0x4f776e61626c653a206e6577206f776e657220697320746865207a65726f2061\n                /* \"#utility.yul\":14303:14321   */\n              0x44\n              dup3\n              add\n                /* \"#utility.yul\":14296:14358   */\n              mstore\n              shl(0xd0, 0x646472657373)\n                /* \"#utility.yul\":14374:14392   */\n              0x64\n              dup3\n              add\n                /* \"#utility.yul\":14367:14403   */\n              mstore\n                /* \"#utility.yul\":14420:14439   */\n              0x84\n              add\n                /* \"Lock.sol\":5632:5705  require(newOwner != address(0), \"Ownable: new owner is the zero address\") */\n              tag_157\n                /* \"#utility.yul\":14043:14445   */\n              jump\n                /* \"Lock.sol\":5632:5705  require(newOwner != address(0), \"Ownable: new owner is the zero address\") */\n            tag_355:\n                /* \"Lock.sol\":5716:5735  _setOwner(newOwner) */\n              tag_214\n                /* \"Lock.sol\":5726:5734  newOwner */\n              dup2\n                /* \"Lock.sol\":5716:5725  _setOwner */\n              tag_233\n                /* \"Lock.sol\":5716:5735  _setOwner(newOwner) */\n              jump\t// in\n                /* \"Lock.sol\":33521:34274  function pendingReward(address _user) external view returns (uint256) {... */\n            tag_147:\n              sub(shl(0xa0, 0x01), 0x01)\n                /* \"Lock.sol\":33626:33641  userInfo[_user] */\n              dup2\n              dup2\n              and\n                /* \"Lock.sol\":33582:33589  uint256 */\n              0x00\n                /* \"Lock.sol\":33626:33641  userInfo[_user] */\n              swap1\n              dup2\n              mstore\n                /* \"Lock.sol\":33626:33634  userInfo */\n              0x0f\n                /* \"Lock.sol\":33626:33641  userInfo[_user] */\n              0x20\n              mstore\n              0x40\n              dup1\n              dup3\n              keccak256\n                /* \"Lock.sol\":33680:33691  stakedToken */\n              sload(0x0e)\n                /* \"Lock.sol\":33680:33716  stakedToken.balanceOf(address(this)) */\n              swap2\n              mload\n              shl(0xe0, 0x70a08231)\n              dup2\n              mstore\n                /* \"Lock.sol\":33710:33714  this */\n              address\n                /* \"Lock.sol\":33680:33716  stakedToken.balanceOf(address(this)) */\n              0x04\n              dup3\n              add\n                /* \"#utility.yul\":2718:2769   */\n              mstore\n                /* \"Lock.sol\":33582:33589  uint256 */\n              swap3\n              swap4\n                /* \"Lock.sol\":33626:33641  userInfo[_user] */\n              swap1\n              swap3\n                /* \"Lock.sol\":33582:33589  uint256 */\n              dup5\n              swap3\n                /* \"Lock.sol\":33680:33691  stakedToken */\n              swap1\n              swap2\n              and\n              swap1\n                /* \"Lock.sol\":33680:33701  stakedToken.balanceOf */\n              0x70a08231\n              swap1\n                /* \"#utility.yul\":2691:2709   */\n              0x24\n              add\n                /* \"Lock.sol\":33680:33716  stakedToken.balanceOf(address(this)) */\n              0x20\n              mload(0x40)\n              dup1\n              dup4\n              sub\n              dup2\n              dup7\n              gas\n              staticcall\n              iszero\n              dup1\n              iszero\n              tag_362\n              jumpi\n              returndatasize\n              0x00\n              dup1\n              returndatacopy\n              revert(0x00, returndatasize)\n            tag_362:\n              pop\n              pop\n              pop\n              pop\n              mload(0x40)\n              returndatasize\n              not(0x1f)\n              0x1f\n              dup3\n              add\n              and\n              dup3\n              add\n              dup1\n              0x40\n              mstore\n              pop\n              dup2\n              add\n              swap1\n              tag_363\n              swap2\n              swap1\n              tag_277\n              jump\t// in\n            tag_363:\n                /* \"Lock.sol\":33652:33716  uint256 stakedTokenSupply = stakedToken.balanceOf(address(this)) */\n              swap1\n              pop\n                /* \"Lock.sol\":33746:33761  lastRewardBlock */\n              sload(0x06)\n                /* \"Lock.sol\":33731:33743  block.number */\n              number\n                /* \"Lock.sol\":33731:33761  block.number > lastRewardBlock */\n              gt\n                /* \"Lock.sol\":33731:33787  block.number > lastRewardBlock && stakedTokenSupply != 0 */\n              dup1\n              iszero\n              tag_364\n              jumpi\n              pop\n                /* \"Lock.sol\":33765:33787  stakedTokenSupply != 0 */\n              dup1\n              iszero\n              iszero\n                /* \"Lock.sol\":33731:33787  block.number > lastRewardBlock && stakedTokenSupply != 0 */\n            tag_364:\n                /* \"Lock.sol\":33727:34267  if (block.number > lastRewardBlock && stakedTokenSupply != 0) {... */\n              iszero\n              tag_365\n              jumpi\n                /* \"Lock.sol\":33804:33822  uint256 multiplier */\n              0x00\n                /* \"Lock.sol\":33825:33870  _getMultiplier(lastRewardBlock, block.number) */\n              tag_366\n                /* \"Lock.sol\":33840:33855  lastRewardBlock */\n              sload(0x06)\n                /* \"Lock.sol\":33857:33869  block.number */\n              number\n                /* \"Lock.sol\":33825:33839  _getMultiplier */\n              tag_367\n                /* \"Lock.sol\":33825:33870  _getMultiplier(lastRewardBlock, block.number) */\n              jump\t// in\n            tag_366:\n                /* \"Lock.sol\":33804:33870  uint256 multiplier = _getMultiplier(lastRewardBlock, block.number) */\n              swap1\n              pop\n                /* \"Lock.sol\":33885:33903  uint256 cakeReward */\n              0x00\n                /* \"Lock.sol\":33919:33933  rewardPerBlock */\n              sload(0x0b)\n                /* \"Lock.sol\":33906:33916  multiplier */\n              dup3\n                /* \"Lock.sol\":33906:33933  multiplier * rewardPerBlock */\n              tag_368\n              swap2\n              swap1\n              tag_195\n              jump\t// in\n            tag_368:\n                /* \"Lock.sol\":33885:33933  uint256 cakeReward = multiplier * rewardPerBlock */\n              swap1\n              pop\n                /* \"Lock.sol\":33948:33977  uint256 adjustedTokenPerShare */\n              0x00\n                /* \"Lock.sol\":34033:34050  stakedTokenSupply */\n              dup4\n                /* \"Lock.sol\":34013:34029  PRECISION_FACTOR */\n              sload(0x0c)\n                /* \"Lock.sol\":34000:34010  cakeReward */\n              dup4\n                /* \"Lock.sol\":34000:34029  cakeReward * PRECISION_FACTOR */\n              tag_369\n              swap2\n              swap1\n              tag_195\n              jump\t// in\n            tag_369:\n                /* \"Lock.sol\":33999:34050  (cakeReward * PRECISION_FACTOR) / stakedTokenSupply */\n              tag_370\n              swap2\n              swap1\n              tag_197\n              jump\t// in\n            tag_370:\n                /* \"Lock.sol\":33980:33996  accTokenPerShare */\n              sload(0x03)\n                /* \"Lock.sol\":33980:34050  accTokenPerShare + (cakeReward * PRECISION_FACTOR) / stakedTokenSupply */\n              tag_371\n              swap2\n              swap1\n              tag_244\n              jump\t// in\n            tag_371:\n                /* \"Lock.sol\":33948:34050  uint256 adjustedTokenPerShare = accTokenPerShare + (cakeReward * PRECISION_FACTOR) / stakedTokenSupply */\n              swap1\n              pop\n                /* \"Lock.sol\":34131:34135  user */\n              dup5\n                /* \"Lock.sol\":34131:34146  user.rewardDebt */\n              0x01\n              add\n              sload\n                /* \"Lock.sol\":34112:34128  PRECISION_FACTOR */\n              sload(0x0c)\n                /* \"Lock.sol\":34087:34108  adjustedTokenPerShare */\n              dup3\n                /* \"Lock.sol\":34073:34077  user */\n              dup8\n                /* \"Lock.sol\":34073:34084  user.amount */\n              0x00\n              add\n              sload\n                /* \"Lock.sol\":34073:34108  user.amount * adjustedTokenPerShare */\n              tag_372\n              swap2\n              swap1\n              tag_195\n              jump\t// in\n            tag_372:\n                /* \"Lock.sol\":34072:34128  (user.amount * adjustedTokenPerShare) / PRECISION_FACTOR */\n              tag_373\n              swap2\n              swap1\n              tag_197\n              jump\t// in\n            tag_373:\n                /* \"Lock.sol\":34072:34146  (user.amount * adjustedTokenPerShare) / PRECISION_FACTOR - user.rewardDebt */\n              tag_374\n              swap2\n              swap1\n              tag_180\n              jump\t// in\n            tag_374:\n                /* \"Lock.sol\":34065:34146  return (user.amount * adjustedTokenPerShare) / PRECISION_FACTOR - user.rewardDebt */\n              swap8\n                /* \"Lock.sol\":33521:34274  function pendingReward(address _user) external view returns (uint256) {... */\n              swap7\n              pop\n              pop\n              pop\n              pop\n              pop\n              pop\n              pop\n              jump\t// out\n                /* \"Lock.sol\":33727:34267  if (block.number > lastRewardBlock && stakedTokenSupply != 0) {... */\n            tag_365:\n                /* \"Lock.sol\":34240:34255  user.rewardDebt */\n              0x01\n              dup3\n              add\n              sload\n                /* \"Lock.sol\":34221:34237  PRECISION_FACTOR */\n              sload(0x0c)\n                /* \"Lock.sol\":34201:34217  accTokenPerShare */\n              sload(0x03)\n                /* \"Lock.sol\":34187:34198  user.amount */\n              dup5\n              sload\n                /* \"Lock.sol\":34187:34217  user.amount * accTokenPerShare */\n              tag_376\n              swap2\n                /* \"Lock.sol\":34201:34217  accTokenPerShare */\n              swap1\n                /* \"Lock.sol\":34187:34217  user.amount * accTokenPerShare */\n              tag_195\n              jump\t// in\n            tag_376:\n                /* \"Lock.sol\":34186:34237  (user.amount * accTokenPerShare) / PRECISION_FACTOR */\n              tag_377\n              swap2\n              swap1\n              tag_197\n              jump\t// in\n            tag_377:\n                /* \"Lock.sol\":34186:34255  (user.amount * accTokenPerShare) / PRECISION_FACTOR - user.rewardDebt */\n              tag_378\n              swap2\n              swap1\n              tag_180\n              jump\t// in\n            tag_378:\n                /* \"Lock.sol\":34179:34255  return (user.amount * accTokenPerShare) / PRECISION_FACTOR - user.rewardDebt */\n              swap5\n                /* \"Lock.sol\":33521:34274  function pendingReward(address _user) external view returns (uint256) {... */\n              swap4\n              pop\n              pop\n              pop\n              pop\n              jump\t// out\n                /* \"Lock.sol\":34375:34969  function _updatePool() internal {... */\n            tag_193:\n                /* \"Lock.sol\":34438:34453  lastRewardBlock */\n              sload(0x06)\n                /* \"Lock.sol\":34422:34434  block.number */\n              number\n                /* \"Lock.sol\":34422:34453  block.number <= lastRewardBlock */\n              gt\n                /* \"Lock.sol\":34418:34488  if (block.number <= lastRewardBlock) {... */\n              tag_381\n              jumpi\n                /* \"Lock.sol\":34375:34969  function _updatePool() internal {... */\n              jump\t// out\n                /* \"Lock.sol\":34418:34488  if (block.number <= lastRewardBlock) {... */\n            tag_381:\n                /* \"Lock.sol\":34528:34539  stakedToken */\n              sload(0x0e)\n                /* \"Lock.sol\":34528:34564  stakedToken.balanceOf(address(this)) */\n              mload(0x40)\n              shl(0xe0, 0x70a08231)\n              dup2\n              mstore\n                /* \"Lock.sol\":34558:34562  this */\n              address\n                /* \"Lock.sol\":34528:34564  stakedToken.balanceOf(address(this)) */\n              0x04\n              dup3\n              add\n                /* \"#utility.yul\":2718:2769   */\n              mstore\n                /* \"Lock.sol\":34500:34525  uint256 stakedTokenSupply */\n              0x00\n              swap2\n              sub(shl(0xa0, 0x01), 0x01)\n                /* \"Lock.sol\":34528:34539  stakedToken */\n              and\n              swap1\n                /* \"Lock.sol\":34528:34549  stakedToken.balanceOf */\n              0x70a08231\n              swap1\n                /* \"#utility.yul\":2691:2709   */\n              0x24\n              add\n                /* \"Lock.sol\":34528:34564  stakedToken.balanceOf(address(this)) */\n              0x20\n              mload(0x40)\n              dup1\n              dup4\n              sub\n              dup2\n              dup7\n              gas\n              staticcall\n              iszero\n              dup1\n              iszero\n              tag_384\n              jumpi\n              returndatasize\n              0x00\n              dup1\n              returndatacopy\n              revert(0x00, returndatasize)\n            tag_384:\n              pop\n              pop\n              pop\n              pop\n              mload(0x40)\n              returndatasize\n              not(0x1f)\n              0x1f\n              dup3\n              add\n              and\n              dup3\n              add\n              dup1\n              0x40\n              mstore\n              pop\n              dup2\n              add\n              swap1\n              tag_385\n              swap2\n              swap1\n              tag_277\n              jump\t// in\n            tag_385:\n                /* \"Lock.sol\":34500:34564  uint256 stakedTokenSupply = stakedToken.balanceOf(address(this)) */\n              swap1\n              pop\n                /* \"Lock.sol\":34581:34598  stakedTokenSupply */\n              dup1\n                /* \"Lock.sol\":34602:34603  0 */\n              0x00\n                /* \"Lock.sol\":34581:34603  stakedTokenSupply == 0 */\n              sub\n                /* \"Lock.sol\":34577:34683  if (stakedTokenSupply == 0) {... */\n              tag_386\n              jumpi\n              pop\n                /* \"Lock.sol\":34638:34650  block.number */\n              number\n                /* \"Lock.sol\":34620:34635  lastRewardBlock */\n              0x06\n                /* \"Lock.sol\":34620:34650  lastRewardBlock = block.number */\n              sstore\n                /* \"Lock.sol\":34375:34969  function _updatePool() internal {... */\n              jump\t// out\n                /* \"Lock.sol\":34577:34683  if (stakedTokenSupply == 0) {... */\n            tag_386:\n                /* \"Lock.sol\":34695:34713  uint256 multiplier */\n              0x00\n                /* \"Lock.sol\":34716:34761  _getMultiplier(lastRewardBlock, block.number) */\n              tag_387\n                /* \"Lock.sol\":34731:34746  lastRewardBlock */\n              sload(0x06)\n                /* \"Lock.sol\":34748:34760  block.number */\n              number\n                /* \"Lock.sol\":34716:34730  _getMultiplier */\n              tag_367\n                /* \"Lock.sol\":34716:34761  _getMultiplier(lastRewardBlock, block.number) */\n              jump\t// in\n            tag_387:\n                /* \"Lock.sol\":34695:34761  uint256 multiplier = _getMultiplier(lastRewardBlock, block.number) */\n              swap1\n              pop\n                /* \"Lock.sol\":34772:34790  uint256 cakeReward */\n              0x00\n                /* \"Lock.sol\":34806:34820  rewardPerBlock */\n              sload(0x0b)\n                /* \"Lock.sol\":34793:34803  multiplier */\n              dup3\n                /* \"Lock.sol\":34793:34820  multiplier * rewardPerBlock */\n              tag_388\n              swap2\n              swap1\n              tag_195\n              jump\t// in\n            tag_388:\n                /* \"Lock.sol\":34772:34820  uint256 cakeReward = multiplier * rewardPerBlock */\n              swap1\n              pop\n                /* \"Lock.sol\":34903:34920  stakedTokenSupply */\n              dup3\n                /* \"Lock.sol\":34883:34899  PRECISION_FACTOR */\n              sload(0x0c)\n                /* \"Lock.sol\":34870:34880  cakeReward */\n              dup3\n                /* \"Lock.sol\":34870:34899  cakeReward * PRECISION_FACTOR */\n              tag_389\n              swap2\n              swap1\n              tag_195\n              jump\t// in\n            tag_389:\n                /* \"Lock.sol\":34869:34920  (cakeReward * PRECISION_FACTOR) / stakedTokenSupply */\n              tag_390\n              swap2\n              swap1\n              tag_197\n              jump\t// in\n            tag_390:\n                /* \"Lock.sol\":34850:34866  accTokenPerShare */\n              sload(0x03)\n                /* \"Lock.sol\":34850:34920  accTokenPerShare + (cakeReward * PRECISION_FACTOR) / stakedTokenSupply */\n              tag_391\n              swap2\n              swap1\n              tag_244\n              jump\t// in\n            tag_391:\n                /* \"Lock.sol\":34831:34847  accTokenPerShare */\n              0x03\n                /* \"Lock.sol\":34831:34920  accTokenPerShare = accTokenPerShare + (cakeReward * PRECISION_FACTOR) / stakedTokenSupply */\n              sstore\n              pop\n              pop\n                /* \"Lock.sol\":34949:34961  block.number */\n              number\n                /* \"Lock.sol\":34931:34946  lastRewardBlock */\n              0x06\n                /* \"Lock.sol\":34931:34961  lastRewardBlock = block.number */\n              sstore\n              pop\n                /* \"Lock.sol\":34375:34969  function _updatePool() internal {... */\n              jump\t// out\n                /* \"Lock.sol\":17035:17246  function safeTransfer(... */\n            tag_202:\n                /* \"Lock.sol\":17179:17237  abi.encodeWithSelector(token.transfer.selector, to, value) */\n              mload(0x40)\n              sub(shl(0xa0, 0x01), 0x01)\n                /* \"#utility.yul\":14642:14674   */\n              dup4\n              and\n                /* \"Lock.sol\":17179:17237  abi.encodeWithSelector(token.transfer.selector, to, value) */\n              0x24\n              dup3\n              add\n                /* \"#utility.yul\":14624:14675   */\n              mstore\n                /* \"#utility.yul\":14691:14709   */\n              0x44\n              dup2\n              add\n                /* \"#utility.yul\":14684:14718   */\n              dup3\n              swap1\n              mstore\n                /* \"Lock.sol\":17152:17238  _callOptionalReturn(token, abi.encodeWithSelector(token.transfer.selector, to, value)) */\n              tag_393\n              swap1\n                /* \"Lock.sol\":17172:17177  token */\n              dup5\n              swap1\n              shl(0xe0, 0xa9059cbb)\n                /* \"Lock.sol\":17202:17225  token.transfer.selector */\n              swap1\n                /* \"#utility.yul\":14597:14615   */\n              0x64\n              add\n                /* \"Lock.sol\":17179:17237  abi.encodeWithSelector(token.transfer.selector, to, value) */\n            tag_394:\n              0x40\n              dup1\n              mload\n              not(0x1f)\n              dup2\n              dup5\n              sub\n              add\n              dup2\n              mstore\n              swap2\n              swap1\n              mstore\n              0x20\n              dup2\n              add\n              dup1\n              mload\n              sub(shl(0xe0, 0x01), 0x01)\n              and\n              not(sub(shl(0xe0, 0x01), 0x01))\n              swap1\n              swap4\n              and\n              swap3\n              swap1\n              swap3\n              or\n              swap1\n              swap2\n              mstore\n                /* \"Lock.sol\":17152:17171  _callOptionalReturn */\n              tag_396\n                /* \"Lock.sol\":17152:17238  _callOptionalReturn(token, abi.encodeWithSelector(token.transfer.selector, to, value)) */\n              jump\t// in\n            tag_393:\n                /* \"Lock.sol\":17035:17246  function safeTransfer(... */\n              pop\n              pop\n              pop\n              jump\t// out\n                /* \"Lock.sol\":5751:5924  function _setOwner(address newOwner) private {... */\n            tag_233:\n                /* \"Lock.sol\":5807:5823  address oldOwner */\n              0x00\n                /* \"Lock.sol\":5826:5832  _owner */\n              dup1\n              sload\n              sub(shl(0xa0, 0x01), 0x01)\n                /* \"Lock.sol\":5843:5860  _owner = newOwner */\n              dup4\n              dup2\n              and\n              not(sub(shl(0xa0, 0x01), 0x01))\n              dup4\n              and\n              dup2\n              or\n              dup5\n              sstore\n                /* \"Lock.sol\":5876:5916  OwnershipTransferred(oldOwner, newOwner) */\n              mload(0x40)\n                /* \"Lock.sol\":5826:5832  _owner */\n              swap2\n              swap1\n              swap3\n              and\n              swap3\n              dup4\n              swap2\n                /* \"Lock.sol\":5876:5916  OwnershipTransferred(oldOwner, newOwner) */\n              0x8be0079c531659141344cd1fd0a4f28419497f9722a3daafe3b4186f6b6457e0\n              swap2\n                /* \"Lock.sol\":5807:5823  address oldOwner */\n              swap1\n                /* \"Lock.sol\":5876:5916  OwnershipTransferred(oldOwner, newOwner) */\n              log3\n                /* \"Lock.sol\":5796:5924  {... */\n              pop\n                /* \"Lock.sol\":5751:5924  function _setOwner(address newOwner) private {... */\n              pop\n              jump\t// out\n                /* \"Lock.sol\":17254:17502  function safeTransferFrom(... */\n            tag_338:\n                /* \"Lock.sol\":17425:17493  abi.encodeWithSelector(token.transferFrom.selector, from, to, value) */\n              mload(0x40)\n              sub(shl(0xa0, 0x01), 0x01)\n                /* \"#utility.yul\":14987:15002   */\n              dup1\n              dup6\n              and\n                /* \"Lock.sol\":17425:17493  abi.encodeWithSelector(token.transferFrom.selector, from, to, value) */\n              0x24\n              dup4\n              add\n                /* \"#utility.yul\":14969:15003   */\n              mstore\n                /* \"#utility.yul\":15039:15054   */\n              dup4\n              and\n                /* \"#utility.yul\":15019:15037   */\n              0x44\n              dup3\n              add\n                /* \"#utility.yul\":15012:15055   */\n              mstore\n                /* \"#utility.yul\":15071:15089   */\n              0x64\n              dup2\n              add\n                /* \"#utility.yul\":15064:15098   */\n              dup3\n              swap1\n              mstore\n                /* \"Lock.sol\":17398:17494  _callOptionalReturn(token, abi.encodeWithSelector(token.transferFrom.selector, from, to, value)) */\n              tag_399\n              swap1\n                /* \"Lock.sol\":17418:17423  token */\n              dup6\n              swap1\n              shl(0xe0, 0x23b872dd)\n                /* \"Lock.sol\":17448:17475  token.transferFrom.selector */\n              swap1\n                /* \"#utility.yul\":14904:14922   */\n              0x84\n              add\n                /* \"Lock.sol\":17425:17493  abi.encodeWithSelector(token.transferFrom.selector, from, to, value) */\n              tag_394\n                /* \"#utility.yul\":14729:15104   */\n              jump\n                /* \"Lock.sol\":17398:17494  _callOptionalReturn(token, abi.encodeWithSelector(token.transferFrom.selector, from, to, value)) */\n            tag_399:\n                /* \"Lock.sol\":17254:17502  function safeTransferFrom(... */\n              pop\n              pop\n              pop\n              pop\n              jump\t// out\n                /* \"Lock.sol\":35143:35446  function _getMultiplier(uint256 _from, uint256 _to) internal view returns (uint256) {... */\n            tag_367:\n                /* \"Lock.sol\":35218:35225  uint256 */\n              0x00\n                /* \"Lock.sol\":35249:35262  bonusEndBlock */\n              sload(0x04)\n                /* \"Lock.sol\":35242:35245  _to */\n              dup3\n                /* \"Lock.sol\":35242:35262  _to <= bonusEndBlock */\n              gt\n                /* \"Lock.sol\":35238:35439  if (_to <= bonusEndBlock) {... */\n              tag_403\n              jumpi\n                /* \"Lock.sol\":35286:35297  _to - _from */\n              tag_404\n                /* \"Lock.sol\":35292:35297  _from */\n              dup4\n                /* \"Lock.sol\":35286:35289  _to */\n              dup4\n                /* \"Lock.sol\":35286:35297  _to - _from */\n              tag_180\n              jump\t// in\n            tag_404:\n                /* \"Lock.sol\":35279:35297  return _to - _from */\n              swap1\n              pop\n              jump(tag_407)\n                /* \"Lock.sol\":35238:35439  if (_to <= bonusEndBlock) {... */\n            tag_403:\n                /* \"Lock.sol\":35328:35341  bonusEndBlock */\n              sload(0x04)\n                /* \"Lock.sol\":35319:35324  _from */\n              dup4\n                /* \"Lock.sol\":35319:35341  _from >= bonusEndBlock */\n              lt\n                /* \"Lock.sol\":35315:35439  if (_from >= bonusEndBlock) {... */\n              tag_406\n              jumpi\n              pop\n                /* \"Lock.sol\":35365:35366  0 */\n              0x00\n                /* \"Lock.sol\":35358:35366  return 0 */\n              jump(tag_407)\n                /* \"Lock.sol\":35315:35439  if (_from >= bonusEndBlock) {... */\n            tag_406:\n                /* \"Lock.sol\":35422:35427  _from */\n              dup3\n                /* \"Lock.sol\":35406:35419  bonusEndBlock */\n              sload(0x04)\n                /* \"Lock.sol\":35406:35427  bonusEndBlock - _from */\n              tag_404\n              swap2\n              swap1\n              tag_180\n              jump\t// in\n                /* \"Lock.sol\":35315:35439  if (_from >= bonusEndBlock) {... */\n            tag_407:\n                /* \"Lock.sol\":35143:35446  function _getMultiplier(uint256 _from, uint256 _to) internal view returns (uint256) {... */\n              swap3\n              swap2\n              pop\n              pop\n              jump\t// out\n                /* \"Lock.sol\":19584:20300  function _callOptionalReturn(IERC20 token, bytes memory data) private {... */\n            tag_396:\n                /* \"Lock.sol\":20008:20031  bytes memory returndata */\n              0x00\n                /* \"Lock.sol\":20034:20103  address(token).functionCall(data, \"SafeERC20: low-level call failed\") */\n              tag_410\n                /* \"Lock.sol\":20062:20066  data */\n              dup3\n                /* \"Lock.sol\":20034:20103  address(token).functionCall(data, \"SafeERC20: low-level call failed\") */\n              mload(0x40)\n              dup1\n              0x40\n              add\n              0x40\n              mstore\n              dup1\n              0x20\n              dup2\n              mstore\n              0x20\n              add\n              0x5361666545524332303a206c6f772d6c6576656c2063616c6c206661696c6564\n              dup2\n              mstore\n              pop\n                /* \"Lock.sol\":20042:20047  token */\n              dup6\n              sub(shl(0xa0, 0x01), 0x01)\n                /* \"Lock.sol\":20034:20061  address(token).functionCall */\n              and\n              tag_411\n              swap1\n                /* \"Lock.sol\":20034:20103  address(token).functionCall(data, \"SafeERC20: low-level call failed\") */\n              swap3\n              swap2\n              swap1\n              0xffffffff\n              and\n              jump\t// in\n            tag_410:\n                /* \"Lock.sol\":20118:20135  returndata.length */\n              dup1\n              mload\n                /* \"Lock.sol\":20008:20103  bytes memory returndata = address(token).functionCall(data, \"SafeERC20: low-level call failed\") */\n              swap1\n              swap2\n              pop\n                /* \"Lock.sol\":20118:20139  returndata.length > 0 */\n              iszero\n                /* \"Lock.sol\":20114:20293  if (returndata.length > 0) {... */\n              tag_393\n              jumpi\n                /* \"Lock.sol\":20215:20225  returndata */\n              dup1\n                /* \"Lock.sol\":20204:20234  abi.decode(returndata, (bool)) */\n              dup1\n              0x20\n              add\n              swap1\n              mload\n              dup2\n              add\n              swap1\n              tag_413\n              swap2\n              swap1\n              tag_308\n              jump\t// in\n            tag_413:\n                /* \"Lock.sol\":20196:20281  require(abi.decode(returndata, (bool)), \"SafeERC20: ERC20 operation did not succeed\") */\n              tag_393\n              jumpi\n              mload(0x40)\n              shl(0xe5, 0x461bcd)\n              dup2\n              mstore\n                /* \"#utility.yul\":15311:15313   */\n              0x20\n                /* \"Lock.sol\":20196:20281  require(abi.decode(returndata, (bool)), \"SafeERC20: ERC20 operation did not succeed\") */\n              0x04\n              dup3\n              add\n                /* \"#utility.yul\":15293:15314   */\n              mstore\n                /* \"#utility.yul\":15350:15352   */\n              0x2a\n                /* \"#utility.yul\":15330:15348   */\n              0x24\n              dup3\n              add\n                /* \"#utility.yul\":15323:15353   */\n              mstore\n                /* \"#utility.yul\":15389:15423   */\n              0x5361666545524332303a204552433230206f7065726174696f6e20646964206e\n                /* \"#utility.yul\":15369:15387   */\n              0x44\n              dup3\n              add\n                /* \"#utility.yul\":15362:15424   */\n              mstore\n              shl(0xb2, 0x1bdd081cdd58d8d95959)\n                /* \"#utility.yul\":15440:15458   */\n              0x64\n              dup3\n              add\n                /* \"#utility.yul\":15433:15473   */\n              mstore\n                /* \"#utility.yul\":15490:15509   */\n              0x84\n              add\n                /* \"Lock.sol\":20196:20281  require(abi.decode(returndata, (bool)), \"SafeERC20: ERC20 operation did not succeed\") */\n              tag_157\n                /* \"#utility.yul\":15109:15515   */\n              jump\n                /* \"Lock.sol\":12130:12359  function functionCall(... */\n            tag_411:\n                /* \"Lock.sol\":12267:12279  bytes memory */\n              0x60\n                /* \"Lock.sol\":12299:12351  functionCallWithValue(target, data, 0, errorMessage) */\n              tag_418\n                /* \"Lock.sol\":12321:12327  target */\n              dup5\n                /* \"Lock.sol\":12329:12333  data */\n              dup5\n                /* \"Lock.sol\":12335:12336  0 */\n              0x00\n                /* \"Lock.sol\":12338:12350  errorMessage */\n              dup6\n                /* \"Lock.sol\":12299:12320  functionCallWithValue */\n              tag_419\n                /* \"Lock.sol\":12299:12351  functionCallWithValue(target, data, 0, errorMessage) */\n              jump\t// in\n            tag_418:\n                /* \"Lock.sol\":12292:12351  return functionCallWithValue(target, data, 0, errorMessage) */\n              swap1\n              pop\n                /* \"Lock.sol\":12130:12359  function functionCall(... */\n            tag_417:\n              swap4\n              swap3\n              pop\n              pop\n              pop\n              jump\t// out\n                /* \"Lock.sol\":13250:13761  function functionCallWithValue(... */\n            tag_419:\n                /* \"Lock.sol\":13420:13432  bytes memory */\n              0x60\n                /* \"Lock.sol\":13478:13483  value */\n              dup3\n                /* \"Lock.sol\":13453:13474  address(this).balance */\n              selfbalance\n                /* \"Lock.sol\":13453:13483  address(this).balance >= value */\n              lt\n              iszero\n                /* \"Lock.sol\":13445:13526  require(address(this).balance >= value, \"Address: insufficient balance for call\") */\n              tag_421\n              jumpi\n              mload(0x40)\n              shl(0xe5, 0x461bcd)\n              dup2\n              mstore\n                /* \"#utility.yul\":15722:15724   */\n              0x20\n                /* \"Lock.sol\":13445:13526  require(address(this).balance >= value, \"Address: insufficient balance for call\") */\n              0x04\n              dup3\n              add\n                /* \"#utility.yul\":15704:15725   */\n              mstore\n                /* \"#utility.yul\":15761:15763   */\n              0x26\n                /* \"#utility.yul\":15741:15759   */\n              0x24\n              dup3\n              add\n                /* \"#utility.yul\":15734:15764   */\n              mstore\n                /* \"#utility.yul\":15800:15834   */\n              0x416464726573733a20696e73756666696369656e742062616c616e636520666f\n                /* \"#utility.yul\":15780:15798   */\n              0x44\n              dup3\n              add\n                /* \"#utility.yul\":15773:15835   */\n              mstore\n              shl(0xd2, 0x1c8818d85b1b)\n                /* \"#utility.yul\":15851:15869   */\n              0x64\n              dup3\n              add\n                /* \"#utility.yul\":15844:15880   */\n              mstore\n                /* \"#utility.yul\":15897:15916   */\n              0x84\n              add\n                /* \"Lock.sol\":13445:13526  require(address(this).balance >= value, \"Address: insufficient balance for call\") */\n              tag_157\n                /* \"#utility.yul\":15520:15922   */\n              jump\n                /* \"Lock.sol\":13445:13526  require(address(this).balance >= value, \"Address: insufficient balance for call\") */\n            tag_421:\n                /* \"Lock.sol\":9647:9667  extcodesize(account) */\n              dup5\n              extcodesize\n                /* \"Lock.sol\":13537:13597  require(isContract(target), \"Address: call to non-contract\") */\n              tag_426\n              jumpi\n              mload(0x40)\n              shl(0xe5, 0x461bcd)\n              dup2\n              mstore\n                /* \"#utility.yul\":16129:16131   */\n              0x20\n                /* \"Lock.sol\":13537:13597  require(isContract(target), \"Address: call to non-contract\") */\n              0x04\n              dup3\n              add\n                /* \"#utility.yul\":16111:16132   */\n              mstore\n                /* \"#utility.yul\":16168:16170   */\n              0x1d\n                /* \"#utility.yul\":16148:16166   */\n              0x24\n              dup3\n              add\n                /* \"#utility.yul\":16141:16171   */\n              mstore\n                /* \"#utility.yul\":16207:16238   */\n              0x416464726573733a2063616c6c20746f206e6f6e2d636f6e7472616374000000\n                /* \"#utility.yul\":16187:16205   */\n              0x44\n              dup3\n              add\n                /* \"#utility.yul\":16180:16239   */\n              mstore\n                /* \"#utility.yul\":16256:16274   */\n              0x64\n              add\n                /* \"Lock.sol\":13537:13597  require(isContract(target), \"Address: call to non-contract\") */\n              tag_157\n                /* \"#utility.yul\":15927:16280   */\n              jump\n                /* \"Lock.sol\":13537:13597  require(isContract(target), \"Address: call to non-contract\") */\n            tag_426:\n                /* \"Lock.sol\":13611:13623  bool success */\n              0x00\n                /* \"Lock.sol\":13625:13648  bytes memory returndata */\n              dup1\n                /* \"Lock.sol\":13652:13658  target */\n              dup7\n              sub(shl(0xa0, 0x01), 0x01)\n                /* \"Lock.sol\":13652:13663  target.call */\n              and\n                /* \"Lock.sol\":13671:13676  value */\n              dup6\n                /* \"Lock.sol\":13678:13682  data */\n              dup8\n                /* \"Lock.sol\":13652:13683  target.call{value: value}(data) */\n              mload(0x40)\n              tag_429\n              swap2\n              swap1\n              tag_430\n              jump\t// in\n            tag_429:\n              0x00\n              mload(0x40)\n              dup1\n              dup4\n              sub\n              dup2\n              dup6\n              dup8\n              gas\n              call\n              swap3\n              pop\n              pop\n              pop\n              returndatasize\n              dup1\n              0x00\n              dup2\n              eq\n              tag_433\n              jumpi\n              mload(0x40)\n              swap2\n              pop\n              and(add(returndatasize, 0x3f), not(0x1f))\n              dup3\n              add\n              0x40\n              mstore\n              returndatasize\n              dup3\n              mstore\n              returndatasize\n              0x00\n              0x20\n              dup5\n              add\n              returndatacopy\n              jump(tag_432)\n            tag_433:\n              0x60\n              swap2\n              pop\n            tag_432:\n              pop\n                /* \"Lock.sol\":13610:13683  (bool success, bytes memory returndata) = target.call{value: value}(data) */\n              swap2\n              pop\n              swap2\n              pop\n                /* \"Lock.sol\":13701:13753  _verifyCallResult(success, returndata, errorMessage) */\n              tag_374\n                /* \"Lock.sol\":13719:13726  success */\n              dup3\n                /* \"Lock.sol\":13728:13738  returndata */\n              dup3\n                /* \"Lock.sol\":13740:13752  errorMessage */\n              dup7\n                /* \"Lock.sol\":15869:15881  bytes memory */\n              0x60\n                /* \"Lock.sol\":15898:15905  success */\n              dup4\n                /* \"Lock.sol\":15894:16424  if (success) {... */\n              iszero\n              tag_438\n              jumpi\n              pop\n                /* \"Lock.sol\":15929:15939  returndata */\n              dup2\n                /* \"Lock.sol\":15922:15939  return returndata */\n              jump(tag_417)\n                /* \"Lock.sol\":15894:16424  if (success) {... */\n            tag_438:\n                /* \"Lock.sol\":16043:16060  returndata.length */\n              dup3\n              mload\n                /* \"Lock.sol\":16043:16064  returndata.length > 0 */\n              iszero\n                /* \"Lock.sol\":16039:16413  if (returndata.length > 0) {... */\n              tag_440\n              jumpi\n                /* \"Lock.sol\":16241:16251  returndata */\n              dup3\n                /* \"Lock.sol\":16235:16252  mload(returndata) */\n              mload\n                /* \"Lock.sol\":16302:16317  returndata_size */\n              dup1\n                /* \"Lock.sol\":16289:16299  returndata */\n              dup5\n                /* \"Lock.sol\":16285:16287  32 */\n              0x20\n                /* \"Lock.sol\":16281:16300  add(32, returndata) */\n              add\n                /* \"Lock.sol\":16274:16318  revert(add(32, returndata), returndata_size) */\n              revert\n                /* \"Lock.sol\":16039:16413  if (returndata.length > 0) {... */\n            tag_440:\n                /* \"Lock.sol\":16384:16396  errorMessage */\n              dup2\n                /* \"Lock.sol\":16377:16397  revert(errorMessage) */\n              mload(0x40)\n              shl(0xe5, 0x461bcd)\n              dup2\n              mstore\n              0x04\n              add\n              tag_157\n              swap2\n              swap1\n              tag_443\n              jump\t// in\n                /* \"#utility.yul\":14:194   */\n            tag_45:\n                /* \"#utility.yul\":73:79   */\n              0x00\n                /* \"#utility.yul\":126:128   */\n              0x20\n                /* \"#utility.yul\":114:123   */\n              dup3\n                /* \"#utility.yul\":105:112   */\n              dup5\n                /* \"#utility.yul\":101:124   */\n              sub\n                /* \"#utility.yul\":97:129   */\n              slt\n                /* \"#utility.yul\":94:146   */\n              iszero\n              tag_452\n              jumpi\n                /* \"#utility.yul\":142:143   */\n              0x00\n                /* \"#utility.yul\":139:140   */\n              dup1\n                /* \"#utility.yul\":132:144   */\n              revert\n                /* \"#utility.yul\":94:146   */\n            tag_452:\n              pop\n                /* \"#utility.yul\":165:188   */\n              calldataload\n              swap2\n                /* \"#utility.yul\":14:194   */\n              swap1\n              pop\n              jump\t// out\n                /* \"#utility.yul\":381:512   */\n            tag_444:\n              sub(shl(0xa0, 0x01), 0x01)\n                /* \"#utility.yul\":456:487   */\n              dup2\n              and\n                /* \"#utility.yul\":446:488   */\n              dup2\n              eq\n                /* \"#utility.yul\":436:506   */\n              tag_214\n              jumpi\n                /* \"#utility.yul\":502:503   */\n              0x00\n                /* \"#utility.yul\":499:500   */\n              dup1\n                /* \"#utility.yul\":492:504   */\n              revert\n                /* \"#utility.yul\":517:764   */\n            tag_53:\n                /* \"#utility.yul\":576:582   */\n              0x00\n                /* \"#utility.yul\":629:631   */\n              0x20\n                /* \"#utility.yul\":617:626   */\n              dup3\n                /* \"#utility.yul\":608:615   */\n              dup5\n                /* \"#utility.yul\":604:627   */\n              sub\n                /* \"#utility.yul\":600:632   */\n              slt\n                /* \"#utility.yul\":597:649   */\n              iszero\n              tag_457\n              jumpi\n                /* \"#utility.yul\":645:646   */\n              0x00\n                /* \"#utility.yul\":642:643   */\n              dup1\n                /* \"#utility.yul\":635:647   */\n              revert\n                /* \"#utility.yul\":597:649   */\n            tag_457:\n                /* \"#utility.yul\":684:693   */\n              dup2\n                /* \"#utility.yul\":671:694   */\n              calldataload\n                /* \"#utility.yul\":703:734   */\n              tag_417\n                /* \"#utility.yul\":728:733   */\n              dup2\n                /* \"#utility.yul\":703:734   */\n              tag_444\n              jump\t// in\n                /* \"#utility.yul\":1022:1938   */\n            tag_62:\n                /* \"#utility.yul\":1186:1192   */\n              0x00\n                /* \"#utility.yul\":1194:1200   */\n              dup1\n                /* \"#utility.yul\":1202:1208   */\n              0x00\n                /* \"#utility.yul\":1210:1216   */\n              dup1\n                /* \"#utility.yul\":1218:1224   */\n              0x00\n                /* \"#utility.yul\":1226:1232   */\n              dup1\n                /* \"#utility.yul\":1234:1240   */\n              0x00\n                /* \"#utility.yul\":1242:1248   */\n              dup1\n                /* \"#utility.yul\":1295:1298   */\n              0x0100\n                /* \"#utility.yul\":1283:1292   */\n              dup10\n                /* \"#utility.yul\":1274:1281   */\n              dup12\n                /* \"#utility.yul\":1270:1293   */\n              sub\n                /* \"#utility.yul\":1266:1299   */\n              slt\n                /* \"#utility.yul\":1263:1316   */\n              iszero\n              tag_461\n              jumpi\n                /* \"#utility.yul\":1312:1313   */\n              0x00\n                /* \"#utility.yul\":1309:1310   */\n              dup1\n                /* \"#utility.yul\":1302:1314   */\n              revert\n                /* \"#utility.yul\":1263:1316   */\n            tag_461:\n                /* \"#utility.yul\":1351:1360   */\n              dup9\n                /* \"#utility.yul\":1338:1361   */\n              calldataload\n                /* \"#utility.yul\":1370:1401   */\n              tag_462\n                /* \"#utility.yul\":1395:1400   */\n              dup2\n                /* \"#utility.yul\":1370:1401   */\n              tag_444\n              jump\t// in\n            tag_462:\n                /* \"#utility.yul\":1420:1425   */\n              swap8\n              pop\n                /* \"#utility.yul\":1477:1479   */\n              0x20\n                /* \"#utility.yul\":1462:1480   */\n              dup10\n              add\n                /* \"#utility.yul\":1449:1481   */\n              calldataload\n                /* \"#utility.yul\":1490:1523   */\n              tag_463\n                /* \"#utility.yul\":1449:1481   */\n              dup2\n                /* \"#utility.yul\":1490:1523   */\n              tag_444\n              jump\t// in\n            tag_463:\n                /* \"#utility.yul\":1542:1549   */\n              swap7\n              pop\n                /* \"#utility.yul\":1596:1598   */\n              0x40\n                /* \"#utility.yul\":1581:1599   */\n              dup10\n              add\n                /* \"#utility.yul\":1568:1600   */\n              calldataload\n              swap6\n              pop\n                /* \"#utility.yul\":1647:1649   */\n              0x60\n                /* \"#utility.yul\":1632:1650   */\n              dup10\n              add\n                /* \"#utility.yul\":1619:1651   */\n              calldataload\n              swap5\n              pop\n                /* \"#utility.yul\":1698:1701   */\n              0x80\n                /* \"#utility.yul\":1683:1702   */\n              dup10\n              add\n                /* \"#utility.yul\":1670:1703   */\n              calldataload\n              swap4\n              pop\n                /* \"#utility.yul\":1750:1753   */\n              0xa0\n                /* \"#utility.yul\":1735:1754   */\n              dup10\n              add\n                /* \"#utility.yul\":1722:1755   */\n              calldataload\n              swap3\n              pop\n                /* \"#utility.yul\":1802:1805   */\n              0xc0\n                /* \"#utility.yul\":1787:1806   */\n              dup10\n              add\n                /* \"#utility.yul\":1774:1807   */\n              calldataload\n              swap2\n              pop\n                /* \"#utility.yul\":1859:1862   */\n              0xe0\n                /* \"#utility.yul\":1844:1863   */\n              dup10\n              add\n                /* \"#utility.yul\":1831:1864   */\n              calldataload\n                /* \"#utility.yul\":1873:1906   */\n              tag_464\n                /* \"#utility.yul\":1831:1864   */\n              dup2\n                /* \"#utility.yul\":1873:1906   */\n              tag_444\n              jump\t// in\n            tag_464:\n                /* \"#utility.yul\":1925:1932   */\n              dup1\n                /* \"#utility.yul\":1915:1932   */\n              swap2\n              pop\n              pop\n                /* \"#utility.yul\":1022:1938   */\n              swap3\n              swap6\n              swap9\n              pop\n              swap3\n              swap6\n              swap9\n              swap1\n              swap4\n              swap7\n              pop\n              jump\t// out\n                /* \"#utility.yul\":2135:2253   */\n            tag_445:\n                /* \"#utility.yul\":2221:2226   */\n              dup1\n                /* \"#utility.yul\":2214:2227   */\n              iszero\n                /* \"#utility.yul\":2207:2228   */\n              iszero\n                /* \"#utility.yul\":2200:2205   */\n              dup2\n                /* \"#utility.yul\":2197:2229   */\n              eq\n                /* \"#utility.yul\":2187:2247   */\n              tag_214\n              jumpi\n                /* \"#utility.yul\":2243:2244   */\n              0x00\n                /* \"#utility.yul\":2240:2241   */\n              dup1\n                /* \"#utility.yul\":2233:2245   */\n              revert\n                /* \"#utility.yul\":2258:2567   */\n            tag_88:\n                /* \"#utility.yul\":2323:2329   */\n              0x00\n                /* \"#utility.yul\":2331:2337   */\n              dup1\n                /* \"#utility.yul\":2384:2386   */\n              0x40\n                /* \"#utility.yul\":2372:2381   */\n              dup4\n                /* \"#utility.yul\":2363:2370   */\n              dup6\n                /* \"#utility.yul\":2359:2382   */\n              sub\n                /* \"#utility.yul\":2355:2387   */\n              slt\n                /* \"#utility.yul\":2352:2404   */\n              iszero\n              tag_469\n              jumpi\n                /* \"#utility.yul\":2400:2401   */\n              0x00\n                /* \"#utility.yul\":2397:2398   */\n              dup1\n                /* \"#utility.yul\":2390:2402   */\n              revert\n                /* \"#utility.yul\":2352:2404   */\n            tag_469:\n                /* \"#utility.yul\":2439:2448   */\n              dup3\n                /* \"#utility.yul\":2426:2449   */\n              calldataload\n                /* \"#utility.yul\":2458:2486   */\n              tag_470\n                /* \"#utility.yul\":2480:2485   */\n              dup2\n                /* \"#utility.yul\":2458:2486   */\n              tag_445\n              jump\t// in\n            tag_470:\n                /* \"#utility.yul\":2505:2510   */\n              swap5\n                /* \"#utility.yul\":2557:2559   */\n              0x20\n                /* \"#utility.yul\":2542:2560   */\n              swap4\n              swap1\n              swap4\n              add\n                /* \"#utility.yul\":2529:2561   */\n              calldataload\n              swap4\n              pop\n              pop\n              pop\n                /* \"#utility.yul\":2258:2567   */\n              jump\t// out\n                /* \"#utility.yul\":2780:3028   */\n            tag_112:\n                /* \"#utility.yul\":2848:2854   */\n              0x00\n                /* \"#utility.yul\":2856:2862   */\n              dup1\n                /* \"#utility.yul\":2909:2911   */\n              0x40\n                /* \"#utility.yul\":2897:2906   */\n              dup4\n                /* \"#utility.yul\":2888:2895   */\n              dup6\n                /* \"#utility.yul\":2884:2907   */\n              sub\n                /* \"#utility.yul\":2880:2912   */\n              slt\n                /* \"#utility.yul\":2877:2929   */\n              iszero\n              tag_473\n              jumpi\n                /* \"#utility.yul\":2925:2926   */\n              0x00\n                /* \"#utility.yul\":2922:2923   */\n              dup1\n                /* \"#utility.yul\":2915:2927   */\n              revert\n                /* \"#utility.yul\":2877:2929   */\n            tag_473:\n              pop\n              pop\n                /* \"#utility.yul\":2948:2971   */\n              dup1\n              calldataload\n              swap3\n                /* \"#utility.yul\":3018:3020   */\n              0x20\n                /* \"#utility.yul\":3003:3021   */\n              swap1\n              swap2\n              add\n                /* \"#utility.yul\":2990:3022   */\n              calldataload\n              swap2\n              pop\n                /* \"#utility.yul\":2780:3028   */\n              jump\t// out\n                /* \"#utility.yul\":3493:3849   */\n            tag_158:\n                /* \"#utility.yul\":3695:3697   */\n              0x20\n                /* \"#utility.yul\":3677:3698   */\n              dup1\n              dup3\n              mstore\n                /* \"#utility.yul\":3714:3732   */\n              dup2\n              dup2\n              add\n                /* \"#utility.yul\":3707:3737   */\n              mstore\n                /* \"#utility.yul\":3773:3807   */\n              0x4f776e61626c653a2063616c6c6572206973206e6f7420746865206f776e6572\n                /* \"#utility.yul\":3768:3770   */\n              0x40\n                /* \"#utility.yul\":3753:3771   */\n              dup3\n              add\n                /* \"#utility.yul\":3746:3808   */\n              mstore\n                /* \"#utility.yul\":3840:3842   */\n              0x60\n                /* \"#utility.yul\":3825:3843   */\n              add\n              swap1\n                /* \"#utility.yul\":3493:3849   */\n              jump\t// out\n                /* \"#utility.yul\":4887:5160   */\n            tag_175:\n                /* \"#utility.yul\":4955:4961   */\n              0x00\n                /* \"#utility.yul\":5008:5010   */\n              0x20\n                /* \"#utility.yul\":4996:5005   */\n              dup3\n                /* \"#utility.yul\":4987:4994   */\n              dup5\n                /* \"#utility.yul\":4983:5006   */\n              sub\n                /* \"#utility.yul\":4979:5011   */\n              slt\n                /* \"#utility.yul\":4976:5028   */\n              iszero\n              tag_481\n              jumpi\n                /* \"#utility.yul\":5024:5025   */\n              0x00\n                /* \"#utility.yul\":5021:5022   */\n              dup1\n                /* \"#utility.yul\":5014:5026   */\n              revert\n                /* \"#utility.yul\":4976:5028   */\n            tag_481:\n                /* \"#utility.yul\":5056:5065   */\n              dup2\n                /* \"#utility.yul\":5050:5066   */\n              mload\n                /* \"#utility.yul\":5106:5110   */\n              0xff\n                /* \"#utility.yul\":5099:5104   */\n              dup2\n                /* \"#utility.yul\":5095:5111   */\n              and\n                /* \"#utility.yul\":5088:5093   */\n              dup2\n                /* \"#utility.yul\":5085:5112   */\n              eq\n                /* \"#utility.yul\":5075:5130   */\n              tag_417\n              jumpi\n                /* \"#utility.yul\":5126:5127   */\n              0x00\n                /* \"#utility.yul\":5123:5124   */\n              dup1\n                /* \"#utility.yul\":5116:5128   */\n              revert\n                /* \"#utility.yul\":5514:5641   */\n            tag_446:\n                /* \"#utility.yul\":5575:5585   */\n              0x4e487b71\n                /* \"#utility.yul\":5570:5573   */\n              0xe0\n                /* \"#utility.yul\":5566:5586   */\n              shl\n                /* \"#utility.yul\":5563:5564   */\n              0x00\n                /* \"#utility.yul\":5556:5587   */\n              mstore\n                /* \"#utility.yul\":5606:5610   */\n              0x11\n                /* \"#utility.yul\":5603:5604   */\n              0x04\n                /* \"#utility.yul\":5596:5611   */\n              mstore\n                /* \"#utility.yul\":5630:5634   */\n              0x24\n                /* \"#utility.yul\":5627:5628   */\n              0x00\n                /* \"#utility.yul\":5620:5635   */\n              revert\n                /* \"#utility.yul\":5646:5774   */\n            tag_180:\n                /* \"#utility.yul\":5713:5722   */\n              dup2\n              dup2\n              sub\n                /* \"#utility.yul\":5734:5745   */\n              dup2\n              dup2\n              gt\n                /* \"#utility.yul\":5731:5768   */\n              iszero\n              tag_407\n              jumpi\n                /* \"#utility.yul\":5748:5766   */\n              tag_407\n              tag_446\n              jump\t// in\n                /* \"#utility.yul\":5779:6201   */\n            tag_447:\n                /* \"#utility.yul\":5868:5869   */\n              0x01\n                /* \"#utility.yul\":5911:5916   */\n              dup2\n                /* \"#utility.yul\":5868:5869   */\n              dup2\n                /* \"#utility.yul\":5925:6195   */\n            tag_489:\n                /* \"#utility.yul\":5946:5953   */\n              dup1\n                /* \"#utility.yul\":5936:5944   */\n              dup6\n                /* \"#utility.yul\":5933:5954   */\n              gt\n                /* \"#utility.yul\":5925:6195   */\n              iszero\n              tag_491\n              jumpi\n                /* \"#utility.yul\":6005:6009   */\n              dup2\n                /* \"#utility.yul\":6001:6002   */\n              0x00\n                /* \"#utility.yul\":5997:6003   */\n              not\n                /* \"#utility.yul\":5993:6010   */\n              div\n                /* \"#utility.yul\":5987:5991   */\n              dup3\n                /* \"#utility.yul\":5984:6011   */\n              gt\n                /* \"#utility.yul\":5981:6034   */\n              iszero\n              tag_493\n              jumpi\n                /* \"#utility.yul\":6014:6032   */\n              tag_493\n              tag_446\n              jump\t// in\n            tag_493:\n                /* \"#utility.yul\":6064:6071   */\n              dup1\n                /* \"#utility.yul\":6054:6062   */\n              dup6\n                /* \"#utility.yul\":6050:6072   */\n              and\n                /* \"#utility.yul\":6047:6102   */\n              iszero\n              tag_494\n              jumpi\n                /* \"#utility.yul\":6084:6100   */\n              swap2\n              dup2\n              mul\n              swap2\n                /* \"#utility.yul\":6047:6102   */\n            tag_494:\n                /* \"#utility.yul\":6163:6185   */\n              swap4\n              dup5\n              shr\n              swap4\n                /* \"#utility.yul\":6123:6138   */\n              swap1\n              dup1\n              mul\n              swap1\n                /* \"#utility.yul\":5925:6195   */\n              jump(tag_489)\n            tag_491:\n                /* \"#utility.yul\":5929:5932   */\n              pop\n                /* \"#utility.yul\":5779:6201   */\n              swap3\n              pop\n              swap3\n              swap1\n              pop\n              jump\t// out\n                /* \"#utility.yul\":6206:7012   */\n            tag_448:\n                /* \"#utility.yul\":6255:6260   */\n              0x00\n                /* \"#utility.yul\":6285:6293   */\n              dup3\n                /* \"#utility.yul\":6275:6355   */\n              tag_496\n              jumpi\n              pop\n                /* \"#utility.yul\":6326:6327   */\n              0x01\n                /* \"#utility.yul\":6340:6345   */\n              jump(tag_407)\n                /* \"#utility.yul\":6275:6355   */\n            tag_496:\n                /* \"#utility.yul\":6374:6378   */\n              dup2\n                /* \"#utility.yul\":6364:6440   */\n              tag_497\n              jumpi\n              pop\n                /* \"#utility.yul\":6411:6412   */\n              0x00\n                /* \"#utility.yul\":6425:6430   */\n              jump(tag_407)\n                /* \"#utility.yul\":6364:6440   */\n            tag_497:\n                /* \"#utility.yul\":6456:6460   */\n              dup2\n                /* \"#utility.yul\":6474:6475   */\n              0x01\n                /* \"#utility.yul\":6469:6528   */\n              dup2\n              eq\n              tag_499\n              jumpi\n                /* \"#utility.yul\":6542:6543   */\n              0x02\n                /* \"#utility.yul\":6537:6667   */\n              dup2\n              eq\n              tag_500\n              jumpi\n                /* \"#utility.yul\":6449:6667   */\n              jump(tag_498)\n                /* \"#utility.yul\":6469:6528   */\n            tag_499:\n                /* \"#utility.yul\":6499:6500   */\n              0x01\n                /* \"#utility.yul\":6490:6500   */\n              swap2\n              pop\n                /* \"#utility.yul\":6513:6518   */\n              pop\n              jump(tag_407)\n                /* \"#utility.yul\":6537:6667   */\n            tag_500:\n                /* \"#utility.yul\":6574:6577   */\n              0xff\n                /* \"#utility.yul\":6564:6572   */\n              dup5\n                /* \"#utility.yul\":6561:6578   */\n              gt\n                /* \"#utility.yul\":6558:6601   */\n              iszero\n              tag_502\n              jumpi\n                /* \"#utility.yul\":6581:6599   */\n              tag_502\n              tag_446\n              jump\t// in\n            tag_502:\n              pop\n              pop\n                /* \"#utility.yul\":6637:6638   */\n              0x01\n                /* \"#utility.yul\":6623:6639   */\n              dup3\n              shl\n                /* \"#utility.yul\":6652:6657   */\n              jump(tag_407)\n                /* \"#utility.yul\":6449:6667   */\n            tag_498:\n              pop\n                /* \"#utility.yul\":6751:6753   */\n              0x20\n                /* \"#utility.yul\":6741:6749   */\n              dup4\n                /* \"#utility.yul\":6738:6754   */\n              lt\n                /* \"#utility.yul\":6732:6735   */\n              0x0133\n                /* \"#utility.yul\":6726:6730   */\n              dup4\n                /* \"#utility.yul\":6723:6736   */\n              lt\n                /* \"#utility.yul\":6719:6755   */\n              and\n                /* \"#utility.yul\":6713:6715   */\n              0x4e\n                /* \"#utility.yul\":6703:6711   */\n              dup5\n                /* \"#utility.yul\":6700:6716   */\n              lt\n                /* \"#utility.yul\":6695:6697   */\n              0x0b\n                /* \"#utility.yul\":6689:6693   */\n              dup5\n                /* \"#utility.yul\":6686:6698   */\n              lt\n                /* \"#utility.yul\":6682:6717   */\n              and\n                /* \"#utility.yul\":6679:6756   */\n              or\n                /* \"#utility.yul\":6676:6835   */\n              iszero\n              tag_503\n              jumpi\n              pop\n                /* \"#utility.yul\":6788:6807   */\n              dup2\n              dup2\n              exp\n                /* \"#utility.yul\":6820:6825   */\n              jump(tag_407)\n                /* \"#utility.yul\":6676:6835   */\n            tag_503:\n                /* \"#utility.yul\":6867:6901   */\n              tag_504\n                /* \"#utility.yul\":6892:6900   */\n              dup4\n                /* \"#utility.yul\":6886:6890   */\n              dup4\n                /* \"#utility.yul\":6867:6901   */\n              tag_447\n              jump\t// in\n            tag_504:\n                /* \"#utility.yul\":6937:6943   */\n              dup1\n                /* \"#utility.yul\":6933:6934   */\n              0x00\n                /* \"#utility.yul\":6929:6935   */\n              not\n                /* \"#utility.yul\":6925:6944   */\n              div\n                /* \"#utility.yul\":6916:6923   */\n              dup3\n                /* \"#utility.yul\":6913:6945   */\n              gt\n                /* \"#utility.yul\":6910:6968   */\n              iszero\n              tag_506\n              jumpi\n                /* \"#utility.yul\":6948:6966   */\n              tag_506\n              tag_446\n              jump\t// in\n            tag_506:\n                /* \"#utility.yul\":6986:7006   */\n              mul\n              swap4\n                /* \"#utility.yul\":6206:7012   */\n              swap3\n              pop\n              pop\n              pop\n              jump\t// out\n                /* \"#utility.yul\":7017:7148   */\n            tag_182:\n                /* \"#utility.yul\":7077:7082   */\n              0x00\n                /* \"#utility.yul\":7106:7142   */\n              tag_417\n                /* \"#utility.yul\":7133:7141   */\n              dup4\n                /* \"#utility.yul\":7127:7131   */\n              dup4\n                /* \"#utility.yul\":7106:7142   */\n              tag_448\n              jump\t// in\n                /* \"#utility.yul\":7153:7508   */\n            tag_187:\n                /* \"#utility.yul\":7355:7357   */\n              0x20\n                /* \"#utility.yul\":7337:7358   */\n              dup1\n              dup3\n              mstore\n                /* \"#utility.yul\":7394:7396   */\n              0x1f\n                /* \"#utility.yul\":7374:7392   */\n              swap1\n              dup3\n              add\n                /* \"#utility.yul\":7367:7397   */\n              mstore\n                /* \"#utility.yul\":7433:7466   */\n              0x5265656e7472616e637947756172643a207265656e7472616e742063616c6c00\n                /* \"#utility.yul\":7428:7430   */\n              0x40\n                /* \"#utility.yul\":7413:7431   */\n              dup3\n              add\n                /* \"#utility.yul\":7406:7467   */\n              mstore\n                /* \"#utility.yul\":7499:7501   */\n              0x60\n                /* \"#utility.yul\":7484:7502   */\n              add\n              swap1\n                /* \"#utility.yul\":7153:7508   */\n              jump\t// out\n                /* \"#utility.yul\":7869:8037   */\n            tag_195:\n                /* \"#utility.yul\":7942:7951   */\n              dup1\n              dup3\n              mul\n                /* \"#utility.yul\":7973:7982   */\n              dup2\n              iszero\n                /* \"#utility.yul\":7990:8005   */\n              dup3\n              dup3\n              div\n                /* \"#utility.yul\":7984:8006   */\n              dup5\n              eq\n                /* \"#utility.yul\":7970:8007   */\n              or\n                /* \"#utility.yul\":7960:8031   */\n              tag_407\n              jumpi\n                /* \"#utility.yul\":8011:8029   */\n              tag_407\n              tag_446\n              jump\t// in\n                /* \"#utility.yul\":8042:8259   */\n            tag_197:\n                /* \"#utility.yul\":8082:8083   */\n              0x00\n                /* \"#utility.yul\":8108:8109   */\n              dup3\n                /* \"#utility.yul\":8098:8230   */\n              tag_515\n              jumpi\n                /* \"#utility.yul\":8152:8162   */\n              0x4e487b71\n                /* \"#utility.yul\":8147:8150   */\n              0xe0\n                /* \"#utility.yul\":8143:8163   */\n              shl\n                /* \"#utility.yul\":8140:8141   */\n              0x00\n                /* \"#utility.yul\":8133:8164   */\n              mstore\n                /* \"#utility.yul\":8187:8191   */\n              0x12\n                /* \"#utility.yul\":8184:8185   */\n              0x04\n                /* \"#utility.yul\":8177:8192   */\n              mstore\n                /* \"#utility.yul\":8215:8219   */\n              0x24\n                /* \"#utility.yul\":8212:8213   */\n              0x00\n                /* \"#utility.yul\":8205:8220   */\n              revert\n                /* \"#utility.yul\":8098:8230   */\n            tag_515:\n              pop\n                /* \"#utility.yul\":8244:8253   */\n              div\n              swap1\n                /* \"#utility.yul\":8042:8259   */\n              jump\t// out\n                /* \"#utility.yul\":8929:9054   */\n            tag_244:\n                /* \"#utility.yul\":8994:9003   */\n              dup1\n              dup3\n              add\n                /* \"#utility.yul\":9015:9025   */\n              dup1\n              dup3\n              gt\n                /* \"#utility.yul\":9012:9048   */\n              iszero\n              tag_407\n              jumpi\n                /* \"#utility.yul\":9028:9046   */\n              tag_407\n              tag_446\n              jump\t// in\n                /* \"#utility.yul\":10707:10891   */\n            tag_277:\n                /* \"#utility.yul\":10777:10783   */\n              0x00\n                /* \"#utility.yul\":10830:10832   */\n              0x20\n                /* \"#utility.yul\":10818:10827   */\n              dup3\n                /* \"#utility.yul\":10809:10816   */\n              dup5\n                /* \"#utility.yul\":10805:10828   */\n              sub\n                /* \"#utility.yul\":10801:10833   */\n              slt\n                /* \"#utility.yul\":10798:10850   */\n              iszero\n              tag_526\n              jumpi\n                /* \"#utility.yul\":10846:10847   */\n              0x00\n                /* \"#utility.yul\":10843:10844   */\n              dup1\n                /* \"#utility.yul\":10836:10848   */\n              revert\n                /* \"#utility.yul\":10798:10850   */\n            tag_526:\n              pop\n                /* \"#utility.yul\":10869:10885   */\n              mload\n              swap2\n                /* \"#utility.yul\":10707:10891   */\n              swap1\n              pop\n              jump\t// out\n                /* \"#utility.yul\":11997:12242   */\n            tag_308:\n                /* \"#utility.yul\":12064:12070   */\n              0x00\n                /* \"#utility.yul\":12117:12119   */\n              0x20\n                /* \"#utility.yul\":12105:12114   */\n              dup3\n                /* \"#utility.yul\":12096:12103   */\n              dup5\n                /* \"#utility.yul\":12092:12115   */\n              sub\n                /* \"#utility.yul\":12088:12120   */\n              slt\n                /* \"#utility.yul\":12085:12137   */\n              iszero\n              tag_531\n              jumpi\n                /* \"#utility.yul\":12133:12134   */\n              0x00\n                /* \"#utility.yul\":12130:12131   */\n              dup1\n                /* \"#utility.yul\":12123:12135   */\n              revert\n                /* \"#utility.yul\":12085:12137   */\n            tag_531:\n                /* \"#utility.yul\":12165:12174   */\n              dup2\n                /* \"#utility.yul\":12159:12175   */\n              mload\n                /* \"#utility.yul\":12184:12212   */\n              tag_417\n                /* \"#utility.yul\":12206:12211   */\n              dup2\n                /* \"#utility.yul\":12184:12212   */\n              tag_445\n              jump\t// in\n                /* \"#utility.yul\":12652:13278   */\n            tag_317:\n                /* \"#utility.yul\":12764:12770   */\n              0x00\n                /* \"#utility.yul\":12772:12778   */\n              dup1\n                /* \"#utility.yul\":12780:12786   */\n              0x00\n                /* \"#utility.yul\":12788:12794   */\n              dup1\n                /* \"#utility.yul\":12796:12802   */\n              0x00\n                /* \"#utility.yul\":12804:12810   */\n              dup1\n                /* \"#utility.yul\":12857:12860   */\n              0xc0\n                /* \"#utility.yul\":12845:12854   */\n              dup8\n                /* \"#utility.yul\":12836:12843   */\n              dup10\n                /* \"#utility.yul\":12832:12855   */\n              sub\n                /* \"#utility.yul\":12828:12861   */\n              slt\n                /* \"#utility.yul\":12825:12878   */\n              iszero\n              tag_535\n              jumpi\n                /* \"#utility.yul\":12874:12875   */\n              0x00\n                /* \"#utility.yul\":12871:12872   */\n              dup1\n                /* \"#utility.yul\":12864:12876   */\n              revert\n                /* \"#utility.yul\":12825:12878   */\n            tag_535:\n                /* \"#utility.yul\":12903:12912   */\n              dup7\n                /* \"#utility.yul\":12897:12913   */\n              mload\n                /* \"#utility.yul\":12887:12913   */\n              swap6\n              pop\n                /* \"#utility.yul\":12953:12955   */\n              0x20\n                /* \"#utility.yul\":12942:12951   */\n              dup8\n                /* \"#utility.yul\":12938:12956   */\n              add\n                /* \"#utility.yul\":12932:12957   */\n              mload\n                /* \"#utility.yul\":12922:12957   */\n              swap5\n              pop\n                /* \"#utility.yul\":12997:12999   */\n              0x40\n                /* \"#utility.yul\":12986:12995   */\n              dup8\n                /* \"#utility.yul\":12982:13000   */\n              add\n                /* \"#utility.yul\":12976:13001   */\n              mload\n                /* \"#utility.yul\":12966:13001   */\n              swap4\n              pop\n                /* \"#utility.yul\":13044:13046   */\n              0x60\n                /* \"#utility.yul\":13033:13042   */\n              dup8\n                /* \"#utility.yul\":13029:13047   */\n              add\n                /* \"#utility.yul\":13023:13048   */\n              mload\n                /* \"#utility.yul\":13057:13088   */\n              tag_536\n                /* \"#utility.yul\":13082:13087   */\n              dup2\n                /* \"#utility.yul\":13057:13088   */\n              tag_444\n              jump\t// in\n            tag_536:\n                /* \"#utility.yul\":13152:13155   */\n              0x80\n                /* \"#utility.yul\":13137:13156   */\n              dup9\n              add\n                /* \"#utility.yul\":13131:13157   */\n              mload\n                /* \"#utility.yul\":13202:13205   */\n              0xa0\n                /* \"#utility.yul\":13187:13206   */\n              dup10\n              add\n                /* \"#utility.yul\":13181:13207   */\n              mload\n                /* \"#utility.yul\":13107:13112   */\n              swap2\n              swap5\n              pop\n                /* \"#utility.yul\":13131:13157   */\n              swap3\n              pop\n                /* \"#utility.yul\":13216:13246   */\n              tag_537\n                /* \"#utility.yul\":13181:13207   */\n              dup2\n                /* \"#utility.yul\":13216:13246   */\n              tag_445\n              jump\t// in\n            tag_537:\n                /* \"#utility.yul\":13265:13272   */\n              dup1\n                /* \"#utility.yul\":13255:13272   */\n              swap2\n              pop\n              pop\n                /* \"#utility.yul\":12652:13278   */\n              swap3\n              swap6\n              pop\n              swap3\n              swap6\n              pop\n              swap3\n              swap6\n              jump\t// out\n                /* \"#utility.yul\":16285:16535   */\n            tag_449:\n                /* \"#utility.yul\":16370:16371   */\n              0x00\n                /* \"#utility.yul\":16380:16493   */\n            tag_547:\n                /* \"#utility.yul\":16394:16400   */\n              dup4\n                /* \"#utility.yul\":16391:16392   */\n              dup2\n                /* \"#utility.yul\":16388:16401   */\n              lt\n                /* \"#utility.yul\":16380:16493   */\n              iszero\n              tag_549\n              jumpi\n                /* \"#utility.yul\":16470:16481   */\n              dup2\n              dup2\n              add\n                /* \"#utility.yul\":16464:16482   */\n              mload\n                /* \"#utility.yul\":16451:16462   */\n              dup4\n              dup3\n              add\n                /* \"#utility.yul\":16444:16483   */\n              mstore\n                /* \"#utility.yul\":16416:16418   */\n              0x20\n                /* \"#utility.yul\":16409:16419   */\n              add\n                /* \"#utility.yul\":16380:16493   */\n              jump(tag_547)\n            tag_549:\n              pop\n              pop\n                /* \"#utility.yul\":16527:16528   */\n              0x00\n                /* \"#utility.yul\":16509:16525   */\n              swap2\n              add\n                /* \"#utility.yul\":16502:16529   */\n              mstore\n                /* \"#utility.yul\":16285:16535   */\n              jump\t// out\n                /* \"#utility.yul\":16540:16827   */\n            tag_430:\n                /* \"#utility.yul\":16669:16672   */\n              0x00\n                /* \"#utility.yul\":16707:16713   */\n              dup3\n                /* \"#utility.yul\":16701:16714   */\n              mload\n                /* \"#utility.yul\":16723:16789   */\n              tag_551\n                /* \"#utility.yul\":16782:16788   */\n              dup2\n                /* \"#utility.yul\":16777:16780   */\n              dup5\n                /* \"#utility.yul\":16770:16774   */\n              0x20\n                /* \"#utility.yul\":16762:16768   */\n              dup8\n                /* \"#utility.yul\":16758:16775   */\n              add\n                /* \"#utility.yul\":16723:16789   */\n              tag_449\n              jump\t// in\n            tag_551:\n                /* \"#utility.yul\":16805:16821   */\n              swap2\n              swap1\n              swap2\n              add\n              swap3\n                /* \"#utility.yul\":16540:16827   */\n              swap2\n              pop\n              pop\n              jump\t// out\n                /* \"#utility.yul\":16832:17228   */\n            tag_443:\n                /* \"#utility.yul\":16981:16983   */\n              0x20\n                /* \"#utility.yul\":16970:16979   */\n              dup2\n                /* \"#utility.yul\":16963:16984   */\n              mstore\n                /* \"#utility.yul\":16944:16948   */\n              0x00\n                /* \"#utility.yul\":17013:17019   */\n              dup3\n                /* \"#utility.yul\":17007:17020   */\n              mload\n                /* \"#utility.yul\":17056:17062   */\n              dup1\n                /* \"#utility.yul\":17051:17053   */\n              0x20\n                /* \"#utility.yul\":17040:17049   */\n              dup5\n                /* \"#utility.yul\":17036:17054   */\n              add\n                /* \"#utility.yul\":17029:17063   */\n              mstore\n                /* \"#utility.yul\":17072:17151   */\n              tag_553\n                /* \"#utility.yul\":17144:17150   */\n              dup2\n                /* \"#utility.yul\":17139:17141   */\n              0x40\n                /* \"#utility.yul\":17128:17137   */\n              dup6\n                /* \"#utility.yul\":17124:17142   */\n              add\n                /* \"#utility.yul\":17119:17121   */\n              0x20\n                /* \"#utility.yul\":17111:17117   */\n              dup8\n                /* \"#utility.yul\":17107:17122   */\n              add\n                /* \"#utility.yul\":17072:17151   */\n              tag_449\n              jump\t// in\n            tag_553:\n                /* \"#utility.yul\":17212:17214   */\n              0x1f\n                /* \"#utility.yul\":17191:17206   */\n              add\n              not(0x1f)\n                /* \"#utility.yul\":17187:17216   */\n              and\n                /* \"#utility.yul\":17172:17217   */\n              swap2\n              swap1\n              swap2\n              add\n                /* \"#utility.yul\":17219:17221   */\n              0x40\n                /* \"#utility.yul\":17168:17222   */\n              add\n              swap3\n                /* \"#utility.yul\":16832:17228   */\n              swap2\n              pop\n              pop\n              jump\t// out\n\n            auxdata: 0xa26469706673582212200215c99a8b23ed0348d066929ecab7b6aa5de5fe1a57c11dd2ba375c21b7088864736f6c63430008110033\n        }\n    }\n\n    auxdata: 0xa26469706673582212200f877c641265466b8697d2352ef2abc6f58616c1d902e9d35774b4d6c5262f9a64736f6c63430008110033\n}\n",
				"bytecode": {
					"linkReferences": {},
					"object": "608060405234801561001057600080fd5b5061001a3361001f565b61006f565b600080546001600160a01b038381166001600160a01b0319831681178455604051919092169283917f8be0079c531659141344cd1fd0a4f28419497f9722a3daafe3b4186f6b6457e09190a35050565b61276a8061007e6000396000f3fe608060405234801561001057600080fd5b506004361061004c5760003560e01c8063715018a6146100515780638da5cb5b1461005b578063f2fde38b1461007a578063f8d98c8a1461008d575b600080fd5b6100596100a0565b005b600054604080516001600160a01b039092168252519081900360200190f35b610059610088366004610529565b6100df565b61005961009b36600461054d565b61017a565b6000546001600160a01b031633146100d35760405162461bcd60e51b81526004016100ca906105fc565b60405180910390fd5b6100dd60006104a7565b565b6000546001600160a01b031633146101095760405162461bcd60e51b81526004016100ca906105fc565b6001600160a01b03811661016e5760405162461bcd60e51b815260206004820152602660248201527f4f776e61626c653a206e6577206f776e657220697320746865207a65726f206160448201526564647265737360d01b60648201526084016100ca565b610177816104a7565b50565b6000546001600160a01b031633146101a45760405162461bcd60e51b81526004016100ca906105fc565b60008b6001600160a01b03166318160ddd6040518163ffffffff1660e01b8152600401602060405180830381865afa1580156101e4573d6000803e3d6000fd5b505050506040513d601f19601f820116820180604052508101906102089190610631565b101561021357600080fd5b60008a6001600160a01b03166318160ddd6040518163ffffffff1660e01b8152600401602060405180830381865afa158015610253573d6000803e3d6000fd5b505050506040513d601f19601f820116820180604052508101906102779190610631565b101561028257600080fd5b896001600160a01b03168b6001600160a01b0316036102e35760405162461bcd60e51b815260206004820152601b60248201527f546f6b656e73206d75737420626520626520646966666572656e74000000000060448201526064016100ca565b6000604051806020016102f5906104f7565b601f1982820381018352601f9091011660408181526001600160a01b03881660208301528615159082015260608101859052909150819060800160408051601f198184030181529082905261034d929160200161067a565b60408051601f19818403018152908290526bffffffffffffffffffffffff1960608f811b821660208501528e901b166034830152604882018b905291506000906068016040516020818303038152906040528051906020012090506000818351602085016000f59050806001600160a01b0316632aa2c3818f8f8f8f8f8f8f8c6040518963ffffffff1660e01b81526004016104319897969594939291906001600160a01b039889168152968816602088015260408701959095526060860193909352608085019190915260a084015260c083015290911660e08201526101000190565b600060405180830381600087803b15801561044b57600080fd5b505af115801561045f573d6000803e3d6000fd5b50506040516001600160a01b03841692507fe0d103a92c6ff6c4aceb49d436f4028e0deb4884fdbcb9f32b03045eabb44a6c9150600090a25050505050505050505050505050565b600080546001600160a01b038381166001600160a01b0319831681178455604051919092169283917f8be0079c531659141344cd1fd0a4f28419497f9722a3daafe3b4186f6b6457e09190a35050565b61209d8061069883390190565b6001600160a01b038116811461017757600080fd5b803561052481610504565b919050565b60006020828403121561053b57600080fd5b813561054681610504565b9392505050565b60008060008060008060008060008060006101608c8e03121561056f57600080fd5b8b3561057a81610504565b9a5060208c013561058a81610504565b995060408c0135985060608c0135975060808c0135965060a08c0135955060c08c0135945060e08c01356105bd81610504565b93506101008c013580151581146105d357600080fd5b92506101208c013591506105ea6101408d01610519565b90509295989b509295989b9093969950565b6020808252818101527f4f776e61626c653a2063616c6c6572206973206e6f7420746865206f776e6572604082015260600190565b60006020828403121561064357600080fd5b5051919050565b6000815160005b8181101561066b5760208185018101518683015201610651565b50600093019283525090919050565b600061068f610689838661064a565b8461064a565b94935050505056fe60c06040523480156200001157600080fd5b506040516200209d3803806200209d83398101604081905262000034916200014e565b6200003f33620000e8565b60018080553360805260405163aee2f47f60e01b815260048101919091526001600160a01b0384169063aee2f47f90602401600060405180830381865afa1580156200008f573d6000803e3d6000fd5b505050506040513d6000823e601f3d908101601f19168201604052620000b9919081019062000261565b505050506001600160a01b039390931660a0526009805460ff191692151592909217909155600a5550620002f1565b600080546001600160a01b038381166001600160a01b0319831681178455604051919092169283917f8be0079c531659141344cd1fd0a4f28419497f9722a3daafe3b4186f6b6457e09190a35050565b805180151581146200014957600080fd5b919050565b6000806000606084860312156200016457600080fd5b83516001600160a01b03811681146200017c57600080fd5b92506200018c6020850162000138565b9150604084015190509250925092565b634e487b7160e01b600052604160045260246000fd5b600082601f830112620001c457600080fd5b81516001600160401b0380821115620001e157620001e16200019c565b604051601f8301601f19908116603f011681019082821181831017156200020c576200020c6200019c565b816040528381526020925086838588010111156200022957600080fd5b600091505b838210156200024d57858201830151818301840152908201906200022e565b600093810190920192909252949350505050565b600080600080600060a086880312156200027a57600080fd5b85516001600160401b03808211156200029257600080fd5b620002a089838a01620001b2565b96506020880151915080821115620002b757600080fd5b50620002c688828901620001b2565b9450506040860151925060608601519150620002e56080870162000138565b90509295509295909350565b60805160a051611d716200032c600039600081816103e901528181610f130152610ffe0152600081816103c201526105730152611d716000f3fe608060405234801561001057600080fd5b50600436106101fb5760003560e01c80638ae39cac1161011a578063b6b55f25116100ad578063ccd34cd51161007c578063ccd34cd51461041e578063db2e21bc14610427578063f2fde38b1461042f578063f40f0f5214610442578063f7c618c11461045557600080fd5b8063b6b55f25146103aa578063bd617191146103bd578063c7d936ec146103e4578063cc7a262e1461040b57600080fd5b80639513997f116100e95780639513997f146103685780639be65a601461037b578063a0b409051461038e578063a9f8d181146103a157600080fd5b80638ae39cac146103295780638da5cb5b146103325780638f6629151461035757806392e8990e1461036057600080fd5b806348cd4cb111610192578063681096311161016157806368109631146102fd578063715018a61461031057806380dc0672146103185780638ad1071b1461032057600080fd5b806348cd4cb1146102d15780634a7c01ec146102da5780635a0b5f34146102e757806366fe9f8a146102f457600080fd5b80632aa2c381116101ce5780632aa2c381146102765780632e1a7d4d146102895780633279beab1461029c578063392e53cd146102af57600080fd5b806301f8a976146102005780630ace6247146102155780631959a002146102315780631aed65531461026d575b600080fd5b61021361020e36600461191c565b610468565b005b61021e600a5481565b6040519081526020015b60405180910390f35b61025861023f36600461194a565b600f602052600090815260409020805460019091015482565b60408051928352602083019190915201610228565b61021e60045481565b610213610284366004611967565b61051a565b61021361029736600461191c565b610727565b6102136102aa36600461191c565b610891565b6002546102c190610100900460ff1681565b6040519015158152602001610228565b61021e60055481565b6002546102c19060ff1681565b6009546102c19060ff1681565b61021e60075481565b61021361030b3660046119f1565b6108d5565b610213610953565b610213610989565b61021e60085481565b61021e600b5481565b6000546001600160a01b03165b6040516001600160a01b039091168152602001610228565b61021e60035481565b6102c16109b9565b610213610376366004611a1d565b6109ee565b61021361038936600461194a565b610b6f565b61021361039c3660046119f1565b610d9d565b61021e60065481565b6102136103b836600461191c565b610eaf565b61033f7f000000000000000000000000000000000000000000000000000000000000000081565b61033f7f000000000000000000000000000000000000000000000000000000000000000081565b600e5461033f906001600160a01b031681565b61021e600c5481565b610213611243565b61021361043d36600461194a565b6112e4565b61021e61045036600461194a565b61137c565b600d5461033f906001600160a01b031681565b6000546001600160a01b0316331461049b5760405162461bcd60e51b815260040161049290611a3f565b60405180910390fd5b60055443106104df5760405162461bcd60e51b815260206004820152601060248201526f141bdbdb081a185cc81cdd185c9d195960821b6044820152606401610492565b600b8190556040518181527f0c4d677eef92893ac7ec52faf8140fc6c851ab4736302b4f3a89dfb20696a0df9060200160405180910390a150565b600254610100900460ff16156105685760405162461bcd60e51b8152602060048201526013602482015272105b1c9958591e481a5b9a5d1a585b1a5e9959606a1b6044820152606401610492565b336001600160a01b037f000000000000000000000000000000000000000000000000000000000000000016146105ce5760405162461bcd60e51b815260206004820152600b60248201526a4e6f7420666163746f727960a81b6044820152606401610492565b6002805461ff001916610100179055600e80546001600160a01b03808b166001600160a01b031992831617909255600d8054928a1692909116919091179055600b86905560058590556004849055821561063a576002805460ff19166001179055600783905560088290555b600d546040805163313ce56760e01b815290516000926001600160a01b03169163313ce5679160048083019260209291908290030181865afa158015610684573d6000803e3d6000fd5b505050506040513d601f19601f820116820180604052508101906106a89190611a74565b60ff169050601e81106106f45760405162461bcd60e51b815260206004820152601460248201527304d757374206265206c657373207468616e2033360641b6044820152606401610492565b6106ff81601e611aad565b61070a90600a611ba4565b600c5560055460065561071c826112e4565b505050505050505050565b6002600154036107495760405162461bcd60e51b815260040161049290611bb0565b6002600155336000908152600f6020526040902080548211156107ae5760405162461bcd60e51b815260206004820152601b60248201527f416d6f756e7420746f20776974686472617720746f6f206869676800000000006044820152606401610492565b6107b66114cc565b60008160010154600c5460035484600001546107d29190611be7565b6107dc9190611bfe565b6107e69190611aad565b905082156108145781546107fb908490611aad565b8255600e54610814906001600160a01b031633856115a9565b801561083157600d54610831906001600160a01b031633836115a9565b600c5460035483546108439190611be7565b61084d9190611bfe565b600183015560405183815233907f884edad9ce6fa2440d8a54cc123490eb96d2768479d49ff9c7366125a9424364906020015b60405180910390a250506001805550565b6000546001600160a01b031633146108bb5760405162461bcd60e51b815260040161049290611a3f565b600d546108d2906001600160a01b031633836115a9565b50565b6000546001600160a01b031633146108ff5760405162461bcd60e51b815260040161049290611a3f565b6009805460ff1916831515908117909155600a82905560408051918252602082018390527f915d08e0e89c58e352d7c1d66c942cb15dac8a7294d2ca80ddf46f1998f0512b91015b60405180910390a15050565b6000546001600160a01b0316331461097d5760405162461bcd60e51b815260040161049290611a3f565b6109876000611611565b565b6000546001600160a01b031633146109b35760405162461bcd60e51b815260040161049290611a3f565b43600455565b60025460009060ff1615806109dd57506008546005546109d99190611c20565b4310155b156109e85750600090565b50600190565b6000546001600160a01b03163314610a185760405162461bcd60e51b815260040161049290611a3f565b6005544310610a5c5760405162461bcd60e51b815260206004820152601060248201526f141bdbdb081a185cc81cdd185c9d195960821b6044820152606401610492565b808210610ac25760405162461bcd60e51b815260206004820152602e60248201527f4e6577207374617274426c6f636b206d757374206265206c6f7765722074686160448201526d6e206e657720656e64426c6f636b60901b6064820152608401610492565b814310610b2a5760405162461bcd60e51b815260206004820152603060248201527f4e6577207374617274426c6f636b206d7573742062652068696768657220746860448201526f616e2063757272656e7420626c6f636b60801b6064820152608401610492565b60058290556004819055600682905560408051838152602081018390527f7cd0ab87d19036f3dfadadb232c78aa4879dda3f0c994a9d637532410ee2ce069101610947565b6000546001600160a01b03163314610b995760405162461bcd60e51b815260040161049290611a3f565b600e546001600160a01b0390811690821603610c075760405162461bcd60e51b815260206004820152602760248201527f4f7065726174696f6e733a2043616e6e6f74207265636f766572207374616b6560448201526632103a37b5b2b760c91b6064820152608401610492565b600d546001600160a01b0390811690821603610c755760405162461bcd60e51b815260206004820152602760248201527f4f7065726174696f6e733a2043616e6e6f74207265636f76657220726577617260448201526632103a37b5b2b760c91b6064820152608401610492565b6040516370a0823160e01b81523060048201526000906001600160a01b038316906370a0823190602401602060405180830381865afa158015610cbc573d6000803e3d6000fd5b505050506040513d601f19601f82011682018060405250810190610ce09190611c33565b905080600003610d425760405162461bcd60e51b815260206004820152602760248201527f4f7065726174696f6e733a2043616e6e6f74207265636f766572207a65726f2060448201526662616c616e636560c81b6064820152608401610492565b610d566001600160a01b03831633836115a9565b816001600160a01b03167f14f11966a996e0629572e51064726d2057a80fbd34efc066682c06a71dbb6e9882604051610d9191815260200190565b60405180910390a25050565b6000546001600160a01b03163314610dc75760405162461bcd60e51b815260040161049290611a3f565b60025460ff16610e075760405162461bcd60e51b815260206004820152600b60248201526a135d5cdd081899481cd95d60aa1b6044820152606401610492565b8115610e68576007548111610e5e5760405162461bcd60e51b815260206004820152601860248201527f4e6577206c696d6974206d7573742062652068696768657200000000000000006044820152606401610492565b6007819055610e7c565b6002805460ff191683151517905560006007555b7f241f67ee5f41b7a5cabf911367329be7215900f602ebfc47f89dce2a6bcd847c60075460405161094791815260200190565b600260015403610ed15760405162461bcd60e51b815260040161049290611bb0565b6002600155336000908152600f6020526040902060095460ff16158015610ef85750600a54155b80610f86575060405163ea0d5dcd60e01b81523360048201527f00000000000000000000000000000000000000000000000000000000000000006001600160a01b03169063ea0d5dcd90602401602060405180830381865afa158015610f62573d6000803e3d6000fd5b505050506040513d601f19601f82011682018060405250810190610f869190611c4c565b610fde5760405162461bcd60e51b8152602060048201526024808201527f4465706f7369743a204d757374206861766520616e206163746976652070726f60448201526366696c6560e01b6064820152608401610492565b600a546000901561107a57604051634c3f70ab60e11b81523360048201527f00000000000000000000000000000000000000000000000000000000000000006001600160a01b03169063987ee1569060240160c060405180830381865afa15801561104d573d6000803e3d6000fd5b505050506040513d601f19601f820116820180604052508101906110719190611c69565b50929450505050505b600a54158061108b5750600a548110155b6110e35760405162461bcd60e51b815260206004820152602360248201527f4465706f7369743a205573657220686173206e6f7420656e6f75676820706f696044820152626e747360e81b6064820152608401610492565b6110eb6109b9565b6002805460ff1916911515918217905560ff161580611117575060075482546111149085611c20565b11155b6111635760405162461bcd60e51b815260206004820152601b60248201527f4465706f7369743a20416d6f756e742061626f7665206c696d697400000000006044820152606401610492565b61116b6114cc565b8154156111c35760008260010154600c54600354856000015461118e9190611be7565b6111989190611bfe565b6111a29190611aad565b905080156111c157600d546111c1906001600160a01b031633836115a9565b505b82156111f05781546111d6908490611c20565b8255600e546111f0906001600160a01b0316333086611661565b600c5460035483546112029190611be7565b61120c9190611bfe565b600183015560405183815233907fe1fffcc4923d04b559f4d29a8bfc6cda04eb5b0d3c460751c2402c5c5cc9109c90602001610880565b6002600154036112655760405162461bcd60e51b815260040161049290611bb0565b60026001908155336000908152600f602052604081208054828255928101919091559080156112a557600e546112a5906001600160a01b031633836115a9565b815460405190815233907f5fafa99d0643513820be26656b45130b01e1c03062e1266bf36f88cbd3bd96959060200160405180910390a2505060018055565b6000546001600160a01b0316331461130e5760405162461bcd60e51b815260040161049290611a3f565b6001600160a01b0381166113735760405162461bcd60e51b815260206004820152602660248201527f4f776e61626c653a206e6577206f776e657220697320746865207a65726f206160448201526564647265737360d01b6064820152608401610492565b6108d281611611565b6001600160a01b038181166000908152600f6020526040808220600e5491516370a0823160e01b8152306004820152929390928492909116906370a0823190602401602060405180830381865afa1580156113db573d6000803e3d6000fd5b505050506040513d601f19601f820116820180604052508101906113ff9190611c33565b90506006544311801561141157508015155b156114995760006114246006544361169f565b90506000600b54826114369190611be7565b9050600083600c54836114499190611be7565b6114539190611bfe565b6003546114609190611c20565b90508460010154600c5482876000015461147a9190611be7565b6114849190611bfe565b61148e9190611aad565b979650505050505050565b6001820154600c5460035484546114b09190611be7565b6114ba9190611bfe565b6114c49190611aad565b949350505050565b60065443116114d757565b600e546040516370a0823160e01b81523060048201526000916001600160a01b0316906370a0823190602401602060405180830381865afa158015611520573d6000803e3d6000fd5b505050506040513d601f19601f820116820180604052508101906115449190611c33565b905080600003611555575043600655565b60006115636006544361169f565b90506000600b54826115759190611be7565b905082600c54826115869190611be7565b6115909190611bfe565b60035461159d9190611c20565b60035550504360065550565b6040516001600160a01b03831660248201526044810182905261160c90849063a9059cbb60e01b906064015b60408051601f198184030181529190526020810180516001600160e01b03166001600160e01b0319909316929092179091526116e0565b505050565b600080546001600160a01b038381166001600160a01b0319831681178455604051919092169283917f8be0079c531659141344cd1fd0a4f28419497f9722a3daafe3b4186f6b6457e09190a35050565b6040516001600160a01b03808516602483015283166044820152606481018290526116999085906323b872dd60e01b906084016115d5565b50505050565b600060045482116116bb576116b48383611aad565b90506116da565b60045483106116cc575060006116da565b826004546116b49190611aad565b92915050565b6000611735826040518060400160405280602081526020017f5361666545524332303a206c6f772d6c6576656c2063616c6c206661696c6564815250856001600160a01b03166117b29092919063ffffffff16565b80519091501561160c57808060200190518101906117539190611c4c565b61160c5760405162461bcd60e51b815260206004820152602a60248201527f5361666545524332303a204552433230206f7065726174696f6e20646964206e6044820152691bdd081cdd58d8d9595960b21b6064820152608401610492565b60606117c184846000856117cb565b90505b9392505050565b60608247101561182c5760405162461bcd60e51b815260206004820152602660248201527f416464726573733a20696e73756666696369656e742062616c616e636520666f6044820152651c8818d85b1b60d21b6064820152608401610492565b843b61187a5760405162461bcd60e51b815260206004820152601d60248201527f416464726573733a2063616c6c20746f206e6f6e2d636f6e74726163740000006044820152606401610492565b600080866001600160a01b031685876040516118969190611cec565b60006040518083038185875af1925050503d80600081146118d3576040519150601f19603f3d011682016040523d82523d6000602084013e6118d8565b606091505b509150915061148e828286606083156118f25750816117c4565b8251156119025782518084602001fd5b8160405162461bcd60e51b81526004016104929190611d08565b60006020828403121561192e57600080fd5b5035919050565b6001600160a01b03811681146108d257600080fd5b60006020828403121561195c57600080fd5b81356117c481611935565b600080600080600080600080610100898b03121561198457600080fd5b883561198f81611935565b9750602089013561199f81611935565b965060408901359550606089013594506080890135935060a0890135925060c0890135915060e08901356119d281611935565b809150509295985092959890939650565b80151581146108d257600080fd5b60008060408385031215611a0457600080fd5b8235611a0f816119e3565b946020939093013593505050565b60008060408385031215611a3057600080fd5b50508035926020909101359150565b6020808252818101527f4f776e61626c653a2063616c6c6572206973206e6f7420746865206f776e6572604082015260600190565b600060208284031215611a8657600080fd5b815160ff811681146117c457600080fd5b634e487b7160e01b600052601160045260246000fd5b818103818111156116da576116da611a97565b600181815b80851115611afb578160001904821115611ae157611ae1611a97565b80851615611aee57918102915b93841c9390800290611ac5565b509250929050565b600082611b12575060016116da565b81611b1f575060006116da565b8160018114611b355760028114611b3f57611b5b565b60019150506116da565b60ff841115611b5057611b50611a97565b50506001821b6116da565b5060208310610133831016604e8410600b8410161715611b7e575081810a6116da565b611b888383611ac0565b8060001904821115611b9c57611b9c611a97565b029392505050565b60006117c48383611b03565b6020808252601f908201527f5265656e7472616e637947756172643a207265656e7472616e742063616c6c00604082015260600190565b80820281158282048414176116da576116da611a97565b600082611c1b57634e487b7160e01b600052601260045260246000fd5b500490565b808201808211156116da576116da611a97565b600060208284031215611c4557600080fd5b5051919050565b600060208284031215611c5e57600080fd5b81516117c4816119e3565b60008060008060008060c08789031215611c8257600080fd5b8651955060208701519450604087015193506060870151611ca281611935565b608088015160a08901519194509250611cba816119e3565b809150509295509295509295565b60005b83811015611ce3578181015183820152602001611ccb565b50506000910152565b60008251611cfe818460208701611cc8565b9190910192915050565b6020815260008251806020840152611d27816040850160208701611cc8565b601f01601f1916919091016040019291505056fea26469706673582212200215c99a8b23ed0348d066929ecab7b6aa5de5fe1a57c11dd2ba375c21b7088864736f6c63430008110033a26469706673582212200f877c641265466b8697d2352ef2abc6f58616c1d902e9d35774b4d6c5262f9a64736f6c63430008110033",
					"opcodes": "PUSH1 0x80 PUSH1 0x40 MSTORE CALLVALUE DUP1 ISZERO PUSH2 0x10 JUMPI PUSH1 0x0 DUP1 REVERT JUMPDEST POP PUSH2 0x1A CALLER PUSH2 0x1F JUMP JUMPDEST PUSH2 0x6F JUMP JUMPDEST PUSH1 0x0 DUP1 SLOAD PUSH1 0x1 PUSH1 0x1 PUSH1 0xA0 SHL SUB DUP4 DUP2 AND PUSH1 0x1 PUSH1 0x1 PUSH1 0xA0 SHL SUB NOT DUP4 AND DUP2 OR DUP5 SSTORE PUSH1 0x40 MLOAD SWAP2 SWAP1 SWAP3 AND SWAP3 DUP4 SWAP2 PUSH32 0x8BE0079C531659141344CD1FD0A4F28419497F9722A3DAAFE3B4186F6B6457E0 SWAP2 SWAP1 LOG3 POP POP JUMP JUMPDEST PUSH2 0x276A DUP1 PUSH2 0x7E PUSH1 0x0 CODECOPY PUSH1 0x0 RETURN INVALID PUSH1 0x80 PUSH1 0x40 MSTORE CALLVALUE DUP1 ISZERO PUSH2 0x10 JUMPI PUSH1 0x0 DUP1 REVERT JUMPDEST POP PUSH1 0x4 CALLDATASIZE LT PUSH2 0x4C JUMPI PUSH1 0x0 CALLDATALOAD PUSH1 0xE0 SHR DUP1 PUSH4 0x715018A6 EQ PUSH2 0x51 JUMPI DUP1 PUSH4 0x8DA5CB5B EQ PUSH2 0x5B JUMPI DUP1 PUSH4 0xF2FDE38B EQ PUSH2 0x7A JUMPI DUP1 PUSH4 0xF8D98C8A EQ PUSH2 0x8D JUMPI JUMPDEST PUSH1 0x0 DUP1 REVERT JUMPDEST PUSH2 0x59 PUSH2 0xA0 JUMP JUMPDEST STOP JUMPDEST PUSH1 0x0 SLOAD PUSH1 0x40 DUP1 MLOAD PUSH1 0x1 PUSH1 0x1 PUSH1 0xA0 SHL SUB SWAP1 SWAP3 AND DUP3 MSTORE MLOAD SWAP1 DUP2 SWAP1 SUB PUSH1 0x20 ADD SWAP1 RETURN JUMPDEST PUSH2 0x59 PUSH2 0x88 CALLDATASIZE PUSH1 0x4 PUSH2 0x529 JUMP JUMPDEST PUSH2 0xDF JUMP JUMPDEST PUSH2 0x59 PUSH2 0x9B CALLDATASIZE PUSH1 0x4 PUSH2 0x54D JUMP JUMPDEST PUSH2 0x17A JUMP JUMPDEST PUSH1 0x0 SLOAD PUSH1 0x1 PUSH1 0x1 PUSH1 0xA0 SHL SUB AND CALLER EQ PUSH2 0xD3 JUMPI PUSH1 0x40 MLOAD PUSH3 0x461BCD PUSH1 0xE5 SHL DUP2 MSTORE PUSH1 0x4 ADD PUSH2 0xCA SWAP1 PUSH2 0x5FC JUMP JUMPDEST PUSH1 0x40 MLOAD DUP1 SWAP2 SUB SWAP1 REVERT JUMPDEST PUSH2 0xDD PUSH1 0x0 PUSH2 0x4A7 JUMP JUMPDEST JUMP JUMPDEST PUSH1 0x0 SLOAD PUSH1 0x1 PUSH1 0x1 PUSH1 0xA0 SHL SUB AND CALLER EQ PUSH2 0x109 JUMPI PUSH1 0x40 MLOAD PUSH3 0x461BCD PUSH1 0xE5 SHL DUP2 MSTORE PUSH1 0x4 ADD PUSH2 0xCA SWAP1 PUSH2 0x5FC JUMP JUMPDEST PUSH1 0x1 PUSH1 0x1 PUSH1 0xA0 SHL SUB DUP2 AND PUSH2 0x16E JUMPI PUSH1 0x40 MLOAD PUSH3 0x461BCD PUSH1 0xE5 SHL DUP2 MSTORE PUSH1 0x20 PUSH1 0x4 DUP3 ADD MSTORE PUSH1 0x26 PUSH1 0x24 DUP3 ADD MSTORE PUSH32 0x4F776E61626C653A206E6577206F776E657220697320746865207A65726F2061 PUSH1 0x44 DUP3 ADD MSTORE PUSH6 0x646472657373 PUSH1 0xD0 SHL PUSH1 0x64 DUP3 ADD MSTORE PUSH1 0x84 ADD PUSH2 0xCA JUMP JUMPDEST PUSH2 0x177 DUP2 PUSH2 0x4A7 JUMP JUMPDEST POP JUMP JUMPDEST PUSH1 0x0 SLOAD PUSH1 0x1 PUSH1 0x1 PUSH1 0xA0 SHL SUB AND CALLER EQ PUSH2 0x1A4 JUMPI PUSH1 0x40 MLOAD PUSH3 0x461BCD PUSH1 0xE5 SHL DUP2 MSTORE PUSH1 0x4 ADD PUSH2 0xCA SWAP1 PUSH2 0x5FC JUMP JUMPDEST PUSH1 0x0 DUP12 PUSH1 0x1 PUSH1 0x1 PUSH1 0xA0 SHL SUB AND PUSH4 0x18160DDD PUSH1 0x40 MLOAD DUP2 PUSH4 0xFFFFFFFF AND PUSH1 0xE0 SHL DUP2 MSTORE PUSH1 0x4 ADD PUSH1 0x20 PUSH1 0x40 MLOAD DUP1 DUP4 SUB DUP2 DUP7 GAS STATICCALL ISZERO DUP1 ISZERO PUSH2 0x1E4 JUMPI RETURNDATASIZE PUSH1 0x0 DUP1 RETURNDATACOPY RETURNDATASIZE PUSH1 0x0 REVERT JUMPDEST POP POP POP POP PUSH1 0x40 MLOAD RETURNDATASIZE PUSH1 0x1F NOT PUSH1 0x1F DUP3 ADD AND DUP3 ADD DUP1 PUSH1 0x40 MSTORE POP DUP2 ADD SWAP1 PUSH2 0x208 SWAP2 SWAP1 PUSH2 0x631 JUMP JUMPDEST LT ISZERO PUSH2 0x213 JUMPI PUSH1 0x0 DUP1 REVERT JUMPDEST PUSH1 0x0 DUP11 PUSH1 0x1 PUSH1 0x1 PUSH1 0xA0 SHL SUB AND PUSH4 0x18160DDD PUSH1 0x40 MLOAD DUP2 PUSH4 0xFFFFFFFF AND PUSH1 0xE0 SHL DUP2 MSTORE PUSH1 0x4 ADD PUSH1 0x20 PUSH1 0x40 MLOAD DUP1 DUP4 SUB DUP2 DUP7 GAS STATICCALL ISZERO DUP1 ISZERO PUSH2 0x253 JUMPI RETURNDATASIZE PUSH1 0x0 DUP1 RETURNDATACOPY RETURNDATASIZE PUSH1 0x0 REVERT JUMPDEST POP POP POP POP PUSH1 0x40 MLOAD RETURNDATASIZE PUSH1 0x1F NOT PUSH1 0x1F DUP3 ADD AND DUP3 ADD DUP1 PUSH1 0x40 MSTORE POP DUP2 ADD SWAP1 PUSH2 0x277 SWAP2 SWAP1 PUSH2 0x631 JUMP JUMPDEST LT ISZERO PUSH2 0x282 JUMPI PUSH1 0x0 DUP1 REVERT JUMPDEST DUP10 PUSH1 0x1 PUSH1 0x1 PUSH1 0xA0 SHL SUB AND DUP12 PUSH1 0x1 PUSH1 0x1 PUSH1 0xA0 SHL SUB AND SUB PUSH2 0x2E3 JUMPI PUSH1 0x40 MLOAD PUSH3 0x461BCD PUSH1 0xE5 SHL DUP2 MSTORE PUSH1 0x20 PUSH1 0x4 DUP3 ADD MSTORE PUSH1 0x1B PUSH1 0x24 DUP3 ADD MSTORE PUSH32 0x546F6B656E73206D75737420626520626520646966666572656E740000000000 PUSH1 0x44 DUP3 ADD MSTORE PUSH1 0x64 ADD PUSH2 0xCA JUMP JUMPDEST PUSH1 0x0 PUSH1 0x40 MLOAD DUP1 PUSH1 0x20 ADD PUSH2 0x2F5 SWAP1 PUSH2 0x4F7 JUMP JUMPDEST PUSH1 0x1F NOT DUP3 DUP3 SUB DUP2 ADD DUP4 MSTORE PUSH1 0x1F SWAP1 SWAP2 ADD AND PUSH1 0x40 DUP2 DUP2 MSTORE PUSH1 0x1 PUSH1 0x1 PUSH1 0xA0 SHL SUB DUP9 AND PUSH1 0x20 DUP4 ADD MSTORE DUP7 ISZERO ISZERO SWAP1 DUP3 ADD MSTORE PUSH1 0x60 DUP2 ADD DUP6 SWAP1 MSTORE SWAP1 SWAP2 POP DUP2 SWAP1 PUSH1 0x80 ADD PUSH1 0x40 DUP1 MLOAD PUSH1 0x1F NOT DUP2 DUP5 SUB ADD DUP2 MSTORE SWAP1 DUP3 SWAP1 MSTORE PUSH2 0x34D SWAP3 SWAP2 PUSH1 0x20 ADD PUSH2 0x67A JUMP JUMPDEST PUSH1 0x40 DUP1 MLOAD PUSH1 0x1F NOT DUP2 DUP5 SUB ADD DUP2 MSTORE SWAP1 DUP3 SWAP1 MSTORE PUSH12 0xFFFFFFFFFFFFFFFFFFFFFFFF NOT PUSH1 0x60 DUP16 DUP2 SHL DUP3 AND PUSH1 0x20 DUP6 ADD MSTORE DUP15 SWAP1 SHL AND PUSH1 0x34 DUP4 ADD MSTORE PUSH1 0x48 DUP3 ADD DUP12 SWAP1 MSTORE SWAP2 POP PUSH1 0x0 SWAP1 PUSH1 0x68 ADD PUSH1 0x40 MLOAD PUSH1 0x20 DUP2 DUP4 SUB SUB DUP2 MSTORE SWAP1 PUSH1 0x40 MSTORE DUP1 MLOAD SWAP1 PUSH1 0x20 ADD KECCAK256 SWAP1 POP PUSH1 0x0 DUP2 DUP4 MLOAD PUSH1 0x20 DUP6 ADD PUSH1 0x0 CREATE2 SWAP1 POP DUP1 PUSH1 0x1 PUSH1 0x1 PUSH1 0xA0 SHL SUB AND PUSH4 0x2AA2C381 DUP16 DUP16 DUP16 DUP16 DUP16 DUP16 DUP16 DUP13 PUSH1 0x40 MLOAD DUP10 PUSH4 0xFFFFFFFF AND PUSH1 0xE0 SHL DUP2 MSTORE PUSH1 0x4 ADD PUSH2 0x431 SWAP9 SWAP8 SWAP7 SWAP6 SWAP5 SWAP4 SWAP3 SWAP2 SWAP1 PUSH1 0x1 PUSH1 0x1 PUSH1 0xA0 SHL SUB SWAP9 DUP10 AND DUP2 MSTORE SWAP7 DUP9 AND PUSH1 0x20 DUP9 ADD MSTORE PUSH1 0x40 DUP8 ADD SWAP6 SWAP1 SWAP6 MSTORE PUSH1 0x60 DUP7 ADD SWAP4 SWAP1 SWAP4 MSTORE PUSH1 0x80 DUP6 ADD SWAP2 SWAP1 SWAP2 MSTORE PUSH1 0xA0 DUP5 ADD MSTORE PUSH1 0xC0 DUP4 ADD MSTORE SWAP1 SWAP2 AND PUSH1 0xE0 DUP3 ADD MSTORE PUSH2 0x100 ADD SWAP1 JUMP JUMPDEST PUSH1 0x0 PUSH1 0x40 MLOAD DUP1 DUP4 SUB DUP2 PUSH1 0x0 DUP8 DUP1 EXTCODESIZE ISZERO DUP1 ISZERO PUSH2 0x44B JUMPI PUSH1 0x0 DUP1 REVERT JUMPDEST POP GAS CALL ISZERO DUP1 ISZERO PUSH2 0x45F JUMPI RETURNDATASIZE PUSH1 0x0 DUP1 RETURNDATACOPY RETURNDATASIZE PUSH1 0x0 REVERT JUMPDEST POP POP PUSH1 0x40 MLOAD PUSH1 0x1 PUSH1 0x1 PUSH1 0xA0 SHL SUB DUP5 AND SWAP3 POP PUSH32 0xE0D103A92C6FF6C4ACEB49D436F4028E0DEB4884FDBCB9F32B03045EABB44A6C SWAP2 POP PUSH1 0x0 SWAP1 LOG2 POP POP POP POP POP POP POP POP POP POP POP POP POP POP JUMP JUMPDEST PUSH1 0x0 DUP1 SLOAD PUSH1 0x1 PUSH1 0x1 PUSH1 0xA0 SHL SUB DUP4 DUP2 AND PUSH1 0x1 PUSH1 0x1 PUSH1 0xA0 SHL SUB NOT DUP4 AND DUP2 OR DUP5 SSTORE PUSH1 0x40 MLOAD SWAP2 SWAP1 SWAP3 AND SWAP3 DUP4 SWAP2 PUSH32 0x8BE0079C531659141344CD1FD0A4F28419497F9722A3DAAFE3B4186F6B6457E0 SWAP2 SWAP1 LOG3 POP POP JUMP JUMPDEST PUSH2 0x209D DUP1 PUSH2 0x698 DUP4 CODECOPY ADD SWAP1 JUMP JUMPDEST PUSH1 0x1 PUSH1 0x1 PUSH1 0xA0 SHL SUB DUP2 AND DUP2 EQ PUSH2 0x177 JUMPI PUSH1 0x0 DUP1 REVERT JUMPDEST DUP1 CALLDATALOAD PUSH2 0x524 DUP2 PUSH2 0x504 JUMP JUMPDEST SWAP2 SWAP1 POP JUMP JUMPDEST PUSH1 0x0 PUSH1 0x20 DUP3 DUP5 SUB SLT ISZERO PUSH2 0x53B JUMPI PUSH1 0x0 DUP1 REVERT JUMPDEST DUP2 CALLDATALOAD PUSH2 0x546 DUP2 PUSH2 0x504 JUMP JUMPDEST SWAP4 SWAP3 POP POP POP JUMP JUMPDEST PUSH1 0x0 DUP1 PUSH1 0x0 DUP1 PUSH1 0x0 DUP1 PUSH1 0x0 DUP1 PUSH1 0x0 DUP1 PUSH1 0x0 PUSH2 0x160 DUP13 DUP15 SUB SLT ISZERO PUSH2 0x56F JUMPI PUSH1 0x0 DUP1 REVERT JUMPDEST DUP12 CALLDATALOAD PUSH2 0x57A DUP2 PUSH2 0x504 JUMP JUMPDEST SWAP11 POP PUSH1 0x20 DUP13 ADD CALLDATALOAD PUSH2 0x58A DUP2 PUSH2 0x504 JUMP JUMPDEST SWAP10 POP PUSH1 0x40 DUP13 ADD CALLDATALOAD SWAP9 POP PUSH1 0x60 DUP13 ADD CALLDATALOAD SWAP8 POP PUSH1 0x80 DUP13 ADD CALLDATALOAD SWAP7 POP PUSH1 0xA0 DUP13 ADD CALLDATALOAD SWAP6 POP PUSH1 0xC0 DUP13 ADD CALLDATALOAD SWAP5 POP PUSH1 0xE0 DUP13 ADD CALLDATALOAD PUSH2 0x5BD DUP2 PUSH2 0x504 JUMP JUMPDEST SWAP4 POP PUSH2 0x100 DUP13 ADD CALLDATALOAD DUP1 ISZERO ISZERO DUP2 EQ PUSH2 0x5D3 JUMPI PUSH1 0x0 DUP1 REVERT JUMPDEST SWAP3 POP PUSH2 0x120 DUP13 ADD CALLDATALOAD SWAP2 POP PUSH2 0x5EA PUSH2 0x140 DUP14 ADD PUSH2 0x519 JUMP JUMPDEST SWAP1 POP SWAP3 SWAP6 SWAP9 SWAP12 POP SWAP3 SWAP6 SWAP9 SWAP12 SWAP1 SWAP4 SWAP7 SWAP10 POP JUMP JUMPDEST PUSH1 0x20 DUP1 DUP3 MSTORE DUP2 DUP2 ADD MSTORE PUSH32 0x4F776E61626C653A2063616C6C6572206973206E6F7420746865206F776E6572 PUSH1 0x40 DUP3 ADD MSTORE PUSH1 0x60 ADD SWAP1 JUMP JUMPDEST PUSH1 0x0 PUSH1 0x20 DUP3 DUP5 SUB SLT ISZERO PUSH2 0x643 JUMPI PUSH1 0x0 DUP1 REVERT JUMPDEST POP MLOAD SWAP2 SWAP1 POP JUMP JUMPDEST PUSH1 0x0 DUP2 MLOAD PUSH1 0x0 JUMPDEST DUP2 DUP2 LT ISZERO PUSH2 0x66B JUMPI PUSH1 0x20 DUP2 DUP6 ADD DUP2 ADD MLOAD DUP7 DUP4 ADD MSTORE ADD PUSH2 0x651 JUMP JUMPDEST POP PUSH1 0x0 SWAP4 ADD SWAP3 DUP4 MSTORE POP SWAP1 SWAP2 SWAP1 POP JUMP JUMPDEST PUSH1 0x0 PUSH2 0x68F PUSH2 0x689 DUP4 DUP7 PUSH2 0x64A JUMP JUMPDEST DUP5 PUSH2 0x64A JUMP JUMPDEST SWAP5 SWAP4 POP POP POP POP JUMP INVALID PUSH1 0xC0 PUSH1 0x40 MSTORE CALLVALUE DUP1 ISZERO PUSH3 0x11 JUMPI PUSH1 0x0 DUP1 REVERT JUMPDEST POP PUSH1 0x40 MLOAD PUSH3 0x209D CODESIZE SUB DUP1 PUSH3 0x209D DUP4 CODECOPY DUP2 ADD PUSH1 0x40 DUP2 SWAP1 MSTORE PUSH3 0x34 SWAP2 PUSH3 0x14E JUMP JUMPDEST PUSH3 0x3F CALLER PUSH3 0xE8 JUMP JUMPDEST PUSH1 0x1 DUP1 DUP1 SSTORE CALLER PUSH1 0x80 MSTORE PUSH1 0x40 MLOAD PUSH4 0xAEE2F47F PUSH1 0xE0 SHL DUP2 MSTORE PUSH1 0x4 DUP2 ADD SWAP2 SWAP1 SWAP2 MSTORE PUSH1 0x1 PUSH1 0x1 PUSH1 0xA0 SHL SUB DUP5 AND SWAP1 PUSH4 0xAEE2F47F SWAP1 PUSH1 0x24 ADD PUSH1 0x0 PUSH1 0x40 MLOAD DUP1 DUP4 SUB DUP2 DUP7 GAS STATICCALL ISZERO DUP1 ISZERO PUSH3 0x8F JUMPI RETURNDATASIZE PUSH1 0x0 DUP1 RETURNDATACOPY RETURNDATASIZE PUSH1 0x0 REVERT JUMPDEST POP POP POP POP PUSH1 0x40 MLOAD RETURNDATASIZE PUSH1 0x0 DUP3 RETURNDATACOPY PUSH1 0x1F RETURNDATASIZE SWAP1 DUP2 ADD PUSH1 0x1F NOT AND DUP3 ADD PUSH1 0x40 MSTORE PUSH3 0xB9 SWAP2 SWAP1 DUP2 ADD SWAP1 PUSH3 0x261 JUMP JUMPDEST POP POP POP POP PUSH1 0x1 PUSH1 0x1 PUSH1 0xA0 SHL SUB SWAP4 SWAP1 SWAP4 AND PUSH1 0xA0 MSTORE PUSH1 0x9 DUP1 SLOAD PUSH1 0xFF NOT AND SWAP3 ISZERO ISZERO SWAP3 SWAP1 SWAP3 OR SWAP1 SWAP2 SSTORE PUSH1 0xA SSTORE POP PUSH3 0x2F1 JUMP JUMPDEST PUSH1 0x0 DUP1 SLOAD PUSH1 0x1 PUSH1 0x1 PUSH1 0xA0 SHL SUB DUP4 DUP2 AND PUSH1 0x1 PUSH1 0x1 PUSH1 0xA0 SHL SUB NOT DUP4 AND DUP2 OR DUP5 SSTORE PUSH1 0x40 MLOAD SWAP2 SWAP1 SWAP3 AND SWAP3 DUP4 SWAP2 PUSH32 0x8BE0079C531659141344CD1FD0A4F28419497F9722A3DAAFE3B4186F6B6457E0 SWAP2 SWAP1 LOG3 POP POP JUMP JUMPDEST DUP1 MLOAD DUP1 ISZERO ISZERO DUP2 EQ PUSH3 0x149 JUMPI PUSH1 0x0 DUP1 REVERT JUMPDEST SWAP2 SWAP1 POP JUMP JUMPDEST PUSH1 0x0 DUP1 PUSH1 0x0 PUSH1 0x60 DUP5 DUP7 SUB SLT ISZERO PUSH3 0x164 JUMPI PUSH1 0x0 DUP1 REVERT JUMPDEST DUP4 MLOAD PUSH1 0x1 PUSH1 0x1 PUSH1 0xA0 SHL SUB DUP2 AND DUP2 EQ PUSH3 0x17C JUMPI PUSH1 0x0 DUP1 REVERT JUMPDEST SWAP3 POP PUSH3 0x18C PUSH1 0x20 DUP6 ADD PUSH3 0x138 JUMP JUMPDEST SWAP2 POP PUSH1 0x40 DUP5 ADD MLOAD SWAP1 POP SWAP3 POP SWAP3 POP SWAP3 JUMP JUMPDEST PUSH4 0x4E487B71 PUSH1 0xE0 SHL PUSH1 0x0 MSTORE PUSH1 0x41 PUSH1 0x4 MSTORE PUSH1 0x24 PUSH1 0x0 REVERT JUMPDEST PUSH1 0x0 DUP3 PUSH1 0x1F DUP4 ADD SLT PUSH3 0x1C4 JUMPI PUSH1 0x0 DUP1 REVERT JUMPDEST DUP2 MLOAD PUSH1 0x1 PUSH1 0x1 PUSH1 0x40 SHL SUB DUP1 DUP3 GT ISZERO PUSH3 0x1E1 JUMPI PUSH3 0x1E1 PUSH3 0x19C JUMP JUMPDEST PUSH1 0x40 MLOAD PUSH1 0x1F DUP4 ADD PUSH1 0x1F NOT SWAP1 DUP2 AND PUSH1 0x3F ADD AND DUP2 ADD SWAP1 DUP3 DUP3 GT DUP2 DUP4 LT OR ISZERO PUSH3 0x20C JUMPI PUSH3 0x20C PUSH3 0x19C JUMP JUMPDEST DUP2 PUSH1 0x40 MSTORE DUP4 DUP2 MSTORE PUSH1 0x20 SWAP3 POP DUP7 DUP4 DUP6 DUP9 ADD ADD GT ISZERO PUSH3 0x229 JUMPI PUSH1 0x0 DUP1 REVERT JUMPDEST PUSH1 0x0 SWAP2 POP JUMPDEST DUP4 DUP3 LT ISZERO PUSH3 0x24D JUMPI DUP6 DUP3 ADD DUP4 ADD MLOAD DUP2 DUP4 ADD DUP5 ADD MSTORE SWAP1 DUP3 ADD SWAP1 PUSH3 0x22E JUMP JUMPDEST PUSH1 0x0 SWAP4 DUP2 ADD SWAP1 SWAP3 ADD SWAP3 SWAP1 SWAP3 MSTORE SWAP5 SWAP4 POP POP POP POP JUMP JUMPDEST PUSH1 0x0 DUP1 PUSH1 0x0 DUP1 PUSH1 0x0 PUSH1 0xA0 DUP7 DUP9 SUB SLT ISZERO PUSH3 0x27A JUMPI PUSH1 0x0 DUP1 REVERT JUMPDEST DUP6 MLOAD PUSH1 0x1 PUSH1 0x1 PUSH1 0x40 SHL SUB DUP1 DUP3 GT ISZERO PUSH3 0x292 JUMPI PUSH1 0x0 DUP1 REVERT JUMPDEST PUSH3 0x2A0 DUP10 DUP4 DUP11 ADD PUSH3 0x1B2 JUMP JUMPDEST SWAP7 POP PUSH1 0x20 DUP9 ADD MLOAD SWAP2 POP DUP1 DUP3 GT ISZERO PUSH3 0x2B7 JUMPI PUSH1 0x0 DUP1 REVERT JUMPDEST POP PUSH3 0x2C6 DUP9 DUP3 DUP10 ADD PUSH3 0x1B2 JUMP JUMPDEST SWAP5 POP POP PUSH1 0x40 DUP7 ADD MLOAD SWAP3 POP PUSH1 0x60 DUP7 ADD MLOAD SWAP2 POP PUSH3 0x2E5 PUSH1 0x80 DUP8 ADD PUSH3 0x138 JUMP JUMPDEST SWAP1 POP SWAP3 SWAP6 POP SWAP3 SWAP6 SWAP1 SWAP4 POP JUMP JUMPDEST PUSH1 0x80 MLOAD PUSH1 0xA0 MLOAD PUSH2 0x1D71 PUSH3 0x32C PUSH1 0x0 CODECOPY PUSH1 0x0 DUP2 DUP2 PUSH2 0x3E9 ADD MSTORE DUP2 DUP2 PUSH2 0xF13 ADD MSTORE PUSH2 0xFFE ADD MSTORE PUSH1 0x0 DUP2 DUP2 PUSH2 0x3C2 ADD MSTORE PUSH2 0x573 ADD MSTORE PUSH2 0x1D71 PUSH1 0x0 RETURN INVALID PUSH1 0x80 PUSH1 0x40 MSTORE CALLVALUE DUP1 ISZERO PUSH2 0x10 JUMPI PUSH1 0x0 DUP1 REVERT JUMPDEST POP PUSH1 0x4 CALLDATASIZE LT PUSH2 0x1FB JUMPI PUSH1 0x0 CALLDATALOAD PUSH1 0xE0 SHR DUP1 PUSH4 0x8AE39CAC GT PUSH2 0x11A JUMPI DUP1 PUSH4 0xB6B55F25 GT PUSH2 0xAD JUMPI DUP1 PUSH4 0xCCD34CD5 GT PUSH2 0x7C JUMPI DUP1 PUSH4 0xCCD34CD5 EQ PUSH2 0x41E JUMPI DUP1 PUSH4 0xDB2E21BC EQ PUSH2 0x427 JUMPI DUP1 PUSH4 0xF2FDE38B EQ PUSH2 0x42F JUMPI DUP1 PUSH4 0xF40F0F52 EQ PUSH2 0x442 JUMPI DUP1 PUSH4 0xF7C618C1 EQ PUSH2 0x455 JUMPI PUSH1 0x0 DUP1 REVERT JUMPDEST DUP1 PUSH4 0xB6B55F25 EQ PUSH2 0x3AA JUMPI DUP1 PUSH4 0xBD617191 EQ PUSH2 0x3BD JUMPI DUP1 PUSH4 0xC7D936EC EQ PUSH2 0x3E4 JUMPI DUP1 PUSH4 0xCC7A262E EQ PUSH2 0x40B JUMPI PUSH1 0x0 DUP1 REVERT JUMPDEST DUP1 PUSH4 0x9513997F GT PUSH2 0xE9 JUMPI DUP1 PUSH4 0x9513997F EQ PUSH2 0x368 JUMPI DUP1 PUSH4 0x9BE65A60 EQ PUSH2 0x37B JUMPI DUP1 PUSH4 0xA0B40905 EQ PUSH2 0x38E JUMPI DUP1 PUSH4 0xA9F8D181 EQ PUSH2 0x3A1 JUMPI PUSH1 0x0 DUP1 REVERT JUMPDEST DUP1 PUSH4 0x8AE39CAC EQ PUSH2 0x329 JUMPI DUP1 PUSH4 0x8DA5CB5B EQ PUSH2 0x332 JUMPI DUP1 PUSH4 0x8F662915 EQ PUSH2 0x357 JUMPI DUP1 PUSH4 0x92E8990E EQ PUSH2 0x360 JUMPI PUSH1 0x0 DUP1 REVERT JUMPDEST DUP1 PUSH4 0x48CD4CB1 GT PUSH2 0x192 JUMPI DUP1 PUSH4 0x68109631 GT PUSH2 0x161 JUMPI DUP1 PUSH4 0x68109631 EQ PUSH2 0x2FD JUMPI DUP1 PUSH4 0x715018A6 EQ PUSH2 0x310 JUMPI DUP1 PUSH4 0x80DC0672 EQ PUSH2 0x318 JUMPI DUP1 PUSH4 0x8AD1071B EQ PUSH2 0x320 JUMPI PUSH1 0x0 DUP1 REVERT JUMPDEST DUP1 PUSH4 0x48CD4CB1 EQ PUSH2 0x2D1 JUMPI DUP1 PUSH4 0x4A7C01EC EQ PUSH2 0x2DA JUMPI DUP1 PUSH4 0x5A0B5F34 EQ PUSH2 0x2E7 JUMPI DUP1 PUSH4 0x66FE9F8A EQ PUSH2 0x2F4 JUMPI PUSH1 0x0 DUP1 REVERT JUMPDEST DUP1 PUSH4 0x2AA2C381 GT PUSH2 0x1CE JUMPI DUP1 PUSH4 0x2AA2C381 EQ PUSH2 0x276 JUMPI DUP1 PUSH4 0x2E1A7D4D EQ PUSH2 0x289 JUMPI DUP1 PUSH4 0x3279BEAB EQ PUSH2 0x29C JUMPI DUP1 PUSH4 0x392E53CD EQ PUSH2 0x2AF JUMPI PUSH1 0x0 DUP1 REVERT JUMPDEST DUP1 PUSH4 0x1F8A976 EQ PUSH2 0x200 JUMPI DUP1 PUSH4 0xACE6247 EQ PUSH2 0x215 JUMPI DUP1 PUSH4 0x1959A002 EQ PUSH2 0x231 JUMPI DUP1 PUSH4 0x1AED6553 EQ PUSH2 0x26D JUMPI JUMPDEST PUSH1 0x0 DUP1 REVERT JUMPDEST PUSH2 0x213 PUSH2 0x20E CALLDATASIZE PUSH1 0x4 PUSH2 0x191C JUMP JUMPDEST PUSH2 0x468 JUMP JUMPDEST STOP JUMPDEST PUSH2 0x21E PUSH1 0xA SLOAD DUP2 JUMP JUMPDEST PUSH1 0x40 MLOAD SWAP1 DUP2 MSTORE PUSH1 0x20 ADD JUMPDEST PUSH1 0x40 MLOAD DUP1 SWAP2 SUB SWAP1 RETURN JUMPDEST PUSH2 0x258 PUSH2 0x23F CALLDATASIZE PUSH1 0x4 PUSH2 0x194A JUMP JUMPDEST PUSH1 0xF PUSH1 0x20 MSTORE PUSH1 0x0 SWAP1 DUP2 MSTORE PUSH1 0x40 SWAP1 KECCAK256 DUP1 SLOAD PUSH1 0x1 SWAP1 SWAP2 ADD SLOAD DUP3 JUMP JUMPDEST PUSH1 0x40 DUP1 MLOAD SWAP3 DUP4 MSTORE PUSH1 0x20 DUP4 ADD SWAP2 SWAP1 SWAP2 MSTORE ADD PUSH2 0x228 JUMP JUMPDEST PUSH2 0x21E PUSH1 0x4 SLOAD DUP2 JUMP JUMPDEST PUSH2 0x213 PUSH2 0x284 CALLDATASIZE PUSH1 0x4 PUSH2 0x1967 JUMP JUMPDEST PUSH2 0x51A JUMP JUMPDEST PUSH2 0x213 PUSH2 0x297 CALLDATASIZE PUSH1 0x4 PUSH2 0x191C JUMP JUMPDEST PUSH2 0x727 JUMP JUMPDEST PUSH2 0x213 PUSH2 0x2AA CALLDATASIZE PUSH1 0x4 PUSH2 0x191C JUMP JUMPDEST PUSH2 0x891 JUMP JUMPDEST PUSH1 0x2 SLOAD PUSH2 0x2C1 SWAP1 PUSH2 0x100 SWAP1 DIV PUSH1 0xFF AND DUP2 JUMP JUMPDEST PUSH1 0x40 MLOAD SWAP1 ISZERO ISZERO DUP2 MSTORE PUSH1 0x20 ADD PUSH2 0x228 JUMP JUMPDEST PUSH2 0x21E PUSH1 0x5 SLOAD DUP2 JUMP JUMPDEST PUSH1 0x2 SLOAD PUSH2 0x2C1 SWAP1 PUSH1 0xFF AND DUP2 JUMP JUMPDEST PUSH1 0x9 SLOAD PUSH2 0x2C1 SWAP1 PUSH1 0xFF AND DUP2 JUMP JUMPDEST PUSH2 0x21E PUSH1 0x7 SLOAD DUP2 JUMP JUMPDEST PUSH2 0x213 PUSH2 0x30B CALLDATASIZE PUSH1 0x4 PUSH2 0x19F1 JUMP JUMPDEST PUSH2 0x8D5 JUMP JUMPDEST PUSH2 0x213 PUSH2 0x953 JUMP JUMPDEST PUSH2 0x213 PUSH2 0x989 JUMP JUMPDEST PUSH2 0x21E PUSH1 0x8 SLOAD DUP2 JUMP JUMPDEST PUSH2 0x21E PUSH1 0xB SLOAD DUP2 JUMP JUMPDEST PUSH1 0x0 SLOAD PUSH1 0x1 PUSH1 0x1 PUSH1 0xA0 SHL SUB AND JUMPDEST PUSH1 0x40 MLOAD PUSH1 0x1 PUSH1 0x1 PUSH1 0xA0 SHL SUB SWAP1 SWAP2 AND DUP2 MSTORE PUSH1 0x20 ADD PUSH2 0x228 JUMP JUMPDEST PUSH2 0x21E PUSH1 0x3 SLOAD DUP2 JUMP JUMPDEST PUSH2 0x2C1 PUSH2 0x9B9 JUMP JUMPDEST PUSH2 0x213 PUSH2 0x376 CALLDATASIZE PUSH1 0x4 PUSH2 0x1A1D JUMP JUMPDEST PUSH2 0x9EE JUMP JUMPDEST PUSH2 0x213 PUSH2 0x389 CALLDATASIZE PUSH1 0x4 PUSH2 0x194A JUMP JUMPDEST PUSH2 0xB6F JUMP JUMPDEST PUSH2 0x213 PUSH2 0x39C CALLDATASIZE PUSH1 0x4 PUSH2 0x19F1 JUMP JUMPDEST PUSH2 0xD9D JUMP JUMPDEST PUSH2 0x21E PUSH1 0x6 SLOAD DUP2 JUMP JUMPDEST PUSH2 0x213 PUSH2 0x3B8 CALLDATASIZE PUSH1 0x4 PUSH2 0x191C JUMP JUMPDEST PUSH2 0xEAF JUMP JUMPDEST PUSH2 0x33F PUSH32 0x0 DUP2 JUMP JUMPDEST PUSH2 0x33F PUSH32 0x0 DUP2 JUMP JUMPDEST PUSH1 0xE SLOAD PUSH2 0x33F SWAP1 PUSH1 0x1 PUSH1 0x1 PUSH1 0xA0 SHL SUB AND DUP2 JUMP JUMPDEST PUSH2 0x21E PUSH1 0xC SLOAD DUP2 JUMP JUMPDEST PUSH2 0x213 PUSH2 0x1243 JUMP JUMPDEST PUSH2 0x213 PUSH2 0x43D CALLDATASIZE PUSH1 0x4 PUSH2 0x194A JUMP JUMPDEST PUSH2 0x12E4 JUMP JUMPDEST PUSH2 0x21E PUSH2 0x450 CALLDATASIZE PUSH1 0x4 PUSH2 0x194A JUMP JUMPDEST PUSH2 0x137C JUMP JUMPDEST PUSH1 0xD SLOAD PUSH2 0x33F SWAP1 PUSH1 0x1 PUSH1 0x1 PUSH1 0xA0 SHL SUB AND DUP2 JUMP JUMPDEST PUSH1 0x0 SLOAD PUSH1 0x1 PUSH1 0x1 PUSH1 0xA0 SHL SUB AND CALLER EQ PUSH2 0x49B JUMPI PUSH1 0x40 MLOAD PUSH3 0x461BCD PUSH1 0xE5 SHL DUP2 MSTORE PUSH1 0x4 ADD PUSH2 0x492 SWAP1 PUSH2 0x1A3F JUMP JUMPDEST PUSH1 0x40 MLOAD DUP1 SWAP2 SUB SWAP1 REVERT JUMPDEST PUSH1 0x5 SLOAD NUMBER LT PUSH2 0x4DF JUMPI PUSH1 0x40 MLOAD PUSH3 0x461BCD PUSH1 0xE5 SHL DUP2 MSTORE PUSH1 0x20 PUSH1 0x4 DUP3 ADD MSTORE PUSH1 0x10 PUSH1 0x24 DUP3 ADD MSTORE PUSH16 0x141BDBDB081A185CC81CDD185C9D1959 PUSH1 0x82 SHL PUSH1 0x44 DUP3 ADD MSTORE PUSH1 0x64 ADD PUSH2 0x492 JUMP JUMPDEST PUSH1 0xB DUP2 SWAP1 SSTORE PUSH1 0x40 MLOAD DUP2 DUP2 MSTORE PUSH32 0xC4D677EEF92893AC7EC52FAF8140FC6C851AB4736302B4F3A89DFB20696A0DF SWAP1 PUSH1 0x20 ADD PUSH1 0x40 MLOAD DUP1 SWAP2 SUB SWAP1 LOG1 POP JUMP JUMPDEST PUSH1 0x2 SLOAD PUSH2 0x100 SWAP1 DIV PUSH1 0xFF AND ISZERO PUSH2 0x568 JUMPI PUSH1 0x40 MLOAD PUSH3 0x461BCD PUSH1 0xE5 SHL DUP2 MSTORE PUSH1 0x20 PUSH1 0x4 DUP3 ADD MSTORE PUSH1 0x13 PUSH1 0x24 DUP3 ADD MSTORE PUSH19 0x105B1C9958591E481A5B9A5D1A585B1A5E9959 PUSH1 0x6A SHL PUSH1 0x44 DUP3 ADD MSTORE PUSH1 0x64 ADD PUSH2 0x492 JUMP JUMPDEST CALLER PUSH1 0x1 PUSH1 0x1 PUSH1 0xA0 SHL SUB PUSH32 0x0 AND EQ PUSH2 0x5CE JUMPI PUSH1 0x40 MLOAD PUSH3 0x461BCD PUSH1 0xE5 SHL DUP2 MSTORE PUSH1 0x20 PUSH1 0x4 DUP3 ADD MSTORE PUSH1 0xB PUSH1 0x24 DUP3 ADD MSTORE PUSH11 0x4E6F7420666163746F7279 PUSH1 0xA8 SHL PUSH1 0x44 DUP3 ADD MSTORE PUSH1 0x64 ADD PUSH2 0x492 JUMP JUMPDEST PUSH1 0x2 DUP1 SLOAD PUSH2 0xFF00 NOT AND PUSH2 0x100 OR SWAP1 SSTORE PUSH1 0xE DUP1 SLOAD PUSH1 0x1 PUSH1 0x1 PUSH1 0xA0 SHL SUB DUP1 DUP12 AND PUSH1 0x1 PUSH1 0x1 PUSH1 0xA0 SHL SUB NOT SWAP3 DUP4 AND OR SWAP1 SWAP3 SSTORE PUSH1 0xD DUP1 SLOAD SWAP3 DUP11 AND SWAP3 SWAP1 SWAP2 AND SWAP2 SWAP1 SWAP2 OR SWAP1 SSTORE PUSH1 0xB DUP7 SWAP1 SSTORE PUSH1 0x5 DUP6 SWAP1 SSTORE PUSH1 0x4 DUP5 SWAP1 SSTORE DUP3 ISZERO PUSH2 0x63A JUMPI PUSH1 0x2 DUP1 SLOAD PUSH1 0xFF NOT AND PUSH1 0x1 OR SWAP1 SSTORE PUSH1 0x7 DUP4 SWAP1 SSTORE PUSH1 0x8 DUP3 SWAP1 SSTORE JUMPDEST PUSH1 0xD SLOAD PUSH1 0x40 DUP1 MLOAD PUSH4 0x313CE567 PUSH1 0xE0 SHL DUP2 MSTORE SWAP1 MLOAD PUSH1 0x0 SWAP3 PUSH1 0x1 PUSH1 0x1 PUSH1 0xA0 SHL SUB AND SWAP2 PUSH4 0x313CE567 SWAP2 PUSH1 0x4 DUP1 DUP4 ADD SWAP3 PUSH1 0x20 SWAP3 SWAP2 SWAP1 DUP3 SWAP1 SUB ADD DUP2 DUP7 GAS STATICCALL ISZERO DUP1 ISZERO PUSH2 0x684 JUMPI RETURNDATASIZE PUSH1 0x0 DUP1 RETURNDATACOPY RETURNDATASIZE PUSH1 0x0 REVERT JUMPDEST POP POP POP POP PUSH1 0x40 MLOAD RETURNDATASIZE PUSH1 0x1F NOT PUSH1 0x1F DUP3 ADD AND DUP3 ADD DUP1 PUSH1 0x40 MSTORE POP DUP2 ADD SWAP1 PUSH2 0x6A8 SWAP2 SWAP1 PUSH2 0x1A74 JUMP JUMPDEST PUSH1 0xFF AND SWAP1 POP PUSH1 0x1E DUP2 LT PUSH2 0x6F4 JUMPI PUSH1 0x40 MLOAD PUSH3 0x461BCD PUSH1 0xE5 SHL DUP2 MSTORE PUSH1 0x20 PUSH1 0x4 DUP3 ADD MSTORE PUSH1 0x14 PUSH1 0x24 DUP3 ADD MSTORE PUSH20 0x4D757374206265206C657373207468616E20333 PUSH1 0x64 SHL PUSH1 0x44 DUP3 ADD MSTORE PUSH1 0x64 ADD PUSH2 0x492 JUMP JUMPDEST PUSH2 0x6FF DUP2 PUSH1 0x1E PUSH2 0x1AAD JUMP JUMPDEST PUSH2 0x70A SWAP1 PUSH1 0xA PUSH2 0x1BA4 JUMP JUMPDEST PUSH1 0xC SSTORE PUSH1 0x5 SLOAD PUSH1 0x6 SSTORE PUSH2 0x71C DUP3 PUSH2 0x12E4 JUMP JUMPDEST POP POP POP POP POP POP POP POP POP JUMP JUMPDEST PUSH1 0x2 PUSH1 0x1 SLOAD SUB PUSH2 0x749 JUMPI PUSH1 0x40 MLOAD PUSH3 0x461BCD PUSH1 0xE5 SHL DUP2 MSTORE PUSH1 0x4 ADD PUSH2 0x492 SWAP1 PUSH2 0x1BB0 JUMP JUMPDEST PUSH1 0x2 PUSH1 0x1 SSTORE CALLER PUSH1 0x0 SWAP1 DUP2 MSTORE PUSH1 0xF PUSH1 0x20 MSTORE PUSH1 0x40 SWAP1 KECCAK256 DUP1 SLOAD DUP3 GT ISZERO PUSH2 0x7AE JUMPI PUSH1 0x40 MLOAD PUSH3 0x461BCD PUSH1 0xE5 SHL DUP2 MSTORE PUSH1 0x20 PUSH1 0x4 DUP3 ADD MSTORE PUSH1 0x1B PUSH1 0x24 DUP3 ADD MSTORE PUSH32 0x416D6F756E7420746F20776974686472617720746F6F20686967680000000000 PUSH1 0x44 DUP3 ADD MSTORE PUSH1 0x64 ADD PUSH2 0x492 JUMP JUMPDEST PUSH2 0x7B6 PUSH2 0x14CC JUMP JUMPDEST PUSH1 0x0 DUP2 PUSH1 0x1 ADD SLOAD PUSH1 0xC SLOAD PUSH1 0x3 SLOAD DUP5 PUSH1 0x0 ADD SLOAD PUSH2 0x7D2 SWAP2 SWAP1 PUSH2 0x1BE7 JUMP JUMPDEST PUSH2 0x7DC SWAP2 SWAP1 PUSH2 0x1BFE JUMP JUMPDEST PUSH2 0x7E6 SWAP2 SWAP1 PUSH2 0x1AAD JUMP JUMPDEST SWAP1 POP DUP3 ISZERO PUSH2 0x814 JUMPI DUP2 SLOAD PUSH2 0x7FB SWAP1 DUP5 SWAP1 PUSH2 0x1AAD JUMP JUMPDEST DUP3 SSTORE PUSH1 0xE SLOAD PUSH2 0x814 SWAP1 PUSH1 0x1 PUSH1 0x1 PUSH1 0xA0 SHL SUB AND CALLER DUP6 PUSH2 0x15A9 JUMP JUMPDEST DUP1 ISZERO PUSH2 0x831 JUMPI PUSH1 0xD SLOAD PUSH2 0x831 SWAP1 PUSH1 0x1 PUSH1 0x1 PUSH1 0xA0 SHL SUB AND CALLER DUP4 PUSH2 0x15A9 JUMP JUMPDEST PUSH1 0xC SLOAD PUSH1 0x3 SLOAD DUP4 SLOAD PUSH2 0x843 SWAP2 SWAP1 PUSH2 0x1BE7 JUMP JUMPDEST PUSH2 0x84D SWAP2 SWAP1 PUSH2 0x1BFE JUMP JUMPDEST PUSH1 0x1 DUP4 ADD SSTORE PUSH1 0x40 MLOAD DUP4 DUP2 MSTORE CALLER SWAP1 PUSH32 0x884EDAD9CE6FA2440D8A54CC123490EB96D2768479D49FF9C7366125A9424364 SWAP1 PUSH1 0x20 ADD JUMPDEST PUSH1 0x40 MLOAD DUP1 SWAP2 SUB SWAP1 LOG2 POP POP PUSH1 0x1 DUP1 SSTORE POP JUMP JUMPDEST PUSH1 0x0 SLOAD PUSH1 0x1 PUSH1 0x1 PUSH1 0xA0 SHL SUB AND CALLER EQ PUSH2 0x8BB JUMPI PUSH1 0x40 MLOAD PUSH3 0x461BCD PUSH1 0xE5 SHL DUP2 MSTORE PUSH1 0x4 ADD PUSH2 0x492 SWAP1 PUSH2 0x1A3F JUMP JUMPDEST PUSH1 0xD SLOAD PUSH2 0x8D2 SWAP1 PUSH1 0x1 PUSH1 0x1 PUSH1 0xA0 SHL SUB AND CALLER DUP4 PUSH2 0x15A9 JUMP JUMPDEST POP JUMP JUMPDEST PUSH1 0x0 SLOAD PUSH1 0x1 PUSH1 0x1 PUSH1 0xA0 SHL SUB AND CALLER EQ PUSH2 0x8FF JUMPI PUSH1 0x40 MLOAD PUSH3 0x461BCD PUSH1 0xE5 SHL DUP2 MSTORE PUSH1 0x4 ADD PUSH2 0x492 SWAP1 PUSH2 0x1A3F JUMP JUMPDEST PUSH1 0x9 DUP1 SLOAD PUSH1 0xFF NOT AND DUP4 ISZERO ISZERO SWAP1 DUP2 OR SWAP1 SWAP2 SSTORE PUSH1 0xA DUP3 SWAP1 SSTORE PUSH1 0x40 DUP1 MLOAD SWAP2 DUP3 MSTORE PUSH1 0x20 DUP3 ADD DUP4 SWAP1 MSTORE PUSH32 0x915D08E0E89C58E352D7C1D66C942CB15DAC8A7294D2CA80DDF46F1998F0512B SWAP2 ADD JUMPDEST PUSH1 0x40 MLOAD DUP1 SWAP2 SUB SWAP1 LOG1 POP POP JUMP JUMPDEST PUSH1 0x0 SLOAD PUSH1 0x1 PUSH1 0x1 PUSH1 0xA0 SHL SUB AND CALLER EQ PUSH2 0x97D JUMPI PUSH1 0x40 MLOAD PUSH3 0x461BCD PUSH1 0xE5 SHL DUP2 MSTORE PUSH1 0x4 ADD PUSH2 0x492 SWAP1 PUSH2 0x1A3F JUMP JUMPDEST PUSH2 0x987 PUSH1 0x0 PUSH2 0x1611 JUMP JUMPDEST JUMP JUMPDEST PUSH1 0x0 SLOAD PUSH1 0x1 PUSH1 0x1 PUSH1 0xA0 SHL SUB AND CALLER EQ PUSH2 0x9B3 JUMPI PUSH1 0x40 MLOAD PUSH3 0x461BCD PUSH1 0xE5 SHL DUP2 MSTORE PUSH1 0x4 ADD PUSH2 0x492 SWAP1 PUSH2 0x1A3F JUMP JUMPDEST NUMBER PUSH1 0x4 SSTORE JUMP JUMPDEST PUSH1 0x2 SLOAD PUSH1 0x0 SWAP1 PUSH1 0xFF AND ISZERO DUP1 PUSH2 0x9DD JUMPI POP PUSH1 0x8 SLOAD PUSH1 0x5 SLOAD PUSH2 0x9D9 SWAP2 SWAP1 PUSH2 0x1C20 JUMP JUMPDEST NUMBER LT ISZERO JUMPDEST ISZERO PUSH2 0x9E8 JUMPI POP PUSH1 0x0 SWAP1 JUMP JUMPDEST POP PUSH1 0x1 SWAP1 JUMP JUMPDEST PUSH1 0x0 SLOAD PUSH1 0x1 PUSH1 0x1 PUSH1 0xA0 SHL SUB AND CALLER EQ PUSH2 0xA18 JUMPI PUSH1 0x40 MLOAD PUSH3 0x461BCD PUSH1 0xE5 SHL DUP2 MSTORE PUSH1 0x4 ADD PUSH2 0x492 SWAP1 PUSH2 0x1A3F JUMP JUMPDEST PUSH1 0x5 SLOAD NUMBER LT PUSH2 0xA5C JUMPI PUSH1 0x40 MLOAD PUSH3 0x461BCD PUSH1 0xE5 SHL DUP2 MSTORE PUSH1 0x20 PUSH1 0x4 DUP3 ADD MSTORE PUSH1 0x10 PUSH1 0x24 DUP3 ADD MSTORE PUSH16 0x141BDBDB081A185CC81CDD185C9D1959 PUSH1 0x82 SHL PUSH1 0x44 DUP3 ADD MSTORE PUSH1 0x64 ADD PUSH2 0x492 JUMP JUMPDEST DUP1 DUP3 LT PUSH2 0xAC2 JUMPI PUSH1 0x40 MLOAD PUSH3 0x461BCD PUSH1 0xE5 SHL DUP2 MSTORE PUSH1 0x20 PUSH1 0x4 DUP3 ADD MSTORE PUSH1 0x2E PUSH1 0x24 DUP3 ADD MSTORE PUSH32 0x4E6577207374617274426C6F636B206D757374206265206C6F77657220746861 PUSH1 0x44 DUP3 ADD MSTORE PUSH14 0x6E206E657720656E64426C6F636B PUSH1 0x90 SHL PUSH1 0x64 DUP3 ADD MSTORE PUSH1 0x84 ADD PUSH2 0x492 JUMP JUMPDEST DUP2 NUMBER LT PUSH2 0xB2A JUMPI PUSH1 0x40 MLOAD PUSH3 0x461BCD PUSH1 0xE5 SHL DUP2 MSTORE PUSH1 0x20 PUSH1 0x4 DUP3 ADD MSTORE PUSH1 0x30 PUSH1 0x24 DUP3 ADD MSTORE PUSH32 0x4E6577207374617274426C6F636B206D75737420626520686967686572207468 PUSH1 0x44 DUP3 ADD MSTORE PUSH16 0x616E2063757272656E7420626C6F636B PUSH1 0x80 SHL PUSH1 0x64 DUP3 ADD MSTORE PUSH1 0x84 ADD PUSH2 0x492 JUMP JUMPDEST PUSH1 0x5 DUP3 SWAP1 SSTORE PUSH1 0x4 DUP2 SWAP1 SSTORE PUSH1 0x6 DUP3 SWAP1 SSTORE PUSH1 0x40 DUP1 MLOAD DUP4 DUP2 MSTORE PUSH1 0x20 DUP2 ADD DUP4 SWAP1 MSTORE PUSH32 0x7CD0AB87D19036F3DFADADB232C78AA4879DDA3F0C994A9D637532410EE2CE06 SWAP2 ADD PUSH2 0x947 JUMP JUMPDEST PUSH1 0x0 SLOAD PUSH1 0x1 PUSH1 0x1 PUSH1 0xA0 SHL SUB AND CALLER EQ PUSH2 0xB99 JUMPI PUSH1 0x40 MLOAD PUSH3 0x461BCD PUSH1 0xE5 SHL DUP2 MSTORE PUSH1 0x4 ADD PUSH2 0x492 SWAP1 PUSH2 0x1A3F JUMP JUMPDEST PUSH1 0xE SLOAD PUSH1 0x1 PUSH1 0x1 PUSH1 0xA0 SHL SUB SWAP1 DUP2 AND SWAP1 DUP3 AND SUB PUSH2 0xC07 JUMPI PUSH1 0x40 MLOAD PUSH3 0x461BCD PUSH1 0xE5 SHL DUP2 MSTORE PUSH1 0x20 PUSH1 0x4 DUP3 ADD MSTORE PUSH1 0x27 PUSH1 0x24 DUP3 ADD MSTORE PUSH32 0x4F7065726174696F6E733A2043616E6E6F74207265636F766572207374616B65 PUSH1 0x44 DUP3 ADD MSTORE PUSH7 0x32103A37B5B2B7 PUSH1 0xC9 SHL PUSH1 0x64 DUP3 ADD MSTORE PUSH1 0x84 ADD PUSH2 0x492 JUMP JUMPDEST PUSH1 0xD SLOAD PUSH1 0x1 PUSH1 0x1 PUSH1 0xA0 SHL SUB SWAP1 DUP2 AND SWAP1 DUP3 AND SUB PUSH2 0xC75 JUMPI PUSH1 0x40 MLOAD PUSH3 0x461BCD PUSH1 0xE5 SHL DUP2 MSTORE PUSH1 0x20 PUSH1 0x4 DUP3 ADD MSTORE PUSH1 0x27 PUSH1 0x24 DUP3 ADD MSTORE PUSH32 0x4F7065726174696F6E733A2043616E6E6F74207265636F766572207265776172 PUSH1 0x44 DUP3 ADD MSTORE PUSH7 0x32103A37B5B2B7 PUSH1 0xC9 SHL PUSH1 0x64 DUP3 ADD MSTORE PUSH1 0x84 ADD PUSH2 0x492 JUMP JUMPDEST PUSH1 0x40 MLOAD PUSH4 0x70A08231 PUSH1 0xE0 SHL DUP2 MSTORE ADDRESS PUSH1 0x4 DUP3 ADD MSTORE PUSH1 0x0 SWAP1 PUSH1 0x1 PUSH1 0x1 PUSH1 0xA0 SHL SUB DUP4 AND SWAP1 PUSH4 0x70A08231 SWAP1 PUSH1 0x24 ADD PUSH1 0x20 PUSH1 0x40 MLOAD DUP1 DUP4 SUB DUP2 DUP7 GAS STATICCALL ISZERO DUP1 ISZERO PUSH2 0xCBC JUMPI RETURNDATASIZE PUSH1 0x0 DUP1 RETURNDATACOPY RETURNDATASIZE PUSH1 0x0 REVERT JUMPDEST POP POP POP POP PUSH1 0x40 MLOAD RETURNDATASIZE PUSH1 0x1F NOT PUSH1 0x1F DUP3 ADD AND DUP3 ADD DUP1 PUSH1 0x40 MSTORE POP DUP2 ADD SWAP1 PUSH2 0xCE0 SWAP2 SWAP1 PUSH2 0x1C33 JUMP JUMPDEST SWAP1 POP DUP1 PUSH1 0x0 SUB PUSH2 0xD42 JUMPI PUSH1 0x40 MLOAD PUSH3 0x461BCD PUSH1 0xE5 SHL DUP2 MSTORE PUSH1 0x20 PUSH1 0x4 DUP3 ADD MSTORE PUSH1 0x27 PUSH1 0x24 DUP3 ADD MSTORE PUSH32 0x4F7065726174696F6E733A2043616E6E6F74207265636F766572207A65726F20 PUSH1 0x44 DUP3 ADD MSTORE PUSH7 0x62616C616E6365 PUSH1 0xC8 SHL PUSH1 0x64 DUP3 ADD MSTORE PUSH1 0x84 ADD PUSH2 0x492 JUMP JUMPDEST PUSH2 0xD56 PUSH1 0x1 PUSH1 0x1 PUSH1 0xA0 SHL SUB DUP4 AND CALLER DUP4 PUSH2 0x15A9 JUMP JUMPDEST DUP2 PUSH1 0x1 PUSH1 0x1 PUSH1 0xA0 SHL SUB AND PUSH32 0x14F11966A996E0629572E51064726D2057A80FBD34EFC066682C06A71DBB6E98 DUP3 PUSH1 0x40 MLOAD PUSH2 0xD91 SWAP2 DUP2 MSTORE PUSH1 0x20 ADD SWAP1 JUMP JUMPDEST PUSH1 0x40 MLOAD DUP1 SWAP2 SUB SWAP1 LOG2 POP POP JUMP JUMPDEST PUSH1 0x0 SLOAD PUSH1 0x1 PUSH1 0x1 PUSH1 0xA0 SHL SUB AND CALLER EQ PUSH2 0xDC7 JUMPI PUSH1 0x40 MLOAD PUSH3 0x461BCD PUSH1 0xE5 SHL DUP2 MSTORE PUSH1 0x4 ADD PUSH2 0x492 SWAP1 PUSH2 0x1A3F JUMP JUMPDEST PUSH1 0x2 SLOAD PUSH1 0xFF AND PUSH2 0xE07 JUMPI PUSH1 0x40 MLOAD PUSH3 0x461BCD PUSH1 0xE5 SHL DUP2 MSTORE PUSH1 0x20 PUSH1 0x4 DUP3 ADD MSTORE PUSH1 0xB PUSH1 0x24 DUP3 ADD MSTORE PUSH11 0x135D5CDD081899481CD95D PUSH1 0xAA SHL PUSH1 0x44 DUP3 ADD MSTORE PUSH1 0x64 ADD PUSH2 0x492 JUMP JUMPDEST DUP2 ISZERO PUSH2 0xE68 JUMPI PUSH1 0x7 SLOAD DUP2 GT PUSH2 0xE5E JUMPI PUSH1 0x40 MLOAD PUSH3 0x461BCD PUSH1 0xE5 SHL DUP2 MSTORE PUSH1 0x20 PUSH1 0x4 DUP3 ADD MSTORE PUSH1 0x18 PUSH1 0x24 DUP3 ADD MSTORE PUSH32 0x4E6577206C696D6974206D757374206265206869676865720000000000000000 PUSH1 0x44 DUP3 ADD MSTORE PUSH1 0x64 ADD PUSH2 0x492 JUMP JUMPDEST PUSH1 0x7 DUP2 SWAP1 SSTORE PUSH2 0xE7C JUMP JUMPDEST PUSH1 0x2 DUP1 SLOAD PUSH1 0xFF NOT AND DUP4 ISZERO ISZERO OR SWAP1 SSTORE PUSH1 0x0 PUSH1 0x7 SSTORE JUMPDEST PUSH32 0x241F67EE5F41B7A5CABF911367329BE7215900F602EBFC47F89DCE2A6BCD847C PUSH1 0x7 SLOAD PUSH1 0x40 MLOAD PUSH2 0x947 SWAP2 DUP2 MSTORE PUSH1 0x20 ADD SWAP1 JUMP JUMPDEST PUSH1 0x2 PUSH1 0x1 SLOAD SUB PUSH2 0xED1 JUMPI PUSH1 0x40 MLOAD PUSH3 0x461BCD PUSH1 0xE5 SHL DUP2 MSTORE PUSH1 0x4 ADD PUSH2 0x492 SWAP1 PUSH2 0x1BB0 JUMP JUMPDEST PUSH1 0x2 PUSH1 0x1 SSTORE CALLER PUSH1 0x0 SWAP1 DUP2 MSTORE PUSH1 0xF PUSH1 0x20 MSTORE PUSH1 0x40 SWAP1 KECCAK256 PUSH1 0x9 SLOAD PUSH1 0xFF AND ISZERO DUP1 ISZERO PUSH2 0xEF8 JUMPI POP PUSH1 0xA SLOAD ISZERO JUMPDEST DUP1 PUSH2 0xF86 JUMPI POP PUSH1 0x40 MLOAD PUSH4 0xEA0D5DCD PUSH1 0xE0 SHL DUP2 MSTORE CALLER PUSH1 0x4 DUP3 ADD MSTORE PUSH32 0x0 PUSH1 0x1 PUSH1 0x1 PUSH1 0xA0 SHL SUB AND SWAP1 PUSH4 0xEA0D5DCD SWAP1 PUSH1 0x24 ADD PUSH1 0x20 PUSH1 0x40 MLOAD DUP1 DUP4 SUB DUP2 DUP7 GAS STATICCALL ISZERO DUP1 ISZERO PUSH2 0xF62 JUMPI RETURNDATASIZE PUSH1 0x0 DUP1 RETURNDATACOPY RETURNDATASIZE PUSH1 0x0 REVERT JUMPDEST POP POP POP POP PUSH1 0x40 MLOAD RETURNDATASIZE PUSH1 0x1F NOT PUSH1 0x1F DUP3 ADD AND DUP3 ADD DUP1 PUSH1 0x40 MSTORE POP DUP2 ADD SWAP1 PUSH2 0xF86 SWAP2 SWAP1 PUSH2 0x1C4C JUMP JUMPDEST PUSH2 0xFDE JUMPI PUSH1 0x40 MLOAD PUSH3 0x461BCD PUSH1 0xE5 SHL DUP2 MSTORE PUSH1 0x20 PUSH1 0x4 DUP3 ADD MSTORE PUSH1 0x24 DUP1 DUP3 ADD MSTORE PUSH32 0x4465706F7369743A204D757374206861766520616E206163746976652070726F PUSH1 0x44 DUP3 ADD MSTORE PUSH4 0x66696C65 PUSH1 0xE0 SHL PUSH1 0x64 DUP3 ADD MSTORE PUSH1 0x84 ADD PUSH2 0x492 JUMP JUMPDEST PUSH1 0xA SLOAD PUSH1 0x0 SWAP1 ISZERO PUSH2 0x107A JUMPI PUSH1 0x40 MLOAD PUSH4 0x4C3F70AB PUSH1 0xE1 SHL DUP2 MSTORE CALLER PUSH1 0x4 DUP3 ADD MSTORE PUSH32 0x0 PUSH1 0x1 PUSH1 0x1 PUSH1 0xA0 SHL SUB AND SWAP1 PUSH4 0x987EE156 SWAP1 PUSH1 0x24 ADD PUSH1 0xC0 PUSH1 0x40 MLOAD DUP1 DUP4 SUB DUP2 DUP7 GAS STATICCALL ISZERO DUP1 ISZERO PUSH2 0x104D JUMPI RETURNDATASIZE PUSH1 0x0 DUP1 RETURNDATACOPY RETURNDATASIZE PUSH1 0x0 REVERT JUMPDEST POP POP POP POP PUSH1 0x40 MLOAD RETURNDATASIZE PUSH1 0x1F NOT PUSH1 0x1F DUP3 ADD AND DUP3 ADD DUP1 PUSH1 0x40 MSTORE POP DUP2 ADD SWAP1 PUSH2 0x1071 SWAP2 SWAP1 PUSH2 0x1C69 JUMP JUMPDEST POP SWAP3 SWAP5 POP POP POP POP POP JUMPDEST PUSH1 0xA SLOAD ISZERO DUP1 PUSH2 0x108B JUMPI POP PUSH1 0xA SLOAD DUP2 LT ISZERO JUMPDEST PUSH2 0x10E3 JUMPI PUSH1 0x40 MLOAD PUSH3 0x461BCD PUSH1 0xE5 SHL DUP2 MSTORE PUSH1 0x20 PUSH1 0x4 DUP3 ADD MSTORE PUSH1 0x23 PUSH1 0x24 DUP3 ADD MSTORE PUSH32 0x4465706F7369743A205573657220686173206E6F7420656E6F75676820706F69 PUSH1 0x44 DUP3 ADD MSTORE PUSH3 0x6E7473 PUSH1 0xE8 SHL PUSH1 0x64 DUP3 ADD MSTORE PUSH1 0x84 ADD PUSH2 0x492 JUMP JUMPDEST PUSH2 0x10EB PUSH2 0x9B9 JUMP JUMPDEST PUSH1 0x2 DUP1 SLOAD PUSH1 0xFF NOT AND SWAP2 ISZERO ISZERO SWAP2 DUP3 OR SWAP1 SSTORE PUSH1 0xFF AND ISZERO DUP1 PUSH2 0x1117 JUMPI POP PUSH1 0x7 SLOAD DUP3 SLOAD PUSH2 0x1114 SWAP1 DUP6 PUSH2 0x1C20 JUMP JUMPDEST GT ISZERO JUMPDEST PUSH2 0x1163 JUMPI PUSH1 0x40 MLOAD PUSH3 0x461BCD PUSH1 0xE5 SHL DUP2 MSTORE PUSH1 0x20 PUSH1 0x4 DUP3 ADD MSTORE PUSH1 0x1B PUSH1 0x24 DUP3 ADD MSTORE PUSH32 0x4465706F7369743A20416D6F756E742061626F7665206C696D69740000000000 PUSH1 0x44 DUP3 ADD MSTORE PUSH1 0x64 ADD PUSH2 0x492 JUMP JUMPDEST PUSH2 0x116B PUSH2 0x14CC JUMP JUMPDEST DUP2 SLOAD ISZERO PUSH2 0x11C3 JUMPI PUSH1 0x0 DUP3 PUSH1 0x1 ADD SLOAD PUSH1 0xC SLOAD PUSH1 0x3 SLOAD DUP6 PUSH1 0x0 ADD SLOAD PUSH2 0x118E SWAP2 SWAP1 PUSH2 0x1BE7 JUMP JUMPDEST PUSH2 0x1198 SWAP2 SWAP1 PUSH2 0x1BFE JUMP JUMPDEST PUSH2 0x11A2 SWAP2 SWAP1 PUSH2 0x1AAD JUMP JUMPDEST SWAP1 POP DUP1 ISZERO PUSH2 0x11C1 JUMPI PUSH1 0xD SLOAD PUSH2 0x11C1 SWAP1 PUSH1 0x1 PUSH1 0x1 PUSH1 0xA0 SHL SUB AND CALLER DUP4 PUSH2 0x15A9 JUMP JUMPDEST POP JUMPDEST DUP3 ISZERO PUSH2 0x11F0 JUMPI DUP2 SLOAD PUSH2 0x11D6 SWAP1 DUP5 SWAP1 PUSH2 0x1C20 JUMP JUMPDEST DUP3 SSTORE PUSH1 0xE SLOAD PUSH2 0x11F0 SWAP1 PUSH1 0x1 PUSH1 0x1 PUSH1 0xA0 SHL SUB AND CALLER ADDRESS DUP7 PUSH2 0x1661 JUMP JUMPDEST PUSH1 0xC SLOAD PUSH1 0x3 SLOAD DUP4 SLOAD PUSH2 0x1202 SWAP2 SWAP1 PUSH2 0x1BE7 JUMP JUMPDEST PUSH2 0x120C SWAP2 SWAP1 PUSH2 0x1BFE JUMP JUMPDEST PUSH1 0x1 DUP4 ADD SSTORE PUSH1 0x40 MLOAD DUP4 DUP2 MSTORE CALLER SWAP1 PUSH32 0xE1FFFCC4923D04B559F4D29A8BFC6CDA04EB5B0D3C460751C2402C5C5CC9109C SWAP1 PUSH1 0x20 ADD PUSH2 0x880 JUMP JUMPDEST PUSH1 0x2 PUSH1 0x1 SLOAD SUB PUSH2 0x1265 JUMPI PUSH1 0x40 MLOAD PUSH3 0x461BCD PUSH1 0xE5 SHL DUP2 MSTORE PUSH1 0x4 ADD PUSH2 0x492 SWAP1 PUSH2 0x1BB0 JUMP JUMPDEST PUSH1 0x2 PUSH1 0x1 SWAP1 DUP2 SSTORE CALLER PUSH1 0x0 SWAP1 DUP2 MSTORE PUSH1 0xF PUSH1 0x20 MSTORE PUSH1 0x40 DUP2 KECCAK256 DUP1 SLOAD DUP3 DUP3 SSTORE SWAP3 DUP2 ADD SWAP2 SWAP1 SWAP2 SSTORE SWAP1 DUP1 ISZERO PUSH2 0x12A5 JUMPI PUSH1 0xE SLOAD PUSH2 0x12A5 SWAP1 PUSH1 0x1 PUSH1 0x1 PUSH1 0xA0 SHL SUB AND CALLER DUP4 PUSH2 0x15A9 JUMP JUMPDEST DUP2 SLOAD PUSH1 0x40 MLOAD SWAP1 DUP2 MSTORE CALLER SWAP1 PUSH32 0x5FAFA99D0643513820BE26656B45130B01E1C03062E1266BF36F88CBD3BD9695 SWAP1 PUSH1 0x20 ADD PUSH1 0x40 MLOAD DUP1 SWAP2 SUB SWAP1 LOG2 POP POP PUSH1 0x1 DUP1 SSTORE JUMP JUMPDEST PUSH1 0x0 SLOAD PUSH1 0x1 PUSH1 0x1 PUSH1 0xA0 SHL SUB AND CALLER EQ PUSH2 0x130E JUMPI PUSH1 0x40 MLOAD PUSH3 0x461BCD PUSH1 0xE5 SHL DUP2 MSTORE PUSH1 0x4 ADD PUSH2 0x492 SWAP1 PUSH2 0x1A3F JUMP JUMPDEST PUSH1 0x1 PUSH1 0x1 PUSH1 0xA0 SHL SUB DUP2 AND PUSH2 0x1373 JUMPI PUSH1 0x40 MLOAD PUSH3 0x461BCD PUSH1 0xE5 SHL DUP2 MSTORE PUSH1 0x20 PUSH1 0x4 DUP3 ADD MSTORE PUSH1 0x26 PUSH1 0x24 DUP3 ADD MSTORE PUSH32 0x4F776E61626C653A206E6577206F776E657220697320746865207A65726F2061 PUSH1 0x44 DUP3 ADD MSTORE PUSH6 0x646472657373 PUSH1 0xD0 SHL PUSH1 0x64 DUP3 ADD MSTORE PUSH1 0x84 ADD PUSH2 0x492 JUMP JUMPDEST PUSH2 0x8D2 DUP2 PUSH2 0x1611 JUMP JUMPDEST PUSH1 0x1 PUSH1 0x1 PUSH1 0xA0 SHL SUB DUP2 DUP2 AND PUSH1 0x0 SWAP1 DUP2 MSTORE PUSH1 0xF PUSH1 0x20 MSTORE PUSH1 0x40 DUP1 DUP3 KECCAK256 PUSH1 0xE SLOAD SWAP2 MLOAD PUSH4 0x70A08231 PUSH1 0xE0 SHL DUP2 MSTORE ADDRESS PUSH1 0x4 DUP3 ADD MSTORE SWAP3 SWAP4 SWAP1 SWAP3 DUP5 SWAP3 SWAP1 SWAP2 AND SWAP1 PUSH4 0x70A08231 SWAP1 PUSH1 0x24 ADD PUSH1 0x20 PUSH1 0x40 MLOAD DUP1 DUP4 SUB DUP2 DUP7 GAS STATICCALL ISZERO DUP1 ISZERO PUSH2 0x13DB JUMPI RETURNDATASIZE PUSH1 0x0 DUP1 RETURNDATACOPY RETURNDATASIZE PUSH1 0x0 REVERT JUMPDEST POP POP POP POP PUSH1 0x40 MLOAD RETURNDATASIZE PUSH1 0x1F NOT PUSH1 0x1F DUP3 ADD AND DUP3 ADD DUP1 PUSH1 0x40 MSTORE POP DUP2 ADD SWAP1 PUSH2 0x13FF SWAP2 SWAP1 PUSH2 0x1C33 JUMP JUMPDEST SWAP1 POP PUSH1 0x6 SLOAD NUMBER GT DUP1 ISZERO PUSH2 0x1411 JUMPI POP DUP1 ISZERO ISZERO JUMPDEST ISZERO PUSH2 0x1499 JUMPI PUSH1 0x0 PUSH2 0x1424 PUSH1 0x6 SLOAD NUMBER PUSH2 0x169F JUMP JUMPDEST SWAP1 POP PUSH1 0x0 PUSH1 0xB SLOAD DUP3 PUSH2 0x1436 SWAP2 SWAP1 PUSH2 0x1BE7 JUMP JUMPDEST SWAP1 POP PUSH1 0x0 DUP4 PUSH1 0xC SLOAD DUP4 PUSH2 0x1449 SWAP2 SWAP1 PUSH2 0x1BE7 JUMP JUMPDEST PUSH2 0x1453 SWAP2 SWAP1 PUSH2 0x1BFE JUMP JUMPDEST PUSH1 0x3 SLOAD PUSH2 0x1460 SWAP2 SWAP1 PUSH2 0x1C20 JUMP JUMPDEST SWAP1 POP DUP5 PUSH1 0x1 ADD SLOAD PUSH1 0xC SLOAD DUP3 DUP8 PUSH1 0x0 ADD SLOAD PUSH2 0x147A SWAP2 SWAP1 PUSH2 0x1BE7 JUMP JUMPDEST PUSH2 0x1484 SWAP2 SWAP1 PUSH2 0x1BFE JUMP JUMPDEST PUSH2 0x148E SWAP2 SWAP1 PUSH2 0x1AAD JUMP JUMPDEST SWAP8 SWAP7 POP POP POP POP POP POP POP JUMP JUMPDEST PUSH1 0x1 DUP3 ADD SLOAD PUSH1 0xC SLOAD PUSH1 0x3 SLOAD DUP5 SLOAD PUSH2 0x14B0 SWAP2 SWAP1 PUSH2 0x1BE7 JUMP JUMPDEST PUSH2 0x14BA SWAP2 SWAP1 PUSH2 0x1BFE JUMP JUMPDEST PUSH2 0x14C4 SWAP2 SWAP1 PUSH2 0x1AAD JUMP JUMPDEST SWAP5 SWAP4 POP POP POP POP JUMP JUMPDEST PUSH1 0x6 SLOAD NUMBER GT PUSH2 0x14D7 JUMPI JUMP JUMPDEST PUSH1 0xE SLOAD PUSH1 0x40 MLOAD PUSH4 0x70A08231 PUSH1 0xE0 SHL DUP2 MSTORE ADDRESS PUSH1 0x4 DUP3 ADD MSTORE PUSH1 0x0 SWAP2 PUSH1 0x1 PUSH1 0x1 PUSH1 0xA0 SHL SUB AND SWAP1 PUSH4 0x70A08231 SWAP1 PUSH1 0x24 ADD PUSH1 0x20 PUSH1 0x40 MLOAD DUP1 DUP4 SUB DUP2 DUP7 GAS STATICCALL ISZERO DUP1 ISZERO PUSH2 0x1520 JUMPI RETURNDATASIZE PUSH1 0x0 DUP1 RETURNDATACOPY RETURNDATASIZE PUSH1 0x0 REVERT JUMPDEST POP POP POP POP PUSH1 0x40 MLOAD RETURNDATASIZE PUSH1 0x1F NOT PUSH1 0x1F DUP3 ADD AND DUP3 ADD DUP1 PUSH1 0x40 MSTORE POP DUP2 ADD SWAP1 PUSH2 0x1544 SWAP2 SWAP1 PUSH2 0x1C33 JUMP JUMPDEST SWAP1 POP DUP1 PUSH1 0x0 SUB PUSH2 0x1555 JUMPI POP NUMBER PUSH1 0x6 SSTORE JUMP JUMPDEST PUSH1 0x0 PUSH2 0x1563 PUSH1 0x6 SLOAD NUMBER PUSH2 0x169F JUMP JUMPDEST SWAP1 POP PUSH1 0x0 PUSH1 0xB SLOAD DUP3 PUSH2 0x1575 SWAP2 SWAP1 PUSH2 0x1BE7 JUMP JUMPDEST SWAP1 POP DUP3 PUSH1 0xC SLOAD DUP3 PUSH2 0x1586 SWAP2 SWAP1 PUSH2 0x1BE7 JUMP JUMPDEST PUSH2 0x1590 SWAP2 SWAP1 PUSH2 0x1BFE JUMP JUMPDEST PUSH1 0x3 SLOAD PUSH2 0x159D SWAP2 SWAP1 PUSH2 0x1C20 JUMP JUMPDEST PUSH1 0x3 SSTORE POP POP NUMBER PUSH1 0x6 SSTORE POP JUMP JUMPDEST PUSH1 0x40 MLOAD PUSH1 0x1 PUSH1 0x1 PUSH1 0xA0 SHL SUB DUP4 AND PUSH1 0x24 DUP3 ADD MSTORE PUSH1 0x44 DUP2 ADD DUP3 SWAP1 MSTORE PUSH2 0x160C SWAP1 DUP5 SWAP1 PUSH4 0xA9059CBB PUSH1 0xE0 SHL SWAP1 PUSH1 0x64 ADD JUMPDEST PUSH1 0x40 DUP1 MLOAD PUSH1 0x1F NOT DUP2 DUP5 SUB ADD DUP2 MSTORE SWAP2 SWAP1 MSTORE PUSH1 0x20 DUP2 ADD DUP1 MLOAD PUSH1 0x1 PUSH1 0x1 PUSH1 0xE0 SHL SUB AND PUSH1 0x1 PUSH1 0x1 PUSH1 0xE0 SHL SUB NOT SWAP1 SWAP4 AND SWAP3 SWAP1 SWAP3 OR SWAP1 SWAP2 MSTORE PUSH2 0x16E0 JUMP JUMPDEST POP POP POP JUMP JUMPDEST PUSH1 0x0 DUP1 SLOAD PUSH1 0x1 PUSH1 0x1 PUSH1 0xA0 SHL SUB DUP4 DUP2 AND PUSH1 0x1 PUSH1 0x1 PUSH1 0xA0 SHL SUB NOT DUP4 AND DUP2 OR DUP5 SSTORE PUSH1 0x40 MLOAD SWAP2 SWAP1 SWAP3 AND SWAP3 DUP4 SWAP2 PUSH32 0x8BE0079C531659141344CD1FD0A4F28419497F9722A3DAAFE3B4186F6B6457E0 SWAP2 SWAP1 LOG3 POP POP JUMP JUMPDEST PUSH1 0x40 MLOAD PUSH1 0x1 PUSH1 0x1 PUSH1 0xA0 SHL SUB DUP1 DUP6 AND PUSH1 0x24 DUP4 ADD MSTORE DUP4 AND PUSH1 0x44 DUP3 ADD MSTORE PUSH1 0x64 DUP2 ADD DUP3 SWAP1 MSTORE PUSH2 0x1699 SWAP1 DUP6 SWAP1 PUSH4 0x23B872DD PUSH1 0xE0 SHL SWAP1 PUSH1 0x84 ADD PUSH2 0x15D5 JUMP JUMPDEST POP POP POP POP JUMP JUMPDEST PUSH1 0x0 PUSH1 0x4 SLOAD DUP3 GT PUSH2 0x16BB JUMPI PUSH2 0x16B4 DUP4 DUP4 PUSH2 0x1AAD JUMP JUMPDEST SWAP1 POP PUSH2 0x16DA JUMP JUMPDEST PUSH1 0x4 SLOAD DUP4 LT PUSH2 0x16CC JUMPI POP PUSH1 0x0 PUSH2 0x16DA JUMP JUMPDEST DUP3 PUSH1 0x4 SLOAD PUSH2 0x16B4 SWAP2 SWAP1 PUSH2 0x1AAD JUMP JUMPDEST SWAP3 SWAP2 POP POP JUMP JUMPDEST PUSH1 0x0 PUSH2 0x1735 DUP3 PUSH1 0x40 MLOAD DUP1 PUSH1 0x40 ADD PUSH1 0x40 MSTORE DUP1 PUSH1 0x20 DUP2 MSTORE PUSH1 0x20 ADD PUSH32 0x5361666545524332303A206C6F772D6C6576656C2063616C6C206661696C6564 DUP2 MSTORE POP DUP6 PUSH1 0x1 PUSH1 0x1 PUSH1 0xA0 SHL SUB AND PUSH2 0x17B2 SWAP1 SWAP3 SWAP2 SWAP1 PUSH4 0xFFFFFFFF AND JUMP JUMPDEST DUP1 MLOAD SWAP1 SWAP2 POP ISZERO PUSH2 0x160C JUMPI DUP1 DUP1 PUSH1 0x20 ADD SWAP1 MLOAD DUP2 ADD SWAP1 PUSH2 0x1753 SWAP2 SWAP1 PUSH2 0x1C4C JUMP JUMPDEST PUSH2 0x160C JUMPI PUSH1 0x40 MLOAD PUSH3 0x461BCD PUSH1 0xE5 SHL DUP2 MSTORE PUSH1 0x20 PUSH1 0x4 DUP3 ADD MSTORE PUSH1 0x2A PUSH1 0x24 DUP3 ADD MSTORE PUSH32 0x5361666545524332303A204552433230206F7065726174696F6E20646964206E PUSH1 0x44 DUP3 ADD MSTORE PUSH10 0x1BDD081CDD58D8D95959 PUSH1 0xB2 SHL PUSH1 0x64 DUP3 ADD MSTORE PUSH1 0x84 ADD PUSH2 0x492 JUMP JUMPDEST PUSH1 0x60 PUSH2 0x17C1 DUP5 DUP5 PUSH1 0x0 DUP6 PUSH2 0x17CB JUMP JUMPDEST SWAP1 POP JUMPDEST SWAP4 SWAP3 POP POP POP JUMP JUMPDEST PUSH1 0x60 DUP3 SELFBALANCE LT ISZERO PUSH2 0x182C JUMPI PUSH1 0x40 MLOAD PUSH3 0x461BCD PUSH1 0xE5 SHL DUP2 MSTORE PUSH1 0x20 PUSH1 0x4 DUP3 ADD MSTORE PUSH1 0x26 PUSH1 0x24 DUP3 ADD MSTORE PUSH32 0x416464726573733A20696E73756666696369656E742062616C616E636520666F PUSH1 0x44 DUP3 ADD MSTORE PUSH6 0x1C8818D85B1B PUSH1 0xD2 SHL PUSH1 0x64 DUP3 ADD MSTORE PUSH1 0x84 ADD PUSH2 0x492 JUMP JUMPDEST DUP5 EXTCODESIZE PUSH2 0x187A JUMPI PUSH1 0x40 MLOAD PUSH3 0x461BCD PUSH1 0xE5 SHL DUP2 MSTORE PUSH1 0x20 PUSH1 0x4 DUP3 ADD MSTORE PUSH1 0x1D PUSH1 0x24 DUP3 ADD MSTORE PUSH32 0x416464726573733A2063616C6C20746F206E6F6E2D636F6E7472616374000000 PUSH1 0x44 DUP3 ADD MSTORE PUSH1 0x64 ADD PUSH2 0x492 JUMP JUMPDEST PUSH1 0x0 DUP1 DUP7 PUSH1 0x1 PUSH1 0x1 PUSH1 0xA0 SHL SUB AND DUP6 DUP8 PUSH1 0x40 MLOAD PUSH2 0x1896 SWAP2 SWAP1 PUSH2 0x1CEC JUMP JUMPDEST PUSH1 0x0 PUSH1 0x40 MLOAD DUP1 DUP4 SUB DUP2 DUP6 DUP8 GAS CALL SWAP3 POP POP POP RETURNDATASIZE DUP1 PUSH1 0x0 DUP2 EQ PUSH2 0x18D3 JUMPI PUSH1 0x40 MLOAD SWAP2 POP PUSH1 0x1F NOT PUSH1 0x3F RETURNDATASIZE ADD AND DUP3 ADD PUSH1 0x40 MSTORE RETURNDATASIZE DUP3 MSTORE RETURNDATASIZE PUSH1 0x0 PUSH1 0x20 DUP5 ADD RETURNDATACOPY PUSH2 0x18D8 JUMP JUMPDEST PUSH1 0x60 SWAP2 POP JUMPDEST POP SWAP2 POP SWAP2 POP PUSH2 0x148E DUP3 DUP3 DUP7 PUSH1 0x60 DUP4 ISZERO PUSH2 0x18F2 JUMPI POP DUP2 PUSH2 0x17C4 JUMP JUMPDEST DUP3 MLOAD ISZERO PUSH2 0x1902 JUMPI DUP3 MLOAD DUP1 DUP5 PUSH1 0x20 ADD REVERT JUMPDEST DUP2 PUSH1 0x40 MLOAD PUSH3 0x461BCD PUSH1 0xE5 SHL DUP2 MSTORE PUSH1 0x4 ADD PUSH2 0x492 SWAP2 SWAP1 PUSH2 0x1D08 JUMP JUMPDEST PUSH1 0x0 PUSH1 0x20 DUP3 DUP5 SUB SLT ISZERO PUSH2 0x192E JUMPI PUSH1 0x0 DUP1 REVERT JUMPDEST POP CALLDATALOAD SWAP2 SWAP1 POP JUMP JUMPDEST PUSH1 0x1 PUSH1 0x1 PUSH1 0xA0 SHL SUB DUP2 AND DUP2 EQ PUSH2 0x8D2 JUMPI PUSH1 0x0 DUP1 REVERT JUMPDEST PUSH1 0x0 PUSH1 0x20 DUP3 DUP5 SUB SLT ISZERO PUSH2 0x195C JUMPI PUSH1 0x0 DUP1 REVERT JUMPDEST DUP2 CALLDATALOAD PUSH2 0x17C4 DUP2 PUSH2 0x1935 JUMP JUMPDEST PUSH1 0x0 DUP1 PUSH1 0x0 DUP1 PUSH1 0x0 DUP1 PUSH1 0x0 DUP1 PUSH2 0x100 DUP10 DUP12 SUB SLT ISZERO PUSH2 0x1984 JUMPI PUSH1 0x0 DUP1 REVERT JUMPDEST DUP9 CALLDATALOAD PUSH2 0x198F DUP2 PUSH2 0x1935 JUMP JUMPDEST SWAP8 POP PUSH1 0x20 DUP10 ADD CALLDATALOAD PUSH2 0x199F DUP2 PUSH2 0x1935 JUMP JUMPDEST SWAP7 POP PUSH1 0x40 DUP10 ADD CALLDATALOAD SWAP6 POP PUSH1 0x60 DUP10 ADD CALLDATALOAD SWAP5 POP PUSH1 0x80 DUP10 ADD CALLDATALOAD SWAP4 POP PUSH1 0xA0 DUP10 ADD CALLDATALOAD SWAP3 POP PUSH1 0xC0 DUP10 ADD CALLDATALOAD SWAP2 POP PUSH1 0xE0 DUP10 ADD CALLDATALOAD PUSH2 0x19D2 DUP2 PUSH2 0x1935 JUMP JUMPDEST DUP1 SWAP2 POP POP SWAP3 SWAP6 SWAP9 POP SWAP3 SWAP6 SWAP9 SWAP1 SWAP4 SWAP7 POP JUMP JUMPDEST DUP1 ISZERO ISZERO DUP2 EQ PUSH2 0x8D2 JUMPI PUSH1 0x0 DUP1 REVERT JUMPDEST PUSH1 0x0 DUP1 PUSH1 0x40 DUP4 DUP6 SUB SLT ISZERO PUSH2 0x1A04 JUMPI PUSH1 0x0 DUP1 REVERT JUMPDEST DUP3 CALLDATALOAD PUSH2 0x1A0F DUP2 PUSH2 0x19E3 JUMP JUMPDEST SWAP5 PUSH1 0x20 SWAP4 SWAP1 SWAP4 ADD CALLDATALOAD SWAP4 POP POP POP JUMP JUMPDEST PUSH1 0x0 DUP1 PUSH1 0x40 DUP4 DUP6 SUB SLT ISZERO PUSH2 0x1A30 JUMPI PUSH1 0x0 DUP1 REVERT JUMPDEST POP POP DUP1 CALLDATALOAD SWAP3 PUSH1 0x20 SWAP1 SWAP2 ADD CALLDATALOAD SWAP2 POP JUMP JUMPDEST PUSH1 0x20 DUP1 DUP3 MSTORE DUP2 DUP2 ADD MSTORE PUSH32 0x4F776E61626C653A2063616C6C6572206973206E6F7420746865206F776E6572 PUSH1 0x40 DUP3 ADD MSTORE PUSH1 0x60 ADD SWAP1 JUMP JUMPDEST PUSH1 0x0 PUSH1 0x20 DUP3 DUP5 SUB SLT ISZERO PUSH2 0x1A86 JUMPI PUSH1 0x0 DUP1 REVERT JUMPDEST DUP2 MLOAD PUSH1 0xFF DUP2 AND DUP2 EQ PUSH2 0x17C4 JUMPI PUSH1 0x0 DUP1 REVERT JUMPDEST PUSH4 0x4E487B71 PUSH1 0xE0 SHL PUSH1 0x0 MSTORE PUSH1 0x11 PUSH1 0x4 MSTORE PUSH1 0x24 PUSH1 0x0 REVERT JUMPDEST DUP2 DUP2 SUB DUP2 DUP2 GT ISZERO PUSH2 0x16DA JUMPI PUSH2 0x16DA PUSH2 0x1A97 JUMP JUMPDEST PUSH1 0x1 DUP2 DUP2 JUMPDEST DUP1 DUP6 GT ISZERO PUSH2 0x1AFB JUMPI DUP2 PUSH1 0x0 NOT DIV DUP3 GT ISZERO PUSH2 0x1AE1 JUMPI PUSH2 0x1AE1 PUSH2 0x1A97 JUMP JUMPDEST DUP1 DUP6 AND ISZERO PUSH2 0x1AEE JUMPI SWAP2 DUP2 MUL SWAP2 JUMPDEST SWAP4 DUP5 SHR SWAP4 SWAP1 DUP1 MUL SWAP1 PUSH2 0x1AC5 JUMP JUMPDEST POP SWAP3 POP SWAP3 SWAP1 POP JUMP JUMPDEST PUSH1 0x0 DUP3 PUSH2 0x1B12 JUMPI POP PUSH1 0x1 PUSH2 0x16DA JUMP JUMPDEST DUP2 PUSH2 0x1B1F JUMPI POP PUSH1 0x0 PUSH2 0x16DA JUMP JUMPDEST DUP2 PUSH1 0x1 DUP2 EQ PUSH2 0x1B35 JUMPI PUSH1 0x2 DUP2 EQ PUSH2 0x1B3F JUMPI PUSH2 0x1B5B JUMP JUMPDEST PUSH1 0x1 SWAP2 POP POP PUSH2 0x16DA JUMP JUMPDEST PUSH1 0xFF DUP5 GT ISZERO PUSH2 0x1B50 JUMPI PUSH2 0x1B50 PUSH2 0x1A97 JUMP JUMPDEST POP POP PUSH1 0x1 DUP3 SHL PUSH2 0x16DA JUMP JUMPDEST POP PUSH1 0x20 DUP4 LT PUSH2 0x133 DUP4 LT AND PUSH1 0x4E DUP5 LT PUSH1 0xB DUP5 LT AND OR ISZERO PUSH2 0x1B7E JUMPI POP DUP2 DUP2 EXP PUSH2 0x16DA JUMP JUMPDEST PUSH2 0x1B88 DUP4 DUP4 PUSH2 0x1AC0 JUMP JUMPDEST DUP1 PUSH1 0x0 NOT DIV DUP3 GT ISZERO PUSH2 0x1B9C JUMPI PUSH2 0x1B9C PUSH2 0x1A97 JUMP JUMPDEST MUL SWAP4 SWAP3 POP POP POP JUMP JUMPDEST PUSH1 0x0 PUSH2 0x17C4 DUP4 DUP4 PUSH2 0x1B03 JUMP JUMPDEST PUSH1 0x20 DUP1 DUP3 MSTORE PUSH1 0x1F SWAP1 DUP3 ADD MSTORE PUSH32 0x5265656E7472616E637947756172643A207265656E7472616E742063616C6C00 PUSH1 0x40 DUP3 ADD MSTORE PUSH1 0x60 ADD SWAP1 JUMP JUMPDEST DUP1 DUP3 MUL DUP2 ISZERO DUP3 DUP3 DIV DUP5 EQ OR PUSH2 0x16DA JUMPI PUSH2 0x16DA PUSH2 0x1A97 JUMP JUMPDEST PUSH1 0x0 DUP3 PUSH2 0x1C1B JUMPI PUSH4 0x4E487B71 PUSH1 0xE0 SHL PUSH1 0x0 MSTORE PUSH1 0x12 PUSH1 0x4 MSTORE PUSH1 0x24 PUSH1 0x0 REVERT JUMPDEST POP DIV SWAP1 JUMP JUMPDEST DUP1 DUP3 ADD DUP1 DUP3 GT ISZERO PUSH2 0x16DA JUMPI PUSH2 0x16DA PUSH2 0x1A97 JUMP JUMPDEST PUSH1 0x0 PUSH1 0x20 DUP3 DUP5 SUB SLT ISZERO PUSH2 0x1C45 JUMPI PUSH1 0x0 DUP1 REVERT JUMPDEST POP MLOAD SWAP2 SWAP1 POP JUMP JUMPDEST PUSH1 0x0 PUSH1 0x20 DUP3 DUP5 SUB SLT ISZERO PUSH2 0x1C5E JUMPI PUSH1 0x0 DUP1 REVERT JUMPDEST DUP2 MLOAD PUSH2 0x17C4 DUP2 PUSH2 0x19E3 JUMP JUMPDEST PUSH1 0x0 DUP1 PUSH1 0x0 DUP1 PUSH1 0x0 DUP1 PUSH1 0xC0 DUP8 DUP10 SUB SLT ISZERO PUSH2 0x1C82 JUMPI PUSH1 0x0 DUP1 REVERT JUMPDEST DUP7 MLOAD SWAP6 POP PUSH1 0x20 DUP8 ADD MLOAD SWAP5 POP PUSH1 0x40 DUP8 ADD MLOAD SWAP4 POP PUSH1 0x60 DUP8 ADD MLOAD PUSH2 0x1CA2 DUP2 PUSH2 0x1935 JUMP JUMPDEST PUSH1 0x80 DUP9 ADD MLOAD PUSH1 0xA0 DUP10 ADD MLOAD SWAP2 SWAP5 POP SWAP3 POP PUSH2 0x1CBA DUP2 PUSH2 0x19E3 JUMP JUMPDEST DUP1 SWAP2 POP POP SWAP3 SWAP6 POP SWAP3 SWAP6 POP SWAP3 SWAP6 JUMP JUMPDEST PUSH1 0x0 JUMPDEST DUP4 DUP2 LT ISZERO PUSH2 0x1CE3 JUMPI DUP2 DUP2 ADD MLOAD DUP4 DUP3 ADD MSTORE PUSH1 0x20 ADD PUSH2 0x1CCB JUMP JUMPDEST POP POP PUSH1 0x0 SWAP2 ADD MSTORE JUMP JUMPDEST PUSH1 0x0 DUP3 MLOAD PUSH2 0x1CFE DUP2 DUP5 PUSH1 0x20 DUP8 ADD PUSH2 0x1CC8 JUMP JUMPDEST SWAP2 SWAP1 SWAP2 ADD SWAP3 SWAP2 POP POP JUMP JUMPDEST PUSH1 0x20 DUP2 MSTORE PUSH1 0x0 DUP3 MLOAD DUP1 PUSH1 0x20 DUP5 ADD MSTORE PUSH2 0x1D27 DUP2 PUSH1 0x40 DUP6 ADD PUSH1 0x20 DUP8 ADD PUSH2 0x1CC8 JUMP JUMPDEST PUSH1 0x1F ADD PUSH1 0x1F NOT AND SWAP2 SWAP1 SWAP2 ADD PUSH1 0x40 ADD SWAP3 SWAP2 POP POP JUMP INVALID LOG2 PUSH5 0x6970667358 0x22 SLT KECCAK256 MUL ISZERO 0xC9 SWAP11 DUP12 0x23 0xED SUB BASEFEE 0xD0 PUSH7 0x929ECAB7B6AA5D 0xE5 INVALID BYTE JUMPI 0xC1 SAR 0xD2 0xBA CALLDATACOPY 0x5C 0x21 0xB7 ADDMOD DUP9 PUSH5 0x736F6C6343 STOP ADDMOD GT STOP CALLER LOG2 PUSH5 0x6970667358 0x22 SLT KECCAK256 0xF DUP8 PUSH29 0x641265466B8697D2352EF2ABC6F58616C1D902E9D35774B4D6C5262F9A PUSH5 0x736F6C6343 STOP ADDMOD GT STOP CALLER "
				},
				"gasEstimates": {
					"creation": {
						"codeDepositCost": "2018000",
						"executionCost": "27983",
						"totalCost": "2045983"
					},
					"external": {
						"deployPool(address,address,uint256,uint256,uint256,uint256,uint256,address,bool,uint256,address)": "infinite",
						"owner()": "2292",
						"renounceOwnership()": "28092",
						"transferOwnership(address)": "infinite"
					}
				},
				"methodIdentifiers": {
					"deployPool(address,address,uint256,uint256,uint256,uint256,uint256,address,bool,uint256,address)": "f8d98c8a",
					"owner()": "8da5cb5b",
					"renounceOwnership()": "715018a6",
					"transferOwnership(address)": "f2fde38b"
				}
			},
			"storageLayout": {
				"storage": [
					{
						"astId": 121,
						"contract": "Lock.sol:SmartChefFactory",
						"label": "_owner",
						"offset": 0,
						"slot": "0",
						"type": "t_address"
					}
				],
				"types": {
					"t_address": {
						"encoding": "inplace",
						"label": "address",
						"numberOfBytes": "20"
					}
				}
			},
			"userdoc": {
				"kind": "user",
				"methods": {},
				"version": 1
			}
		}
	}
}