{
	"StackMining.sol": {
		"StackMining": {
			"abi": [
				{
					"inputs": [],
					"stateMutability": "nonpayable",
					"type": "constructor"
				},
				{
					"anonymous": false,
					"inputs": [
						{
							"indexed": false,
							"internalType": "address",
							"name": "tokenRecovered",
							"type": "address"
						},
						{
							"indexed": false,
							"internalType": "uint256",
							"name": "amount",
							"type": "uint256"
						}
					],
					"name": "AdminTokenRecovery",
					"type": "event"
				},
				{
					"anonymous": false,
					"inputs": [
						{
							"indexed": true,
							"internalType": "address",
							"name": "user",
							"type": "address"
						},
						{
							"indexed": false,
							"internalType": "uint256",
							"name": "amount",
							"type": "uint256"
						}
					],
					"name": "Deposit",
					"type": "event"
				},
				{
					"anonymous": false,
					"inputs": [
						{
							"indexed": true,
							"internalType": "address",
							"name": "user",
							"type": "address"
						},
						{
							"indexed": false,
							"internalType": "uint256",
							"name": "amount",
							"type": "uint256"
						}
					],
					"name": "EmergencyWithdraw",
					"type": "event"
				},
				{
					"anonymous": false,
					"inputs": [
						{
							"indexed": false,
							"internalType": "uint256",
							"name": "poolLimitPerUser",
							"type": "uint256"
						}
					],
					"name": "NewPoolLimit",
					"type": "event"
				},
				{
					"anonymous": false,
					"inputs": [
						{
							"indexed": false,
							"internalType": "uint256",
							"name": "rewardPerBlock",
							"type": "uint256"
						}
					],
					"name": "NewRewardPerBlock",
					"type": "event"
				},
				{
					"anonymous": false,
					"inputs": [
						{
							"indexed": false,
							"internalType": "uint256",
							"name": "startBlock",
							"type": "uint256"
						},
						{
							"indexed": false,
							"internalType": "uint256",
							"name": "endBlock",
							"type": "uint256"
						}
					],
					"name": "NewStartAndEndBlocks",
					"type": "event"
				},
				{
					"anonymous": false,
					"inputs": [
						{
							"indexed": true,
							"internalType": "address",
							"name": "previousOwner",
							"type": "address"
						},
						{
							"indexed": true,
							"internalType": "address",
							"name": "newOwner",
							"type": "address"
						}
					],
					"name": "OwnershipTransferred",
					"type": "event"
				},
				{
					"anonymous": false,
					"inputs": [
						{
							"indexed": false,
							"internalType": "uint256",
							"name": "blockNumber",
							"type": "uint256"
						}
					],
					"name": "RewardsStop",
					"type": "event"
				},
				{
					"anonymous": false,
					"inputs": [
						{
							"indexed": true,
							"internalType": "address",
							"name": "user",
							"type": "address"
						},
						{
							"indexed": false,
							"internalType": "uint256",
							"name": "amount",
							"type": "uint256"
						}
					],
					"name": "Withdraw",
					"type": "event"
				},
				{
					"inputs": [],
					"name": "PRECISION_FACTOR",
					"outputs": [
						{
							"internalType": "uint256",
							"name": "",
							"type": "uint256"
						}
					],
					"stateMutability": "view",
					"type": "function"
				},
				{
					"inputs": [],
					"name": "SMART_CHEF_FACTORY",
					"outputs": [
						{
							"internalType": "address",
							"name": "",
							"type": "address"
						}
					],
					"stateMutability": "view",
					"type": "function"
				},
				{
					"inputs": [],
					"name": "accTokenPerShare",
					"outputs": [
						{
							"internalType": "uint256",
							"name": "",
							"type": "uint256"
						}
					],
					"stateMutability": "view",
					"type": "function"
				},
				{
					"inputs": [],
					"name": "bonusEndBlock",
					"outputs": [
						{
							"internalType": "uint256",
							"name": "",
							"type": "uint256"
						}
					],
					"stateMutability": "view",
					"type": "function"
				},
				{
					"inputs": [
						{
							"internalType": "uint256",
							"name": "_pid",
							"type": "uint256"
						},
						{
							"internalType": "uint256",
							"name": "_amount",
							"type": "uint256"
						}
					],
					"name": "deposit",
					"outputs": [],
					"stateMutability": "nonpayable",
					"type": "function"
				},
				{
					"inputs": [
						{
							"internalType": "uint256",
							"name": "_amount",
							"type": "uint256"
						}
					],
					"name": "emergencyRewardWithdraw",
					"outputs": [],
					"stateMutability": "nonpayable",
					"type": "function"
				},
				{
					"inputs": [
						{
							"internalType": "uint256",
							"name": "_pid",
							"type": "uint256"
						}
					],
					"name": "emergencyWithdraw",
					"outputs": [],
					"stateMutability": "nonpayable",
					"type": "function"
				},
				{
					"inputs": [],
					"name": "getTotalShares",
					"outputs": [
						{
							"internalType": "uint256",
							"name": "totalShares",
							"type": "uint256"
						}
					],
					"stateMutability": "view",
					"type": "function"
				},
				{
					"inputs": [],
					"name": "hasUserLimit",
					"outputs": [
						{
							"internalType": "bool",
							"name": "",
							"type": "bool"
						}
					],
					"stateMutability": "view",
					"type": "function"
				},
				{
					"inputs": [
						{
							"internalType": "contract IBEP20",
							"name": "_stakedToken",
							"type": "address"
						},
						{
							"internalType": "contract IBEP20",
							"name": "_rewardToken",
							"type": "address"
						},
						{
							"internalType": "uint256",
							"name": "_rewardPerBlock",
							"type": "uint256"
						},
						{
							"internalType": "uint256",
							"name": "_startBlock",
							"type": "uint256"
						},
						{
							"internalType": "uint256",
							"name": "_bonusEndBlock",
							"type": "uint256"
						},
						{
							"internalType": "uint256",
							"name": "_poolLimitPerUser",
							"type": "uint256"
						},
						{
							"internalType": "address",
							"name": "_admin",
							"type": "address"
						}
					],
					"name": "initialize",
					"outputs": [],
					"stateMutability": "nonpayable",
					"type": "function"
				},
				{
					"inputs": [],
					"name": "isInitialized",
					"outputs": [
						{
							"internalType": "bool",
							"name": "",
							"type": "bool"
						}
					],
					"stateMutability": "view",
					"type": "function"
				},
				{
					"inputs": [],
					"name": "lastRewardBlock",
					"outputs": [
						{
							"internalType": "uint256",
							"name": "",
							"type": "uint256"
						}
					],
					"stateMutability": "view",
					"type": "function"
				},
				{
					"inputs": [],
					"name": "owner",
					"outputs": [
						{
							"internalType": "address",
							"name": "",
							"type": "address"
						}
					],
					"stateMutability": "view",
					"type": "function"
				},
				{
					"inputs": [
						{
							"internalType": "uint256",
							"name": "_pid",
							"type": "uint256"
						},
						{
							"internalType": "address",
							"name": "_user",
							"type": "address"
						}
					],
					"name": "pendingReward",
					"outputs": [
						{
							"internalType": "uint256",
							"name": "",
							"type": "uint256"
						}
					],
					"stateMutability": "view",
					"type": "function"
				},
				{
					"inputs": [
						{
							"internalType": "uint256",
							"name": "",
							"type": "uint256"
						}
					],
					"name": "poolInfo",
					"outputs": [
						{
							"internalType": "uint256",
							"name": "duration",
							"type": "uint256"
						},
						{
							"internalType": "uint256",
							"name": "boost",
							"type": "uint256"
						},
						{
							"internalType": "uint256",
							"name": "amount",
							"type": "uint256"
						}
					],
					"stateMutability": "view",
					"type": "function"
				},
				{
					"inputs": [],
					"name": "poolLength",
					"outputs": [
						{
							"internalType": "uint256",
							"name": "",
							"type": "uint256"
						}
					],
					"stateMutability": "view",
					"type": "function"
				},
				{
					"inputs": [],
					"name": "poolLimitPerUser",
					"outputs": [
						{
							"internalType": "uint256",
							"name": "",
							"type": "uint256"
						}
					],
					"stateMutability": "view",
					"type": "function"
				},
				{
					"inputs": [
						{
							"internalType": "address",
							"name": "_tokenAddress",
							"type": "address"
						},
						{
							"internalType": "uint256",
							"name": "_tokenAmount",
							"type": "uint256"
						}
					],
					"name": "recoverWrongTokens",
					"outputs": [],
					"stateMutability": "nonpayable",
					"type": "function"
				},
				{
					"inputs": [],
					"name": "renounceOwnership",
					"outputs": [],
					"stateMutability": "nonpayable",
					"type": "function"
				},
				{
					"inputs": [],
					"name": "rewardPerBlock",
					"outputs": [
						{
							"internalType": "uint256",
							"name": "",
							"type": "uint256"
						}
					],
					"stateMutability": "view",
					"type": "function"
				},
				{
					"inputs": [],
					"name": "rewardToken",
					"outputs": [
						{
							"internalType": "contract IBEP20",
							"name": "",
							"type": "address"
						}
					],
					"stateMutability": "view",
					"type": "function"
				},
				{
					"inputs": [],
					"name": "stakedToken",
					"outputs": [
						{
							"internalType": "contract IBEP20",
							"name": "",
							"type": "address"
						}
					],
					"stateMutability": "view",
					"type": "function"
				},
				{
					"inputs": [],
					"name": "startBlock",
					"outputs": [
						{
							"internalType": "uint256",
							"name": "",
							"type": "uint256"
						}
					],
					"stateMutability": "view",
					"type": "function"
				},
				{
					"inputs": [],
					"name": "stopReward",
					"outputs": [],
					"stateMutability": "nonpayable",
					"type": "function"
				},
				{
					"inputs": [
						{
							"internalType": "address",
							"name": "newOwner",
							"type": "address"
						}
					],
					"name": "transferOwnership",
					"outputs": [],
					"stateMutability": "nonpayable",
					"type": "function"
				},
				{
					"inputs": [
						{
							"internalType": "bool",
							"name": "_hasUserLimit",
							"type": "bool"
						},
						{
							"internalType": "uint256",
							"name": "_poolLimitPerUser",
							"type": "uint256"
						}
					],
					"name": "updatePoolLimitPerUser",
					"outputs": [],
					"stateMutability": "nonpayable",
					"type": "function"
				},
				{
					"inputs": [
						{
							"internalType": "uint256",
							"name": "_rewardPerBlock",
							"type": "uint256"
						}
					],
					"name": "updateRewardPerBlock",
					"outputs": [],
					"stateMutability": "nonpayable",
					"type": "function"
				},
				{
					"inputs": [
						{
							"internalType": "uint256",
							"name": "_startBlock",
							"type": "uint256"
						},
						{
							"internalType": "uint256",
							"name": "_bonusEndBlock",
							"type": "uint256"
						}
					],
					"name": "updateStartAndEndBlocks",
					"outputs": [],
					"stateMutability": "nonpayable",
					"type": "function"
				},
				{
					"inputs": [
						{
							"internalType": "uint256",
							"name": "",
							"type": "uint256"
						},
						{
							"internalType": "address",
							"name": "",
							"type": "address"
						}
					],
					"name": "userInfo",
					"outputs": [
						{
							"internalType": "uint256",
							"name": "amount",
							"type": "uint256"
						},
						{
							"internalType": "uint256",
							"name": "rewardDebt",
							"type": "uint256"
						},
						{
							"internalType": "uint256",
							"name": "lockStartTime",
							"type": "uint256"
						}
					],
					"stateMutability": "view",
					"type": "function"
				},
				{
					"inputs": [
						{
							"internalType": "uint256",
							"name": "_pid",
							"type": "uint256"
						},
						{
							"internalType": "uint256",
							"name": "_amount",
							"type": "uint256"
						}
					],
					"name": "withdraw",
					"outputs": [],
					"stateMutability": "nonpayable",
					"type": "function"
				}
			],
			"devdoc": {
				"kind": "dev",
				"methods": {
					"owner()": {
						"details": "Returns the address of the current owner."
					},
					"recoverWrongTokens(address,uint256)": {
						"details": "This function is only callable by admin.",
						"params": {
							"_tokenAddress": ": the address of the token to withdraw",
							"_tokenAmount": ": the number of tokens to withdraw"
						}
					},
					"renounceOwnership()": {
						"details": "Leaves the contract without owner. It will not be possible to call `onlyOwner` functions anymore. Can only be called by the current owner. NOTE: Renouncing ownership will leave the contract without an owner, thereby removing any functionality that is only available to the owner."
					},
					"transferOwnership(address)": {
						"details": "Transfers ownership of the contract to a new account (`newOwner`). Can only be called by the current owner."
					},
					"updateStartAndEndBlocks(uint256,uint256)": {
						"details": "This function is only callable by owner.",
						"params": {
							"_bonusEndBlock": ": the new end block",
							"_startBlock": ": the new start block"
						}
					}
				},
				"stateVariables": {
					"PRECISION_FACTOR": {
						"details": "The precision factor"
					},
					"SMART_CHEF_FACTORY": {
						"details": "The address of the smart chef factory"
					},
					"accTokenPerShare": {
						"details": "Accrued token per share"
					},
					"bonusEndBlock": {
						"details": "The block number when CAKE mining ends."
					},
					"hasUserLimit": {
						"details": "Whether a limit is set for users"
					},
					"isInitialized": {
						"details": "Whether it is initialized"
					},
					"lastRewardBlock": {
						"details": "The block number of the last pool update"
					},
					"poolLimitPerUser": {
						"details": "The pool limit (0 if none)"
					},
					"rewardPerBlock": {
						"details": "CAKE tokens created per block."
					},
					"rewardToken": {
						"details": "The reward token"
					},
					"stakedToken": {
						"details": "The staked token"
					},
					"startBlock": {
						"details": "The block number when CAKE mining starts."
					}
				},
				"version": 1
			},
			"evm": {
				"assembly": "    /* \"StackMining.sol\":377:13507  contract StackMining is IARCStack, Ownable, ReentrancyGuard {... */\n  mstore(0x40, 0x80)\n    /* \"StackMining.sol\":2606:2670  constructor() {... */\n  callvalue\n  dup1\n  iszero\n  tag_1\n  jumpi\n  0x00\n  dup1\n  revert\ntag_1:\n  pop\n    /* \"@openzeppelin/contracts/access/Ownable.sol\":936:968  _transferOwnership(_msgSender()) */\n  tag_6\n    /* \"@openzeppelin/contracts/utils/Context.sol\":719:729  msg.sender */\n  caller\n    /* \"@openzeppelin/contracts/access/Ownable.sol\":936:954  _transferOwnership */\n  tag_9\n    /* \"@openzeppelin/contracts/access/Ownable.sol\":936:968  _transferOwnership(_msgSender()) */\n  jump\t// in\ntag_6:\n    /* \"@openzeppelin/contracts/security/ReentrancyGuard.sol\":1716:1717  1 */\n  0x01\n    /* \"@openzeppelin/contracts/security/ReentrancyGuard.sol\":1821:1843  _status = _NOT_ENTERED */\n  dup1\n  sstore\n    /* \"StackMining.sol\":2631:2649  SMART_CHEF_FACTORY */\n  0x02\n    /* \"StackMining.sol\":2631:2662  SMART_CHEF_FACTORY = msg.sender */\n  dup1\n  sload\n  not(sub(shl(0xa0, 0x01), 0x01))\n  and\n    /* \"StackMining.sol\":2652:2662  msg.sender */\n  caller\n    /* \"StackMining.sol\":2631:2662  SMART_CHEF_FACTORY = msg.sender */\n  or\n  swap1\n  sstore\n    /* \"StackMining.sol\":377:13507  contract StackMining is IARCStack, Ownable, ReentrancyGuard {... */\n  jump(tag_12)\n    /* \"@openzeppelin/contracts/access/Ownable.sol\":2433:2620  function _transferOwnership(address newOwner) internal virtual {... */\ntag_9:\n    /* \"@openzeppelin/contracts/access/Ownable.sol\":2506:2522  address oldOwner */\n  0x00\n    /* \"@openzeppelin/contracts/access/Ownable.sol\":2525:2531  _owner */\n  dup1\n  sload\n  sub(shl(0xa0, 0x01), 0x01)\n    /* \"@openzeppelin/contracts/access/Ownable.sol\":2541:2558  _owner = newOwner */\n  dup4\n  dup2\n  and\n  not(sub(shl(0xa0, 0x01), 0x01))\n  dup4\n  and\n  dup2\n  or\n  dup5\n  sstore\n    /* \"@openzeppelin/contracts/access/Ownable.sol\":2573:2613  OwnershipTransferred(oldOwner, newOwner) */\n  mload(0x40)\n    /* \"@openzeppelin/contracts/access/Ownable.sol\":2525:2531  _owner */\n  swap2\n  swap1\n  swap3\n  and\n  swap3\n  dup4\n  swap2\n    /* \"@openzeppelin/contracts/access/Ownable.sol\":2573:2613  OwnershipTransferred(oldOwner, newOwner) */\n  0x8be0079c531659141344cd1fd0a4f28419497f9722a3daafe3b4186f6b6457e0\n  swap2\n    /* \"@openzeppelin/contracts/access/Ownable.sol\":2506:2522  address oldOwner */\n  swap1\n    /* \"@openzeppelin/contracts/access/Ownable.sol\":2573:2613  OwnershipTransferred(oldOwner, newOwner) */\n  log3\n    /* \"@openzeppelin/contracts/access/Ownable.sol\":2496:2620  {... */\n  pop\n    /* \"@openzeppelin/contracts/access/Ownable.sol\":2433:2620  function _transferOwnership(address newOwner) internal virtual {... */\n  pop\n  jump\t// out\n    /* \"StackMining.sol\":377:13507  contract StackMining is IARCStack, Ownable, ReentrancyGuard {... */\ntag_12:\n  dataSize(sub_0)\n  dup1\n  dataOffset(sub_0)\n  0x00\n  codecopy\n  0x00\n  return\nstop\n\nsub_0: assembly {\n        /* \"StackMining.sol\":377:13507  contract StackMining is IARCStack, Ownable, ReentrancyGuard {... */\n      mstore(0x40, 0x80)\n      callvalue\n      dup1\n      iszero\n      tag_1\n      jumpi\n      0x00\n      dup1\n      revert\n    tag_1:\n      pop\n      jumpi(tag_2, lt(calldatasize, 0x04))\n      shr(0xe0, calldataload(0x00))\n      dup1\n      0x8da5cb5b\n      gt\n      tag_33\n      jumpi\n      dup1\n      0xa9f8d181\n      gt\n      tag_34\n      jumpi\n      dup1\n      0xd5002f2e\n      gt\n      tag_35\n      jumpi\n      dup1\n      0xd5002f2e\n      eq\n      tag_29\n      jumpi\n      dup1\n      0xe2bbb158\n      eq\n      tag_30\n      jumpi\n      dup1\n      0xf2fde38b\n      eq\n      tag_31\n      jumpi\n      dup1\n      0xf7c618c1\n      eq\n      tag_32\n      jumpi\n      0x00\n      dup1\n      revert\n    tag_35:\n      dup1\n      0xa9f8d181\n      eq\n      tag_25\n      jumpi\n      dup1\n      0xbd617191\n      eq\n      tag_26\n      jumpi\n      dup1\n      0xcc7a262e\n      eq\n      tag_27\n      jumpi\n      dup1\n      0xccd34cd5\n      eq\n      tag_28\n      jumpi\n      0x00\n      dup1\n      revert\n    tag_34:\n      dup1\n      0x93f1a40b\n      gt\n      tag_36\n      jumpi\n      dup1\n      0x93f1a40b\n      eq\n      tag_21\n      jumpi\n      dup1\n      0x9513997f\n      eq\n      tag_22\n      jumpi\n      dup1\n      0x98969e82\n      eq\n      tag_23\n      jumpi\n      dup1\n      0xa0b40905\n      eq\n      tag_24\n      jumpi\n      0x00\n      dup1\n      revert\n    tag_36:\n      dup1\n      0x8da5cb5b\n      eq\n      tag_18\n      jumpi\n      dup1\n      0x8f662915\n      eq\n      tag_19\n      jumpi\n      dup1\n      0x92e8990e\n      eq\n      tag_20\n      jumpi\n      0x00\n      dup1\n      revert\n    tag_33:\n      dup1\n      0x441a3e70\n      gt\n      tag_37\n      jumpi\n      dup1\n      0x715018a6\n      gt\n      tag_38\n      jumpi\n      dup1\n      0x715018a6\n      eq\n      tag_14\n      jumpi\n      dup1\n      0x80dc0672\n      eq\n      tag_15\n      jumpi\n      dup1\n      0x83a5041c\n      eq\n      tag_16\n      jumpi\n      dup1\n      0x8ae39cac\n      eq\n      tag_17\n      jumpi\n      0x00\n      dup1\n      revert\n    tag_38:\n      dup1\n      0x441a3e70\n      eq\n      tag_10\n      jumpi\n      dup1\n      0x48cd4cb1\n      eq\n      tag_11\n      jumpi\n      dup1\n      0x5312ea8e\n      eq\n      tag_12\n      jumpi\n      dup1\n      0x66fe9f8a\n      eq\n      tag_13\n      jumpi\n      0x00\n      dup1\n      revert\n    tag_37:\n      dup1\n      0x1aed6553\n      gt\n      tag_39\n      jumpi\n      dup1\n      0x1aed6553\n      eq\n      tag_6\n      jumpi\n      dup1\n      0x3279beab\n      eq\n      tag_7\n      jumpi\n      dup1\n      0x392e53cd\n      eq\n      tag_8\n      jumpi\n      dup1\n      0x3f138d4b\n      eq\n      tag_9\n      jumpi\n      0x00\n      dup1\n      revert\n    tag_39:\n      dup1\n      0x01f8a976\n      eq\n      tag_3\n      jumpi\n      dup1\n      0x081e3eda\n      eq\n      tag_4\n      jumpi\n      dup1\n      0x1526fe27\n      eq\n      tag_5\n      jumpi\n    tag_2:\n      0x00\n      dup1\n      revert\n        /* \"StackMining.sol\":9549:9789  function updateRewardPerBlock(uint256 _rewardPerBlock) external onlyOwner {... */\n    tag_3:\n      tag_40\n      tag_41\n      calldatasize\n      0x04\n      tag_42\n      jump\t// in\n    tag_41:\n      tag_43\n      jump\t// in\n    tag_40:\n      stop\n        /* \"StackMining.sol\":12926:13021  function poolLength() external view returns (uint256) {... */\n    tag_4:\n        /* \"StackMining.sol\":12998:13006  poolInfo */\n      0x0c\n        /* \"StackMining.sol\":12998:13013  poolInfo.length */\n      sload\n        /* \"StackMining.sol\":12926:13021  function poolLength() external view returns (uint256) {... */\n    tag_44:\n      mload(0x40)\n        /* \"#utility.yul\":345:370   */\n      swap1\n      dup2\n      mstore\n        /* \"#utility.yul\":333:335   */\n      0x20\n        /* \"#utility.yul\":318:336   */\n      add\n        /* \"StackMining.sol\":12926:13021  function poolLength() external view returns (uint256) {... */\n    tag_46:\n      mload(0x40)\n      dup1\n      swap2\n      sub\n      swap1\n      return\n        /* \"StackMining.sol\":2449:2475  PoolInfo[] public poolInfo */\n    tag_5:\n      tag_48\n      tag_49\n      calldatasize\n      0x04\n      tag_42\n      jump\t// in\n    tag_49:\n      tag_50\n      jump\t// in\n    tag_48:\n      0x40\n      dup1\n      mload\n        /* \"#utility.yul\":583:608   */\n      swap4\n      dup5\n      mstore\n        /* \"#utility.yul\":639:641   */\n      0x20\n        /* \"#utility.yul\":624:642   */\n      dup5\n      add\n        /* \"#utility.yul\":617:651   */\n      swap3\n      swap1\n      swap3\n      mstore\n        /* \"#utility.yul\":667:685   */\n      swap1\n      dup3\n      add\n        /* \"#utility.yul\":660:694   */\n      mstore\n        /* \"#utility.yul\":571:573   */\n      0x60\n        /* \"#utility.yul\":556:574   */\n      add\n        /* \"StackMining.sol\":2449:2475  PoolInfo[] public poolInfo */\n      tag_46\n        /* \"#utility.yul\":381:700   */\n      jump\n        /* \"StackMining.sol\":977:1005  uint256 public bonusEndBlock */\n    tag_6:\n      tag_44\n      sload(0x04)\n      dup2\n      jump\n        /* \"StackMining.sol\":7670:7812  function emergencyRewardWithdraw(uint256 _amount) external onlyOwner {... */\n    tag_7:\n      tag_40\n      tag_57\n      calldatasize\n      0x04\n      tag_42\n      jump\t// in\n    tag_57:\n      tag_58\n      jump\t// in\n        /* \"StackMining.sol\":777:802  bool public isInitialized */\n    tag_8:\n      sload(0x02)\n      tag_59\n      swap1\n      shl(0xa8, 0x01)\n      swap1\n      div\n      0xff\n      and\n      dup2\n      jump\n    tag_59:\n      mload(0x40)\n        /* \"#utility.yul\":870:884   */\n      swap1\n      iszero\n        /* \"#utility.yul\":863:885   */\n      iszero\n        /* \"#utility.yul\":845:886   */\n      dup2\n      mstore\n        /* \"#utility.yul\":833:835   */\n      0x20\n        /* \"#utility.yul\":818:836   */\n      add\n        /* \"StackMining.sol\":777:802  bool public isInitialized */\n      tag_46\n        /* \"#utility.yul\":705:892   */\n      jump\n        /* \"StackMining.sol\":8102:8515  function recoverWrongTokens(address _tokenAddress, uint256 _tokenAmount) external onlyOwner {... */\n    tag_9:\n      tag_40\n      tag_64\n      calldatasize\n      0x04\n      tag_65\n      jump\t// in\n    tag_64:\n      tag_66\n      jump\t// in\n        /* \"StackMining.sol\":5927:6988  function withdraw(uint256 _pid, uint256 _amount) external nonReentrant {... */\n    tag_10:\n      tag_40\n      tag_68\n      calldatasize\n      0x04\n      tag_69\n      jump\t// in\n    tag_68:\n      tag_70\n      jump\t// in\n        /* \"StackMining.sol\":1087:1112  uint256 public startBlock */\n    tag_11:\n      tag_44\n      sload(0x05)\n      dup2\n      jump\n        /* \"StackMining.sol\":7129:7552  function emergencyWithdraw(uint256 _pid) public nonReentrant {... */\n    tag_12:\n      tag_40\n      tag_75\n      calldatasize\n      0x04\n      tag_42\n      jump\t// in\n    tag_75:\n      tag_76\n      jump\t// in\n        /* \"StackMining.sol\":1290:1321  uint256 public poolLimitPerUser */\n    tag_13:\n      tag_44\n      sload(0x07)\n      dup2\n      jump\n        /* \"@openzeppelin/contracts/access/Ownable.sol\":1831:1932  function renounceOwnership() public virtual onlyOwner {... */\n    tag_14:\n      tag_40\n      tag_81\n      jump\t// in\n        /* \"StackMining.sol\":8605:8693  function stopReward() external onlyOwner {... */\n    tag_15:\n      tag_40\n      tag_83\n      jump\t// in\n        /* \"StackMining.sol\":3120:4370  function initialize(... */\n    tag_16:\n      tag_40\n      tag_85\n      calldatasize\n      0x04\n      tag_86\n      jump\t// in\n    tag_85:\n      tag_87\n      jump\t// in\n        /* \"StackMining.sol\":1392:1421  uint256 public rewardPerBlock */\n    tag_17:\n      tag_44\n      sload(0x08)\n      dup2\n      jump\n        /* \"@openzeppelin/contracts/access/Ownable.sol\":1201:1286  function owner() public view virtual returns (address) {... */\n    tag_18:\n        /* \"@openzeppelin/contracts/access/Ownable.sol\":1247:1254  address */\n      0x00\n        /* \"@openzeppelin/contracts/access/Ownable.sol\":1273:1279  _owner */\n      sload\n      sub(shl(0xa0, 0x01), 0x01)\n      and\n        /* \"@openzeppelin/contracts/access/Ownable.sol\":1201:1286  function owner() public view virtual returns (address) {... */\n    tag_91:\n      mload(0x40)\n      sub(shl(0xa0, 0x01), 0x01)\n        /* \"#utility.yul\":2610:2642   */\n      swap1\n      swap2\n      and\n        /* \"#utility.yul\":2592:2643   */\n      dup2\n      mstore\n        /* \"#utility.yul\":2580:2582   */\n      0x20\n        /* \"#utility.yul\":2565:2583   */\n      add\n        /* \"@openzeppelin/contracts/access/Ownable.sol\":1201:1286  function owner() public view virtual returns (address) {... */\n      tag_46\n        /* \"#utility.yul\":2446:2649   */\n      jump\n        /* \"StackMining.sol\":866:897  uint256 public accTokenPerShare */\n    tag_19:\n      tag_44\n      sload(0x03)\n      dup2\n      jump\n        /* \"StackMining.sol\":687:711  bool public hasUserLimit */\n    tag_20:\n      sload(0x02)\n      tag_59\n      swap1\n      shl(0xa0, 0x01)\n      swap1\n      div\n      0xff\n      and\n      dup2\n      jump\n        /* \"StackMining.sol\":2531:2597  mapping (uint256 => mapping (address => UserInfo)) public userInfo */\n    tag_21:\n      tag_48\n      tag_102\n      calldatasize\n      0x04\n      tag_103\n      jump\t// in\n    tag_102:\n      0x0d\n      0x20\n      swap1\n      dup2\n      mstore\n      0x00\n      swap3\n      dup4\n      mstore\n      0x40\n      dup1\n      dup5\n      keccak256\n      swap1\n      swap2\n      mstore\n      swap1\n      dup3\n      mstore\n      swap1\n      keccak256\n      dup1\n      sload\n      0x01\n      dup3\n      add\n      sload\n      0x02\n      swap1\n      swap3\n      add\n      sload\n      swap1\n      swap2\n      swap1\n      dup4\n      jump\n        /* \"StackMining.sol\":10033:10639  function updateStartAndEndBlocks(uint256 _startBlock, uint256 _bonusEndBlock) external onlyOwner {... */\n    tag_22:\n      tag_40\n      tag_107\n      calldatasize\n      0x04\n      tag_69\n      jump\t// in\n    tag_107:\n      tag_108\n      jump\t// in\n        /* \"StackMining.sol\":10812:11669  function pendingReward(uint256 _pid, address _user) external view returns (uint256) {... */\n    tag_23:\n      tag_44\n      tag_110\n      calldatasize\n      0x04\n      tag_103\n      jump\t// in\n    tag_110:\n      tag_111\n      jump\t// in\n        /* \"StackMining.sol\":8919:9394  function updatePoolLimitPerUser(bool _hasUserLimit, uint256 _poolLimitPerUser) external onlyOwner {... */\n    tag_24:\n      tag_40\n      tag_114\n      calldatasize\n      0x04\n      tag_115\n      jump\t// in\n    tag_114:\n      tag_116\n      jump\t// in\n        /* \"StackMining.sol\":1193:1223  uint256 public lastRewardBlock */\n    tag_25:\n      tag_44\n      sload(0x06)\n      dup2\n      jump\n        /* \"StackMining.sol\":581:614  address public SMART_CHEF_FACTORY */\n    tag_26:\n      sload(0x02)\n      tag_91\n      swap1\n      sub(shl(0xa0, 0x01), 0x01)\n      and\n      dup2\n      jump\n        /* \"StackMining.sol\":1653:1678  IBEP20 public stakedToken */\n    tag_27:\n      sload(0x0b)\n      tag_91\n      swap1\n      sub(shl(0xa0, 0x01), 0x01)\n      and\n      dup2\n      jump\n        /* \"StackMining.sol\":1482:1513  uint256 public PRECISION_FACTOR */\n    tag_28:\n      tag_44\n      sload(0x09)\n      dup2\n      jump\n        /* \"StackMining.sol\":11677:11920  function getTotalShares()public view returns(uint256 totalShares){... */\n    tag_29:\n      tag_44\n      tag_131\n      jump\t// in\n        /* \"StackMining.sol\":4528:5777  function deposit(uint256 _pid,uint256 _amount) external nonReentrant {... */\n    tag_30:\n      tag_40\n      tag_134\n      calldatasize\n      0x04\n      tag_69\n      jump\t// in\n    tag_134:\n      tag_135\n      jump\t// in\n        /* \"@openzeppelin/contracts/access/Ownable.sol\":2081:2279  function transferOwnership(address newOwner) public virtual onlyOwner {... */\n    tag_31:\n      tag_40\n      tag_137\n      calldatasize\n      0x04\n      tag_138\n      jump\t// in\n    tag_137:\n      tag_139\n      jump\t// in\n        /* \"StackMining.sol\":1571:1596  IBEP20 public rewardToken */\n    tag_32:\n      sload(0x0a)\n      tag_91\n      swap1\n      sub(shl(0xa0, 0x01), 0x01)\n      and\n      dup2\n      jump\n        /* \"StackMining.sol\":9549:9789  function updateRewardPerBlock(uint256 _rewardPerBlock) external onlyOwner {... */\n    tag_43:\n        /* \"@openzeppelin/contracts/access/Ownable.sol\":1094:1107  _checkOwner() */\n      tag_144\n        /* \"@openzeppelin/contracts/access/Ownable.sol\":1094:1105  _checkOwner */\n      tag_145\n        /* \"@openzeppelin/contracts/access/Ownable.sol\":1094:1107  _checkOwner() */\n      jump\t// in\n    tag_144:\n        /* \"StackMining.sol\":9657:9667  startBlock */\n      sload(0x05)\n        /* \"StackMining.sol\":9642:9654  block.number */\n      number\n        /* \"StackMining.sol\":9642:9667  block.number < startBlock */\n      lt\n        /* \"StackMining.sol\":9634:9688  require(block.number < startBlock, \"Pool has started\") */\n      tag_147\n      jumpi\n      mload(0x40)\n      shl(0xe5, 0x461bcd)\n      dup2\n      mstore\n        /* \"#utility.yul\":4088:4090   */\n      0x20\n        /* \"StackMining.sol\":9634:9688  require(block.number < startBlock, \"Pool has started\") */\n      0x04\n      dup3\n      add\n        /* \"#utility.yul\":4070:4091   */\n      mstore\n        /* \"#utility.yul\":4127:4129   */\n      0x10\n        /* \"#utility.yul\":4107:4125   */\n      0x24\n      dup3\n      add\n        /* \"#utility.yul\":4100:4130   */\n      mstore\n      shl(0x82, 0x141bdbdb081a185cc81cdd185c9d1959)\n        /* \"#utility.yul\":4146:4164   */\n      0x44\n      dup3\n      add\n        /* \"#utility.yul\":4139:4185   */\n      mstore\n        /* \"#utility.yul\":4202:4220   */\n      0x64\n      add\n        /* \"StackMining.sol\":9634:9688  require(block.number < startBlock, \"Pool has started\") */\n    tag_148:\n      mload(0x40)\n      dup1\n      swap2\n      sub\n      swap1\n      revert\n    tag_147:\n        /* \"StackMining.sol\":9699:9713  rewardPerBlock */\n      0x08\n        /* \"StackMining.sol\":9699:9731  rewardPerBlock = _rewardPerBlock */\n      dup2\n      swap1\n      sstore\n        /* \"StackMining.sol\":9747:9781  NewRewardPerBlock(_rewardPerBlock) */\n      mload(0x40)\n        /* \"#utility.yul\":345:370   */\n      dup2\n      dup2\n      mstore\n        /* \"StackMining.sol\":9747:9781  NewRewardPerBlock(_rewardPerBlock) */\n      0x0c4d677eef92893ac7ec52faf8140fc6c851ab4736302b4f3a89dfb20696a0df\n      swap1\n        /* \"#utility.yul\":333:335   */\n      0x20\n        /* \"#utility.yul\":318:336   */\n      add\n        /* \"StackMining.sol\":9747:9781  NewRewardPerBlock(_rewardPerBlock) */\n      mload(0x40)\n      dup1\n      swap2\n      sub\n      swap1\n      log1\n        /* \"StackMining.sol\":9549:9789  function updateRewardPerBlock(uint256 _rewardPerBlock) external onlyOwner {... */\n      pop\n      jump\t// out\n        /* \"StackMining.sol\":2449:2475  PoolInfo[] public poolInfo */\n    tag_50:\n      0x0c\n      dup2\n      dup2\n      sload\n      dup2\n      lt\n      tag_152\n      jumpi\n      0x00\n      dup1\n      revert\n    tag_152:\n      0x00\n      swap2\n      dup3\n      mstore\n      0x20\n      swap1\n      swap2\n      keccak256\n      0x03\n      swap1\n      swap2\n      mul\n      add\n      dup1\n      sload\n      0x01\n      dup3\n      add\n      sload\n      0x02\n      swap1\n      swap3\n      add\n      sload\n      swap1\n      swap3\n      pop\n      dup4\n      jump\t// out\n        /* \"StackMining.sol\":7670:7812  function emergencyRewardWithdraw(uint256 _amount) external onlyOwner {... */\n    tag_58:\n        /* \"@openzeppelin/contracts/access/Ownable.sol\":1094:1107  _checkOwner() */\n      tag_155\n        /* \"@openzeppelin/contracts/access/Ownable.sol\":1094:1105  _checkOwner */\n      tag_145\n        /* \"@openzeppelin/contracts/access/Ownable.sol\":1094:1107  _checkOwner() */\n      jump\t// in\n    tag_155:\n        /* \"StackMining.sol\":7750:7761  rewardToken */\n      sload(0x0a)\n        /* \"StackMining.sol\":7750:7804  rewardToken.safeTransfer(address(msg.sender), _amount) */\n      tag_157\n      swap1\n      sub(shl(0xa0, 0x01), 0x01)\n        /* \"StackMining.sol\":7750:7761  rewardToken */\n      and\n        /* \"StackMining.sol\":7783:7793  msg.sender */\n      caller\n        /* \"StackMining.sol\":7796:7803  _amount */\n      dup4\n        /* \"StackMining.sol\":7750:7774  rewardToken.safeTransfer */\n      tag_158\n        /* \"StackMining.sol\":7750:7804  rewardToken.safeTransfer(address(msg.sender), _amount) */\n      jump\t// in\n    tag_157:\n        /* \"StackMining.sol\":7670:7812  function emergencyRewardWithdraw(uint256 _amount) external onlyOwner {... */\n      pop\n      jump\t// out\n        /* \"StackMining.sol\":8102:8515  function recoverWrongTokens(address _tokenAddress, uint256 _tokenAmount) external onlyOwner {... */\n    tag_66:\n        /* \"@openzeppelin/contracts/access/Ownable.sol\":1094:1107  _checkOwner() */\n      tag_160\n        /* \"@openzeppelin/contracts/access/Ownable.sol\":1094:1105  _checkOwner */\n      tag_145\n        /* \"@openzeppelin/contracts/access/Ownable.sol\":1094:1107  _checkOwner() */\n      jump\t// in\n    tag_160:\n        /* \"StackMining.sol\":8238:8249  stakedToken */\n      sload(0x0b)\n      sub(shl(0xa0, 0x01), 0x01)\n      swap1\n      dup2\n      and\n        /* \"StackMining.sol\":8213:8250  _tokenAddress != address(stakedToken) */\n      swap1\n      dup4\n      and\n      sub\n        /* \"StackMining.sol\":8205:8277  require(_tokenAddress != address(stakedToken), \"Cannot be staked token\") */\n      tag_162\n      jumpi\n      mload(0x40)\n      shl(0xe5, 0x461bcd)\n      dup2\n      mstore\n        /* \"#utility.yul\":4433:4435   */\n      0x20\n        /* \"StackMining.sol\":8205:8277  require(_tokenAddress != address(stakedToken), \"Cannot be staked token\") */\n      0x04\n      dup3\n      add\n        /* \"#utility.yul\":4415:4436   */\n      mstore\n        /* \"#utility.yul\":4472:4474   */\n      0x16\n        /* \"#utility.yul\":4452:4470   */\n      0x24\n      dup3\n      add\n        /* \"#utility.yul\":4445:4475   */\n      mstore\n      shl(0x51, 0x21b0b73737ba1031329039ba30b5b2b2103a37b5b2b7)\n        /* \"#utility.yul\":4491:4509   */\n      0x44\n      dup3\n      add\n        /* \"#utility.yul\":4484:4536   */\n      mstore\n        /* \"#utility.yul\":4553:4571   */\n      0x64\n      add\n        /* \"StackMining.sol\":8205:8277  require(_tokenAddress != address(stakedToken), \"Cannot be staked token\") */\n      tag_148\n        /* \"#utility.yul\":4231:4577   */\n      jump\n        /* \"StackMining.sol\":8205:8277  require(_tokenAddress != address(stakedToken), \"Cannot be staked token\") */\n    tag_162:\n        /* \"StackMining.sol\":8321:8332  rewardToken */\n      sload(0x0a)\n      sub(shl(0xa0, 0x01), 0x01)\n      swap1\n      dup2\n      and\n        /* \"StackMining.sol\":8296:8333  _tokenAddress != address(rewardToken) */\n      swap1\n      dup4\n      and\n      sub\n        /* \"StackMining.sol\":8288:8360  require(_tokenAddress != address(rewardToken), \"Cannot be reward token\") */\n      tag_165\n      jumpi\n      mload(0x40)\n      shl(0xe5, 0x461bcd)\n      dup2\n      mstore\n        /* \"#utility.yul\":4784:4786   */\n      0x20\n        /* \"StackMining.sol\":8288:8360  require(_tokenAddress != address(rewardToken), \"Cannot be reward token\") */\n      0x04\n      dup3\n      add\n        /* \"#utility.yul\":4766:4787   */\n      mstore\n        /* \"#utility.yul\":4823:4825   */\n      0x16\n        /* \"#utility.yul\":4803:4821   */\n      0x24\n      dup3\n      add\n        /* \"#utility.yul\":4796:4826   */\n      mstore\n      shl(0x51, 0x21b0b73737ba103132903932bbb0b932103a37b5b2b7)\n        /* \"#utility.yul\":4842:4860   */\n      0x44\n      dup3\n      add\n        /* \"#utility.yul\":4835:4887   */\n      mstore\n        /* \"#utility.yul\":4904:4922   */\n      0x64\n      add\n        /* \"StackMining.sol\":8288:8360  require(_tokenAddress != address(rewardToken), \"Cannot be reward token\") */\n      tag_148\n        /* \"#utility.yul\":4582:4928   */\n      jump\n        /* \"StackMining.sol\":8288:8360  require(_tokenAddress != address(rewardToken), \"Cannot be reward token\") */\n    tag_165:\n        /* \"StackMining.sol\":8373:8442  IBEP20(_tokenAddress).safeTransfer(address(msg.sender), _tokenAmount) */\n      tag_168\n      sub(shl(0xa0, 0x01), 0x01)\n        /* \"StackMining.sol\":8373:8407  IBEP20(_tokenAddress).safeTransfer */\n      dup4\n      and\n        /* \"StackMining.sol\":8416:8426  msg.sender */\n      caller\n        /* \"StackMining.sol\":8429:8441  _tokenAmount */\n      dup4\n        /* \"StackMining.sol\":8373:8407  IBEP20(_tokenAddress).safeTransfer */\n      tag_158\n        /* \"StackMining.sol\":8373:8442  IBEP20(_tokenAddress).safeTransfer(address(msg.sender), _tokenAmount) */\n      jump\t// in\n    tag_168:\n        /* \"StackMining.sol\":8460:8507  AdminTokenRecovery(_tokenAddress, _tokenAmount) */\n      0x40\n      dup1\n      mload\n      sub(shl(0xa0, 0x01), 0x01)\n        /* \"#utility.yul\":5125:5157   */\n      dup5\n      and\n        /* \"#utility.yul\":5107:5158   */\n      dup2\n      mstore\n        /* \"#utility.yul\":5189:5191   */\n      0x20\n        /* \"#utility.yul\":5174:5192   */\n      dup2\n      add\n        /* \"#utility.yul\":5167:5201   */\n      dup4\n      swap1\n      mstore\n        /* \"StackMining.sol\":8460:8507  AdminTokenRecovery(_tokenAddress, _tokenAmount) */\n      0x74545154aac348a3eac92596bd1971957ca94795f4e954ec5f613b55fab78129\n      swap2\n        /* \"#utility.yul\":5080:5098   */\n      add\n        /* \"StackMining.sol\":8460:8507  AdminTokenRecovery(_tokenAddress, _tokenAmount) */\n    tag_169:\n      mload(0x40)\n      dup1\n      swap2\n      sub\n      swap1\n      log1\n        /* \"StackMining.sol\":8102:8515  function recoverWrongTokens(address _tokenAddress, uint256 _tokenAmount) external onlyOwner {... */\n      pop\n      pop\n      jump\t// out\n        /* \"StackMining.sol\":5927:6988  function withdraw(uint256 _pid, uint256 _amount) external nonReentrant {... */\n    tag_70:\n        /* \"@openzeppelin/contracts/security/ReentrancyGuard.sol\":2261:2282  _nonReentrantBefore() */\n      tag_172\n        /* \"@openzeppelin/contracts/security/ReentrancyGuard.sol\":2261:2280  _nonReentrantBefore */\n      tag_173\n        /* \"@openzeppelin/contracts/security/ReentrancyGuard.sol\":2261:2282  _nonReentrantBefore() */\n      jump\t// in\n    tag_172:\n        /* \"StackMining.sol\":6009:6030  UserInfo storage user */\n      0x00\n        /* \"StackMining.sol\":6033:6047  userInfo[_pid] */\n      dup3\n      dup2\n      mstore\n        /* \"StackMining.sol\":6033:6041  userInfo */\n      0x0d\n        /* \"StackMining.sol\":6033:6047  userInfo[_pid] */\n      0x20\n      swap1\n      dup2\n      mstore\n      0x40\n      dup1\n      dup4\n      keccak256\n        /* \"StackMining.sol\":6048:6058  msg.sender */\n      caller\n        /* \"StackMining.sol\":6033:6059  userInfo[_pid][msg.sender] */\n      dup5\n      mstore\n      swap1\n      swap2\n      mstore\n      swap1\n      keccak256\n        /* \"StackMining.sol\":6078:6089  user.amount */\n      dup1\n      sload\n        /* \"StackMining.sol\":6078:6100  user.amount >= _amount */\n      dup3\n      gt\n      iszero\n        /* \"StackMining.sol\":6070:6138  require(user.amount >= _amount, \"BFLY: Amount to withdraw too high\") */\n      tag_175\n      jumpi\n      mload(0x40)\n      shl(0xe5, 0x461bcd)\n      dup2\n      mstore\n        /* \"#utility.yul\":5414:5416   */\n      0x20\n        /* \"StackMining.sol\":6070:6138  require(user.amount >= _amount, \"BFLY: Amount to withdraw too high\") */\n      0x04\n      dup3\n      add\n        /* \"#utility.yul\":5396:5417   */\n      mstore\n        /* \"#utility.yul\":5453:5455   */\n      0x21\n        /* \"#utility.yul\":5433:5451   */\n      0x24\n      dup3\n      add\n        /* \"#utility.yul\":5426:5456   */\n      mstore\n        /* \"#utility.yul\":5492:5526   */\n      0x42464c593a20416d6f756e7420746f20776974686472617720746f6f20686967\n        /* \"#utility.yul\":5472:5490   */\n      0x44\n      dup3\n      add\n        /* \"#utility.yul\":5465:5527   */\n      mstore\n      shl(0xfb, 0x0d)\n        /* \"#utility.yul\":5543:5561   */\n      0x64\n      dup3\n      add\n        /* \"#utility.yul\":5536:5567   */\n      mstore\n        /* \"#utility.yul\":5584:5603   */\n      0x84\n      add\n        /* \"StackMining.sol\":6070:6138  require(user.amount >= _amount, \"BFLY: Amount to withdraw too high\") */\n      tag_148\n        /* \"#utility.yul\":5212:5609   */\n      jump\n        /* \"StackMining.sol\":6070:6138  require(user.amount >= _amount, \"BFLY: Amount to withdraw too high\") */\n    tag_175:\n        /* \"StackMining.sol\":6149:6170  PoolInfo storage pool */\n      0x00\n        /* \"StackMining.sol\":6173:6181  poolInfo */\n      0x0c\n        /* \"StackMining.sol\":6182:6186  _pid */\n      dup5\n        /* \"StackMining.sol\":6173:6187  poolInfo[_pid] */\n      dup2\n      sload\n      dup2\n      lt\n      tag_179\n      jumpi\n      tag_179\n      tag_180\n      jump\t// in\n    tag_179:\n      swap1\n      0x00\n      mstore\n      keccak256(0x00, 0x20)\n      swap1\n      0x03\n      mul\n      add\n        /* \"StackMining.sol\":6149:6187  PoolInfo storage pool = poolInfo[_pid] */\n      swap1\n      pop\n        /* \"StackMining.sol\":6291:6306  block.timestamp */\n      timestamp\n        /* \"StackMining.sol\":6251:6288  user.lockStartTime.add(pool.duration) */\n      tag_182\n        /* \"StackMining.sol\":6274:6278  pool */\n      dup3\n        /* \"StackMining.sol\":6274:6287  pool.duration */\n      0x00\n      add\n      sload\n        /* \"StackMining.sol\":6251:6255  user */\n      dup5\n        /* \"StackMining.sol\":6251:6269  user.lockStartTime */\n      0x02\n      add\n      sload\n        /* \"StackMining.sol\":6251:6273  user.lockStartTime.add */\n      tag_183\n      swap1\n        /* \"StackMining.sol\":6251:6288  user.lockStartTime.add(pool.duration) */\n      swap2\n      swap1\n      0xffffffff\n      and\n      jump\t// in\n    tag_182:\n        /* \"StackMining.sol\":6251:6306  user.lockStartTime.add(pool.duration) < block.timestamp */\n      lt\n        /* \"StackMining.sol\":6247:6357  if (user.lockStartTime.add(pool.duration) < block.timestamp){... */\n      iszero\n      tag_185\n      jumpi\n        /* \"StackMining.sol\":6322:6345  emergencyWithdraw(_pid) */\n      tag_185\n        /* \"StackMining.sol\":6340:6344  _pid */\n      dup5\n        /* \"StackMining.sol\":6322:6339  emergencyWithdraw */\n      tag_76\n        /* \"StackMining.sol\":6322:6345  emergencyWithdraw(_pid) */\n      jump\t// in\n    tag_185:\n        /* \"StackMining.sol\":6369:6382  _updatePool() */\n      tag_186\n        /* \"StackMining.sol\":6369:6380  _updatePool */\n      tag_187\n        /* \"StackMining.sol\":6369:6382  _updatePool() */\n      jump\t// in\n    tag_186:\n        /* \"StackMining.sol\":6395:6410  uint256 pending */\n      0x00\n        /* \"StackMining.sol\":6413:6505  user.amount.mul(pool.boost).mul(accTokenPerShare).div(PRECISION_FACTOR).sub(user.rewardDebt) */\n      tag_188\n        /* \"StackMining.sol\":6489:6493  user */\n      dup4\n        /* \"StackMining.sol\":6489:6504  user.rewardDebt */\n      0x01\n      add\n      sload\n        /* \"StackMining.sol\":6413:6484  user.amount.mul(pool.boost).mul(accTokenPerShare).div(PRECISION_FACTOR) */\n      tag_189\n        /* \"StackMining.sol\":6467:6483  PRECISION_FACTOR */\n      sload(0x09)\n        /* \"StackMining.sol\":6413:6462  user.amount.mul(pool.boost).mul(accTokenPerShare) */\n      tag_190\n        /* \"StackMining.sol\":6445:6461  accTokenPerShare */\n      sload(0x03)\n        /* \"StackMining.sol\":6413:6440  user.amount.mul(pool.boost) */\n      tag_191\n        /* \"StackMining.sol\":6429:6433  pool */\n      dup9\n        /* \"StackMining.sol\":6429:6439  pool.boost */\n      0x01\n      add\n      sload\n        /* \"StackMining.sol\":6413:6417  user */\n      dup11\n        /* \"StackMining.sol\":6413:6424  user.amount */\n      0x00\n      add\n      sload\n        /* \"StackMining.sol\":6413:6428  user.amount.mul */\n      tag_192\n      swap1\n        /* \"StackMining.sol\":6413:6440  user.amount.mul(pool.boost) */\n      swap2\n      swap1\n      0xffffffff\n      and\n      jump\t// in\n    tag_191:\n        /* \"StackMining.sol\":6413:6444  user.amount.mul(pool.boost).mul */\n      swap1\n      tag_192\n        /* \"StackMining.sol\":6413:6462  user.amount.mul(pool.boost).mul(accTokenPerShare) */\n      jump\t// in\n    tag_190:\n        /* \"StackMining.sol\":6413:6466  user.amount.mul(pool.boost).mul(accTokenPerShare).div */\n      swap1\n      tag_193\n        /* \"StackMining.sol\":6413:6484  user.amount.mul(pool.boost).mul(accTokenPerShare).div(PRECISION_FACTOR) */\n      jump\t// in\n    tag_189:\n        /* \"StackMining.sol\":6413:6488  user.amount.mul(pool.boost).mul(accTokenPerShare).div(PRECISION_FACTOR).sub */\n      swap1\n      tag_194\n        /* \"StackMining.sol\":6413:6505  user.amount.mul(pool.boost).mul(accTokenPerShare).div(PRECISION_FACTOR).sub(user.rewardDebt) */\n      jump\t// in\n    tag_188:\n        /* \"StackMining.sol\":6395:6505  uint256 pending = user.amount.mul(pool.boost).mul(accTokenPerShare).div(PRECISION_FACTOR).sub(user.rewardDebt) */\n      swap1\n      pop\n        /* \"StackMining.sol\":6522:6533  _amount > 0 */\n      dup4\n      iszero\n        /* \"StackMining.sol\":6518:6722  if (_amount > 0) {... */\n      tag_198\n      jumpi\n        /* \"StackMining.sol\":6564:6575  user.amount */\n      dup3\n      sload\n        /* \"StackMining.sol\":6564:6588  user.amount.sub(_amount) */\n      tag_196\n      swap1\n        /* \"StackMining.sol\":6580:6587  _amount */\n      dup6\n        /* \"StackMining.sol\":6564:6579  user.amount.sub */\n      tag_194\n        /* \"StackMining.sol\":6564:6588  user.amount.sub(_amount) */\n      jump\t// in\n    tag_196:\n        /* \"StackMining.sol\":6550:6588  user.amount = user.amount.sub(_amount) */\n      dup4\n      sstore\n        /* \"StackMining.sol\":6617:6628  pool.amount */\n      0x02\n      dup3\n      add\n      sload\n        /* \"StackMining.sol\":6617:6641  pool.amount.sub(_amount) */\n      tag_197\n      swap1\n        /* \"StackMining.sol\":6633:6640  _amount */\n      dup6\n        /* \"StackMining.sol\":6617:6632  pool.amount.sub */\n      tag_194\n        /* \"StackMining.sol\":6617:6641  pool.amount.sub(_amount) */\n      jump\t// in\n    tag_197:\n        /* \"StackMining.sol\":6603:6614  pool.amount */\n      0x02\n      dup4\n      add\n        /* \"StackMining.sol\":6603:6641  pool.amount = pool.amount.sub(_amount) */\n      sstore\n        /* \"StackMining.sol\":6656:6667  stakedToken */\n      sload(0x0b)\n        /* \"StackMining.sol\":6656:6710  stakedToken.safeTransfer(address(msg.sender), _amount) */\n      tag_198\n      swap1\n      sub(shl(0xa0, 0x01), 0x01)\n        /* \"StackMining.sol\":6656:6667  stakedToken */\n      and\n        /* \"StackMining.sol\":6689:6699  msg.sender */\n      caller\n        /* \"StackMining.sol\":6702:6709  _amount */\n      dup7\n        /* \"StackMining.sol\":6656:6680  stakedToken.safeTransfer */\n      tag_158\n        /* \"StackMining.sol\":6656:6710  stakedToken.safeTransfer(address(msg.sender), _amount) */\n      jump\t// in\n    tag_198:\n        /* \"StackMining.sol\":6738:6749  pending > 0 */\n      dup1\n      iszero\n        /* \"StackMining.sol\":6734:6832  if (pending > 0) {... */\n      tag_200\n      jumpi\n        /* \"StackMining.sol\":6766:6777  rewardToken */\n      sload(0x0a)\n        /* \"StackMining.sol\":6766:6820  rewardToken.safeTransfer(address(msg.sender), pending) */\n      tag_200\n      swap1\n      sub(shl(0xa0, 0x01), 0x01)\n        /* \"StackMining.sol\":6766:6777  rewardToken */\n      and\n        /* \"StackMining.sol\":6799:6809  msg.sender */\n      caller\n        /* \"StackMining.sol\":6812:6819  pending */\n      dup4\n        /* \"StackMining.sol\":6766:6790  rewardToken.safeTransfer */\n      tag_158\n        /* \"StackMining.sol\":6766:6820  rewardToken.safeTransfer(address(msg.sender), pending) */\n      jump\t// in\n    tag_200:\n        /* \"StackMining.sol\":6862:6933  user.amount.mul(pool.boost).mul(accTokenPerShare).div(PRECISION_FACTOR) */\n      tag_201\n        /* \"StackMining.sol\":6916:6932  PRECISION_FACTOR */\n      sload(0x09)\n        /* \"StackMining.sol\":6862:6911  user.amount.mul(pool.boost).mul(accTokenPerShare) */\n      tag_190\n        /* \"StackMining.sol\":6894:6910  accTokenPerShare */\n      sload(0x03)\n        /* \"StackMining.sol\":6862:6889  user.amount.mul(pool.boost) */\n      tag_191\n        /* \"StackMining.sol\":6878:6882  pool */\n      dup7\n        /* \"StackMining.sol\":6878:6888  pool.boost */\n      0x01\n      add\n      sload\n        /* \"StackMining.sol\":6862:6866  user */\n      dup9\n        /* \"StackMining.sol\":6862:6873  user.amount */\n      0x00\n      add\n      sload\n        /* \"StackMining.sol\":6862:6877  user.amount.mul */\n      tag_192\n      swap1\n        /* \"StackMining.sol\":6862:6889  user.amount.mul(pool.boost) */\n      swap2\n      swap1\n      0xffffffff\n      and\n      jump\t// in\n        /* \"StackMining.sol\":6862:6933  user.amount.mul(pool.boost).mul(accTokenPerShare).div(PRECISION_FACTOR) */\n    tag_201:\n        /* \"StackMining.sol\":6844:6859  user.rewardDebt */\n      0x01\n      dup5\n      add\n        /* \"StackMining.sol\":6844:6933  user.rewardDebt = user.amount.mul(pool.boost).mul(accTokenPerShare).div(PRECISION_FACTOR) */\n      sstore\n        /* \"StackMining.sol\":6951:6980  Withdraw(msg.sender, _amount) */\n      mload(0x40)\n        /* \"#utility.yul\":345:370   */\n      dup5\n      dup2\n      mstore\n        /* \"StackMining.sol\":6960:6970  msg.sender */\n      caller\n      swap1\n        /* \"StackMining.sol\":6951:6980  Withdraw(msg.sender, _amount) */\n      0x884edad9ce6fa2440d8a54cc123490eb96d2768479d49ff9c7366125a9424364\n      swap1\n        /* \"#utility.yul\":333:335   */\n      0x20\n        /* \"#utility.yul\":318:336   */\n      add\n        /* \"StackMining.sol\":6951:6980  Withdraw(msg.sender, _amount) */\n      mload(0x40)\n      dup1\n      swap2\n      sub\n      swap1\n      log2\n        /* \"StackMining.sol\":5998:6988  {... */\n      pop\n      pop\n      pop\n        /* \"@openzeppelin/contracts/security/ReentrancyGuard.sol\":2303:2323  _nonReentrantAfter() */\n      tag_205\n        /* \"@openzeppelin/contracts/security/ReentrancyGuard.sol\":1716:1717  1 */\n      0x01\n        /* \"@openzeppelin/contracts/security/ReentrancyGuard.sol\":2809:2831  _status = _NOT_ENTERED */\n      dup1\n      sstore\n        /* \"@openzeppelin/contracts/security/ReentrancyGuard.sol\":2629:2838  function _nonReentrantAfter() private {... */\n      jump\n        /* \"@openzeppelin/contracts/security/ReentrancyGuard.sol\":2303:2323  _nonReentrantAfter() */\n    tag_205:\n        /* \"StackMining.sol\":5927:6988  function withdraw(uint256 _pid, uint256 _amount) external nonReentrant {... */\n      pop\n      pop\n      jump\t// out\n        /* \"StackMining.sol\":7129:7552  function emergencyWithdraw(uint256 _pid) public nonReentrant {... */\n    tag_76:\n        /* \"@openzeppelin/contracts/security/ReentrancyGuard.sol\":2261:2282  _nonReentrantBefore() */\n      tag_208\n        /* \"@openzeppelin/contracts/security/ReentrancyGuard.sol\":2261:2280  _nonReentrantBefore */\n      tag_173\n        /* \"@openzeppelin/contracts/security/ReentrancyGuard.sol\":2261:2282  _nonReentrantBefore() */\n      jump\t// in\n    tag_208:\n        /* \"StackMining.sol\":7201:7222  UserInfo storage user */\n      0x00\n        /* \"StackMining.sol\":7225:7239  userInfo[_pid] */\n      dup2\n      dup2\n      mstore\n        /* \"StackMining.sol\":7225:7233  userInfo */\n      0x0d\n        /* \"StackMining.sol\":7225:7239  userInfo[_pid] */\n      0x20\n      swap1\n      dup2\n      mstore\n      0x40\n      dup1\n      dup4\n      keccak256\n        /* \"StackMining.sol\":7240:7250  msg.sender */\n      caller\n        /* \"StackMining.sol\":7225:7251  userInfo[_pid][msg.sender] */\n      dup5\n      mstore\n      swap1\n      swap2\n      mstore\n      dup2\n      keccak256\n        /* \"StackMining.sol\":7289:7300  user.amount */\n      dup1\n      sload\n        /* \"StackMining.sol\":7311:7326  user.amount = 0 */\n      dup3\n      dup3\n      sstore\n      0x01\n        /* \"StackMining.sol\":7337:7352  user.rewardDebt */\n      dup3\n      add\n        /* \"StackMining.sol\":7337:7356  user.rewardDebt = 0 */\n      swap3\n      swap1\n      swap3\n      sstore\n        /* \"StackMining.sol\":7225:7251  userInfo[_pid][msg.sender] */\n      swap1\n        /* \"StackMining.sol\":7373:7393  amountToTransfer > 0 */\n      dup1\n      iszero\n        /* \"StackMining.sol\":7369:7485  if (amountToTransfer > 0) {... */\n      tag_211\n      jumpi\n        /* \"StackMining.sol\":7410:7421  stakedToken */\n      sload(0x0b)\n        /* \"StackMining.sol\":7410:7473  stakedToken.safeTransfer(address(msg.sender), amountToTransfer) */\n      tag_211\n      swap1\n      sub(shl(0xa0, 0x01), 0x01)\n        /* \"StackMining.sol\":7410:7421  stakedToken */\n      and\n        /* \"StackMining.sol\":7443:7453  msg.sender */\n      caller\n        /* \"StackMining.sol\":7456:7472  amountToTransfer */\n      dup4\n        /* \"StackMining.sol\":7410:7434  stakedToken.safeTransfer */\n      tag_158\n        /* \"StackMining.sol\":7410:7473  stakedToken.safeTransfer(address(msg.sender), amountToTransfer) */\n      jump\t// in\n    tag_211:\n        /* \"StackMining.sol\":7532:7543  user.amount */\n      dup2\n      sload\n        /* \"StackMining.sol\":7502:7544  EmergencyWithdraw(msg.sender, user.amount) */\n      mload(0x40)\n        /* \"#utility.yul\":345:370   */\n      swap1\n      dup2\n      mstore\n        /* \"StackMining.sol\":7520:7530  msg.sender */\n      caller\n      swap1\n        /* \"StackMining.sol\":7502:7544  EmergencyWithdraw(msg.sender, user.amount) */\n      0x5fafa99d0643513820be26656b45130b01e1c03062e1266bf36f88cbd3bd9695\n      swap1\n        /* \"#utility.yul\":333:335   */\n      0x20\n        /* \"#utility.yul\":318:336   */\n      add\n        /* \"StackMining.sol\":7502:7544  EmergencyWithdraw(msg.sender, user.amount) */\n      mload(0x40)\n      dup1\n      swap2\n      sub\n      swap1\n      log2\n        /* \"StackMining.sol\":7190:7552  {... */\n      pop\n      pop\n        /* \"@openzeppelin/contracts/security/ReentrancyGuard.sol\":2303:2323  _nonReentrantAfter() */\n      tag_157\n        /* \"@openzeppelin/contracts/security/ReentrancyGuard.sol\":1716:1717  1 */\n      0x01\n        /* \"@openzeppelin/contracts/security/ReentrancyGuard.sol\":2809:2831  _status = _NOT_ENTERED */\n      dup1\n      sstore\n        /* \"@openzeppelin/contracts/security/ReentrancyGuard.sol\":2629:2838  function _nonReentrantAfter() private {... */\n      jump\n        /* \"@openzeppelin/contracts/access/Ownable.sol\":1831:1932  function renounceOwnership() public virtual onlyOwner {... */\n    tag_81:\n        /* \"@openzeppelin/contracts/access/Ownable.sol\":1094:1107  _checkOwner() */\n      tag_215\n        /* \"@openzeppelin/contracts/access/Ownable.sol\":1094:1105  _checkOwner */\n      tag_145\n        /* \"@openzeppelin/contracts/access/Ownable.sol\":1094:1107  _checkOwner() */\n      jump\t// in\n    tag_215:\n        /* \"@openzeppelin/contracts/access/Ownable.sol\":1895:1925  _transferOwnership(address(0)) */\n      tag_217\n        /* \"@openzeppelin/contracts/access/Ownable.sol\":1922:1923  0 */\n      0x00\n        /* \"@openzeppelin/contracts/access/Ownable.sol\":1895:1913  _transferOwnership */\n      tag_218\n        /* \"@openzeppelin/contracts/access/Ownable.sol\":1895:1925  _transferOwnership(address(0)) */\n      jump\t// in\n    tag_217:\n        /* \"@openzeppelin/contracts/access/Ownable.sol\":1831:1932  function renounceOwnership() public virtual onlyOwner {... */\n      jump\t// out\n        /* \"StackMining.sol\":8605:8693  function stopReward() external onlyOwner {... */\n    tag_83:\n        /* \"@openzeppelin/contracts/access/Ownable.sol\":1094:1107  _checkOwner() */\n      tag_220\n        /* \"@openzeppelin/contracts/access/Ownable.sol\":1094:1105  _checkOwner */\n      tag_145\n        /* \"@openzeppelin/contracts/access/Ownable.sol\":1094:1107  _checkOwner() */\n      jump\t// in\n    tag_220:\n        /* \"StackMining.sol\":8673:8685  block.number */\n      number\n        /* \"StackMining.sol\":8657:8670  bonusEndBlock */\n      0x04\n        /* \"StackMining.sol\":8657:8685  bonusEndBlock = block.number */\n      sstore\n        /* \"StackMining.sol\":8605:8693  function stopReward() external onlyOwner {... */\n      jump\t// out\n        /* \"StackMining.sol\":3120:4370  function initialize(... */\n    tag_87:\n        /* \"StackMining.sol\":3394:3407  isInitialized */\n      sload(0x02)\n      shl(0xa8, 0x01)\n      swap1\n      div\n      0xff\n      and\n        /* \"StackMining.sol\":3393:3407  !isInitialized */\n      iszero\n        /* \"StackMining.sol\":3385:3430  require(!isInitialized, \"BFLY: ALREADY_INIT\") */\n      tag_223\n      jumpi\n      mload(0x40)\n      shl(0xe5, 0x461bcd)\n      dup2\n      mstore\n        /* \"#utility.yul\":5948:5950   */\n      0x20\n        /* \"StackMining.sol\":3385:3430  require(!isInitialized, \"BFLY: ALREADY_INIT\") */\n      0x04\n      dup3\n      add\n        /* \"#utility.yul\":5930:5951   */\n      mstore\n        /* \"#utility.yul\":5987:5989   */\n      0x12\n        /* \"#utility.yul\":5967:5985   */\n      0x24\n      dup3\n      add\n        /* \"#utility.yul\":5960:5990   */\n      mstore\n      shl(0x72, 0x109193164e881053149150511657d2539255)\n        /* \"#utility.yul\":6006:6024   */\n      0x44\n      dup3\n      add\n        /* \"#utility.yul\":5999:6047   */\n      mstore\n        /* \"#utility.yul\":6064:6082   */\n      0x64\n      add\n        /* \"StackMining.sol\":3385:3430  require(!isInitialized, \"BFLY: ALREADY_INIT\") */\n      tag_148\n        /* \"#utility.yul\":5746:6088   */\n      jump\n        /* \"StackMining.sol\":3385:3430  require(!isInitialized, \"BFLY: ALREADY_INIT\") */\n    tag_223:\n        /* \"StackMining.sol\":3463:3481  SMART_CHEF_FACTORY */\n      and(sub(shl(0xa0, 0x01), 0x01), sload(0x02))\n        /* \"StackMining.sol\":3449:3459  msg.sender */\n      caller\n        /* \"StackMining.sol\":3449:3481  msg.sender == SMART_CHEF_FACTORY */\n      eq\n        /* \"StackMining.sol\":3441:3503  require(msg.sender == SMART_CHEF_FACTORY, \"BFLY: NOT_FACTORY\") */\n      tag_226\n      jumpi\n      mload(0x40)\n      shl(0xe5, 0x461bcd)\n      dup2\n      mstore\n        /* \"#utility.yul\":6295:6297   */\n      0x20\n        /* \"StackMining.sol\":3441:3503  require(msg.sender == SMART_CHEF_FACTORY, \"BFLY: NOT_FACTORY\") */\n      0x04\n      dup3\n      add\n        /* \"#utility.yul\":6277:6298   */\n      mstore\n        /* \"#utility.yul\":6334:6336   */\n      0x11\n        /* \"#utility.yul\":6314:6332   */\n      0x24\n      dup3\n      add\n        /* \"#utility.yul\":6307:6337   */\n      mstore\n      shl(0x78, 0x42464c593a204e4f545f464143544f5259)\n        /* \"#utility.yul\":6353:6371   */\n      0x44\n      dup3\n      add\n        /* \"#utility.yul\":6346:6393   */\n      mstore\n        /* \"#utility.yul\":6410:6428   */\n      0x64\n      add\n        /* \"StackMining.sol\":3441:3503  require(msg.sender == SMART_CHEF_FACTORY, \"BFLY: NOT_FACTORY\") */\n      tag_148\n        /* \"#utility.yul\":6093:6434   */\n      jump\n        /* \"StackMining.sol\":3441:3503  require(msg.sender == SMART_CHEF_FACTORY, \"BFLY: NOT_FACTORY\") */\n    tag_226:\n        /* \"StackMining.sol\":3559:3572  isInitialized */\n      0x02\n        /* \"StackMining.sol\":3559:3579  isInitialized = true */\n      dup1\n      sload\n      not(shl(0xa8, 0xff))\n      and\n      shl(0xa8, 0x01)\n      or\n      swap1\n      sstore\n        /* \"StackMining.sol\":3592:3603  stakedToken */\n      0x0b\n        /* \"StackMining.sol\":3592:3618  stakedToken = _stakedToken */\n      dup1\n      sload\n      sub(shl(0xa0, 0x01), 0x01)\n      dup1\n      dup11\n      and\n      not(sub(shl(0xa0, 0x01), 0x01))\n      swap3\n      dup4\n      and\n      or\n      swap1\n      swap3\n      sstore\n        /* \"StackMining.sol\":3629:3640  rewardToken */\n      0x0a\n        /* \"StackMining.sol\":3629:3655  rewardToken = _rewardToken */\n      dup1\n      sload\n      swap3\n      dup10\n      and\n      swap3\n      swap1\n      swap2\n      and\n      swap2\n      swap1\n      swap2\n      or\n      swap1\n      sstore\n        /* \"StackMining.sol\":3666:3680  rewardPerBlock */\n      0x08\n        /* \"StackMining.sol\":3666:3698  rewardPerBlock = _rewardPerBlock */\n      dup6\n      swap1\n      sstore\n        /* \"StackMining.sol\":3709:3719  startBlock */\n      0x05\n        /* \"StackMining.sol\":3709:3733  startBlock = _startBlock */\n      dup5\n      swap1\n      sstore\n        /* \"StackMining.sol\":3744:3757  bonusEndBlock */\n      0x04\n        /* \"StackMining.sol\":3744:3774  bonusEndBlock = _bonusEndBlock */\n      dup4\n      swap1\n      sstore\n        /* \"StackMining.sol\":3791:3812  _poolLimitPerUser > 0 */\n      dup2\n      iszero\n        /* \"StackMining.sol\":3787:3911  if (_poolLimitPerUser > 0) {... */\n      tag_229\n      jumpi\n        /* \"StackMining.sol\":3829:3841  hasUserLimit */\n      0x02\n        /* \"StackMining.sol\":3829:3848  hasUserLimit = true */\n      dup1\n      sload\n      not(shl(0xa0, 0xff))\n      and\n      shl(0xa0, 0x01)\n      or\n      swap1\n      sstore\n        /* \"StackMining.sol\":3863:3879  poolLimitPerUser */\n      0x07\n        /* \"StackMining.sol\":3863:3899  poolLimitPerUser = _poolLimitPerUser */\n      dup3\n      swap1\n      sstore\n        /* \"StackMining.sol\":3787:3911  if (_poolLimitPerUser > 0) {... */\n    tag_229:\n        /* \"StackMining.sol\":3961:3972  rewardToken */\n      sload(0x0a)\n        /* \"StackMining.sol\":3961:3983  rewardToken.decimals() */\n      0x40\n      dup1\n      mload\n      shl(0xe0, 0x313ce567)\n      dup2\n      mstore\n      swap1\n      mload\n        /* \"StackMining.sol\":3923:3950  uint256 decimalsRewardToken */\n      0x00\n      swap3\n      sub(shl(0xa0, 0x01), 0x01)\n        /* \"StackMining.sol\":3961:3972  rewardToken */\n      and\n      swap2\n        /* \"StackMining.sol\":3961:3981  rewardToken.decimals */\n      0x313ce567\n      swap2\n        /* \"StackMining.sol\":3961:3983  rewardToken.decimals() */\n      0x04\n      dup1\n      dup4\n      add\n      swap3\n      0x20\n      swap3\n      swap2\n      swap1\n      dup3\n      swap1\n      sub\n      add\n      dup2\n        /* \"StackMining.sol\":3961:3972  rewardToken */\n      dup7\n        /* \"StackMining.sol\":3961:3983  rewardToken.decimals() */\n      gas\n      staticcall\n      iszero\n      dup1\n      iszero\n      tag_231\n      jumpi\n      returndatasize\n      0x00\n      dup1\n      returndatacopy\n      revert(0x00, returndatasize)\n    tag_231:\n      pop\n      pop\n      pop\n      pop\n      mload(0x40)\n      returndatasize\n      not(0x1f)\n      0x1f\n      dup3\n      add\n      and\n      dup3\n      add\n      dup1\n      0x40\n      mstore\n      pop\n      dup2\n      add\n      swap1\n      tag_232\n      swap2\n      swap1\n      tag_233\n      jump\t// in\n    tag_232:\n        /* \"StackMining.sol\":3953:3984  uint256(rewardToken.decimals()) */\n      0xff\n      and\n        /* \"StackMining.sol\":3923:3984  uint256 decimalsRewardToken = uint256(rewardToken.decimals()) */\n      swap1\n      pop\n        /* \"StackMining.sol\":4025:4027  30 */\n      0x1e\n        /* \"StackMining.sol\":4003:4022  decimalsRewardToken */\n      dup2\n        /* \"StackMining.sol\":4003:4027  decimalsRewardToken < 30 */\n      lt\n        /* \"StackMining.sol\":3995:4060  require(decimalsRewardToken < 30, \"BFLY: Must be inferior to 30\") */\n      tag_234\n      jumpi\n      mload(0x40)\n      shl(0xe5, 0x461bcd)\n      dup2\n      mstore\n        /* \"#utility.yul\":6919:6921   */\n      0x20\n        /* \"StackMining.sol\":3995:4060  require(decimalsRewardToken < 30, \"BFLY: Must be inferior to 30\") */\n      0x04\n      dup3\n      add\n        /* \"#utility.yul\":6901:6922   */\n      mstore\n        /* \"#utility.yul\":6958:6960   */\n      0x1c\n        /* \"#utility.yul\":6938:6956   */\n      0x24\n      dup3\n      add\n        /* \"#utility.yul\":6931:6961   */\n      mstore\n        /* \"#utility.yul\":6997:7027   */\n      0x42464c593a204d75737420626520696e666572696f7220746f20333000000000\n        /* \"#utility.yul\":6977:6995   */\n      0x44\n      dup3\n      add\n        /* \"#utility.yul\":6970:7028   */\n      mstore\n        /* \"#utility.yul\":7045:7063   */\n      0x64\n      add\n        /* \"StackMining.sol\":3995:4060  require(decimalsRewardToken < 30, \"BFLY: Must be inferior to 30\") */\n      tag_148\n        /* \"#utility.yul\":6717:7069   */\n      jump\n        /* \"StackMining.sol\":3995:4060  require(decimalsRewardToken < 30, \"BFLY: Must be inferior to 30\") */\n    tag_234:\n        /* \"StackMining.sol\":4105:4141  uint256(30).sub(decimalsRewardToken) */\n      tag_237\n        /* \"StackMining.sol\":4113:4115  30 */\n      0x1e\n        /* \"StackMining.sol\":4121:4140  decimalsRewardToken */\n      dup3\n        /* \"StackMining.sol\":4105:4120  uint256(30).sub */\n      tag_194\n        /* \"StackMining.sol\":4105:4141  uint256(30).sub(decimalsRewardToken) */\n      jump\t// in\n    tag_237:\n        /* \"StackMining.sol\":4100:4142  10**(uint256(30).sub(decimalsRewardToken)) */\n      tag_238\n      swap1\n        /* \"StackMining.sol\":4100:4102  10 */\n      0x0a\n        /* \"StackMining.sol\":4100:4142  10**(uint256(30).sub(decimalsRewardToken)) */\n      tag_239\n      jump\t// in\n    tag_238:\n        /* \"StackMining.sol\":4073:4089  PRECISION_FACTOR */\n      0x09\n        /* \"StackMining.sol\":4073:4143  PRECISION_FACTOR = uint256(10**(uint256(30).sub(decimalsRewardToken))) */\n      sstore\n        /* \"StackMining.sol\":4228:4238  startBlock */\n      sload(0x05)\n        /* \"StackMining.sol\":4210:4225  lastRewardBlock */\n      0x06\n        /* \"StackMining.sol\":4210:4238  lastRewardBlock = startBlock */\n      sstore\n        /* \"StackMining.sol\":4337:4362  transferOwnership(_admin) */\n      tag_240\n        /* \"StackMining.sol\":4355:4361  _admin */\n      dup3\n        /* \"StackMining.sol\":4337:4354  transferOwnership */\n      tag_139\n        /* \"StackMining.sol\":4337:4362  transferOwnership(_admin) */\n      jump\t// in\n    tag_240:\n        /* \"StackMining.sol\":3374:4370  {... */\n      pop\n        /* \"StackMining.sol\":3120:4370  function initialize(... */\n      pop\n      pop\n      pop\n      pop\n      pop\n      pop\n      pop\n      jump\t// out\n        /* \"StackMining.sol\":10033:10639  function updateStartAndEndBlocks(uint256 _startBlock, uint256 _bonusEndBlock) external onlyOwner {... */\n    tag_108:\n        /* \"@openzeppelin/contracts/access/Ownable.sol\":1094:1107  _checkOwner() */\n      tag_243\n        /* \"@openzeppelin/contracts/access/Ownable.sol\":1094:1105  _checkOwner */\n      tag_145\n        /* \"@openzeppelin/contracts/access/Ownable.sol\":1094:1107  _checkOwner() */\n      jump\t// in\n    tag_243:\n        /* \"StackMining.sol\":10164:10174  startBlock */\n      sload(0x05)\n        /* \"StackMining.sol\":10149:10161  block.number */\n      number\n        /* \"StackMining.sol\":10149:10174  block.number < startBlock */\n      lt\n        /* \"StackMining.sol\":10141:10195  require(block.number < startBlock, \"Pool has started\") */\n      tag_245\n      jumpi\n      mload(0x40)\n      shl(0xe5, 0x461bcd)\n      dup2\n      mstore\n        /* \"#utility.yul\":4088:4090   */\n      0x20\n        /* \"StackMining.sol\":10141:10195  require(block.number < startBlock, \"Pool has started\") */\n      0x04\n      dup3\n      add\n        /* \"#utility.yul\":4070:4091   */\n      mstore\n        /* \"#utility.yul\":4127:4129   */\n      0x10\n        /* \"#utility.yul\":4107:4125   */\n      0x24\n      dup3\n      add\n        /* \"#utility.yul\":4100:4130   */\n      mstore\n      shl(0x82, 0x141bdbdb081a185cc81cdd185c9d1959)\n        /* \"#utility.yul\":4146:4164   */\n      0x44\n      dup3\n      add\n        /* \"#utility.yul\":4139:4185   */\n      mstore\n        /* \"#utility.yul\":4202:4220   */\n      0x64\n      add\n        /* \"StackMining.sol\":10141:10195  require(block.number < startBlock, \"Pool has started\") */\n      tag_148\n        /* \"#utility.yul\":3886:4226   */\n      jump\n        /* \"StackMining.sol\":10141:10195  require(block.number < startBlock, \"Pool has started\") */\n    tag_245:\n        /* \"StackMining.sol\":10228:10242  _bonusEndBlock */\n      dup1\n        /* \"StackMining.sol\":10214:10225  _startBlock */\n      dup3\n        /* \"StackMining.sol\":10214:10242  _startBlock < _bonusEndBlock */\n      lt\n        /* \"StackMining.sol\":10206:10293  require(_startBlock < _bonusEndBlock, \"New startBlock must be lower than new endBlock\") */\n      tag_247\n      jumpi\n      mload(0x40)\n      shl(0xe5, 0x461bcd)\n      dup2\n      mstore\n        /* \"#utility.yul\":8782:8784   */\n      0x20\n        /* \"StackMining.sol\":10206:10293  require(_startBlock < _bonusEndBlock, \"New startBlock must be lower than new endBlock\") */\n      0x04\n      dup3\n      add\n        /* \"#utility.yul\":8764:8785   */\n      mstore\n        /* \"#utility.yul\":8821:8823   */\n      0x2e\n        /* \"#utility.yul\":8801:8819   */\n      0x24\n      dup3\n      add\n        /* \"#utility.yul\":8794:8824   */\n      mstore\n        /* \"#utility.yul\":8860:8894   */\n      0x4e6577207374617274426c6f636b206d757374206265206c6f77657220746861\n        /* \"#utility.yul\":8840:8858   */\n      0x44\n      dup3\n      add\n        /* \"#utility.yul\":8833:8895   */\n      mstore\n      shl(0x90, 0x6e206e657720656e64426c6f636b)\n        /* \"#utility.yul\":8911:8929   */\n      0x64\n      dup3\n      add\n        /* \"#utility.yul\":8904:8948   */\n      mstore\n        /* \"#utility.yul\":8965:8984   */\n      0x84\n      add\n        /* \"StackMining.sol\":10206:10293  require(_startBlock < _bonusEndBlock, \"New startBlock must be lower than new endBlock\") */\n      tag_148\n        /* \"#utility.yul\":8580:8990   */\n      jump\n        /* \"StackMining.sol\":10206:10293  require(_startBlock < _bonusEndBlock, \"New startBlock must be lower than new endBlock\") */\n    tag_247:\n        /* \"StackMining.sol\":10327:10338  _startBlock */\n      dup2\n        /* \"StackMining.sol\":10312:10324  block.number */\n      number\n        /* \"StackMining.sol\":10312:10338  block.number < _startBlock */\n      lt\n        /* \"StackMining.sol\":10304:10391  require(block.number < _startBlock, \"New startBlock must be higher than current block\") */\n      tag_250\n      jumpi\n      mload(0x40)\n      shl(0xe5, 0x461bcd)\n      dup2\n      mstore\n        /* \"#utility.yul\":9197:9199   */\n      0x20\n        /* \"StackMining.sol\":10304:10391  require(block.number < _startBlock, \"New startBlock must be higher than current block\") */\n      0x04\n      dup3\n      add\n        /* \"#utility.yul\":9179:9200   */\n      mstore\n        /* \"#utility.yul\":9236:9238   */\n      0x30\n        /* \"#utility.yul\":9216:9234   */\n      0x24\n      dup3\n      add\n        /* \"#utility.yul\":9209:9239   */\n      mstore\n        /* \"#utility.yul\":9275:9309   */\n      0x4e6577207374617274426c6f636b206d75737420626520686967686572207468\n        /* \"#utility.yul\":9255:9273   */\n      0x44\n      dup3\n      add\n        /* \"#utility.yul\":9248:9310   */\n      mstore\n      shl(0x80, 0x616e2063757272656e7420626c6f636b)\n        /* \"#utility.yul\":9326:9344   */\n      0x64\n      dup3\n      add\n        /* \"#utility.yul\":9319:9365   */\n      mstore\n        /* \"#utility.yul\":9382:9401   */\n      0x84\n      add\n        /* \"StackMining.sol\":10304:10391  require(block.number < _startBlock, \"New startBlock must be higher than current block\") */\n      tag_148\n        /* \"#utility.yul\":8995:9407   */\n      jump\n        /* \"StackMining.sol\":10304:10391  require(block.number < _startBlock, \"New startBlock must be higher than current block\") */\n    tag_250:\n        /* \"StackMining.sol\":10404:10414  startBlock */\n      0x05\n        /* \"StackMining.sol\":10404:10428  startBlock = _startBlock */\n      dup3\n      swap1\n      sstore\n        /* \"StackMining.sol\":10439:10452  bonusEndBlock */\n      0x04\n        /* \"StackMining.sol\":10439:10469  bonusEndBlock = _bonusEndBlock */\n      dup2\n      swap1\n      sstore\n        /* \"StackMining.sol\":10536:10551  lastRewardBlock */\n      0x06\n        /* \"StackMining.sol\":10536:10564  lastRewardBlock = startBlock */\n      dup3\n      swap1\n      sstore\n        /* \"StackMining.sol\":10582:10631  NewStartAndEndBlocks(_startBlock, _bonusEndBlock) */\n      0x40\n      dup1\n      mload\n        /* \"#utility.yul\":9586:9611   */\n      dup4\n      dup2\n      mstore\n        /* \"#utility.yul\":9642:9644   */\n      0x20\n        /* \"#utility.yul\":9627:9645   */\n      dup2\n      add\n        /* \"#utility.yul\":9620:9654   */\n      dup4\n      swap1\n      mstore\n        /* \"StackMining.sol\":10582:10631  NewStartAndEndBlocks(_startBlock, _bonusEndBlock) */\n      0x7cd0ab87d19036f3dfadadb232c78aa4879dda3f0c994a9d637532410ee2ce06\n      swap2\n        /* \"#utility.yul\":9559:9577   */\n      add\n        /* \"StackMining.sol\":10582:10631  NewStartAndEndBlocks(_startBlock, _bonusEndBlock) */\n      tag_169\n        /* \"#utility.yul\":9412:9660   */\n      jump\n        /* \"StackMining.sol\":10812:11669  function pendingReward(uint256 _pid, address _user) external view returns (uint256) {... */\n    tag_111:\n        /* \"StackMining.sol\":10887:10894  uint256 */\n      0x00\n        /* \"StackMining.sol\":10931:10945  userInfo[_pid] */\n      dup3\n      dup2\n      mstore\n        /* \"StackMining.sol\":10931:10939  userInfo */\n      0x0d\n        /* \"StackMining.sol\":10931:10945  userInfo[_pid] */\n      0x20\n      swap1\n      dup2\n      mstore\n      0x40\n      dup1\n      dup4\n      keccak256\n      sub(shl(0xa0, 0x01), 0x01)\n        /* \"StackMining.sol\":10931:10952  userInfo[_pid][_user] */\n      dup6\n      and\n      dup5\n      mstore\n      swap1\n      swap2\n      mstore\n      dup2\n      keccak256\n        /* \"StackMining.sol\":10987:10995  poolInfo */\n      0x0c\n        /* \"StackMining.sol\":10987:11001  poolInfo[_pid] */\n      dup1\n      sload\n        /* \"StackMining.sol\":10887:10894  uint256 */\n      dup4\n      swap2\n        /* \"StackMining.sol\":10987:10995  poolInfo */\n      swap1\n        /* \"StackMining.sol\":10940:10944  _pid */\n      dup7\n      swap1\n        /* \"StackMining.sol\":10987:11001  poolInfo[_pid] */\n      dup2\n      lt\n      tag_257\n      jumpi\n      tag_257\n      tag_180\n      jump\t// in\n    tag_257:\n      swap1\n      0x00\n      mstore\n      keccak256(0x00, 0x20)\n      swap1\n      0x03\n      mul\n      add\n        /* \"StackMining.sol\":10963:11001  PoolInfo storage pool = poolInfo[_pid] */\n      swap1\n      pop\n        /* \"StackMining.sol\":11012:11031  uint256 totalShares */\n      0x00\n        /* \"StackMining.sol\":11034:11050  getTotalShares() */\n      tag_259\n        /* \"StackMining.sol\":11034:11048  getTotalShares */\n      tag_131\n        /* \"StackMining.sol\":11034:11050  getTotalShares() */\n      jump\t// in\n    tag_259:\n        /* \"StackMining.sol\":11012:11050  uint256 totalShares = getTotalShares() */\n      swap1\n      pop\n        /* \"StackMining.sol\":11080:11095  lastRewardBlock */\n      sload(0x06)\n        /* \"StackMining.sol\":11065:11077  block.number */\n      number\n        /* \"StackMining.sol\":11065:11095  block.number > lastRewardBlock */\n      gt\n        /* \"StackMining.sol\":11065:11115  block.number > lastRewardBlock && totalShares != 0 */\n      dup1\n      iszero\n      tag_260\n      jumpi\n      pop\n        /* \"StackMining.sol\":11099:11115  totalShares != 0 */\n      dup1\n      iszero\n      iszero\n        /* \"StackMining.sol\":11065:11115  block.number > lastRewardBlock && totalShares != 0 */\n    tag_260:\n        /* \"StackMining.sol\":11061:11662  if (block.number > lastRewardBlock && totalShares != 0) {... */\n      iszero\n      tag_261\n      jumpi\n        /* \"StackMining.sol\":11132:11150  uint256 multiplier */\n      0x00\n        /* \"StackMining.sol\":11153:11198  _getMultiplier(lastRewardBlock, block.number) */\n      tag_262\n        /* \"StackMining.sol\":11168:11183  lastRewardBlock */\n      sload(0x06)\n        /* \"StackMining.sol\":11185:11197  block.number */\n      number\n        /* \"StackMining.sol\":11153:11167  _getMultiplier */\n      tag_263\n        /* \"StackMining.sol\":11153:11198  _getMultiplier(lastRewardBlock, block.number) */\n      jump\t// in\n    tag_262:\n        /* \"StackMining.sol\":11132:11198  uint256 multiplier = _getMultiplier(lastRewardBlock, block.number) */\n      swap1\n      pop\n        /* \"StackMining.sol\":11213:11231  uint256 cakeReward */\n      0x00\n        /* \"StackMining.sol\":11234:11264  multiplier.mul(rewardPerBlock) */\n      tag_264\n        /* \"StackMining.sol\":11249:11263  rewardPerBlock */\n      sload(0x08)\n        /* \"StackMining.sol\":11234:11244  multiplier */\n      dup4\n        /* \"StackMining.sol\":11234:11248  multiplier.mul */\n      tag_192\n      swap1\n        /* \"StackMining.sol\":11234:11264  multiplier.mul(rewardPerBlock) */\n      swap2\n      swap1\n      0xffffffff\n      and\n      jump\t// in\n    tag_264:\n        /* \"StackMining.sol\":11213:11264  uint256 cakeReward = multiplier.mul(rewardPerBlock) */\n      swap1\n      pop\n        /* \"StackMining.sol\":11279:11308  uint256 adjustedTokenPerShare */\n      0x00\n        /* \"StackMining.sol\":11328:11399  accTokenPerShare.add(cakeReward.mul(PRECISION_FACTOR).div(totalShares)) */\n      tag_265\n        /* \"StackMining.sol\":11349:11398  cakeReward.mul(PRECISION_FACTOR).div(totalShares) */\n      tag_266\n        /* \"StackMining.sol\":11386:11397  totalShares */\n      dup6\n        /* \"StackMining.sol\":11349:11381  cakeReward.mul(PRECISION_FACTOR) */\n      tag_190\n        /* \"StackMining.sol\":11364:11380  PRECISION_FACTOR */\n      sload(0x09)\n        /* \"StackMining.sol\":11349:11359  cakeReward */\n      dup7\n        /* \"StackMining.sol\":11349:11363  cakeReward.mul */\n      tag_192\n      swap1\n        /* \"StackMining.sol\":11349:11381  cakeReward.mul(PRECISION_FACTOR) */\n      swap2\n      swap1\n      0xffffffff\n      and\n      jump\t// in\n        /* \"StackMining.sol\":11349:11398  cakeReward.mul(PRECISION_FACTOR).div(totalShares) */\n    tag_266:\n        /* \"StackMining.sol\":11328:11344  accTokenPerShare */\n      sload(0x03)\n      swap1\n        /* \"StackMining.sol\":11328:11348  accTokenPerShare.add */\n      tag_183\n        /* \"StackMining.sol\":11328:11399  accTokenPerShare.add(cakeReward.mul(PRECISION_FACTOR).div(totalShares)) */\n      jump\t// in\n    tag_265:\n        /* \"StackMining.sol\":11279:11399  uint256 adjustedTokenPerShare =... */\n      swap1\n      pop\n        /* \"StackMining.sol\":11421:11518  user.amount.mul(pool.boost).mul(adjustedTokenPerShare).div(PRECISION_FACTOR).sub(user.rewardDebt) */\n      tag_268\n        /* \"StackMining.sol\":11502:11506  user */\n      dup7\n        /* \"StackMining.sol\":11502:11517  user.rewardDebt */\n      0x01\n      add\n      sload\n        /* \"StackMining.sol\":11421:11497  user.amount.mul(pool.boost).mul(adjustedTokenPerShare).div(PRECISION_FACTOR) */\n      tag_189\n        /* \"StackMining.sol\":11480:11496  PRECISION_FACTOR */\n      sload(0x09)\n        /* \"StackMining.sol\":11421:11475  user.amount.mul(pool.boost).mul(adjustedTokenPerShare) */\n      tag_190\n        /* \"StackMining.sol\":11453:11474  adjustedTokenPerShare */\n      dup6\n        /* \"StackMining.sol\":11421:11448  user.amount.mul(pool.boost) */\n      tag_191\n        /* \"StackMining.sol\":11437:11441  pool */\n      dup12\n        /* \"StackMining.sol\":11437:11447  pool.boost */\n      0x01\n      add\n      sload\n        /* \"StackMining.sol\":11421:11425  user */\n      dup14\n        /* \"StackMining.sol\":11421:11432  user.amount */\n      0x00\n      add\n      sload\n        /* \"StackMining.sol\":11421:11436  user.amount.mul */\n      tag_192\n      swap1\n        /* \"StackMining.sol\":11421:11448  user.amount.mul(pool.boost) */\n      swap2\n      swap1\n      0xffffffff\n      and\n      jump\t// in\n        /* \"StackMining.sol\":11421:11518  user.amount.mul(pool.boost).mul(adjustedTokenPerShare).div(PRECISION_FACTOR).sub(user.rewardDebt) */\n    tag_268:\n        /* \"StackMining.sol\":11414:11518  return user.amount.mul(pool.boost).mul(adjustedTokenPerShare).div(PRECISION_FACTOR).sub(user.rewardDebt) */\n      swap7\n      pop\n      pop\n      pop\n      pop\n      pop\n      pop\n      pop\n      jump(tag_255)\n        /* \"StackMining.sol\":11061:11662  if (block.number > lastRewardBlock && totalShares != 0) {... */\n    tag_261:\n        /* \"StackMining.sol\":11558:11650  user.amount.mul(pool.boost).mul(accTokenPerShare).div(PRECISION_FACTOR).sub(user.rewardDebt) */\n      tag_273\n        /* \"StackMining.sol\":11634:11638  user */\n      dup4\n        /* \"StackMining.sol\":11634:11649  user.rewardDebt */\n      0x01\n      add\n      sload\n        /* \"StackMining.sol\":11558:11629  user.amount.mul(pool.boost).mul(accTokenPerShare).div(PRECISION_FACTOR) */\n      tag_189\n        /* \"StackMining.sol\":11612:11628  PRECISION_FACTOR */\n      sload(0x09)\n        /* \"StackMining.sol\":11558:11607  user.amount.mul(pool.boost).mul(accTokenPerShare) */\n      tag_190\n        /* \"StackMining.sol\":11590:11606  accTokenPerShare */\n      sload(0x03)\n        /* \"StackMining.sol\":11558:11585  user.amount.mul(pool.boost) */\n      tag_191\n        /* \"StackMining.sol\":11574:11578  pool */\n      dup9\n        /* \"StackMining.sol\":11574:11584  pool.boost */\n      0x01\n      add\n      sload\n        /* \"StackMining.sol\":11558:11562  user */\n      dup11\n        /* \"StackMining.sol\":11558:11569  user.amount */\n      0x00\n      add\n      sload\n        /* \"StackMining.sol\":11558:11573  user.amount.mul */\n      tag_192\n      swap1\n        /* \"StackMining.sol\":11558:11585  user.amount.mul(pool.boost) */\n      swap2\n      swap1\n      0xffffffff\n      and\n      jump\t// in\n        /* \"StackMining.sol\":11558:11650  user.amount.mul(pool.boost).mul(accTokenPerShare).div(PRECISION_FACTOR).sub(user.rewardDebt) */\n    tag_273:\n        /* \"StackMining.sol\":11551:11650  return user.amount.mul(pool.boost).mul(accTokenPerShare).div(PRECISION_FACTOR).sub(user.rewardDebt) */\n      swap4\n      pop\n      pop\n      pop\n      pop\n        /* \"StackMining.sol\":10812:11669  function pendingReward(uint256 _pid, address _user) external view returns (uint256) {... */\n    tag_255:\n      swap3\n      swap2\n      pop\n      pop\n      jump\t// out\n        /* \"StackMining.sol\":8919:9394  function updatePoolLimitPerUser(bool _hasUserLimit, uint256 _poolLimitPerUser) external onlyOwner {... */\n    tag_116:\n        /* \"@openzeppelin/contracts/access/Ownable.sol\":1094:1107  _checkOwner() */\n      tag_278\n        /* \"@openzeppelin/contracts/access/Ownable.sol\":1094:1105  _checkOwner */\n      tag_145\n        /* \"@openzeppelin/contracts/access/Ownable.sol\":1094:1107  _checkOwner() */\n      jump\t// in\n    tag_278:\n        /* \"StackMining.sol\":9036:9048  hasUserLimit */\n      sload(0x02)\n      shl(0xa0, 0x01)\n      swap1\n      div\n      0xff\n      and\n        /* \"StackMining.sol\":9028:9064  require(hasUserLimit, \"Must be set\") */\n      tag_280\n      jumpi\n      mload(0x40)\n      shl(0xe5, 0x461bcd)\n      dup2\n      mstore\n        /* \"#utility.yul\":9867:9869   */\n      0x20\n        /* \"StackMining.sol\":9028:9064  require(hasUserLimit, \"Must be set\") */\n      0x04\n      dup3\n      add\n        /* \"#utility.yul\":9849:9870   */\n      mstore\n        /* \"#utility.yul\":9906:9908   */\n      0x0b\n        /* \"#utility.yul\":9886:9904   */\n      0x24\n      dup3\n      add\n        /* \"#utility.yul\":9879:9909   */\n      mstore\n      shl(0xaa, 0x135d5cdd081899481cd95d)\n        /* \"#utility.yul\":9925:9943   */\n      0x44\n      dup3\n      add\n        /* \"#utility.yul\":9918:9959   */\n      mstore\n        /* \"#utility.yul\":9976:9994   */\n      0x64\n      add\n        /* \"StackMining.sol\":9028:9064  require(hasUserLimit, \"Must be set\") */\n      tag_148\n        /* \"#utility.yul\":9665:10000   */\n      jump\n        /* \"StackMining.sol\":9028:9064  require(hasUserLimit, \"Must be set\") */\n    tag_280:\n        /* \"StackMining.sol\":9079:9092  _hasUserLimit */\n      dup2\n        /* \"StackMining.sol\":9075:9341  if (_hasUserLimit) {... */\n      iszero\n      tag_283\n      jumpi\n        /* \"StackMining.sol\":9137:9153  poolLimitPerUser */\n      sload(0x07)\n        /* \"StackMining.sol\":9117:9134  _poolLimitPerUser */\n      dup2\n        /* \"StackMining.sol\":9117:9153  _poolLimitPerUser > poolLimitPerUser */\n      gt\n        /* \"StackMining.sol\":9109:9182  require(_poolLimitPerUser > poolLimitPerUser, \"New limit must be higher\") */\n      tag_284\n      jumpi\n      mload(0x40)\n      shl(0xe5, 0x461bcd)\n      dup2\n      mstore\n        /* \"#utility.yul\":10207:10209   */\n      0x20\n        /* \"StackMining.sol\":9109:9182  require(_poolLimitPerUser > poolLimitPerUser, \"New limit must be higher\") */\n      0x04\n      dup3\n      add\n        /* \"#utility.yul\":10189:10210   */\n      mstore\n        /* \"#utility.yul\":10246:10248   */\n      0x18\n        /* \"#utility.yul\":10226:10244   */\n      0x24\n      dup3\n      add\n        /* \"#utility.yul\":10219:10249   */\n      mstore\n        /* \"#utility.yul\":10285:10311   */\n      0x4e6577206c696d6974206d757374206265206869676865720000000000000000\n        /* \"#utility.yul\":10265:10283   */\n      0x44\n      dup3\n      add\n        /* \"#utility.yul\":10258:10312   */\n      mstore\n        /* \"#utility.yul\":10329:10347   */\n      0x64\n      add\n        /* \"StackMining.sol\":9109:9182  require(_poolLimitPerUser > poolLimitPerUser, \"New limit must be higher\") */\n      tag_148\n        /* \"#utility.yul\":10005:10353   */\n      jump\n        /* \"StackMining.sol\":9109:9182  require(_poolLimitPerUser > poolLimitPerUser, \"New limit must be higher\") */\n    tag_284:\n        /* \"StackMining.sol\":9197:9213  poolLimitPerUser */\n      0x07\n        /* \"StackMining.sol\":9197:9233  poolLimitPerUser = _poolLimitPerUser */\n      dup2\n      swap1\n      sstore\n        /* \"StackMining.sol\":9075:9341  if (_hasUserLimit) {... */\n      jump(tag_287)\n    tag_283:\n        /* \"StackMining.sol\":9266:9278  hasUserLimit */\n      0x02\n        /* \"StackMining.sol\":9266:9294  hasUserLimit = _hasUserLimit */\n      dup1\n      sload\n      not(shl(0xa0, 0xff))\n      and\n      shl(0xa0, 0x01)\n      dup5\n      iszero\n      iszero\n      mul\n      or\n      swap1\n      sstore\n      0x00\n        /* \"StackMining.sol\":9309:9325  poolLimitPerUser */\n      0x07\n        /* \"StackMining.sol\":9309:9329  poolLimitPerUser = 0 */\n      sstore\n        /* \"StackMining.sol\":9075:9341  if (_hasUserLimit) {... */\n    tag_287:\n        /* \"StackMining.sol\":9356:9386  NewPoolLimit(poolLimitPerUser) */\n      0x241f67ee5f41b7a5cabf911367329be7215900f602ebfc47f89dce2a6bcd847c\n        /* \"StackMining.sol\":9369:9385  poolLimitPerUser */\n      sload(0x07)\n        /* \"StackMining.sol\":9356:9386  NewPoolLimit(poolLimitPerUser) */\n      mload(0x40)\n      tag_169\n      swap2\n        /* \"#utility.yul\":345:370   */\n      dup2\n      mstore\n        /* \"#utility.yul\":333:335   */\n      0x20\n        /* \"#utility.yul\":318:336   */\n      add\n      swap1\n        /* \"#utility.yul\":199:376   */\n      jump\n        /* \"StackMining.sol\":11677:11920  function getTotalShares()public view returns(uint256 totalShares){... */\n    tag_131:\n        /* \"StackMining.sol\":11722:11741  uint256 totalShares */\n      0x00\n      dup1\n        /* \"StackMining.sol\":11759:11913  for (uint256 pid = 0; pid < poolInfo.length; ++pid){... */\n    tag_290:\n        /* \"StackMining.sol\":11787:11795  poolInfo */\n      0x0c\n        /* \"StackMining.sol\":11787:11802  poolInfo.length */\n      sload\n        /* \"StackMining.sol\":11781:11802  pid < poolInfo.length */\n      dup2\n      lt\n        /* \"StackMining.sol\":11759:11913  for (uint256 pid = 0; pid < poolInfo.length; ++pid){... */\n      iszero\n      tag_291\n      jumpi\n        /* \"StackMining.sol\":11839:11901  totalShares.add(poolInfo[pid].amount.mul(poolInfo[pid].boost)) */\n      tag_293\n        /* \"StackMining.sol\":11855:11900  poolInfo[pid].amount.mul(poolInfo[pid].boost) */\n      tag_294\n        /* \"StackMining.sol\":11880:11888  poolInfo */\n      0x0c\n        /* \"StackMining.sol\":11889:11892  pid */\n      dup4\n        /* \"StackMining.sol\":11880:11893  poolInfo[pid] */\n      dup2\n      sload\n      dup2\n      lt\n      tag_296\n      jumpi\n      tag_296\n      tag_180\n      jump\t// in\n    tag_296:\n      swap1\n      0x00\n      mstore\n      keccak256(0x00, 0x20)\n      swap1\n      0x03\n      mul\n      add\n        /* \"StackMining.sol\":11880:11899  poolInfo[pid].boost */\n      0x01\n      add\n      sload\n        /* \"StackMining.sol\":11855:11863  poolInfo */\n      0x0c\n        /* \"StackMining.sol\":11864:11867  pid */\n      dup5\n        /* \"StackMining.sol\":11855:11868  poolInfo[pid] */\n      dup2\n      sload\n      dup2\n      lt\n      tag_299\n      jumpi\n      tag_299\n      tag_180\n      jump\t// in\n    tag_299:\n      swap1\n      0x00\n      mstore\n      keccak256(0x00, 0x20)\n      swap1\n      0x03\n      mul\n      add\n        /* \"StackMining.sol\":11855:11875  poolInfo[pid].amount */\n      0x02\n      add\n      sload\n        /* \"StackMining.sol\":11855:11879  poolInfo[pid].amount.mul */\n      tag_192\n      swap1\n        /* \"StackMining.sol\":11855:11900  poolInfo[pid].amount.mul(poolInfo[pid].boost) */\n      swap2\n      swap1\n      0xffffffff\n      and\n      jump\t// in\n    tag_294:\n        /* \"StackMining.sol\":11839:11850  totalShares */\n      dup4\n      swap1\n        /* \"StackMining.sol\":11839:11854  totalShares.add */\n      tag_183\n        /* \"StackMining.sol\":11839:11901  totalShares.add(poolInfo[pid].amount.mul(poolInfo[pid].boost)) */\n      jump\t// in\n    tag_293:\n        /* \"StackMining.sol\":11825:11901  totalShares = totalShares.add(poolInfo[pid].amount.mul(poolInfo[pid].boost)) */\n      swap2\n      pop\n        /* \"StackMining.sol\":11804:11809  ++pid */\n      tag_301\n      dup2\n      tag_302\n      jump\t// in\n    tag_301:\n      swap1\n      pop\n        /* \"StackMining.sol\":11759:11913  for (uint256 pid = 0; pid < poolInfo.length; ++pid){... */\n      jump(tag_290)\n    tag_291:\n      pop\n        /* \"StackMining.sol\":11677:11920  function getTotalShares()public view returns(uint256 totalShares){... */\n      swap1\n      jump\t// out\n        /* \"StackMining.sol\":4528:5777  function deposit(uint256 _pid,uint256 _amount) external nonReentrant {... */\n    tag_135:\n        /* \"@openzeppelin/contracts/security/ReentrancyGuard.sol\":2261:2282  _nonReentrantBefore() */\n      tag_304\n        /* \"@openzeppelin/contracts/security/ReentrancyGuard.sol\":2261:2280  _nonReentrantBefore */\n      tag_173\n        /* \"@openzeppelin/contracts/security/ReentrancyGuard.sol\":2261:2282  _nonReentrantBefore() */\n      jump\t// in\n    tag_304:\n        /* \"StackMining.sol\":4608:4629  UserInfo storage user */\n      0x00\n        /* \"StackMining.sol\":4632:4646  userInfo[_pid] */\n      dup3\n      dup2\n      mstore\n        /* \"StackMining.sol\":4632:4640  userInfo */\n      0x0d\n        /* \"StackMining.sol\":4632:4646  userInfo[_pid] */\n      0x20\n      swap1\n      dup2\n      mstore\n      0x40\n      dup1\n      dup4\n      keccak256\n        /* \"StackMining.sol\":4647:4657  msg.sender */\n      caller\n        /* \"StackMining.sol\":4632:4658  userInfo[_pid][msg.sender] */\n      dup5\n      mstore\n      swap1\n      swap2\n      mstore\n      dup2\n      keccak256\n        /* \"StackMining.sol\":4693:4701  poolInfo */\n      0x0c\n        /* \"StackMining.sol\":4693:4707  poolInfo[_pid] */\n      dup1\n      sload\n        /* \"StackMining.sol\":4632:4658  userInfo[_pid][msg.sender] */\n      swap2\n      swap3\n        /* \"StackMining.sol\":4608:4629  UserInfo storage user */\n      swap2\n        /* \"StackMining.sol\":4641:4645  _pid */\n      dup6\n      swap1\n        /* \"StackMining.sol\":4693:4707  poolInfo[_pid] */\n      dup2\n      lt\n      tag_307\n      jumpi\n      tag_307\n      tag_180\n      jump\t// in\n    tag_307:\n      swap1\n      0x00\n      mstore\n      keccak256(0x00, 0x20)\n      swap1\n      0x03\n      mul\n      add\n        /* \"StackMining.sol\":4669:4707  PoolInfo storage pool = poolInfo[_pid] */\n      swap1\n      pop\n        /* \"StackMining.sol\":4724:4736  hasUserLimit */\n      0x02\n      0x14\n      swap1\n      sload\n      swap1\n      0x0100\n      exp\n      swap1\n      div\n      0xff\n      and\n        /* \"StackMining.sol\":4720:4851  if (hasUserLimit) {... */\n      iszero\n      tag_311\n      jumpi\n        /* \"StackMining.sol\":4789:4805  poolLimitPerUser */\n      sload(0x07)\n        /* \"StackMining.sol\":4773:4784  user.amount */\n      dup3\n      sload\n        /* \"StackMining.sol\":4761:4785  _amount.add(user.amount) */\n      tag_310\n      swap1\n        /* \"StackMining.sol\":4761:4768  _amount */\n      dup6\n      swap1\n        /* \"StackMining.sol\":4761:4772  _amount.add */\n      tag_183\n        /* \"StackMining.sol\":4761:4785  _amount.add(user.amount) */\n      jump\t// in\n    tag_310:\n        /* \"StackMining.sol\":4761:4805  _amount.add(user.amount) <= poolLimitPerUser */\n      gt\n      iszero\n        /* \"StackMining.sol\":4753:4839  require(_amount.add(user.amount) <= poolLimitPerUser, \"BFLY: User amount above limit\") */\n      tag_311\n      jumpi\n      mload(0x40)\n      shl(0xe5, 0x461bcd)\n      dup2\n      mstore\n        /* \"#utility.yul\":10700:10702   */\n      0x20\n        /* \"StackMining.sol\":4753:4839  require(_amount.add(user.amount) <= poolLimitPerUser, \"BFLY: User amount above limit\") */\n      0x04\n      dup3\n      add\n        /* \"#utility.yul\":10682:10703   */\n      mstore\n        /* \"#utility.yul\":10739:10741   */\n      0x1d\n        /* \"#utility.yul\":10719:10737   */\n      0x24\n      dup3\n      add\n        /* \"#utility.yul\":10712:10742   */\n      mstore\n        /* \"#utility.yul\":10778:10809   */\n      0x42464c593a205573657220616d6f756e742061626f7665206c696d6974000000\n        /* \"#utility.yul\":10758:10776   */\n      0x44\n      dup3\n      add\n        /* \"#utility.yul\":10751:10810   */\n      mstore\n        /* \"#utility.yul\":10827:10845   */\n      0x64\n      add\n        /* \"StackMining.sol\":4753:4839  require(_amount.add(user.amount) <= poolLimitPerUser, \"BFLY: User amount above limit\") */\n      tag_148\n        /* \"#utility.yul\":10498:10851   */\n      jump\n        /* \"StackMining.sol\":4753:4839  require(_amount.add(user.amount) <= poolLimitPerUser, \"BFLY: User amount above limit\") */\n    tag_311:\n        /* \"StackMining.sol\":4863:4876  _updatePool() */\n      tag_314\n        /* \"StackMining.sol\":4863:4874  _updatePool */\n      tag_187\n        /* \"StackMining.sol\":4863:4876  _updatePool() */\n      jump\t// in\n    tag_314:\n        /* \"StackMining.sol\":4893:4904  user.amount */\n      dup2\n      sload\n        /* \"StackMining.sol\":4893:4908  user.amount > 0 */\n      iszero\n        /* \"StackMining.sol\":4889:5387  if (user.amount > 0) {... */\n      tag_315\n      jumpi\n        /* \"StackMining.sol\":4954:4967  pool.duration */\n      dup1\n      sload\n        /* \"StackMining.sol\":4931:4949  user.lockStartTime */\n      0x02\n      dup4\n      add\n      sload\n        /* \"StackMining.sol\":4971:4986  block.timestamp */\n      timestamp\n      swap2\n        /* \"StackMining.sol\":4931:4968  user.lockStartTime.add(pool.duration) */\n      tag_316\n      swap2\n        /* \"StackMining.sol\":4931:4949  user.lockStartTime */\n      swap1\n        /* \"StackMining.sol\":4931:4953  user.lockStartTime.add */\n      tag_183\n        /* \"StackMining.sol\":4931:4968  user.lockStartTime.add(pool.duration) */\n      jump\t// in\n    tag_316:\n        /* \"StackMining.sol\":4931:4986  user.lockStartTime.add(pool.duration) > block.timestamp */\n      gt\n        /* \"StackMining.sol\":4927:5248  if (user.lockStartTime.add(pool.duration) > block.timestamp){... */\n      iszero\n      tag_317\n      jumpi\n        /* \"StackMining.sol\":5006:5021  uint256 pending */\n      0x00\n        /* \"StackMining.sol\":5024:5100  user.amount.mul(accTokenPerShare).div(PRECISION_FACTOR).sub(user.rewardDebt) */\n      tag_318\n        /* \"StackMining.sol\":5084:5088  user */\n      dup4\n        /* \"StackMining.sol\":5084:5099  user.rewardDebt */\n      0x01\n      add\n      sload\n        /* \"StackMining.sol\":5024:5079  user.amount.mul(accTokenPerShare).div(PRECISION_FACTOR) */\n      tag_189\n        /* \"StackMining.sol\":5062:5078  PRECISION_FACTOR */\n      sload(0x09)\n        /* \"StackMining.sol\":5024:5057  user.amount.mul(accTokenPerShare) */\n      tag_190\n        /* \"StackMining.sol\":5040:5056  accTokenPerShare */\n      sload(0x03)\n        /* \"StackMining.sol\":5024:5028  user */\n      dup9\n        /* \"StackMining.sol\":5024:5035  user.amount */\n      0x00\n      add\n      sload\n        /* \"StackMining.sol\":5024:5039  user.amount.mul */\n      tag_192\n      swap1\n        /* \"StackMining.sol\":5024:5057  user.amount.mul(accTokenPerShare) */\n      swap2\n      swap1\n      0xffffffff\n      and\n      jump\t// in\n        /* \"StackMining.sol\":5024:5100  user.amount.mul(accTokenPerShare).div(PRECISION_FACTOR).sub(user.rewardDebt) */\n    tag_318:\n        /* \"StackMining.sol\":5006:5100  uint256 pending = user.amount.mul(accTokenPerShare).div(PRECISION_FACTOR).sub(user.rewardDebt) */\n      swap1\n      pop\n        /* \"StackMining.sol\":5123:5134  pending > 0 */\n      dup1\n      iszero\n        /* \"StackMining.sol\":5119:5233  if (pending > 0) {... */\n      tag_322\n      jumpi\n        /* \"StackMining.sol\":5159:5170  rewardToken */\n      sload(0x0a)\n        /* \"StackMining.sol\":5159:5213  rewardToken.safeTransfer(address(msg.sender), pending) */\n      tag_322\n      swap1\n      sub(shl(0xa0, 0x01), 0x01)\n        /* \"StackMining.sol\":5159:5170  rewardToken */\n      and\n        /* \"StackMining.sol\":5192:5202  msg.sender */\n      caller\n        /* \"StackMining.sol\":5205:5212  pending */\n      dup4\n        /* \"StackMining.sol\":5159:5183  rewardToken.safeTransfer */\n      tag_158\n        /* \"StackMining.sol\":5159:5213  rewardToken.safeTransfer(address(msg.sender), pending) */\n      jump\t// in\n    tag_322:\n        /* \"StackMining.sol\":4987:5248  {... */\n      pop\n        /* \"StackMining.sol\":4927:5248  if (user.lockStartTime.add(pool.duration) > block.timestamp){... */\n    tag_317:\n        /* \"StackMining.sol\":5360:5375  block.timestamp */\n      timestamp\n        /* \"StackMining.sol\":5339:5357  user.lockStartTime */\n      0x02\n      dup4\n      add\n        /* \"StackMining.sol\":5339:5375  user.lockStartTime = block.timestamp */\n      sstore\n        /* \"StackMining.sol\":4889:5387  if (user.amount > 0) {... */\n    tag_315:\n        /* \"StackMining.sol\":5403:5414  _amount > 0 */\n      dup3\n      iszero\n        /* \"StackMining.sol\":5399:5622  if (_amount > 0) {... */\n      tag_326\n      jumpi\n        /* \"StackMining.sol\":5445:5456  user.amount */\n      dup2\n      sload\n        /* \"StackMining.sol\":5445:5469  user.amount.add(_amount) */\n      tag_324\n      swap1\n        /* \"StackMining.sol\":5461:5468  _amount */\n      dup5\n        /* \"StackMining.sol\":5445:5460  user.amount.add */\n      tag_183\n        /* \"StackMining.sol\":5445:5469  user.amount.add(_amount) */\n      jump\t// in\n    tag_324:\n        /* \"StackMining.sol\":5431:5469  user.amount = user.amount.add(_amount) */\n      dup3\n      sstore\n        /* \"StackMining.sol\":5498:5509  pool.amount */\n      0x02\n      dup2\n      add\n      sload\n        /* \"StackMining.sol\":5498:5522  pool.amount.add(_amount) */\n      tag_325\n      swap1\n        /* \"StackMining.sol\":5514:5521  _amount */\n      dup5\n        /* \"StackMining.sol\":5498:5513  pool.amount.add */\n      tag_183\n        /* \"StackMining.sol\":5498:5522  pool.amount.add(_amount) */\n      jump\t// in\n    tag_325:\n        /* \"StackMining.sol\":5484:5495  pool.amount */\n      0x02\n      dup3\n      add\n        /* \"StackMining.sol\":5484:5522  pool.amount = pool.amount.add(_amount) */\n      sstore\n        /* \"StackMining.sol\":5537:5548  stakedToken */\n      sload(0x0b)\n        /* \"StackMining.sol\":5537:5610  stakedToken.safeTransferFrom(address(msg.sender), address(this), _amount) */\n      tag_326\n      swap1\n      sub(shl(0xa0, 0x01), 0x01)\n        /* \"StackMining.sol\":5537:5548  stakedToken */\n      and\n        /* \"StackMining.sol\":5574:5584  msg.sender */\n      caller\n        /* \"StackMining.sol\":5595:5599  this */\n      address\n        /* \"StackMining.sol\":5602:5609  _amount */\n      dup7\n        /* \"StackMining.sol\":5537:5565  stakedToken.safeTransferFrom */\n      tag_327\n        /* \"StackMining.sol\":5537:5610  stakedToken.safeTransferFrom(address(msg.sender), address(this), _amount) */\n      jump\t// in\n    tag_326:\n        /* \"StackMining.sol\":5652:5723  user.amount.mul(pool.boost).mul(accTokenPerShare).div(PRECISION_FACTOR) */\n      tag_328\n        /* \"StackMining.sol\":5706:5722  PRECISION_FACTOR */\n      sload(0x09)\n        /* \"StackMining.sol\":5652:5701  user.amount.mul(pool.boost).mul(accTokenPerShare) */\n      tag_190\n        /* \"StackMining.sol\":5684:5700  accTokenPerShare */\n      sload(0x03)\n        /* \"StackMining.sol\":5652:5679  user.amount.mul(pool.boost) */\n      tag_191\n        /* \"StackMining.sol\":5668:5672  pool */\n      dup6\n        /* \"StackMining.sol\":5668:5678  pool.boost */\n      0x01\n      add\n      sload\n        /* \"StackMining.sol\":5652:5656  user */\n      dup8\n        /* \"StackMining.sol\":5652:5663  user.amount */\n      0x00\n      add\n      sload\n        /* \"StackMining.sol\":5652:5667  user.amount.mul */\n      tag_192\n      swap1\n        /* \"StackMining.sol\":5652:5679  user.amount.mul(pool.boost) */\n      swap2\n      swap1\n      0xffffffff\n      and\n      jump\t// in\n        /* \"StackMining.sol\":5652:5723  user.amount.mul(pool.boost).mul(accTokenPerShare).div(PRECISION_FACTOR) */\n    tag_328:\n        /* \"StackMining.sol\":5634:5649  user.rewardDebt */\n      0x01\n      dup4\n      add\n        /* \"StackMining.sol\":5634:5723  user.rewardDebt = user.amount.mul(pool.boost).mul(accTokenPerShare).div(PRECISION_FACTOR) */\n      sstore\n        /* \"StackMining.sol\":5741:5769  Deposit(msg.sender, _amount) */\n      mload(0x40)\n        /* \"#utility.yul\":345:370   */\n      dup4\n      dup2\n      mstore\n        /* \"StackMining.sol\":5749:5759  msg.sender */\n      caller\n      swap1\n        /* \"StackMining.sol\":5741:5769  Deposit(msg.sender, _amount) */\n      0xe1fffcc4923d04b559f4d29a8bfc6cda04eb5b0d3c460751c2402c5c5cc9109c\n      swap1\n        /* \"#utility.yul\":333:335   */\n      0x20\n        /* \"#utility.yul\":318:336   */\n      add\n        /* \"StackMining.sol\":5741:5769  Deposit(msg.sender, _amount) */\n      mload(0x40)\n      dup1\n      swap2\n      sub\n      swap1\n      log2\n        /* \"StackMining.sol\":4597:5777  {... */\n      pop\n      pop\n        /* \"@openzeppelin/contracts/security/ReentrancyGuard.sol\":2303:2323  _nonReentrantAfter() */\n      tag_205\n        /* \"@openzeppelin/contracts/security/ReentrancyGuard.sol\":1716:1717  1 */\n      0x01\n        /* \"@openzeppelin/contracts/security/ReentrancyGuard.sol\":2809:2831  _status = _NOT_ENTERED */\n      dup1\n      sstore\n        /* \"@openzeppelin/contracts/security/ReentrancyGuard.sol\":2629:2838  function _nonReentrantAfter() private {... */\n      jump\n        /* \"@openzeppelin/contracts/access/Ownable.sol\":2081:2279  function transferOwnership(address newOwner) public virtual onlyOwner {... */\n    tag_139:\n        /* \"@openzeppelin/contracts/access/Ownable.sol\":1094:1107  _checkOwner() */\n      tag_334\n        /* \"@openzeppelin/contracts/access/Ownable.sol\":1094:1105  _checkOwner */\n      tag_145\n        /* \"@openzeppelin/contracts/access/Ownable.sol\":1094:1107  _checkOwner() */\n      jump\t// in\n    tag_334:\n      sub(shl(0xa0, 0x01), 0x01)\n        /* \"@openzeppelin/contracts/access/Ownable.sol\":2169:2191  newOwner != address(0) */\n      dup2\n      and\n        /* \"@openzeppelin/contracts/access/Ownable.sol\":2161:2234  require(newOwner != address(0), \"Ownable: new owner is the zero address\") */\n      tag_336\n      jumpi\n      mload(0x40)\n      shl(0xe5, 0x461bcd)\n      dup2\n      mstore\n        /* \"#utility.yul\":11058:11060   */\n      0x20\n        /* \"@openzeppelin/contracts/access/Ownable.sol\":2161:2234  require(newOwner != address(0), \"Ownable: new owner is the zero address\") */\n      0x04\n      dup3\n      add\n        /* \"#utility.yul\":11040:11061   */\n      mstore\n        /* \"#utility.yul\":11097:11099   */\n      0x26\n        /* \"#utility.yul\":11077:11095   */\n      0x24\n      dup3\n      add\n        /* \"#utility.yul\":11070:11100   */\n      mstore\n        /* \"#utility.yul\":11136:11170   */\n      0x4f776e61626c653a206e6577206f776e657220697320746865207a65726f2061\n        /* \"#utility.yul\":11116:11134   */\n      0x44\n      dup3\n      add\n        /* \"#utility.yul\":11109:11171   */\n      mstore\n      shl(0xd0, 0x646472657373)\n        /* \"#utility.yul\":11187:11205   */\n      0x64\n      dup3\n      add\n        /* \"#utility.yul\":11180:11216   */\n      mstore\n        /* \"#utility.yul\":11233:11252   */\n      0x84\n      add\n        /* \"@openzeppelin/contracts/access/Ownable.sol\":2161:2234  require(newOwner != address(0), \"Ownable: new owner is the zero address\") */\n      tag_148\n        /* \"#utility.yul\":10856:11258   */\n      jump\n        /* \"@openzeppelin/contracts/access/Ownable.sol\":2161:2234  require(newOwner != address(0), \"Ownable: new owner is the zero address\") */\n    tag_336:\n        /* \"@openzeppelin/contracts/access/Ownable.sol\":2244:2272  _transferOwnership(newOwner) */\n      tag_157\n        /* \"@openzeppelin/contracts/access/Ownable.sol\":2263:2271  newOwner */\n      dup2\n        /* \"@openzeppelin/contracts/access/Ownable.sol\":2244:2262  _transferOwnership */\n      tag_218\n        /* \"@openzeppelin/contracts/access/Ownable.sol\":2244:2272  _transferOwnership(newOwner) */\n      jump\t// in\n        /* \"@openzeppelin/contracts/access/Ownable.sol\":1359:1489  function _checkOwner() internal view virtual {... */\n    tag_145:\n        /* \"@openzeppelin/contracts/access/Ownable.sol\":1247:1254  address */\n      0x00\n        /* \"@openzeppelin/contracts/access/Ownable.sol\":1273:1279  _owner */\n      sload\n      sub(shl(0xa0, 0x01), 0x01)\n      and\n        /* \"@openzeppelin/contracts/utils/Context.sol\":719:729  msg.sender */\n      caller\n        /* \"@openzeppelin/contracts/access/Ownable.sol\":1422:1445  owner() == _msgSender() */\n      eq\n        /* \"@openzeppelin/contracts/access/Ownable.sol\":1414:1482  require(owner() == _msgSender(), \"Ownable: caller is not the owner\") */\n      tag_217\n      jumpi\n      mload(0x40)\n      shl(0xe5, 0x461bcd)\n      dup2\n      mstore\n        /* \"#utility.yul\":11465:11467   */\n      0x20\n        /* \"@openzeppelin/contracts/access/Ownable.sol\":1414:1482  require(owner() == _msgSender(), \"Ownable: caller is not the owner\") */\n      0x04\n      dup3\n      add\n        /* \"#utility.yul\":11447:11468   */\n      dup2\n      swap1\n      mstore\n        /* \"#utility.yul\":11484:11502   */\n      0x24\n      dup3\n      add\n        /* \"#utility.yul\":11477:11507   */\n      mstore\n        /* \"#utility.yul\":11543:11577   */\n      0x4f776e61626c653a2063616c6c6572206973206e6f7420746865206f776e6572\n        /* \"#utility.yul\":11523:11541   */\n      0x44\n      dup3\n      add\n        /* \"#utility.yul\":11516:11578   */\n      mstore\n        /* \"#utility.yul\":11595:11613   */\n      0x64\n      add\n        /* \"@openzeppelin/contracts/access/Ownable.sol\":1414:1482  require(owner() == _msgSender(), \"Ownable: caller is not the owner\") */\n      tag_148\n        /* \"#utility.yul\":11263:11619   */\n      jump\n        /* \"libraries/SafeBEP20.sol\":771:982  function safeTransfer(... */\n    tag_158:\n        /* \"libraries/SafeBEP20.sol\":915:973  abi.encodeWithSelector(token.transfer.selector, to, value) */\n      mload(0x40)\n      sub(shl(0xa0, 0x01), 0x01)\n        /* \"#utility.yul\":5125:5157   */\n      dup4\n      and\n        /* \"libraries/SafeBEP20.sol\":915:973  abi.encodeWithSelector(token.transfer.selector, to, value) */\n      0x24\n      dup3\n      add\n        /* \"#utility.yul\":5107:5158   */\n      mstore\n        /* \"#utility.yul\":5174:5192   */\n      0x44\n      dup2\n      add\n        /* \"#utility.yul\":5167:5201   */\n      dup3\n      swap1\n      mstore\n        /* \"libraries/SafeBEP20.sol\":888:974  _callOptionalReturn(token, abi.encodeWithSelector(token.transfer.selector, to, value)) */\n      tag_348\n      swap1\n        /* \"libraries/SafeBEP20.sol\":908:913  token */\n      dup5\n      swap1\n      shl(0xe0, 0xa9059cbb)\n        /* \"libraries/SafeBEP20.sol\":938:961  token.transfer.selector */\n      swap1\n        /* \"#utility.yul\":5080:5098   */\n      0x64\n      add\n        /* \"libraries/SafeBEP20.sol\":915:973  abi.encodeWithSelector(token.transfer.selector, to, value) */\n    tag_349:\n      0x40\n      dup1\n      mload\n      not(0x1f)\n      dup2\n      dup5\n      sub\n      add\n      dup2\n      mstore\n      swap2\n      swap1\n      mstore\n      0x20\n      dup2\n      add\n      dup1\n      mload\n      sub(shl(0xe0, 0x01), 0x01)\n      and\n      not(sub(shl(0xe0, 0x01), 0x01))\n      swap1\n      swap4\n      and\n      swap3\n      swap1\n      swap3\n      or\n      swap1\n      swap2\n      mstore\n        /* \"libraries/SafeBEP20.sol\":888:907  _callOptionalReturn */\n      tag_350\n        /* \"libraries/SafeBEP20.sol\":888:974  _callOptionalReturn(token, abi.encodeWithSelector(token.transfer.selector, to, value)) */\n      jump\t// in\n    tag_348:\n        /* \"libraries/SafeBEP20.sol\":771:982  function safeTransfer(... */\n      pop\n      pop\n      pop\n      jump\t// out\n        /* \"@openzeppelin/contracts/security/ReentrancyGuard.sol\":2336:2623  function _nonReentrantBefore() private {... */\n    tag_173:\n        /* \"@openzeppelin/contracts/security/ReentrancyGuard.sol\":1759:1760  2 */\n      0x02\n        /* \"@openzeppelin/contracts/security/ReentrancyGuard.sol\":2468:2475  _status */\n      sload(0x01)\n        /* \"@openzeppelin/contracts/security/ReentrancyGuard.sol\":2468:2487  _status != _ENTERED */\n      sub\n        /* \"@openzeppelin/contracts/security/ReentrancyGuard.sol\":2460:2523  require(_status != _ENTERED, \"ReentrancyGuard: reentrant call\") */\n      tag_352\n      jumpi\n      mload(0x40)\n      shl(0xe5, 0x461bcd)\n      dup2\n      mstore\n        /* \"#utility.yul\":11826:11828   */\n      0x20\n        /* \"@openzeppelin/contracts/security/ReentrancyGuard.sol\":2460:2523  require(_status != _ENTERED, \"ReentrancyGuard: reentrant call\") */\n      0x04\n      dup3\n      add\n        /* \"#utility.yul\":11808:11829   */\n      mstore\n        /* \"#utility.yul\":11865:11867   */\n      0x1f\n        /* \"#utility.yul\":11845:11863   */\n      0x24\n      dup3\n      add\n        /* \"#utility.yul\":11838:11868   */\n      mstore\n        /* \"#utility.yul\":11904:11937   */\n      0x5265656e7472616e637947756172643a207265656e7472616e742063616c6c00\n        /* \"#utility.yul\":11884:11902   */\n      0x44\n      dup3\n      add\n        /* \"#utility.yul\":11877:11938   */\n      mstore\n        /* \"#utility.yul\":11955:11973   */\n      0x64\n      add\n        /* \"@openzeppelin/contracts/security/ReentrancyGuard.sol\":2460:2523  require(_status != _ENTERED, \"ReentrancyGuard: reentrant call\") */\n      tag_148\n        /* \"#utility.yul\":11624:11979   */\n      jump\n        /* \"@openzeppelin/contracts/security/ReentrancyGuard.sol\":2460:2523  require(_status != _ENTERED, \"ReentrancyGuard: reentrant call\") */\n    tag_352:\n        /* \"@openzeppelin/contracts/security/ReentrancyGuard.sol\":1759:1760  2 */\n      0x02\n        /* \"@openzeppelin/contracts/security/ReentrancyGuard.sol\":2598:2605  _status */\n      0x01\n        /* \"@openzeppelin/contracts/security/ReentrancyGuard.sol\":2598:2616  _status = _ENTERED */\n      sstore\n        /* \"@openzeppelin/contracts/security/ReentrancyGuard.sol\":2336:2623  function _nonReentrantBefore() private {... */\n      jump\t// out\n        /* \"@openzeppelin/contracts/utils/math/SafeMath.sol\":2755:2851  function add(uint256 a, uint256 b) internal pure returns (uint256) {... */\n    tag_183:\n        /* \"@openzeppelin/contracts/utils/math/SafeMath.sol\":2813:2820  uint256 */\n      0x00\n        /* \"@openzeppelin/contracts/utils/math/SafeMath.sol\":2839:2844  a + b */\n      tag_356\n        /* \"@openzeppelin/contracts/utils/math/SafeMath.sol\":2843:2844  b */\n      dup3\n        /* \"@openzeppelin/contracts/utils/math/SafeMath.sol\":2839:2840  a */\n      dup5\n        /* \"@openzeppelin/contracts/utils/math/SafeMath.sol\":2839:2844  a + b */\n      tag_357\n      jump\t// in\n    tag_356:\n        /* \"@openzeppelin/contracts/utils/math/SafeMath.sol\":2832:2844  return a + b */\n      swap4\n        /* \"@openzeppelin/contracts/utils/math/SafeMath.sol\":2755:2851  function add(uint256 a, uint256 b) internal pure returns (uint256) {... */\n      swap3\n      pop\n      pop\n      pop\n      jump\t// out\n        /* \"StackMining.sol\":12021:12918  function _updatePool() internal {... */\n    tag_187:\n        /* \"StackMining.sol\":12084:12099  lastRewardBlock */\n      sload(0x06)\n        /* \"StackMining.sol\":12068:12080  block.number */\n      number\n        /* \"StackMining.sol\":12068:12099  block.number <= lastRewardBlock */\n      gt\n        /* \"StackMining.sol\":12064:12134  if (block.number <= lastRewardBlock) {... */\n      tag_359\n      jumpi\n        /* \"StackMining.sol\":12021:12918  function _updatePool() internal {... */\n      jump\t// out\n        /* \"StackMining.sol\":12064:12134  if (block.number <= lastRewardBlock) {... */\n    tag_359:\n        /* \"StackMining.sol\":12224:12243  uint256 totalShares */\n      0x00\n        /* \"StackMining.sol\":12246:12262  getTotalShares() */\n      tag_360\n        /* \"StackMining.sol\":12246:12260  getTotalShares */\n      tag_131\n        /* \"StackMining.sol\":12246:12262  getTotalShares() */\n      jump\t// in\n    tag_360:\n        /* \"StackMining.sol\":12224:12262  uint256 totalShares = getTotalShares() */\n      swap1\n      pop\n        /* \"StackMining.sol\":12532:12543  totalShares */\n      dup1\n        /* \"StackMining.sol\":12547:12548  0 */\n      0x00\n        /* \"StackMining.sol\":12532:12548  totalShares == 0 */\n      sub\n        /* \"StackMining.sol\":12528:12628  if (totalShares == 0) {... */\n      tag_361\n      jumpi\n      pop\n        /* \"StackMining.sol\":12583:12595  block.number */\n      number\n        /* \"StackMining.sol\":12565:12580  lastRewardBlock */\n      0x06\n        /* \"StackMining.sol\":12565:12595  lastRewardBlock = block.number */\n      sstore\n        /* \"StackMining.sol\":12021:12918  function _updatePool() internal {... */\n      jump\t// out\n        /* \"StackMining.sol\":12528:12628  if (totalShares == 0) {... */\n    tag_361:\n        /* \"StackMining.sol\":12640:12658  uint256 multiplier */\n      0x00\n        /* \"StackMining.sol\":12661:12706  _getMultiplier(lastRewardBlock, block.number) */\n      tag_362\n        /* \"StackMining.sol\":12676:12691  lastRewardBlock */\n      sload(0x06)\n        /* \"StackMining.sol\":12693:12705  block.number */\n      number\n        /* \"StackMining.sol\":12661:12675  _getMultiplier */\n      tag_263\n        /* \"StackMining.sol\":12661:12706  _getMultiplier(lastRewardBlock, block.number) */\n      jump\t// in\n    tag_362:\n        /* \"StackMining.sol\":12640:12706  uint256 multiplier = _getMultiplier(lastRewardBlock, block.number) */\n      swap1\n      pop\n        /* \"StackMining.sol\":12717:12735  uint256 cakeReward */\n      0x00\n        /* \"StackMining.sol\":12738:12768  multiplier.mul(rewardPerBlock) */\n      tag_363\n        /* \"StackMining.sol\":12753:12767  rewardPerBlock */\n      sload(0x08)\n        /* \"StackMining.sol\":12738:12748  multiplier */\n      dup4\n        /* \"StackMining.sol\":12738:12752  multiplier.mul */\n      tag_192\n      swap1\n        /* \"StackMining.sol\":12738:12768  multiplier.mul(rewardPerBlock) */\n      swap2\n      swap1\n      0xffffffff\n      and\n      jump\t// in\n    tag_363:\n        /* \"StackMining.sol\":12717:12768  uint256 cakeReward = multiplier.mul(rewardPerBlock) */\n      swap1\n      pop\n        /* \"StackMining.sol\":12798:12869  accTokenPerShare.add(cakeReward.mul(PRECISION_FACTOR).div(totalShares)) */\n      tag_364\n        /* \"StackMining.sol\":12819:12868  cakeReward.mul(PRECISION_FACTOR).div(totalShares) */\n      tag_266\n        /* \"StackMining.sol\":12856:12867  totalShares */\n      dup5\n        /* \"StackMining.sol\":12819:12851  cakeReward.mul(PRECISION_FACTOR) */\n      tag_190\n        /* \"StackMining.sol\":12834:12850  PRECISION_FACTOR */\n      sload(0x09)\n        /* \"StackMining.sol\":12819:12829  cakeReward */\n      dup6\n        /* \"StackMining.sol\":12819:12833  cakeReward.mul */\n      tag_192\n      swap1\n        /* \"StackMining.sol\":12819:12851  cakeReward.mul(PRECISION_FACTOR) */\n      swap2\n      swap1\n      0xffffffff\n      and\n      jump\t// in\n        /* \"StackMining.sol\":12798:12869  accTokenPerShare.add(cakeReward.mul(PRECISION_FACTOR).div(totalShares)) */\n    tag_364:\n        /* \"StackMining.sol\":12779:12795  accTokenPerShare */\n      0x03\n        /* \"StackMining.sol\":12779:12869  accTokenPerShare = accTokenPerShare.add(cakeReward.mul(PRECISION_FACTOR).div(totalShares)) */\n      sstore\n      pop\n      pop\n        /* \"StackMining.sol\":12898:12910  block.number */\n      number\n        /* \"StackMining.sol\":12880:12895  lastRewardBlock */\n      0x06\n        /* \"StackMining.sol\":12880:12910  lastRewardBlock = block.number */\n      sstore\n      pop\n        /* \"StackMining.sol\":12021:12918  function _updatePool() internal {... */\n      jump\t// out\n        /* \"@openzeppelin/contracts/utils/math/SafeMath.sol\":3465:3561  function mul(uint256 a, uint256 b) internal pure returns (uint256) {... */\n    tag_192:\n        /* \"@openzeppelin/contracts/utils/math/SafeMath.sol\":3523:3530  uint256 */\n      0x00\n        /* \"@openzeppelin/contracts/utils/math/SafeMath.sol\":3549:3554  a * b */\n      tag_356\n        /* \"@openzeppelin/contracts/utils/math/SafeMath.sol\":3553:3554  b */\n      dup3\n        /* \"@openzeppelin/contracts/utils/math/SafeMath.sol\":3549:3550  a */\n      dup5\n        /* \"@openzeppelin/contracts/utils/math/SafeMath.sol\":3549:3554  a * b */\n      tag_369\n      jump\t// in\n        /* \"@openzeppelin/contracts/utils/math/SafeMath.sol\":3850:3946  function div(uint256 a, uint256 b) internal pure returns (uint256) {... */\n    tag_193:\n        /* \"@openzeppelin/contracts/utils/math/SafeMath.sol\":3908:3915  uint256 */\n      0x00\n        /* \"@openzeppelin/contracts/utils/math/SafeMath.sol\":3934:3939  a / b */\n      tag_356\n        /* \"@openzeppelin/contracts/utils/math/SafeMath.sol\":3938:3939  b */\n      dup3\n        /* \"@openzeppelin/contracts/utils/math/SafeMath.sol\":3934:3935  a */\n      dup5\n        /* \"@openzeppelin/contracts/utils/math/SafeMath.sol\":3934:3939  a / b */\n      tag_372\n      jump\t// in\n        /* \"@openzeppelin/contracts/utils/math/SafeMath.sol\":3122:3218  function sub(uint256 a, uint256 b) internal pure returns (uint256) {... */\n    tag_194:\n        /* \"@openzeppelin/contracts/utils/math/SafeMath.sol\":3180:3187  uint256 */\n      0x00\n        /* \"@openzeppelin/contracts/utils/math/SafeMath.sol\":3206:3211  a - b */\n      tag_356\n        /* \"@openzeppelin/contracts/utils/math/SafeMath.sol\":3210:3211  b */\n      dup3\n        /* \"@openzeppelin/contracts/utils/math/SafeMath.sol\":3206:3207  a */\n      dup5\n        /* \"@openzeppelin/contracts/utils/math/SafeMath.sol\":3206:3211  a - b */\n      tag_375\n      jump\t// in\n        /* \"@openzeppelin/contracts/access/Ownable.sol\":2433:2620  function _transferOwnership(address newOwner) internal virtual {... */\n    tag_218:\n        /* \"@openzeppelin/contracts/access/Ownable.sol\":2506:2522  address oldOwner */\n      0x00\n        /* \"@openzeppelin/contracts/access/Ownable.sol\":2525:2531  _owner */\n      dup1\n      sload\n      sub(shl(0xa0, 0x01), 0x01)\n        /* \"@openzeppelin/contracts/access/Ownable.sol\":2541:2558  _owner = newOwner */\n      dup4\n      dup2\n      and\n      not(sub(shl(0xa0, 0x01), 0x01))\n      dup4\n      and\n      dup2\n      or\n      dup5\n      sstore\n        /* \"@openzeppelin/contracts/access/Ownable.sol\":2573:2613  OwnershipTransferred(oldOwner, newOwner) */\n      mload(0x40)\n        /* \"@openzeppelin/contracts/access/Ownable.sol\":2525:2531  _owner */\n      swap2\n      swap1\n      swap3\n      and\n      swap3\n      dup4\n      swap2\n        /* \"@openzeppelin/contracts/access/Ownable.sol\":2573:2613  OwnershipTransferred(oldOwner, newOwner) */\n      0x8be0079c531659141344cd1fd0a4f28419497f9722a3daafe3b4186f6b6457e0\n      swap2\n        /* \"@openzeppelin/contracts/access/Ownable.sol\":2506:2522  address oldOwner */\n      swap1\n        /* \"@openzeppelin/contracts/access/Ownable.sol\":2573:2613  OwnershipTransferred(oldOwner, newOwner) */\n      log3\n        /* \"@openzeppelin/contracts/access/Ownable.sol\":2496:2620  {... */\n      pop\n        /* \"@openzeppelin/contracts/access/Ownable.sol\":2433:2620  function _transferOwnership(address newOwner) internal virtual {... */\n      pop\n      jump\t// out\n        /* \"StackMining.sol\":13195:13504  function _getMultiplier(uint256 _from, uint256 _to) internal view returns (uint256) {... */\n    tag_263:\n        /* \"StackMining.sol\":13270:13277  uint256 */\n      0x00\n        /* \"StackMining.sol\":13301:13314  bonusEndBlock */\n      sload(0x04)\n        /* \"StackMining.sol\":13294:13297  _to */\n      dup3\n        /* \"StackMining.sol\":13294:13314  _to <= bonusEndBlock */\n      gt\n        /* \"StackMining.sol\":13290:13497  if (_to <= bonusEndBlock) {... */\n      tag_379\n      jumpi\n        /* \"StackMining.sol\":13338:13352  _to.sub(_from) */\n      tag_380\n        /* \"StackMining.sol\":13338:13341  _to */\n      dup3\n        /* \"StackMining.sol\":13346:13351  _from */\n      dup5\n        /* \"StackMining.sol\":13338:13345  _to.sub */\n      tag_194\n        /* \"StackMining.sol\":13338:13352  _to.sub(_from) */\n      jump\t// in\n    tag_380:\n        /* \"StackMining.sol\":13331:13352  return _to.sub(_from) */\n      swap1\n      pop\n      jump(tag_255)\n        /* \"StackMining.sol\":13290:13497  if (_to <= bonusEndBlock) {... */\n    tag_379:\n        /* \"StackMining.sol\":13383:13396  bonusEndBlock */\n      sload(0x04)\n        /* \"StackMining.sol\":13374:13379  _from */\n      dup4\n        /* \"StackMining.sol\":13374:13396  _from >= bonusEndBlock */\n      lt\n        /* \"StackMining.sol\":13370:13497  if (_from >= bonusEndBlock) {... */\n      tag_382\n      jumpi\n      pop\n        /* \"StackMining.sol\":13420:13421  0 */\n      0x00\n        /* \"StackMining.sol\":13413:13421  return 0 */\n      jump(tag_255)\n        /* \"StackMining.sol\":13370:13497  if (_from >= bonusEndBlock) {... */\n    tag_382:\n        /* \"StackMining.sol\":13461:13474  bonusEndBlock */\n      sload(0x04)\n        /* \"StackMining.sol\":13461:13485  bonusEndBlock.sub(_from) */\n      tag_380\n      swap1\n        /* \"StackMining.sol\":13479:13484  _from */\n      dup5\n        /* \"StackMining.sol\":13461:13478  bonusEndBlock.sub */\n      tag_194\n        /* \"StackMining.sol\":13461:13485  bonusEndBlock.sub(_from) */\n      jump\t// in\n        /* \"libraries/SafeBEP20.sol\":990:1238  function safeTransferFrom(... */\n    tag_327:\n        /* \"libraries/SafeBEP20.sol\":1161:1229  abi.encodeWithSelector(token.transferFrom.selector, from, to, value) */\n      mload(0x40)\n      sub(shl(0xa0, 0x01), 0x01)\n        /* \"#utility.yul\":12900:12915   */\n      dup1\n      dup6\n      and\n        /* \"libraries/SafeBEP20.sol\":1161:1229  abi.encodeWithSelector(token.transferFrom.selector, from, to, value) */\n      0x24\n      dup4\n      add\n        /* \"#utility.yul\":12882:12916   */\n      mstore\n        /* \"#utility.yul\":12952:12967   */\n      dup4\n      and\n        /* \"#utility.yul\":12932:12950   */\n      0x44\n      dup3\n      add\n        /* \"#utility.yul\":12925:12968   */\n      mstore\n        /* \"#utility.yul\":12984:13002   */\n      0x64\n      dup2\n      add\n        /* \"#utility.yul\":12977:13011   */\n      dup3\n      swap1\n      mstore\n        /* \"libraries/SafeBEP20.sol\":1134:1230  _callOptionalReturn(token, abi.encodeWithSelector(token.transferFrom.selector, from, to, value)) */\n      tag_386\n      swap1\n        /* \"libraries/SafeBEP20.sol\":1154:1159  token */\n      dup6\n      swap1\n      shl(0xe0, 0x23b872dd)\n        /* \"libraries/SafeBEP20.sol\":1184:1211  token.transferFrom.selector */\n      swap1\n        /* \"#utility.yul\":12817:12835   */\n      0x84\n      add\n        /* \"libraries/SafeBEP20.sol\":1161:1229  abi.encodeWithSelector(token.transferFrom.selector, from, to, value) */\n      tag_349\n        /* \"#utility.yul\":12642:13017   */\n      jump\n        /* \"libraries/SafeBEP20.sol\":1134:1230  _callOptionalReturn(token, abi.encodeWithSelector(token.transferFrom.selector, from, to, value)) */\n    tag_386:\n        /* \"libraries/SafeBEP20.sol\":990:1238  function safeTransferFrom(... */\n      pop\n      pop\n      pop\n      pop\n      jump\t// out\n        /* \"libraries/SafeBEP20.sol\":3282:4056  function _callOptionalReturn(IBEP20 token, bytes memory data) private {... */\n    tag_350:\n        /* \"libraries/SafeBEP20.sol\":3706:3729  bytes memory returndata */\n      0x00\n        /* \"libraries/SafeBEP20.sol\":3732:3801  address(token).functionCall(data, \"SafeBEP20: low-level call failed\") */\n      tag_391\n        /* \"libraries/SafeBEP20.sol\":3760:3764  data */\n      dup3\n        /* \"libraries/SafeBEP20.sol\":3732:3801  address(token).functionCall(data, \"SafeBEP20: low-level call failed\") */\n      mload(0x40)\n      dup1\n      0x40\n      add\n      0x40\n      mstore\n      dup1\n      0x20\n      dup2\n      mstore\n      0x20\n      add\n      0x5361666542455032303a206c6f772d6c6576656c2063616c6c206661696c6564\n      dup2\n      mstore\n      pop\n        /* \"libraries/SafeBEP20.sol\":3740:3745  token */\n      dup6\n      sub(shl(0xa0, 0x01), 0x01)\n        /* \"libraries/SafeBEP20.sol\":3732:3759  address(token).functionCall */\n      and\n      tag_392\n      swap1\n        /* \"libraries/SafeBEP20.sol\":3732:3801  address(token).functionCall(data, \"SafeBEP20: low-level call failed\") */\n      swap3\n      swap2\n      swap1\n      0xffffffff\n      and\n      jump\t// in\n    tag_391:\n        /* \"libraries/SafeBEP20.sol\":3816:3833  returndata.length */\n      dup1\n      mload\n        /* \"libraries/SafeBEP20.sol\":3706:3801  bytes memory returndata = address(token).functionCall(data, \"SafeBEP20: low-level call failed\") */\n      swap1\n      swap2\n      pop\n        /* \"libraries/SafeBEP20.sol\":3816:3837  returndata.length > 0 */\n      iszero\n        /* \"libraries/SafeBEP20.sol\":3812:4049  if (returndata.length > 0) {... */\n      tag_348\n      jumpi\n        /* \"libraries/SafeBEP20.sol\":3971:3981  returndata */\n      dup1\n        /* \"libraries/SafeBEP20.sol\":3960:3990  abi.decode(returndata, (bool)) */\n      dup1\n      0x20\n      add\n      swap1\n      mload\n      dup2\n      add\n      swap1\n      tag_394\n      swap2\n      swap1\n      tag_395\n      jump\t// in\n    tag_394:\n        /* \"libraries/SafeBEP20.sol\":3952:4037  require(abi.decode(returndata, (bool)), \"SafeBEP20: BEP20 operation did not succeed\") */\n      tag_348\n      jumpi\n      mload(0x40)\n      shl(0xe5, 0x461bcd)\n      dup2\n      mstore\n        /* \"#utility.yul\":13474:13476   */\n      0x20\n        /* \"libraries/SafeBEP20.sol\":3952:4037  require(abi.decode(returndata, (bool)), \"SafeBEP20: BEP20 operation did not succeed\") */\n      0x04\n      dup3\n      add\n        /* \"#utility.yul\":13456:13477   */\n      mstore\n        /* \"#utility.yul\":13513:13515   */\n      0x2a\n        /* \"#utility.yul\":13493:13511   */\n      0x24\n      dup3\n      add\n        /* \"#utility.yul\":13486:13516   */\n      mstore\n        /* \"#utility.yul\":13552:13586   */\n      0x5361666542455032303a204245503230206f7065726174696f6e20646964206e\n        /* \"#utility.yul\":13532:13550   */\n      0x44\n      dup3\n      add\n        /* \"#utility.yul\":13525:13587   */\n      mstore\n      shl(0xb2, 0x1bdd081cdd58d8d95959)\n        /* \"#utility.yul\":13603:13621   */\n      0x64\n      dup3\n      add\n        /* \"#utility.yul\":13596:13636   */\n      mstore\n        /* \"#utility.yul\":13653:13672   */\n      0x84\n      add\n        /* \"libraries/SafeBEP20.sol\":3952:4037  require(abi.decode(returndata, (bool)), \"SafeBEP20: BEP20 operation did not succeed\") */\n      tag_148\n        /* \"#utility.yul\":13272:13678   */\n      jump\n        /* \"@openzeppelin/contracts/utils/Address.sol\":3873:4096  function functionCall(... */\n    tag_392:\n        /* \"@openzeppelin/contracts/utils/Address.sol\":4006:4018  bytes memory */\n      0x60\n        /* \"@openzeppelin/contracts/utils/Address.sol\":4037:4089  functionCallWithValue(target, data, 0, errorMessage) */\n      tag_400\n        /* \"@openzeppelin/contracts/utils/Address.sol\":4059:4065  target */\n      dup5\n        /* \"@openzeppelin/contracts/utils/Address.sol\":4067:4071  data */\n      dup5\n        /* \"@openzeppelin/contracts/utils/Address.sol\":4073:4074  0 */\n      0x00\n        /* \"@openzeppelin/contracts/utils/Address.sol\":4076:4088  errorMessage */\n      dup6\n        /* \"@openzeppelin/contracts/utils/Address.sol\":4037:4058  functionCallWithValue */\n      tag_401\n        /* \"@openzeppelin/contracts/utils/Address.sol\":4037:4089  functionCallWithValue(target, data, 0, errorMessage) */\n      jump\t// in\n    tag_400:\n        /* \"@openzeppelin/contracts/utils/Address.sol\":4030:4089  return functionCallWithValue(target, data, 0, errorMessage) */\n      swap5\n        /* \"@openzeppelin/contracts/utils/Address.sol\":3873:4096  function functionCall(... */\n      swap4\n      pop\n      pop\n      pop\n      pop\n      jump\t// out\n        /* \"@openzeppelin/contracts/utils/Address.sol\":4960:5406  function functionCallWithValue(... */\n    tag_401:\n        /* \"@openzeppelin/contracts/utils/Address.sol\":5125:5137  bytes memory */\n      0x60\n        /* \"@openzeppelin/contracts/utils/Address.sol\":5182:5187  value */\n      dup3\n        /* \"@openzeppelin/contracts/utils/Address.sol\":5157:5178  address(this).balance */\n      selfbalance\n        /* \"@openzeppelin/contracts/utils/Address.sol\":5157:5187  address(this).balance >= value */\n      lt\n      iszero\n        /* \"@openzeppelin/contracts/utils/Address.sol\":5149:5230  require(address(this).balance >= value, \"Address: insufficient balance for call\") */\n      tag_403\n      jumpi\n      mload(0x40)\n      shl(0xe5, 0x461bcd)\n      dup2\n      mstore\n        /* \"#utility.yul\":13885:13887   */\n      0x20\n        /* \"@openzeppelin/contracts/utils/Address.sol\":5149:5230  require(address(this).balance >= value, \"Address: insufficient balance for call\") */\n      0x04\n      dup3\n      add\n        /* \"#utility.yul\":13867:13888   */\n      mstore\n        /* \"#utility.yul\":13924:13926   */\n      0x26\n        /* \"#utility.yul\":13904:13922   */\n      0x24\n      dup3\n      add\n        /* \"#utility.yul\":13897:13927   */\n      mstore\n        /* \"#utility.yul\":13963:13997   */\n      0x416464726573733a20696e73756666696369656e742062616c616e636520666f\n        /* \"#utility.yul\":13943:13961   */\n      0x44\n      dup3\n      add\n        /* \"#utility.yul\":13936:13998   */\n      mstore\n      shl(0xd2, 0x1c8818d85b1b)\n        /* \"#utility.yul\":14014:14032   */\n      0x64\n      dup3\n      add\n        /* \"#utility.yul\":14007:14043   */\n      mstore\n        /* \"#utility.yul\":14060:14079   */\n      0x84\n      add\n        /* \"@openzeppelin/contracts/utils/Address.sol\":5149:5230  require(address(this).balance >= value, \"Address: insufficient balance for call\") */\n      tag_148\n        /* \"#utility.yul\":13683:14085   */\n      jump\n        /* \"@openzeppelin/contracts/utils/Address.sol\":5149:5230  require(address(this).balance >= value, \"Address: insufficient balance for call\") */\n    tag_403:\n        /* \"@openzeppelin/contracts/utils/Address.sol\":5241:5253  bool success */\n      0x00\n        /* \"@openzeppelin/contracts/utils/Address.sol\":5255:5278  bytes memory returndata */\n      dup1\n        /* \"@openzeppelin/contracts/utils/Address.sol\":5282:5288  target */\n      dup7\n      sub(shl(0xa0, 0x01), 0x01)\n        /* \"@openzeppelin/contracts/utils/Address.sol\":5282:5293  target.call */\n      and\n        /* \"@openzeppelin/contracts/utils/Address.sol\":5301:5306  value */\n      dup6\n        /* \"@openzeppelin/contracts/utils/Address.sol\":5308:5312  data */\n      dup8\n        /* \"@openzeppelin/contracts/utils/Address.sol\":5282:5313  target.call{value: value}(data) */\n      mload(0x40)\n      tag_406\n      swap2\n      swap1\n      tag_407\n      jump\t// in\n    tag_406:\n      0x00\n      mload(0x40)\n      dup1\n      dup4\n      sub\n      dup2\n      dup6\n      dup8\n      gas\n      call\n      swap3\n      pop\n      pop\n      pop\n      returndatasize\n      dup1\n      0x00\n      dup2\n      eq\n      tag_410\n      jumpi\n      mload(0x40)\n      swap2\n      pop\n      and(add(returndatasize, 0x3f), not(0x1f))\n      dup3\n      add\n      0x40\n      mstore\n      returndatasize\n      dup3\n      mstore\n      returndatasize\n      0x00\n      0x20\n      dup5\n      add\n      returndatacopy\n      jump(tag_409)\n    tag_410:\n      0x60\n      swap2\n      pop\n    tag_409:\n      pop\n        /* \"@openzeppelin/contracts/utils/Address.sol\":5240:5313  (bool success, bytes memory returndata) = target.call{value: value}(data) */\n      swap2\n      pop\n      swap2\n      pop\n        /* \"@openzeppelin/contracts/utils/Address.sol\":5330:5399  verifyCallResultFromTarget(target, success, returndata, errorMessage) */\n      tag_411\n        /* \"@openzeppelin/contracts/utils/Address.sol\":5357:5363  target */\n      dup8\n        /* \"@openzeppelin/contracts/utils/Address.sol\":5365:5372  success */\n      dup4\n        /* \"@openzeppelin/contracts/utils/Address.sol\":5374:5384  returndata */\n      dup4\n        /* \"@openzeppelin/contracts/utils/Address.sol\":5386:5398  errorMessage */\n      dup8\n        /* \"@openzeppelin/contracts/utils/Address.sol\":5330:5356  verifyCallResultFromTarget */\n      tag_412\n        /* \"@openzeppelin/contracts/utils/Address.sol\":5330:5399  verifyCallResultFromTarget(target, success, returndata, errorMessage) */\n      jump\t// in\n    tag_411:\n        /* \"@openzeppelin/contracts/utils/Address.sol\":5323:5399  return verifyCallResultFromTarget(target, success, returndata, errorMessage) */\n      swap8\n        /* \"@openzeppelin/contracts/utils/Address.sol\":4960:5406  function functionCallWithValue(... */\n      swap7\n      pop\n      pop\n      pop\n      pop\n      pop\n      pop\n      pop\n      jump\t// out\n        /* \"@openzeppelin/contracts/utils/Address.sol\":7466:8094  function verifyCallResultFromTarget(... */\n    tag_412:\n        /* \"@openzeppelin/contracts/utils/Address.sol\":7646:7658  bytes memory */\n      0x60\n        /* \"@openzeppelin/contracts/utils/Address.sol\":7674:7681  success */\n      dup4\n        /* \"@openzeppelin/contracts/utils/Address.sol\":7670:8088  if (success) {... */\n      iszero\n      tag_414\n      jumpi\n        /* \"@openzeppelin/contracts/utils/Address.sol\":7701:7711  returndata */\n      dup3\n        /* \"@openzeppelin/contracts/utils/Address.sol\":7701:7718  returndata.length */\n      mload\n        /* \"@openzeppelin/contracts/utils/Address.sol\":7722:7723  0 */\n      0x00\n        /* \"@openzeppelin/contracts/utils/Address.sol\":7701:7723  returndata.length == 0 */\n      sub\n        /* \"@openzeppelin/contracts/utils/Address.sol\":7697:7983  if (returndata.length == 0) {... */\n      tag_418\n      jumpi\n      sub(shl(0xa0, 0x01), 0x01)\n        /* \"@openzeppelin/contracts/utils/Address.sol\":1465:1484  account.code.length */\n      dup6\n      and\n      extcodesize\n        /* \"@openzeppelin/contracts/utils/Address.sol\":7908:7968  require(isContract(target), \"Address: call to non-contract\") */\n      tag_418\n      jumpi\n      mload(0x40)\n      shl(0xe5, 0x461bcd)\n      dup2\n      mstore\n        /* \"#utility.yul\":14839:14841   */\n      0x20\n        /* \"@openzeppelin/contracts/utils/Address.sol\":7908:7968  require(isContract(target), \"Address: call to non-contract\") */\n      0x04\n      dup3\n      add\n        /* \"#utility.yul\":14821:14842   */\n      mstore\n        /* \"#utility.yul\":14878:14880   */\n      0x1d\n        /* \"#utility.yul\":14858:14876   */\n      0x24\n      dup3\n      add\n        /* \"#utility.yul\":14851:14881   */\n      mstore\n        /* \"#utility.yul\":14917:14948   */\n      0x416464726573733a2063616c6c20746f206e6f6e2d636f6e7472616374000000\n        /* \"#utility.yul\":14897:14915   */\n      0x44\n      dup3\n      add\n        /* \"#utility.yul\":14890:14949   */\n      mstore\n        /* \"#utility.yul\":14966:14984   */\n      0x64\n      add\n        /* \"@openzeppelin/contracts/utils/Address.sol\":7908:7968  require(isContract(target), \"Address: call to non-contract\") */\n      tag_148\n        /* \"#utility.yul\":14637:14990   */\n      jump\n        /* \"@openzeppelin/contracts/utils/Address.sol\":7908:7968  require(isContract(target), \"Address: call to non-contract\") */\n    tag_418:\n      pop\n        /* \"@openzeppelin/contracts/utils/Address.sol\":8003:8013  returndata */\n      dup2\n        /* \"@openzeppelin/contracts/utils/Address.sol\":7996:8013  return returndata */\n      jump(tag_400)\n        /* \"@openzeppelin/contracts/utils/Address.sol\":7670:8088  if (success) {... */\n    tag_414:\n        /* \"@openzeppelin/contracts/utils/Address.sol\":8044:8077  _revert(returndata, errorMessage) */\n      tag_400\n        /* \"@openzeppelin/contracts/utils/Address.sol\":8052:8062  returndata */\n      dup4\n        /* \"@openzeppelin/contracts/utils/Address.sol\":8064:8076  errorMessage */\n      dup4\n        /* \"@openzeppelin/contracts/utils/Address.sol\":8775:8792  returndata.length */\n      dup2\n      mload\n        /* \"@openzeppelin/contracts/utils/Address.sol\":8775:8796  returndata.length > 0 */\n      iszero\n        /* \"@openzeppelin/contracts/utils/Address.sol\":8771:9150  if (returndata.length > 0) {... */\n      tag_426\n      jumpi\n        /* \"@openzeppelin/contracts/utils/Address.sol\":9003:9013  returndata */\n      dup2\n        /* \"@openzeppelin/contracts/utils/Address.sol\":8997:9014  mload(returndata) */\n      mload\n        /* \"@openzeppelin/contracts/utils/Address.sol\":9059:9074  returndata_size */\n      dup1\n        /* \"@openzeppelin/contracts/utils/Address.sol\":9046:9056  returndata */\n      dup4\n        /* \"@openzeppelin/contracts/utils/Address.sol\":9042:9044  32 */\n      0x20\n        /* \"@openzeppelin/contracts/utils/Address.sol\":9038:9057  add(32, returndata) */\n      add\n        /* \"@openzeppelin/contracts/utils/Address.sol\":9031:9075  revert(add(32, returndata), returndata_size) */\n      revert\n        /* \"@openzeppelin/contracts/utils/Address.sol\":8771:9150  if (returndata.length > 0) {... */\n    tag_426:\n        /* \"@openzeppelin/contracts/utils/Address.sol\":9126:9138  errorMessage */\n      dup1\n        /* \"@openzeppelin/contracts/utils/Address.sol\":9119:9139  revert(errorMessage) */\n      mload(0x40)\n      shl(0xe5, 0x461bcd)\n      dup2\n      mstore\n      0x04\n      add\n      tag_148\n      swap2\n      swap1\n      tag_429\n      jump\t// in\n        /* \"#utility.yul\":14:194   */\n    tag_42:\n        /* \"#utility.yul\":73:79   */\n      0x00\n        /* \"#utility.yul\":126:128   */\n      0x20\n        /* \"#utility.yul\":114:123   */\n      dup3\n        /* \"#utility.yul\":105:112   */\n      dup5\n        /* \"#utility.yul\":101:124   */\n      sub\n        /* \"#utility.yul\":97:129   */\n      slt\n        /* \"#utility.yul\":94:146   */\n      iszero\n      tag_438\n      jumpi\n        /* \"#utility.yul\":142:143   */\n      0x00\n        /* \"#utility.yul\":139:140   */\n      dup1\n        /* \"#utility.yul\":132:144   */\n      revert\n        /* \"#utility.yul\":94:146   */\n    tag_438:\n      pop\n        /* \"#utility.yul\":165:188   */\n      calldataload\n      swap2\n        /* \"#utility.yul\":14:194   */\n      swap1\n      pop\n      jump\t// out\n        /* \"#utility.yul\":897:1028   */\n    tag_430:\n      sub(shl(0xa0, 0x01), 0x01)\n        /* \"#utility.yul\":972:1003   */\n      dup2\n      and\n        /* \"#utility.yul\":962:1004   */\n      dup2\n      eq\n        /* \"#utility.yul\":952:1022   */\n      tag_157\n      jumpi\n        /* \"#utility.yul\":1018:1019   */\n      0x00\n        /* \"#utility.yul\":1015:1016   */\n      dup1\n        /* \"#utility.yul\":1008:1020   */\n      revert\n        /* \"#utility.yul\":1033:1348   */\n    tag_65:\n        /* \"#utility.yul\":1101:1107   */\n      0x00\n        /* \"#utility.yul\":1109:1115   */\n      dup1\n        /* \"#utility.yul\":1162:1164   */\n      0x40\n        /* \"#utility.yul\":1150:1159   */\n      dup4\n        /* \"#utility.yul\":1141:1148   */\n      dup6\n        /* \"#utility.yul\":1137:1160   */\n      sub\n        /* \"#utility.yul\":1133:1165   */\n      slt\n        /* \"#utility.yul\":1130:1182   */\n      iszero\n      tag_445\n      jumpi\n        /* \"#utility.yul\":1178:1179   */\n      0x00\n        /* \"#utility.yul\":1175:1176   */\n      dup1\n        /* \"#utility.yul\":1168:1180   */\n      revert\n        /* \"#utility.yul\":1130:1182   */\n    tag_445:\n        /* \"#utility.yul\":1217:1226   */\n      dup3\n        /* \"#utility.yul\":1204:1227   */\n      calldataload\n        /* \"#utility.yul\":1236:1267   */\n      tag_446\n        /* \"#utility.yul\":1261:1266   */\n      dup2\n        /* \"#utility.yul\":1236:1267   */\n      tag_430\n      jump\t// in\n    tag_446:\n        /* \"#utility.yul\":1286:1291   */\n      swap5\n        /* \"#utility.yul\":1338:1340   */\n      0x20\n        /* \"#utility.yul\":1323:1341   */\n      swap4\n      swap1\n      swap4\n      add\n        /* \"#utility.yul\":1310:1342   */\n      calldataload\n      swap4\n      pop\n      pop\n      pop\n        /* \"#utility.yul\":1033:1348   */\n      jump\t// out\n        /* \"#utility.yul\":1353:1601   */\n    tag_69:\n        /* \"#utility.yul\":1421:1427   */\n      0x00\n        /* \"#utility.yul\":1429:1435   */\n      dup1\n        /* \"#utility.yul\":1482:1484   */\n      0x40\n        /* \"#utility.yul\":1470:1479   */\n      dup4\n        /* \"#utility.yul\":1461:1468   */\n      dup6\n        /* \"#utility.yul\":1457:1480   */\n      sub\n        /* \"#utility.yul\":1453:1485   */\n      slt\n        /* \"#utility.yul\":1450:1502   */\n      iszero\n      tag_448\n      jumpi\n        /* \"#utility.yul\":1498:1499   */\n      0x00\n        /* \"#utility.yul\":1495:1496   */\n      dup1\n        /* \"#utility.yul\":1488:1500   */\n      revert\n        /* \"#utility.yul\":1450:1502   */\n    tag_448:\n      pop\n      pop\n        /* \"#utility.yul\":1521:1544   */\n      dup1\n      calldataload\n      swap3\n        /* \"#utility.yul\":1591:1593   */\n      0x20\n        /* \"#utility.yul\":1576:1594   */\n      swap1\n      swap2\n      add\n        /* \"#utility.yul\":1563:1595   */\n      calldataload\n      swap2\n      pop\n        /* \"#utility.yul\":1353:1601   */\n      jump\t// out\n        /* \"#utility.yul\":1606:2441   */\n    tag_86:\n        /* \"#utility.yul\":1749:1755   */\n      0x00\n        /* \"#utility.yul\":1757:1763   */\n      dup1\n        /* \"#utility.yul\":1765:1771   */\n      0x00\n        /* \"#utility.yul\":1773:1779   */\n      dup1\n        /* \"#utility.yul\":1781:1787   */\n      0x00\n        /* \"#utility.yul\":1789:1795   */\n      dup1\n        /* \"#utility.yul\":1797:1803   */\n      0x00\n        /* \"#utility.yul\":1850:1853   */\n      0xe0\n        /* \"#utility.yul\":1838:1847   */\n      dup9\n        /* \"#utility.yul\":1829:1836   */\n      dup11\n        /* \"#utility.yul\":1825:1848   */\n      sub\n        /* \"#utility.yul\":1821:1854   */\n      slt\n        /* \"#utility.yul\":1818:1871   */\n      iszero\n      tag_450\n      jumpi\n        /* \"#utility.yul\":1867:1868   */\n      0x00\n        /* \"#utility.yul\":1864:1865   */\n      dup1\n        /* \"#utility.yul\":1857:1869   */\n      revert\n        /* \"#utility.yul\":1818:1871   */\n    tag_450:\n        /* \"#utility.yul\":1906:1915   */\n      dup8\n        /* \"#utility.yul\":1893:1916   */\n      calldataload\n        /* \"#utility.yul\":1925:1956   */\n      tag_451\n        /* \"#utility.yul\":1950:1955   */\n      dup2\n        /* \"#utility.yul\":1925:1956   */\n      tag_430\n      jump\t// in\n    tag_451:\n        /* \"#utility.yul\":1975:1980   */\n      swap7\n      pop\n        /* \"#utility.yul\":2032:2034   */\n      0x20\n        /* \"#utility.yul\":2017:2035   */\n      dup9\n      add\n        /* \"#utility.yul\":2004:2036   */\n      calldataload\n        /* \"#utility.yul\":2045:2078   */\n      tag_452\n        /* \"#utility.yul\":2004:2036   */\n      dup2\n        /* \"#utility.yul\":2045:2078   */\n      tag_430\n      jump\t// in\n    tag_452:\n        /* \"#utility.yul\":2097:2104   */\n      swap6\n      pop\n        /* \"#utility.yul\":2151:2153   */\n      0x40\n        /* \"#utility.yul\":2136:2154   */\n      dup9\n      add\n        /* \"#utility.yul\":2123:2155   */\n      calldataload\n      swap5\n      pop\n        /* \"#utility.yul\":2202:2204   */\n      0x60\n        /* \"#utility.yul\":2187:2205   */\n      dup9\n      add\n        /* \"#utility.yul\":2174:2206   */\n      calldataload\n      swap4\n      pop\n        /* \"#utility.yul\":2253:2256   */\n      0x80\n        /* \"#utility.yul\":2238:2257   */\n      dup9\n      add\n        /* \"#utility.yul\":2225:2258   */\n      calldataload\n      swap3\n      pop\n        /* \"#utility.yul\":2305:2308   */\n      0xa0\n        /* \"#utility.yul\":2290:2309   */\n      dup9\n      add\n        /* \"#utility.yul\":2277:2310   */\n      calldataload\n      swap2\n      pop\n        /* \"#utility.yul\":2362:2365   */\n      0xc0\n        /* \"#utility.yul\":2347:2366   */\n      dup9\n      add\n        /* \"#utility.yul\":2334:2367   */\n      calldataload\n        /* \"#utility.yul\":2376:2409   */\n      tag_453\n        /* \"#utility.yul\":2334:2367   */\n      dup2\n        /* \"#utility.yul\":2376:2409   */\n      tag_430\n      jump\t// in\n    tag_453:\n        /* \"#utility.yul\":2428:2435   */\n      dup1\n        /* \"#utility.yul\":2418:2435   */\n      swap2\n      pop\n      pop\n        /* \"#utility.yul\":1606:2441   */\n      swap3\n      swap6\n      swap9\n      swap2\n      swap5\n      swap8\n      pop\n      swap3\n      swap6\n      pop\n      jump\t// out\n        /* \"#utility.yul\":2654:2969   */\n    tag_103:\n        /* \"#utility.yul\":2722:2728   */\n      0x00\n        /* \"#utility.yul\":2730:2736   */\n      dup1\n        /* \"#utility.yul\":2783:2785   */\n      0x40\n        /* \"#utility.yul\":2771:2780   */\n      dup4\n        /* \"#utility.yul\":2762:2769   */\n      dup6\n        /* \"#utility.yul\":2758:2781   */\n      sub\n        /* \"#utility.yul\":2754:2786   */\n      slt\n        /* \"#utility.yul\":2751:2803   */\n      iszero\n      tag_456\n      jumpi\n        /* \"#utility.yul\":2799:2800   */\n      0x00\n        /* \"#utility.yul\":2796:2797   */\n      dup1\n        /* \"#utility.yul\":2789:2801   */\n      revert\n        /* \"#utility.yul\":2751:2803   */\n    tag_456:\n        /* \"#utility.yul\":2835:2844   */\n      dup3\n        /* \"#utility.yul\":2822:2845   */\n      calldataload\n        /* \"#utility.yul\":2812:2845   */\n      swap2\n      pop\n        /* \"#utility.yul\":2895:2897   */\n      0x20\n        /* \"#utility.yul\":2884:2893   */\n      dup4\n        /* \"#utility.yul\":2880:2898   */\n      add\n        /* \"#utility.yul\":2867:2899   */\n      calldataload\n        /* \"#utility.yul\":2908:2939   */\n      tag_457\n        /* \"#utility.yul\":2933:2938   */\n      dup2\n        /* \"#utility.yul\":2908:2939   */\n      tag_430\n      jump\t// in\n    tag_457:\n        /* \"#utility.yul\":2958:2963   */\n      dup1\n        /* \"#utility.yul\":2948:2963   */\n      swap2\n      pop\n      pop\n        /* \"#utility.yul\":2654:2969   */\n      swap3\n      pop\n      swap3\n      swap1\n      pop\n      jump\t// out\n        /* \"#utility.yul\":2974:3092   */\n    tag_431:\n        /* \"#utility.yul\":3060:3065   */\n      dup1\n        /* \"#utility.yul\":3053:3066   */\n      iszero\n        /* \"#utility.yul\":3046:3067   */\n      iszero\n        /* \"#utility.yul\":3039:3044   */\n      dup2\n        /* \"#utility.yul\":3036:3068   */\n      eq\n        /* \"#utility.yul\":3026:3086   */\n      tag_157\n      jumpi\n        /* \"#utility.yul\":3082:3083   */\n      0x00\n        /* \"#utility.yul\":3079:3080   */\n      dup1\n        /* \"#utility.yul\":3072:3084   */\n      revert\n        /* \"#utility.yul\":3097:3406   */\n    tag_115:\n        /* \"#utility.yul\":3162:3168   */\n      0x00\n        /* \"#utility.yul\":3170:3176   */\n      dup1\n        /* \"#utility.yul\":3223:3225   */\n      0x40\n        /* \"#utility.yul\":3211:3220   */\n      dup4\n        /* \"#utility.yul\":3202:3209   */\n      dup6\n        /* \"#utility.yul\":3198:3221   */\n      sub\n        /* \"#utility.yul\":3194:3226   */\n      slt\n        /* \"#utility.yul\":3191:3243   */\n      iszero\n      tag_461\n      jumpi\n        /* \"#utility.yul\":3239:3240   */\n      0x00\n        /* \"#utility.yul\":3236:3237   */\n      dup1\n        /* \"#utility.yul\":3229:3241   */\n      revert\n        /* \"#utility.yul\":3191:3243   */\n    tag_461:\n        /* \"#utility.yul\":3278:3287   */\n      dup3\n        /* \"#utility.yul\":3265:3288   */\n      calldataload\n        /* \"#utility.yul\":3297:3325   */\n      tag_446\n        /* \"#utility.yul\":3319:3324   */\n      dup2\n        /* \"#utility.yul\":3297:3325   */\n      tag_431\n      jump\t// in\n        /* \"#utility.yul\":3634:3881   */\n    tag_138:\n        /* \"#utility.yul\":3693:3699   */\n      0x00\n        /* \"#utility.yul\":3746:3748   */\n      0x20\n        /* \"#utility.yul\":3734:3743   */\n      dup3\n        /* \"#utility.yul\":3725:3732   */\n      dup5\n        /* \"#utility.yul\":3721:3744   */\n      sub\n        /* \"#utility.yul\":3717:3749   */\n      slt\n        /* \"#utility.yul\":3714:3766   */\n      iszero\n      tag_465\n      jumpi\n        /* \"#utility.yul\":3762:3763   */\n      0x00\n        /* \"#utility.yul\":3759:3760   */\n      dup1\n        /* \"#utility.yul\":3752:3764   */\n      revert\n        /* \"#utility.yul\":3714:3766   */\n    tag_465:\n        /* \"#utility.yul\":3801:3810   */\n      dup2\n        /* \"#utility.yul\":3788:3811   */\n      calldataload\n        /* \"#utility.yul\":3820:3851   */\n      tag_356\n        /* \"#utility.yul\":3845:3850   */\n      dup2\n        /* \"#utility.yul\":3820:3851   */\n      tag_430\n      jump\t// in\n        /* \"#utility.yul\":5614:5741   */\n    tag_180:\n        /* \"#utility.yul\":5675:5685   */\n      0x4e487b71\n        /* \"#utility.yul\":5670:5673   */\n      0xe0\n        /* \"#utility.yul\":5666:5686   */\n      shl\n        /* \"#utility.yul\":5663:5664   */\n      0x00\n        /* \"#utility.yul\":5656:5687   */\n      mstore\n        /* \"#utility.yul\":5706:5710   */\n      0x32\n        /* \"#utility.yul\":5703:5704   */\n      0x04\n        /* \"#utility.yul\":5696:5711   */\n      mstore\n        /* \"#utility.yul\":5730:5734   */\n      0x24\n        /* \"#utility.yul\":5727:5728   */\n      0x00\n        /* \"#utility.yul\":5720:5735   */\n      revert\n        /* \"#utility.yul\":6439:6712   */\n    tag_233:\n        /* \"#utility.yul\":6507:6513   */\n      0x00\n        /* \"#utility.yul\":6560:6562   */\n      0x20\n        /* \"#utility.yul\":6548:6557   */\n      dup3\n        /* \"#utility.yul\":6539:6546   */\n      dup5\n        /* \"#utility.yul\":6535:6558   */\n      sub\n        /* \"#utility.yul\":6531:6563   */\n      slt\n        /* \"#utility.yul\":6528:6580   */\n      iszero\n      tag_476\n      jumpi\n        /* \"#utility.yul\":6576:6577   */\n      0x00\n        /* \"#utility.yul\":6573:6574   */\n      dup1\n        /* \"#utility.yul\":6566:6578   */\n      revert\n        /* \"#utility.yul\":6528:6580   */\n    tag_476:\n        /* \"#utility.yul\":6608:6617   */\n      dup2\n        /* \"#utility.yul\":6602:6618   */\n      mload\n        /* \"#utility.yul\":6658:6662   */\n      0xff\n        /* \"#utility.yul\":6651:6656   */\n      dup2\n        /* \"#utility.yul\":6647:6663   */\n      and\n        /* \"#utility.yul\":6640:6645   */\n      dup2\n        /* \"#utility.yul\":6637:6664   */\n      eq\n        /* \"#utility.yul\":6627:6682   */\n      tag_356\n      jumpi\n        /* \"#utility.yul\":6678:6679   */\n      0x00\n        /* \"#utility.yul\":6675:6676   */\n      dup1\n        /* \"#utility.yul\":6668:6680   */\n      revert\n        /* \"#utility.yul\":7074:7201   */\n    tag_432:\n        /* \"#utility.yul\":7135:7145   */\n      0x4e487b71\n        /* \"#utility.yul\":7130:7133   */\n      0xe0\n        /* \"#utility.yul\":7126:7146   */\n      shl\n        /* \"#utility.yul\":7123:7124   */\n      0x00\n        /* \"#utility.yul\":7116:7147   */\n      mstore\n        /* \"#utility.yul\":7166:7170   */\n      0x11\n        /* \"#utility.yul\":7163:7164   */\n      0x04\n        /* \"#utility.yul\":7156:7171   */\n      mstore\n        /* \"#utility.yul\":7190:7194   */\n      0x24\n        /* \"#utility.yul\":7187:7188   */\n      0x00\n        /* \"#utility.yul\":7180:7195   */\n      revert\n        /* \"#utility.yul\":7206:7628   */\n    tag_433:\n        /* \"#utility.yul\":7295:7296   */\n      0x01\n        /* \"#utility.yul\":7338:7343   */\n      dup2\n        /* \"#utility.yul\":7295:7296   */\n      dup2\n        /* \"#utility.yul\":7352:7622   */\n    tag_481:\n        /* \"#utility.yul\":7373:7380   */\n      dup1\n        /* \"#utility.yul\":7363:7371   */\n      dup6\n        /* \"#utility.yul\":7360:7381   */\n      gt\n        /* \"#utility.yul\":7352:7622   */\n      iszero\n      tag_483\n      jumpi\n        /* \"#utility.yul\":7432:7436   */\n      dup2\n        /* \"#utility.yul\":7428:7429   */\n      0x00\n        /* \"#utility.yul\":7424:7430   */\n      not\n        /* \"#utility.yul\":7420:7437   */\n      div\n        /* \"#utility.yul\":7414:7418   */\n      dup3\n        /* \"#utility.yul\":7411:7438   */\n      gt\n        /* \"#utility.yul\":7408:7461   */\n      iszero\n      tag_485\n      jumpi\n        /* \"#utility.yul\":7441:7459   */\n      tag_485\n      tag_432\n      jump\t// in\n    tag_485:\n        /* \"#utility.yul\":7491:7498   */\n      dup1\n        /* \"#utility.yul\":7481:7489   */\n      dup6\n        /* \"#utility.yul\":7477:7499   */\n      and\n        /* \"#utility.yul\":7474:7529   */\n      iszero\n      tag_486\n      jumpi\n        /* \"#utility.yul\":7511:7527   */\n      swap2\n      dup2\n      mul\n      swap2\n        /* \"#utility.yul\":7474:7529   */\n    tag_486:\n        /* \"#utility.yul\":7590:7612   */\n      swap4\n      dup5\n      shr\n      swap4\n        /* \"#utility.yul\":7550:7565   */\n      swap1\n      dup1\n      mul\n      swap1\n        /* \"#utility.yul\":7352:7622   */\n      jump(tag_481)\n    tag_483:\n        /* \"#utility.yul\":7356:7359   */\n      pop\n        /* \"#utility.yul\":7206:7628   */\n      swap3\n      pop\n      swap3\n      swap1\n      pop\n      jump\t// out\n        /* \"#utility.yul\":7633:8439   */\n    tag_434:\n        /* \"#utility.yul\":7682:7687   */\n      0x00\n        /* \"#utility.yul\":7712:7720   */\n      dup3\n        /* \"#utility.yul\":7702:7782   */\n      tag_488\n      jumpi\n      pop\n        /* \"#utility.yul\":7753:7754   */\n      0x01\n        /* \"#utility.yul\":7767:7772   */\n      jump(tag_255)\n        /* \"#utility.yul\":7702:7782   */\n    tag_488:\n        /* \"#utility.yul\":7801:7805   */\n      dup2\n        /* \"#utility.yul\":7791:7867   */\n      tag_489\n      jumpi\n      pop\n        /* \"#utility.yul\":7838:7839   */\n      0x00\n        /* \"#utility.yul\":7852:7857   */\n      jump(tag_255)\n        /* \"#utility.yul\":7791:7867   */\n    tag_489:\n        /* \"#utility.yul\":7883:7887   */\n      dup2\n        /* \"#utility.yul\":7901:7902   */\n      0x01\n        /* \"#utility.yul\":7896:7955   */\n      dup2\n      eq\n      tag_491\n      jumpi\n        /* \"#utility.yul\":7969:7970   */\n      0x02\n        /* \"#utility.yul\":7964:8094   */\n      dup2\n      eq\n      tag_492\n      jumpi\n        /* \"#utility.yul\":7876:8094   */\n      jump(tag_490)\n        /* \"#utility.yul\":7896:7955   */\n    tag_491:\n        /* \"#utility.yul\":7926:7927   */\n      0x01\n        /* \"#utility.yul\":7917:7927   */\n      swap2\n      pop\n        /* \"#utility.yul\":7940:7945   */\n      pop\n      jump(tag_255)\n        /* \"#utility.yul\":7964:8094   */\n    tag_492:\n        /* \"#utility.yul\":8001:8004   */\n      0xff\n        /* \"#utility.yul\":7991:7999   */\n      dup5\n        /* \"#utility.yul\":7988:8005   */\n      gt\n        /* \"#utility.yul\":7985:8028   */\n      iszero\n      tag_494\n      jumpi\n        /* \"#utility.yul\":8008:8026   */\n      tag_494\n      tag_432\n      jump\t// in\n    tag_494:\n      pop\n      pop\n        /* \"#utility.yul\":8064:8065   */\n      0x01\n        /* \"#utility.yul\":8050:8066   */\n      dup3\n      shl\n        /* \"#utility.yul\":8079:8084   */\n      jump(tag_255)\n        /* \"#utility.yul\":7876:8094   */\n    tag_490:\n      pop\n        /* \"#utility.yul\":8178:8180   */\n      0x20\n        /* \"#utility.yul\":8168:8176   */\n      dup4\n        /* \"#utility.yul\":8165:8181   */\n      lt\n        /* \"#utility.yul\":8159:8162   */\n      0x0133\n        /* \"#utility.yul\":8153:8157   */\n      dup4\n        /* \"#utility.yul\":8150:8163   */\n      lt\n        /* \"#utility.yul\":8146:8182   */\n      and\n        /* \"#utility.yul\":8140:8142   */\n      0x4e\n        /* \"#utility.yul\":8130:8138   */\n      dup5\n        /* \"#utility.yul\":8127:8143   */\n      lt\n        /* \"#utility.yul\":8122:8124   */\n      0x0b\n        /* \"#utility.yul\":8116:8120   */\n      dup5\n        /* \"#utility.yul\":8113:8125   */\n      lt\n        /* \"#utility.yul\":8109:8144   */\n      and\n        /* \"#utility.yul\":8106:8183   */\n      or\n        /* \"#utility.yul\":8103:8262   */\n      iszero\n      tag_495\n      jumpi\n      pop\n        /* \"#utility.yul\":8215:8234   */\n      dup2\n      dup2\n      exp\n        /* \"#utility.yul\":8247:8252   */\n      jump(tag_255)\n        /* \"#utility.yul\":8103:8262   */\n    tag_495:\n        /* \"#utility.yul\":8294:8328   */\n      tag_496\n        /* \"#utility.yul\":8319:8327   */\n      dup4\n        /* \"#utility.yul\":8313:8317   */\n      dup4\n        /* \"#utility.yul\":8294:8328   */\n      tag_433\n      jump\t// in\n    tag_496:\n        /* \"#utility.yul\":8364:8370   */\n      dup1\n        /* \"#utility.yul\":8360:8361   */\n      0x00\n        /* \"#utility.yul\":8356:8362   */\n      not\n        /* \"#utility.yul\":8352:8371   */\n      div\n        /* \"#utility.yul\":8343:8350   */\n      dup3\n        /* \"#utility.yul\":8340:8372   */\n      gt\n        /* \"#utility.yul\":8337:8395   */\n      iszero\n      tag_498\n      jumpi\n        /* \"#utility.yul\":8375:8393   */\n      tag_498\n      tag_432\n      jump\t// in\n    tag_498:\n        /* \"#utility.yul\":8413:8433   */\n      mul\n      swap4\n        /* \"#utility.yul\":7633:8439   */\n      swap3\n      pop\n      pop\n      pop\n      jump\t// out\n        /* \"#utility.yul\":8444:8575   */\n    tag_239:\n        /* \"#utility.yul\":8504:8509   */\n      0x00\n        /* \"#utility.yul\":8533:8569   */\n      tag_356\n        /* \"#utility.yul\":8560:8568   */\n      dup4\n        /* \"#utility.yul\":8554:8558   */\n      dup4\n        /* \"#utility.yul\":8533:8569   */\n      tag_434\n      jump\t// in\n        /* \"#utility.yul\":10358:10493   */\n    tag_302:\n        /* \"#utility.yul\":10397:10400   */\n      0x00\n        /* \"#utility.yul\":10418:10435   */\n      0x01\n      dup3\n      add\n        /* \"#utility.yul\":10415:10458   */\n      tag_508\n      jumpi\n        /* \"#utility.yul\":10438:10456   */\n      tag_508\n      tag_432\n      jump\t// in\n    tag_508:\n      pop\n        /* \"#utility.yul\":10485:10486   */\n      0x01\n        /* \"#utility.yul\":10474:10487   */\n      add\n      swap1\n        /* \"#utility.yul\":10358:10493   */\n      jump\t// out\n        /* \"#utility.yul\":11984:12109   */\n    tag_357:\n        /* \"#utility.yul\":12049:12058   */\n      dup1\n      dup3\n      add\n        /* \"#utility.yul\":12070:12080   */\n      dup1\n      dup3\n      gt\n        /* \"#utility.yul\":12067:12103   */\n      iszero\n      tag_255\n      jumpi\n        /* \"#utility.yul\":12083:12101   */\n      tag_255\n      tag_432\n      jump\t// in\n        /* \"#utility.yul\":12114:12282   */\n    tag_369:\n        /* \"#utility.yul\":12187:12196   */\n      dup1\n      dup3\n      mul\n        /* \"#utility.yul\":12218:12227   */\n      dup2\n      iszero\n        /* \"#utility.yul\":12235:12250   */\n      dup3\n      dup3\n      div\n        /* \"#utility.yul\":12229:12251   */\n      dup5\n      eq\n        /* \"#utility.yul\":12215:12252   */\n      or\n        /* \"#utility.yul\":12205:12276   */\n      tag_255\n      jumpi\n        /* \"#utility.yul\":12256:12274   */\n      tag_255\n      tag_432\n      jump\t// in\n        /* \"#utility.yul\":12287:12504   */\n    tag_372:\n        /* \"#utility.yul\":12327:12328   */\n      0x00\n        /* \"#utility.yul\":12353:12354   */\n      dup3\n        /* \"#utility.yul\":12343:12475   */\n      tag_520\n      jumpi\n        /* \"#utility.yul\":12397:12407   */\n      0x4e487b71\n        /* \"#utility.yul\":12392:12395   */\n      0xe0\n        /* \"#utility.yul\":12388:12408   */\n      shl\n        /* \"#utility.yul\":12385:12386   */\n      0x00\n        /* \"#utility.yul\":12378:12409   */\n      mstore\n        /* \"#utility.yul\":12432:12436   */\n      0x12\n        /* \"#utility.yul\":12429:12430   */\n      0x04\n        /* \"#utility.yul\":12422:12437   */\n      mstore\n        /* \"#utility.yul\":12460:12464   */\n      0x24\n        /* \"#utility.yul\":12457:12458   */\n      0x00\n        /* \"#utility.yul\":12450:12465   */\n      revert\n        /* \"#utility.yul\":12343:12475   */\n    tag_520:\n      pop\n        /* \"#utility.yul\":12489:12498   */\n      div\n      swap1\n        /* \"#utility.yul\":12287:12504   */\n      jump\t// out\n        /* \"#utility.yul\":12509:12637   */\n    tag_375:\n        /* \"#utility.yul\":12576:12585   */\n      dup2\n      dup2\n      sub\n        /* \"#utility.yul\":12597:12608   */\n      dup2\n      dup2\n      gt\n        /* \"#utility.yul\":12594:12631   */\n      iszero\n      tag_255\n      jumpi\n        /* \"#utility.yul\":12611:12629   */\n      tag_255\n      tag_432\n      jump\t// in\n        /* \"#utility.yul\":13022:13267   */\n    tag_395:\n        /* \"#utility.yul\":13089:13095   */\n      0x00\n        /* \"#utility.yul\":13142:13144   */\n      0x20\n        /* \"#utility.yul\":13130:13139   */\n      dup3\n        /* \"#utility.yul\":13121:13128   */\n      dup5\n        /* \"#utility.yul\":13117:13140   */\n      sub\n        /* \"#utility.yul\":13113:13145   */\n      slt\n        /* \"#utility.yul\":13110:13162   */\n      iszero\n      tag_526\n      jumpi\n        /* \"#utility.yul\":13158:13159   */\n      0x00\n        /* \"#utility.yul\":13155:13156   */\n      dup1\n        /* \"#utility.yul\":13148:13160   */\n      revert\n        /* \"#utility.yul\":13110:13162   */\n    tag_526:\n        /* \"#utility.yul\":13190:13199   */\n      dup2\n        /* \"#utility.yul\":13184:13200   */\n      mload\n        /* \"#utility.yul\":13209:13237   */\n      tag_356\n        /* \"#utility.yul\":13231:13236   */\n      dup2\n        /* \"#utility.yul\":13209:13237   */\n      tag_431\n      jump\t// in\n        /* \"#utility.yul\":14090:14340   */\n    tag_435:\n        /* \"#utility.yul\":14175:14176   */\n      0x00\n        /* \"#utility.yul\":14185:14298   */\n    tag_531:\n        /* \"#utility.yul\":14199:14205   */\n      dup4\n        /* \"#utility.yul\":14196:14197   */\n      dup2\n        /* \"#utility.yul\":14193:14206   */\n      lt\n        /* \"#utility.yul\":14185:14298   */\n      iszero\n      tag_533\n      jumpi\n        /* \"#utility.yul\":14275:14286   */\n      dup2\n      dup2\n      add\n        /* \"#utility.yul\":14269:14287   */\n      mload\n        /* \"#utility.yul\":14256:14267   */\n      dup4\n      dup3\n      add\n        /* \"#utility.yul\":14249:14288   */\n      mstore\n        /* \"#utility.yul\":14221:14223   */\n      0x20\n        /* \"#utility.yul\":14214:14224   */\n      add\n        /* \"#utility.yul\":14185:14298   */\n      jump(tag_531)\n    tag_533:\n      pop\n      pop\n        /* \"#utility.yul\":14332:14333   */\n      0x00\n        /* \"#utility.yul\":14314:14330   */\n      swap2\n      add\n        /* \"#utility.yul\":14307:14334   */\n      mstore\n        /* \"#utility.yul\":14090:14340   */\n      jump\t// out\n        /* \"#utility.yul\":14345:14632   */\n    tag_407:\n        /* \"#utility.yul\":14474:14477   */\n      0x00\n        /* \"#utility.yul\":14512:14518   */\n      dup3\n        /* \"#utility.yul\":14506:14519   */\n      mload\n        /* \"#utility.yul\":14528:14594   */\n      tag_535\n        /* \"#utility.yul\":14587:14593   */\n      dup2\n        /* \"#utility.yul\":14582:14585   */\n      dup5\n        /* \"#utility.yul\":14575:14579   */\n      0x20\n        /* \"#utility.yul\":14567:14573   */\n      dup8\n        /* \"#utility.yul\":14563:14580   */\n      add\n        /* \"#utility.yul\":14528:14594   */\n      tag_435\n      jump\t// in\n    tag_535:\n        /* \"#utility.yul\":14610:14626   */\n      swap2\n      swap1\n      swap2\n      add\n      swap3\n        /* \"#utility.yul\":14345:14632   */\n      swap2\n      pop\n      pop\n      jump\t// out\n        /* \"#utility.yul\":14995:15391   */\n    tag_429:\n        /* \"#utility.yul\":15144:15146   */\n      0x20\n        /* \"#utility.yul\":15133:15142   */\n      dup2\n        /* \"#utility.yul\":15126:15147   */\n      mstore\n        /* \"#utility.yul\":15107:15111   */\n      0x00\n        /* \"#utility.yul\":15176:15182   */\n      dup3\n        /* \"#utility.yul\":15170:15183   */\n      mload\n        /* \"#utility.yul\":15219:15225   */\n      dup1\n        /* \"#utility.yul\":15214:15216   */\n      0x20\n        /* \"#utility.yul\":15203:15212   */\n      dup5\n        /* \"#utility.yul\":15199:15217   */\n      add\n        /* \"#utility.yul\":15192:15226   */\n      mstore\n        /* \"#utility.yul\":15235:15314   */\n      tag_538\n        /* \"#utility.yul\":15307:15313   */\n      dup2\n        /* \"#utility.yul\":15302:15304   */\n      0x40\n        /* \"#utility.yul\":15291:15300   */\n      dup6\n        /* \"#utility.yul\":15287:15305   */\n      add\n        /* \"#utility.yul\":15282:15284   */\n      0x20\n        /* \"#utility.yul\":15274:15280   */\n      dup8\n        /* \"#utility.yul\":15270:15285   */\n      add\n        /* \"#utility.yul\":15235:15314   */\n      tag_435\n      jump\t// in\n    tag_538:\n        /* \"#utility.yul\":15375:15377   */\n      0x1f\n        /* \"#utility.yul\":15354:15369   */\n      add\n      not(0x1f)\n        /* \"#utility.yul\":15350:15379   */\n      and\n        /* \"#utility.yul\":15335:15380   */\n      swap2\n      swap1\n      swap2\n      add\n        /* \"#utility.yul\":15382:15384   */\n      0x40\n        /* \"#utility.yul\":15331:15385   */\n      add\n      swap3\n        /* \"#utility.yul\":14995:15391   */\n      swap2\n      pop\n      pop\n      jump\t// out\n\n    auxdata: 0xa26469706673582212208f036a249aef3603b7c4a983188cb40fda32ac6efb53d4e2a528ad4d9408dfa764736f6c63430008110033\n}\n",
				"bytecode": {
					"linkReferences": {},
					"object": "608060405234801561001057600080fd5b5061001a33610035565b60018055600280546001600160a01b03191633179055610085565b600080546001600160a01b038381166001600160a01b0319831681178455604051919092169283917f8be0079c531659141344cd1fd0a4f28419497f9722a3daafe3b4186f6b6457e09190a35050565b6119ef806100946000396000f3fe608060405234801561001057600080fd5b50600436106101da5760003560e01c80638da5cb5b11610104578063a9f8d181116100a2578063d5002f2e11610071578063d5002f2e146103dd578063e2bbb158146103e5578063f2fde38b146103f8578063f7c618c11461040b57600080fd5b8063a9f8d181146103a5578063bd617191146103ae578063cc7a262e146103c1578063ccd34cd5146103d457600080fd5b806393f1a40b116100de57806393f1a40b146103325780639513997f1461036c57806398969e821461037f578063a0b409051461039257600080fd5b80638da5cb5b146102f05780638f6629151461031557806392e8990e1461031e57600080fd5b8063441a3e701161017c578063715018a61161014b578063715018a6146102c457806380dc0672146102cc57806383a5041c146102d45780638ae39cac146102e757600080fd5b8063441a3e701461028c57806348cd4cb11461029f5780635312ea8e146102a857806366fe9f8a146102bb57600080fd5b80631aed6553116101b85780631aed6553146102395780633279beab14610242578063392e53cd146102555780633f138d4b1461027957600080fd5b806301f8a976146101df578063081e3eda146101f45780631526fe271461020b575b600080fd5b6101f26101ed36600461160b565b61041e565b005b600c545b6040519081526020015b60405180910390f35b61021e61021936600461160b565b6104aa565b60408051938452602084019290925290820152606001610202565b6101f860045481565b6101f261025036600461160b565b6104dd565b60025461026990600160a81b900460ff1681565b6040519015158152602001610202565b6101f2610287366004611639565b6104ff565b6101f261029a366004611665565b610610565b6101f860055481565b6101f26102b636600461160b565b6107f6565b6101f860075481565b6101f2610884565b6101f2610898565b6101f26102e2366004611687565b6108a6565b6101f860085481565b6000546001600160a01b03165b6040516001600160a01b039091168152602001610202565b6101f860035481565b60025461026990600160a01b900460ff1681565b61021e6103403660046116f9565b600d60209081526000928352604080842090915290825290208054600182015460029092015490919083565b6101f261037a366004611665565b610aa9565b6101f861038d3660046116f9565b610c08565b6101f26103a0366004611737565b610d39565b6101f860065481565b6002546102fd906001600160a01b031681565b600b546102fd906001600160a01b031681565b6101f860095481565b6101f8610e39565b6101f26103f3366004611665565b610ec2565b6101f2610406366004611755565b6110a2565b600a546102fd906001600160a01b031681565b610426611118565b600554431061046f5760405162461bcd60e51b815260206004820152601060248201526f141bdbdb081a185cc81cdd185c9d195960821b60448201526064015b60405180910390fd5b60088190556040518181527f0c4d677eef92893ac7ec52faf8140fc6c851ab4736302b4f3a89dfb20696a0df9060200160405180910390a150565b600c81815481106104ba57600080fd5b600091825260209091206003909102018054600182015460029092015490925083565b6104e5611118565b600a546104fc906001600160a01b03163383611172565b50565b610507611118565b600b546001600160a01b039081169083160361055e5760405162461bcd60e51b815260206004820152601660248201527521b0b73737ba1031329039ba30b5b2b2103a37b5b2b760511b6044820152606401610466565b600a546001600160a01b03908116908316036105b55760405162461bcd60e51b815260206004820152601660248201527521b0b73737ba103132903932bbb0b932103a37b5b2b760511b6044820152606401610466565b6105c96001600160a01b0383163383611172565b604080516001600160a01b0384168152602081018390527f74545154aac348a3eac92596bd1971957ca94795f4e954ec5f613b55fab7812991015b60405180910390a15050565b6106186111da565b6000828152600d602090815260408083203384529091529020805482111561068c5760405162461bcd60e51b815260206004820152602160248201527f42464c593a20416d6f756e7420746f20776974686472617720746f6f206869676044820152600d60fb1b6064820152608401610466565b6000600c84815481106106a1576106a1611772565b90600052602060002090600302019050426106cd8260000154846002015461123390919063ffffffff16565b10156106dc576106dc846107f6565b6106e4611246565b6000610727836001015461072160095461071b60035461071588600101548a600001546112bd90919063ffffffff16565b906112bd565b906112c9565b906112d5565b9050831561076857825461073b90856112d5565b8355600282015461074c90856112d5565b6002830155600b54610768906001600160a01b03163386611172565b801561078557600a54610785906001600160a01b03163383611172565b6107ac60095461071b600354610715866001015488600001546112bd90919063ffffffff16565b600184015560405184815233907f884edad9ce6fa2440d8a54cc123490eb96d2768479d49ff9c7366125a94243649060200160405180910390a25050506107f260018055565b5050565b6107fe6111da565b6000818152600d6020908152604080832033845290915281208054828255600182019290925590801561084257600b54610842906001600160a01b03163383611172565b815460405190815233907f5fafa99d0643513820be26656b45130b01e1c03062e1266bf36f88cbd3bd96959060200160405180910390a250506104fc60018055565b61088c611118565b61089660006112e1565b565b6108a0611118565b43600455565b600254600160a81b900460ff16156108f55760405162461bcd60e51b8152602060048201526012602482015271109193164e881053149150511657d253925560721b6044820152606401610466565b6002546001600160a01b031633146109435760405162461bcd60e51b815260206004820152601160248201527042464c593a204e4f545f464143544f525960781b6044820152606401610466565b6002805460ff60a81b1916600160a81b179055600b80546001600160a01b03808a166001600160a01b031992831617909255600a80549289169290911691909117905560088590556005849055600483905581156109b4576002805460ff60a01b1916600160a01b17905560078290555b600a546040805163313ce56760e01b815290516000926001600160a01b03169163313ce5679160048083019260209291908290030181865afa1580156109fe573d6000803e3d6000fd5b505050506040513d601f19601f82011682018060405250810190610a229190611788565b60ff169050601e8110610a775760405162461bcd60e51b815260206004820152601c60248201527f42464c593a204d75737420626520696e666572696f7220746f203330000000006044820152606401610466565b610a82601e826112d5565b610a8d90600a6118a5565b600955600554600655610a9f826110a2565b5050505050505050565b610ab1611118565b6005544310610af55760405162461bcd60e51b815260206004820152601060248201526f141bdbdb081a185cc81cdd185c9d195960821b6044820152606401610466565b808210610b5b5760405162461bcd60e51b815260206004820152602e60248201527f4e6577207374617274426c6f636b206d757374206265206c6f7765722074686160448201526d6e206e657720656e64426c6f636b60901b6064820152608401610466565b814310610bc35760405162461bcd60e51b815260206004820152603060248201527f4e6577207374617274426c6f636b206d7573742062652068696768657220746860448201526f616e2063757272656e7420626c6f636b60801b6064820152608401610466565b60058290556004819055600682905560408051838152602081018390527f7cd0ab87d19036f3dfadadb232c78aa4879dda3f0c994a9d637532410ee2ce069101610604565b6000828152600d602090815260408083206001600160a01b03851684529091528120600c805483919086908110610c4157610c41611772565b906000526020600020906003020190506000610c5b610e39565b905060065443118015610c6d57508015155b15610cfe576000610c8060065443611331565b90506000610c99600854836112bd90919063ffffffff16565b90506000610cc2610cb98561071b600954866112bd90919063ffffffff16565b60035490611233565b9050610cf1866001015461072160095461071b856107158b600101548d600001546112bd90919063ffffffff16565b9650505050505050610d33565b610d2d836001015461072160095461071b60035461071588600101548a600001546112bd90919063ffffffff16565b93505050505b92915050565b610d41611118565b600254600160a01b900460ff16610d885760405162461bcd60e51b815260206004820152600b60248201526a135d5cdd081899481cd95d60aa1b6044820152606401610466565b8115610de9576007548111610ddf5760405162461bcd60e51b815260206004820152601860248201527f4e6577206c696d6974206d7573742062652068696768657200000000000000006044820152606401610466565b6007819055610e06565b6002805460ff60a01b1916600160a01b8415150217905560006007555b7f241f67ee5f41b7a5cabf911367329be7215900f602ebfc47f89dce2a6bcd847c60075460405161060491815260200190565b6000805b600c54811015610ebe57610eac610ea5600c8381548110610e6057610e60611772565b906000526020600020906003020160010154600c8481548110610e8557610e85611772565b9060005260206000209060030201600201546112bd90919063ffffffff16565b8390611233565b9150610eb7816118b1565b9050610e3d565b5090565b610eca6111da565b6000828152600d602090815260408083203384529091528120600c805491929185908110610efa57610efa611772565b90600052602060002090600302019050600260149054906101000a900460ff1615610f7d576007548254610f2f908590611233565b1115610f7d5760405162461bcd60e51b815260206004820152601d60248201527f42464c593a205573657220616d6f756e742061626f7665206c696d69740000006044820152606401610466565b610f85611246565b815415610ff657805460028301544291610f9f9190611233565b1115610fef576000610fce836001015461072160095461071b60035488600001546112bd90919063ffffffff16565b90508015610fed57600a54610fed906001600160a01b03163383611172565b505b4260028301555b82156110365781546110089084611233565b825560028101546110199084611233565b6002820155600b54611036906001600160a01b031633308661136b565b61105d60095461071b600354610715856001015487600001546112bd90919063ffffffff16565b600183015560405183815233907fe1fffcc4923d04b559f4d29a8bfc6cda04eb5b0d3c460751c2402c5c5cc9109c9060200160405180910390a250506107f260018055565b6110aa611118565b6001600160a01b03811661110f5760405162461bcd60e51b815260206004820152602660248201527f4f776e61626c653a206e6577206f776e657220697320746865207a65726f206160448201526564647265737360d01b6064820152608401610466565b6104fc816112e1565b6000546001600160a01b031633146108965760405162461bcd60e51b815260206004820181905260248201527f4f776e61626c653a2063616c6c6572206973206e6f7420746865206f776e65726044820152606401610466565b6040516001600160a01b0383166024820152604481018290526111d590849063a9059cbb60e01b906064015b60408051601f198184030181529190526020810180516001600160e01b03166001600160e01b0319909316929092179091526113a9565b505050565b60026001540361122c5760405162461bcd60e51b815260206004820152601f60248201527f5265656e7472616e637947756172643a207265656e7472616e742063616c6c006044820152606401610466565b6002600155565b600061123f82846118ca565b9392505050565b600654431161125157565b600061125b610e39565b90508060000361126c575043600655565b600061127a60065443611331565b90506000611293600854836112bd90919063ffffffff16565b90506112b1610cb98461071b600954856112bd90919063ffffffff16565b60035550504360065550565b600061123f82846118dd565b600061123f82846118f4565b600061123f8284611916565b600080546001600160a01b038381166001600160a01b0319831681178455604051919092169283917f8be0079c531659141344cd1fd0a4f28419497f9722a3daafe3b4186f6b6457e09190a35050565b6000600454821161134d5761134682846112d5565b9050610d33565b600454831061135e57506000610d33565b60045461134690846112d5565b6040516001600160a01b03808516602483015283166044820152606481018290526113a39085906323b872dd60e01b9060840161119e565b50505050565b60006113fe826040518060400160405280602081526020017f5361666542455032303a206c6f772d6c6576656c2063616c6c206661696c6564815250856001600160a01b031661147b9092919063ffffffff16565b8051909150156111d5578080602001905181019061141c9190611929565b6111d55760405162461bcd60e51b815260206004820152602a60248201527f5361666542455032303a204245503230206f7065726174696f6e20646964206e6044820152691bdd081cdd58d8d9595960b21b6064820152608401610466565b606061148a8484600085611492565b949350505050565b6060824710156114f35760405162461bcd60e51b815260206004820152602660248201527f416464726573733a20696e73756666696369656e742062616c616e636520666f6044820152651c8818d85b1b60d21b6064820152608401610466565b600080866001600160a01b0316858760405161150f919061196a565b60006040518083038185875af1925050503d806000811461154c576040519150601f19603f3d011682016040523d82523d6000602084013e611551565b606091505b50915091506115628783838761156d565b979650505050505050565b606083156115dc5782516000036115d5576001600160a01b0385163b6115d55760405162461bcd60e51b815260206004820152601d60248201527f416464726573733a2063616c6c20746f206e6f6e2d636f6e74726163740000006044820152606401610466565b508161148a565b61148a83838151156115f15781518083602001fd5b8060405162461bcd60e51b81526004016104669190611986565b60006020828403121561161d57600080fd5b5035919050565b6001600160a01b03811681146104fc57600080fd5b6000806040838503121561164c57600080fd5b823561165781611624565b946020939093013593505050565b6000806040838503121561167857600080fd5b50508035926020909101359150565b600080600080600080600060e0888a0312156116a257600080fd5b87356116ad81611624565b965060208801356116bd81611624565b955060408801359450606088013593506080880135925060a0880135915060c08801356116e981611624565b8091505092959891949750929550565b6000806040838503121561170c57600080fd5b82359150602083013561171e81611624565b809150509250929050565b80151581146104fc57600080fd5b6000806040838503121561174a57600080fd5b823561165781611729565b60006020828403121561176757600080fd5b813561123f81611624565b634e487b7160e01b600052603260045260246000fd5b60006020828403121561179a57600080fd5b815160ff8116811461123f57600080fd5b634e487b7160e01b600052601160045260246000fd5b600181815b808511156117fc5781600019048211156117e2576117e26117ab565b808516156117ef57918102915b93841c93908002906117c6565b509250929050565b60008261181357506001610d33565b8161182057506000610d33565b816001811461183657600281146118405761185c565b6001915050610d33565b60ff841115611851576118516117ab565b50506001821b610d33565b5060208310610133831016604e8410600b841016171561187f575081810a610d33565b61188983836117c1565b806000190482111561189d5761189d6117ab565b029392505050565b600061123f8383611804565b6000600182016118c3576118c36117ab565b5060010190565b80820180821115610d3357610d336117ab565b8082028115828204841417610d3357610d336117ab565b60008261191157634e487b7160e01b600052601260045260246000fd5b500490565b81810381811115610d3357610d336117ab565b60006020828403121561193b57600080fd5b815161123f81611729565b60005b83811015611961578181015183820152602001611949565b50506000910152565b6000825161197c818460208701611946565b9190910192915050565b60208152600082518060208401526119a5816040850160208701611946565b601f01601f1916919091016040019291505056fea26469706673582212208f036a249aef3603b7c4a983188cb40fda32ac6efb53d4e2a528ad4d9408dfa764736f6c63430008110033",
					"opcodes": "PUSH1 0x80 PUSH1 0x40 MSTORE CALLVALUE DUP1 ISZERO PUSH2 0x10 JUMPI PUSH1 0x0 DUP1 REVERT JUMPDEST POP PUSH2 0x1A CALLER PUSH2 0x35 JUMP JUMPDEST PUSH1 0x1 DUP1 SSTORE PUSH1 0x2 DUP1 SLOAD PUSH1 0x1 PUSH1 0x1 PUSH1 0xA0 SHL SUB NOT AND CALLER OR SWAP1 SSTORE PUSH2 0x85 JUMP JUMPDEST PUSH1 0x0 DUP1 SLOAD PUSH1 0x1 PUSH1 0x1 PUSH1 0xA0 SHL SUB DUP4 DUP2 AND PUSH1 0x1 PUSH1 0x1 PUSH1 0xA0 SHL SUB NOT DUP4 AND DUP2 OR DUP5 SSTORE PUSH1 0x40 MLOAD SWAP2 SWAP1 SWAP3 AND SWAP3 DUP4 SWAP2 PUSH32 0x8BE0079C531659141344CD1FD0A4F28419497F9722A3DAAFE3B4186F6B6457E0 SWAP2 SWAP1 LOG3 POP POP JUMP JUMPDEST PUSH2 0x19EF DUP1 PUSH2 0x94 PUSH1 0x0 CODECOPY PUSH1 0x0 RETURN INVALID PUSH1 0x80 PUSH1 0x40 MSTORE CALLVALUE DUP1 ISZERO PUSH2 0x10 JUMPI PUSH1 0x0 DUP1 REVERT JUMPDEST POP PUSH1 0x4 CALLDATASIZE LT PUSH2 0x1DA JUMPI PUSH1 0x0 CALLDATALOAD PUSH1 0xE0 SHR DUP1 PUSH4 0x8DA5CB5B GT PUSH2 0x104 JUMPI DUP1 PUSH4 0xA9F8D181 GT PUSH2 0xA2 JUMPI DUP1 PUSH4 0xD5002F2E GT PUSH2 0x71 JUMPI DUP1 PUSH4 0xD5002F2E EQ PUSH2 0x3DD JUMPI DUP1 PUSH4 0xE2BBB158 EQ PUSH2 0x3E5 JUMPI DUP1 PUSH4 0xF2FDE38B EQ PUSH2 0x3F8 JUMPI DUP1 PUSH4 0xF7C618C1 EQ PUSH2 0x40B JUMPI PUSH1 0x0 DUP1 REVERT JUMPDEST DUP1 PUSH4 0xA9F8D181 EQ PUSH2 0x3A5 JUMPI DUP1 PUSH4 0xBD617191 EQ PUSH2 0x3AE JUMPI DUP1 PUSH4 0xCC7A262E EQ PUSH2 0x3C1 JUMPI DUP1 PUSH4 0xCCD34CD5 EQ PUSH2 0x3D4 JUMPI PUSH1 0x0 DUP1 REVERT JUMPDEST DUP1 PUSH4 0x93F1A40B GT PUSH2 0xDE JUMPI DUP1 PUSH4 0x93F1A40B EQ PUSH2 0x332 JUMPI DUP1 PUSH4 0x9513997F EQ PUSH2 0x36C JUMPI DUP1 PUSH4 0x98969E82 EQ PUSH2 0x37F JUMPI DUP1 PUSH4 0xA0B40905 EQ PUSH2 0x392 JUMPI PUSH1 0x0 DUP1 REVERT JUMPDEST DUP1 PUSH4 0x8DA5CB5B EQ PUSH2 0x2F0 JUMPI DUP1 PUSH4 0x8F662915 EQ PUSH2 0x315 JUMPI DUP1 PUSH4 0x92E8990E EQ PUSH2 0x31E JUMPI PUSH1 0x0 DUP1 REVERT JUMPDEST DUP1 PUSH4 0x441A3E70 GT PUSH2 0x17C JUMPI DUP1 PUSH4 0x715018A6 GT PUSH2 0x14B JUMPI DUP1 PUSH4 0x715018A6 EQ PUSH2 0x2C4 JUMPI DUP1 PUSH4 0x80DC0672 EQ PUSH2 0x2CC JUMPI DUP1 PUSH4 0x83A5041C EQ PUSH2 0x2D4 JUMPI DUP1 PUSH4 0x8AE39CAC EQ PUSH2 0x2E7 JUMPI PUSH1 0x0 DUP1 REVERT JUMPDEST DUP1 PUSH4 0x441A3E70 EQ PUSH2 0x28C JUMPI DUP1 PUSH4 0x48CD4CB1 EQ PUSH2 0x29F JUMPI DUP1 PUSH4 0x5312EA8E EQ PUSH2 0x2A8 JUMPI DUP1 PUSH4 0x66FE9F8A EQ PUSH2 0x2BB JUMPI PUSH1 0x0 DUP1 REVERT JUMPDEST DUP1 PUSH4 0x1AED6553 GT PUSH2 0x1B8 JUMPI DUP1 PUSH4 0x1AED6553 EQ PUSH2 0x239 JUMPI DUP1 PUSH4 0x3279BEAB EQ PUSH2 0x242 JUMPI DUP1 PUSH4 0x392E53CD EQ PUSH2 0x255 JUMPI DUP1 PUSH4 0x3F138D4B EQ PUSH2 0x279 JUMPI PUSH1 0x0 DUP1 REVERT JUMPDEST DUP1 PUSH4 0x1F8A976 EQ PUSH2 0x1DF JUMPI DUP1 PUSH4 0x81E3EDA EQ PUSH2 0x1F4 JUMPI DUP1 PUSH4 0x1526FE27 EQ PUSH2 0x20B JUMPI JUMPDEST PUSH1 0x0 DUP1 REVERT JUMPDEST PUSH2 0x1F2 PUSH2 0x1ED CALLDATASIZE PUSH1 0x4 PUSH2 0x160B JUMP JUMPDEST PUSH2 0x41E JUMP JUMPDEST STOP JUMPDEST PUSH1 0xC SLOAD JUMPDEST PUSH1 0x40 MLOAD SWAP1 DUP2 MSTORE PUSH1 0x20 ADD JUMPDEST PUSH1 0x40 MLOAD DUP1 SWAP2 SUB SWAP1 RETURN JUMPDEST PUSH2 0x21E PUSH2 0x219 CALLDATASIZE PUSH1 0x4 PUSH2 0x160B JUMP JUMPDEST PUSH2 0x4AA JUMP JUMPDEST PUSH1 0x40 DUP1 MLOAD SWAP4 DUP5 MSTORE PUSH1 0x20 DUP5 ADD SWAP3 SWAP1 SWAP3 MSTORE SWAP1 DUP3 ADD MSTORE PUSH1 0x60 ADD PUSH2 0x202 JUMP JUMPDEST PUSH2 0x1F8 PUSH1 0x4 SLOAD DUP2 JUMP JUMPDEST PUSH2 0x1F2 PUSH2 0x250 CALLDATASIZE PUSH1 0x4 PUSH2 0x160B JUMP JUMPDEST PUSH2 0x4DD JUMP JUMPDEST PUSH1 0x2 SLOAD PUSH2 0x269 SWAP1 PUSH1 0x1 PUSH1 0xA8 SHL SWAP1 DIV PUSH1 0xFF AND DUP2 JUMP JUMPDEST PUSH1 0x40 MLOAD SWAP1 ISZERO ISZERO DUP2 MSTORE PUSH1 0x20 ADD PUSH2 0x202 JUMP JUMPDEST PUSH2 0x1F2 PUSH2 0x287 CALLDATASIZE PUSH1 0x4 PUSH2 0x1639 JUMP JUMPDEST PUSH2 0x4FF JUMP JUMPDEST PUSH2 0x1F2 PUSH2 0x29A CALLDATASIZE PUSH1 0x4 PUSH2 0x1665 JUMP JUMPDEST PUSH2 0x610 JUMP JUMPDEST PUSH2 0x1F8 PUSH1 0x5 SLOAD DUP2 JUMP JUMPDEST PUSH2 0x1F2 PUSH2 0x2B6 CALLDATASIZE PUSH1 0x4 PUSH2 0x160B JUMP JUMPDEST PUSH2 0x7F6 JUMP JUMPDEST PUSH2 0x1F8 PUSH1 0x7 SLOAD DUP2 JUMP JUMPDEST PUSH2 0x1F2 PUSH2 0x884 JUMP JUMPDEST PUSH2 0x1F2 PUSH2 0x898 JUMP JUMPDEST PUSH2 0x1F2 PUSH2 0x2E2 CALLDATASIZE PUSH1 0x4 PUSH2 0x1687 JUMP JUMPDEST PUSH2 0x8A6 JUMP JUMPDEST PUSH2 0x1F8 PUSH1 0x8 SLOAD DUP2 JUMP JUMPDEST PUSH1 0x0 SLOAD PUSH1 0x1 PUSH1 0x1 PUSH1 0xA0 SHL SUB AND JUMPDEST PUSH1 0x40 MLOAD PUSH1 0x1 PUSH1 0x1 PUSH1 0xA0 SHL SUB SWAP1 SWAP2 AND DUP2 MSTORE PUSH1 0x20 ADD PUSH2 0x202 JUMP JUMPDEST PUSH2 0x1F8 PUSH1 0x3 SLOAD DUP2 JUMP JUMPDEST PUSH1 0x2 SLOAD PUSH2 0x269 SWAP1 PUSH1 0x1 PUSH1 0xA0 SHL SWAP1 DIV PUSH1 0xFF AND DUP2 JUMP JUMPDEST PUSH2 0x21E PUSH2 0x340 CALLDATASIZE PUSH1 0x4 PUSH2 0x16F9 JUMP JUMPDEST PUSH1 0xD PUSH1 0x20 SWAP1 DUP2 MSTORE PUSH1 0x0 SWAP3 DUP4 MSTORE PUSH1 0x40 DUP1 DUP5 KECCAK256 SWAP1 SWAP2 MSTORE SWAP1 DUP3 MSTORE SWAP1 KECCAK256 DUP1 SLOAD PUSH1 0x1 DUP3 ADD SLOAD PUSH1 0x2 SWAP1 SWAP3 ADD SLOAD SWAP1 SWAP2 SWAP1 DUP4 JUMP JUMPDEST PUSH2 0x1F2 PUSH2 0x37A CALLDATASIZE PUSH1 0x4 PUSH2 0x1665 JUMP JUMPDEST PUSH2 0xAA9 JUMP JUMPDEST PUSH2 0x1F8 PUSH2 0x38D CALLDATASIZE PUSH1 0x4 PUSH2 0x16F9 JUMP JUMPDEST PUSH2 0xC08 JUMP JUMPDEST PUSH2 0x1F2 PUSH2 0x3A0 CALLDATASIZE PUSH1 0x4 PUSH2 0x1737 JUMP JUMPDEST PUSH2 0xD39 JUMP JUMPDEST PUSH2 0x1F8 PUSH1 0x6 SLOAD DUP2 JUMP JUMPDEST PUSH1 0x2 SLOAD PUSH2 0x2FD SWAP1 PUSH1 0x1 PUSH1 0x1 PUSH1 0xA0 SHL SUB AND DUP2 JUMP JUMPDEST PUSH1 0xB SLOAD PUSH2 0x2FD SWAP1 PUSH1 0x1 PUSH1 0x1 PUSH1 0xA0 SHL SUB AND DUP2 JUMP JUMPDEST PUSH2 0x1F8 PUSH1 0x9 SLOAD DUP2 JUMP JUMPDEST PUSH2 0x1F8 PUSH2 0xE39 JUMP JUMPDEST PUSH2 0x1F2 PUSH2 0x3F3 CALLDATASIZE PUSH1 0x4 PUSH2 0x1665 JUMP JUMPDEST PUSH2 0xEC2 JUMP JUMPDEST PUSH2 0x1F2 PUSH2 0x406 CALLDATASIZE PUSH1 0x4 PUSH2 0x1755 JUMP JUMPDEST PUSH2 0x10A2 JUMP JUMPDEST PUSH1 0xA SLOAD PUSH2 0x2FD SWAP1 PUSH1 0x1 PUSH1 0x1 PUSH1 0xA0 SHL SUB AND DUP2 JUMP JUMPDEST PUSH2 0x426 PUSH2 0x1118 JUMP JUMPDEST PUSH1 0x5 SLOAD NUMBER LT PUSH2 0x46F JUMPI PUSH1 0x40 MLOAD PUSH3 0x461BCD PUSH1 0xE5 SHL DUP2 MSTORE PUSH1 0x20 PUSH1 0x4 DUP3 ADD MSTORE PUSH1 0x10 PUSH1 0x24 DUP3 ADD MSTORE PUSH16 0x141BDBDB081A185CC81CDD185C9D1959 PUSH1 0x82 SHL PUSH1 0x44 DUP3 ADD MSTORE PUSH1 0x64 ADD JUMPDEST PUSH1 0x40 MLOAD DUP1 SWAP2 SUB SWAP1 REVERT JUMPDEST PUSH1 0x8 DUP2 SWAP1 SSTORE PUSH1 0x40 MLOAD DUP2 DUP2 MSTORE PUSH32 0xC4D677EEF92893AC7EC52FAF8140FC6C851AB4736302B4F3A89DFB20696A0DF SWAP1 PUSH1 0x20 ADD PUSH1 0x40 MLOAD DUP1 SWAP2 SUB SWAP1 LOG1 POP JUMP JUMPDEST PUSH1 0xC DUP2 DUP2 SLOAD DUP2 LT PUSH2 0x4BA JUMPI PUSH1 0x0 DUP1 REVERT JUMPDEST PUSH1 0x0 SWAP2 DUP3 MSTORE PUSH1 0x20 SWAP1 SWAP2 KECCAK256 PUSH1 0x3 SWAP1 SWAP2 MUL ADD DUP1 SLOAD PUSH1 0x1 DUP3 ADD SLOAD PUSH1 0x2 SWAP1 SWAP3 ADD SLOAD SWAP1 SWAP3 POP DUP4 JUMP JUMPDEST PUSH2 0x4E5 PUSH2 0x1118 JUMP JUMPDEST PUSH1 0xA SLOAD PUSH2 0x4FC SWAP1 PUSH1 0x1 PUSH1 0x1 PUSH1 0xA0 SHL SUB AND CALLER DUP4 PUSH2 0x1172 JUMP JUMPDEST POP JUMP JUMPDEST PUSH2 0x507 PUSH2 0x1118 JUMP JUMPDEST PUSH1 0xB SLOAD PUSH1 0x1 PUSH1 0x1 PUSH1 0xA0 SHL SUB SWAP1 DUP2 AND SWAP1 DUP4 AND SUB PUSH2 0x55E JUMPI PUSH1 0x40 MLOAD PUSH3 0x461BCD PUSH1 0xE5 SHL DUP2 MSTORE PUSH1 0x20 PUSH1 0x4 DUP3 ADD MSTORE PUSH1 0x16 PUSH1 0x24 DUP3 ADD MSTORE PUSH22 0x21B0B73737BA1031329039BA30B5B2B2103A37B5B2B7 PUSH1 0x51 SHL PUSH1 0x44 DUP3 ADD MSTORE PUSH1 0x64 ADD PUSH2 0x466 JUMP JUMPDEST PUSH1 0xA SLOAD PUSH1 0x1 PUSH1 0x1 PUSH1 0xA0 SHL SUB SWAP1 DUP2 AND SWAP1 DUP4 AND SUB PUSH2 0x5B5 JUMPI PUSH1 0x40 MLOAD PUSH3 0x461BCD PUSH1 0xE5 SHL DUP2 MSTORE PUSH1 0x20 PUSH1 0x4 DUP3 ADD MSTORE PUSH1 0x16 PUSH1 0x24 DUP3 ADD MSTORE PUSH22 0x21B0B73737BA103132903932BBB0B932103A37B5B2B7 PUSH1 0x51 SHL PUSH1 0x44 DUP3 ADD MSTORE PUSH1 0x64 ADD PUSH2 0x466 JUMP JUMPDEST PUSH2 0x5C9 PUSH1 0x1 PUSH1 0x1 PUSH1 0xA0 SHL SUB DUP4 AND CALLER DUP4 PUSH2 0x1172 JUMP JUMPDEST PUSH1 0x40 DUP1 MLOAD PUSH1 0x1 PUSH1 0x1 PUSH1 0xA0 SHL SUB DUP5 AND DUP2 MSTORE PUSH1 0x20 DUP2 ADD DUP4 SWAP1 MSTORE PUSH32 0x74545154AAC348A3EAC92596BD1971957CA94795F4E954EC5F613B55FAB78129 SWAP2 ADD JUMPDEST PUSH1 0x40 MLOAD DUP1 SWAP2 SUB SWAP1 LOG1 POP POP JUMP JUMPDEST PUSH2 0x618 PUSH2 0x11DA JUMP JUMPDEST PUSH1 0x0 DUP3 DUP2 MSTORE PUSH1 0xD PUSH1 0x20 SWAP1 DUP2 MSTORE PUSH1 0x40 DUP1 DUP4 KECCAK256 CALLER DUP5 MSTORE SWAP1 SWAP2 MSTORE SWAP1 KECCAK256 DUP1 SLOAD DUP3 GT ISZERO PUSH2 0x68C JUMPI PUSH1 0x40 MLOAD PUSH3 0x461BCD PUSH1 0xE5 SHL DUP2 MSTORE PUSH1 0x20 PUSH1 0x4 DUP3 ADD MSTORE PUSH1 0x21 PUSH1 0x24 DUP3 ADD MSTORE PUSH32 0x42464C593A20416D6F756E7420746F20776974686472617720746F6F20686967 PUSH1 0x44 DUP3 ADD MSTORE PUSH1 0xD PUSH1 0xFB SHL PUSH1 0x64 DUP3 ADD MSTORE PUSH1 0x84 ADD PUSH2 0x466 JUMP JUMPDEST PUSH1 0x0 PUSH1 0xC DUP5 DUP2 SLOAD DUP2 LT PUSH2 0x6A1 JUMPI PUSH2 0x6A1 PUSH2 0x1772 JUMP JUMPDEST SWAP1 PUSH1 0x0 MSTORE PUSH1 0x20 PUSH1 0x0 KECCAK256 SWAP1 PUSH1 0x3 MUL ADD SWAP1 POP TIMESTAMP PUSH2 0x6CD DUP3 PUSH1 0x0 ADD SLOAD DUP5 PUSH1 0x2 ADD SLOAD PUSH2 0x1233 SWAP1 SWAP2 SWAP1 PUSH4 0xFFFFFFFF AND JUMP JUMPDEST LT ISZERO PUSH2 0x6DC JUMPI PUSH2 0x6DC DUP5 PUSH2 0x7F6 JUMP JUMPDEST PUSH2 0x6E4 PUSH2 0x1246 JUMP JUMPDEST PUSH1 0x0 PUSH2 0x727 DUP4 PUSH1 0x1 ADD SLOAD PUSH2 0x721 PUSH1 0x9 SLOAD PUSH2 0x71B PUSH1 0x3 SLOAD PUSH2 0x715 DUP9 PUSH1 0x1 ADD SLOAD DUP11 PUSH1 0x0 ADD SLOAD PUSH2 0x12BD SWAP1 SWAP2 SWAP1 PUSH4 0xFFFFFFFF AND JUMP JUMPDEST SWAP1 PUSH2 0x12BD JUMP JUMPDEST SWAP1 PUSH2 0x12C9 JUMP JUMPDEST SWAP1 PUSH2 0x12D5 JUMP JUMPDEST SWAP1 POP DUP4 ISZERO PUSH2 0x768 JUMPI DUP3 SLOAD PUSH2 0x73B SWAP1 DUP6 PUSH2 0x12D5 JUMP JUMPDEST DUP4 SSTORE PUSH1 0x2 DUP3 ADD SLOAD PUSH2 0x74C SWAP1 DUP6 PUSH2 0x12D5 JUMP JUMPDEST PUSH1 0x2 DUP4 ADD SSTORE PUSH1 0xB SLOAD PUSH2 0x768 SWAP1 PUSH1 0x1 PUSH1 0x1 PUSH1 0xA0 SHL SUB AND CALLER DUP7 PUSH2 0x1172 JUMP JUMPDEST DUP1 ISZERO PUSH2 0x785 JUMPI PUSH1 0xA SLOAD PUSH2 0x785 SWAP1 PUSH1 0x1 PUSH1 0x1 PUSH1 0xA0 SHL SUB AND CALLER DUP4 PUSH2 0x1172 JUMP JUMPDEST PUSH2 0x7AC PUSH1 0x9 SLOAD PUSH2 0x71B PUSH1 0x3 SLOAD PUSH2 0x715 DUP7 PUSH1 0x1 ADD SLOAD DUP9 PUSH1 0x0 ADD SLOAD PUSH2 0x12BD SWAP1 SWAP2 SWAP1 PUSH4 0xFFFFFFFF AND JUMP JUMPDEST PUSH1 0x1 DUP5 ADD SSTORE PUSH1 0x40 MLOAD DUP5 DUP2 MSTORE CALLER SWAP1 PUSH32 0x884EDAD9CE6FA2440D8A54CC123490EB96D2768479D49FF9C7366125A9424364 SWAP1 PUSH1 0x20 ADD PUSH1 0x40 MLOAD DUP1 SWAP2 SUB SWAP1 LOG2 POP POP POP PUSH2 0x7F2 PUSH1 0x1 DUP1 SSTORE JUMP JUMPDEST POP POP JUMP JUMPDEST PUSH2 0x7FE PUSH2 0x11DA JUMP JUMPDEST PUSH1 0x0 DUP2 DUP2 MSTORE PUSH1 0xD PUSH1 0x20 SWAP1 DUP2 MSTORE PUSH1 0x40 DUP1 DUP4 KECCAK256 CALLER DUP5 MSTORE SWAP1 SWAP2 MSTORE DUP2 KECCAK256 DUP1 SLOAD DUP3 DUP3 SSTORE PUSH1 0x1 DUP3 ADD SWAP3 SWAP1 SWAP3 SSTORE SWAP1 DUP1 ISZERO PUSH2 0x842 JUMPI PUSH1 0xB SLOAD PUSH2 0x842 SWAP1 PUSH1 0x1 PUSH1 0x1 PUSH1 0xA0 SHL SUB AND CALLER DUP4 PUSH2 0x1172 JUMP JUMPDEST DUP2 SLOAD PUSH1 0x40 MLOAD SWAP1 DUP2 MSTORE CALLER SWAP1 PUSH32 0x5FAFA99D0643513820BE26656B45130B01E1C03062E1266BF36F88CBD3BD9695 SWAP1 PUSH1 0x20 ADD PUSH1 0x40 MLOAD DUP1 SWAP2 SUB SWAP1 LOG2 POP POP PUSH2 0x4FC PUSH1 0x1 DUP1 SSTORE JUMP JUMPDEST PUSH2 0x88C PUSH2 0x1118 JUMP JUMPDEST PUSH2 0x896 PUSH1 0x0 PUSH2 0x12E1 JUMP JUMPDEST JUMP JUMPDEST PUSH2 0x8A0 PUSH2 0x1118 JUMP JUMPDEST NUMBER PUSH1 0x4 SSTORE JUMP JUMPDEST PUSH1 0x2 SLOAD PUSH1 0x1 PUSH1 0xA8 SHL SWAP1 DIV PUSH1 0xFF AND ISZERO PUSH2 0x8F5 JUMPI PUSH1 0x40 MLOAD PUSH3 0x461BCD PUSH1 0xE5 SHL DUP2 MSTORE PUSH1 0x20 PUSH1 0x4 DUP3 ADD MSTORE PUSH1 0x12 PUSH1 0x24 DUP3 ADD MSTORE PUSH18 0x109193164E881053149150511657D2539255 PUSH1 0x72 SHL PUSH1 0x44 DUP3 ADD MSTORE PUSH1 0x64 ADD PUSH2 0x466 JUMP JUMPDEST PUSH1 0x2 SLOAD PUSH1 0x1 PUSH1 0x1 PUSH1 0xA0 SHL SUB AND CALLER EQ PUSH2 0x943 JUMPI PUSH1 0x40 MLOAD PUSH3 0x461BCD PUSH1 0xE5 SHL DUP2 MSTORE PUSH1 0x20 PUSH1 0x4 DUP3 ADD MSTORE PUSH1 0x11 PUSH1 0x24 DUP3 ADD MSTORE PUSH17 0x42464C593A204E4F545F464143544F5259 PUSH1 0x78 SHL PUSH1 0x44 DUP3 ADD MSTORE PUSH1 0x64 ADD PUSH2 0x466 JUMP JUMPDEST PUSH1 0x2 DUP1 SLOAD PUSH1 0xFF PUSH1 0xA8 SHL NOT AND PUSH1 0x1 PUSH1 0xA8 SHL OR SWAP1 SSTORE PUSH1 0xB DUP1 SLOAD PUSH1 0x1 PUSH1 0x1 PUSH1 0xA0 SHL SUB DUP1 DUP11 AND PUSH1 0x1 PUSH1 0x1 PUSH1 0xA0 SHL SUB NOT SWAP3 DUP4 AND OR SWAP1 SWAP3 SSTORE PUSH1 0xA DUP1 SLOAD SWAP3 DUP10 AND SWAP3 SWAP1 SWAP2 AND SWAP2 SWAP1 SWAP2 OR SWAP1 SSTORE PUSH1 0x8 DUP6 SWAP1 SSTORE PUSH1 0x5 DUP5 SWAP1 SSTORE PUSH1 0x4 DUP4 SWAP1 SSTORE DUP2 ISZERO PUSH2 0x9B4 JUMPI PUSH1 0x2 DUP1 SLOAD PUSH1 0xFF PUSH1 0xA0 SHL NOT AND PUSH1 0x1 PUSH1 0xA0 SHL OR SWAP1 SSTORE PUSH1 0x7 DUP3 SWAP1 SSTORE JUMPDEST PUSH1 0xA SLOAD PUSH1 0x40 DUP1 MLOAD PUSH4 0x313CE567 PUSH1 0xE0 SHL DUP2 MSTORE SWAP1 MLOAD PUSH1 0x0 SWAP3 PUSH1 0x1 PUSH1 0x1 PUSH1 0xA0 SHL SUB AND SWAP2 PUSH4 0x313CE567 SWAP2 PUSH1 0x4 DUP1 DUP4 ADD SWAP3 PUSH1 0x20 SWAP3 SWAP2 SWAP1 DUP3 SWAP1 SUB ADD DUP2 DUP7 GAS STATICCALL ISZERO DUP1 ISZERO PUSH2 0x9FE JUMPI RETURNDATASIZE PUSH1 0x0 DUP1 RETURNDATACOPY RETURNDATASIZE PUSH1 0x0 REVERT JUMPDEST POP POP POP POP PUSH1 0x40 MLOAD RETURNDATASIZE PUSH1 0x1F NOT PUSH1 0x1F DUP3 ADD AND DUP3 ADD DUP1 PUSH1 0x40 MSTORE POP DUP2 ADD SWAP1 PUSH2 0xA22 SWAP2 SWAP1 PUSH2 0x1788 JUMP JUMPDEST PUSH1 0xFF AND SWAP1 POP PUSH1 0x1E DUP2 LT PUSH2 0xA77 JUMPI PUSH1 0x40 MLOAD PUSH3 0x461BCD PUSH1 0xE5 SHL DUP2 MSTORE PUSH1 0x20 PUSH1 0x4 DUP3 ADD MSTORE PUSH1 0x1C PUSH1 0x24 DUP3 ADD MSTORE PUSH32 0x42464C593A204D75737420626520696E666572696F7220746F20333000000000 PUSH1 0x44 DUP3 ADD MSTORE PUSH1 0x64 ADD PUSH2 0x466 JUMP JUMPDEST PUSH2 0xA82 PUSH1 0x1E DUP3 PUSH2 0x12D5 JUMP JUMPDEST PUSH2 0xA8D SWAP1 PUSH1 0xA PUSH2 0x18A5 JUMP JUMPDEST PUSH1 0x9 SSTORE PUSH1 0x5 SLOAD PUSH1 0x6 SSTORE PUSH2 0xA9F DUP3 PUSH2 0x10A2 JUMP JUMPDEST POP POP POP POP POP POP POP POP JUMP JUMPDEST PUSH2 0xAB1 PUSH2 0x1118 JUMP JUMPDEST PUSH1 0x5 SLOAD NUMBER LT PUSH2 0xAF5 JUMPI PUSH1 0x40 MLOAD PUSH3 0x461BCD PUSH1 0xE5 SHL DUP2 MSTORE PUSH1 0x20 PUSH1 0x4 DUP3 ADD MSTORE PUSH1 0x10 PUSH1 0x24 DUP3 ADD MSTORE PUSH16 0x141BDBDB081A185CC81CDD185C9D1959 PUSH1 0x82 SHL PUSH1 0x44 DUP3 ADD MSTORE PUSH1 0x64 ADD PUSH2 0x466 JUMP JUMPDEST DUP1 DUP3 LT PUSH2 0xB5B JUMPI PUSH1 0x40 MLOAD PUSH3 0x461BCD PUSH1 0xE5 SHL DUP2 MSTORE PUSH1 0x20 PUSH1 0x4 DUP3 ADD MSTORE PUSH1 0x2E PUSH1 0x24 DUP3 ADD MSTORE PUSH32 0x4E6577207374617274426C6F636B206D757374206265206C6F77657220746861 PUSH1 0x44 DUP3 ADD MSTORE PUSH14 0x6E206E657720656E64426C6F636B PUSH1 0x90 SHL PUSH1 0x64 DUP3 ADD MSTORE PUSH1 0x84 ADD PUSH2 0x466 JUMP JUMPDEST DUP2 NUMBER LT PUSH2 0xBC3 JUMPI PUSH1 0x40 MLOAD PUSH3 0x461BCD PUSH1 0xE5 SHL DUP2 MSTORE PUSH1 0x20 PUSH1 0x4 DUP3 ADD MSTORE PUSH1 0x30 PUSH1 0x24 DUP3 ADD MSTORE PUSH32 0x4E6577207374617274426C6F636B206D75737420626520686967686572207468 PUSH1 0x44 DUP3 ADD MSTORE PUSH16 0x616E2063757272656E7420626C6F636B PUSH1 0x80 SHL PUSH1 0x64 DUP3 ADD MSTORE PUSH1 0x84 ADD PUSH2 0x466 JUMP JUMPDEST PUSH1 0x5 DUP3 SWAP1 SSTORE PUSH1 0x4 DUP2 SWAP1 SSTORE PUSH1 0x6 DUP3 SWAP1 SSTORE PUSH1 0x40 DUP1 MLOAD DUP4 DUP2 MSTORE PUSH1 0x20 DUP2 ADD DUP4 SWAP1 MSTORE PUSH32 0x7CD0AB87D19036F3DFADADB232C78AA4879DDA3F0C994A9D637532410EE2CE06 SWAP2 ADD PUSH2 0x604 JUMP JUMPDEST PUSH1 0x0 DUP3 DUP2 MSTORE PUSH1 0xD PUSH1 0x20 SWAP1 DUP2 MSTORE PUSH1 0x40 DUP1 DUP4 KECCAK256 PUSH1 0x1 PUSH1 0x1 PUSH1 0xA0 SHL SUB DUP6 AND DUP5 MSTORE SWAP1 SWAP2 MSTORE DUP2 KECCAK256 PUSH1 0xC DUP1 SLOAD DUP4 SWAP2 SWAP1 DUP7 SWAP1 DUP2 LT PUSH2 0xC41 JUMPI PUSH2 0xC41 PUSH2 0x1772 JUMP JUMPDEST SWAP1 PUSH1 0x0 MSTORE PUSH1 0x20 PUSH1 0x0 KECCAK256 SWAP1 PUSH1 0x3 MUL ADD SWAP1 POP PUSH1 0x0 PUSH2 0xC5B PUSH2 0xE39 JUMP JUMPDEST SWAP1 POP PUSH1 0x6 SLOAD NUMBER GT DUP1 ISZERO PUSH2 0xC6D JUMPI POP DUP1 ISZERO ISZERO JUMPDEST ISZERO PUSH2 0xCFE JUMPI PUSH1 0x0 PUSH2 0xC80 PUSH1 0x6 SLOAD NUMBER PUSH2 0x1331 JUMP JUMPDEST SWAP1 POP PUSH1 0x0 PUSH2 0xC99 PUSH1 0x8 SLOAD DUP4 PUSH2 0x12BD SWAP1 SWAP2 SWAP1 PUSH4 0xFFFFFFFF AND JUMP JUMPDEST SWAP1 POP PUSH1 0x0 PUSH2 0xCC2 PUSH2 0xCB9 DUP6 PUSH2 0x71B PUSH1 0x9 SLOAD DUP7 PUSH2 0x12BD SWAP1 SWAP2 SWAP1 PUSH4 0xFFFFFFFF AND JUMP JUMPDEST PUSH1 0x3 SLOAD SWAP1 PUSH2 0x1233 JUMP JUMPDEST SWAP1 POP PUSH2 0xCF1 DUP7 PUSH1 0x1 ADD SLOAD PUSH2 0x721 PUSH1 0x9 SLOAD PUSH2 0x71B DUP6 PUSH2 0x715 DUP12 PUSH1 0x1 ADD SLOAD DUP14 PUSH1 0x0 ADD SLOAD PUSH2 0x12BD SWAP1 SWAP2 SWAP1 PUSH4 0xFFFFFFFF AND JUMP JUMPDEST SWAP7 POP POP POP POP POP POP POP PUSH2 0xD33 JUMP JUMPDEST PUSH2 0xD2D DUP4 PUSH1 0x1 ADD SLOAD PUSH2 0x721 PUSH1 0x9 SLOAD PUSH2 0x71B PUSH1 0x3 SLOAD PUSH2 0x715 DUP9 PUSH1 0x1 ADD SLOAD DUP11 PUSH1 0x0 ADD SLOAD PUSH2 0x12BD SWAP1 SWAP2 SWAP1 PUSH4 0xFFFFFFFF AND JUMP JUMPDEST SWAP4 POP POP POP POP JUMPDEST SWAP3 SWAP2 POP POP JUMP JUMPDEST PUSH2 0xD41 PUSH2 0x1118 JUMP JUMPDEST PUSH1 0x2 SLOAD PUSH1 0x1 PUSH1 0xA0 SHL SWAP1 DIV PUSH1 0xFF AND PUSH2 0xD88 JUMPI PUSH1 0x40 MLOAD PUSH3 0x461BCD PUSH1 0xE5 SHL DUP2 MSTORE PUSH1 0x20 PUSH1 0x4 DUP3 ADD MSTORE PUSH1 0xB PUSH1 0x24 DUP3 ADD MSTORE PUSH11 0x135D5CDD081899481CD95D PUSH1 0xAA SHL PUSH1 0x44 DUP3 ADD MSTORE PUSH1 0x64 ADD PUSH2 0x466 JUMP JUMPDEST DUP2 ISZERO PUSH2 0xDE9 JUMPI PUSH1 0x7 SLOAD DUP2 GT PUSH2 0xDDF JUMPI PUSH1 0x40 MLOAD PUSH3 0x461BCD PUSH1 0xE5 SHL DUP2 MSTORE PUSH1 0x20 PUSH1 0x4 DUP3 ADD MSTORE PUSH1 0x18 PUSH1 0x24 DUP3 ADD MSTORE PUSH32 0x4E6577206C696D6974206D757374206265206869676865720000000000000000 PUSH1 0x44 DUP3 ADD MSTORE PUSH1 0x64 ADD PUSH2 0x466 JUMP JUMPDEST PUSH1 0x7 DUP2 SWAP1 SSTORE PUSH2 0xE06 JUMP JUMPDEST PUSH1 0x2 DUP1 SLOAD PUSH1 0xFF PUSH1 0xA0 SHL NOT AND PUSH1 0x1 PUSH1 0xA0 SHL DUP5 ISZERO ISZERO MUL OR SWAP1 SSTORE PUSH1 0x0 PUSH1 0x7 SSTORE JUMPDEST PUSH32 0x241F67EE5F41B7A5CABF911367329BE7215900F602EBFC47F89DCE2A6BCD847C PUSH1 0x7 SLOAD PUSH1 0x40 MLOAD PUSH2 0x604 SWAP2 DUP2 MSTORE PUSH1 0x20 ADD SWAP1 JUMP JUMPDEST PUSH1 0x0 DUP1 JUMPDEST PUSH1 0xC SLOAD DUP2 LT ISZERO PUSH2 0xEBE JUMPI PUSH2 0xEAC PUSH2 0xEA5 PUSH1 0xC DUP4 DUP2 SLOAD DUP2 LT PUSH2 0xE60 JUMPI PUSH2 0xE60 PUSH2 0x1772 JUMP JUMPDEST SWAP1 PUSH1 0x0 MSTORE PUSH1 0x20 PUSH1 0x0 KECCAK256 SWAP1 PUSH1 0x3 MUL ADD PUSH1 0x1 ADD SLOAD PUSH1 0xC DUP5 DUP2 SLOAD DUP2 LT PUSH2 0xE85 JUMPI PUSH2 0xE85 PUSH2 0x1772 JUMP JUMPDEST SWAP1 PUSH1 0x0 MSTORE PUSH1 0x20 PUSH1 0x0 KECCAK256 SWAP1 PUSH1 0x3 MUL ADD PUSH1 0x2 ADD SLOAD PUSH2 0x12BD SWAP1 SWAP2 SWAP1 PUSH4 0xFFFFFFFF AND JUMP JUMPDEST DUP4 SWAP1 PUSH2 0x1233 JUMP JUMPDEST SWAP2 POP PUSH2 0xEB7 DUP2 PUSH2 0x18B1 JUMP JUMPDEST SWAP1 POP PUSH2 0xE3D JUMP JUMPDEST POP SWAP1 JUMP JUMPDEST PUSH2 0xECA PUSH2 0x11DA JUMP JUMPDEST PUSH1 0x0 DUP3 DUP2 MSTORE PUSH1 0xD PUSH1 0x20 SWAP1 DUP2 MSTORE PUSH1 0x40 DUP1 DUP4 KECCAK256 CALLER DUP5 MSTORE SWAP1 SWAP2 MSTORE DUP2 KECCAK256 PUSH1 0xC DUP1 SLOAD SWAP2 SWAP3 SWAP2 DUP6 SWAP1 DUP2 LT PUSH2 0xEFA JUMPI PUSH2 0xEFA PUSH2 0x1772 JUMP JUMPDEST SWAP1 PUSH1 0x0 MSTORE PUSH1 0x20 PUSH1 0x0 KECCAK256 SWAP1 PUSH1 0x3 MUL ADD SWAP1 POP PUSH1 0x2 PUSH1 0x14 SWAP1 SLOAD SWAP1 PUSH2 0x100 EXP SWAP1 DIV PUSH1 0xFF AND ISZERO PUSH2 0xF7D JUMPI PUSH1 0x7 SLOAD DUP3 SLOAD PUSH2 0xF2F SWAP1 DUP6 SWAP1 PUSH2 0x1233 JUMP JUMPDEST GT ISZERO PUSH2 0xF7D JUMPI PUSH1 0x40 MLOAD PUSH3 0x461BCD PUSH1 0xE5 SHL DUP2 MSTORE PUSH1 0x20 PUSH1 0x4 DUP3 ADD MSTORE PUSH1 0x1D PUSH1 0x24 DUP3 ADD MSTORE PUSH32 0x42464C593A205573657220616D6F756E742061626F7665206C696D6974000000 PUSH1 0x44 DUP3 ADD MSTORE PUSH1 0x64 ADD PUSH2 0x466 JUMP JUMPDEST PUSH2 0xF85 PUSH2 0x1246 JUMP JUMPDEST DUP2 SLOAD ISZERO PUSH2 0xFF6 JUMPI DUP1 SLOAD PUSH1 0x2 DUP4 ADD SLOAD TIMESTAMP SWAP2 PUSH2 0xF9F SWAP2 SWAP1 PUSH2 0x1233 JUMP JUMPDEST GT ISZERO PUSH2 0xFEF JUMPI PUSH1 0x0 PUSH2 0xFCE DUP4 PUSH1 0x1 ADD SLOAD PUSH2 0x721 PUSH1 0x9 SLOAD PUSH2 0x71B PUSH1 0x3 SLOAD DUP9 PUSH1 0x0 ADD SLOAD PUSH2 0x12BD SWAP1 SWAP2 SWAP1 PUSH4 0xFFFFFFFF AND JUMP JUMPDEST SWAP1 POP DUP1 ISZERO PUSH2 0xFED JUMPI PUSH1 0xA SLOAD PUSH2 0xFED SWAP1 PUSH1 0x1 PUSH1 0x1 PUSH1 0xA0 SHL SUB AND CALLER DUP4 PUSH2 0x1172 JUMP JUMPDEST POP JUMPDEST TIMESTAMP PUSH1 0x2 DUP4 ADD SSTORE JUMPDEST DUP3 ISZERO PUSH2 0x1036 JUMPI DUP2 SLOAD PUSH2 0x1008 SWAP1 DUP5 PUSH2 0x1233 JUMP JUMPDEST DUP3 SSTORE PUSH1 0x2 DUP2 ADD SLOAD PUSH2 0x1019 SWAP1 DUP5 PUSH2 0x1233 JUMP JUMPDEST PUSH1 0x2 DUP3 ADD SSTORE PUSH1 0xB SLOAD PUSH2 0x1036 SWAP1 PUSH1 0x1 PUSH1 0x1 PUSH1 0xA0 SHL SUB AND CALLER ADDRESS DUP7 PUSH2 0x136B JUMP JUMPDEST PUSH2 0x105D PUSH1 0x9 SLOAD PUSH2 0x71B PUSH1 0x3 SLOAD PUSH2 0x715 DUP6 PUSH1 0x1 ADD SLOAD DUP8 PUSH1 0x0 ADD SLOAD PUSH2 0x12BD SWAP1 SWAP2 SWAP1 PUSH4 0xFFFFFFFF AND JUMP JUMPDEST PUSH1 0x1 DUP4 ADD SSTORE PUSH1 0x40 MLOAD DUP4 DUP2 MSTORE CALLER SWAP1 PUSH32 0xE1FFFCC4923D04B559F4D29A8BFC6CDA04EB5B0D3C460751C2402C5C5CC9109C SWAP1 PUSH1 0x20 ADD PUSH1 0x40 MLOAD DUP1 SWAP2 SUB SWAP1 LOG2 POP POP PUSH2 0x7F2 PUSH1 0x1 DUP1 SSTORE JUMP JUMPDEST PUSH2 0x10AA PUSH2 0x1118 JUMP JUMPDEST PUSH1 0x1 PUSH1 0x1 PUSH1 0xA0 SHL SUB DUP2 AND PUSH2 0x110F JUMPI PUSH1 0x40 MLOAD PUSH3 0x461BCD PUSH1 0xE5 SHL DUP2 MSTORE PUSH1 0x20 PUSH1 0x4 DUP3 ADD MSTORE PUSH1 0x26 PUSH1 0x24 DUP3 ADD MSTORE PUSH32 0x4F776E61626C653A206E6577206F776E657220697320746865207A65726F2061 PUSH1 0x44 DUP3 ADD MSTORE PUSH6 0x646472657373 PUSH1 0xD0 SHL PUSH1 0x64 DUP3 ADD MSTORE PUSH1 0x84 ADD PUSH2 0x466 JUMP JUMPDEST PUSH2 0x4FC DUP2 PUSH2 0x12E1 JUMP JUMPDEST PUSH1 0x0 SLOAD PUSH1 0x1 PUSH1 0x1 PUSH1 0xA0 SHL SUB AND CALLER EQ PUSH2 0x896 JUMPI PUSH1 0x40 MLOAD PUSH3 0x461BCD PUSH1 0xE5 SHL DUP2 MSTORE PUSH1 0x20 PUSH1 0x4 DUP3 ADD DUP2 SWAP1 MSTORE PUSH1 0x24 DUP3 ADD MSTORE PUSH32 0x4F776E61626C653A2063616C6C6572206973206E6F7420746865206F776E6572 PUSH1 0x44 DUP3 ADD MSTORE PUSH1 0x64 ADD PUSH2 0x466 JUMP JUMPDEST PUSH1 0x40 MLOAD PUSH1 0x1 PUSH1 0x1 PUSH1 0xA0 SHL SUB DUP4 AND PUSH1 0x24 DUP3 ADD MSTORE PUSH1 0x44 DUP2 ADD DUP3 SWAP1 MSTORE PUSH2 0x11D5 SWAP1 DUP5 SWAP1 PUSH4 0xA9059CBB PUSH1 0xE0 SHL SWAP1 PUSH1 0x64 ADD JUMPDEST PUSH1 0x40 DUP1 MLOAD PUSH1 0x1F NOT DUP2 DUP5 SUB ADD DUP2 MSTORE SWAP2 SWAP1 MSTORE PUSH1 0x20 DUP2 ADD DUP1 MLOAD PUSH1 0x1 PUSH1 0x1 PUSH1 0xE0 SHL SUB AND PUSH1 0x1 PUSH1 0x1 PUSH1 0xE0 SHL SUB NOT SWAP1 SWAP4 AND SWAP3 SWAP1 SWAP3 OR SWAP1 SWAP2 MSTORE PUSH2 0x13A9 JUMP JUMPDEST POP POP POP JUMP JUMPDEST PUSH1 0x2 PUSH1 0x1 SLOAD SUB PUSH2 0x122C JUMPI PUSH1 0x40 MLOAD PUSH3 0x461BCD PUSH1 0xE5 SHL DUP2 MSTORE PUSH1 0x20 PUSH1 0x4 DUP3 ADD MSTORE PUSH1 0x1F PUSH1 0x24 DUP3 ADD MSTORE PUSH32 0x5265656E7472616E637947756172643A207265656E7472616E742063616C6C00 PUSH1 0x44 DUP3 ADD MSTORE PUSH1 0x64 ADD PUSH2 0x466 JUMP JUMPDEST PUSH1 0x2 PUSH1 0x1 SSTORE JUMP JUMPDEST PUSH1 0x0 PUSH2 0x123F DUP3 DUP5 PUSH2 0x18CA JUMP JUMPDEST SWAP4 SWAP3 POP POP POP JUMP JUMPDEST PUSH1 0x6 SLOAD NUMBER GT PUSH2 0x1251 JUMPI JUMP JUMPDEST PUSH1 0x0 PUSH2 0x125B PUSH2 0xE39 JUMP JUMPDEST SWAP1 POP DUP1 PUSH1 0x0 SUB PUSH2 0x126C JUMPI POP NUMBER PUSH1 0x6 SSTORE JUMP JUMPDEST PUSH1 0x0 PUSH2 0x127A PUSH1 0x6 SLOAD NUMBER PUSH2 0x1331 JUMP JUMPDEST SWAP1 POP PUSH1 0x0 PUSH2 0x1293 PUSH1 0x8 SLOAD DUP4 PUSH2 0x12BD SWAP1 SWAP2 SWAP1 PUSH4 0xFFFFFFFF AND JUMP JUMPDEST SWAP1 POP PUSH2 0x12B1 PUSH2 0xCB9 DUP5 PUSH2 0x71B PUSH1 0x9 SLOAD DUP6 PUSH2 0x12BD SWAP1 SWAP2 SWAP1 PUSH4 0xFFFFFFFF AND JUMP JUMPDEST PUSH1 0x3 SSTORE POP POP NUMBER PUSH1 0x6 SSTORE POP JUMP JUMPDEST PUSH1 0x0 PUSH2 0x123F DUP3 DUP5 PUSH2 0x18DD JUMP JUMPDEST PUSH1 0x0 PUSH2 0x123F DUP3 DUP5 PUSH2 0x18F4 JUMP JUMPDEST PUSH1 0x0 PUSH2 0x123F DUP3 DUP5 PUSH2 0x1916 JUMP JUMPDEST PUSH1 0x0 DUP1 SLOAD PUSH1 0x1 PUSH1 0x1 PUSH1 0xA0 SHL SUB DUP4 DUP2 AND PUSH1 0x1 PUSH1 0x1 PUSH1 0xA0 SHL SUB NOT DUP4 AND DUP2 OR DUP5 SSTORE PUSH1 0x40 MLOAD SWAP2 SWAP1 SWAP3 AND SWAP3 DUP4 SWAP2 PUSH32 0x8BE0079C531659141344CD1FD0A4F28419497F9722A3DAAFE3B4186F6B6457E0 SWAP2 SWAP1 LOG3 POP POP JUMP JUMPDEST PUSH1 0x0 PUSH1 0x4 SLOAD DUP3 GT PUSH2 0x134D JUMPI PUSH2 0x1346 DUP3 DUP5 PUSH2 0x12D5 JUMP JUMPDEST SWAP1 POP PUSH2 0xD33 JUMP JUMPDEST PUSH1 0x4 SLOAD DUP4 LT PUSH2 0x135E JUMPI POP PUSH1 0x0 PUSH2 0xD33 JUMP JUMPDEST PUSH1 0x4 SLOAD PUSH2 0x1346 SWAP1 DUP5 PUSH2 0x12D5 JUMP JUMPDEST PUSH1 0x40 MLOAD PUSH1 0x1 PUSH1 0x1 PUSH1 0xA0 SHL SUB DUP1 DUP6 AND PUSH1 0x24 DUP4 ADD MSTORE DUP4 AND PUSH1 0x44 DUP3 ADD MSTORE PUSH1 0x64 DUP2 ADD DUP3 SWAP1 MSTORE PUSH2 0x13A3 SWAP1 DUP6 SWAP1 PUSH4 0x23B872DD PUSH1 0xE0 SHL SWAP1 PUSH1 0x84 ADD PUSH2 0x119E JUMP JUMPDEST POP POP POP POP JUMP JUMPDEST PUSH1 0x0 PUSH2 0x13FE DUP3 PUSH1 0x40 MLOAD DUP1 PUSH1 0x40 ADD PUSH1 0x40 MSTORE DUP1 PUSH1 0x20 DUP2 MSTORE PUSH1 0x20 ADD PUSH32 0x5361666542455032303A206C6F772D6C6576656C2063616C6C206661696C6564 DUP2 MSTORE POP DUP6 PUSH1 0x1 PUSH1 0x1 PUSH1 0xA0 SHL SUB AND PUSH2 0x147B SWAP1 SWAP3 SWAP2 SWAP1 PUSH4 0xFFFFFFFF AND JUMP JUMPDEST DUP1 MLOAD SWAP1 SWAP2 POP ISZERO PUSH2 0x11D5 JUMPI DUP1 DUP1 PUSH1 0x20 ADD SWAP1 MLOAD DUP2 ADD SWAP1 PUSH2 0x141C SWAP2 SWAP1 PUSH2 0x1929 JUMP JUMPDEST PUSH2 0x11D5 JUMPI PUSH1 0x40 MLOAD PUSH3 0x461BCD PUSH1 0xE5 SHL DUP2 MSTORE PUSH1 0x20 PUSH1 0x4 DUP3 ADD MSTORE PUSH1 0x2A PUSH1 0x24 DUP3 ADD MSTORE PUSH32 0x5361666542455032303A204245503230206F7065726174696F6E20646964206E PUSH1 0x44 DUP3 ADD MSTORE PUSH10 0x1BDD081CDD58D8D95959 PUSH1 0xB2 SHL PUSH1 0x64 DUP3 ADD MSTORE PUSH1 0x84 ADD PUSH2 0x466 JUMP JUMPDEST PUSH1 0x60 PUSH2 0x148A DUP5 DUP5 PUSH1 0x0 DUP6 PUSH2 0x1492 JUMP JUMPDEST SWAP5 SWAP4 POP POP POP POP JUMP JUMPDEST PUSH1 0x60 DUP3 SELFBALANCE LT ISZERO PUSH2 0x14F3 JUMPI PUSH1 0x40 MLOAD PUSH3 0x461BCD PUSH1 0xE5 SHL DUP2 MSTORE PUSH1 0x20 PUSH1 0x4 DUP3 ADD MSTORE PUSH1 0x26 PUSH1 0x24 DUP3 ADD MSTORE PUSH32 0x416464726573733A20696E73756666696369656E742062616C616E636520666F PUSH1 0x44 DUP3 ADD MSTORE PUSH6 0x1C8818D85B1B PUSH1 0xD2 SHL PUSH1 0x64 DUP3 ADD MSTORE PUSH1 0x84 ADD PUSH2 0x466 JUMP JUMPDEST PUSH1 0x0 DUP1 DUP7 PUSH1 0x1 PUSH1 0x1 PUSH1 0xA0 SHL SUB AND DUP6 DUP8 PUSH1 0x40 MLOAD PUSH2 0x150F SWAP2 SWAP1 PUSH2 0x196A JUMP JUMPDEST PUSH1 0x0 PUSH1 0x40 MLOAD DUP1 DUP4 SUB DUP2 DUP6 DUP8 GAS CALL SWAP3 POP POP POP RETURNDATASIZE DUP1 PUSH1 0x0 DUP2 EQ PUSH2 0x154C JUMPI PUSH1 0x40 MLOAD SWAP2 POP PUSH1 0x1F NOT PUSH1 0x3F RETURNDATASIZE ADD AND DUP3 ADD PUSH1 0x40 MSTORE RETURNDATASIZE DUP3 MSTORE RETURNDATASIZE PUSH1 0x0 PUSH1 0x20 DUP5 ADD RETURNDATACOPY PUSH2 0x1551 JUMP JUMPDEST PUSH1 0x60 SWAP2 POP JUMPDEST POP SWAP2 POP SWAP2 POP PUSH2 0x1562 DUP8 DUP4 DUP4 DUP8 PUSH2 0x156D JUMP JUMPDEST SWAP8 SWAP7 POP POP POP POP POP POP POP JUMP JUMPDEST PUSH1 0x60 DUP4 ISZERO PUSH2 0x15DC JUMPI DUP3 MLOAD PUSH1 0x0 SUB PUSH2 0x15D5 JUMPI PUSH1 0x1 PUSH1 0x1 PUSH1 0xA0 SHL SUB DUP6 AND EXTCODESIZE PUSH2 0x15D5 JUMPI PUSH1 0x40 MLOAD PUSH3 0x461BCD PUSH1 0xE5 SHL DUP2 MSTORE PUSH1 0x20 PUSH1 0x4 DUP3 ADD MSTORE PUSH1 0x1D PUSH1 0x24 DUP3 ADD MSTORE PUSH32 0x416464726573733A2063616C6C20746F206E6F6E2D636F6E7472616374000000 PUSH1 0x44 DUP3 ADD MSTORE PUSH1 0x64 ADD PUSH2 0x466 JUMP JUMPDEST POP DUP2 PUSH2 0x148A JUMP JUMPDEST PUSH2 0x148A DUP4 DUP4 DUP2 MLOAD ISZERO PUSH2 0x15F1 JUMPI DUP2 MLOAD DUP1 DUP4 PUSH1 0x20 ADD REVERT JUMPDEST DUP1 PUSH1 0x40 MLOAD PUSH3 0x461BCD PUSH1 0xE5 SHL DUP2 MSTORE PUSH1 0x4 ADD PUSH2 0x466 SWAP2 SWAP1 PUSH2 0x1986 JUMP JUMPDEST PUSH1 0x0 PUSH1 0x20 DUP3 DUP5 SUB SLT ISZERO PUSH2 0x161D JUMPI PUSH1 0x0 DUP1 REVERT JUMPDEST POP CALLDATALOAD SWAP2 SWAP1 POP JUMP JUMPDEST PUSH1 0x1 PUSH1 0x1 PUSH1 0xA0 SHL SUB DUP2 AND DUP2 EQ PUSH2 0x4FC JUMPI PUSH1 0x0 DUP1 REVERT JUMPDEST PUSH1 0x0 DUP1 PUSH1 0x40 DUP4 DUP6 SUB SLT ISZERO PUSH2 0x164C JUMPI PUSH1 0x0 DUP1 REVERT JUMPDEST DUP3 CALLDATALOAD PUSH2 0x1657 DUP2 PUSH2 0x1624 JUMP JUMPDEST SWAP5 PUSH1 0x20 SWAP4 SWAP1 SWAP4 ADD CALLDATALOAD SWAP4 POP POP POP JUMP JUMPDEST PUSH1 0x0 DUP1 PUSH1 0x40 DUP4 DUP6 SUB SLT ISZERO PUSH2 0x1678 JUMPI PUSH1 0x0 DUP1 REVERT JUMPDEST POP POP DUP1 CALLDATALOAD SWAP3 PUSH1 0x20 SWAP1 SWAP2 ADD CALLDATALOAD SWAP2 POP JUMP JUMPDEST PUSH1 0x0 DUP1 PUSH1 0x0 DUP1 PUSH1 0x0 DUP1 PUSH1 0x0 PUSH1 0xE0 DUP9 DUP11 SUB SLT ISZERO PUSH2 0x16A2 JUMPI PUSH1 0x0 DUP1 REVERT JUMPDEST DUP8 CALLDATALOAD PUSH2 0x16AD DUP2 PUSH2 0x1624 JUMP JUMPDEST SWAP7 POP PUSH1 0x20 DUP9 ADD CALLDATALOAD PUSH2 0x16BD DUP2 PUSH2 0x1624 JUMP JUMPDEST SWAP6 POP PUSH1 0x40 DUP9 ADD CALLDATALOAD SWAP5 POP PUSH1 0x60 DUP9 ADD CALLDATALOAD SWAP4 POP PUSH1 0x80 DUP9 ADD CALLDATALOAD SWAP3 POP PUSH1 0xA0 DUP9 ADD CALLDATALOAD SWAP2 POP PUSH1 0xC0 DUP9 ADD CALLDATALOAD PUSH2 0x16E9 DUP2 PUSH2 0x1624 JUMP JUMPDEST DUP1 SWAP2 POP POP SWAP3 SWAP6 SWAP9 SWAP2 SWAP5 SWAP8 POP SWAP3 SWAP6 POP JUMP JUMPDEST PUSH1 0x0 DUP1 PUSH1 0x40 DUP4 DUP6 SUB SLT ISZERO PUSH2 0x170C JUMPI PUSH1 0x0 DUP1 REVERT JUMPDEST DUP3 CALLDATALOAD SWAP2 POP PUSH1 0x20 DUP4 ADD CALLDATALOAD PUSH2 0x171E DUP2 PUSH2 0x1624 JUMP JUMPDEST DUP1 SWAP2 POP POP SWAP3 POP SWAP3 SWAP1 POP JUMP JUMPDEST DUP1 ISZERO ISZERO DUP2 EQ PUSH2 0x4FC JUMPI PUSH1 0x0 DUP1 REVERT JUMPDEST PUSH1 0x0 DUP1 PUSH1 0x40 DUP4 DUP6 SUB SLT ISZERO PUSH2 0x174A JUMPI PUSH1 0x0 DUP1 REVERT JUMPDEST DUP3 CALLDATALOAD PUSH2 0x1657 DUP2 PUSH2 0x1729 JUMP JUMPDEST PUSH1 0x0 PUSH1 0x20 DUP3 DUP5 SUB SLT ISZERO PUSH2 0x1767 JUMPI PUSH1 0x0 DUP1 REVERT JUMPDEST DUP2 CALLDATALOAD PUSH2 0x123F DUP2 PUSH2 0x1624 JUMP JUMPDEST PUSH4 0x4E487B71 PUSH1 0xE0 SHL PUSH1 0x0 MSTORE PUSH1 0x32 PUSH1 0x4 MSTORE PUSH1 0x24 PUSH1 0x0 REVERT JUMPDEST PUSH1 0x0 PUSH1 0x20 DUP3 DUP5 SUB SLT ISZERO PUSH2 0x179A JUMPI PUSH1 0x0 DUP1 REVERT JUMPDEST DUP2 MLOAD PUSH1 0xFF DUP2 AND DUP2 EQ PUSH2 0x123F JUMPI PUSH1 0x0 DUP1 REVERT JUMPDEST PUSH4 0x4E487B71 PUSH1 0xE0 SHL PUSH1 0x0 MSTORE PUSH1 0x11 PUSH1 0x4 MSTORE PUSH1 0x24 PUSH1 0x0 REVERT JUMPDEST PUSH1 0x1 DUP2 DUP2 JUMPDEST DUP1 DUP6 GT ISZERO PUSH2 0x17FC JUMPI DUP2 PUSH1 0x0 NOT DIV DUP3 GT ISZERO PUSH2 0x17E2 JUMPI PUSH2 0x17E2 PUSH2 0x17AB JUMP JUMPDEST DUP1 DUP6 AND ISZERO PUSH2 0x17EF JUMPI SWAP2 DUP2 MUL SWAP2 JUMPDEST SWAP4 DUP5 SHR SWAP4 SWAP1 DUP1 MUL SWAP1 PUSH2 0x17C6 JUMP JUMPDEST POP SWAP3 POP SWAP3 SWAP1 POP JUMP JUMPDEST PUSH1 0x0 DUP3 PUSH2 0x1813 JUMPI POP PUSH1 0x1 PUSH2 0xD33 JUMP JUMPDEST DUP2 PUSH2 0x1820 JUMPI POP PUSH1 0x0 PUSH2 0xD33 JUMP JUMPDEST DUP2 PUSH1 0x1 DUP2 EQ PUSH2 0x1836 JUMPI PUSH1 0x2 DUP2 EQ PUSH2 0x1840 JUMPI PUSH2 0x185C JUMP JUMPDEST PUSH1 0x1 SWAP2 POP POP PUSH2 0xD33 JUMP JUMPDEST PUSH1 0xFF DUP5 GT ISZERO PUSH2 0x1851 JUMPI PUSH2 0x1851 PUSH2 0x17AB JUMP JUMPDEST POP POP PUSH1 0x1 DUP3 SHL PUSH2 0xD33 JUMP JUMPDEST POP PUSH1 0x20 DUP4 LT PUSH2 0x133 DUP4 LT AND PUSH1 0x4E DUP5 LT PUSH1 0xB DUP5 LT AND OR ISZERO PUSH2 0x187F JUMPI POP DUP2 DUP2 EXP PUSH2 0xD33 JUMP JUMPDEST PUSH2 0x1889 DUP4 DUP4 PUSH2 0x17C1 JUMP JUMPDEST DUP1 PUSH1 0x0 NOT DIV DUP3 GT ISZERO PUSH2 0x189D JUMPI PUSH2 0x189D PUSH2 0x17AB JUMP JUMPDEST MUL SWAP4 SWAP3 POP POP POP JUMP JUMPDEST PUSH1 0x0 PUSH2 0x123F DUP4 DUP4 PUSH2 0x1804 JUMP JUMPDEST PUSH1 0x0 PUSH1 0x1 DUP3 ADD PUSH2 0x18C3 JUMPI PUSH2 0x18C3 PUSH2 0x17AB JUMP JUMPDEST POP PUSH1 0x1 ADD SWAP1 JUMP JUMPDEST DUP1 DUP3 ADD DUP1 DUP3 GT ISZERO PUSH2 0xD33 JUMPI PUSH2 0xD33 PUSH2 0x17AB JUMP JUMPDEST DUP1 DUP3 MUL DUP2 ISZERO DUP3 DUP3 DIV DUP5 EQ OR PUSH2 0xD33 JUMPI PUSH2 0xD33 PUSH2 0x17AB JUMP JUMPDEST PUSH1 0x0 DUP3 PUSH2 0x1911 JUMPI PUSH4 0x4E487B71 PUSH1 0xE0 SHL PUSH1 0x0 MSTORE PUSH1 0x12 PUSH1 0x4 MSTORE PUSH1 0x24 PUSH1 0x0 REVERT JUMPDEST POP DIV SWAP1 JUMP JUMPDEST DUP2 DUP2 SUB DUP2 DUP2 GT ISZERO PUSH2 0xD33 JUMPI PUSH2 0xD33 PUSH2 0x17AB JUMP JUMPDEST PUSH1 0x0 PUSH1 0x20 DUP3 DUP5 SUB SLT ISZERO PUSH2 0x193B JUMPI PUSH1 0x0 DUP1 REVERT JUMPDEST DUP2 MLOAD PUSH2 0x123F DUP2 PUSH2 0x1729 JUMP JUMPDEST PUSH1 0x0 JUMPDEST DUP4 DUP2 LT ISZERO PUSH2 0x1961 JUMPI DUP2 DUP2 ADD MLOAD DUP4 DUP3 ADD MSTORE PUSH1 0x20 ADD PUSH2 0x1949 JUMP JUMPDEST POP POP PUSH1 0x0 SWAP2 ADD MSTORE JUMP JUMPDEST PUSH1 0x0 DUP3 MLOAD PUSH2 0x197C DUP2 DUP5 PUSH1 0x20 DUP8 ADD PUSH2 0x1946 JUMP JUMPDEST SWAP2 SWAP1 SWAP2 ADD SWAP3 SWAP2 POP POP JUMP JUMPDEST PUSH1 0x20 DUP2 MSTORE PUSH1 0x0 DUP3 MLOAD DUP1 PUSH1 0x20 DUP5 ADD MSTORE PUSH2 0x19A5 DUP2 PUSH1 0x40 DUP6 ADD PUSH1 0x20 DUP8 ADD PUSH2 0x1946 JUMP JUMPDEST PUSH1 0x1F ADD PUSH1 0x1F NOT AND SWAP2 SWAP1 SWAP2 ADD PUSH1 0x40 ADD SWAP3 SWAP2 POP POP JUMP INVALID LOG2 PUSH5 0x6970667358 0x22 SLT KECCAK256 DUP16 SUB PUSH11 0x249AEF3603B7C4A983188C 0xB4 0xF 0xDA ORIGIN 0xAC PUSH15 0xFB53D4E2A528AD4D9408DFA764736F PUSH13 0x63430008110033000000000000 "
				},
				"gasEstimates": {
					"creation": {
						"codeDepositCost": "1327800",
						"executionCost": "73565",
						"totalCost": "1401365"
					},
					"external": {
						"PRECISION_FACTOR()": "2395",
						"SMART_CHEF_FACTORY()": "2404",
						"accTokenPerShare()": "2352",
						"bonusEndBlock()": "2330",
						"deposit(uint256,uint256)": "infinite",
						"emergencyRewardWithdraw(uint256)": "infinite",
						"emergencyWithdraw(uint256)": "infinite",
						"getTotalShares()": "infinite",
						"hasUserLimit()": "2417",
						"initialize(address,address,uint256,uint256,uint256,uint256,address)": "infinite",
						"isInitialized()": "2417",
						"lastRewardBlock()": "2329",
						"owner()": "2366",
						"pendingReward(uint256,address)": "infinite",
						"poolInfo(uint256)": "8949",
						"poolLength()": "2339",
						"poolLimitPerUser()": "2396",
						"recoverWrongTokens(address,uint256)": "infinite",
						"renounceOwnership()": "infinite",
						"rewardPerBlock()": "2395",
						"rewardToken()": "2447",
						"stakedToken()": "2426",
						"startBlock()": "2352",
						"stopReward()": "24480",
						"transferOwnership(address)": "infinite",
						"updatePoolLimitPerUser(bool,uint256)": "37173",
						"updateRewardPerBlock(uint256)": "27722",
						"updateStartAndEndBlocks(uint256,uint256)": "72319",
						"userInfo(uint256,address)": "6936",
						"withdraw(uint256,uint256)": "infinite"
					},
					"internal": {
						"_getMultiplier(uint256,uint256)": "infinite",
						"_updatePool()": "infinite"
					}
				},
				"methodIdentifiers": {
					"PRECISION_FACTOR()": "ccd34cd5",
					"SMART_CHEF_FACTORY()": "bd617191",
					"accTokenPerShare()": "8f662915",
					"bonusEndBlock()": "1aed6553",
					"deposit(uint256,uint256)": "e2bbb158",
					"emergencyRewardWithdraw(uint256)": "3279beab",
					"emergencyWithdraw(uint256)": "5312ea8e",
					"getTotalShares()": "d5002f2e",
					"hasUserLimit()": "92e8990e",
					"initialize(address,address,uint256,uint256,uint256,uint256,address)": "83a5041c",
					"isInitialized()": "392e53cd",
					"lastRewardBlock()": "a9f8d181",
					"owner()": "8da5cb5b",
					"pendingReward(uint256,address)": "98969e82",
					"poolInfo(uint256)": "1526fe27",
					"poolLength()": "081e3eda",
					"poolLimitPerUser()": "66fe9f8a",
					"recoverWrongTokens(address,uint256)": "3f138d4b",
					"renounceOwnership()": "715018a6",
					"rewardPerBlock()": "8ae39cac",
					"rewardToken()": "f7c618c1",
					"stakedToken()": "cc7a262e",
					"startBlock()": "48cd4cb1",
					"stopReward()": "80dc0672",
					"transferOwnership(address)": "f2fde38b",
					"updatePoolLimitPerUser(bool,uint256)": "a0b40905",
					"updateRewardPerBlock(uint256)": "01f8a976",
					"updateStartAndEndBlocks(uint256,uint256)": "9513997f",
					"userInfo(uint256,address)": "93f1a40b",
					"withdraw(uint256,uint256)": "441a3e70"
				}
			},
			"storageLayout": {
				"storage": [
					{
						"astId": 7,
						"contract": "StackMining.sol:StackMining",
						"label": "_owner",
						"offset": 0,
						"slot": "0",
						"type": "t_address"
					},
					{
						"astId": 123,
						"contract": "StackMining.sol:StackMining",
						"label": "_status",
						"offset": 0,
						"slot": "1",
						"type": "t_uint256"
					},
					{
						"astId": 854,
						"contract": "StackMining.sol:StackMining",
						"label": "SMART_CHEF_FACTORY",
						"offset": 0,
						"slot": "2",
						"type": "t_address"
					},
					{
						"astId": 857,
						"contract": "StackMining.sol:StackMining",
						"label": "hasUserLimit",
						"offset": 20,
						"slot": "2",
						"type": "t_bool"
					},
					{
						"astId": 860,
						"contract": "StackMining.sol:StackMining",
						"label": "isInitialized",
						"offset": 21,
						"slot": "2",
						"type": "t_bool"
					},
					{
						"astId": 863,
						"contract": "StackMining.sol:StackMining",
						"label": "accTokenPerShare",
						"offset": 0,
						"slot": "3",
						"type": "t_uint256"
					},
					{
						"astId": 866,
						"contract": "StackMining.sol:StackMining",
						"label": "bonusEndBlock",
						"offset": 0,
						"slot": "4",
						"type": "t_uint256"
					},
					{
						"astId": 869,
						"contract": "StackMining.sol:StackMining",
						"label": "startBlock",
						"offset": 0,
						"slot": "5",
						"type": "t_uint256"
					},
					{
						"astId": 872,
						"contract": "StackMining.sol:StackMining",
						"label": "lastRewardBlock",
						"offset": 0,
						"slot": "6",
						"type": "t_uint256"
					},
					{
						"astId": 875,
						"contract": "StackMining.sol:StackMining",
						"label": "poolLimitPerUser",
						"offset": 0,
						"slot": "7",
						"type": "t_uint256"
					},
					{
						"astId": 878,
						"contract": "StackMining.sol:StackMining",
						"label": "rewardPerBlock",
						"offset": 0,
						"slot": "8",
						"type": "t_uint256"
					},
					{
						"astId": 881,
						"contract": "StackMining.sol:StackMining",
						"label": "PRECISION_FACTOR",
						"offset": 0,
						"slot": "9",
						"type": "t_uint256"
					},
					{
						"astId": 885,
						"contract": "StackMining.sol:StackMining",
						"label": "rewardToken",
						"offset": 0,
						"slot": "10",
						"type": "t_contract(IBEP20)2018"
					},
					{
						"astId": 889,
						"contract": "StackMining.sol:StackMining",
						"label": "stakedToken",
						"offset": 0,
						"slot": "11",
						"type": "t_contract(IBEP20)2018"
					},
					{
						"astId": 907,
						"contract": "StackMining.sol:StackMining",
						"label": "poolInfo",
						"offset": 0,
						"slot": "12",
						"type": "t_array(t_struct(PoolInfo)903_storage)dyn_storage"
					},
					{
						"astId": 914,
						"contract": "StackMining.sol:StackMining",
						"label": "userInfo",
						"offset": 0,
						"slot": "13",
						"type": "t_mapping(t_uint256,t_mapping(t_address,t_struct(UserInfo)896_storage))"
					}
				],
				"types": {
					"t_address": {
						"encoding": "inplace",
						"label": "address",
						"numberOfBytes": "20"
					},
					"t_array(t_struct(PoolInfo)903_storage)dyn_storage": {
						"base": "t_struct(PoolInfo)903_storage",
						"encoding": "dynamic_array",
						"label": "struct StackMining.PoolInfo[]",
						"numberOfBytes": "32"
					},
					"t_bool": {
						"encoding": "inplace",
						"label": "bool",
						"numberOfBytes": "1"
					},
					"t_contract(IBEP20)2018": {
						"encoding": "inplace",
						"label": "contract IBEP20",
						"numberOfBytes": "20"
					},
					"t_mapping(t_address,t_struct(UserInfo)896_storage)": {
						"encoding": "mapping",
						"key": "t_address",
						"label": "mapping(address => struct StackMining.UserInfo)",
						"numberOfBytes": "32",
						"value": "t_struct(UserInfo)896_storage"
					},
					"t_mapping(t_uint256,t_mapping(t_address,t_struct(UserInfo)896_storage))": {
						"encoding": "mapping",
						"key": "t_uint256",
						"label": "mapping(uint256 => mapping(address => struct StackMining.UserInfo))",
						"numberOfBytes": "32",
						"value": "t_mapping(t_address,t_struct(UserInfo)896_storage)"
					},
					"t_struct(PoolInfo)903_storage": {
						"encoding": "inplace",
						"label": "struct StackMining.PoolInfo",
						"members": [
							{
								"astId": 898,
								"contract": "StackMining.sol:StackMining",
								"label": "duration",
								"offset": 0,
								"slot": "0",
								"type": "t_uint256"
							},
							{
								"astId": 900,
								"contract": "StackMining.sol:StackMining",
								"label": "boost",
								"offset": 0,
								"slot": "1",
								"type": "t_uint256"
							},
							{
								"astId": 902,
								"contract": "StackMining.sol:StackMining",
								"label": "amount",
								"offset": 0,
								"slot": "2",
								"type": "t_uint256"
							}
						],
						"numberOfBytes": "96"
					},
					"t_struct(UserInfo)896_storage": {
						"encoding": "inplace",
						"label": "struct StackMining.UserInfo",
						"members": [
							{
								"astId": 891,
								"contract": "StackMining.sol:StackMining",
								"label": "amount",
								"offset": 0,
								"slot": "0",
								"type": "t_uint256"
							},
							{
								"astId": 893,
								"contract": "StackMining.sol:StackMining",
								"label": "rewardDebt",
								"offset": 0,
								"slot": "1",
								"type": "t_uint256"
							},
							{
								"astId": 895,
								"contract": "StackMining.sol:StackMining",
								"label": "lockStartTime",
								"offset": 0,
								"slot": "2",
								"type": "t_uint256"
							}
						],
						"numberOfBytes": "96"
					},
					"t_uint256": {
						"encoding": "inplace",
						"label": "uint256",
						"numberOfBytes": "32"
					}
				}
			},
			"userdoc": {
				"kind": "user",
				"methods": {
					"recoverWrongTokens(address,uint256)": {
						"notice": "It allows the admin to recover wrong tokens sent to the contract"
					},
					"updateStartAndEndBlocks(uint256,uint256)": {
						"notice": "It allows the admin to update start and end blocks"
					}
				},
				"version": 1
			}
		}
	}
}