{
	"data": {
		"bytecode": {
			"linkReferences": {},
			"object": "608060405234801561001057600080fd5b5060405161176038038061176083398101604081905261002f9161018c565b6100383361013c565b600380546001600160a01b0319166001600160a01b0383161790556101366001805480820182556040805180820190915260148152426020808301918252600484027fb10e2d527612073b26eecdfd717e6a320cf44b4afac2b0732d9fcbe2b7fa0cf9810180548088018255600091825292812094516002909302909401918255915194019390935561012c7fb10e2d527612073b26eecdfd717e6a320cf44b4afac2b0732d9fcbe2b7fa0cf88401557fb10e2d527612073b26eecdfd717e6a320cf44b4afac2b0732d9fcbe2b7fa0cf68301919091557fb10e2d527612073b26eecdfd717e6a320cf44b4afac2b0732d9fcbe2b7fa0cf790910155565b506101bc565b600080546001600160a01b038381166001600160a01b0319831681178455604051919092169283917f8be0079c531659141344cd1fd0a4f28419497f9722a3daafe3b4186f6b6457e09190a35050565b60006020828403121561019e57600080fd5b81516001600160a01b03811681146101b557600080fd5b9392505050565b611595806101cb6000396000f3fe608060405234801561001057600080fd5b50600436106101215760003560e01c80638dbb1e3a116100ad578063cfbb3dbd11610071578063cfbb3dbd14610279578063e2bbb1581461028c578063e3d0b2bf1461029f578063ec342ad0146102a8578063f2fde38b146102b057600080fd5b80638dbb1e3a146101e4578063918f8674146101f757806393f1a40b1461020257806398969e8214610253578063a18f07a01461026657600080fd5b8063441a3e70116100f4578063441a3e701461019d57806351166d78146101b05780636d89dbc5146101b8578063715018a6146101cb5780638da5cb5b146101d357600080fd5b8063081e3eda146101265780632f380b351461013d5780633e3cca901461015d5780633f138d4b14610188575b600080fd5b6001545b6040519081526020015b60405180910390f35b61015061014b3660046112da565b6102c3565b60405161013491906112f3565b600354610170906001600160a01b031681565b6040516001600160a01b039091168152602001610134565b61019b61019636600461138c565b6103b1565b005b61019b6101ab3660046113b6565b61042d565b61012a6105aa565b61019b6101c63660046113b6565b610600565b61019b6106e3565b6000546001600160a01b0316610170565b61012a6101f23660046113b6565b6106f7565b61012a6301e1338081565b6102386102103660046113d8565b6002602081815260009384526040808520909152918352912080546001820154919092015483565b60408051938452602084019290925290820152606001610134565b61012a6102613660046113d8565b61070c565b61012a6102743660046113d8565b6109d5565b61019b6102873660046113b6565b610c75565b61019b61029a3660046113b6565b610d13565b61012a61025881565b61012a606481565b61019b6102be366004611404565b610e7f565b6102ee6040518060800160405280600081526020016000815260200160008152602001606081525090565b600182815481106103015761030161141f565b906000526020600020906004020160405180608001604052908160008201548152602001600182015481526020016002820154815260200160038201805480602002602001604051908101604052809291908181526020016000905b828210156103a35783829060005260206000209060020201604051806040016040529081600082015481526020016001820154815250508152602001906001019061035d565b505050915250909392505050565b6103b9610ef8565b6003546001600160a01b03908116908316036104155760405162461bcd60e51b815260206004820152601660248201527521b0b73737ba1031329039ba30b5b2b2103a37b5b2b760511b60448201526064015b60405180910390fd5b6104296001600160a01b0383163383610f52565b5050565b6000600183815481106104425761044261141f565b6000918252602080832086845260028252604080852033865290925292208054600490920290920192508311156104c65760405162461bcd60e51b815260206004820152602260248201527f46697865645465726d537461636b3a2053554646494349454e545f42414c414e604482015261434560f01b606482015260840161040c565b426104e283600201548360010154610fba90919063ffffffff16565b11156105155760006104f485336109d5565b9050801561051357600354610513906001600160a01b03163383610f52565b505b80546105219084610fc6565b815542600180830191909155600383015461053c919061144b565b600282015560018201546105509084610fc6565b600183015560035461056c906001600160a01b03163385610f52565b604051838152849033907ff279e6a1f5e320cca91135676d9cb6e44ca8a08c0b88342bcdb1144f6511b568906020015b60405180910390a350505050565b6000805b6001548110156105fc57600181815481106105cb576105cb61141f565b906000526020600020906004020160010154826105e8919061145e565b9150806105f481611471565b9150506105ae565b5090565b610608610ef8565b60018054808201825560408051808201909152848152426020808301918252600484027fb10e2d527612073b26eecdfd717e6a320cf44b4afac2b0732d9fcbe2b7fa0cf98101805480880182556000918252929020935160029092029093019081559051930192909255907fb10e2d527612073b26eecdfd717e6a320cf44b4afac2b0732d9fcbe2b7fa0cf6016106a083603c61148a565b60028201558181556000600182018190556040518491869185917f4d93067d0d628fe42c457623322c0f22ad92f71762a2eebe06e2a0e7d2aa61c791a450505050565b6106eb610ef8565b6106f56000610fd2565b565b60006107038284610fc6565b90505b92915050565b600080600184815481106107225761072261141f565b600091825260208083208784526002825260408085206001600160a01b03891686529092529083206004929092020160038101805460018085015493965093949093909283929091610774908661144b565b815481106107845761078461141f565b9060005260206000209060020201600101541015610818576107aa8460010154426106f7565b84549092506107f3906107ed600388016107c560018861144b565b815481106107d5576107d561141f565b60009182526020909120600290910201548590611022565b90611022565b955061080c60646108068861025861102e565b9061102e565b95505050505050610706565b60028401545b61082960018561144b565b81101561094557816108ba5761087585600101548760030183600161084e919061145e565b8154811061085e5761085e61141f565b9060005260206000209060020201600101546106f7565b92506108af85600001546107ed8860030184815481106108975761089761141f565b60009182526020909120600290910201548690611022565b965060019150610933565b60006108f78760030183815481106108d4576108d461141f565b9060005260206000209060020201600101548860030184600161084e919061145e565b905061092361091c87600001546107ed8a60030186815481106107d5576107d561141f565b8990610fba565b975061092f8482610fba565b9350505b8061093d81611471565b91505061081e565b506109806003860161095860018661144b565b815481106109685761096861141f565b906000526020600020906002020160010154436106f7565b84549092506109b6906109af906107ed6003890161099f60018961144b565b815481106108975761089761141f565b8790610fba565b95506109c960646108068861025861102e565b98975050505050505050565b600080600184815481106109eb576109eb61141f565b600091825260208083208784526002825260408085206001600160a01b03891686529092529083206004929092020160038101805460018085015493965093949093909283929091610a3d908661144b565b81548110610a4d57610a4d61141f565b9060005260206000209060020201600101541015610a8557600285015484549092506107f3906107ed600388016107c560018861144b565b60028401545b610a9660018561144b565b811015610c295781610b4f57610abb85600101548760030183600161084e919061145e565b92508560020154831115610b2457610b0485600001546107ed886003018481548110610ae957610ae961141f565b6000918252602090912060029182020154908a015490611022565b9650610b1760646108068961025861102e565b9650505050505050610706565b610b4485600001546107ed8860030184815481106108975761089761141f565b965060019150610c17565b6000610b698760030183815481106108d4576108d461141f565b6002880154909150610b7b8286610fba565b1115610be457610bc361091c87600001546107ed8a6003018681548110610ba457610ba461141f565b6000918252602090912060029182020154908c01546107ed908a610fc6565b9750610bd660646108068a61025861102e565b975050505050505050610706565b610c0761091c87600001546107ed8a60030186815481106107d5576107d561141f565b9750610c138482610fba565b9350505b80610c2181611471565b915050610a8b565b5083546109b6906109af906107ed60038901610c4660018961144b565b81548110610c5657610c5661141f565b6000918252602090912060029182020154908a01546107ed9088610fc6565b610c7d610ef8565b600060018381548110610c9257610c9261141f565b600091825260208083206040805180820182528781524281850190815260036004909602909301948501805460018181018355918852948720915160029095029091019384559151929091019190915551909250839185917f6ec6d062a87c4b42fe40885d2e8955d89ab9275e14d24354dd2b6b130043bba59190a3505050565b600060018381548110610d2857610d2861141f565b6000918252602080832086845260028252604080852033865290925292206004909102909101915082610d9d5760405162461bcd60e51b815260206004820152601d60248201527f46697865645465726d537461636b3a2042656c6f77206d696e696d756d000000604482015260640161040c565b805415610df35742610dc083600201548360010154610fba90919063ffffffff16565b1115610df3576000610dd285336109d5565b90508015610df157600354610df1906001600160a01b03163383610f52565b505b8054610dff9084610fba565b8155426001808301919091556003830154610e1a919061144b565b60028201556001820154610e2e9084610fba565b6001830155600354610e4b906001600160a01b031633308661103a565b604051838152849033907f90890809c654f11d6e72a28fa60149770a0d11ec6c92319d6ceb2bb0a4ea1a159060200161059c565b610e87610ef8565b6001600160a01b038116610eec5760405162461bcd60e51b815260206004820152602660248201527f4f776e61626c653a206e6577206f776e657220697320746865207a65726f206160448201526564647265737360d01b606482015260840161040c565b610ef581610fd2565b50565b6000546001600160a01b031633146106f55760405162461bcd60e51b815260206004820181905260248201527f4f776e61626c653a2063616c6c6572206973206e6f7420746865206f776e6572604482015260640161040c565b6040516001600160a01b038316602482015260448101829052610fb590849063a9059cbb60e01b906064015b60408051601f198184030181529190526020810180516001600160e01b03166001600160e01b031990931692909217909152611078565b505050565b6000610703828461145e565b6000610703828461144b565b600080546001600160a01b038381166001600160a01b0319831681178455604051919092169283917f8be0079c531659141344cd1fd0a4f28419497f9722a3daafe3b4186f6b6457e09190a35050565b6000610703828461148a565b600061070382846114a1565b6040516001600160a01b03808516602483015283166044820152606481018290526110729085906323b872dd60e01b90608401610f7e565b50505050565b60006110cd826040518060400160405280602081526020017f5361666542455032303a206c6f772d6c6576656c2063616c6c206661696c6564815250856001600160a01b031661114a9092919063ffffffff16565b805190915015610fb557808060200190518101906110eb91906114c3565b610fb55760405162461bcd60e51b815260206004820152602a60248201527f5361666542455032303a204245503230206f7065726174696f6e20646964206e6044820152691bdd081cdd58d8d9595960b21b606482015260840161040c565b60606111598484600085611161565b949350505050565b6060824710156111c25760405162461bcd60e51b815260206004820152602660248201527f416464726573733a20696e73756666696369656e742062616c616e636520666f6044820152651c8818d85b1b60d21b606482015260840161040c565b600080866001600160a01b031685876040516111de9190611510565b60006040518083038185875af1925050503d806000811461121b576040519150601f19603f3d011682016040523d82523d6000602084013e611220565b606091505b50915091506112318783838761123c565b979650505050505050565b606083156112ab5782516000036112a4576001600160a01b0385163b6112a45760405162461bcd60e51b815260206004820152601d60248201527f416464726573733a2063616c6c20746f206e6f6e2d636f6e7472616374000000604482015260640161040c565b5081611159565b61115983838151156112c05781518083602001fd5b8060405162461bcd60e51b815260040161040c919061152c565b6000602082840312156112ec57600080fd5b5035919050565b6000602080835260a0830184518285015281850151604081818701528087015160608701526060870151915060808087015282825180855260c0880191508584019450600093505b80841015611364578451805183528601518683015293850193600193909301929082019061133b565b50979650505050505050565b80356001600160a01b038116811461138757600080fd5b919050565b6000806040838503121561139f57600080fd5b6113a883611370565b946020939093013593505050565b600080604083850312156113c957600080fd5b50508035926020909101359150565b600080604083850312156113eb57600080fd5b823591506113fb60208401611370565b90509250929050565b60006020828403121561141657600080fd5b61070382611370565b634e487b7160e01b600052603260045260246000fd5b634e487b7160e01b600052601160045260246000fd5b8181038181111561070657610706611435565b8082018082111561070657610706611435565b60006001820161148357611483611435565b5060010190565b808202811582820484141761070657610706611435565b6000826114be57634e487b7160e01b600052601260045260246000fd5b500490565b6000602082840312156114d557600080fd5b815180151581146114e557600080fd5b9392505050565b60005b838110156115075781810151838201526020016114ef565b50506000910152565b600082516115228184602087016114ec565b9190910192915050565b602081526000825180602084015261154b8160408501602087016114ec565b601f01601f1916919091016040019291505056fea26469706673582212209e14be90309aa20d98783b7100a2ec62cc11166d9f2879d3f77bf4a1af136c8c64736f6c63430008110033",
			"opcodes": "PUSH1 0x80 PUSH1 0x40 MSTORE CALLVALUE DUP1 ISZERO PUSH2 0x10 JUMPI PUSH1 0x0 DUP1 REVERT JUMPDEST POP PUSH1 0x40 MLOAD PUSH2 0x1760 CODESIZE SUB DUP1 PUSH2 0x1760 DUP4 CODECOPY DUP2 ADD PUSH1 0x40 DUP2 SWAP1 MSTORE PUSH2 0x2F SWAP2 PUSH2 0x18C JUMP JUMPDEST PUSH2 0x38 CALLER PUSH2 0x13C JUMP JUMPDEST PUSH1 0x3 DUP1 SLOAD PUSH1 0x1 PUSH1 0x1 PUSH1 0xA0 SHL SUB NOT AND PUSH1 0x1 PUSH1 0x1 PUSH1 0xA0 SHL SUB DUP4 AND OR SWAP1 SSTORE PUSH2 0x136 PUSH1 0x1 DUP1 SLOAD DUP1 DUP3 ADD DUP3 SSTORE PUSH1 0x40 DUP1 MLOAD DUP1 DUP3 ADD SWAP1 SWAP2 MSTORE PUSH1 0x14 DUP2 MSTORE TIMESTAMP PUSH1 0x20 DUP1 DUP4 ADD SWAP2 DUP3 MSTORE PUSH1 0x4 DUP5 MUL PUSH32 0xB10E2D527612073B26EECDFD717E6A320CF44B4AFAC2B0732D9FCBE2B7FA0CF9 DUP2 ADD DUP1 SLOAD DUP1 DUP9 ADD DUP3 SSTORE PUSH1 0x0 SWAP2 DUP3 MSTORE SWAP3 DUP2 KECCAK256 SWAP5 MLOAD PUSH1 0x2 SWAP1 SWAP4 MUL SWAP1 SWAP5 ADD SWAP2 DUP3 SSTORE SWAP2 MLOAD SWAP5 ADD SWAP4 SWAP1 SWAP4 SSTORE PUSH2 0x12C PUSH32 0xB10E2D527612073B26EECDFD717E6A320CF44B4AFAC2B0732D9FCBE2B7FA0CF8 DUP5 ADD SSTORE PUSH32 0xB10E2D527612073B26EECDFD717E6A320CF44B4AFAC2B0732D9FCBE2B7FA0CF6 DUP4 ADD SWAP2 SWAP1 SWAP2 SSTORE PUSH32 0xB10E2D527612073B26EECDFD717E6A320CF44B4AFAC2B0732D9FCBE2B7FA0CF7 SWAP1 SWAP2 ADD SSTORE JUMP JUMPDEST POP PUSH2 0x1BC JUMP JUMPDEST PUSH1 0x0 DUP1 SLOAD PUSH1 0x1 PUSH1 0x1 PUSH1 0xA0 SHL SUB DUP4 DUP2 AND PUSH1 0x1 PUSH1 0x1 PUSH1 0xA0 SHL SUB NOT DUP4 AND DUP2 OR DUP5 SSTORE PUSH1 0x40 MLOAD SWAP2 SWAP1 SWAP3 AND SWAP3 DUP4 SWAP2 PUSH32 0x8BE0079C531659141344CD1FD0A4F28419497F9722A3DAAFE3B4186F6B6457E0 SWAP2 SWAP1 LOG3 POP POP JUMP JUMPDEST PUSH1 0x0 PUSH1 0x20 DUP3 DUP5 SUB SLT ISZERO PUSH2 0x19E JUMPI PUSH1 0x0 DUP1 REVERT JUMPDEST DUP2 MLOAD PUSH1 0x1 PUSH1 0x1 PUSH1 0xA0 SHL SUB DUP2 AND DUP2 EQ PUSH2 0x1B5 JUMPI PUSH1 0x0 DUP1 REVERT JUMPDEST SWAP4 SWAP3 POP POP POP JUMP JUMPDEST PUSH2 0x1595 DUP1 PUSH2 0x1CB PUSH1 0x0 CODECOPY PUSH1 0x0 RETURN INVALID PUSH1 0x80 PUSH1 0x40 MSTORE CALLVALUE DUP1 ISZERO PUSH2 0x10 JUMPI PUSH1 0x0 DUP1 REVERT JUMPDEST POP PUSH1 0x4 CALLDATASIZE LT PUSH2 0x121 JUMPI PUSH1 0x0 CALLDATALOAD PUSH1 0xE0 SHR DUP1 PUSH4 0x8DBB1E3A GT PUSH2 0xAD JUMPI DUP1 PUSH4 0xCFBB3DBD GT PUSH2 0x71 JUMPI DUP1 PUSH4 0xCFBB3DBD EQ PUSH2 0x279 JUMPI DUP1 PUSH4 0xE2BBB158 EQ PUSH2 0x28C JUMPI DUP1 PUSH4 0xE3D0B2BF EQ PUSH2 0x29F JUMPI DUP1 PUSH4 0xEC342AD0 EQ PUSH2 0x2A8 JUMPI DUP1 PUSH4 0xF2FDE38B EQ PUSH2 0x2B0 JUMPI PUSH1 0x0 DUP1 REVERT JUMPDEST DUP1 PUSH4 0x8DBB1E3A EQ PUSH2 0x1E4 JUMPI DUP1 PUSH4 0x918F8674 EQ PUSH2 0x1F7 JUMPI DUP1 PUSH4 0x93F1A40B EQ PUSH2 0x202 JUMPI DUP1 PUSH4 0x98969E82 EQ PUSH2 0x253 JUMPI DUP1 PUSH4 0xA18F07A0 EQ PUSH2 0x266 JUMPI PUSH1 0x0 DUP1 REVERT JUMPDEST DUP1 PUSH4 0x441A3E70 GT PUSH2 0xF4 JUMPI DUP1 PUSH4 0x441A3E70 EQ PUSH2 0x19D JUMPI DUP1 PUSH4 0x51166D78 EQ PUSH2 0x1B0 JUMPI DUP1 PUSH4 0x6D89DBC5 EQ PUSH2 0x1B8 JUMPI DUP1 PUSH4 0x715018A6 EQ PUSH2 0x1CB JUMPI DUP1 PUSH4 0x8DA5CB5B EQ PUSH2 0x1D3 JUMPI PUSH1 0x0 DUP1 REVERT JUMPDEST DUP1 PUSH4 0x81E3EDA EQ PUSH2 0x126 JUMPI DUP1 PUSH4 0x2F380B35 EQ PUSH2 0x13D JUMPI DUP1 PUSH4 0x3E3CCA90 EQ PUSH2 0x15D JUMPI DUP1 PUSH4 0x3F138D4B EQ PUSH2 0x188 JUMPI JUMPDEST PUSH1 0x0 DUP1 REVERT JUMPDEST PUSH1 0x1 SLOAD JUMPDEST PUSH1 0x40 MLOAD SWAP1 DUP2 MSTORE PUSH1 0x20 ADD JUMPDEST PUSH1 0x40 MLOAD DUP1 SWAP2 SUB SWAP1 RETURN JUMPDEST PUSH2 0x150 PUSH2 0x14B CALLDATASIZE PUSH1 0x4 PUSH2 0x12DA JUMP JUMPDEST PUSH2 0x2C3 JUMP JUMPDEST PUSH1 0x40 MLOAD PUSH2 0x134 SWAP2 SWAP1 PUSH2 0x12F3 JUMP JUMPDEST PUSH1 0x3 SLOAD PUSH2 0x170 SWAP1 PUSH1 0x1 PUSH1 0x1 PUSH1 0xA0 SHL SUB AND DUP2 JUMP JUMPDEST PUSH1 0x40 MLOAD PUSH1 0x1 PUSH1 0x1 PUSH1 0xA0 SHL SUB SWAP1 SWAP2 AND DUP2 MSTORE PUSH1 0x20 ADD PUSH2 0x134 JUMP JUMPDEST PUSH2 0x19B PUSH2 0x196 CALLDATASIZE PUSH1 0x4 PUSH2 0x138C JUMP JUMPDEST PUSH2 0x3B1 JUMP JUMPDEST STOP JUMPDEST PUSH2 0x19B PUSH2 0x1AB CALLDATASIZE PUSH1 0x4 PUSH2 0x13B6 JUMP JUMPDEST PUSH2 0x42D JUMP JUMPDEST PUSH2 0x12A PUSH2 0x5AA JUMP JUMPDEST PUSH2 0x19B PUSH2 0x1C6 CALLDATASIZE PUSH1 0x4 PUSH2 0x13B6 JUMP JUMPDEST PUSH2 0x600 JUMP JUMPDEST PUSH2 0x19B PUSH2 0x6E3 JUMP JUMPDEST PUSH1 0x0 SLOAD PUSH1 0x1 PUSH1 0x1 PUSH1 0xA0 SHL SUB AND PUSH2 0x170 JUMP JUMPDEST PUSH2 0x12A PUSH2 0x1F2 CALLDATASIZE PUSH1 0x4 PUSH2 0x13B6 JUMP JUMPDEST PUSH2 0x6F7 JUMP JUMPDEST PUSH2 0x12A PUSH4 0x1E13380 DUP2 JUMP JUMPDEST PUSH2 0x238 PUSH2 0x210 CALLDATASIZE PUSH1 0x4 PUSH2 0x13D8 JUMP JUMPDEST PUSH1 0x2 PUSH1 0x20 DUP2 DUP2 MSTORE PUSH1 0x0 SWAP4 DUP5 MSTORE PUSH1 0x40 DUP1 DUP6 KECCAK256 SWAP1 SWAP2 MSTORE SWAP2 DUP4 MSTORE SWAP2 KECCAK256 DUP1 SLOAD PUSH1 0x1 DUP3 ADD SLOAD SWAP2 SWAP1 SWAP3 ADD SLOAD DUP4 JUMP JUMPDEST PUSH1 0x40 DUP1 MLOAD SWAP4 DUP5 MSTORE PUSH1 0x20 DUP5 ADD SWAP3 SWAP1 SWAP3 MSTORE SWAP1 DUP3 ADD MSTORE PUSH1 0x60 ADD PUSH2 0x134 JUMP JUMPDEST PUSH2 0x12A PUSH2 0x261 CALLDATASIZE PUSH1 0x4 PUSH2 0x13D8 JUMP JUMPDEST PUSH2 0x70C JUMP JUMPDEST PUSH2 0x12A PUSH2 0x274 CALLDATASIZE PUSH1 0x4 PUSH2 0x13D8 JUMP JUMPDEST PUSH2 0x9D5 JUMP JUMPDEST PUSH2 0x19B PUSH2 0x287 CALLDATASIZE PUSH1 0x4 PUSH2 0x13B6 JUMP JUMPDEST PUSH2 0xC75 JUMP JUMPDEST PUSH2 0x19B PUSH2 0x29A CALLDATASIZE PUSH1 0x4 PUSH2 0x13B6 JUMP JUMPDEST PUSH2 0xD13 JUMP JUMPDEST PUSH2 0x12A PUSH2 0x258 DUP2 JUMP JUMPDEST PUSH2 0x12A PUSH1 0x64 DUP2 JUMP JUMPDEST PUSH2 0x19B PUSH2 0x2BE CALLDATASIZE PUSH1 0x4 PUSH2 0x1404 JUMP JUMPDEST PUSH2 0xE7F JUMP JUMPDEST PUSH2 0x2EE PUSH1 0x40 MLOAD DUP1 PUSH1 0x80 ADD PUSH1 0x40 MSTORE DUP1 PUSH1 0x0 DUP2 MSTORE PUSH1 0x20 ADD PUSH1 0x0 DUP2 MSTORE PUSH1 0x20 ADD PUSH1 0x0 DUP2 MSTORE PUSH1 0x20 ADD PUSH1 0x60 DUP2 MSTORE POP SWAP1 JUMP JUMPDEST PUSH1 0x1 DUP3 DUP2 SLOAD DUP2 LT PUSH2 0x301 JUMPI PUSH2 0x301 PUSH2 0x141F JUMP JUMPDEST SWAP1 PUSH1 0x0 MSTORE PUSH1 0x20 PUSH1 0x0 KECCAK256 SWAP1 PUSH1 0x4 MUL ADD PUSH1 0x40 MLOAD DUP1 PUSH1 0x80 ADD PUSH1 0x40 MSTORE SWAP1 DUP2 PUSH1 0x0 DUP3 ADD SLOAD DUP2 MSTORE PUSH1 0x20 ADD PUSH1 0x1 DUP3 ADD SLOAD DUP2 MSTORE PUSH1 0x20 ADD PUSH1 0x2 DUP3 ADD SLOAD DUP2 MSTORE PUSH1 0x20 ADD PUSH1 0x3 DUP3 ADD DUP1 SLOAD DUP1 PUSH1 0x20 MUL PUSH1 0x20 ADD PUSH1 0x40 MLOAD SWAP1 DUP2 ADD PUSH1 0x40 MSTORE DUP1 SWAP3 SWAP2 SWAP1 DUP2 DUP2 MSTORE PUSH1 0x20 ADD PUSH1 0x0 SWAP1 JUMPDEST DUP3 DUP3 LT ISZERO PUSH2 0x3A3 JUMPI DUP4 DUP3 SWAP1 PUSH1 0x0 MSTORE PUSH1 0x20 PUSH1 0x0 KECCAK256 SWAP1 PUSH1 0x2 MUL ADD PUSH1 0x40 MLOAD DUP1 PUSH1 0x40 ADD PUSH1 0x40 MSTORE SWAP1 DUP2 PUSH1 0x0 DUP3 ADD SLOAD DUP2 MSTORE PUSH1 0x20 ADD PUSH1 0x1 DUP3 ADD SLOAD DUP2 MSTORE POP POP DUP2 MSTORE PUSH1 0x20 ADD SWAP1 PUSH1 0x1 ADD SWAP1 PUSH2 0x35D JUMP JUMPDEST POP POP POP SWAP2 MSTORE POP SWAP1 SWAP4 SWAP3 POP POP POP JUMP JUMPDEST PUSH2 0x3B9 PUSH2 0xEF8 JUMP JUMPDEST PUSH1 0x3 SLOAD PUSH1 0x1 PUSH1 0x1 PUSH1 0xA0 SHL SUB SWAP1 DUP2 AND SWAP1 DUP4 AND SUB PUSH2 0x415 JUMPI PUSH1 0x40 MLOAD PUSH3 0x461BCD PUSH1 0xE5 SHL DUP2 MSTORE PUSH1 0x20 PUSH1 0x4 DUP3 ADD MSTORE PUSH1 0x16 PUSH1 0x24 DUP3 ADD MSTORE PUSH22 0x21B0B73737BA1031329039BA30B5B2B2103A37B5B2B7 PUSH1 0x51 SHL PUSH1 0x44 DUP3 ADD MSTORE PUSH1 0x64 ADD JUMPDEST PUSH1 0x40 MLOAD DUP1 SWAP2 SUB SWAP1 REVERT JUMPDEST PUSH2 0x429 PUSH1 0x1 PUSH1 0x1 PUSH1 0xA0 SHL SUB DUP4 AND CALLER DUP4 PUSH2 0xF52 JUMP JUMPDEST POP POP JUMP JUMPDEST PUSH1 0x0 PUSH1 0x1 DUP4 DUP2 SLOAD DUP2 LT PUSH2 0x442 JUMPI PUSH2 0x442 PUSH2 0x141F JUMP JUMPDEST PUSH1 0x0 SWAP2 DUP3 MSTORE PUSH1 0x20 DUP1 DUP4 KECCAK256 DUP7 DUP5 MSTORE PUSH1 0x2 DUP3 MSTORE PUSH1 0x40 DUP1 DUP6 KECCAK256 CALLER DUP7 MSTORE SWAP1 SWAP3 MSTORE SWAP3 KECCAK256 DUP1 SLOAD PUSH1 0x4 SWAP1 SWAP3 MUL SWAP1 SWAP3 ADD SWAP3 POP DUP4 GT ISZERO PUSH2 0x4C6 JUMPI PUSH1 0x40 MLOAD PUSH3 0x461BCD PUSH1 0xE5 SHL DUP2 MSTORE PUSH1 0x20 PUSH1 0x4 DUP3 ADD MSTORE PUSH1 0x22 PUSH1 0x24 DUP3 ADD MSTORE PUSH32 0x46697865645465726D537461636B3A2053554646494349454E545F42414C414E PUSH1 0x44 DUP3 ADD MSTORE PUSH2 0x4345 PUSH1 0xF0 SHL PUSH1 0x64 DUP3 ADD MSTORE PUSH1 0x84 ADD PUSH2 0x40C JUMP JUMPDEST TIMESTAMP PUSH2 0x4E2 DUP4 PUSH1 0x2 ADD SLOAD DUP4 PUSH1 0x1 ADD SLOAD PUSH2 0xFBA SWAP1 SWAP2 SWAP1 PUSH4 0xFFFFFFFF AND JUMP JUMPDEST GT ISZERO PUSH2 0x515 JUMPI PUSH1 0x0 PUSH2 0x4F4 DUP6 CALLER PUSH2 0x9D5 JUMP JUMPDEST SWAP1 POP DUP1 ISZERO PUSH2 0x513 JUMPI PUSH1 0x3 SLOAD PUSH2 0x513 SWAP1 PUSH1 0x1 PUSH1 0x1 PUSH1 0xA0 SHL SUB AND CALLER DUP4 PUSH2 0xF52 JUMP JUMPDEST POP JUMPDEST DUP1 SLOAD PUSH2 0x521 SWAP1 DUP5 PUSH2 0xFC6 JUMP JUMPDEST DUP2 SSTORE TIMESTAMP PUSH1 0x1 DUP1 DUP4 ADD SWAP2 SWAP1 SWAP2 SSTORE PUSH1 0x3 DUP4 ADD SLOAD PUSH2 0x53C SWAP2 SWAP1 PUSH2 0x144B JUMP JUMPDEST PUSH1 0x2 DUP3 ADD SSTORE PUSH1 0x1 DUP3 ADD SLOAD PUSH2 0x550 SWAP1 DUP5 PUSH2 0xFC6 JUMP JUMPDEST PUSH1 0x1 DUP4 ADD SSTORE PUSH1 0x3 SLOAD PUSH2 0x56C SWAP1 PUSH1 0x1 PUSH1 0x1 PUSH1 0xA0 SHL SUB AND CALLER DUP6 PUSH2 0xF52 JUMP JUMPDEST PUSH1 0x40 MLOAD DUP4 DUP2 MSTORE DUP5 SWAP1 CALLER SWAP1 PUSH32 0xF279E6A1F5E320CCA91135676D9CB6E44CA8A08C0B88342BCDB1144F6511B568 SWAP1 PUSH1 0x20 ADD JUMPDEST PUSH1 0x40 MLOAD DUP1 SWAP2 SUB SWAP1 LOG3 POP POP POP POP JUMP JUMPDEST PUSH1 0x0 DUP1 JUMPDEST PUSH1 0x1 SLOAD DUP2 LT ISZERO PUSH2 0x5FC JUMPI PUSH1 0x1 DUP2 DUP2 SLOAD DUP2 LT PUSH2 0x5CB JUMPI PUSH2 0x5CB PUSH2 0x141F JUMP JUMPDEST SWAP1 PUSH1 0x0 MSTORE PUSH1 0x20 PUSH1 0x0 KECCAK256 SWAP1 PUSH1 0x4 MUL ADD PUSH1 0x1 ADD SLOAD DUP3 PUSH2 0x5E8 SWAP2 SWAP1 PUSH2 0x145E JUMP JUMPDEST SWAP2 POP DUP1 PUSH2 0x5F4 DUP2 PUSH2 0x1471 JUMP JUMPDEST SWAP2 POP POP PUSH2 0x5AE JUMP JUMPDEST POP SWAP1 JUMP JUMPDEST PUSH2 0x608 PUSH2 0xEF8 JUMP JUMPDEST PUSH1 0x1 DUP1 SLOAD DUP1 DUP3 ADD DUP3 SSTORE PUSH1 0x40 DUP1 MLOAD DUP1 DUP3 ADD SWAP1 SWAP2 MSTORE DUP5 DUP2 MSTORE TIMESTAMP PUSH1 0x20 DUP1 DUP4 ADD SWAP2 DUP3 MSTORE PUSH1 0x4 DUP5 MUL PUSH32 0xB10E2D527612073B26EECDFD717E6A320CF44B4AFAC2B0732D9FCBE2B7FA0CF9 DUP2 ADD DUP1 SLOAD DUP1 DUP9 ADD DUP3 SSTORE PUSH1 0x0 SWAP2 DUP3 MSTORE SWAP3 SWAP1 KECCAK256 SWAP4 MLOAD PUSH1 0x2 SWAP1 SWAP3 MUL SWAP1 SWAP4 ADD SWAP1 DUP2 SSTORE SWAP1 MLOAD SWAP4 ADD SWAP3 SWAP1 SWAP3 SSTORE SWAP1 PUSH32 0xB10E2D527612073B26EECDFD717E6A320CF44B4AFAC2B0732D9FCBE2B7FA0CF6 ADD PUSH2 0x6A0 DUP4 PUSH1 0x3C PUSH2 0x148A JUMP JUMPDEST PUSH1 0x2 DUP3 ADD SSTORE DUP2 DUP2 SSTORE PUSH1 0x0 PUSH1 0x1 DUP3 ADD DUP2 SWAP1 SSTORE PUSH1 0x40 MLOAD DUP5 SWAP2 DUP7 SWAP2 DUP6 SWAP2 PUSH32 0x4D93067D0D628FE42C457623322C0F22AD92F71762A2EEBE06E2A0E7D2AA61C7 SWAP2 LOG4 POP POP POP POP JUMP JUMPDEST PUSH2 0x6EB PUSH2 0xEF8 JUMP JUMPDEST PUSH2 0x6F5 PUSH1 0x0 PUSH2 0xFD2 JUMP JUMPDEST JUMP JUMPDEST PUSH1 0x0 PUSH2 0x703 DUP3 DUP5 PUSH2 0xFC6 JUMP JUMPDEST SWAP1 POP JUMPDEST SWAP3 SWAP2 POP POP JUMP JUMPDEST PUSH1 0x0 DUP1 PUSH1 0x1 DUP5 DUP2 SLOAD DUP2 LT PUSH2 0x722 JUMPI PUSH2 0x722 PUSH2 0x141F JUMP JUMPDEST PUSH1 0x0 SWAP2 DUP3 MSTORE PUSH1 0x20 DUP1 DUP4 KECCAK256 DUP8 DUP5 MSTORE PUSH1 0x2 DUP3 MSTORE PUSH1 0x40 DUP1 DUP6 KECCAK256 PUSH1 0x1 PUSH1 0x1 PUSH1 0xA0 SHL SUB DUP10 AND DUP7 MSTORE SWAP1 SWAP3 MSTORE SWAP1 DUP4 KECCAK256 PUSH1 0x4 SWAP3 SWAP1 SWAP3 MUL ADD PUSH1 0x3 DUP2 ADD DUP1 SLOAD PUSH1 0x1 DUP1 DUP6 ADD SLOAD SWAP4 SWAP7 POP SWAP4 SWAP5 SWAP1 SWAP4 SWAP1 SWAP3 DUP4 SWAP3 SWAP1 SWAP2 PUSH2 0x774 SWAP1 DUP7 PUSH2 0x144B JUMP JUMPDEST DUP2 SLOAD DUP2 LT PUSH2 0x784 JUMPI PUSH2 0x784 PUSH2 0x141F JUMP JUMPDEST SWAP1 PUSH1 0x0 MSTORE PUSH1 0x20 PUSH1 0x0 KECCAK256 SWAP1 PUSH1 0x2 MUL ADD PUSH1 0x1 ADD SLOAD LT ISZERO PUSH2 0x818 JUMPI PUSH2 0x7AA DUP5 PUSH1 0x1 ADD SLOAD TIMESTAMP PUSH2 0x6F7 JUMP JUMPDEST DUP5 SLOAD SWAP1 SWAP3 POP PUSH2 0x7F3 SWAP1 PUSH2 0x7ED PUSH1 0x3 DUP9 ADD PUSH2 0x7C5 PUSH1 0x1 DUP9 PUSH2 0x144B JUMP JUMPDEST DUP2 SLOAD DUP2 LT PUSH2 0x7D5 JUMPI PUSH2 0x7D5 PUSH2 0x141F JUMP JUMPDEST PUSH1 0x0 SWAP2 DUP3 MSTORE PUSH1 0x20 SWAP1 SWAP2 KECCAK256 PUSH1 0x2 SWAP1 SWAP2 MUL ADD SLOAD DUP6 SWAP1 PUSH2 0x1022 JUMP JUMPDEST SWAP1 PUSH2 0x1022 JUMP JUMPDEST SWAP6 POP PUSH2 0x80C PUSH1 0x64 PUSH2 0x806 DUP9 PUSH2 0x258 PUSH2 0x102E JUMP JUMPDEST SWAP1 PUSH2 0x102E JUMP JUMPDEST SWAP6 POP POP POP POP POP POP PUSH2 0x706 JUMP JUMPDEST PUSH1 0x2 DUP5 ADD SLOAD JUMPDEST PUSH2 0x829 PUSH1 0x1 DUP6 PUSH2 0x144B JUMP JUMPDEST DUP2 LT ISZERO PUSH2 0x945 JUMPI DUP2 PUSH2 0x8BA JUMPI PUSH2 0x875 DUP6 PUSH1 0x1 ADD SLOAD DUP8 PUSH1 0x3 ADD DUP4 PUSH1 0x1 PUSH2 0x84E SWAP2 SWAP1 PUSH2 0x145E JUMP JUMPDEST DUP2 SLOAD DUP2 LT PUSH2 0x85E JUMPI PUSH2 0x85E PUSH2 0x141F JUMP JUMPDEST SWAP1 PUSH1 0x0 MSTORE PUSH1 0x20 PUSH1 0x0 KECCAK256 SWAP1 PUSH1 0x2 MUL ADD PUSH1 0x1 ADD SLOAD PUSH2 0x6F7 JUMP JUMPDEST SWAP3 POP PUSH2 0x8AF DUP6 PUSH1 0x0 ADD SLOAD PUSH2 0x7ED DUP9 PUSH1 0x3 ADD DUP5 DUP2 SLOAD DUP2 LT PUSH2 0x897 JUMPI PUSH2 0x897 PUSH2 0x141F JUMP JUMPDEST PUSH1 0x0 SWAP2 DUP3 MSTORE PUSH1 0x20 SWAP1 SWAP2 KECCAK256 PUSH1 0x2 SWAP1 SWAP2 MUL ADD SLOAD DUP7 SWAP1 PUSH2 0x1022 JUMP JUMPDEST SWAP7 POP PUSH1 0x1 SWAP2 POP PUSH2 0x933 JUMP JUMPDEST PUSH1 0x0 PUSH2 0x8F7 DUP8 PUSH1 0x3 ADD DUP4 DUP2 SLOAD DUP2 LT PUSH2 0x8D4 JUMPI PUSH2 0x8D4 PUSH2 0x141F JUMP JUMPDEST SWAP1 PUSH1 0x0 MSTORE PUSH1 0x20 PUSH1 0x0 KECCAK256 SWAP1 PUSH1 0x2 MUL ADD PUSH1 0x1 ADD SLOAD DUP9 PUSH1 0x3 ADD DUP5 PUSH1 0x1 PUSH2 0x84E SWAP2 SWAP1 PUSH2 0x145E JUMP JUMPDEST SWAP1 POP PUSH2 0x923 PUSH2 0x91C DUP8 PUSH1 0x0 ADD SLOAD PUSH2 0x7ED DUP11 PUSH1 0x3 ADD DUP7 DUP2 SLOAD DUP2 LT PUSH2 0x7D5 JUMPI PUSH2 0x7D5 PUSH2 0x141F JUMP JUMPDEST DUP10 SWAP1 PUSH2 0xFBA JUMP JUMPDEST SWAP8 POP PUSH2 0x92F DUP5 DUP3 PUSH2 0xFBA JUMP JUMPDEST SWAP4 POP POP JUMPDEST DUP1 PUSH2 0x93D DUP2 PUSH2 0x1471 JUMP JUMPDEST SWAP2 POP POP PUSH2 0x81E JUMP JUMPDEST POP PUSH2 0x980 PUSH1 0x3 DUP7 ADD PUSH2 0x958 PUSH1 0x1 DUP7 PUSH2 0x144B JUMP JUMPDEST DUP2 SLOAD DUP2 LT PUSH2 0x968 JUMPI PUSH2 0x968 PUSH2 0x141F JUMP JUMPDEST SWAP1 PUSH1 0x0 MSTORE PUSH1 0x20 PUSH1 0x0 KECCAK256 SWAP1 PUSH1 0x2 MUL ADD PUSH1 0x1 ADD SLOAD NUMBER PUSH2 0x6F7 JUMP JUMPDEST DUP5 SLOAD SWAP1 SWAP3 POP PUSH2 0x9B6 SWAP1 PUSH2 0x9AF SWAP1 PUSH2 0x7ED PUSH1 0x3 DUP10 ADD PUSH2 0x99F PUSH1 0x1 DUP10 PUSH2 0x144B JUMP JUMPDEST DUP2 SLOAD DUP2 LT PUSH2 0x897 JUMPI PUSH2 0x897 PUSH2 0x141F JUMP JUMPDEST DUP8 SWAP1 PUSH2 0xFBA JUMP JUMPDEST SWAP6 POP PUSH2 0x9C9 PUSH1 0x64 PUSH2 0x806 DUP9 PUSH2 0x258 PUSH2 0x102E JUMP JUMPDEST SWAP9 SWAP8 POP POP POP POP POP POP POP POP JUMP JUMPDEST PUSH1 0x0 DUP1 PUSH1 0x1 DUP5 DUP2 SLOAD DUP2 LT PUSH2 0x9EB JUMPI PUSH2 0x9EB PUSH2 0x141F JUMP JUMPDEST PUSH1 0x0 SWAP2 DUP3 MSTORE PUSH1 0x20 DUP1 DUP4 KECCAK256 DUP8 DUP5 MSTORE PUSH1 0x2 DUP3 MSTORE PUSH1 0x40 DUP1 DUP6 KECCAK256 PUSH1 0x1 PUSH1 0x1 PUSH1 0xA0 SHL SUB DUP10 AND DUP7 MSTORE SWAP1 SWAP3 MSTORE SWAP1 DUP4 KECCAK256 PUSH1 0x4 SWAP3 SWAP1 SWAP3 MUL ADD PUSH1 0x3 DUP2 ADD DUP1 SLOAD PUSH1 0x1 DUP1 DUP6 ADD SLOAD SWAP4 SWAP7 POP SWAP4 SWAP5 SWAP1 SWAP4 SWAP1 SWAP3 DUP4 SWAP3 SWAP1 SWAP2 PUSH2 0xA3D SWAP1 DUP7 PUSH2 0x144B JUMP JUMPDEST DUP2 SLOAD DUP2 LT PUSH2 0xA4D JUMPI PUSH2 0xA4D PUSH2 0x141F JUMP JUMPDEST SWAP1 PUSH1 0x0 MSTORE PUSH1 0x20 PUSH1 0x0 KECCAK256 SWAP1 PUSH1 0x2 MUL ADD PUSH1 0x1 ADD SLOAD LT ISZERO PUSH2 0xA85 JUMPI PUSH1 0x2 DUP6 ADD SLOAD DUP5 SLOAD SWAP1 SWAP3 POP PUSH2 0x7F3 SWAP1 PUSH2 0x7ED PUSH1 0x3 DUP9 ADD PUSH2 0x7C5 PUSH1 0x1 DUP9 PUSH2 0x144B JUMP JUMPDEST PUSH1 0x2 DUP5 ADD SLOAD JUMPDEST PUSH2 0xA96 PUSH1 0x1 DUP6 PUSH2 0x144B JUMP JUMPDEST DUP2 LT ISZERO PUSH2 0xC29 JUMPI DUP2 PUSH2 0xB4F JUMPI PUSH2 0xABB DUP6 PUSH1 0x1 ADD SLOAD DUP8 PUSH1 0x3 ADD DUP4 PUSH1 0x1 PUSH2 0x84E SWAP2 SWAP1 PUSH2 0x145E JUMP JUMPDEST SWAP3 POP DUP6 PUSH1 0x2 ADD SLOAD DUP4 GT ISZERO PUSH2 0xB24 JUMPI PUSH2 0xB04 DUP6 PUSH1 0x0 ADD SLOAD PUSH2 0x7ED DUP9 PUSH1 0x3 ADD DUP5 DUP2 SLOAD DUP2 LT PUSH2 0xAE9 JUMPI PUSH2 0xAE9 PUSH2 0x141F JUMP JUMPDEST PUSH1 0x0 SWAP2 DUP3 MSTORE PUSH1 0x20 SWAP1 SWAP2 KECCAK256 PUSH1 0x2 SWAP2 DUP3 MUL ADD SLOAD SWAP1 DUP11 ADD SLOAD SWAP1 PUSH2 0x1022 JUMP JUMPDEST SWAP7 POP PUSH2 0xB17 PUSH1 0x64 PUSH2 0x806 DUP10 PUSH2 0x258 PUSH2 0x102E JUMP JUMPDEST SWAP7 POP POP POP POP POP POP POP PUSH2 0x706 JUMP JUMPDEST PUSH2 0xB44 DUP6 PUSH1 0x0 ADD SLOAD PUSH2 0x7ED DUP9 PUSH1 0x3 ADD DUP5 DUP2 SLOAD DUP2 LT PUSH2 0x897 JUMPI PUSH2 0x897 PUSH2 0x141F JUMP JUMPDEST SWAP7 POP PUSH1 0x1 SWAP2 POP PUSH2 0xC17 JUMP JUMPDEST PUSH1 0x0 PUSH2 0xB69 DUP8 PUSH1 0x3 ADD DUP4 DUP2 SLOAD DUP2 LT PUSH2 0x8D4 JUMPI PUSH2 0x8D4 PUSH2 0x141F JUMP JUMPDEST PUSH1 0x2 DUP9 ADD SLOAD SWAP1 SWAP2 POP PUSH2 0xB7B DUP3 DUP7 PUSH2 0xFBA JUMP JUMPDEST GT ISZERO PUSH2 0xBE4 JUMPI PUSH2 0xBC3 PUSH2 0x91C DUP8 PUSH1 0x0 ADD SLOAD PUSH2 0x7ED DUP11 PUSH1 0x3 ADD DUP7 DUP2 SLOAD DUP2 LT PUSH2 0xBA4 JUMPI PUSH2 0xBA4 PUSH2 0x141F JUMP JUMPDEST PUSH1 0x0 SWAP2 DUP3 MSTORE PUSH1 0x20 SWAP1 SWAP2 KECCAK256 PUSH1 0x2 SWAP2 DUP3 MUL ADD SLOAD SWAP1 DUP13 ADD SLOAD PUSH2 0x7ED SWAP1 DUP11 PUSH2 0xFC6 JUMP JUMPDEST SWAP8 POP PUSH2 0xBD6 PUSH1 0x64 PUSH2 0x806 DUP11 PUSH2 0x258 PUSH2 0x102E JUMP JUMPDEST SWAP8 POP POP POP POP POP POP POP POP PUSH2 0x706 JUMP JUMPDEST PUSH2 0xC07 PUSH2 0x91C DUP8 PUSH1 0x0 ADD SLOAD PUSH2 0x7ED DUP11 PUSH1 0x3 ADD DUP7 DUP2 SLOAD DUP2 LT PUSH2 0x7D5 JUMPI PUSH2 0x7D5 PUSH2 0x141F JUMP JUMPDEST SWAP8 POP PUSH2 0xC13 DUP5 DUP3 PUSH2 0xFBA JUMP JUMPDEST SWAP4 POP POP JUMPDEST DUP1 PUSH2 0xC21 DUP2 PUSH2 0x1471 JUMP JUMPDEST SWAP2 POP POP PUSH2 0xA8B JUMP JUMPDEST POP DUP4 SLOAD PUSH2 0x9B6 SWAP1 PUSH2 0x9AF SWAP1 PUSH2 0x7ED PUSH1 0x3 DUP10 ADD PUSH2 0xC46 PUSH1 0x1 DUP10 PUSH2 0x144B JUMP JUMPDEST DUP2 SLOAD DUP2 LT PUSH2 0xC56 JUMPI PUSH2 0xC56 PUSH2 0x141F JUMP JUMPDEST PUSH1 0x0 SWAP2 DUP3 MSTORE PUSH1 0x20 SWAP1 SWAP2 KECCAK256 PUSH1 0x2 SWAP2 DUP3 MUL ADD SLOAD SWAP1 DUP11 ADD SLOAD PUSH2 0x7ED SWAP1 DUP9 PUSH2 0xFC6 JUMP JUMPDEST PUSH2 0xC7D PUSH2 0xEF8 JUMP JUMPDEST PUSH1 0x0 PUSH1 0x1 DUP4 DUP2 SLOAD DUP2 LT PUSH2 0xC92 JUMPI PUSH2 0xC92 PUSH2 0x141F JUMP JUMPDEST PUSH1 0x0 SWAP2 DUP3 MSTORE PUSH1 0x20 DUP1 DUP4 KECCAK256 PUSH1 0x40 DUP1 MLOAD DUP1 DUP3 ADD DUP3 MSTORE DUP8 DUP2 MSTORE TIMESTAMP DUP2 DUP6 ADD SWAP1 DUP2 MSTORE PUSH1 0x3 PUSH1 0x4 SWAP1 SWAP7 MUL SWAP1 SWAP4 ADD SWAP5 DUP6 ADD DUP1 SLOAD PUSH1 0x1 DUP2 DUP2 ADD DUP4 SSTORE SWAP2 DUP9 MSTORE SWAP5 DUP8 KECCAK256 SWAP2 MLOAD PUSH1 0x2 SWAP1 SWAP6 MUL SWAP1 SWAP2 ADD SWAP4 DUP5 SSTORE SWAP2 MLOAD SWAP3 SWAP1 SWAP2 ADD SWAP2 SWAP1 SWAP2 SSTORE MLOAD SWAP1 SWAP3 POP DUP4 SWAP2 DUP6 SWAP2 PUSH32 0x6EC6D062A87C4B42FE40885D2E8955D89AB9275E14D24354DD2B6B130043BBA5 SWAP2 SWAP1 LOG3 POP POP POP JUMP JUMPDEST PUSH1 0x0 PUSH1 0x1 DUP4 DUP2 SLOAD DUP2 LT PUSH2 0xD28 JUMPI PUSH2 0xD28 PUSH2 0x141F JUMP JUMPDEST PUSH1 0x0 SWAP2 DUP3 MSTORE PUSH1 0x20 DUP1 DUP4 KECCAK256 DUP7 DUP5 MSTORE PUSH1 0x2 DUP3 MSTORE PUSH1 0x40 DUP1 DUP6 KECCAK256 CALLER DUP7 MSTORE SWAP1 SWAP3 MSTORE SWAP3 KECCAK256 PUSH1 0x4 SWAP1 SWAP2 MUL SWAP1 SWAP2 ADD SWAP2 POP DUP3 PUSH2 0xD9D JUMPI PUSH1 0x40 MLOAD PUSH3 0x461BCD PUSH1 0xE5 SHL DUP2 MSTORE PUSH1 0x20 PUSH1 0x4 DUP3 ADD MSTORE PUSH1 0x1D PUSH1 0x24 DUP3 ADD MSTORE PUSH32 0x46697865645465726D537461636B3A2042656C6F77206D696E696D756D000000 PUSH1 0x44 DUP3 ADD MSTORE PUSH1 0x64 ADD PUSH2 0x40C JUMP JUMPDEST DUP1 SLOAD ISZERO PUSH2 0xDF3 JUMPI TIMESTAMP PUSH2 0xDC0 DUP4 PUSH1 0x2 ADD SLOAD DUP4 PUSH1 0x1 ADD SLOAD PUSH2 0xFBA SWAP1 SWAP2 SWAP1 PUSH4 0xFFFFFFFF AND JUMP JUMPDEST GT ISZERO PUSH2 0xDF3 JUMPI PUSH1 0x0 PUSH2 0xDD2 DUP6 CALLER PUSH2 0x9D5 JUMP JUMPDEST SWAP1 POP DUP1 ISZERO PUSH2 0xDF1 JUMPI PUSH1 0x3 SLOAD PUSH2 0xDF1 SWAP1 PUSH1 0x1 PUSH1 0x1 PUSH1 0xA0 SHL SUB AND CALLER DUP4 PUSH2 0xF52 JUMP JUMPDEST POP JUMPDEST DUP1 SLOAD PUSH2 0xDFF SWAP1 DUP5 PUSH2 0xFBA JUMP JUMPDEST DUP2 SSTORE TIMESTAMP PUSH1 0x1 DUP1 DUP4 ADD SWAP2 SWAP1 SWAP2 SSTORE PUSH1 0x3 DUP4 ADD SLOAD PUSH2 0xE1A SWAP2 SWAP1 PUSH2 0x144B JUMP JUMPDEST PUSH1 0x2 DUP3 ADD SSTORE PUSH1 0x1 DUP3 ADD SLOAD PUSH2 0xE2E SWAP1 DUP5 PUSH2 0xFBA JUMP JUMPDEST PUSH1 0x1 DUP4 ADD SSTORE PUSH1 0x3 SLOAD PUSH2 0xE4B SWAP1 PUSH1 0x1 PUSH1 0x1 PUSH1 0xA0 SHL SUB AND CALLER ADDRESS DUP7 PUSH2 0x103A JUMP JUMPDEST PUSH1 0x40 MLOAD DUP4 DUP2 MSTORE DUP5 SWAP1 CALLER SWAP1 PUSH32 0x90890809C654F11D6E72A28FA60149770A0D11EC6C92319D6CEB2BB0A4EA1A15 SWAP1 PUSH1 0x20 ADD PUSH2 0x59C JUMP JUMPDEST PUSH2 0xE87 PUSH2 0xEF8 JUMP JUMPDEST PUSH1 0x1 PUSH1 0x1 PUSH1 0xA0 SHL SUB DUP2 AND PUSH2 0xEEC JUMPI PUSH1 0x40 MLOAD PUSH3 0x461BCD PUSH1 0xE5 SHL DUP2 MSTORE PUSH1 0x20 PUSH1 0x4 DUP3 ADD MSTORE PUSH1 0x26 PUSH1 0x24 DUP3 ADD MSTORE PUSH32 0x4F776E61626C653A206E6577206F776E657220697320746865207A65726F2061 PUSH1 0x44 DUP3 ADD MSTORE PUSH6 0x646472657373 PUSH1 0xD0 SHL PUSH1 0x64 DUP3 ADD MSTORE PUSH1 0x84 ADD PUSH2 0x40C JUMP JUMPDEST PUSH2 0xEF5 DUP2 PUSH2 0xFD2 JUMP JUMPDEST POP JUMP JUMPDEST PUSH1 0x0 SLOAD PUSH1 0x1 PUSH1 0x1 PUSH1 0xA0 SHL SUB AND CALLER EQ PUSH2 0x6F5 JUMPI PUSH1 0x40 MLOAD PUSH3 0x461BCD PUSH1 0xE5 SHL DUP2 MSTORE PUSH1 0x20 PUSH1 0x4 DUP3 ADD DUP2 SWAP1 MSTORE PUSH1 0x24 DUP3 ADD MSTORE PUSH32 0x4F776E61626C653A2063616C6C6572206973206E6F7420746865206F776E6572 PUSH1 0x44 DUP3 ADD MSTORE PUSH1 0x64 ADD PUSH2 0x40C JUMP JUMPDEST PUSH1 0x40 MLOAD PUSH1 0x1 PUSH1 0x1 PUSH1 0xA0 SHL SUB DUP4 AND PUSH1 0x24 DUP3 ADD MSTORE PUSH1 0x44 DUP2 ADD DUP3 SWAP1 MSTORE PUSH2 0xFB5 SWAP1 DUP5 SWAP1 PUSH4 0xA9059CBB PUSH1 0xE0 SHL SWAP1 PUSH1 0x64 ADD JUMPDEST PUSH1 0x40 DUP1 MLOAD PUSH1 0x1F NOT DUP2 DUP5 SUB ADD DUP2 MSTORE SWAP2 SWAP1 MSTORE PUSH1 0x20 DUP2 ADD DUP1 MLOAD PUSH1 0x1 PUSH1 0x1 PUSH1 0xE0 SHL SUB AND PUSH1 0x1 PUSH1 0x1 PUSH1 0xE0 SHL SUB NOT SWAP1 SWAP4 AND SWAP3 SWAP1 SWAP3 OR SWAP1 SWAP2 MSTORE PUSH2 0x1078 JUMP JUMPDEST POP POP POP JUMP JUMPDEST PUSH1 0x0 PUSH2 0x703 DUP3 DUP5 PUSH2 0x145E JUMP JUMPDEST PUSH1 0x0 PUSH2 0x703 DUP3 DUP5 PUSH2 0x144B JUMP JUMPDEST PUSH1 0x0 DUP1 SLOAD PUSH1 0x1 PUSH1 0x1 PUSH1 0xA0 SHL SUB DUP4 DUP2 AND PUSH1 0x1 PUSH1 0x1 PUSH1 0xA0 SHL SUB NOT DUP4 AND DUP2 OR DUP5 SSTORE PUSH1 0x40 MLOAD SWAP2 SWAP1 SWAP3 AND SWAP3 DUP4 SWAP2 PUSH32 0x8BE0079C531659141344CD1FD0A4F28419497F9722A3DAAFE3B4186F6B6457E0 SWAP2 SWAP1 LOG3 POP POP JUMP JUMPDEST PUSH1 0x0 PUSH2 0x703 DUP3 DUP5 PUSH2 0x148A JUMP JUMPDEST PUSH1 0x0 PUSH2 0x703 DUP3 DUP5 PUSH2 0x14A1 JUMP JUMPDEST PUSH1 0x40 MLOAD PUSH1 0x1 PUSH1 0x1 PUSH1 0xA0 SHL SUB DUP1 DUP6 AND PUSH1 0x24 DUP4 ADD MSTORE DUP4 AND PUSH1 0x44 DUP3 ADD MSTORE PUSH1 0x64 DUP2 ADD DUP3 SWAP1 MSTORE PUSH2 0x1072 SWAP1 DUP6 SWAP1 PUSH4 0x23B872DD PUSH1 0xE0 SHL SWAP1 PUSH1 0x84 ADD PUSH2 0xF7E JUMP JUMPDEST POP POP POP POP JUMP JUMPDEST PUSH1 0x0 PUSH2 0x10CD DUP3 PUSH1 0x40 MLOAD DUP1 PUSH1 0x40 ADD PUSH1 0x40 MSTORE DUP1 PUSH1 0x20 DUP2 MSTORE PUSH1 0x20 ADD PUSH32 0x5361666542455032303A206C6F772D6C6576656C2063616C6C206661696C6564 DUP2 MSTORE POP DUP6 PUSH1 0x1 PUSH1 0x1 PUSH1 0xA0 SHL SUB AND PUSH2 0x114A SWAP1 SWAP3 SWAP2 SWAP1 PUSH4 0xFFFFFFFF AND JUMP JUMPDEST DUP1 MLOAD SWAP1 SWAP2 POP ISZERO PUSH2 0xFB5 JUMPI DUP1 DUP1 PUSH1 0x20 ADD SWAP1 MLOAD DUP2 ADD SWAP1 PUSH2 0x10EB SWAP2 SWAP1 PUSH2 0x14C3 JUMP JUMPDEST PUSH2 0xFB5 JUMPI PUSH1 0x40 MLOAD PUSH3 0x461BCD PUSH1 0xE5 SHL DUP2 MSTORE PUSH1 0x20 PUSH1 0x4 DUP3 ADD MSTORE PUSH1 0x2A PUSH1 0x24 DUP3 ADD MSTORE PUSH32 0x5361666542455032303A204245503230206F7065726174696F6E20646964206E PUSH1 0x44 DUP3 ADD MSTORE PUSH10 0x1BDD081CDD58D8D95959 PUSH1 0xB2 SHL PUSH1 0x64 DUP3 ADD MSTORE PUSH1 0x84 ADD PUSH2 0x40C JUMP JUMPDEST PUSH1 0x60 PUSH2 0x1159 DUP5 DUP5 PUSH1 0x0 DUP6 PUSH2 0x1161 JUMP JUMPDEST SWAP5 SWAP4 POP POP POP POP JUMP JUMPDEST PUSH1 0x60 DUP3 SELFBALANCE LT ISZERO PUSH2 0x11C2 JUMPI PUSH1 0x40 MLOAD PUSH3 0x461BCD PUSH1 0xE5 SHL DUP2 MSTORE PUSH1 0x20 PUSH1 0x4 DUP3 ADD MSTORE PUSH1 0x26 PUSH1 0x24 DUP3 ADD MSTORE PUSH32 0x416464726573733A20696E73756666696369656E742062616C616E636520666F PUSH1 0x44 DUP3 ADD MSTORE PUSH6 0x1C8818D85B1B PUSH1 0xD2 SHL PUSH1 0x64 DUP3 ADD MSTORE PUSH1 0x84 ADD PUSH2 0x40C JUMP JUMPDEST PUSH1 0x0 DUP1 DUP7 PUSH1 0x1 PUSH1 0x1 PUSH1 0xA0 SHL SUB AND DUP6 DUP8 PUSH1 0x40 MLOAD PUSH2 0x11DE SWAP2 SWAP1 PUSH2 0x1510 JUMP JUMPDEST PUSH1 0x0 PUSH1 0x40 MLOAD DUP1 DUP4 SUB DUP2 DUP6 DUP8 GAS CALL SWAP3 POP POP POP RETURNDATASIZE DUP1 PUSH1 0x0 DUP2 EQ PUSH2 0x121B JUMPI PUSH1 0x40 MLOAD SWAP2 POP PUSH1 0x1F NOT PUSH1 0x3F RETURNDATASIZE ADD AND DUP3 ADD PUSH1 0x40 MSTORE RETURNDATASIZE DUP3 MSTORE RETURNDATASIZE PUSH1 0x0 PUSH1 0x20 DUP5 ADD RETURNDATACOPY PUSH2 0x1220 JUMP JUMPDEST PUSH1 0x60 SWAP2 POP JUMPDEST POP SWAP2 POP SWAP2 POP PUSH2 0x1231 DUP8 DUP4 DUP4 DUP8 PUSH2 0x123C JUMP JUMPDEST SWAP8 SWAP7 POP POP POP POP POP POP POP JUMP JUMPDEST PUSH1 0x60 DUP4 ISZERO PUSH2 0x12AB JUMPI DUP3 MLOAD PUSH1 0x0 SUB PUSH2 0x12A4 JUMPI PUSH1 0x1 PUSH1 0x1 PUSH1 0xA0 SHL SUB DUP6 AND EXTCODESIZE PUSH2 0x12A4 JUMPI PUSH1 0x40 MLOAD PUSH3 0x461BCD PUSH1 0xE5 SHL DUP2 MSTORE PUSH1 0x20 PUSH1 0x4 DUP3 ADD MSTORE PUSH1 0x1D PUSH1 0x24 DUP3 ADD MSTORE PUSH32 0x416464726573733A2063616C6C20746F206E6F6E2D636F6E7472616374000000 PUSH1 0x44 DUP3 ADD MSTORE PUSH1 0x64 ADD PUSH2 0x40C JUMP JUMPDEST POP DUP2 PUSH2 0x1159 JUMP JUMPDEST PUSH2 0x1159 DUP4 DUP4 DUP2 MLOAD ISZERO PUSH2 0x12C0 JUMPI DUP2 MLOAD DUP1 DUP4 PUSH1 0x20 ADD REVERT JUMPDEST DUP1 PUSH1 0x40 MLOAD PUSH3 0x461BCD PUSH1 0xE5 SHL DUP2 MSTORE PUSH1 0x4 ADD PUSH2 0x40C SWAP2 SWAP1 PUSH2 0x152C JUMP JUMPDEST PUSH1 0x0 PUSH1 0x20 DUP3 DUP5 SUB SLT ISZERO PUSH2 0x12EC JUMPI PUSH1 0x0 DUP1 REVERT JUMPDEST POP CALLDATALOAD SWAP2 SWAP1 POP JUMP JUMPDEST PUSH1 0x0 PUSH1 0x20 DUP1 DUP4 MSTORE PUSH1 0xA0 DUP4 ADD DUP5 MLOAD DUP3 DUP6 ADD MSTORE DUP2 DUP6 ADD MLOAD PUSH1 0x40 DUP2 DUP2 DUP8 ADD MSTORE DUP1 DUP8 ADD MLOAD PUSH1 0x60 DUP8 ADD MSTORE PUSH1 0x60 DUP8 ADD MLOAD SWAP2 POP PUSH1 0x80 DUP1 DUP8 ADD MSTORE DUP3 DUP3 MLOAD DUP1 DUP6 MSTORE PUSH1 0xC0 DUP9 ADD SWAP2 POP DUP6 DUP5 ADD SWAP5 POP PUSH1 0x0 SWAP4 POP JUMPDEST DUP1 DUP5 LT ISZERO PUSH2 0x1364 JUMPI DUP5 MLOAD DUP1 MLOAD DUP4 MSTORE DUP7 ADD MLOAD DUP7 DUP4 ADD MSTORE SWAP4 DUP6 ADD SWAP4 PUSH1 0x1 SWAP4 SWAP1 SWAP4 ADD SWAP3 SWAP1 DUP3 ADD SWAP1 PUSH2 0x133B JUMP JUMPDEST POP SWAP8 SWAP7 POP POP POP POP POP POP POP JUMP JUMPDEST DUP1 CALLDATALOAD PUSH1 0x1 PUSH1 0x1 PUSH1 0xA0 SHL SUB DUP2 AND DUP2 EQ PUSH2 0x1387 JUMPI PUSH1 0x0 DUP1 REVERT JUMPDEST SWAP2 SWAP1 POP JUMP JUMPDEST PUSH1 0x0 DUP1 PUSH1 0x40 DUP4 DUP6 SUB SLT ISZERO PUSH2 0x139F JUMPI PUSH1 0x0 DUP1 REVERT JUMPDEST PUSH2 0x13A8 DUP4 PUSH2 0x1370 JUMP JUMPDEST SWAP5 PUSH1 0x20 SWAP4 SWAP1 SWAP4 ADD CALLDATALOAD SWAP4 POP POP POP JUMP JUMPDEST PUSH1 0x0 DUP1 PUSH1 0x40 DUP4 DUP6 SUB SLT ISZERO PUSH2 0x13C9 JUMPI PUSH1 0x0 DUP1 REVERT JUMPDEST POP POP DUP1 CALLDATALOAD SWAP3 PUSH1 0x20 SWAP1 SWAP2 ADD CALLDATALOAD SWAP2 POP JUMP JUMPDEST PUSH1 0x0 DUP1 PUSH1 0x40 DUP4 DUP6 SUB SLT ISZERO PUSH2 0x13EB JUMPI PUSH1 0x0 DUP1 REVERT JUMPDEST DUP3 CALLDATALOAD SWAP2 POP PUSH2 0x13FB PUSH1 0x20 DUP5 ADD PUSH2 0x1370 JUMP JUMPDEST SWAP1 POP SWAP3 POP SWAP3 SWAP1 POP JUMP JUMPDEST PUSH1 0x0 PUSH1 0x20 DUP3 DUP5 SUB SLT ISZERO PUSH2 0x1416 JUMPI PUSH1 0x0 DUP1 REVERT JUMPDEST PUSH2 0x703 DUP3 PUSH2 0x1370 JUMP JUMPDEST PUSH4 0x4E487B71 PUSH1 0xE0 SHL PUSH1 0x0 MSTORE PUSH1 0x32 PUSH1 0x4 MSTORE PUSH1 0x24 PUSH1 0x0 REVERT JUMPDEST PUSH4 0x4E487B71 PUSH1 0xE0 SHL PUSH1 0x0 MSTORE PUSH1 0x11 PUSH1 0x4 MSTORE PUSH1 0x24 PUSH1 0x0 REVERT JUMPDEST DUP2 DUP2 SUB DUP2 DUP2 GT ISZERO PUSH2 0x706 JUMPI PUSH2 0x706 PUSH2 0x1435 JUMP JUMPDEST DUP1 DUP3 ADD DUP1 DUP3 GT ISZERO PUSH2 0x706 JUMPI PUSH2 0x706 PUSH2 0x1435 JUMP JUMPDEST PUSH1 0x0 PUSH1 0x1 DUP3 ADD PUSH2 0x1483 JUMPI PUSH2 0x1483 PUSH2 0x1435 JUMP JUMPDEST POP PUSH1 0x1 ADD SWAP1 JUMP JUMPDEST DUP1 DUP3 MUL DUP2 ISZERO DUP3 DUP3 DIV DUP5 EQ OR PUSH2 0x706 JUMPI PUSH2 0x706 PUSH2 0x1435 JUMP JUMPDEST PUSH1 0x0 DUP3 PUSH2 0x14BE JUMPI PUSH4 0x4E487B71 PUSH1 0xE0 SHL PUSH1 0x0 MSTORE PUSH1 0x12 PUSH1 0x4 MSTORE PUSH1 0x24 PUSH1 0x0 REVERT JUMPDEST POP DIV SWAP1 JUMP JUMPDEST PUSH1 0x0 PUSH1 0x20 DUP3 DUP5 SUB SLT ISZERO PUSH2 0x14D5 JUMPI PUSH1 0x0 DUP1 REVERT JUMPDEST DUP2 MLOAD DUP1 ISZERO ISZERO DUP2 EQ PUSH2 0x14E5 JUMPI PUSH1 0x0 DUP1 REVERT JUMPDEST SWAP4 SWAP3 POP POP POP JUMP JUMPDEST PUSH1 0x0 JUMPDEST DUP4 DUP2 LT ISZERO PUSH2 0x1507 JUMPI DUP2 DUP2 ADD MLOAD DUP4 DUP3 ADD MSTORE PUSH1 0x20 ADD PUSH2 0x14EF JUMP JUMPDEST POP POP PUSH1 0x0 SWAP2 ADD MSTORE JUMP JUMPDEST PUSH1 0x0 DUP3 MLOAD PUSH2 0x1522 DUP2 DUP5 PUSH1 0x20 DUP8 ADD PUSH2 0x14EC JUMP JUMPDEST SWAP2 SWAP1 SWAP2 ADD SWAP3 SWAP2 POP POP JUMP JUMPDEST PUSH1 0x20 DUP2 MSTORE PUSH1 0x0 DUP3 MLOAD DUP1 PUSH1 0x20 DUP5 ADD MSTORE PUSH2 0x154B DUP2 PUSH1 0x40 DUP6 ADD PUSH1 0x20 DUP8 ADD PUSH2 0x14EC JUMP JUMPDEST PUSH1 0x1F ADD PUSH1 0x1F NOT AND SWAP2 SWAP1 SWAP2 ADD PUSH1 0x40 ADD SWAP3 SWAP2 POP POP JUMP INVALID LOG2 PUSH5 0x6970667358 0x22 SLT KECCAK256 SWAP15 EQ 0xBE SWAP1 ADDRESS SWAP11 LOG2 0xD SWAP9 PUSH25 0x3B7100A2EC62CC11166D9F2879D3F77BF4A1AF136C8C64736F PUSH13 0x63430008110033000000000000 "
		},
		"gasEstimates": {
			"creation": {
				"codeDepositCost": "1105000",
				"executionCost": "infinite",
				"totalCost": "infinite"
			},
			"external": {
				"BASE()": "272",
				"DENOMINATOR()": "229",
				"DENOMINATOR_TEST()": "250",
				"addPool(uint256,uint256)": "146552",
				"calculateReward(uint256,address)": "infinite",
				"deposit(uint256,uint256)": "infinite",
				"getAllAmount()": "infinite",
				"getMultiplier(uint256,uint256)": "infinite",
				"getPoolInfo(uint256)": "infinite",
				"owner()": "2442",
				"para()": "2405",
				"pendingReward(uint256,address)": "infinite",
				"poolLength()": "2294",
				"recoverWrongTokens(address,uint256)": "infinite",
				"renounceOwnership()": "infinite",
				"setApr(uint256,uint256)": "74785",
				"transferOwnership(address)": "28447",
				"userInfo(uint256,address)": "6950",
				"withdraw(uint256,uint256)": "infinite"
			},
			"internal": {
				"initialized()": "infinite"
			}
		},
		"methodIdentifiers": {
			"BASE()": "ec342ad0",
			"DENOMINATOR()": "918f8674",
			"DENOMINATOR_TEST()": "e3d0b2bf",
			"addPool(uint256,uint256)": "6d89dbc5",
			"calculateReward(uint256,address)": "a18f07a0",
			"deposit(uint256,uint256)": "e2bbb158",
			"getAllAmount()": "51166d78",
			"getMultiplier(uint256,uint256)": "8dbb1e3a",
			"getPoolInfo(uint256)": "2f380b35",
			"owner()": "8da5cb5b",
			"para()": "3e3cca90",
			"pendingReward(uint256,address)": "98969e82",
			"poolLength()": "081e3eda",
			"recoverWrongTokens(address,uint256)": "3f138d4b",
			"renounceOwnership()": "715018a6",
			"setApr(uint256,uint256)": "cfbb3dbd",
			"transferOwnership(address)": "f2fde38b",
			"userInfo(uint256,address)": "93f1a40b",
			"withdraw(uint256,uint256)": "441a3e70"
		}
	},
	"abi": [
		{
			"inputs": [
				{
					"internalType": "contract IBEP20",
					"name": "_para",
					"type": "address"
				}
			],
			"stateMutability": "nonpayable",
			"type": "constructor"
		},
		{
			"anonymous": false,
			"inputs": [
				{
					"indexed": true,
					"internalType": "uint256",
					"name": "pid",
					"type": "uint256"
				},
				{
					"indexed": true,
					"internalType": "uint256",
					"name": "apr",
					"type": "uint256"
				},
				{
					"indexed": true,
					"internalType": "uint256",
					"name": "duration",
					"type": "uint256"
				}
			],
			"name": "AddPool",
			"type": "event"
		},
		{
			"anonymous": false,
			"inputs": [
				{
					"indexed": true,
					"internalType": "address",
					"name": "user",
					"type": "address"
				},
				{
					"indexed": true,
					"internalType": "uint256",
					"name": "pid",
					"type": "uint256"
				},
				{
					"indexed": false,
					"internalType": "uint256",
					"name": "amount",
					"type": "uint256"
				}
			],
			"name": "Deposit",
			"type": "event"
		},
		{
			"anonymous": false,
			"inputs": [
				{
					"indexed": true,
					"internalType": "address",
					"name": "previousOwner",
					"type": "address"
				},
				{
					"indexed": true,
					"internalType": "address",
					"name": "newOwner",
					"type": "address"
				}
			],
			"name": "OwnershipTransferred",
			"type": "event"
		},
		{
			"anonymous": false,
			"inputs": [
				{
					"indexed": true,
					"internalType": "uint256",
					"name": "pid",
					"type": "uint256"
				},
				{
					"indexed": true,
					"internalType": "uint256",
					"name": "apr",
					"type": "uint256"
				}
			],
			"name": "SetApr",
			"type": "event"
		},
		{
			"anonymous": false,
			"inputs": [
				{
					"indexed": true,
					"internalType": "address",
					"name": "user",
					"type": "address"
				},
				{
					"indexed": true,
					"internalType": "uint256",
					"name": "pid",
					"type": "uint256"
				},
				{
					"indexed": false,
					"internalType": "uint256",
					"name": "amount",
					"type": "uint256"
				}
			],
			"name": "Withdraw",
			"type": "event"
		},
		{
			"inputs": [],
			"name": "BASE",
			"outputs": [
				{
					"internalType": "uint256",
					"name": "",
					"type": "uint256"
				}
			],
			"stateMutability": "view",
			"type": "function"
		},
		{
			"inputs": [],
			"name": "DENOMINATOR",
			"outputs": [
				{
					"internalType": "uint256",
					"name": "",
					"type": "uint256"
				}
			],
			"stateMutability": "view",
			"type": "function"
		},
		{
			"inputs": [],
			"name": "DENOMINATOR_TEST",
			"outputs": [
				{
					"internalType": "uint256",
					"name": "",
					"type": "uint256"
				}
			],
			"stateMutability": "view",
			"type": "function"
		},
		{
			"inputs": [
				{
					"internalType": "uint256",
					"name": "_apr",
					"type": "uint256"
				},
				{
					"internalType": "uint256",
					"name": "_duration",
					"type": "uint256"
				}
			],
			"name": "addPool",
			"outputs": [],
			"stateMutability": "nonpayable",
			"type": "function"
		},
		{
			"inputs": [
				{
					"internalType": "uint256",
					"name": "_pid",
					"type": "uint256"
				},
				{
					"internalType": "address",
					"name": "_user",
					"type": "address"
				}
			],
			"name": "calculateReward",
			"outputs": [
				{
					"internalType": "uint256",
					"name": "reward",
					"type": "uint256"
				}
			],
			"stateMutability": "view",
			"type": "function"
		},
		{
			"inputs": [
				{
					"internalType": "uint256",
					"name": "_pid",
					"type": "uint256"
				},
				{
					"internalType": "uint256",
					"name": "_amount",
					"type": "uint256"
				}
			],
			"name": "deposit",
			"outputs": [],
			"stateMutability": "nonpayable",
			"type": "function"
		},
		{
			"inputs": [],
			"name": "getAllAmount",
			"outputs": [
				{
					"internalType": "uint256",
					"name": "allAmount",
					"type": "uint256"
				}
			],
			"stateMutability": "view",
			"type": "function"
		},
		{
			"inputs": [
				{
					"internalType": "uint256",
					"name": "_from",
					"type": "uint256"
				},
				{
					"internalType": "uint256",
					"name": "_to",
					"type": "uint256"
				}
			],
			"name": "getMultiplier",
			"outputs": [
				{
					"internalType": "uint256",
					"name": "",
					"type": "uint256"
				}
			],
			"stateMutability": "pure",
			"type": "function"
		},
		{
			"inputs": [
				{
					"internalType": "uint256",
					"name": "_pid",
					"type": "uint256"
				}
			],
			"name": "getPoolInfo",
			"outputs": [
				{
					"components": [
						{
							"internalType": "uint256",
							"name": "id",
							"type": "uint256"
						},
						{
							"internalType": "uint256",
							"name": "amount",
							"type": "uint256"
						},
						{
							"internalType": "uint256",
							"name": "duration",
							"type": "uint256"
						},
						{
							"components": [
								{
									"internalType": "uint256",
									"name": "apr",
									"type": "uint256"
								},
								{
									"internalType": "uint256",
									"name": "time",
									"type": "uint256"
								}
							],
							"internalType": "struct FixedTermStack.AprInfo[]",
							"name": "aprs",
							"type": "tuple[]"
						}
					],
					"internalType": "struct FixedTermStack.PoolInfo",
					"name": "info",
					"type": "tuple"
				}
			],
			"stateMutability": "view",
			"type": "function"
		},
		{
			"inputs": [],
			"name": "owner",
			"outputs": [
				{
					"internalType": "address",
					"name": "",
					"type": "address"
				}
			],
			"stateMutability": "view",
			"type": "function"
		},
		{
			"inputs": [],
			"name": "para",
			"outputs": [
				{
					"internalType": "contract IBEP20",
					"name": "",
					"type": "address"
				}
			],
			"stateMutability": "view",
			"type": "function"
		},
		{
			"inputs": [
				{
					"internalType": "uint256",
					"name": "_pid",
					"type": "uint256"
				},
				{
					"internalType": "address",
					"name": "_user",
					"type": "address"
				}
			],
			"name": "pendingReward",
			"outputs": [
				{
					"internalType": "uint256",
					"name": "reward",
					"type": "uint256"
				}
			],
			"stateMutability": "view",
			"type": "function"
		},
		{
			"inputs": [],
			"name": "poolLength",
			"outputs": [
				{
					"internalType": "uint256",
					"name": "",
					"type": "uint256"
				}
			],
			"stateMutability": "view",
			"type": "function"
		},
		{
			"inputs": [
				{
					"internalType": "address",
					"name": "_tokenAddress",
					"type": "address"
				},
				{
					"internalType": "uint256",
					"name": "_tokenAmount",
					"type": "uint256"
				}
			],
			"name": "recoverWrongTokens",
			"outputs": [],
			"stateMutability": "nonpayable",
			"type": "function"
		},
		{
			"inputs": [],
			"name": "renounceOwnership",
			"outputs": [],
			"stateMutability": "nonpayable",
			"type": "function"
		},
		{
			"inputs": [
				{
					"internalType": "uint256",
					"name": "_pid",
					"type": "uint256"
				},
				{
					"internalType": "uint256",
					"name": "_apr",
					"type": "uint256"
				}
			],
			"name": "setApr",
			"outputs": [],
			"stateMutability": "nonpayable",
			"type": "function"
		},
		{
			"inputs": [
				{
					"internalType": "address",
					"name": "newOwner",
					"type": "address"
				}
			],
			"name": "transferOwnership",
			"outputs": [],
			"stateMutability": "nonpayable",
			"type": "function"
		},
		{
			"inputs": [
				{
					"internalType": "uint256",
					"name": "",
					"type": "uint256"
				},
				{
					"internalType": "address",
					"name": "",
					"type": "address"
				}
			],
			"name": "userInfo",
			"outputs": [
				{
					"internalType": "uint256",
					"name": "amount",
					"type": "uint256"
				},
				{
					"internalType": "uint256",
					"name": "lockStartTime",
					"type": "uint256"
				},
				{
					"internalType": "uint256",
					"name": "offset",
					"type": "uint256"
				}
			],
			"stateMutability": "view",
			"type": "function"
		},
		{
			"inputs": [
				{
					"internalType": "uint256",
					"name": "_pid",
					"type": "uint256"
				},
				{
					"internalType": "uint256",
					"name": "_amount",
					"type": "uint256"
				}
			],
			"name": "withdraw",
			"outputs": [],
			"stateMutability": "nonpayable",
			"type": "function"
		}
	]
}