{
	"data": {
		"bytecode": {
			"linkReferences": {},
			"object": "608060405234801561001057600080fd5b5061001a3361001f565b61006f565b600080546001600160a01b038381166001600160a01b0319831681178455604051919092169283917f8be0079c531659141344cd1fd0a4f28419497f9722a3daafe3b4186f6b6457e09190a35050565b61276a8061007e6000396000f3fe608060405234801561001057600080fd5b506004361061004c5760003560e01c8063715018a6146100515780638da5cb5b1461005b578063f2fde38b1461007a578063f8d98c8a1461008d575b600080fd5b6100596100a0565b005b600054604080516001600160a01b039092168252519081900360200190f35b610059610088366004610529565b6100df565b61005961009b36600461054d565b61017a565b6000546001600160a01b031633146100d35760405162461bcd60e51b81526004016100ca906105fc565b60405180910390fd5b6100dd60006104a7565b565b6000546001600160a01b031633146101095760405162461bcd60e51b81526004016100ca906105fc565b6001600160a01b03811661016e5760405162461bcd60e51b815260206004820152602660248201527f4f776e61626c653a206e6577206f776e657220697320746865207a65726f206160448201526564647265737360d01b60648201526084016100ca565b610177816104a7565b50565b6000546001600160a01b031633146101a45760405162461bcd60e51b81526004016100ca906105fc565b60008b6001600160a01b03166318160ddd6040518163ffffffff1660e01b8152600401602060405180830381865afa1580156101e4573d6000803e3d6000fd5b505050506040513d601f19601f820116820180604052508101906102089190610631565b101561021357600080fd5b60008a6001600160a01b03166318160ddd6040518163ffffffff1660e01b8152600401602060405180830381865afa158015610253573d6000803e3d6000fd5b505050506040513d601f19601f820116820180604052508101906102779190610631565b101561028257600080fd5b896001600160a01b03168b6001600160a01b0316036102e35760405162461bcd60e51b815260206004820152601b60248201527f546f6b656e73206d75737420626520626520646966666572656e74000000000060448201526064016100ca565b6000604051806020016102f5906104f7565b601f1982820381018352601f9091011660408181526001600160a01b03881660208301528615159082015260608101859052909150819060800160408051601f198184030181529082905261034d929160200161067a565b60408051601f19818403018152908290526bffffffffffffffffffffffff1960608f811b821660208501528e901b166034830152604882018b905291506000906068016040516020818303038152906040528051906020012090506000818351602085016000f59050806001600160a01b0316632aa2c3818f8f8f8f8f8f8f8c6040518963ffffffff1660e01b81526004016104319897969594939291906001600160a01b039889168152968816602088015260408701959095526060860193909352608085019190915260a084015260c083015290911660e08201526101000190565b600060405180830381600087803b15801561044b57600080fd5b505af115801561045f573d6000803e3d6000fd5b50506040516001600160a01b03841692507fe0d103a92c6ff6c4aceb49d436f4028e0deb4884fdbcb9f32b03045eabb44a6c9150600090a25050505050505050505050505050565b600080546001600160a01b038381166001600160a01b0319831681178455604051919092169283917f8be0079c531659141344cd1fd0a4f28419497f9722a3daafe3b4186f6b6457e09190a35050565b61209d8061069883390190565b6001600160a01b038116811461017757600080fd5b803561052481610504565b919050565b60006020828403121561053b57600080fd5b813561054681610504565b9392505050565b60008060008060008060008060008060006101608c8e03121561056f57600080fd5b8b3561057a81610504565b9a5060208c013561058a81610504565b995060408c0135985060608c0135975060808c0135965060a08c0135955060c08c0135945060e08c01356105bd81610504565b93506101008c013580151581146105d357600080fd5b92506101208c013591506105ea6101408d01610519565b90509295989b509295989b9093969950565b6020808252818101527f4f776e61626c653a2063616c6c6572206973206e6f7420746865206f776e6572604082015260600190565b60006020828403121561064357600080fd5b5051919050565b6000815160005b8181101561066b5760208185018101518683015201610651565b50600093019283525090919050565b600061068f610689838661064a565b8461064a565b94935050505056fe60c06040523480156200001157600080fd5b506040516200209d3803806200209d83398101604081905262000034916200014e565b6200003f33620000e8565b60018080553360805260405163aee2f47f60e01b815260048101919091526001600160a01b0384169063aee2f47f90602401600060405180830381865afa1580156200008f573d6000803e3d6000fd5b505050506040513d6000823e601f3d908101601f19168201604052620000b9919081019062000261565b505050506001600160a01b039390931660a0526009805460ff191692151592909217909155600a5550620002f1565b600080546001600160a01b038381166001600160a01b0319831681178455604051919092169283917f8be0079c531659141344cd1fd0a4f28419497f9722a3daafe3b4186f6b6457e09190a35050565b805180151581146200014957600080fd5b919050565b6000806000606084860312156200016457600080fd5b83516001600160a01b03811681146200017c57600080fd5b92506200018c6020850162000138565b9150604084015190509250925092565b634e487b7160e01b600052604160045260246000fd5b600082601f830112620001c457600080fd5b81516001600160401b0380821115620001e157620001e16200019c565b604051601f8301601f19908116603f011681019082821181831017156200020c576200020c6200019c565b816040528381526020925086838588010111156200022957600080fd5b600091505b838210156200024d57858201830151818301840152908201906200022e565b600093810190920192909252949350505050565b600080600080600060a086880312156200027a57600080fd5b85516001600160401b03808211156200029257600080fd5b620002a089838a01620001b2565b96506020880151915080821115620002b757600080fd5b50620002c688828901620001b2565b9450506040860151925060608601519150620002e56080870162000138565b90509295509295909350565b60805160a051611d716200032c600039600081816103e901528181610f130152610ffe0152600081816103c201526105730152611d716000f3fe608060405234801561001057600080fd5b50600436106101fb5760003560e01c80638ae39cac1161011a578063b6b55f25116100ad578063ccd34cd51161007c578063ccd34cd51461041e578063db2e21bc14610427578063f2fde38b1461042f578063f40f0f5214610442578063f7c618c11461045557600080fd5b8063b6b55f25146103aa578063bd617191146103bd578063c7d936ec146103e4578063cc7a262e1461040b57600080fd5b80639513997f116100e95780639513997f146103685780639be65a601461037b578063a0b409051461038e578063a9f8d181146103a157600080fd5b80638ae39cac146103295780638da5cb5b146103325780638f6629151461035757806392e8990e1461036057600080fd5b806348cd4cb111610192578063681096311161016157806368109631146102fd578063715018a61461031057806380dc0672146103185780638ad1071b1461032057600080fd5b806348cd4cb1146102d15780634a7c01ec146102da5780635a0b5f34146102e757806366fe9f8a146102f457600080fd5b80632aa2c381116101ce5780632aa2c381146102765780632e1a7d4d146102895780633279beab1461029c578063392e53cd146102af57600080fd5b806301f8a976146102005780630ace6247146102155780631959a002146102315780631aed65531461026d575b600080fd5b61021361020e36600461191c565b610468565b005b61021e600a5481565b6040519081526020015b60405180910390f35b61025861023f36600461194a565b600f602052600090815260409020805460019091015482565b60408051928352602083019190915201610228565b61021e60045481565b610213610284366004611967565b61051a565b61021361029736600461191c565b610727565b6102136102aa36600461191c565b610891565b6002546102c190610100900460ff1681565b6040519015158152602001610228565b61021e60055481565b6002546102c19060ff1681565b6009546102c19060ff1681565b61021e60075481565b61021361030b3660046119f1565b6108d5565b610213610953565b610213610989565b61021e60085481565b61021e600b5481565b6000546001600160a01b03165b6040516001600160a01b039091168152602001610228565b61021e60035481565b6102c16109b9565b610213610376366004611a1d565b6109ee565b61021361038936600461194a565b610b6f565b61021361039c3660046119f1565b610d9d565b61021e60065481565b6102136103b836600461191c565b610eaf565b61033f7f000000000000000000000000000000000000000000000000000000000000000081565b61033f7f000000000000000000000000000000000000000000000000000000000000000081565b600e5461033f906001600160a01b031681565b61021e600c5481565b610213611243565b61021361043d36600461194a565b6112e4565b61021e61045036600461194a565b61137c565b600d5461033f906001600160a01b031681565b6000546001600160a01b0316331461049b5760405162461bcd60e51b815260040161049290611a3f565b60405180910390fd5b60055443106104df5760405162461bcd60e51b815260206004820152601060248201526f141bdbdb081a185cc81cdd185c9d195960821b6044820152606401610492565b600b8190556040518181527f0c4d677eef92893ac7ec52faf8140fc6c851ab4736302b4f3a89dfb20696a0df9060200160405180910390a150565b600254610100900460ff16156105685760405162461bcd60e51b8152602060048201526013602482015272105b1c9958591e481a5b9a5d1a585b1a5e9959606a1b6044820152606401610492565b336001600160a01b037f000000000000000000000000000000000000000000000000000000000000000016146105ce5760405162461bcd60e51b815260206004820152600b60248201526a4e6f7420666163746f727960a81b6044820152606401610492565b6002805461ff001916610100179055600e80546001600160a01b03808b166001600160a01b031992831617909255600d8054928a1692909116919091179055600b86905560058590556004849055821561063a576002805460ff19166001179055600783905560088290555b600d546040805163313ce56760e01b815290516000926001600160a01b03169163313ce5679160048083019260209291908290030181865afa158015610684573d6000803e3d6000fd5b505050506040513d601f19601f820116820180604052508101906106a89190611a74565b60ff169050601e81106106f45760405162461bcd60e51b815260206004820152601460248201527304d757374206265206c657373207468616e2033360641b6044820152606401610492565b6106ff81601e611aad565b61070a90600a611ba4565b600c5560055460065561071c826112e4565b505050505050505050565b6002600154036107495760405162461bcd60e51b815260040161049290611bb0565b6002600155336000908152600f6020526040902080548211156107ae5760405162461bcd60e51b815260206004820152601b60248201527f416d6f756e7420746f20776974686472617720746f6f206869676800000000006044820152606401610492565b6107b66114cc565b60008160010154600c5460035484600001546107d29190611be7565b6107dc9190611bfe565b6107e69190611aad565b905082156108145781546107fb908490611aad565b8255600e54610814906001600160a01b031633856115a9565b801561083157600d54610831906001600160a01b031633836115a9565b600c5460035483546108439190611be7565b61084d9190611bfe565b600183015560405183815233907f884edad9ce6fa2440d8a54cc123490eb96d2768479d49ff9c7366125a9424364906020015b60405180910390a250506001805550565b6000546001600160a01b031633146108bb5760405162461bcd60e51b815260040161049290611a3f565b600d546108d2906001600160a01b031633836115a9565b50565b6000546001600160a01b031633146108ff5760405162461bcd60e51b815260040161049290611a3f565b6009805460ff1916831515908117909155600a82905560408051918252602082018390527f915d08e0e89c58e352d7c1d66c942cb15dac8a7294d2ca80ddf46f1998f0512b91015b60405180910390a15050565b6000546001600160a01b0316331461097d5760405162461bcd60e51b815260040161049290611a3f565b6109876000611611565b565b6000546001600160a01b031633146109b35760405162461bcd60e51b815260040161049290611a3f565b43600455565b60025460009060ff1615806109dd57506008546005546109d99190611c20565b4310155b156109e85750600090565b50600190565b6000546001600160a01b03163314610a185760405162461bcd60e51b815260040161049290611a3f565b6005544310610a5c5760405162461bcd60e51b815260206004820152601060248201526f141bdbdb081a185cc81cdd185c9d195960821b6044820152606401610492565b808210610ac25760405162461bcd60e51b815260206004820152602e60248201527f4e6577207374617274426c6f636b206d757374206265206c6f7765722074686160448201526d6e206e657720656e64426c6f636b60901b6064820152608401610492565b814310610b2a5760405162461bcd60e51b815260206004820152603060248201527f4e6577207374617274426c6f636b206d7573742062652068696768657220746860448201526f616e2063757272656e7420626c6f636b60801b6064820152608401610492565b60058290556004819055600682905560408051838152602081018390527f7cd0ab87d19036f3dfadadb232c78aa4879dda3f0c994a9d637532410ee2ce069101610947565b6000546001600160a01b03163314610b995760405162461bcd60e51b815260040161049290611a3f565b600e546001600160a01b0390811690821603610c075760405162461bcd60e51b815260206004820152602760248201527f4f7065726174696f6e733a2043616e6e6f74207265636f766572207374616b6560448201526632103a37b5b2b760c91b6064820152608401610492565b600d546001600160a01b0390811690821603610c755760405162461bcd60e51b815260206004820152602760248201527f4f7065726174696f6e733a2043616e6e6f74207265636f76657220726577617260448201526632103a37b5b2b760c91b6064820152608401610492565b6040516370a0823160e01b81523060048201526000906001600160a01b038316906370a0823190602401602060405180830381865afa158015610cbc573d6000803e3d6000fd5b505050506040513d601f19601f82011682018060405250810190610ce09190611c33565b905080600003610d425760405162461bcd60e51b815260206004820152602760248201527f4f7065726174696f6e733a2043616e6e6f74207265636f766572207a65726f2060448201526662616c616e636560c81b6064820152608401610492565b610d566001600160a01b03831633836115a9565b816001600160a01b03167f14f11966a996e0629572e51064726d2057a80fbd34efc066682c06a71dbb6e9882604051610d9191815260200190565b60405180910390a25050565b6000546001600160a01b03163314610dc75760405162461bcd60e51b815260040161049290611a3f565b60025460ff16610e075760405162461bcd60e51b815260206004820152600b60248201526a135d5cdd081899481cd95d60aa1b6044820152606401610492565b8115610e68576007548111610e5e5760405162461bcd60e51b815260206004820152601860248201527f4e6577206c696d6974206d7573742062652068696768657200000000000000006044820152606401610492565b6007819055610e7c565b6002805460ff191683151517905560006007555b7f241f67ee5f41b7a5cabf911367329be7215900f602ebfc47f89dce2a6bcd847c60075460405161094791815260200190565b600260015403610ed15760405162461bcd60e51b815260040161049290611bb0565b6002600155336000908152600f6020526040902060095460ff16158015610ef85750600a54155b80610f86575060405163ea0d5dcd60e01b81523360048201527f00000000000000000000000000000000000000000000000000000000000000006001600160a01b03169063ea0d5dcd90602401602060405180830381865afa158015610f62573d6000803e3d6000fd5b505050506040513d601f19601f82011682018060405250810190610f869190611c4c565b610fde5760405162461bcd60e51b8152602060048201526024808201527f4465706f7369743a204d757374206861766520616e206163746976652070726f60448201526366696c6560e01b6064820152608401610492565b600a546000901561107a57604051634c3f70ab60e11b81523360048201527f00000000000000000000000000000000000000000000000000000000000000006001600160a01b03169063987ee1569060240160c060405180830381865afa15801561104d573d6000803e3d6000fd5b505050506040513d601f19601f820116820180604052508101906110719190611c69565b50929450505050505b600a54158061108b5750600a548110155b6110e35760405162461bcd60e51b815260206004820152602360248201527f4465706f7369743a205573657220686173206e6f7420656e6f75676820706f696044820152626e747360e81b6064820152608401610492565b6110eb6109b9565b6002805460ff1916911515918217905560ff161580611117575060075482546111149085611c20565b11155b6111635760405162461bcd60e51b815260206004820152601b60248201527f4465706f7369743a20416d6f756e742061626f7665206c696d697400000000006044820152606401610492565b61116b6114cc565b8154156111c35760008260010154600c54600354856000015461118e9190611be7565b6111989190611bfe565b6111a29190611aad565b905080156111c157600d546111c1906001600160a01b031633836115a9565b505b82156111f05781546111d6908490611c20565b8255600e546111f0906001600160a01b0316333086611661565b600c5460035483546112029190611be7565b61120c9190611bfe565b600183015560405183815233907fe1fffcc4923d04b559f4d29a8bfc6cda04eb5b0d3c460751c2402c5c5cc9109c90602001610880565b6002600154036112655760405162461bcd60e51b815260040161049290611bb0565b60026001908155336000908152600f602052604081208054828255928101919091559080156112a557600e546112a5906001600160a01b031633836115a9565b815460405190815233907f5fafa99d0643513820be26656b45130b01e1c03062e1266bf36f88cbd3bd96959060200160405180910390a2505060018055565b6000546001600160a01b0316331461130e5760405162461bcd60e51b815260040161049290611a3f565b6001600160a01b0381166113735760405162461bcd60e51b815260206004820152602660248201527f4f776e61626c653a206e6577206f776e657220697320746865207a65726f206160448201526564647265737360d01b6064820152608401610492565b6108d281611611565b6001600160a01b038181166000908152600f6020526040808220600e5491516370a0823160e01b8152306004820152929390928492909116906370a0823190602401602060405180830381865afa1580156113db573d6000803e3d6000fd5b505050506040513d601f19601f820116820180604052508101906113ff9190611c33565b90506006544311801561141157508015155b156114995760006114246006544361169f565b90506000600b54826114369190611be7565b9050600083600c54836114499190611be7565b6114539190611bfe565b6003546114609190611c20565b90508460010154600c5482876000015461147a9190611be7565b6114849190611bfe565b61148e9190611aad565b979650505050505050565b6001820154600c5460035484546114b09190611be7565b6114ba9190611bfe565b6114c49190611aad565b949350505050565b60065443116114d757565b600e546040516370a0823160e01b81523060048201526000916001600160a01b0316906370a0823190602401602060405180830381865afa158015611520573d6000803e3d6000fd5b505050506040513d601f19601f820116820180604052508101906115449190611c33565b905080600003611555575043600655565b60006115636006544361169f565b90506000600b54826115759190611be7565b905082600c54826115869190611be7565b6115909190611bfe565b60035461159d9190611c20565b60035550504360065550565b6040516001600160a01b03831660248201526044810182905261160c90849063a9059cbb60e01b906064015b60408051601f198184030181529190526020810180516001600160e01b03166001600160e01b0319909316929092179091526116e0565b505050565b600080546001600160a01b038381166001600160a01b0319831681178455604051919092169283917f8be0079c531659141344cd1fd0a4f28419497f9722a3daafe3b4186f6b6457e09190a35050565b6040516001600160a01b03808516602483015283166044820152606481018290526116999085906323b872dd60e01b906084016115d5565b50505050565b600060045482116116bb576116b48383611aad565b90506116da565b60045483106116cc575060006116da565b826004546116b49190611aad565b92915050565b6000611735826040518060400160405280602081526020017f5361666545524332303a206c6f772d6c6576656c2063616c6c206661696c6564815250856001600160a01b03166117b29092919063ffffffff16565b80519091501561160c57808060200190518101906117539190611c4c565b61160c5760405162461bcd60e51b815260206004820152602a60248201527f5361666545524332303a204552433230206f7065726174696f6e20646964206e6044820152691bdd081cdd58d8d9595960b21b6064820152608401610492565b60606117c184846000856117cb565b90505b9392505050565b60608247101561182c5760405162461bcd60e51b815260206004820152602660248201527f416464726573733a20696e73756666696369656e742062616c616e636520666f6044820152651c8818d85b1b60d21b6064820152608401610492565b843b61187a5760405162461bcd60e51b815260206004820152601d60248201527f416464726573733a2063616c6c20746f206e6f6e2d636f6e74726163740000006044820152606401610492565b600080866001600160a01b031685876040516118969190611cec565b60006040518083038185875af1925050503d80600081146118d3576040519150601f19603f3d011682016040523d82523d6000602084013e6118d8565b606091505b509150915061148e828286606083156118f25750816117c4565b8251156119025782518084602001fd5b8160405162461bcd60e51b81526004016104929190611d08565b60006020828403121561192e57600080fd5b5035919050565b6001600160a01b03811681146108d257600080fd5b60006020828403121561195c57600080fd5b81356117c481611935565b600080600080600080600080610100898b03121561198457600080fd5b883561198f81611935565b9750602089013561199f81611935565b965060408901359550606089013594506080890135935060a0890135925060c0890135915060e08901356119d281611935565b809150509295985092959890939650565b80151581146108d257600080fd5b60008060408385031215611a0457600080fd5b8235611a0f816119e3565b946020939093013593505050565b60008060408385031215611a3057600080fd5b50508035926020909101359150565b6020808252818101527f4f776e61626c653a2063616c6c6572206973206e6f7420746865206f776e6572604082015260600190565b600060208284031215611a8657600080fd5b815160ff811681146117c457600080fd5b634e487b7160e01b600052601160045260246000fd5b818103818111156116da576116da611a97565b600181815b80851115611afb578160001904821115611ae157611ae1611a97565b80851615611aee57918102915b93841c9390800290611ac5565b509250929050565b600082611b12575060016116da565b81611b1f575060006116da565b8160018114611b355760028114611b3f57611b5b565b60019150506116da565b60ff841115611b5057611b50611a97565b50506001821b6116da565b5060208310610133831016604e8410600b8410161715611b7e575081810a6116da565b611b888383611ac0565b8060001904821115611b9c57611b9c611a97565b029392505050565b60006117c48383611b03565b6020808252601f908201527f5265656e7472616e637947756172643a207265656e7472616e742063616c6c00604082015260600190565b80820281158282048414176116da576116da611a97565b600082611c1b57634e487b7160e01b600052601260045260246000fd5b500490565b808201808211156116da576116da611a97565b600060208284031215611c4557600080fd5b5051919050565b600060208284031215611c5e57600080fd5b81516117c4816119e3565b60008060008060008060c08789031215611c8257600080fd5b8651955060208701519450604087015193506060870151611ca281611935565b608088015160a08901519194509250611cba816119e3565b809150509295509295509295565b60005b83811015611ce3578181015183820152602001611ccb565b50506000910152565b60008251611cfe818460208701611cc8565b9190910192915050565b6020815260008251806020840152611d27816040850160208701611cc8565b601f01601f1916919091016040019291505056fea26469706673582212200215c99a8b23ed0348d066929ecab7b6aa5de5fe1a57c11dd2ba375c21b7088864736f6c63430008110033a26469706673582212200f877c641265466b8697d2352ef2abc6f58616c1d902e9d35774b4d6c5262f9a64736f6c63430008110033",
			"opcodes": "PUSH1 0x80 PUSH1 0x40 MSTORE CALLVALUE DUP1 ISZERO PUSH2 0x10 JUMPI PUSH1 0x0 DUP1 REVERT JUMPDEST POP PUSH2 0x1A CALLER PUSH2 0x1F JUMP JUMPDEST PUSH2 0x6F JUMP JUMPDEST PUSH1 0x0 DUP1 SLOAD PUSH1 0x1 PUSH1 0x1 PUSH1 0xA0 SHL SUB DUP4 DUP2 AND PUSH1 0x1 PUSH1 0x1 PUSH1 0xA0 SHL SUB NOT DUP4 AND DUP2 OR DUP5 SSTORE PUSH1 0x40 MLOAD SWAP2 SWAP1 SWAP3 AND SWAP3 DUP4 SWAP2 PUSH32 0x8BE0079C531659141344CD1FD0A4F28419497F9722A3DAAFE3B4186F6B6457E0 SWAP2 SWAP1 LOG3 POP POP JUMP JUMPDEST PUSH2 0x276A DUP1 PUSH2 0x7E PUSH1 0x0 CODECOPY PUSH1 0x0 RETURN INVALID PUSH1 0x80 PUSH1 0x40 MSTORE CALLVALUE DUP1 ISZERO PUSH2 0x10 JUMPI PUSH1 0x0 DUP1 REVERT JUMPDEST POP PUSH1 0x4 CALLDATASIZE LT PUSH2 0x4C JUMPI PUSH1 0x0 CALLDATALOAD PUSH1 0xE0 SHR DUP1 PUSH4 0x715018A6 EQ PUSH2 0x51 JUMPI DUP1 PUSH4 0x8DA5CB5B EQ PUSH2 0x5B JUMPI DUP1 PUSH4 0xF2FDE38B EQ PUSH2 0x7A JUMPI DUP1 PUSH4 0xF8D98C8A EQ PUSH2 0x8D JUMPI JUMPDEST PUSH1 0x0 DUP1 REVERT JUMPDEST PUSH2 0x59 PUSH2 0xA0 JUMP JUMPDEST STOP JUMPDEST PUSH1 0x0 SLOAD PUSH1 0x40 DUP1 MLOAD PUSH1 0x1 PUSH1 0x1 PUSH1 0xA0 SHL SUB SWAP1 SWAP3 AND DUP3 MSTORE MLOAD SWAP1 DUP2 SWAP1 SUB PUSH1 0x20 ADD SWAP1 RETURN JUMPDEST PUSH2 0x59 PUSH2 0x88 CALLDATASIZE PUSH1 0x4 PUSH2 0x529 JUMP JUMPDEST PUSH2 0xDF JUMP JUMPDEST PUSH2 0x59 PUSH2 0x9B CALLDATASIZE PUSH1 0x4 PUSH2 0x54D JUMP JUMPDEST PUSH2 0x17A JUMP JUMPDEST PUSH1 0x0 SLOAD PUSH1 0x1 PUSH1 0x1 PUSH1 0xA0 SHL SUB AND CALLER EQ PUSH2 0xD3 JUMPI PUSH1 0x40 MLOAD PUSH3 0x461BCD PUSH1 0xE5 SHL DUP2 MSTORE PUSH1 0x4 ADD PUSH2 0xCA SWAP1 PUSH2 0x5FC JUMP JUMPDEST PUSH1 0x40 MLOAD DUP1 SWAP2 SUB SWAP1 REVERT JUMPDEST PUSH2 0xDD PUSH1 0x0 PUSH2 0x4A7 JUMP JUMPDEST JUMP JUMPDEST PUSH1 0x0 SLOAD PUSH1 0x1 PUSH1 0x1 PUSH1 0xA0 SHL SUB AND CALLER EQ PUSH2 0x109 JUMPI PUSH1 0x40 MLOAD PUSH3 0x461BCD PUSH1 0xE5 SHL DUP2 MSTORE PUSH1 0x4 ADD PUSH2 0xCA SWAP1 PUSH2 0x5FC JUMP JUMPDEST PUSH1 0x1 PUSH1 0x1 PUSH1 0xA0 SHL SUB DUP2 AND PUSH2 0x16E JUMPI PUSH1 0x40 MLOAD PUSH3 0x461BCD PUSH1 0xE5 SHL DUP2 MSTORE PUSH1 0x20 PUSH1 0x4 DUP3 ADD MSTORE PUSH1 0x26 PUSH1 0x24 DUP3 ADD MSTORE PUSH32 0x4F776E61626C653A206E6577206F776E657220697320746865207A65726F2061 PUSH1 0x44 DUP3 ADD MSTORE PUSH6 0x646472657373 PUSH1 0xD0 SHL PUSH1 0x64 DUP3 ADD MSTORE PUSH1 0x84 ADD PUSH2 0xCA JUMP JUMPDEST PUSH2 0x177 DUP2 PUSH2 0x4A7 JUMP JUMPDEST POP JUMP JUMPDEST PUSH1 0x0 SLOAD PUSH1 0x1 PUSH1 0x1 PUSH1 0xA0 SHL SUB AND CALLER EQ PUSH2 0x1A4 JUMPI PUSH1 0x40 MLOAD PUSH3 0x461BCD PUSH1 0xE5 SHL DUP2 MSTORE PUSH1 0x4 ADD PUSH2 0xCA SWAP1 PUSH2 0x5FC JUMP JUMPDEST PUSH1 0x0 DUP12 PUSH1 0x1 PUSH1 0x1 PUSH1 0xA0 SHL SUB AND PUSH4 0x18160DDD PUSH1 0x40 MLOAD DUP2 PUSH4 0xFFFFFFFF AND PUSH1 0xE0 SHL DUP2 MSTORE PUSH1 0x4 ADD PUSH1 0x20 PUSH1 0x40 MLOAD DUP1 DUP4 SUB DUP2 DUP7 GAS STATICCALL ISZERO DUP1 ISZERO PUSH2 0x1E4 JUMPI RETURNDATASIZE PUSH1 0x0 DUP1 RETURNDATACOPY RETURNDATASIZE PUSH1 0x0 REVERT JUMPDEST POP POP POP POP PUSH1 0x40 MLOAD RETURNDATASIZE PUSH1 0x1F NOT PUSH1 0x1F DUP3 ADD AND DUP3 ADD DUP1 PUSH1 0x40 MSTORE POP DUP2 ADD SWAP1 PUSH2 0x208 SWAP2 SWAP1 PUSH2 0x631 JUMP JUMPDEST LT ISZERO PUSH2 0x213 JUMPI PUSH1 0x0 DUP1 REVERT JUMPDEST PUSH1 0x0 DUP11 PUSH1 0x1 PUSH1 0x1 PUSH1 0xA0 SHL SUB AND PUSH4 0x18160DDD PUSH1 0x40 MLOAD DUP2 PUSH4 0xFFFFFFFF AND PUSH1 0xE0 SHL DUP2 MSTORE PUSH1 0x4 ADD PUSH1 0x20 PUSH1 0x40 MLOAD DUP1 DUP4 SUB DUP2 DUP7 GAS STATICCALL ISZERO DUP1 ISZERO PUSH2 0x253 JUMPI RETURNDATASIZE PUSH1 0x0 DUP1 RETURNDATACOPY RETURNDATASIZE PUSH1 0x0 REVERT JUMPDEST POP POP POP POP PUSH1 0x40 MLOAD RETURNDATASIZE PUSH1 0x1F NOT PUSH1 0x1F DUP3 ADD AND DUP3 ADD DUP1 PUSH1 0x40 MSTORE POP DUP2 ADD SWAP1 PUSH2 0x277 SWAP2 SWAP1 PUSH2 0x631 JUMP JUMPDEST LT ISZERO PUSH2 0x282 JUMPI PUSH1 0x0 DUP1 REVERT JUMPDEST DUP10 PUSH1 0x1 PUSH1 0x1 PUSH1 0xA0 SHL SUB AND DUP12 PUSH1 0x1 PUSH1 0x1 PUSH1 0xA0 SHL SUB AND SUB PUSH2 0x2E3 JUMPI PUSH1 0x40 MLOAD PUSH3 0x461BCD PUSH1 0xE5 SHL DUP2 MSTORE PUSH1 0x20 PUSH1 0x4 DUP3 ADD MSTORE PUSH1 0x1B PUSH1 0x24 DUP3 ADD MSTORE PUSH32 0x546F6B656E73206D75737420626520626520646966666572656E740000000000 PUSH1 0x44 DUP3 ADD MSTORE PUSH1 0x64 ADD PUSH2 0xCA JUMP JUMPDEST PUSH1 0x0 PUSH1 0x40 MLOAD DUP1 PUSH1 0x20 ADD PUSH2 0x2F5 SWAP1 PUSH2 0x4F7 JUMP JUMPDEST PUSH1 0x1F NOT DUP3 DUP3 SUB DUP2 ADD DUP4 MSTORE PUSH1 0x1F SWAP1 SWAP2 ADD AND PUSH1 0x40 DUP2 DUP2 MSTORE PUSH1 0x1 PUSH1 0x1 PUSH1 0xA0 SHL SUB DUP9 AND PUSH1 0x20 DUP4 ADD MSTORE DUP7 ISZERO ISZERO SWAP1 DUP3 ADD MSTORE PUSH1 0x60 DUP2 ADD DUP6 SWAP1 MSTORE SWAP1 SWAP2 POP DUP2 SWAP1 PUSH1 0x80 ADD PUSH1 0x40 DUP1 MLOAD PUSH1 0x1F NOT DUP2 DUP5 SUB ADD DUP2 MSTORE SWAP1 DUP3 SWAP1 MSTORE PUSH2 0x34D SWAP3 SWAP2 PUSH1 0x20 ADD PUSH2 0x67A JUMP JUMPDEST PUSH1 0x40 DUP1 MLOAD PUSH1 0x1F NOT DUP2 DUP5 SUB ADD DUP2 MSTORE SWAP1 DUP3 SWAP1 MSTORE PUSH12 0xFFFFFFFFFFFFFFFFFFFFFFFF NOT PUSH1 0x60 DUP16 DUP2 SHL DUP3 AND PUSH1 0x20 DUP6 ADD MSTORE DUP15 SWAP1 SHL AND PUSH1 0x34 DUP4 ADD MSTORE PUSH1 0x48 DUP3 ADD DUP12 SWAP1 MSTORE SWAP2 POP PUSH1 0x0 SWAP1 PUSH1 0x68 ADD PUSH1 0x40 MLOAD PUSH1 0x20 DUP2 DUP4 SUB SUB DUP2 MSTORE SWAP1 PUSH1 0x40 MSTORE DUP1 MLOAD SWAP1 PUSH1 0x20 ADD KECCAK256 SWAP1 POP PUSH1 0x0 DUP2 DUP4 MLOAD PUSH1 0x20 DUP6 ADD PUSH1 0x0 CREATE2 SWAP1 POP DUP1 PUSH1 0x1 PUSH1 0x1 PUSH1 0xA0 SHL SUB AND PUSH4 0x2AA2C381 DUP16 DUP16 DUP16 DUP16 DUP16 DUP16 DUP16 DUP13 PUSH1 0x40 MLOAD DUP10 PUSH4 0xFFFFFFFF AND PUSH1 0xE0 SHL DUP2 MSTORE PUSH1 0x4 ADD PUSH2 0x431 SWAP9 SWAP8 SWAP7 SWAP6 SWAP5 SWAP4 SWAP3 SWAP2 SWAP1 PUSH1 0x1 PUSH1 0x1 PUSH1 0xA0 SHL SUB SWAP9 DUP10 AND DUP2 MSTORE SWAP7 DUP9 AND PUSH1 0x20 DUP9 ADD MSTORE PUSH1 0x40 DUP8 ADD SWAP6 SWAP1 SWAP6 MSTORE PUSH1 0x60 DUP7 ADD SWAP4 SWAP1 SWAP4 MSTORE PUSH1 0x80 DUP6 ADD SWAP2 SWAP1 SWAP2 MSTORE PUSH1 0xA0 DUP5 ADD MSTORE PUSH1 0xC0 DUP4 ADD MSTORE SWAP1 SWAP2 AND PUSH1 0xE0 DUP3 ADD MSTORE PUSH2 0x100 ADD SWAP1 JUMP JUMPDEST PUSH1 0x0 PUSH1 0x40 MLOAD DUP1 DUP4 SUB DUP2 PUSH1 0x0 DUP8 DUP1 EXTCODESIZE ISZERO DUP1 ISZERO PUSH2 0x44B JUMPI PUSH1 0x0 DUP1 REVERT JUMPDEST POP GAS CALL ISZERO DUP1 ISZERO PUSH2 0x45F JUMPI RETURNDATASIZE PUSH1 0x0 DUP1 RETURNDATACOPY RETURNDATASIZE PUSH1 0x0 REVERT JUMPDEST POP POP PUSH1 0x40 MLOAD PUSH1 0x1 PUSH1 0x1 PUSH1 0xA0 SHL SUB DUP5 AND SWAP3 POP PUSH32 0xE0D103A92C6FF6C4ACEB49D436F4028E0DEB4884FDBCB9F32B03045EABB44A6C SWAP2 POP PUSH1 0x0 SWAP1 LOG2 POP POP POP POP POP POP POP POP POP POP POP POP POP POP JUMP JUMPDEST PUSH1 0x0 DUP1 SLOAD PUSH1 0x1 PUSH1 0x1 PUSH1 0xA0 SHL SUB DUP4 DUP2 AND PUSH1 0x1 PUSH1 0x1 PUSH1 0xA0 SHL SUB NOT DUP4 AND DUP2 OR DUP5 SSTORE PUSH1 0x40 MLOAD SWAP2 SWAP1 SWAP3 AND SWAP3 DUP4 SWAP2 PUSH32 0x8BE0079C531659141344CD1FD0A4F28419497F9722A3DAAFE3B4186F6B6457E0 SWAP2 SWAP1 LOG3 POP POP JUMP JUMPDEST PUSH2 0x209D DUP1 PUSH2 0x698 DUP4 CODECOPY ADD SWAP1 JUMP JUMPDEST PUSH1 0x1 PUSH1 0x1 PUSH1 0xA0 SHL SUB DUP2 AND DUP2 EQ PUSH2 0x177 JUMPI PUSH1 0x0 DUP1 REVERT JUMPDEST DUP1 CALLDATALOAD PUSH2 0x524 DUP2 PUSH2 0x504 JUMP JUMPDEST SWAP2 SWAP1 POP JUMP JUMPDEST PUSH1 0x0 PUSH1 0x20 DUP3 DUP5 SUB SLT ISZERO PUSH2 0x53B JUMPI PUSH1 0x0 DUP1 REVERT JUMPDEST DUP2 CALLDATALOAD PUSH2 0x546 DUP2 PUSH2 0x504 JUMP JUMPDEST SWAP4 SWAP3 POP POP POP JUMP JUMPDEST PUSH1 0x0 DUP1 PUSH1 0x0 DUP1 PUSH1 0x0 DUP1 PUSH1 0x0 DUP1 PUSH1 0x0 DUP1 PUSH1 0x0 PUSH2 0x160 DUP13 DUP15 SUB SLT ISZERO PUSH2 0x56F JUMPI PUSH1 0x0 DUP1 REVERT JUMPDEST DUP12 CALLDATALOAD PUSH2 0x57A DUP2 PUSH2 0x504 JUMP JUMPDEST SWAP11 POP PUSH1 0x20 DUP13 ADD CALLDATALOAD PUSH2 0x58A DUP2 PUSH2 0x504 JUMP JUMPDEST SWAP10 POP PUSH1 0x40 DUP13 ADD CALLDATALOAD SWAP9 POP PUSH1 0x60 DUP13 ADD CALLDATALOAD SWAP8 POP PUSH1 0x80 DUP13 ADD CALLDATALOAD SWAP7 POP PUSH1 0xA0 DUP13 ADD CALLDATALOAD SWAP6 POP PUSH1 0xC0 DUP13 ADD CALLDATALOAD SWAP5 POP PUSH1 0xE0 DUP13 ADD CALLDATALOAD PUSH2 0x5BD DUP2 PUSH2 0x504 JUMP JUMPDEST SWAP4 POP PUSH2 0x100 DUP13 ADD CALLDATALOAD DUP1 ISZERO ISZERO DUP2 EQ PUSH2 0x5D3 JUMPI PUSH1 0x0 DUP1 REVERT JUMPDEST SWAP3 POP PUSH2 0x120 DUP13 ADD CALLDATALOAD SWAP2 POP PUSH2 0x5EA PUSH2 0x140 DUP14 ADD PUSH2 0x519 JUMP JUMPDEST SWAP1 POP SWAP3 SWAP6 SWAP9 SWAP12 POP SWAP3 SWAP6 SWAP9 SWAP12 SWAP1 SWAP4 SWAP7 SWAP10 POP JUMP JUMPDEST PUSH1 0x20 DUP1 DUP3 MSTORE DUP2 DUP2 ADD MSTORE PUSH32 0x4F776E61626C653A2063616C6C6572206973206E6F7420746865206F776E6572 PUSH1 0x40 DUP3 ADD MSTORE PUSH1 0x60 ADD SWAP1 JUMP JUMPDEST PUSH1 0x0 PUSH1 0x20 DUP3 DUP5 SUB SLT ISZERO PUSH2 0x643 JUMPI PUSH1 0x0 DUP1 REVERT JUMPDEST POP MLOAD SWAP2 SWAP1 POP JUMP JUMPDEST PUSH1 0x0 DUP2 MLOAD PUSH1 0x0 JUMPDEST DUP2 DUP2 LT ISZERO PUSH2 0x66B JUMPI PUSH1 0x20 DUP2 DUP6 ADD DUP2 ADD MLOAD DUP7 DUP4 ADD MSTORE ADD PUSH2 0x651 JUMP JUMPDEST POP PUSH1 0x0 SWAP4 ADD SWAP3 DUP4 MSTORE POP SWAP1 SWAP2 SWAP1 POP JUMP JUMPDEST PUSH1 0x0 PUSH2 0x68F PUSH2 0x689 DUP4 DUP7 PUSH2 0x64A JUMP JUMPDEST DUP5 PUSH2 0x64A JUMP JUMPDEST SWAP5 SWAP4 POP POP POP POP JUMP INVALID PUSH1 0xC0 PUSH1 0x40 MSTORE CALLVALUE DUP1 ISZERO PUSH3 0x11 JUMPI PUSH1 0x0 DUP1 REVERT JUMPDEST POP PUSH1 0x40 MLOAD PUSH3 0x209D CODESIZE SUB DUP1 PUSH3 0x209D DUP4 CODECOPY DUP2 ADD PUSH1 0x40 DUP2 SWAP1 MSTORE PUSH3 0x34 SWAP2 PUSH3 0x14E JUMP JUMPDEST PUSH3 0x3F CALLER PUSH3 0xE8 JUMP JUMPDEST PUSH1 0x1 DUP1 DUP1 SSTORE CALLER PUSH1 0x80 MSTORE PUSH1 0x40 MLOAD PUSH4 0xAEE2F47F PUSH1 0xE0 SHL DUP2 MSTORE PUSH1 0x4 DUP2 ADD SWAP2 SWAP1 SWAP2 MSTORE PUSH1 0x1 PUSH1 0x1 PUSH1 0xA0 SHL SUB DUP5 AND SWAP1 PUSH4 0xAEE2F47F SWAP1 PUSH1 0x24 ADD PUSH1 0x0 PUSH1 0x40 MLOAD DUP1 DUP4 SUB DUP2 DUP7 GAS STATICCALL ISZERO DUP1 ISZERO PUSH3 0x8F JUMPI RETURNDATASIZE PUSH1 0x0 DUP1 RETURNDATACOPY RETURNDATASIZE PUSH1 0x0 REVERT JUMPDEST POP POP POP POP PUSH1 0x40 MLOAD RETURNDATASIZE PUSH1 0x0 DUP3 RETURNDATACOPY PUSH1 0x1F RETURNDATASIZE SWAP1 DUP2 ADD PUSH1 0x1F NOT AND DUP3 ADD PUSH1 0x40 MSTORE PUSH3 0xB9 SWAP2 SWAP1 DUP2 ADD SWAP1 PUSH3 0x261 JUMP JUMPDEST POP POP POP POP PUSH1 0x1 PUSH1 0x1 PUSH1 0xA0 SHL SUB SWAP4 SWAP1 SWAP4 AND PUSH1 0xA0 MSTORE PUSH1 0x9 DUP1 SLOAD PUSH1 0xFF NOT AND SWAP3 ISZERO ISZERO SWAP3 SWAP1 SWAP3 OR SWAP1 SWAP2 SSTORE PUSH1 0xA SSTORE POP PUSH3 0x2F1 JUMP JUMPDEST PUSH1 0x0 DUP1 SLOAD PUSH1 0x1 PUSH1 0x1 PUSH1 0xA0 SHL SUB DUP4 DUP2 AND PUSH1 0x1 PUSH1 0x1 PUSH1 0xA0 SHL SUB NOT DUP4 AND DUP2 OR DUP5 SSTORE PUSH1 0x40 MLOAD SWAP2 SWAP1 SWAP3 AND SWAP3 DUP4 SWAP2 PUSH32 0x8BE0079C531659141344CD1FD0A4F28419497F9722A3DAAFE3B4186F6B6457E0 SWAP2 SWAP1 LOG3 POP POP JUMP JUMPDEST DUP1 MLOAD DUP1 ISZERO ISZERO DUP2 EQ PUSH3 0x149 JUMPI PUSH1 0x0 DUP1 REVERT JUMPDEST SWAP2 SWAP1 POP JUMP JUMPDEST PUSH1 0x0 DUP1 PUSH1 0x0 PUSH1 0x60 DUP5 DUP7 SUB SLT ISZERO PUSH3 0x164 JUMPI PUSH1 0x0 DUP1 REVERT JUMPDEST DUP4 MLOAD PUSH1 0x1 PUSH1 0x1 PUSH1 0xA0 SHL SUB DUP2 AND DUP2 EQ PUSH3 0x17C JUMPI PUSH1 0x0 DUP1 REVERT JUMPDEST SWAP3 POP PUSH3 0x18C PUSH1 0x20 DUP6 ADD PUSH3 0x138 JUMP JUMPDEST SWAP2 POP PUSH1 0x40 DUP5 ADD MLOAD SWAP1 POP SWAP3 POP SWAP3 POP SWAP3 JUMP JUMPDEST PUSH4 0x4E487B71 PUSH1 0xE0 SHL PUSH1 0x0 MSTORE PUSH1 0x41 PUSH1 0x4 MSTORE PUSH1 0x24 PUSH1 0x0 REVERT JUMPDEST PUSH1 0x0 DUP3 PUSH1 0x1F DUP4 ADD SLT PUSH3 0x1C4 JUMPI PUSH1 0x0 DUP1 REVERT JUMPDEST DUP2 MLOAD PUSH1 0x1 PUSH1 0x1 PUSH1 0x40 SHL SUB DUP1 DUP3 GT ISZERO PUSH3 0x1E1 JUMPI PUSH3 0x1E1 PUSH3 0x19C JUMP JUMPDEST PUSH1 0x40 MLOAD PUSH1 0x1F DUP4 ADD PUSH1 0x1F NOT SWAP1 DUP2 AND PUSH1 0x3F ADD AND DUP2 ADD SWAP1 DUP3 DUP3 GT DUP2 DUP4 LT OR ISZERO PUSH3 0x20C JUMPI PUSH3 0x20C PUSH3 0x19C JUMP JUMPDEST DUP2 PUSH1 0x40 MSTORE DUP4 DUP2 MSTORE PUSH1 0x20 SWAP3 POP DUP7 DUP4 DUP6 DUP9 ADD ADD GT ISZERO PUSH3 0x229 JUMPI PUSH1 0x0 DUP1 REVERT JUMPDEST PUSH1 0x0 SWAP2 POP JUMPDEST DUP4 DUP3 LT ISZERO PUSH3 0x24D JUMPI DUP6 DUP3 ADD DUP4 ADD MLOAD DUP2 DUP4 ADD DUP5 ADD MSTORE SWAP1 DUP3 ADD SWAP1 PUSH3 0x22E JUMP JUMPDEST PUSH1 0x0 SWAP4 DUP2 ADD SWAP1 SWAP3 ADD SWAP3 SWAP1 SWAP3 MSTORE SWAP5 SWAP4 POP POP POP POP JUMP JUMPDEST PUSH1 0x0 DUP1 PUSH1 0x0 DUP1 PUSH1 0x0 PUSH1 0xA0 DUP7 DUP9 SUB SLT ISZERO PUSH3 0x27A JUMPI PUSH1 0x0 DUP1 REVERT JUMPDEST DUP6 MLOAD PUSH1 0x1 PUSH1 0x1 PUSH1 0x40 SHL SUB DUP1 DUP3 GT ISZERO PUSH3 0x292 JUMPI PUSH1 0x0 DUP1 REVERT JUMPDEST PUSH3 0x2A0 DUP10 DUP4 DUP11 ADD PUSH3 0x1B2 JUMP JUMPDEST SWAP7 POP PUSH1 0x20 DUP9 ADD MLOAD SWAP2 POP DUP1 DUP3 GT ISZERO PUSH3 0x2B7 JUMPI PUSH1 0x0 DUP1 REVERT JUMPDEST POP PUSH3 0x2C6 DUP9 DUP3 DUP10 ADD PUSH3 0x1B2 JUMP JUMPDEST SWAP5 POP POP PUSH1 0x40 DUP7 ADD MLOAD SWAP3 POP PUSH1 0x60 DUP7 ADD MLOAD SWAP2 POP PUSH3 0x2E5 PUSH1 0x80 DUP8 ADD PUSH3 0x138 JUMP JUMPDEST SWAP1 POP SWAP3 SWAP6 POP SWAP3 SWAP6 SWAP1 SWAP4 POP JUMP JUMPDEST PUSH1 0x80 MLOAD PUSH1 0xA0 MLOAD PUSH2 0x1D71 PUSH3 0x32C PUSH1 0x0 CODECOPY PUSH1 0x0 DUP2 DUP2 PUSH2 0x3E9 ADD MSTORE DUP2 DUP2 PUSH2 0xF13 ADD MSTORE PUSH2 0xFFE ADD MSTORE PUSH1 0x0 DUP2 DUP2 PUSH2 0x3C2 ADD MSTORE PUSH2 0x573 ADD MSTORE PUSH2 0x1D71 PUSH1 0x0 RETURN INVALID PUSH1 0x80 PUSH1 0x40 MSTORE CALLVALUE DUP1 ISZERO PUSH2 0x10 JUMPI PUSH1 0x0 DUP1 REVERT JUMPDEST POP PUSH1 0x4 CALLDATASIZE LT PUSH2 0x1FB JUMPI PUSH1 0x0 CALLDATALOAD PUSH1 0xE0 SHR DUP1 PUSH4 0x8AE39CAC GT PUSH2 0x11A JUMPI DUP1 PUSH4 0xB6B55F25 GT PUSH2 0xAD JUMPI DUP1 PUSH4 0xCCD34CD5 GT PUSH2 0x7C JUMPI DUP1 PUSH4 0xCCD34CD5 EQ PUSH2 0x41E JUMPI DUP1 PUSH4 0xDB2E21BC EQ PUSH2 0x427 JUMPI DUP1 PUSH4 0xF2FDE38B EQ PUSH2 0x42F JUMPI DUP1 PUSH4 0xF40F0F52 EQ PUSH2 0x442 JUMPI DUP1 PUSH4 0xF7C618C1 EQ PUSH2 0x455 JUMPI PUSH1 0x0 DUP1 REVERT JUMPDEST DUP1 PUSH4 0xB6B55F25 EQ PUSH2 0x3AA JUMPI DUP1 PUSH4 0xBD617191 EQ PUSH2 0x3BD JUMPI DUP1 PUSH4 0xC7D936EC EQ PUSH2 0x3E4 JUMPI DUP1 PUSH4 0xCC7A262E EQ PUSH2 0x40B JUMPI PUSH1 0x0 DUP1 REVERT JUMPDEST DUP1 PUSH4 0x9513997F GT PUSH2 0xE9 JUMPI DUP1 PUSH4 0x9513997F EQ PUSH2 0x368 JUMPI DUP1 PUSH4 0x9BE65A60 EQ PUSH2 0x37B JUMPI DUP1 PUSH4 0xA0B40905 EQ PUSH2 0x38E JUMPI DUP1 PUSH4 0xA9F8D181 EQ PUSH2 0x3A1 JUMPI PUSH1 0x0 DUP1 REVERT JUMPDEST DUP1 PUSH4 0x8AE39CAC EQ PUSH2 0x329 JUMPI DUP1 PUSH4 0x8DA5CB5B EQ PUSH2 0x332 JUMPI DUP1 PUSH4 0x8F662915 EQ PUSH2 0x357 JUMPI DUP1 PUSH4 0x92E8990E EQ PUSH2 0x360 JUMPI PUSH1 0x0 DUP1 REVERT JUMPDEST DUP1 PUSH4 0x48CD4CB1 GT PUSH2 0x192 JUMPI DUP1 PUSH4 0x68109631 GT PUSH2 0x161 JUMPI DUP1 PUSH4 0x68109631 EQ PUSH2 0x2FD JUMPI DUP1 PUSH4 0x715018A6 EQ PUSH2 0x310 JUMPI DUP1 PUSH4 0x80DC0672 EQ PUSH2 0x318 JUMPI DUP1 PUSH4 0x8AD1071B EQ PUSH2 0x320 JUMPI PUSH1 0x0 DUP1 REVERT JUMPDEST DUP1 PUSH4 0x48CD4CB1 EQ PUSH2 0x2D1 JUMPI DUP1 PUSH4 0x4A7C01EC EQ PUSH2 0x2DA JUMPI DUP1 PUSH4 0x5A0B5F34 EQ PUSH2 0x2E7 JUMPI DUP1 PUSH4 0x66FE9F8A EQ PUSH2 0x2F4 JUMPI PUSH1 0x0 DUP1 REVERT JUMPDEST DUP1 PUSH4 0x2AA2C381 GT PUSH2 0x1CE JUMPI DUP1 PUSH4 0x2AA2C381 EQ PUSH2 0x276 JUMPI DUP1 PUSH4 0x2E1A7D4D EQ PUSH2 0x289 JUMPI DUP1 PUSH4 0x3279BEAB EQ PUSH2 0x29C JUMPI DUP1 PUSH4 0x392E53CD EQ PUSH2 0x2AF JUMPI PUSH1 0x0 DUP1 REVERT JUMPDEST DUP1 PUSH4 0x1F8A976 EQ PUSH2 0x200 JUMPI DUP1 PUSH4 0xACE6247 EQ PUSH2 0x215 JUMPI DUP1 PUSH4 0x1959A002 EQ PUSH2 0x231 JUMPI DUP1 PUSH4 0x1AED6553 EQ PUSH2 0x26D JUMPI JUMPDEST PUSH1 0x0 DUP1 REVERT JUMPDEST PUSH2 0x213 PUSH2 0x20E CALLDATASIZE PUSH1 0x4 PUSH2 0x191C JUMP JUMPDEST PUSH2 0x468 JUMP JUMPDEST STOP JUMPDEST PUSH2 0x21E PUSH1 0xA SLOAD DUP2 JUMP JUMPDEST PUSH1 0x40 MLOAD SWAP1 DUP2 MSTORE PUSH1 0x20 ADD JUMPDEST PUSH1 0x40 MLOAD DUP1 SWAP2 SUB SWAP1 RETURN JUMPDEST PUSH2 0x258 PUSH2 0x23F CALLDATASIZE PUSH1 0x4 PUSH2 0x194A JUMP JUMPDEST PUSH1 0xF PUSH1 0x20 MSTORE PUSH1 0x0 SWAP1 DUP2 MSTORE PUSH1 0x40 SWAP1 KECCAK256 DUP1 SLOAD PUSH1 0x1 SWAP1 SWAP2 ADD SLOAD DUP3 JUMP JUMPDEST PUSH1 0x40 DUP1 MLOAD SWAP3 DUP4 MSTORE PUSH1 0x20 DUP4 ADD SWAP2 SWAP1 SWAP2 MSTORE ADD PUSH2 0x228 JUMP JUMPDEST PUSH2 0x21E PUSH1 0x4 SLOAD DUP2 JUMP JUMPDEST PUSH2 0x213 PUSH2 0x284 CALLDATASIZE PUSH1 0x4 PUSH2 0x1967 JUMP JUMPDEST PUSH2 0x51A JUMP JUMPDEST PUSH2 0x213 PUSH2 0x297 CALLDATASIZE PUSH1 0x4 PUSH2 0x191C JUMP JUMPDEST PUSH2 0x727 JUMP JUMPDEST PUSH2 0x213 PUSH2 0x2AA CALLDATASIZE PUSH1 0x4 PUSH2 0x191C JUMP JUMPDEST PUSH2 0x891 JUMP JUMPDEST PUSH1 0x2 SLOAD PUSH2 0x2C1 SWAP1 PUSH2 0x100 SWAP1 DIV PUSH1 0xFF AND DUP2 JUMP JUMPDEST PUSH1 0x40 MLOAD SWAP1 ISZERO ISZERO DUP2 MSTORE PUSH1 0x20 ADD PUSH2 0x228 JUMP JUMPDEST PUSH2 0x21E PUSH1 0x5 SLOAD DUP2 JUMP JUMPDEST PUSH1 0x2 SLOAD PUSH2 0x2C1 SWAP1 PUSH1 0xFF AND DUP2 JUMP JUMPDEST PUSH1 0x9 SLOAD PUSH2 0x2C1 SWAP1 PUSH1 0xFF AND DUP2 JUMP JUMPDEST PUSH2 0x21E PUSH1 0x7 SLOAD DUP2 JUMP JUMPDEST PUSH2 0x213 PUSH2 0x30B CALLDATASIZE PUSH1 0x4 PUSH2 0x19F1 JUMP JUMPDEST PUSH2 0x8D5 JUMP JUMPDEST PUSH2 0x213 PUSH2 0x953 JUMP JUMPDEST PUSH2 0x213 PUSH2 0x989 JUMP JUMPDEST PUSH2 0x21E PUSH1 0x8 SLOAD DUP2 JUMP JUMPDEST PUSH2 0x21E PUSH1 0xB SLOAD DUP2 JUMP JUMPDEST PUSH1 0x0 SLOAD PUSH1 0x1 PUSH1 0x1 PUSH1 0xA0 SHL SUB AND JUMPDEST PUSH1 0x40 MLOAD PUSH1 0x1 PUSH1 0x1 PUSH1 0xA0 SHL SUB SWAP1 SWAP2 AND DUP2 MSTORE PUSH1 0x20 ADD PUSH2 0x228 JUMP JUMPDEST PUSH2 0x21E PUSH1 0x3 SLOAD DUP2 JUMP JUMPDEST PUSH2 0x2C1 PUSH2 0x9B9 JUMP JUMPDEST PUSH2 0x213 PUSH2 0x376 CALLDATASIZE PUSH1 0x4 PUSH2 0x1A1D JUMP JUMPDEST PUSH2 0x9EE JUMP JUMPDEST PUSH2 0x213 PUSH2 0x389 CALLDATASIZE PUSH1 0x4 PUSH2 0x194A JUMP JUMPDEST PUSH2 0xB6F JUMP JUMPDEST PUSH2 0x213 PUSH2 0x39C CALLDATASIZE PUSH1 0x4 PUSH2 0x19F1 JUMP JUMPDEST PUSH2 0xD9D JUMP JUMPDEST PUSH2 0x21E PUSH1 0x6 SLOAD DUP2 JUMP JUMPDEST PUSH2 0x213 PUSH2 0x3B8 CALLDATASIZE PUSH1 0x4 PUSH2 0x191C JUMP JUMPDEST PUSH2 0xEAF JUMP JUMPDEST PUSH2 0x33F PUSH32 0x0 DUP2 JUMP JUMPDEST PUSH2 0x33F PUSH32 0x0 DUP2 JUMP JUMPDEST PUSH1 0xE SLOAD PUSH2 0x33F SWAP1 PUSH1 0x1 PUSH1 0x1 PUSH1 0xA0 SHL SUB AND DUP2 JUMP JUMPDEST PUSH2 0x21E PUSH1 0xC SLOAD DUP2 JUMP JUMPDEST PUSH2 0x213 PUSH2 0x1243 JUMP JUMPDEST PUSH2 0x213 PUSH2 0x43D CALLDATASIZE PUSH1 0x4 PUSH2 0x194A JUMP JUMPDEST PUSH2 0x12E4 JUMP JUMPDEST PUSH2 0x21E PUSH2 0x450 CALLDATASIZE PUSH1 0x4 PUSH2 0x194A JUMP JUMPDEST PUSH2 0x137C JUMP JUMPDEST PUSH1 0xD SLOAD PUSH2 0x33F SWAP1 PUSH1 0x1 PUSH1 0x1 PUSH1 0xA0 SHL SUB AND DUP2 JUMP JUMPDEST PUSH1 0x0 SLOAD PUSH1 0x1 PUSH1 0x1 PUSH1 0xA0 SHL SUB AND CALLER EQ PUSH2 0x49B JUMPI PUSH1 0x40 MLOAD PUSH3 0x461BCD PUSH1 0xE5 SHL DUP2 MSTORE PUSH1 0x4 ADD PUSH2 0x492 SWAP1 PUSH2 0x1A3F JUMP JUMPDEST PUSH1 0x40 MLOAD DUP1 SWAP2 SUB SWAP1 REVERT JUMPDEST PUSH1 0x5 SLOAD NUMBER LT PUSH2 0x4DF JUMPI PUSH1 0x40 MLOAD PUSH3 0x461BCD PUSH1 0xE5 SHL DUP2 MSTORE PUSH1 0x20 PUSH1 0x4 DUP3 ADD MSTORE PUSH1 0x10 PUSH1 0x24 DUP3 ADD MSTORE PUSH16 0x141BDBDB081A185CC81CDD185C9D1959 PUSH1 0x82 SHL PUSH1 0x44 DUP3 ADD MSTORE PUSH1 0x64 ADD PUSH2 0x492 JUMP JUMPDEST PUSH1 0xB DUP2 SWAP1 SSTORE PUSH1 0x40 MLOAD DUP2 DUP2 MSTORE PUSH32 0xC4D677EEF92893AC7EC52FAF8140FC6C851AB4736302B4F3A89DFB20696A0DF SWAP1 PUSH1 0x20 ADD PUSH1 0x40 MLOAD DUP1 SWAP2 SUB SWAP1 LOG1 POP JUMP JUMPDEST PUSH1 0x2 SLOAD PUSH2 0x100 SWAP1 DIV PUSH1 0xFF AND ISZERO PUSH2 0x568 JUMPI PUSH1 0x40 MLOAD PUSH3 0x461BCD PUSH1 0xE5 SHL DUP2 MSTORE PUSH1 0x20 PUSH1 0x4 DUP3 ADD MSTORE PUSH1 0x13 PUSH1 0x24 DUP3 ADD MSTORE PUSH19 0x105B1C9958591E481A5B9A5D1A585B1A5E9959 PUSH1 0x6A SHL PUSH1 0x44 DUP3 ADD MSTORE PUSH1 0x64 ADD PUSH2 0x492 JUMP JUMPDEST CALLER PUSH1 0x1 PUSH1 0x1 PUSH1 0xA0 SHL SUB PUSH32 0x0 AND EQ PUSH2 0x5CE JUMPI PUSH1 0x40 MLOAD PUSH3 0x461BCD PUSH1 0xE5 SHL DUP2 MSTORE PUSH1 0x20 PUSH1 0x4 DUP3 ADD MSTORE PUSH1 0xB PUSH1 0x24 DUP3 ADD MSTORE PUSH11 0x4E6F7420666163746F7279 PUSH1 0xA8 SHL PUSH1 0x44 DUP3 ADD MSTORE PUSH1 0x64 ADD PUSH2 0x492 JUMP JUMPDEST PUSH1 0x2 DUP1 SLOAD PUSH2 0xFF00 NOT AND PUSH2 0x100 OR SWAP1 SSTORE PUSH1 0xE DUP1 SLOAD PUSH1 0x1 PUSH1 0x1 PUSH1 0xA0 SHL SUB DUP1 DUP12 AND PUSH1 0x1 PUSH1 0x1 PUSH1 0xA0 SHL SUB NOT SWAP3 DUP4 AND OR SWAP1 SWAP3 SSTORE PUSH1 0xD DUP1 SLOAD SWAP3 DUP11 AND SWAP3 SWAP1 SWAP2 AND SWAP2 SWAP1 SWAP2 OR SWAP1 SSTORE PUSH1 0xB DUP7 SWAP1 SSTORE PUSH1 0x5 DUP6 SWAP1 SSTORE PUSH1 0x4 DUP5 SWAP1 SSTORE DUP3 ISZERO PUSH2 0x63A JUMPI PUSH1 0x2 DUP1 SLOAD PUSH1 0xFF NOT AND PUSH1 0x1 OR SWAP1 SSTORE PUSH1 0x7 DUP4 SWAP1 SSTORE PUSH1 0x8 DUP3 SWAP1 SSTORE JUMPDEST PUSH1 0xD SLOAD PUSH1 0x40 DUP1 MLOAD PUSH4 0x313CE567 PUSH1 0xE0 SHL DUP2 MSTORE SWAP1 MLOAD PUSH1 0x0 SWAP3 PUSH1 0x1 PUSH1 0x1 PUSH1 0xA0 SHL SUB AND SWAP2 PUSH4 0x313CE567 SWAP2 PUSH1 0x4 DUP1 DUP4 ADD SWAP3 PUSH1 0x20 SWAP3 SWAP2 SWAP1 DUP3 SWAP1 SUB ADD DUP2 DUP7 GAS STATICCALL ISZERO DUP1 ISZERO PUSH2 0x684 JUMPI RETURNDATASIZE PUSH1 0x0 DUP1 RETURNDATACOPY RETURNDATASIZE PUSH1 0x0 REVERT JUMPDEST POP POP POP POP PUSH1 0x40 MLOAD RETURNDATASIZE PUSH1 0x1F NOT PUSH1 0x1F DUP3 ADD AND DUP3 ADD DUP1 PUSH1 0x40 MSTORE POP DUP2 ADD SWAP1 PUSH2 0x6A8 SWAP2 SWAP1 PUSH2 0x1A74 JUMP JUMPDEST PUSH1 0xFF AND SWAP1 POP PUSH1 0x1E DUP2 LT PUSH2 0x6F4 JUMPI PUSH1 0x40 MLOAD PUSH3 0x461BCD PUSH1 0xE5 SHL DUP2 MSTORE PUSH1 0x20 PUSH1 0x4 DUP3 ADD MSTORE PUSH1 0x14 PUSH1 0x24 DUP3 ADD MSTORE PUSH20 0x4D757374206265206C657373207468616E20333 PUSH1 0x64 SHL PUSH1 0x44 DUP3 ADD MSTORE PUSH1 0x64 ADD PUSH2 0x492 JUMP JUMPDEST PUSH2 0x6FF DUP2 PUSH1 0x1E PUSH2 0x1AAD JUMP JUMPDEST PUSH2 0x70A SWAP1 PUSH1 0xA PUSH2 0x1BA4 JUMP JUMPDEST PUSH1 0xC SSTORE PUSH1 0x5 SLOAD PUSH1 0x6 SSTORE PUSH2 0x71C DUP3 PUSH2 0x12E4 JUMP JUMPDEST POP POP POP POP POP POP POP POP POP JUMP JUMPDEST PUSH1 0x2 PUSH1 0x1 SLOAD SUB PUSH2 0x749 JUMPI PUSH1 0x40 MLOAD PUSH3 0x461BCD PUSH1 0xE5 SHL DUP2 MSTORE PUSH1 0x4 ADD PUSH2 0x492 SWAP1 PUSH2 0x1BB0 JUMP JUMPDEST PUSH1 0x2 PUSH1 0x1 SSTORE CALLER PUSH1 0x0 SWAP1 DUP2 MSTORE PUSH1 0xF PUSH1 0x20 MSTORE PUSH1 0x40 SWAP1 KECCAK256 DUP1 SLOAD DUP3 GT ISZERO PUSH2 0x7AE JUMPI PUSH1 0x40 MLOAD PUSH3 0x461BCD PUSH1 0xE5 SHL DUP2 MSTORE PUSH1 0x20 PUSH1 0x4 DUP3 ADD MSTORE PUSH1 0x1B PUSH1 0x24 DUP3 ADD MSTORE PUSH32 0x416D6F756E7420746F20776974686472617720746F6F20686967680000000000 PUSH1 0x44 DUP3 ADD MSTORE PUSH1 0x64 ADD PUSH2 0x492 JUMP JUMPDEST PUSH2 0x7B6 PUSH2 0x14CC JUMP JUMPDEST PUSH1 0x0 DUP2 PUSH1 0x1 ADD SLOAD PUSH1 0xC SLOAD PUSH1 0x3 SLOAD DUP5 PUSH1 0x0 ADD SLOAD PUSH2 0x7D2 SWAP2 SWAP1 PUSH2 0x1BE7 JUMP JUMPDEST PUSH2 0x7DC SWAP2 SWAP1 PUSH2 0x1BFE JUMP JUMPDEST PUSH2 0x7E6 SWAP2 SWAP1 PUSH2 0x1AAD JUMP JUMPDEST SWAP1 POP DUP3 ISZERO PUSH2 0x814 JUMPI DUP2 SLOAD PUSH2 0x7FB SWAP1 DUP5 SWAP1 PUSH2 0x1AAD JUMP JUMPDEST DUP3 SSTORE PUSH1 0xE SLOAD PUSH2 0x814 SWAP1 PUSH1 0x1 PUSH1 0x1 PUSH1 0xA0 SHL SUB AND CALLER DUP6 PUSH2 0x15A9 JUMP JUMPDEST DUP1 ISZERO PUSH2 0x831 JUMPI PUSH1 0xD SLOAD PUSH2 0x831 SWAP1 PUSH1 0x1 PUSH1 0x1 PUSH1 0xA0 SHL SUB AND CALLER DUP4 PUSH2 0x15A9 JUMP JUMPDEST PUSH1 0xC SLOAD PUSH1 0x3 SLOAD DUP4 SLOAD PUSH2 0x843 SWAP2 SWAP1 PUSH2 0x1BE7 JUMP JUMPDEST PUSH2 0x84D SWAP2 SWAP1 PUSH2 0x1BFE JUMP JUMPDEST PUSH1 0x1 DUP4 ADD SSTORE PUSH1 0x40 MLOAD DUP4 DUP2 MSTORE CALLER SWAP1 PUSH32 0x884EDAD9CE6FA2440D8A54CC123490EB96D2768479D49FF9C7366125A9424364 SWAP1 PUSH1 0x20 ADD JUMPDEST PUSH1 0x40 MLOAD DUP1 SWAP2 SUB SWAP1 LOG2 POP POP PUSH1 0x1 DUP1 SSTORE POP JUMP JUMPDEST PUSH1 0x0 SLOAD PUSH1 0x1 PUSH1 0x1 PUSH1 0xA0 SHL SUB AND CALLER EQ PUSH2 0x8BB JUMPI PUSH1 0x40 MLOAD PUSH3 0x461BCD PUSH1 0xE5 SHL DUP2 MSTORE PUSH1 0x4 ADD PUSH2 0x492 SWAP1 PUSH2 0x1A3F JUMP JUMPDEST PUSH1 0xD SLOAD PUSH2 0x8D2 SWAP1 PUSH1 0x1 PUSH1 0x1 PUSH1 0xA0 SHL SUB AND CALLER DUP4 PUSH2 0x15A9 JUMP JUMPDEST POP JUMP JUMPDEST PUSH1 0x0 SLOAD PUSH1 0x1 PUSH1 0x1 PUSH1 0xA0 SHL SUB AND CALLER EQ PUSH2 0x8FF JUMPI PUSH1 0x40 MLOAD PUSH3 0x461BCD PUSH1 0xE5 SHL DUP2 MSTORE PUSH1 0x4 ADD PUSH2 0x492 SWAP1 PUSH2 0x1A3F JUMP JUMPDEST PUSH1 0x9 DUP1 SLOAD PUSH1 0xFF NOT AND DUP4 ISZERO ISZERO SWAP1 DUP2 OR SWAP1 SWAP2 SSTORE PUSH1 0xA DUP3 SWAP1 SSTORE PUSH1 0x40 DUP1 MLOAD SWAP2 DUP3 MSTORE PUSH1 0x20 DUP3 ADD DUP4 SWAP1 MSTORE PUSH32 0x915D08E0E89C58E352D7C1D66C942CB15DAC8A7294D2CA80DDF46F1998F0512B SWAP2 ADD JUMPDEST PUSH1 0x40 MLOAD DUP1 SWAP2 SUB SWAP1 LOG1 POP POP JUMP JUMPDEST PUSH1 0x0 SLOAD PUSH1 0x1 PUSH1 0x1 PUSH1 0xA0 SHL SUB AND CALLER EQ PUSH2 0x97D JUMPI PUSH1 0x40 MLOAD PUSH3 0x461BCD PUSH1 0xE5 SHL DUP2 MSTORE PUSH1 0x4 ADD PUSH2 0x492 SWAP1 PUSH2 0x1A3F JUMP JUMPDEST PUSH2 0x987 PUSH1 0x0 PUSH2 0x1611 JUMP JUMPDEST JUMP JUMPDEST PUSH1 0x0 SLOAD PUSH1 0x1 PUSH1 0x1 PUSH1 0xA0 SHL SUB AND CALLER EQ PUSH2 0x9B3 JUMPI PUSH1 0x40 MLOAD PUSH3 0x461BCD PUSH1 0xE5 SHL DUP2 MSTORE PUSH1 0x4 ADD PUSH2 0x492 SWAP1 PUSH2 0x1A3F JUMP JUMPDEST NUMBER PUSH1 0x4 SSTORE JUMP JUMPDEST PUSH1 0x2 SLOAD PUSH1 0x0 SWAP1 PUSH1 0xFF AND ISZERO DUP1 PUSH2 0x9DD JUMPI POP PUSH1 0x8 SLOAD PUSH1 0x5 SLOAD PUSH2 0x9D9 SWAP2 SWAP1 PUSH2 0x1C20 JUMP JUMPDEST NUMBER LT ISZERO JUMPDEST ISZERO PUSH2 0x9E8 JUMPI POP PUSH1 0x0 SWAP1 JUMP JUMPDEST POP PUSH1 0x1 SWAP1 JUMP JUMPDEST PUSH1 0x0 SLOAD PUSH1 0x1 PUSH1 0x1 PUSH1 0xA0 SHL SUB AND CALLER EQ PUSH2 0xA18 JUMPI PUSH1 0x40 MLOAD PUSH3 0x461BCD PUSH1 0xE5 SHL DUP2 MSTORE PUSH1 0x4 ADD PUSH2 0x492 SWAP1 PUSH2 0x1A3F JUMP JUMPDEST PUSH1 0x5 SLOAD NUMBER LT PUSH2 0xA5C JUMPI PUSH1 0x40 MLOAD PUSH3 0x461BCD PUSH1 0xE5 SHL DUP2 MSTORE PUSH1 0x20 PUSH1 0x4 DUP3 ADD MSTORE PUSH1 0x10 PUSH1 0x24 DUP3 ADD MSTORE PUSH16 0x141BDBDB081A185CC81CDD185C9D1959 PUSH1 0x82 SHL PUSH1 0x44 DUP3 ADD MSTORE PUSH1 0x64 ADD PUSH2 0x492 JUMP JUMPDEST DUP1 DUP3 LT PUSH2 0xAC2 JUMPI PUSH1 0x40 MLOAD PUSH3 0x461BCD PUSH1 0xE5 SHL DUP2 MSTORE PUSH1 0x20 PUSH1 0x4 DUP3 ADD MSTORE PUSH1 0x2E PUSH1 0x24 DUP3 ADD MSTORE PUSH32 0x4E6577207374617274426C6F636B206D757374206265206C6F77657220746861 PUSH1 0x44 DUP3 ADD MSTORE PUSH14 0x6E206E657720656E64426C6F636B PUSH1 0x90 SHL PUSH1 0x64 DUP3 ADD MSTORE PUSH1 0x84 ADD PUSH2 0x492 JUMP JUMPDEST DUP2 NUMBER LT PUSH2 0xB2A JUMPI PUSH1 0x40 MLOAD PUSH3 0x461BCD PUSH1 0xE5 SHL DUP2 MSTORE PUSH1 0x20 PUSH1 0x4 DUP3 ADD MSTORE PUSH1 0x30 PUSH1 0x24 DUP3 ADD MSTORE PUSH32 0x4E6577207374617274426C6F636B206D75737420626520686967686572207468 PUSH1 0x44 DUP3 ADD MSTORE PUSH16 0x616E2063757272656E7420626C6F636B PUSH1 0x80 SHL PUSH1 0x64 DUP3 ADD MSTORE PUSH1 0x84 ADD PUSH2 0x492 JUMP JUMPDEST PUSH1 0x5 DUP3 SWAP1 SSTORE PUSH1 0x4 DUP2 SWAP1 SSTORE PUSH1 0x6 DUP3 SWAP1 SSTORE PUSH1 0x40 DUP1 MLOAD DUP4 DUP2 MSTORE PUSH1 0x20 DUP2 ADD DUP4 SWAP1 MSTORE PUSH32 0x7CD0AB87D19036F3DFADADB232C78AA4879DDA3F0C994A9D637532410EE2CE06 SWAP2 ADD PUSH2 0x947 JUMP JUMPDEST PUSH1 0x0 SLOAD PUSH1 0x1 PUSH1 0x1 PUSH1 0xA0 SHL SUB AND CALLER EQ PUSH2 0xB99 JUMPI PUSH1 0x40 MLOAD PUSH3 0x461BCD PUSH1 0xE5 SHL DUP2 MSTORE PUSH1 0x4 ADD PUSH2 0x492 SWAP1 PUSH2 0x1A3F JUMP JUMPDEST PUSH1 0xE SLOAD PUSH1 0x1 PUSH1 0x1 PUSH1 0xA0 SHL SUB SWAP1 DUP2 AND SWAP1 DUP3 AND SUB PUSH2 0xC07 JUMPI PUSH1 0x40 MLOAD PUSH3 0x461BCD PUSH1 0xE5 SHL DUP2 MSTORE PUSH1 0x20 PUSH1 0x4 DUP3 ADD MSTORE PUSH1 0x27 PUSH1 0x24 DUP3 ADD MSTORE PUSH32 0x4F7065726174696F6E733A2043616E6E6F74207265636F766572207374616B65 PUSH1 0x44 DUP3 ADD MSTORE PUSH7 0x32103A37B5B2B7 PUSH1 0xC9 SHL PUSH1 0x64 DUP3 ADD MSTORE PUSH1 0x84 ADD PUSH2 0x492 JUMP JUMPDEST PUSH1 0xD SLOAD PUSH1 0x1 PUSH1 0x1 PUSH1 0xA0 SHL SUB SWAP1 DUP2 AND SWAP1 DUP3 AND SUB PUSH2 0xC75 JUMPI PUSH1 0x40 MLOAD PUSH3 0x461BCD PUSH1 0xE5 SHL DUP2 MSTORE PUSH1 0x20 PUSH1 0x4 DUP3 ADD MSTORE PUSH1 0x27 PUSH1 0x24 DUP3 ADD MSTORE PUSH32 0x4F7065726174696F6E733A2043616E6E6F74207265636F766572207265776172 PUSH1 0x44 DUP3 ADD MSTORE PUSH7 0x32103A37B5B2B7 PUSH1 0xC9 SHL PUSH1 0x64 DUP3 ADD MSTORE PUSH1 0x84 ADD PUSH2 0x492 JUMP JUMPDEST PUSH1 0x40 MLOAD PUSH4 0x70A08231 PUSH1 0xE0 SHL DUP2 MSTORE ADDRESS PUSH1 0x4 DUP3 ADD MSTORE PUSH1 0x0 SWAP1 PUSH1 0x1 PUSH1 0x1 PUSH1 0xA0 SHL SUB DUP4 AND SWAP1 PUSH4 0x70A08231 SWAP1 PUSH1 0x24 ADD PUSH1 0x20 PUSH1 0x40 MLOAD DUP1 DUP4 SUB DUP2 DUP7 GAS STATICCALL ISZERO DUP1 ISZERO PUSH2 0xCBC JUMPI RETURNDATASIZE PUSH1 0x0 DUP1 RETURNDATACOPY RETURNDATASIZE PUSH1 0x0 REVERT JUMPDEST POP POP POP POP PUSH1 0x40 MLOAD RETURNDATASIZE PUSH1 0x1F NOT PUSH1 0x1F DUP3 ADD AND DUP3 ADD DUP1 PUSH1 0x40 MSTORE POP DUP2 ADD SWAP1 PUSH2 0xCE0 SWAP2 SWAP1 PUSH2 0x1C33 JUMP JUMPDEST SWAP1 POP DUP1 PUSH1 0x0 SUB PUSH2 0xD42 JUMPI PUSH1 0x40 MLOAD PUSH3 0x461BCD PUSH1 0xE5 SHL DUP2 MSTORE PUSH1 0x20 PUSH1 0x4 DUP3 ADD MSTORE PUSH1 0x27 PUSH1 0x24 DUP3 ADD MSTORE PUSH32 0x4F7065726174696F6E733A2043616E6E6F74207265636F766572207A65726F20 PUSH1 0x44 DUP3 ADD MSTORE PUSH7 0x62616C616E6365 PUSH1 0xC8 SHL PUSH1 0x64 DUP3 ADD MSTORE PUSH1 0x84 ADD PUSH2 0x492 JUMP JUMPDEST PUSH2 0xD56 PUSH1 0x1 PUSH1 0x1 PUSH1 0xA0 SHL SUB DUP4 AND CALLER DUP4 PUSH2 0x15A9 JUMP JUMPDEST DUP2 PUSH1 0x1 PUSH1 0x1 PUSH1 0xA0 SHL SUB AND PUSH32 0x14F11966A996E0629572E51064726D2057A80FBD34EFC066682C06A71DBB6E98 DUP3 PUSH1 0x40 MLOAD PUSH2 0xD91 SWAP2 DUP2 MSTORE PUSH1 0x20 ADD SWAP1 JUMP JUMPDEST PUSH1 0x40 MLOAD DUP1 SWAP2 SUB SWAP1 LOG2 POP POP JUMP JUMPDEST PUSH1 0x0 SLOAD PUSH1 0x1 PUSH1 0x1 PUSH1 0xA0 SHL SUB AND CALLER EQ PUSH2 0xDC7 JUMPI PUSH1 0x40 MLOAD PUSH3 0x461BCD PUSH1 0xE5 SHL DUP2 MSTORE PUSH1 0x4 ADD PUSH2 0x492 SWAP1 PUSH2 0x1A3F JUMP JUMPDEST PUSH1 0x2 SLOAD PUSH1 0xFF AND PUSH2 0xE07 JUMPI PUSH1 0x40 MLOAD PUSH3 0x461BCD PUSH1 0xE5 SHL DUP2 MSTORE PUSH1 0x20 PUSH1 0x4 DUP3 ADD MSTORE PUSH1 0xB PUSH1 0x24 DUP3 ADD MSTORE PUSH11 0x135D5CDD081899481CD95D PUSH1 0xAA SHL PUSH1 0x44 DUP3 ADD MSTORE PUSH1 0x64 ADD PUSH2 0x492 JUMP JUMPDEST DUP2 ISZERO PUSH2 0xE68 JUMPI PUSH1 0x7 SLOAD DUP2 GT PUSH2 0xE5E JUMPI PUSH1 0x40 MLOAD PUSH3 0x461BCD PUSH1 0xE5 SHL DUP2 MSTORE PUSH1 0x20 PUSH1 0x4 DUP3 ADD MSTORE PUSH1 0x18 PUSH1 0x24 DUP3 ADD MSTORE PUSH32 0x4E6577206C696D6974206D757374206265206869676865720000000000000000 PUSH1 0x44 DUP3 ADD MSTORE PUSH1 0x64 ADD PUSH2 0x492 JUMP JUMPDEST PUSH1 0x7 DUP2 SWAP1 SSTORE PUSH2 0xE7C JUMP JUMPDEST PUSH1 0x2 DUP1 SLOAD PUSH1 0xFF NOT AND DUP4 ISZERO ISZERO OR SWAP1 SSTORE PUSH1 0x0 PUSH1 0x7 SSTORE JUMPDEST PUSH32 0x241F67EE5F41B7A5CABF911367329BE7215900F602EBFC47F89DCE2A6BCD847C PUSH1 0x7 SLOAD PUSH1 0x40 MLOAD PUSH2 0x947 SWAP2 DUP2 MSTORE PUSH1 0x20 ADD SWAP1 JUMP JUMPDEST PUSH1 0x2 PUSH1 0x1 SLOAD SUB PUSH2 0xED1 JUMPI PUSH1 0x40 MLOAD PUSH3 0x461BCD PUSH1 0xE5 SHL DUP2 MSTORE PUSH1 0x4 ADD PUSH2 0x492 SWAP1 PUSH2 0x1BB0 JUMP JUMPDEST PUSH1 0x2 PUSH1 0x1 SSTORE CALLER PUSH1 0x0 SWAP1 DUP2 MSTORE PUSH1 0xF PUSH1 0x20 MSTORE PUSH1 0x40 SWAP1 KECCAK256 PUSH1 0x9 SLOAD PUSH1 0xFF AND ISZERO DUP1 ISZERO PUSH2 0xEF8 JUMPI POP PUSH1 0xA SLOAD ISZERO JUMPDEST DUP1 PUSH2 0xF86 JUMPI POP PUSH1 0x40 MLOAD PUSH4 0xEA0D5DCD PUSH1 0xE0 SHL DUP2 MSTORE CALLER PUSH1 0x4 DUP3 ADD MSTORE PUSH32 0x0 PUSH1 0x1 PUSH1 0x1 PUSH1 0xA0 SHL SUB AND SWAP1 PUSH4 0xEA0D5DCD SWAP1 PUSH1 0x24 ADD PUSH1 0x20 PUSH1 0x40 MLOAD DUP1 DUP4 SUB DUP2 DUP7 GAS STATICCALL ISZERO DUP1 ISZERO PUSH2 0xF62 JUMPI RETURNDATASIZE PUSH1 0x0 DUP1 RETURNDATACOPY RETURNDATASIZE PUSH1 0x0 REVERT JUMPDEST POP POP POP POP PUSH1 0x40 MLOAD RETURNDATASIZE PUSH1 0x1F NOT PUSH1 0x1F DUP3 ADD AND DUP3 ADD DUP1 PUSH1 0x40 MSTORE POP DUP2 ADD SWAP1 PUSH2 0xF86 SWAP2 SWAP1 PUSH2 0x1C4C JUMP JUMPDEST PUSH2 0xFDE JUMPI PUSH1 0x40 MLOAD PUSH3 0x461BCD PUSH1 0xE5 SHL DUP2 MSTORE PUSH1 0x20 PUSH1 0x4 DUP3 ADD MSTORE PUSH1 0x24 DUP1 DUP3 ADD MSTORE PUSH32 0x4465706F7369743A204D757374206861766520616E206163746976652070726F PUSH1 0x44 DUP3 ADD MSTORE PUSH4 0x66696C65 PUSH1 0xE0 SHL PUSH1 0x64 DUP3 ADD MSTORE PUSH1 0x84 ADD PUSH2 0x492 JUMP JUMPDEST PUSH1 0xA SLOAD PUSH1 0x0 SWAP1 ISZERO PUSH2 0x107A JUMPI PUSH1 0x40 MLOAD PUSH4 0x4C3F70AB PUSH1 0xE1 SHL DUP2 MSTORE CALLER PUSH1 0x4 DUP3 ADD MSTORE PUSH32 0x0 PUSH1 0x1 PUSH1 0x1 PUSH1 0xA0 SHL SUB AND SWAP1 PUSH4 0x987EE156 SWAP1 PUSH1 0x24 ADD PUSH1 0xC0 PUSH1 0x40 MLOAD DUP1 DUP4 SUB DUP2 DUP7 GAS STATICCALL ISZERO DUP1 ISZERO PUSH2 0x104D JUMPI RETURNDATASIZE PUSH1 0x0 DUP1 RETURNDATACOPY RETURNDATASIZE PUSH1 0x0 REVERT JUMPDEST POP POP POP POP PUSH1 0x40 MLOAD RETURNDATASIZE PUSH1 0x1F NOT PUSH1 0x1F DUP3 ADD AND DUP3 ADD DUP1 PUSH1 0x40 MSTORE POP DUP2 ADD SWAP1 PUSH2 0x1071 SWAP2 SWAP1 PUSH2 0x1C69 JUMP JUMPDEST POP SWAP3 SWAP5 POP POP POP POP POP JUMPDEST PUSH1 0xA SLOAD ISZERO DUP1 PUSH2 0x108B JUMPI POP PUSH1 0xA SLOAD DUP2 LT ISZERO JUMPDEST PUSH2 0x10E3 JUMPI PUSH1 0x40 MLOAD PUSH3 0x461BCD PUSH1 0xE5 SHL DUP2 MSTORE PUSH1 0x20 PUSH1 0x4 DUP3 ADD MSTORE PUSH1 0x23 PUSH1 0x24 DUP3 ADD MSTORE PUSH32 0x4465706F7369743A205573657220686173206E6F7420656E6F75676820706F69 PUSH1 0x44 DUP3 ADD MSTORE PUSH3 0x6E7473 PUSH1 0xE8 SHL PUSH1 0x64 DUP3 ADD MSTORE PUSH1 0x84 ADD PUSH2 0x492 JUMP JUMPDEST PUSH2 0x10EB PUSH2 0x9B9 JUMP JUMPDEST PUSH1 0x2 DUP1 SLOAD PUSH1 0xFF NOT AND SWAP2 ISZERO ISZERO SWAP2 DUP3 OR SWAP1 SSTORE PUSH1 0xFF AND ISZERO DUP1 PUSH2 0x1117 JUMPI POP PUSH1 0x7 SLOAD DUP3 SLOAD PUSH2 0x1114 SWAP1 DUP6 PUSH2 0x1C20 JUMP JUMPDEST GT ISZERO JUMPDEST PUSH2 0x1163 JUMPI PUSH1 0x40 MLOAD PUSH3 0x461BCD PUSH1 0xE5 SHL DUP2 MSTORE PUSH1 0x20 PUSH1 0x4 DUP3 ADD MSTORE PUSH1 0x1B PUSH1 0x24 DUP3 ADD MSTORE PUSH32 0x4465706F7369743A20416D6F756E742061626F7665206C696D69740000000000 PUSH1 0x44 DUP3 ADD MSTORE PUSH1 0x64 ADD PUSH2 0x492 JUMP JUMPDEST PUSH2 0x116B PUSH2 0x14CC JUMP JUMPDEST DUP2 SLOAD ISZERO PUSH2 0x11C3 JUMPI PUSH1 0x0 DUP3 PUSH1 0x1 ADD SLOAD PUSH1 0xC SLOAD PUSH1 0x3 SLOAD DUP6 PUSH1 0x0 ADD SLOAD PUSH2 0x118E SWAP2 SWAP1 PUSH2 0x1BE7 JUMP JUMPDEST PUSH2 0x1198 SWAP2 SWAP1 PUSH2 0x1BFE JUMP JUMPDEST PUSH2 0x11A2 SWAP2 SWAP1 PUSH2 0x1AAD JUMP JUMPDEST SWAP1 POP DUP1 ISZERO PUSH2 0x11C1 JUMPI PUSH1 0xD SLOAD PUSH2 0x11C1 SWAP1 PUSH1 0x1 PUSH1 0x1 PUSH1 0xA0 SHL SUB AND CALLER DUP4 PUSH2 0x15A9 JUMP JUMPDEST POP JUMPDEST DUP3 ISZERO PUSH2 0x11F0 JUMPI DUP2 SLOAD PUSH2 0x11D6 SWAP1 DUP5 SWAP1 PUSH2 0x1C20 JUMP JUMPDEST DUP3 SSTORE PUSH1 0xE SLOAD PUSH2 0x11F0 SWAP1 PUSH1 0x1 PUSH1 0x1 PUSH1 0xA0 SHL SUB AND CALLER ADDRESS DUP7 PUSH2 0x1661 JUMP JUMPDEST PUSH1 0xC SLOAD PUSH1 0x3 SLOAD DUP4 SLOAD PUSH2 0x1202 SWAP2 SWAP1 PUSH2 0x1BE7 JUMP JUMPDEST PUSH2 0x120C SWAP2 SWAP1 PUSH2 0x1BFE JUMP JUMPDEST PUSH1 0x1 DUP4 ADD SSTORE PUSH1 0x40 MLOAD DUP4 DUP2 MSTORE CALLER SWAP1 PUSH32 0xE1FFFCC4923D04B559F4D29A8BFC6CDA04EB5B0D3C460751C2402C5C5CC9109C SWAP1 PUSH1 0x20 ADD PUSH2 0x880 JUMP JUMPDEST PUSH1 0x2 PUSH1 0x1 SLOAD SUB PUSH2 0x1265 JUMPI PUSH1 0x40 MLOAD PUSH3 0x461BCD PUSH1 0xE5 SHL DUP2 MSTORE PUSH1 0x4 ADD PUSH2 0x492 SWAP1 PUSH2 0x1BB0 JUMP JUMPDEST PUSH1 0x2 PUSH1 0x1 SWAP1 DUP2 SSTORE CALLER PUSH1 0x0 SWAP1 DUP2 MSTORE PUSH1 0xF PUSH1 0x20 MSTORE PUSH1 0x40 DUP2 KECCAK256 DUP1 SLOAD DUP3 DUP3 SSTORE SWAP3 DUP2 ADD SWAP2 SWAP1 SWAP2 SSTORE SWAP1 DUP1 ISZERO PUSH2 0x12A5 JUMPI PUSH1 0xE SLOAD PUSH2 0x12A5 SWAP1 PUSH1 0x1 PUSH1 0x1 PUSH1 0xA0 SHL SUB AND CALLER DUP4 PUSH2 0x15A9 JUMP JUMPDEST DUP2 SLOAD PUSH1 0x40 MLOAD SWAP1 DUP2 MSTORE CALLER SWAP1 PUSH32 0x5FAFA99D0643513820BE26656B45130B01E1C03062E1266BF36F88CBD3BD9695 SWAP1 PUSH1 0x20 ADD PUSH1 0x40 MLOAD DUP1 SWAP2 SUB SWAP1 LOG2 POP POP PUSH1 0x1 DUP1 SSTORE JUMP JUMPDEST PUSH1 0x0 SLOAD PUSH1 0x1 PUSH1 0x1 PUSH1 0xA0 SHL SUB AND CALLER EQ PUSH2 0x130E JUMPI PUSH1 0x40 MLOAD PUSH3 0x461BCD PUSH1 0xE5 SHL DUP2 MSTORE PUSH1 0x4 ADD PUSH2 0x492 SWAP1 PUSH2 0x1A3F JUMP JUMPDEST PUSH1 0x1 PUSH1 0x1 PUSH1 0xA0 SHL SUB DUP2 AND PUSH2 0x1373 JUMPI PUSH1 0x40 MLOAD PUSH3 0x461BCD PUSH1 0xE5 SHL DUP2 MSTORE PUSH1 0x20 PUSH1 0x4 DUP3 ADD MSTORE PUSH1 0x26 PUSH1 0x24 DUP3 ADD MSTORE PUSH32 0x4F776E61626C653A206E6577206F776E657220697320746865207A65726F2061 PUSH1 0x44 DUP3 ADD MSTORE PUSH6 0x646472657373 PUSH1 0xD0 SHL PUSH1 0x64 DUP3 ADD MSTORE PUSH1 0x84 ADD PUSH2 0x492 JUMP JUMPDEST PUSH2 0x8D2 DUP2 PUSH2 0x1611 JUMP JUMPDEST PUSH1 0x1 PUSH1 0x1 PUSH1 0xA0 SHL SUB DUP2 DUP2 AND PUSH1 0x0 SWAP1 DUP2 MSTORE PUSH1 0xF PUSH1 0x20 MSTORE PUSH1 0x40 DUP1 DUP3 KECCAK256 PUSH1 0xE SLOAD SWAP2 MLOAD PUSH4 0x70A08231 PUSH1 0xE0 SHL DUP2 MSTORE ADDRESS PUSH1 0x4 DUP3 ADD MSTORE SWAP3 SWAP4 SWAP1 SWAP3 DUP5 SWAP3 SWAP1 SWAP2 AND SWAP1 PUSH4 0x70A08231 SWAP1 PUSH1 0x24 ADD PUSH1 0x20 PUSH1 0x40 MLOAD DUP1 DUP4 SUB DUP2 DUP7 GAS STATICCALL ISZERO DUP1 ISZERO PUSH2 0x13DB JUMPI RETURNDATASIZE PUSH1 0x0 DUP1 RETURNDATACOPY RETURNDATASIZE PUSH1 0x0 REVERT JUMPDEST POP POP POP POP PUSH1 0x40 MLOAD RETURNDATASIZE PUSH1 0x1F NOT PUSH1 0x1F DUP3 ADD AND DUP3 ADD DUP1 PUSH1 0x40 MSTORE POP DUP2 ADD SWAP1 PUSH2 0x13FF SWAP2 SWAP1 PUSH2 0x1C33 JUMP JUMPDEST SWAP1 POP PUSH1 0x6 SLOAD NUMBER GT DUP1 ISZERO PUSH2 0x1411 JUMPI POP DUP1 ISZERO ISZERO JUMPDEST ISZERO PUSH2 0x1499 JUMPI PUSH1 0x0 PUSH2 0x1424 PUSH1 0x6 SLOAD NUMBER PUSH2 0x169F JUMP JUMPDEST SWAP1 POP PUSH1 0x0 PUSH1 0xB SLOAD DUP3 PUSH2 0x1436 SWAP2 SWAP1 PUSH2 0x1BE7 JUMP JUMPDEST SWAP1 POP PUSH1 0x0 DUP4 PUSH1 0xC SLOAD DUP4 PUSH2 0x1449 SWAP2 SWAP1 PUSH2 0x1BE7 JUMP JUMPDEST PUSH2 0x1453 SWAP2 SWAP1 PUSH2 0x1BFE JUMP JUMPDEST PUSH1 0x3 SLOAD PUSH2 0x1460 SWAP2 SWAP1 PUSH2 0x1C20 JUMP JUMPDEST SWAP1 POP DUP5 PUSH1 0x1 ADD SLOAD PUSH1 0xC SLOAD DUP3 DUP8 PUSH1 0x0 ADD SLOAD PUSH2 0x147A SWAP2 SWAP1 PUSH2 0x1BE7 JUMP JUMPDEST PUSH2 0x1484 SWAP2 SWAP1 PUSH2 0x1BFE JUMP JUMPDEST PUSH2 0x148E SWAP2 SWAP1 PUSH2 0x1AAD JUMP JUMPDEST SWAP8 SWAP7 POP POP POP POP POP POP POP JUMP JUMPDEST PUSH1 0x1 DUP3 ADD SLOAD PUSH1 0xC SLOAD PUSH1 0x3 SLOAD DUP5 SLOAD PUSH2 0x14B0 SWAP2 SWAP1 PUSH2 0x1BE7 JUMP JUMPDEST PUSH2 0x14BA SWAP2 SWAP1 PUSH2 0x1BFE JUMP JUMPDEST PUSH2 0x14C4 SWAP2 SWAP1 PUSH2 0x1AAD JUMP JUMPDEST SWAP5 SWAP4 POP POP POP POP JUMP JUMPDEST PUSH1 0x6 SLOAD NUMBER GT PUSH2 0x14D7 JUMPI JUMP JUMPDEST PUSH1 0xE SLOAD PUSH1 0x40 MLOAD PUSH4 0x70A08231 PUSH1 0xE0 SHL DUP2 MSTORE ADDRESS PUSH1 0x4 DUP3 ADD MSTORE PUSH1 0x0 SWAP2 PUSH1 0x1 PUSH1 0x1 PUSH1 0xA0 SHL SUB AND SWAP1 PUSH4 0x70A08231 SWAP1 PUSH1 0x24 ADD PUSH1 0x20 PUSH1 0x40 MLOAD DUP1 DUP4 SUB DUP2 DUP7 GAS STATICCALL ISZERO DUP1 ISZERO PUSH2 0x1520 JUMPI RETURNDATASIZE PUSH1 0x0 DUP1 RETURNDATACOPY RETURNDATASIZE PUSH1 0x0 REVERT JUMPDEST POP POP POP POP PUSH1 0x40 MLOAD RETURNDATASIZE PUSH1 0x1F NOT PUSH1 0x1F DUP3 ADD AND DUP3 ADD DUP1 PUSH1 0x40 MSTORE POP DUP2 ADD SWAP1 PUSH2 0x1544 SWAP2 SWAP1 PUSH2 0x1C33 JUMP JUMPDEST SWAP1 POP DUP1 PUSH1 0x0 SUB PUSH2 0x1555 JUMPI POP NUMBER PUSH1 0x6 SSTORE JUMP JUMPDEST PUSH1 0x0 PUSH2 0x1563 PUSH1 0x6 SLOAD NUMBER PUSH2 0x169F JUMP JUMPDEST SWAP1 POP PUSH1 0x0 PUSH1 0xB SLOAD DUP3 PUSH2 0x1575 SWAP2 SWAP1 PUSH2 0x1BE7 JUMP JUMPDEST SWAP1 POP DUP3 PUSH1 0xC SLOAD DUP3 PUSH2 0x1586 SWAP2 SWAP1 PUSH2 0x1BE7 JUMP JUMPDEST PUSH2 0x1590 SWAP2 SWAP1 PUSH2 0x1BFE JUMP JUMPDEST PUSH1 0x3 SLOAD PUSH2 0x159D SWAP2 SWAP1 PUSH2 0x1C20 JUMP JUMPDEST PUSH1 0x3 SSTORE POP POP NUMBER PUSH1 0x6 SSTORE POP JUMP JUMPDEST PUSH1 0x40 MLOAD PUSH1 0x1 PUSH1 0x1 PUSH1 0xA0 SHL SUB DUP4 AND PUSH1 0x24 DUP3 ADD MSTORE PUSH1 0x44 DUP2 ADD DUP3 SWAP1 MSTORE PUSH2 0x160C SWAP1 DUP5 SWAP1 PUSH4 0xA9059CBB PUSH1 0xE0 SHL SWAP1 PUSH1 0x64 ADD JUMPDEST PUSH1 0x40 DUP1 MLOAD PUSH1 0x1F NOT DUP2 DUP5 SUB ADD DUP2 MSTORE SWAP2 SWAP1 MSTORE PUSH1 0x20 DUP2 ADD DUP1 MLOAD PUSH1 0x1 PUSH1 0x1 PUSH1 0xE0 SHL SUB AND PUSH1 0x1 PUSH1 0x1 PUSH1 0xE0 SHL SUB NOT SWAP1 SWAP4 AND SWAP3 SWAP1 SWAP3 OR SWAP1 SWAP2 MSTORE PUSH2 0x16E0 JUMP JUMPDEST POP POP POP JUMP JUMPDEST PUSH1 0x0 DUP1 SLOAD PUSH1 0x1 PUSH1 0x1 PUSH1 0xA0 SHL SUB DUP4 DUP2 AND PUSH1 0x1 PUSH1 0x1 PUSH1 0xA0 SHL SUB NOT DUP4 AND DUP2 OR DUP5 SSTORE PUSH1 0x40 MLOAD SWAP2 SWAP1 SWAP3 AND SWAP3 DUP4 SWAP2 PUSH32 0x8BE0079C531659141344CD1FD0A4F28419497F9722A3DAAFE3B4186F6B6457E0 SWAP2 SWAP1 LOG3 POP POP JUMP JUMPDEST PUSH1 0x40 MLOAD PUSH1 0x1 PUSH1 0x1 PUSH1 0xA0 SHL SUB DUP1 DUP6 AND PUSH1 0x24 DUP4 ADD MSTORE DUP4 AND PUSH1 0x44 DUP3 ADD MSTORE PUSH1 0x64 DUP2 ADD DUP3 SWAP1 MSTORE PUSH2 0x1699 SWAP1 DUP6 SWAP1 PUSH4 0x23B872DD PUSH1 0xE0 SHL SWAP1 PUSH1 0x84 ADD PUSH2 0x15D5 JUMP JUMPDEST POP POP POP POP JUMP JUMPDEST PUSH1 0x0 PUSH1 0x4 SLOAD DUP3 GT PUSH2 0x16BB JUMPI PUSH2 0x16B4 DUP4 DUP4 PUSH2 0x1AAD JUMP JUMPDEST SWAP1 POP PUSH2 0x16DA JUMP JUMPDEST PUSH1 0x4 SLOAD DUP4 LT PUSH2 0x16CC JUMPI POP PUSH1 0x0 PUSH2 0x16DA JUMP JUMPDEST DUP3 PUSH1 0x4 SLOAD PUSH2 0x16B4 SWAP2 SWAP1 PUSH2 0x1AAD JUMP JUMPDEST SWAP3 SWAP2 POP POP JUMP JUMPDEST PUSH1 0x0 PUSH2 0x1735 DUP3 PUSH1 0x40 MLOAD DUP1 PUSH1 0x40 ADD PUSH1 0x40 MSTORE DUP1 PUSH1 0x20 DUP2 MSTORE PUSH1 0x20 ADD PUSH32 0x5361666545524332303A206C6F772D6C6576656C2063616C6C206661696C6564 DUP2 MSTORE POP DUP6 PUSH1 0x1 PUSH1 0x1 PUSH1 0xA0 SHL SUB AND PUSH2 0x17B2 SWAP1 SWAP3 SWAP2 SWAP1 PUSH4 0xFFFFFFFF AND JUMP JUMPDEST DUP1 MLOAD SWAP1 SWAP2 POP ISZERO PUSH2 0x160C JUMPI DUP1 DUP1 PUSH1 0x20 ADD SWAP1 MLOAD DUP2 ADD SWAP1 PUSH2 0x1753 SWAP2 SWAP1 PUSH2 0x1C4C JUMP JUMPDEST PUSH2 0x160C JUMPI PUSH1 0x40 MLOAD PUSH3 0x461BCD PUSH1 0xE5 SHL DUP2 MSTORE PUSH1 0x20 PUSH1 0x4 DUP3 ADD MSTORE PUSH1 0x2A PUSH1 0x24 DUP3 ADD MSTORE PUSH32 0x5361666545524332303A204552433230206F7065726174696F6E20646964206E PUSH1 0x44 DUP3 ADD MSTORE PUSH10 0x1BDD081CDD58D8D95959 PUSH1 0xB2 SHL PUSH1 0x64 DUP3 ADD MSTORE PUSH1 0x84 ADD PUSH2 0x492 JUMP JUMPDEST PUSH1 0x60 PUSH2 0x17C1 DUP5 DUP5 PUSH1 0x0 DUP6 PUSH2 0x17CB JUMP JUMPDEST SWAP1 POP JUMPDEST SWAP4 SWAP3 POP POP POP JUMP JUMPDEST PUSH1 0x60 DUP3 SELFBALANCE LT ISZERO PUSH2 0x182C JUMPI PUSH1 0x40 MLOAD PUSH3 0x461BCD PUSH1 0xE5 SHL DUP2 MSTORE PUSH1 0x20 PUSH1 0x4 DUP3 ADD MSTORE PUSH1 0x26 PUSH1 0x24 DUP3 ADD MSTORE PUSH32 0x416464726573733A20696E73756666696369656E742062616C616E636520666F PUSH1 0x44 DUP3 ADD MSTORE PUSH6 0x1C8818D85B1B PUSH1 0xD2 SHL PUSH1 0x64 DUP3 ADD MSTORE PUSH1 0x84 ADD PUSH2 0x492 JUMP JUMPDEST DUP5 EXTCODESIZE PUSH2 0x187A JUMPI PUSH1 0x40 MLOAD PUSH3 0x461BCD PUSH1 0xE5 SHL DUP2 MSTORE PUSH1 0x20 PUSH1 0x4 DUP3 ADD MSTORE PUSH1 0x1D PUSH1 0x24 DUP3 ADD MSTORE PUSH32 0x416464726573733A2063616C6C20746F206E6F6E2D636F6E7472616374000000 PUSH1 0x44 DUP3 ADD MSTORE PUSH1 0x64 ADD PUSH2 0x492 JUMP JUMPDEST PUSH1 0x0 DUP1 DUP7 PUSH1 0x1 PUSH1 0x1 PUSH1 0xA0 SHL SUB AND DUP6 DUP8 PUSH1 0x40 MLOAD PUSH2 0x1896 SWAP2 SWAP1 PUSH2 0x1CEC JUMP JUMPDEST PUSH1 0x0 PUSH1 0x40 MLOAD DUP1 DUP4 SUB DUP2 DUP6 DUP8 GAS CALL SWAP3 POP POP POP RETURNDATASIZE DUP1 PUSH1 0x0 DUP2 EQ PUSH2 0x18D3 JUMPI PUSH1 0x40 MLOAD SWAP2 POP PUSH1 0x1F NOT PUSH1 0x3F RETURNDATASIZE ADD AND DUP3 ADD PUSH1 0x40 MSTORE RETURNDATASIZE DUP3 MSTORE RETURNDATASIZE PUSH1 0x0 PUSH1 0x20 DUP5 ADD RETURNDATACOPY PUSH2 0x18D8 JUMP JUMPDEST PUSH1 0x60 SWAP2 POP JUMPDEST POP SWAP2 POP SWAP2 POP PUSH2 0x148E DUP3 DUP3 DUP7 PUSH1 0x60 DUP4 ISZERO PUSH2 0x18F2 JUMPI POP DUP2 PUSH2 0x17C4 JUMP JUMPDEST DUP3 MLOAD ISZERO PUSH2 0x1902 JUMPI DUP3 MLOAD DUP1 DUP5 PUSH1 0x20 ADD REVERT JUMPDEST DUP2 PUSH1 0x40 MLOAD PUSH3 0x461BCD PUSH1 0xE5 SHL DUP2 MSTORE PUSH1 0x4 ADD PUSH2 0x492 SWAP2 SWAP1 PUSH2 0x1D08 JUMP JUMPDEST PUSH1 0x0 PUSH1 0x20 DUP3 DUP5 SUB SLT ISZERO PUSH2 0x192E JUMPI PUSH1 0x0 DUP1 REVERT JUMPDEST POP CALLDATALOAD SWAP2 SWAP1 POP JUMP JUMPDEST PUSH1 0x1 PUSH1 0x1 PUSH1 0xA0 SHL SUB DUP2 AND DUP2 EQ PUSH2 0x8D2 JUMPI PUSH1 0x0 DUP1 REVERT JUMPDEST PUSH1 0x0 PUSH1 0x20 DUP3 DUP5 SUB SLT ISZERO PUSH2 0x195C JUMPI PUSH1 0x0 DUP1 REVERT JUMPDEST DUP2 CALLDATALOAD PUSH2 0x17C4 DUP2 PUSH2 0x1935 JUMP JUMPDEST PUSH1 0x0 DUP1 PUSH1 0x0 DUP1 PUSH1 0x0 DUP1 PUSH1 0x0 DUP1 PUSH2 0x100 DUP10 DUP12 SUB SLT ISZERO PUSH2 0x1984 JUMPI PUSH1 0x0 DUP1 REVERT JUMPDEST DUP9 CALLDATALOAD PUSH2 0x198F DUP2 PUSH2 0x1935 JUMP JUMPDEST SWAP8 POP PUSH1 0x20 DUP10 ADD CALLDATALOAD PUSH2 0x199F DUP2 PUSH2 0x1935 JUMP JUMPDEST SWAP7 POP PUSH1 0x40 DUP10 ADD CALLDATALOAD SWAP6 POP PUSH1 0x60 DUP10 ADD CALLDATALOAD SWAP5 POP PUSH1 0x80 DUP10 ADD CALLDATALOAD SWAP4 POP PUSH1 0xA0 DUP10 ADD CALLDATALOAD SWAP3 POP PUSH1 0xC0 DUP10 ADD CALLDATALOAD SWAP2 POP PUSH1 0xE0 DUP10 ADD CALLDATALOAD PUSH2 0x19D2 DUP2 PUSH2 0x1935 JUMP JUMPDEST DUP1 SWAP2 POP POP SWAP3 SWAP6 SWAP9 POP SWAP3 SWAP6 SWAP9 SWAP1 SWAP4 SWAP7 POP JUMP JUMPDEST DUP1 ISZERO ISZERO DUP2 EQ PUSH2 0x8D2 JUMPI PUSH1 0x0 DUP1 REVERT JUMPDEST PUSH1 0x0 DUP1 PUSH1 0x40 DUP4 DUP6 SUB SLT ISZERO PUSH2 0x1A04 JUMPI PUSH1 0x0 DUP1 REVERT JUMPDEST DUP3 CALLDATALOAD PUSH2 0x1A0F DUP2 PUSH2 0x19E3 JUMP JUMPDEST SWAP5 PUSH1 0x20 SWAP4 SWAP1 SWAP4 ADD CALLDATALOAD SWAP4 POP POP POP JUMP JUMPDEST PUSH1 0x0 DUP1 PUSH1 0x40 DUP4 DUP6 SUB SLT ISZERO PUSH2 0x1A30 JUMPI PUSH1 0x0 DUP1 REVERT JUMPDEST POP POP DUP1 CALLDATALOAD SWAP3 PUSH1 0x20 SWAP1 SWAP2 ADD CALLDATALOAD SWAP2 POP JUMP JUMPDEST PUSH1 0x20 DUP1 DUP3 MSTORE DUP2 DUP2 ADD MSTORE PUSH32 0x4F776E61626C653A2063616C6C6572206973206E6F7420746865206F776E6572 PUSH1 0x40 DUP3 ADD MSTORE PUSH1 0x60 ADD SWAP1 JUMP JUMPDEST PUSH1 0x0 PUSH1 0x20 DUP3 DUP5 SUB SLT ISZERO PUSH2 0x1A86 JUMPI PUSH1 0x0 DUP1 REVERT JUMPDEST DUP2 MLOAD PUSH1 0xFF DUP2 AND DUP2 EQ PUSH2 0x17C4 JUMPI PUSH1 0x0 DUP1 REVERT JUMPDEST PUSH4 0x4E487B71 PUSH1 0xE0 SHL PUSH1 0x0 MSTORE PUSH1 0x11 PUSH1 0x4 MSTORE PUSH1 0x24 PUSH1 0x0 REVERT JUMPDEST DUP2 DUP2 SUB DUP2 DUP2 GT ISZERO PUSH2 0x16DA JUMPI PUSH2 0x16DA PUSH2 0x1A97 JUMP JUMPDEST PUSH1 0x1 DUP2 DUP2 JUMPDEST DUP1 DUP6 GT ISZERO PUSH2 0x1AFB JUMPI DUP2 PUSH1 0x0 NOT DIV DUP3 GT ISZERO PUSH2 0x1AE1 JUMPI PUSH2 0x1AE1 PUSH2 0x1A97 JUMP JUMPDEST DUP1 DUP6 AND ISZERO PUSH2 0x1AEE JUMPI SWAP2 DUP2 MUL SWAP2 JUMPDEST SWAP4 DUP5 SHR SWAP4 SWAP1 DUP1 MUL SWAP1 PUSH2 0x1AC5 JUMP JUMPDEST POP SWAP3 POP SWAP3 SWAP1 POP JUMP JUMPDEST PUSH1 0x0 DUP3 PUSH2 0x1B12 JUMPI POP PUSH1 0x1 PUSH2 0x16DA JUMP JUMPDEST DUP2 PUSH2 0x1B1F JUMPI POP PUSH1 0x0 PUSH2 0x16DA JUMP JUMPDEST DUP2 PUSH1 0x1 DUP2 EQ PUSH2 0x1B35 JUMPI PUSH1 0x2 DUP2 EQ PUSH2 0x1B3F JUMPI PUSH2 0x1B5B JUMP JUMPDEST PUSH1 0x1 SWAP2 POP POP PUSH2 0x16DA JUMP JUMPDEST PUSH1 0xFF DUP5 GT ISZERO PUSH2 0x1B50 JUMPI PUSH2 0x1B50 PUSH2 0x1A97 JUMP JUMPDEST POP POP PUSH1 0x1 DUP3 SHL PUSH2 0x16DA JUMP JUMPDEST POP PUSH1 0x20 DUP4 LT PUSH2 0x133 DUP4 LT AND PUSH1 0x4E DUP5 LT PUSH1 0xB DUP5 LT AND OR ISZERO PUSH2 0x1B7E JUMPI POP DUP2 DUP2 EXP PUSH2 0x16DA JUMP JUMPDEST PUSH2 0x1B88 DUP4 DUP4 PUSH2 0x1AC0 JUMP JUMPDEST DUP1 PUSH1 0x0 NOT DIV DUP3 GT ISZERO PUSH2 0x1B9C JUMPI PUSH2 0x1B9C PUSH2 0x1A97 JUMP JUMPDEST MUL SWAP4 SWAP3 POP POP POP JUMP JUMPDEST PUSH1 0x0 PUSH2 0x17C4 DUP4 DUP4 PUSH2 0x1B03 JUMP JUMPDEST PUSH1 0x20 DUP1 DUP3 MSTORE PUSH1 0x1F SWAP1 DUP3 ADD MSTORE PUSH32 0x5265656E7472616E637947756172643A207265656E7472616E742063616C6C00 PUSH1 0x40 DUP3 ADD MSTORE PUSH1 0x60 ADD SWAP1 JUMP JUMPDEST DUP1 DUP3 MUL DUP2 ISZERO DUP3 DUP3 DIV DUP5 EQ OR PUSH2 0x16DA JUMPI PUSH2 0x16DA PUSH2 0x1A97 JUMP JUMPDEST PUSH1 0x0 DUP3 PUSH2 0x1C1B JUMPI PUSH4 0x4E487B71 PUSH1 0xE0 SHL PUSH1 0x0 MSTORE PUSH1 0x12 PUSH1 0x4 MSTORE PUSH1 0x24 PUSH1 0x0 REVERT JUMPDEST POP DIV SWAP1 JUMP JUMPDEST DUP1 DUP3 ADD DUP1 DUP3 GT ISZERO PUSH2 0x16DA JUMPI PUSH2 0x16DA PUSH2 0x1A97 JUMP JUMPDEST PUSH1 0x0 PUSH1 0x20 DUP3 DUP5 SUB SLT ISZERO PUSH2 0x1C45 JUMPI PUSH1 0x0 DUP1 REVERT JUMPDEST POP MLOAD SWAP2 SWAP1 POP JUMP JUMPDEST PUSH1 0x0 PUSH1 0x20 DUP3 DUP5 SUB SLT ISZERO PUSH2 0x1C5E JUMPI PUSH1 0x0 DUP1 REVERT JUMPDEST DUP2 MLOAD PUSH2 0x17C4 DUP2 PUSH2 0x19E3 JUMP JUMPDEST PUSH1 0x0 DUP1 PUSH1 0x0 DUP1 PUSH1 0x0 DUP1 PUSH1 0xC0 DUP8 DUP10 SUB SLT ISZERO PUSH2 0x1C82 JUMPI PUSH1 0x0 DUP1 REVERT JUMPDEST DUP7 MLOAD SWAP6 POP PUSH1 0x20 DUP8 ADD MLOAD SWAP5 POP PUSH1 0x40 DUP8 ADD MLOAD SWAP4 POP PUSH1 0x60 DUP8 ADD MLOAD PUSH2 0x1CA2 DUP2 PUSH2 0x1935 JUMP JUMPDEST PUSH1 0x80 DUP9 ADD MLOAD PUSH1 0xA0 DUP10 ADD MLOAD SWAP2 SWAP5 POP SWAP3 POP PUSH2 0x1CBA DUP2 PUSH2 0x19E3 JUMP JUMPDEST DUP1 SWAP2 POP POP SWAP3 SWAP6 POP SWAP3 SWAP6 POP SWAP3 SWAP6 JUMP JUMPDEST PUSH1 0x0 JUMPDEST DUP4 DUP2 LT ISZERO PUSH2 0x1CE3 JUMPI DUP2 DUP2 ADD MLOAD DUP4 DUP3 ADD MSTORE PUSH1 0x20 ADD PUSH2 0x1CCB JUMP JUMPDEST POP POP PUSH1 0x0 SWAP2 ADD MSTORE JUMP JUMPDEST PUSH1 0x0 DUP3 MLOAD PUSH2 0x1CFE DUP2 DUP5 PUSH1 0x20 DUP8 ADD PUSH2 0x1CC8 JUMP JUMPDEST SWAP2 SWAP1 SWAP2 ADD SWAP3 SWAP2 POP POP JUMP JUMPDEST PUSH1 0x20 DUP2 MSTORE PUSH1 0x0 DUP3 MLOAD DUP1 PUSH1 0x20 DUP5 ADD MSTORE PUSH2 0x1D27 DUP2 PUSH1 0x40 DUP6 ADD PUSH1 0x20 DUP8 ADD PUSH2 0x1CC8 JUMP JUMPDEST PUSH1 0x1F ADD PUSH1 0x1F NOT AND SWAP2 SWAP1 SWAP2 ADD PUSH1 0x40 ADD SWAP3 SWAP2 POP POP JUMP INVALID LOG2 PUSH5 0x6970667358 0x22 SLT KECCAK256 MUL ISZERO 0xC9 SWAP11 DUP12 0x23 0xED SUB BASEFEE 0xD0 PUSH7 0x929ECAB7B6AA5D 0xE5 INVALID BYTE JUMPI 0xC1 SAR 0xD2 0xBA CALLDATACOPY 0x5C 0x21 0xB7 ADDMOD DUP9 PUSH5 0x736F6C6343 STOP ADDMOD GT STOP CALLER LOG2 PUSH5 0x6970667358 0x22 SLT KECCAK256 0xF DUP8 PUSH29 0x641265466B8697D2352EF2ABC6F58616C1D902E9D35774B4D6C5262F9A PUSH5 0x736F6C6343 STOP ADDMOD GT STOP CALLER "
		},
		"gasEstimates": {
			"creation": {
				"codeDepositCost": "2018000",
				"executionCost": "27983",
				"totalCost": "2045983"
			},
			"external": {
				"deployPool(address,address,uint256,uint256,uint256,uint256,uint256,address,bool,uint256,address)": "infinite",
				"owner()": "2292",
				"renounceOwnership()": "28092",
				"transferOwnership(address)": "infinite"
			}
		},
		"methodIdentifiers": {
			"deployPool(address,address,uint256,uint256,uint256,uint256,uint256,address,bool,uint256,address)": "f8d98c8a",
			"owner()": "8da5cb5b",
			"renounceOwnership()": "715018a6",
			"transferOwnership(address)": "f2fde38b"
		}
	},
	"abi": [
		{
			"inputs": [],
			"stateMutability": "nonpayable",
			"type": "constructor"
		},
		{
			"anonymous": false,
			"inputs": [
				{
					"indexed": true,
					"internalType": "address",
					"name": "smartChef",
					"type": "address"
				}
			],
			"name": "NewSmartChefContract",
			"type": "event"
		},
		{
			"anonymous": false,
			"inputs": [
				{
					"indexed": true,
					"internalType": "address",
					"name": "previousOwner",
					"type": "address"
				},
				{
					"indexed": true,
					"internalType": "address",
					"name": "newOwner",
					"type": "address"
				}
			],
			"name": "OwnershipTransferred",
			"type": "event"
		},
		{
			"inputs": [
				{
					"internalType": "contract IERC20Metadata",
					"name": "_stakedToken",
					"type": "address"
				},
				{
					"internalType": "contract IERC20Metadata",
					"name": "_rewardToken",
					"type": "address"
				},
				{
					"internalType": "uint256",
					"name": "_rewardPerBlock",
					"type": "uint256"
				},
				{
					"internalType": "uint256",
					"name": "_startBlock",
					"type": "uint256"
				},
				{
					"internalType": "uint256",
					"name": "_bonusEndBlock",
					"type": "uint256"
				},
				{
					"internalType": "uint256",
					"name": "_poolLimitPerUser",
					"type": "uint256"
				},
				{
					"internalType": "uint256",
					"name": "_numberBlocksForUserLimit",
					"type": "uint256"
				},
				{
					"internalType": "address",
					"name": "_pancakeProfile",
					"type": "address"
				},
				{
					"internalType": "bool",
					"name": "_pancakeProfileIsRequested",
					"type": "bool"
				},
				{
					"internalType": "uint256",
					"name": "_pancakeProfileThresholdPoints",
					"type": "uint256"
				},
				{
					"internalType": "address",
					"name": "_admin",
					"type": "address"
				}
			],
			"name": "deployPool",
			"outputs": [],
			"stateMutability": "nonpayable",
			"type": "function"
		},
		{
			"inputs": [],
			"name": "owner",
			"outputs": [
				{
					"internalType": "address",
					"name": "",
					"type": "address"
				}
			],
			"stateMutability": "view",
			"type": "function"
		},
		{
			"inputs": [],
			"name": "renounceOwnership",
			"outputs": [],
			"stateMutability": "nonpayable",
			"type": "function"
		},
		{
			"inputs": [
				{
					"internalType": "address",
					"name": "newOwner",
					"type": "address"
				}
			],
			"name": "transferOwnership",
			"outputs": [],
			"stateMutability": "nonpayable",
			"type": "function"
		}
	]
}